{
  "_format": "hh-sol-artifact-1",
  "contractName": "BMT",
  "sourceName": "contracts/V2/BMT.sol",
  "abi": [
    {
      "inputs": [],
      "stateMutability": "nonpayable",
      "type": "constructor"
    },
    {
      "inputs": [
        {
          "internalType": "address",
          "name": "spender",
          "type": "address"
        },
        {
          "internalType": "uint256",
          "name": "allowance",
          "type": "uint256"
        },
        {
          "internalType": "uint256",
          "name": "needed",
          "type": "uint256"
        }
      ],
      "name": "ERC20InsufficientAllowance",
      "type": "error"
    },
    {
      "inputs": [
        {
          "internalType": "address",
          "name": "sender",
          "type": "address"
        },
        {
          "internalType": "uint256",
          "name": "balance",
          "type": "uint256"
        },
        {
          "internalType": "uint256",
          "name": "needed",
          "type": "uint256"
        }
      ],
      "name": "ERC20InsufficientBalance",
      "type": "error"
    },
    {
      "inputs": [
        {
          "internalType": "address",
          "name": "approver",
          "type": "address"
        }
      ],
      "name": "ERC20InvalidApprover",
      "type": "error"
    },
    {
      "inputs": [
        {
          "internalType": "address",
          "name": "receiver",
          "type": "address"
        }
      ],
      "name": "ERC20InvalidReceiver",
      "type": "error"
    },
    {
      "inputs": [
        {
          "internalType": "address",
          "name": "sender",
          "type": "address"
        }
      ],
      "name": "ERC20InvalidSender",
      "type": "error"
    },
    {
      "inputs": [
        {
          "internalType": "address",
          "name": "spender",
          "type": "address"
        }
      ],
      "name": "ERC20InvalidSpender",
      "type": "error"
    },
    {
      "inputs": [
        {
          "internalType": "address",
          "name": "owner",
          "type": "address"
        }
      ],
      "name": "OwnableInvalidOwner",
      "type": "error"
    },
    {
      "inputs": [
        {
          "internalType": "address",
          "name": "account",
          "type": "address"
        }
      ],
      "name": "OwnableUnauthorizedAccount",
      "type": "error"
    },
    {
      "anonymous": false,
      "inputs": [
        {
          "indexed": true,
          "internalType": "address",
          "name": "owner",
          "type": "address"
        },
        {
          "indexed": true,
          "internalType": "address",
          "name": "spender",
          "type": "address"
        },
        {
          "indexed": false,
          "internalType": "uint256",
          "name": "value",
          "type": "uint256"
        }
      ],
      "name": "Approval",
      "type": "event"
    },
    {
      "anonymous": false,
      "inputs": [
        {
          "indexed": true,
          "internalType": "address",
          "name": "previousOwner",
          "type": "address"
        },
        {
          "indexed": true,
          "internalType": "address",
          "name": "newOwner",
          "type": "address"
        }
      ],
      "name": "OwnershipTransferred",
      "type": "event"
    },
    {
      "anonymous": false,
      "inputs": [
        {
          "indexed": true,
          "internalType": "address",
          "name": "from",
          "type": "address"
        },
        {
          "indexed": true,
          "internalType": "address",
          "name": "to",
          "type": "address"
        },
        {
          "indexed": false,
          "internalType": "uint256",
          "name": "value",
          "type": "uint256"
        }
      ],
      "name": "Transfer",
      "type": "event"
    },
    {
      "inputs": [
        {
          "internalType": "address",
          "name": "owner",
          "type": "address"
        },
        {
          "internalType": "address",
          "name": "spender",
          "type": "address"
        }
      ],
      "name": "allowance",
      "outputs": [
        {
          "internalType": "uint256",
          "name": "",
          "type": "uint256"
        }
      ],
      "stateMutability": "view",
      "type": "function"
    },
    {
      "inputs": [
        {
          "internalType": "address",
          "name": "spender",
          "type": "address"
        },
        {
          "internalType": "uint256",
          "name": "value",
          "type": "uint256"
        }
      ],
      "name": "approve",
      "outputs": [
        {
          "internalType": "bool",
          "name": "",
          "type": "bool"
        }
      ],
      "stateMutability": "nonpayable",
      "type": "function"
    },
    {
      "inputs": [
        {
          "internalType": "address",
          "name": "account",
          "type": "address"
        }
      ],
      "name": "balanceOf",
      "outputs": [
        {
          "internalType": "uint256",
          "name": "",
          "type": "uint256"
        }
      ],
      "stateMutability": "view",
      "type": "function"
    },
    {
      "inputs": [],
      "name": "decimals",
      "outputs": [
        {
          "internalType": "uint8",
          "name": "",
          "type": "uint8"
        }
      ],
      "stateMutability": "view",
      "type": "function"
    },
    {
      "inputs": [],
      "name": "faucet",
      "outputs": [],
      "stateMutability": "nonpayable",
      "type": "function"
    },
    {
      "inputs": [],
      "name": "name",
      "outputs": [
        {
          "internalType": "string",
          "name": "",
          "type": "string"
        }
      ],
      "stateMutability": "view",
      "type": "function"
    },
    {
      "inputs": [],
      "name": "owner",
      "outputs": [
        {
          "internalType": "address",
          "name": "",
          "type": "address"
        }
      ],
      "stateMutability": "view",
      "type": "function"
    },
    {
      "inputs": [],
      "name": "renounceOwnership",
      "outputs": [],
      "stateMutability": "nonpayable",
      "type": "function"
    },
    {
      "inputs": [],
      "name": "symbol",
      "outputs": [
        {
          "internalType": "string",
          "name": "",
          "type": "string"
        }
      ],
      "stateMutability": "view",
      "type": "function"
    },
    {
      "inputs": [],
      "name": "totalSupply",
      "outputs": [
        {
          "internalType": "uint256",
          "name": "",
          "type": "uint256"
        }
      ],
      "stateMutability": "view",
      "type": "function"
    },
    {
      "inputs": [
        {
          "internalType": "address",
          "name": "to",
          "type": "address"
        },
        {
          "internalType": "uint256",
          "name": "value",
          "type": "uint256"
        }
      ],
      "name": "transfer",
      "outputs": [
        {
          "internalType": "bool",
          "name": "",
          "type": "bool"
        }
      ],
      "stateMutability": "nonpayable",
      "type": "function"
    },
    {
      "inputs": [
        {
          "internalType": "address",
          "name": "from",
          "type": "address"
        },
        {
          "internalType": "address",
          "name": "to",
          "type": "address"
        },
        {
          "internalType": "uint256",
          "name": "value",
          "type": "uint256"
        }
      ],
      "name": "transferFrom",
      "outputs": [
        {
          "internalType": "bool",
          "name": "",
          "type": "bool"
        }
      ],
      "stateMutability": "nonpayable",
      "type": "function"
    },
    {
      "inputs": [
        {
          "internalType": "address",
          "name": "newOwner",
          "type": "address"
        }
      ],
      "name": "transferOwnership",
      "outputs": [],
      "stateMutability": "nonpayable",
      "type": "function"
    }
  ],
  "bytecode": "0x608060405234801562000010575f80fd5b50336040518060400160405280600381526020016210935560ea1b815250604051806040016040528060088152602001672126903a37b5b2b760c11b815250816003908162000060919062000327565b5060046200006f828262000327565b5050506001600160a01b038116620000a157604051631e4fbdf760e01b81525f60048201526024015b60405180910390fd5b620000ac81620000cb565b50620000c5336b033b2e3c9fd0803ce80000006200011c565b62000415565b600580546001600160a01b038381166001600160a01b0319831681179093556040519116919082907f8be0079c531659141344cd1fd0a4f28419497f9722a3daafe3b4186f6b6457e0905f90a35050565b6001600160a01b038216620001475760405163ec442f0560e01b81525f600482015260240162000098565b620001545f838362000158565b5050565b6001600160a01b03831662000186578060025f8282546200017a9190620003ef565b90915550620001f89050565b6001600160a01b0383165f9081526020819052604090205481811015620001da5760405163391434e360e21b81526001600160a01b0385166004820152602481018290526044810183905260640162000098565b6001600160a01b0384165f9081526020819052604090209082900390555b6001600160a01b038216620002165760028054829003905562000234565b6001600160a01b0382165f9081526020819052604090208054820190555b816001600160a01b0316836001600160a01b03167fddf252ad1be2c89b69c2b068fc378daa952ba7f163c4a11628f55a4df523b3ef836040516200027a91815260200190565b60405180910390a3505050565b634e487b7160e01b5f52604160045260245ffd5b600181811c90821680620002b057607f821691505b602082108103620002cf57634e487b7160e01b5f52602260045260245ffd5b50919050565b601f82111562000322575f81815260208120601f850160051c81016020861015620002fd5750805b601f850160051c820191505b818110156200031e5782815560010162000309565b5050505b505050565b81516001600160401b0381111562000343576200034362000287565b6200035b816200035484546200029b565b84620002d5565b602080601f83116001811462000391575f8415620003795750858301515b5f19600386901b1c1916600185901b1785556200031e565b5f85815260208120601f198616915b82811015620003c157888601518255948401946001909101908401620003a0565b5085821015620003df57878501515f19600388901b60f8161c191681555b5050505050600190811b01905550565b808201808211156200040f57634e487b7160e01b5f52601160045260245ffd5b92915050565b61088c80620004235f395ff3fe608060405234801561000f575f80fd5b50600436106100cb575f3560e01c8063715018a611610088578063a9059cbb11610063578063a9059cbb14610199578063dd62ed3e146101ac578063de5f72fd146101e4578063f2fde38b146101ec575f80fd5b8063715018a61461016c5780638da5cb5b1461017657806395d89b4114610191575f80fd5b806306fdde03146100cf578063095ea7b3146100ed57806318160ddd1461011057806323b872dd14610122578063313ce5671461013557806370a0823114610144575b5f80fd5b6100d76101ff565b6040516100e491906106e7565b60405180910390f35b6101006100fb36600461074d565b61028f565b60405190151581526020016100e4565b6002545b6040519081526020016100e4565b610100610130366004610775565b6102a8565b604051601281526020016100e4565b6101146101523660046107ae565b6001600160a01b03165f9081526020819052604090205490565b6101746102cb565b005b6005546040516001600160a01b0390911681526020016100e4565b6100d76102de565b6101006101a736600461074d565b6102ed565b6101146101ba3660046107ce565b6001600160a01b039182165f90815260016020908152604080832093909416825291909152205490565b6101746102fa565b6101746101fa3660046107ae565b61030d565b60606003805461020e906107ff565b80601f016020809104026020016040519081016040528092919081815260200182805461023a906107ff565b80156102855780601f1061025c57610100808354040283529160200191610285565b820191905f5260205f20905b81548152906001019060200180831161026857829003601f168201915b5050505050905090565b5f3361029c81858561034f565b60019150505b92915050565b5f336102b5858285610361565b6102c08585856103dc565b506001949350505050565b6102d3610439565b6102dc5f610466565b565b60606004805461020e906107ff565b5f3361029c8185856103dc565b6102dc33683635c9adc5dea000006104b7565b610315610439565b6001600160a01b03811661034357604051631e4fbdf760e01b81525f60048201526024015b60405180910390fd5b61034c81610466565b50565b61035c83838360016104ef565b505050565b6001600160a01b038381165f908152600160209081526040808320938616835292905220545f1981146103d657818110156103c857604051637dc7a0d960e11b81526001600160a01b0384166004820152602481018290526044810183905260640161033a565b6103d684848484035f6104ef565b50505050565b6001600160a01b03831661040557604051634b637e8f60e11b81525f600482015260240161033a565b6001600160a01b03821661042e5760405163ec442f0560e01b81525f600482015260240161033a565b61035c8383836105c1565b6005546001600160a01b031633146102dc5760405163118cdaa760e01b815233600482015260240161033a565b600580546001600160a01b038381166001600160a01b0319831681179093556040519116919082907f8be0079c531659141344cd1fd0a4f28419497f9722a3daafe3b4186f6b6457e0905f90a35050565b6001600160a01b0382166104e05760405163ec442f0560e01b81525f600482015260240161033a565b6104eb5f83836105c1565b5050565b6001600160a01b0384166105185760405163e602df0560e01b81525f600482015260240161033a565b6001600160a01b03831661054157604051634a1406b160e11b81525f600482015260240161033a565b6001600160a01b038085165f90815260016020908152604080832093871683529290522082905580156103d657826001600160a01b0316846001600160a01b03167f8c5be1e5ebec7d5bd14f71427d1e84f3dd0314c0f7b2291e5b200ac8c7c3b925846040516105b391815260200190565b60405180910390a350505050565b6001600160a01b0383166105eb578060025f8282546105e09190610837565b9091555061065b9050565b6001600160a01b0383165f908152602081905260409020548181101561063d5760405163391434e360e21b81526001600160a01b0385166004820152602481018290526044810183905260640161033a565b6001600160a01b0384165f9081526020819052604090209082900390555b6001600160a01b03821661067757600280548290039055610695565b6001600160a01b0382165f9081526020819052604090208054820190555b816001600160a01b0316836001600160a01b03167fddf252ad1be2c89b69c2b068fc378daa952ba7f163c4a11628f55a4df523b3ef836040516106da91815260200190565b60405180910390a3505050565b5f6020808352835180828501525f5b81811015610712578581018301518582016040015282016106f6565b505f604082860101526040601f19601f8301168501019250505092915050565b80356001600160a01b0381168114610748575f80fd5b919050565b5f806040838503121561075e575f80fd5b61076783610732565b946020939093013593505050565b5f805f60608486031215610787575f80fd5b61079084610732565b925061079e60208501610732565b9150604084013590509250925092565b5f602082840312156107be575f80fd5b6107c782610732565b9392505050565b5f80604083850312156107df575f80fd5b6107e883610732565b91506107f660208401610732565b90509250929050565b600181811c9082168061081357607f821691505b60208210810361083157634e487b7160e01b5f52602260045260245ffd5b50919050565b808201808211156102a257634e487b7160e01b5f52601160045260245ffdfea2646970667358221220a93d8b3b0c2d66a1477a0814cd23393c574aa1a177f78e1983cd1132c131780d64736f6c63430008140033",
  "linkReferences": {},
  "deployedLinkReferences": {}
}