{
  "_format": "hh-sol-artifact-1",
  "contractName": "Lands",
  "sourceName": "contracts/V3/LandsV3.sol",
  "abi": [
    {
      "inputs": [
        {
          "internalType": "uint256",
          "name": "defaultPrice",
          "type": "uint256"
        }
      ],
      "stateMutability": "nonpayable",
      "type": "constructor"
    },
    {
      "inputs": [
        {
          "internalType": "address",
          "name": "sender",
          "type": "address"
        },
        {
          "internalType": "uint256",
          "name": "tokenId",
          "type": "uint256"
        },
        {
          "internalType": "address",
          "name": "owner",
          "type": "address"
        }
      ],
      "name": "ERC721IncorrectOwner",
      "type": "error"
    },
    {
      "inputs": [
        {
          "internalType": "address",
          "name": "operator",
          "type": "address"
        },
        {
          "internalType": "uint256",
          "name": "tokenId",
          "type": "uint256"
        }
      ],
      "name": "ERC721InsufficientApproval",
      "type": "error"
    },
    {
      "inputs": [
        {
          "internalType": "address",
          "name": "approver",
          "type": "address"
        }
      ],
      "name": "ERC721InvalidApprover",
      "type": "error"
    },
    {
      "inputs": [
        {
          "internalType": "address",
          "name": "operator",
          "type": "address"
        }
      ],
      "name": "ERC721InvalidOperator",
      "type": "error"
    },
    {
      "inputs": [
        {
          "internalType": "address",
          "name": "owner",
          "type": "address"
        }
      ],
      "name": "ERC721InvalidOwner",
      "type": "error"
    },
    {
      "inputs": [
        {
          "internalType": "address",
          "name": "receiver",
          "type": "address"
        }
      ],
      "name": "ERC721InvalidReceiver",
      "type": "error"
    },
    {
      "inputs": [
        {
          "internalType": "address",
          "name": "sender",
          "type": "address"
        }
      ],
      "name": "ERC721InvalidSender",
      "type": "error"
    },
    {
      "inputs": [
        {
          "internalType": "uint256",
          "name": "tokenId",
          "type": "uint256"
        }
      ],
      "name": "ERC721NonexistentToken",
      "type": "error"
    },
    {
      "inputs": [],
      "name": "Lands__InsufficientPrice",
      "type": "error"
    },
    {
      "inputs": [],
      "name": "Lands__InvalidCoordinate",
      "type": "error"
    },
    {
      "inputs": [
        {
          "internalType": "address",
          "name": "owner",
          "type": "address"
        }
      ],
      "name": "OwnableInvalidOwner",
      "type": "error"
    },
    {
      "inputs": [
        {
          "internalType": "address",
          "name": "account",
          "type": "address"
        }
      ],
      "name": "OwnableUnauthorizedAccount",
      "type": "error"
    },
    {
      "anonymous": false,
      "inputs": [
        {
          "indexed": true,
          "internalType": "address",
          "name": "owner",
          "type": "address"
        },
        {
          "indexed": true,
          "internalType": "address",
          "name": "approved",
          "type": "address"
        },
        {
          "indexed": true,
          "internalType": "uint256",
          "name": "tokenId",
          "type": "uint256"
        }
      ],
      "name": "Approval",
      "type": "event"
    },
    {
      "anonymous": false,
      "inputs": [
        {
          "indexed": true,
          "internalType": "address",
          "name": "owner",
          "type": "address"
        },
        {
          "indexed": true,
          "internalType": "address",
          "name": "operator",
          "type": "address"
        },
        {
          "indexed": false,
          "internalType": "bool",
          "name": "approved",
          "type": "bool"
        }
      ],
      "name": "ApprovalForAll",
      "type": "event"
    },
    {
      "anonymous": false,
      "inputs": [
        {
          "indexed": true,
          "internalType": "address",
          "name": "previousOwner",
          "type": "address"
        },
        {
          "indexed": true,
          "internalType": "address",
          "name": "newOwner",
          "type": "address"
        }
      ],
      "name": "OwnershipTransferred",
      "type": "event"
    },
    {
      "anonymous": false,
      "inputs": [
        {
          "indexed": true,
          "internalType": "address",
          "name": "from",
          "type": "address"
        },
        {
          "indexed": true,
          "internalType": "address",
          "name": "to",
          "type": "address"
        },
        {
          "indexed": true,
          "internalType": "uint256",
          "name": "tokenId",
          "type": "uint256"
        }
      ],
      "name": "Transfer",
      "type": "event"
    },
    {
      "inputs": [],
      "name": "URI",
      "outputs": [
        {
          "internalType": "string",
          "name": "",
          "type": "string"
        }
      ],
      "stateMutability": "view",
      "type": "function"
    },
    {
      "inputs": [
        {
          "internalType": "address",
          "name": "to",
          "type": "address"
        },
        {
          "internalType": "uint256",
          "name": "tokenId",
          "type": "uint256"
        }
      ],
      "name": "approve",
      "outputs": [],
      "stateMutability": "nonpayable",
      "type": "function"
    },
    {
      "inputs": [
        {
          "internalType": "address",
          "name": "owner",
          "type": "address"
        }
      ],
      "name": "balanceOf",
      "outputs": [
        {
          "internalType": "uint256",
          "name": "",
          "type": "uint256"
        }
      ],
      "stateMutability": "view",
      "type": "function"
    },
    {
      "inputs": [
        {
          "internalType": "uint256",
          "name": "price",
          "type": "uint256"
        }
      ],
      "name": "changePrice",
      "outputs": [],
      "stateMutability": "nonpayable",
      "type": "function"
    },
    {
      "inputs": [
        {
          "internalType": "uint256",
          "name": "tokenId",
          "type": "uint256"
        }
      ],
      "name": "getApproved",
      "outputs": [
        {
          "internalType": "address",
          "name": "",
          "type": "address"
        }
      ],
      "stateMutability": "view",
      "type": "function"
    },
    {
      "inputs": [],
      "name": "getPrice",
      "outputs": [
        {
          "internalType": "uint256",
          "name": "",
          "type": "uint256"
        }
      ],
      "stateMutability": "view",
      "type": "function"
    },
    {
      "inputs": [
        {
          "internalType": "address",
          "name": "owner",
          "type": "address"
        },
        {
          "internalType": "address",
          "name": "operator",
          "type": "address"
        }
      ],
      "name": "isApprovedForAll",
      "outputs": [
        {
          "internalType": "bool",
          "name": "",
          "type": "bool"
        }
      ],
      "stateMutability": "view",
      "type": "function"
    },
    {
      "inputs": [
        {
          "internalType": "uint8",
          "name": "x",
          "type": "uint8"
        },
        {
          "internalType": "uint8",
          "name": "y",
          "type": "uint8"
        }
      ],
      "name": "mintLand",
      "outputs": [],
      "stateMutability": "payable",
      "type": "function"
    },
    {
      "inputs": [],
      "name": "name",
      "outputs": [
        {
          "internalType": "string",
          "name": "",
          "type": "string"
        }
      ],
      "stateMutability": "view",
      "type": "function"
    },
    {
      "inputs": [],
      "name": "owner",
      "outputs": [
        {
          "internalType": "address",
          "name": "",
          "type": "address"
        }
      ],
      "stateMutability": "view",
      "type": "function"
    },
    {
      "inputs": [
        {
          "internalType": "uint256",
          "name": "tokenId",
          "type": "uint256"
        }
      ],
      "name": "ownerOf",
      "outputs": [
        {
          "internalType": "address",
          "name": "",
          "type": "address"
        }
      ],
      "stateMutability": "view",
      "type": "function"
    },
    {
      "inputs": [],
      "name": "renounceOwnership",
      "outputs": [],
      "stateMutability": "nonpayable",
      "type": "function"
    },
    {
      "inputs": [
        {
          "internalType": "address",
          "name": "from",
          "type": "address"
        },
        {
          "internalType": "address",
          "name": "to",
          "type": "address"
        },
        {
          "internalType": "uint256",
          "name": "tokenId",
          "type": "uint256"
        }
      ],
      "name": "safeTransferFrom",
      "outputs": [],
      "stateMutability": "nonpayable",
      "type": "function"
    },
    {
      "inputs": [
        {
          "internalType": "address",
          "name": "from",
          "type": "address"
        },
        {
          "internalType": "address",
          "name": "to",
          "type": "address"
        },
        {
          "internalType": "uint256",
          "name": "tokenId",
          "type": "uint256"
        },
        {
          "internalType": "bytes",
          "name": "data",
          "type": "bytes"
        }
      ],
      "name": "safeTransferFrom",
      "outputs": [],
      "stateMutability": "nonpayable",
      "type": "function"
    },
    {
      "inputs": [
        {
          "internalType": "address",
          "name": "operator",
          "type": "address"
        },
        {
          "internalType": "bool",
          "name": "approved",
          "type": "bool"
        }
      ],
      "name": "setApprovalForAll",
      "outputs": [],
      "stateMutability": "nonpayable",
      "type": "function"
    },
    {
      "inputs": [
        {
          "internalType": "bytes4",
          "name": "interfaceId",
          "type": "bytes4"
        }
      ],
      "name": "supportsInterface",
      "outputs": [
        {
          "internalType": "bool",
          "name": "",
          "type": "bool"
        }
      ],
      "stateMutability": "view",
      "type": "function"
    },
    {
      "inputs": [],
      "name": "symbol",
      "outputs": [
        {
          "internalType": "string",
          "name": "",
          "type": "string"
        }
      ],
      "stateMutability": "view",
      "type": "function"
    },
    {
      "inputs": [
        {
          "internalType": "uint256",
          "name": "_tokenId",
          "type": "uint256"
        }
      ],
      "name": "tokenURI",
      "outputs": [
        {
          "internalType": "string",
          "name": "",
          "type": "string"
        }
      ],
      "stateMutability": "view",
      "type": "function"
    },
    {
      "inputs": [
        {
          "internalType": "address",
          "name": "from",
          "type": "address"
        },
        {
          "internalType": "address",
          "name": "to",
          "type": "address"
        },
        {
          "internalType": "uint256",
          "name": "tokenId",
          "type": "uint256"
        }
      ],
      "name": "transferFrom",
      "outputs": [],
      "stateMutability": "nonpayable",
      "type": "function"
    },
    {
      "inputs": [
        {
          "internalType": "address",
          "name": "newOwner",
          "type": "address"
        }
      ],
      "name": "transferOwnership",
      "outputs": [],
      "stateMutability": "nonpayable",
      "type": "function"
    },
    {
      "inputs": [
        {
          "internalType": "address payable",
          "name": "_to",
          "type": "address"
        }
      ],
      "name": "withdraw",
      "outputs": [],
      "stateMutability": "nonpayable",
      "type": "function"
    },
    {
      "stateMutability": "payable",
      "type": "receive"
    }
  ],
  "bytecode": "0x608060405234801562000010575f80fd5b50604051620017aa380380620017aa83398101604081905262000033916200012d565b336040518060400160405280600e81526020016d426c6f636b646f6d206c616e647360901b8152506040518060400160405280600381526020016210935360ea1b815250815f9081620000879190620001e5565b506001620000968282620001e5565b5050506001600160a01b038116620000c757604051631e4fbdf760e01b81525f600482015260240160405180910390fd5b620000d281620000dc565b50600755620002ad565b600680546001600160a01b038381166001600160a01b0319831681179093556040519116919082907f8be0079c531659141344cd1fd0a4f28419497f9722a3daafe3b4186f6b6457e0905f90a35050565b5f602082840312156200013e575f80fd5b5051919050565b634e487b7160e01b5f52604160045260245ffd5b600181811c908216806200016e57607f821691505b6020821081036200018d57634e487b7160e01b5f52602260045260245ffd5b50919050565b601f821115620001e0575f81815260208120601f850160051c81016020861015620001bb5750805b601f850160051c820191505b81811015620001dc57828155600101620001c7565b5050505b505050565b81516001600160401b0381111562000201576200020162000145565b620002198162000212845462000159565b8462000193565b602080601f8311600181146200024f575f8415620002375750858301515b5f19600386901b1c1916600185901b178555620001dc565b5f85815260208120601f198616915b828110156200027f578886015182559484019460019091019084016200025e565b50858210156200029d57878501515f19600388901b60f8161c191681555b5050505050600190811b01905550565b6114ef80620002bb5f395ff3fe608060405260043610610129575f3560e01c806370a08231116100a8578063a22cb4651161006d578063a22cb4651461030a578063a2b40d1914610329578063b88d4fde14610348578063c87b56dd14610367578063e985e9c514610386578063f2fde38b146103a5575f80fd5b806370a0823114610284578063715018a6146102b15780638da5cb5b146102c557806395d89b41146102e257806398d5fdca146102f6575f80fd5b806323b872dd116100ee57806323b872dd146101f557806342842e0e14610214578063475953bd1461023357806351cff8d9146102465780636352211e14610265575f80fd5b806301ffc9a71461013457806306fdde0314610168578063081812fc14610189578063095ea7b3146101c05780631141d7de146101e1575f80fd5b3661013057005b5f80fd5b34801561013f575f80fd5b5061015361014e366004611018565b6103c4565b60405190151581526020015b60405180910390f35b348015610173575f80fd5b5061017c610415565b60405161015f9190611080565b348015610194575f80fd5b506101a86101a3366004611092565b6104a4565b6040516001600160a01b03909116815260200161015f565b3480156101cb575f80fd5b506101df6101da3660046110bd565b6104cb565b005b3480156101ec575f80fd5b5061017c6104da565b348015610200575f80fd5b506101df61020f3660046110e7565b6104e9565b34801561021f575f80fd5b506101df61022e3660046110e7565b610577565b6101df61024136600461113a565b610596565b348015610251575f80fd5b506101df61026036600461116b565b610628565b348015610270575f80fd5b506101a861027f366004611092565b6106aa565b34801561028f575f80fd5b506102a361029e36600461116b565b6106b4565b60405190815260200161015f565b3480156102bc575f80fd5b506101df6106f9565b3480156102d0575f80fd5b506006546001600160a01b03166101a8565b3480156102ed575f80fd5b5061017c61070c565b348015610301575f80fd5b506007546102a3565b348015610315575f80fd5b506101df610324366004611186565b61071b565b348015610334575f80fd5b506101df610343366004611092565b610726565b348015610353575f80fd5b506101df6103623660046111d5565b610733565b348015610372575f80fd5b5061017c610381366004611092565b61074a565b348015610391575f80fd5b506101536103a03660046112ae565b610813565b3480156103b0575f80fd5b506101df6103bf36600461116b565b610840565b5f6001600160e01b031982166380ac58cd60e01b14806103f457506001600160e01b03198216635b5e139f60e01b145b8061040f57506301ffc9a760e01b6001600160e01b03198316145b92915050565b60605f8054610423906112da565b80601f016020809104026020016040519081016040528092919081815260200182805461044f906112da565b801561049a5780601f106104715761010080835404028352916020019161049a565b820191905f5260205f20905b81548152906001019060200180831161047d57829003601f168201915b5050505050905090565b5f6104ae8261087d565b505f828152600460205260409020546001600160a01b031661040f565b6104d68282336108b5565b5050565b60606104e46108c2565b905090565b6001600160a01b03821661051757604051633250574960e11b81525f60048201526024015b60405180910390fd5b5f6105238383336108e2565b9050836001600160a01b0316816001600160a01b031614610571576040516364283d7b60e01b81526001600160a01b038086166004830152602482018490528216604482015260640161050e565b50505050565b61059183838360405180602001604052805f815250610733565b505050565b818160648260ff1610806105ad575060c78260ff16115b806105bb575060648160ff16105b806105c9575060c78160ff16115b156105e75760405163636beb5160e01b815260040160405180910390fd5b60075434101561060a576040516309a95dc560e11b815260040160405180910390fd5b5f61061585856109d4565b90506106213382610a2d565b5050505050565b610630610a8e565b47806106775760405162461bcd60e51b81526020600482015260166024820152754e6f2062616c616e636520746f20776974686472617760501b604482015260640161050e565b6040516001600160a01b0383169082156108fc029083905f818181858888f19350505050158015610591573d5f803e3d5ffd5b5f61040f8261087d565b5f6001600160a01b0382166106de576040516322718ad960e21b81525f600482015260240161050e565b506001600160a01b03165f9081526003602052604090205490565b610701610a8e565b61070a5f610abb565b565b606060018054610423906112da565b6104d6338383610b0c565b61072e610a8e565b600755565b61073e8484846104e9565b61057184848484610baa565b60605f610756836106aa565b6001600160a01b0316036107c45760405162461bcd60e51b815260206004820152602f60248201527f4552433732314d657461646174613a2055524920717565727920666f72206e6f60448201526e3732bc34b9ba32b73a103a37b5b2b760891b606482015260840161050e565b5f6107cd6108c2565b90505f8151116107eb5760405180602001604052805f81525061080c565b806040516020016107fc9190611312565b6040516020818303038152906040525b9392505050565b6001600160a01b039182165f90815260056020908152604080832093909416825291909152205460ff1690565b610848610a8e565b6001600160a01b03811661087157604051631e4fbdf760e01b81525f600482015260240161050e565b61087a81610abb565b50565b5f818152600260205260408120546001600160a01b03168061040f57604051637e27328960e01b81526004810184905260240161050e565b6105918383836001610cc9565b606060405180608001604052806050815260200161146a60509139905090565b5f828152600260205260408120546001600160a01b039081169083161561090e5761090e818486610dcd565b6001600160a01b03811615610948576109295f855f80610cc9565b6001600160a01b0381165f90815260036020526040902080545f190190555b6001600160a01b03851615610976576001600160a01b0385165f908152600360205260409020805460010190555b5f8481526002602052604080822080546001600160a01b0319166001600160a01b0389811691821790925591518793918516917fddf252ad1be2c89b69c2b068fc378daa952ba7f163c4a11628f55a4df523b3ef91a4949350505050565b5f806109e28460ff16610e31565b90505f6109f18460ff16610e31565b90505f8282604051602001610a0792919061132d565b60405160208183030381529060405290505f610a2282610f36565b979650505050505050565b6001600160a01b038216610a5657604051633250574960e11b81525f600482015260240161050e565b5f610a6283835f6108e2565b90506001600160a01b03811615610591576040516339e3563760e11b81525f600482015260240161050e565b6006546001600160a01b0316331461070a5760405163118cdaa760e01b815233600482015260240161050e565b600680546001600160a01b038381166001600160a01b0319831681179093556040519116919082907f8be0079c531659141344cd1fd0a4f28419497f9722a3daafe3b4186f6b6457e0905f90a35050565b6001600160a01b038216610b3e57604051630b61174360e31b81526001600160a01b038316600482015260240161050e565b6001600160a01b038381165f81815260056020908152604080832094871680845294825291829020805460ff191686151590811790915591519182527f17307eab39ab6107e8899845ad3d59bd9653f200f220920489ca2b5937696c31910160405180910390a3505050565b6001600160a01b0383163b1561057157604051630a85bd0160e11b81526001600160a01b0384169063150b7a0290610bec90339088908790879060040161135b565b6020604051808303815f875af1925050508015610c26575060408051601f3d908101601f19168201909252610c2391810190611397565b60015b610c8d573d808015610c53576040519150601f19603f3d011682016040523d82523d5f602084013e610c58565b606091505b5080515f03610c8557604051633250574960e11b81526001600160a01b038516600482015260240161050e565b805181602001fd5b6001600160e01b03198116630a85bd0160e11b1461062157604051633250574960e11b81526001600160a01b038516600482015260240161050e565b8080610cdd57506001600160a01b03821615155b15610d9e575f610cec8461087d565b90506001600160a01b03831615801590610d185750826001600160a01b0316816001600160a01b031614155b8015610d2b5750610d298184610813565b155b15610d545760405163a9fbf51f60e01b81526001600160a01b038416600482015260240161050e565b8115610d9c5783856001600160a01b0316826001600160a01b03167f8c5be1e5ebec7d5bd14f71427d1e84f3dd0314c0f7b2291e5b200ac8c7c3b92560405160405180910390a45b505b50505f90815260046020526040902080546001600160a01b0319166001600160a01b0392909216919091179055565b610dd8838383610fa2565b610591576001600160a01b038316610e0657604051637e27328960e01b81526004810182905260240161050e565b60405163177e802f60e01b81526001600160a01b03831660048201526024810182905260440161050e565b6060815f03610e575750506040805180820190915260018152600360fc1b602082015290565b815f5b8115610e805780610e6a816113c6565b9150610e799050600a836113f2565b9150610e5a565b5f8167ffffffffffffffff811115610e9a57610e9a6111c1565b6040519080825280601f01601f191660200182016040528015610ec4576020820181803683370190505b5090505b8415610f2e57610ed9600183611405565b9150610ee6600a86611418565b610ef190603061142b565b60f81b818381518110610f0657610f0661143e565b60200101906001600160f81b03191690815f1a905350610f27600a866113f2565b9450610ec8565b949350505050565b5f8082815b8151811015610f99575f6030838381518110610f5957610f5961143e565b0160200151610f6b919060f81c611405565b905080610f7985600a611452565b610f83919061142b565b9350508080610f91906113c6565b915050610f3b565b50909392505050565b5f6001600160a01b03831615801590610f2e5750826001600160a01b0316846001600160a01b03161480610fdb5750610fdb8484610813565b80610f2e5750505f908152600460205260409020546001600160a01b03908116911614919050565b6001600160e01b03198116811461087a575f80fd5b5f60208284031215611028575f80fd5b813561080c81611003565b5f5b8381101561104d578181015183820152602001611035565b50505f910152565b5f815180845261106c816020860160208601611033565b601f01601f19169290920160200192915050565b602081525f61080c6020830184611055565b5f602082840312156110a2575f80fd5b5035919050565b6001600160a01b038116811461087a575f80fd5b5f80604083850312156110ce575f80fd5b82356110d9816110a9565b946020939093013593505050565b5f805f606084860312156110f9575f80fd5b8335611104816110a9565b92506020840135611114816110a9565b929592945050506040919091013590565b803560ff81168114611135575f80fd5b919050565b5f806040838503121561114b575f80fd5b61115483611125565b915061116260208401611125565b90509250929050565b5f6020828403121561117b575f80fd5b813561080c816110a9565b5f8060408385031215611197575f80fd5b82356111a2816110a9565b9150602083013580151581146111b6575f80fd5b809150509250929050565b634e487b7160e01b5f52604160045260245ffd5b5f805f80608085870312156111e8575f80fd5b84356111f3816110a9565b93506020850135611203816110a9565b925060408501359150606085013567ffffffffffffffff80821115611226575f80fd5b818701915087601f830112611239575f80fd5b81358181111561124b5761124b6111c1565b604051601f8201601f19908116603f01168101908382118183101715611273576112736111c1565b816040528281528a602084870101111561128b575f80fd5b826020860160208301375f60208483010152809550505050505092959194509250565b5f80604083850312156112bf575f80fd5b82356112ca816110a9565b915060208301356111b6816110a9565b600181811c908216806112ee57607f821691505b60208210810361130c57634e487b7160e01b5f52602260045260245ffd5b50919050565b5f8251611323818460208701611033565b9190910192915050565b5f835161133e818460208801611033565b835190830190611352818360208801611033565b01949350505050565b6001600160a01b03858116825284166020820152604081018390526080606082018190525f9061138d90830184611055565b9695505050505050565b5f602082840312156113a7575f80fd5b815161080c81611003565b634e487b7160e01b5f52601160045260245ffd5b5f600182016113d7576113d76113b2565b5060010190565b634e487b7160e01b5f52601260045260245ffd5b5f82611400576114006113de565b500490565b8181038181111561040f5761040f6113b2565b5f82611426576114266113de565b500690565b8082018082111561040f5761040f6113b2565b634e487b7160e01b5f52603260045260245ffd5b808202811582820484141761040f5761040f6113b256fe68747470733a2f2f676174657761792e70696e6174612e636c6f75642f697066732f516d516a566d7671586e33715654455a6f315536744a66764341423835556a35446e426153625a52724e79374e45a264697066735822122013602877b520b1ab3ac093c9ffae48f41185007601bb1bb5932a8bc6e6f15f4664736f6c63430008140033",
  "linkReferences": {},
  "deployedLinkReferences": {}
}