{
  "_format": "hh-sol-artifact-1",
  "contractName": "Town",
  "sourceName": "contracts/V3/TownV3.sol",
  "abi": [
    {
      "inputs": [
        {
          "internalType": "address",
          "name": "BlockchainsKingdomToken",
          "type": "address"
        },
        {
          "internalType": "address",
          "name": "landsAddress",
          "type": "address"
        },
        {
          "internalType": "address",
          "name": "varsAddress",
          "type": "address"
        }
      ],
      "stateMutability": "nonpayable",
      "type": "constructor"
    },
    {
      "inputs": [],
      "name": "AlreadyFinished",
      "type": "error"
    },
    {
      "inputs": [],
      "name": "BarracksLevelLowerThanWarrior",
      "type": "error"
    },
    {
      "inputs": [],
      "name": "CallerIsNotOwner",
      "type": "error"
    },
    {
      "inputs": [],
      "name": "ClaimBeforeAction",
      "type": "error"
    },
    {
      "inputs": [],
      "name": "InsufficientArmy",
      "type": "error"
    },
    {
      "inputs": [],
      "name": "InsufficientBalance",
      "type": "error"
    },
    {
      "inputs": [],
      "name": "InsufficientGoods",
      "type": "error"
    },
    {
      "inputs": [],
      "name": "InvalidItem",
      "type": "error"
    },
    {
      "inputs": [],
      "name": "InvalidLand",
      "type": "error"
    },
    {
      "inputs": [],
      "name": "MaxCapacity",
      "type": "error"
    },
    {
      "inputs": [
        {
          "internalType": "address",
          "name": "owner",
          "type": "address"
        }
      ],
      "name": "OwnableInvalidOwner",
      "type": "error"
    },
    {
      "inputs": [
        {
          "internalType": "address",
          "name": "account",
          "type": "address"
        }
      ],
      "name": "OwnableUnauthorizedAccount",
      "type": "error"
    },
    {
      "inputs": [],
      "name": "TownhallUpgradeRequired",
      "type": "error"
    },
    {
      "inputs": [],
      "name": "UnAuthorizedToken",
      "type": "error"
    },
    {
      "inputs": [],
      "name": "WorkerIsBusy",
      "type": "error"
    },
    {
      "anonymous": false,
      "inputs": [
        {
          "indexed": true,
          "internalType": "uint256",
          "name": "attackerLandId",
          "type": "uint256"
        },
        {
          "indexed": true,
          "internalType": "uint256",
          "name": "defenderLandId",
          "type": "uint256"
        },
        {
          "indexed": true,
          "internalType": "bool",
          "name": "success",
          "type": "bool"
        },
        {
          "indexed": false,
          "internalType": "uint256[2]",
          "name": "lootAmounts",
          "type": "uint256[2]"
        }
      ],
      "name": "Attack",
      "type": "event"
    },
    {
      "anonymous": false,
      "inputs": [
        {
          "indexed": false,
          "internalType": "uint256",
          "name": "buildingTypeIndex",
          "type": "uint256"
        },
        {
          "indexed": true,
          "internalType": "uint256",
          "name": "buildingId",
          "type": "uint256"
        },
        {
          "indexed": true,
          "internalType": "uint256",
          "name": "landTokenId",
          "type": "uint256"
        }
      ],
      "name": "Build",
      "type": "event"
    },
    {
      "anonymous": false,
      "inputs": [
        {
          "indexed": true,
          "internalType": "address",
          "name": "accountAddress",
          "type": "address"
        },
        {
          "indexed": false,
          "internalType": "uint256",
          "name": "tokenAmount",
          "type": "uint256"
        }
      ],
      "name": "Deposit",
      "type": "event"
    },
    {
      "anonymous": false,
      "inputs": [
        {
          "indexed": false,
          "internalType": "uint256[2]",
          "name": "amounts",
          "type": "uint256[2]"
        },
        {
          "indexed": true,
          "internalType": "uint256",
          "name": "landId",
          "type": "uint256"
        }
      ],
      "name": "GoodsConsumption",
      "type": "event"
    },
    {
      "anonymous": false,
      "inputs": [
        {
          "indexed": false,
          "internalType": "uint256[2]",
          "name": "amounts",
          "type": "uint256[2]"
        },
        {
          "indexed": true,
          "internalType": "uint256",
          "name": "landId",
          "type": "uint256"
        }
      ],
      "name": "GoodsProduction",
      "type": "event"
    },
    {
      "anonymous": false,
      "inputs": [
        {
          "indexed": true,
          "internalType": "address",
          "name": "previousOwner",
          "type": "address"
        },
        {
          "indexed": true,
          "internalType": "address",
          "name": "newOwner",
          "type": "address"
        }
      ],
      "name": "OwnershipTransferred",
      "type": "event"
    },
    {
      "anonymous": false,
      "inputs": [
        {
          "indexed": false,
          "internalType": "uint256[]",
          "name": "typesAmount",
          "type": "uint256[]"
        },
        {
          "indexed": true,
          "internalType": "uint256",
          "name": "landId",
          "type": "uint256"
        }
      ],
      "name": "RecruitWarrior",
      "type": "event"
    },
    {
      "anonymous": false,
      "inputs": [
        {
          "indexed": true,
          "internalType": "uint256",
          "name": "buildingId",
          "type": "uint256"
        },
        {
          "indexed": false,
          "internalType": "uint256",
          "name": "level",
          "type": "uint256"
        }
      ],
      "name": "Upgrade",
      "type": "event"
    },
    {
      "anonymous": false,
      "inputs": [
        {
          "indexed": true,
          "internalType": "uint256",
          "name": "landTokenId",
          "type": "uint256"
        },
        {
          "indexed": false,
          "internalType": "uint256",
          "name": "currentLevel",
          "type": "uint256"
        }
      ],
      "name": "UpgradeBarracks",
      "type": "event"
    },
    {
      "anonymous": false,
      "inputs": [
        {
          "indexed": true,
          "internalType": "uint256",
          "name": "landTokenId",
          "type": "uint256"
        },
        {
          "indexed": false,
          "internalType": "uint256",
          "name": "currentLevel",
          "type": "uint256"
        }
      ],
      "name": "UpgradeTownhall",
      "type": "event"
    },
    {
      "anonymous": false,
      "inputs": [
        {
          "indexed": true,
          "internalType": "uint256",
          "name": "landTokenId",
          "type": "uint256"
        },
        {
          "indexed": false,
          "internalType": "uint256",
          "name": "currentLevel",
          "type": "uint256"
        }
      ],
      "name": "UpgradeTrainingCamp",
      "type": "event"
    },
    {
      "anonymous": false,
      "inputs": [
        {
          "indexed": true,
          "internalType": "uint256",
          "name": "landTokenId",
          "type": "uint256"
        },
        {
          "indexed": false,
          "internalType": "uint256",
          "name": "currentLevel",
          "type": "uint256"
        }
      ],
      "name": "UpgradeWalls",
      "type": "event"
    },
    {
      "anonymous": false,
      "inputs": [
        {
          "indexed": true,
          "internalType": "uint256",
          "name": "landTokenId",
          "type": "uint256"
        },
        {
          "indexed": false,
          "internalType": "uint256",
          "name": "currentLevel",
          "type": "uint256"
        }
      ],
      "name": "UpgradeWarehouse",
      "type": "event"
    },
    {
      "anonymous": false,
      "inputs": [
        {
          "indexed": false,
          "internalType": "uint256[]",
          "name": "typesAmount",
          "type": "uint256[]"
        },
        {
          "indexed": true,
          "internalType": "uint256",
          "name": "landId",
          "type": "uint256"
        }
      ],
      "name": "WarriorLosses",
      "type": "event"
    },
    {
      "anonymous": false,
      "inputs": [
        {
          "indexed": true,
          "internalType": "address",
          "name": "accountAddress",
          "type": "address"
        },
        {
          "indexed": false,
          "internalType": "uint256",
          "name": "tokenAmount",
          "type": "uint256"
        }
      ],
      "name": "Withdraw",
      "type": "event"
    },
    {
      "inputs": [
        {
          "internalType": "uint256",
          "name": "landTokenId",
          "type": "uint256"
        }
      ],
      "name": "buildBarracks",
      "outputs": [],
      "stateMutability": "nonpayable",
      "type": "function"
    },
    {
      "inputs": [
        {
          "internalType": "uint256",
          "name": "landTokenId",
          "type": "uint256"
        },
        {
          "internalType": "uint8",
          "name": "buildingIndex",
          "type": "uint8"
        }
      ],
      "name": "buildResourceBuilding",
      "outputs": [],
      "stateMutability": "nonpayable",
      "type": "function"
    },
    {
      "inputs": [
        {
          "internalType": "uint256",
          "name": "landTokenId",
          "type": "uint256"
        }
      ],
      "name": "buildTownhall",
      "outputs": [],
      "stateMutability": "nonpayable",
      "type": "function"
    },
    {
      "inputs": [
        {
          "internalType": "uint256",
          "name": "landTokenId",
          "type": "uint256"
        }
      ],
      "name": "buildTrainingCamp",
      "outputs": [],
      "stateMutability": "nonpayable",
      "type": "function"
    },
    {
      "inputs": [
        {
          "internalType": "uint256",
          "name": "landTokenId",
          "type": "uint256"
        }
      ],
      "name": "buildWalls",
      "outputs": [],
      "stateMutability": "nonpayable",
      "type": "function"
    },
    {
      "inputs": [
        {
          "internalType": "uint256",
          "name": "landTokenId",
          "type": "uint256"
        },
        {
          "internalType": "uint256",
          "name": "goodIndex",
          "type": "uint256"
        },
        {
          "internalType": "uint256",
          "name": "amount",
          "type": "uint256"
        }
      ],
      "name": "buyGood",
      "outputs": [],
      "stateMutability": "nonpayable",
      "type": "function"
    },
    {
      "inputs": [
        {
          "internalType": "uint256",
          "name": "landTokenId",
          "type": "uint256"
        }
      ],
      "name": "claimAll",
      "outputs": [],
      "stateMutability": "nonpayable",
      "type": "function"
    },
    {
      "inputs": [
        {
          "internalType": "uint256",
          "name": "buildingTokenId",
          "type": "uint256"
        }
      ],
      "name": "claimRevenue",
      "outputs": [],
      "stateMutability": "nonpayable",
      "type": "function"
    },
    {
      "inputs": [
        {
          "internalType": "uint256",
          "name": "amount",
          "type": "uint256"
        }
      ],
      "name": "deposit",
      "outputs": [],
      "stateMutability": "nonpayable",
      "type": "function"
    },
    {
      "inputs": [
        {
          "internalType": "uint256[]",
          "name": "warriorAmounts",
          "type": "uint256[]"
        },
        {
          "internalType": "uint256",
          "name": "from",
          "type": "uint256"
        },
        {
          "internalType": "uint256",
          "name": "target",
          "type": "uint256"
        }
      ],
      "name": "dispatchArmy",
      "outputs": [],
      "stateMutability": "nonpayable",
      "type": "function"
    },
    {
      "inputs": [
        {
          "internalType": "uint256",
          "name": "landTokenId",
          "type": "uint256"
        }
      ],
      "name": "finishNow",
      "outputs": [],
      "stateMutability": "nonpayable",
      "type": "function"
    },
    {
      "inputs": [
        {
          "internalType": "uint256",
          "name": "landTokenId",
          "type": "uint256"
        }
      ],
      "name": "getArmy",
      "outputs": [
        {
          "internalType": "uint256[6]",
          "name": "amounts",
          "type": "uint256[6]"
        }
      ],
      "stateMutability": "view",
      "type": "function"
    },
    {
      "inputs": [
        {
          "internalType": "uint256",
          "name": "landTokenId",
          "type": "uint256"
        }
      ],
      "name": "getArmyInfo",
      "outputs": [
        {
          "internalType": "uint256",
          "name": "attPower",
          "type": "uint256"
        },
        {
          "internalType": "uint256",
          "name": "defPower",
          "type": "uint256"
        },
        {
          "internalType": "uint256",
          "name": "hp",
          "type": "uint256"
        },
        {
          "internalType": "uint256",
          "name": "totalArmy",
          "type": "uint256"
        }
      ],
      "stateMutability": "view",
      "type": "function"
    },
    {
      "inputs": [
        {
          "internalType": "address",
          "name": "userAddress",
          "type": "address"
        }
      ],
      "name": "getBMTbalance",
      "outputs": [
        {
          "internalType": "uint256",
          "name": "",
          "type": "uint256"
        }
      ],
      "stateMutability": "view",
      "type": "function"
    },
    {
      "inputs": [
        {
          "internalType": "uint256",
          "name": "buildingTokenId",
          "type": "uint256"
        }
      ],
      "name": "getCurrentRevenue",
      "outputs": [
        {
          "internalType": "uint256",
          "name": "",
          "type": "uint256"
        }
      ],
      "stateMutability": "view",
      "type": "function"
    },
    {
      "inputs": [
        {
          "internalType": "uint256",
          "name": "from",
          "type": "uint256"
        },
        {
          "internalType": "uint256",
          "name": "to",
          "type": "uint256"
        }
      ],
      "name": "getDispatchTime",
      "outputs": [
        {
          "internalType": "uint256",
          "name": "distance",
          "type": "uint256"
        },
        {
          "internalType": "uint256",
          "name": "time",
          "type": "uint256"
        }
      ],
      "stateMutability": "pure",
      "type": "function"
    },
    {
      "inputs": [
        {
          "internalType": "uint256",
          "name": "landTokenId",
          "type": "uint256"
        }
      ],
      "name": "getDispatchedArmies",
      "outputs": [
        {
          "components": [
            {
              "internalType": "uint256[]",
              "name": "amounts",
              "type": "uint256[]"
            },
            {
              "internalType": "uint256",
              "name": "totalArmyAmount",
              "type": "uint256"
            },
            {
              "internalType": "uint256",
              "name": "totalPower",
              "type": "uint256"
            },
            {
              "internalType": "uint256",
              "name": "totalHp",
              "type": "uint256"
            },
            {
              "internalType": "uint256",
              "name": "remainedTime",
              "type": "uint256"
            },
            {
              "internalType": "uint256",
              "name": "target",
              "type": "uint256"
            },
            {
              "internalType": "uint256[2]",
              "name": "lootedAmounts",
              "type": "uint256[2]"
            },
            {
              "internalType": "bool",
              "name": "isReturning",
              "type": "bool"
            },
            {
              "internalType": "uint256",
              "name": "remainedArmybyPercent",
              "type": "uint256"
            }
          ],
          "internalType": "struct Barracks.DispatchedArmy[]",
          "name": "",
          "type": "tuple[]"
        }
      ],
      "stateMutability": "view",
      "type": "function"
    },
    {
      "inputs": [],
      "name": "getGoodsPrice",
      "outputs": [
        {
          "internalType": "uint256[2]",
          "name": "",
          "type": "uint256[2]"
        }
      ],
      "stateMutability": "view",
      "type": "function"
    },
    {
      "inputs": [
        {
          "internalType": "uint256",
          "name": "landTokenId",
          "type": "uint256"
        }
      ],
      "name": "getLandIdData",
      "outputs": [
        {
          "components": [
            {
              "internalType": "uint256[2]",
              "name": "goodsBalance",
              "type": "uint256[2]"
            },
            {
              "internalType": "uint256",
              "name": "latestBuildTimeStamp",
              "type": "uint256"
            },
            {
              "internalType": "uint256[]",
              "name": "buildedResourceBuildings",
              "type": "uint256[]"
            },
            {
              "internalType": "uint256",
              "name": "barracksLevel",
              "type": "uint256"
            },
            {
              "internalType": "uint256",
              "name": "wallLevel",
              "type": "uint256"
            },
            {
              "internalType": "uint256",
              "name": "townhallLevel",
              "type": "uint256"
            },
            {
              "internalType": "uint256",
              "name": "trainingCampLevel",
              "type": "uint256"
            }
          ],
          "internalType": "struct Town.LandIdData",
          "name": "",
          "type": "tuple"
        }
      ],
      "stateMutability": "view",
      "type": "function"
    },
    {
      "inputs": [
        {
          "internalType": "uint256",
          "name": "landTokenId",
          "type": "uint256"
        }
      ],
      "name": "getRemainedBuildTimestamp",
      "outputs": [
        {
          "internalType": "uint256",
          "name": "remainedTimestamp",
          "type": "uint256"
        }
      ],
      "stateMutability": "view",
      "type": "function"
    },
    {
      "inputs": [
        {
          "internalType": "uint256",
          "name": "landTokenId",
          "type": "uint256"
        },
        {
          "internalType": "uint256",
          "name": "dispatchIndex",
          "type": "uint256"
        }
      ],
      "name": "getRemainedDispatchTimestamp",
      "outputs": [
        {
          "internalType": "uint256",
          "name": "remainedTimestamp",
          "type": "uint256"
        }
      ],
      "stateMutability": "view",
      "type": "function"
    },
    {
      "inputs": [
        {
          "internalType": "uint256[2]",
          "name": "baseAmounts",
          "type": "uint256[2]"
        },
        {
          "internalType": "uint256",
          "name": "currentLevel",
          "type": "uint256"
        }
      ],
      "name": "getRequiredGoods",
      "outputs": [
        {
          "internalType": "uint256[2]",
          "name": "",
          "type": "uint256[2]"
        }
      ],
      "stateMutability": "pure",
      "type": "function"
    },
    {
      "inputs": [
        {
          "internalType": "uint256",
          "name": "tokenId",
          "type": "uint256"
        }
      ],
      "name": "getStatus",
      "outputs": [
        {
          "components": [
            {
              "internalType": "uint256",
              "name": "level",
              "type": "uint256"
            },
            {
              "internalType": "uint256",
              "name": "latestActionTimestamp",
              "type": "uint256"
            },
            {
              "internalType": "uint256",
              "name": "attachedLand",
              "type": "uint256"
            },
            {
              "internalType": "uint8",
              "name": "buildingTypeIndex",
              "type": "uint8"
            }
          ],
          "internalType": "struct Town.ResourceBuildingStatus",
          "name": "",
          "type": "tuple"
        }
      ],
      "stateMutability": "view",
      "type": "function"
    },
    {
      "inputs": [
        {
          "internalType": "uint256",
          "name": "landTokenId",
          "type": "uint256"
        },
        {
          "internalType": "uint256",
          "name": "dispatchedArmyIndex",
          "type": "uint256"
        }
      ],
      "name": "joinDispatchedArmy",
      "outputs": [],
      "stateMutability": "nonpayable",
      "type": "function"
    },
    {
      "inputs": [],
      "name": "owner",
      "outputs": [
        {
          "internalType": "address",
          "name": "",
          "type": "address"
        }
      ],
      "stateMutability": "view",
      "type": "function"
    },
    {
      "inputs": [
        {
          "internalType": "uint256",
          "name": "landTokenId",
          "type": "uint256"
        },
        {
          "internalType": "uint256[6]",
          "name": "amounts",
          "type": "uint256[6]"
        }
      ],
      "name": "recruit",
      "outputs": [],
      "stateMutability": "nonpayable",
      "type": "function"
    },
    {
      "inputs": [],
      "name": "renounceOwnership",
      "outputs": [],
      "stateMutability": "nonpayable",
      "type": "function"
    },
    {
      "inputs": [
        {
          "internalType": "uint256",
          "name": "landTokenId",
          "type": "uint256"
        },
        {
          "internalType": "uint256",
          "name": "dispatchedArmyIndex",
          "type": "uint256"
        }
      ],
      "name": "retreat",
      "outputs": [
        {
          "internalType": "bool",
          "name": "",
          "type": "bool"
        },
        {
          "internalType": "uint256",
          "name": "",
          "type": "uint256"
        },
        {
          "internalType": "uint256",
          "name": "",
          "type": "uint256"
        }
      ],
      "stateMutability": "nonpayable",
      "type": "function"
    },
    {
      "inputs": [
        {
          "internalType": "uint256",
          "name": "landTokenId",
          "type": "uint256"
        },
        {
          "internalType": "uint256",
          "name": "goodIndex",
          "type": "uint256"
        },
        {
          "internalType": "uint256",
          "name": "amount",
          "type": "uint256"
        }
      ],
      "name": "sellGood",
      "outputs": [],
      "stateMutability": "nonpayable",
      "type": "function"
    },
    {
      "inputs": [
        {
          "internalType": "uint256",
          "name": "landTokenId",
          "type": "uint256"
        },
        {
          "internalType": "uint256",
          "name": "fromIndex",
          "type": "uint256"
        },
        {
          "internalType": "uint256",
          "name": "amountIn",
          "type": "uint256"
        }
      ],
      "name": "swapGoods",
      "outputs": [],
      "stateMutability": "nonpayable",
      "type": "function"
    },
    {
      "inputs": [
        {
          "internalType": "uint256",
          "name": "goodIndex",
          "type": "uint256"
        },
        {
          "internalType": "uint256",
          "name": "amount",
          "type": "uint256"
        },
        {
          "internalType": "uint256",
          "name": "fromId",
          "type": "uint256"
        },
        {
          "internalType": "uint256",
          "name": "toId",
          "type": "uint256"
        }
      ],
      "name": "transferGoods",
      "outputs": [],
      "stateMutability": "nonpayable",
      "type": "function"
    },
    {
      "inputs": [
        {
          "internalType": "address",
          "name": "newOwner",
          "type": "address"
        }
      ],
      "name": "transferOwnership",
      "outputs": [],
      "stateMutability": "nonpayable",
      "type": "function"
    },
    {
      "inputs": [
        {
          "internalType": "uint256",
          "name": "buildingTokenId",
          "type": "uint256"
        },
        {
          "internalType": "uint256",
          "name": "landTokenId",
          "type": "uint256"
        }
      ],
      "name": "upgradeResourceBuilding",
      "outputs": [],
      "stateMutability": "nonpayable",
      "type": "function"
    },
    {
      "inputs": [
        {
          "internalType": "uint256",
          "name": "landTokenId",
          "type": "uint256"
        },
        {
          "internalType": "uint256",
          "name": "dispatchedArmyIndex",
          "type": "uint256"
        }
      ],
      "name": "war",
      "outputs": [
        {
          "internalType": "bool",
          "name": "",
          "type": "bool"
        },
        {
          "internalType": "uint256",
          "name": "",
          "type": "uint256"
        },
        {
          "internalType": "uint256",
          "name": "",
          "type": "uint256"
        }
      ],
      "stateMutability": "nonpayable",
      "type": "function"
    },
    {
      "inputs": [],
      "name": "warriorTypes",
      "outputs": [
        {
          "components": [
            {
              "internalType": "uint8",
              "name": "attackPower",
              "type": "uint8"
            },
            {
              "internalType": "uint8",
              "name": "defPower",
              "type": "uint8"
            },
            {
              "internalType": "uint8",
              "name": "hp",
              "type": "uint8"
            },
            {
              "internalType": "string",
              "name": "name",
              "type": "string"
            },
            {
              "internalType": "uint256",
              "name": "price",
              "type": "uint256"
            }
          ],
          "internalType": "struct Vars.WarriorInfo[]",
          "name": "",
          "type": "tuple[]"
        }
      ],
      "stateMutability": "view",
      "type": "function"
    },
    {
      "inputs": [
        {
          "internalType": "uint256",
          "name": "amount",
          "type": "uint256"
        }
      ],
      "name": "withdraw",
      "outputs": [],
      "stateMutability": "nonpayable",
      "type": "function"
    }
  ],
  "bytecode": "0x60c0604052680821ab0d44149800006080908152680ad78ebc5ac620000060a0526200003090600790600262000689565b50604080518082019091526802b5e3af16b1880000815268097c9ce4cf6d5c000060208201526200006690600990600262000689565b5060408051808201909152681043561a882930000080825260208201526200009390600b90600262000689565b5060408051808201909152680ad78ebc5ac620000081526802b5e3af16b18800006020820152620000c990600d90600262000689565b5060408051808201909152680821ab0d441498000081526806c6b935b8bbd400006020820152620000ff90600f90600262000689565b50600160115534801562000111575f80fd5b506040516200604f3803806200604f833981016040819052620001349162000709565b8033806200015b57604051631e4fbdf760e01b81525f600482015260240160405180910390fd5b62000166816200063a565b50600180546001600160a01b03199081166001600160a01b03938416178255600680548216878516179055600580549091169285169290921790915560408051608081018252680410d586a20a4c000081526806c6b935b8bbd4000060208083019182525f83850181815285518087019096526004808752634661726d60e01b938701939093526060850195865260148054978801815590915283515f805160206200602f8339815191529690920295860191825591515f8051602062005fef83398151915286015590515f805160206200600f833981519152850155915190925f8051602062005fcf8339815191520190620002649082620007f0565b5050604080516080810182526806c6b935b8bbd400008152680410d586a20a4c00006020808301918252600183850181815285518087019096526009865268476f6c64206d696e6560b81b92860192909252606084019485526014805491820181555f52835160049091025f805160206200602f833981519152810191825592515f8051602062005fef83398151915284015590515f805160206200600f83398151915283015592519193505f8051602062005fcf83398151915201906200032d9082620007f0565b5050505f5b6002811015620004755762018aed5f52601560205269021e19e0c9bab24000007f7a85be449187b00e85a5f6d28f53cde5b04c93f5fdf2012ac18b725f72aab68c8260028110620003875762000387620008b8565b015f828254620003989190620008e0565b909155505062019a915f52601560205269021e19e0c9bab24000007f5dfc6f94a55292918c622e0b8f0bb0ef60e78934a1839f44a657513492f086c08260028110620003e857620003e8620008b8565b015f828254620003f99190620008e0565b90915550506201aa355f52601560205269021e19e0c9bab24000007ff5103d35956a4ce8cd4f5ddf4bf2df53bce2746fd5ea7d8ffc86ae78ab164f898260028110620004495762000449620008b8565b015f8282546200045a9190620008e0565b909155508190506200046c81620008fc565b91505062000332565b50506015602052505060027f7a85be449187b00e85a5f6d28f53cde5b04c93f5fdf2012ac18b725f72aab6908190557f5dfc6f94a55292918c622e0b8f0bb0ef60e78934a1839f44a657513492f086c48190557ff5103d35956a4ce8cd4f5ddf4bf2df53bce2746fd5ea7d8ffc86ae78ab164f8d8190557f7a85be449187b00e85a5f6d28f53cde5b04c93f5fdf2012ac18b725f72aab6928190557f5dfc6f94a55292918c622e0b8f0bb0ef60e78934a1839f44a657513492f086c68190557ff5103d35956a4ce8cd4f5ddf4bf2df53bce2746fd5ea7d8ffc86ae78ab164f8f8190557f7a85be449187b00e85a5f6d28f53cde5b04c93f5fdf2012ac18b725f72aab6938190557f5dfc6f94a55292918c622e0b8f0bb0ef60e78934a1839f44a657513492f086c78190557ff5103d35956a4ce8cd4f5ddf4bf2df53bce2746fd5ea7d8ffc86ae78ab164f908190557f7a85be449187b00e85a5f6d28f53cde5b04c93f5fdf2012ac18b725f72aab6918190557f5dfc6f94a55292918c622e0b8f0bb0ef60e78934a1839f44a657513492f086c58190556201aa355f527ff5103d35956a4ce8cd4f5ddf4bf2df53bce2746fd5ea7d8ffc86ae78ab164f8e5562000917565b5f80546001600160a01b038381166001600160a01b0319831681178455604051919092169283917f8be0079c531659141344cd1fd0a4f28419497f9722a3daafe3b4186f6b6457e09190a35050565b8260028101928215620006c5579160200282015b82811115620006c557825182906001600160481b03169055916020019190600101906200069d565b50620006d3929150620006d7565b5090565b5b80821115620006d3575f8155600101620006d8565b80516001600160a01b038116811462000704575f80fd5b919050565b5f805f606084860312156200071c575f80fd5b6200072784620006ed565b92506200073760208501620006ed565b91506200074760408501620006ed565b90509250925092565b634e487b7160e01b5f52604160045260245ffd5b600181811c908216806200077957607f821691505b6020821081036200079857634e487b7160e01b5f52602260045260245ffd5b50919050565b601f821115620007eb575f81815260208120601f850160051c81016020861015620007c65750805b601f850160051c820191505b81811015620007e757828155600101620007d2565b5050505b505050565b81516001600160401b038111156200080c576200080c62000750565b62000824816200081d845462000764565b846200079e565b602080601f8311600181146200085a575f8415620008425750858301515b5f19600386901b1c1916600185901b178555620007e7565b5f85815260208120601f198616915b828110156200088a5788860151825594840194600190910190840162000869565b5085821015620008a857878501515f19600388901b60f8161c191681555b5050505050600190811b01905550565b634e487b7160e01b5f52603260045260245ffd5b634e487b7160e01b5f52601160045260245ffd5b80820180821115620008f657620008f6620008cc565b92915050565b5f60018201620009105762000910620008cc565b5060010190565b6156aa80620009255f395ff3fe608060405234801561000f575f80fd5b5060043610610213575f3560e01c8063826ac17d1161011f578063b37d5c1d116100a9578063ef6d0c8311610079578063ef6d0c831461052e578063f2fde38b14610543578063f32bcb8814610556578063f46e5bec14610569578063fb6e9a4114610589575f80fd5b8063b37d5c1d146104c2578063b5f52ebf146104d5578063b6b55f2514610508578063b6be72a61461051b575f80fd5b8063927cc1ce116100ef578063927cc1ce14610441578063a02c9a1e14610454578063a58343da1461047c578063aa7e7fa71461049c578063b0db1a6c146104af575f80fd5b8063826ac17d146103d1578063898212b2146103e45780638da5cb5b146104145780638e2479621461042e575f80fd5b80633b33ab38116101a05780635c622a0e116101705780635c622a0e146103475780636930fd2a14610390578063715018a6146103a3578063736d2a02146103ab578063798d7067146103be575f80fd5b80633b33ab38146102e6578063426b3b89146102f9578063462ceb011461030c5780634b7b66981461031f575f80fd5b80631a386fcb116101e65780631a386fcb146102785780631cb536ed1461028d578063216666e4146102a05780632e1a7d4d146102b35780633022b71a146102c6575f80fd5b8063015b5e6314610217578063052924f91461022c5780630ff1848d1461023f5780631748627014610252575b5f80fd5b61022a610225366004614c5e565b61059c565b005b61022a61023a366004614c83565b6107dd565b61022a61024d366004614cb1565b610cd1565b610265610260366004614c5e565b610e56565b6040519081526020015b60405180910390f35b610280610e9f565b60405161026f9190614cda565b61022a61029b366004614c5e565b610fac565b61022a6102ae366004614d78565b61124b565b61022a6102c1366004614c5e565b6115af565b6102d96102d4366004614c5e565b611671565b60405161026f9190614e59565b61022a6102f4366004614c5e565b61174f565b61022a610307366004614cb1565b611987565b61026561031a366004614ec6565b611ab6565b61033261032d366004614ec6565b611b12565b6040805192835260208301919091520161026f565b61035a610355366004614c5e565b611b2b565b60405161026f919081518152602080830151908201526040808301519082015260609182015160ff169181019190915260800190565b61022a61039e366004614c5e565b611b9c565b61022a611df2565b61022a6103b9366004614ec6565b611e05565b61022a6103cc366004614c5e565b6121b8565b61022a6103df366004614f09565b6123dd565b6103f76103f2366004614ec6565b61280e565b60408051931515845260208401929092529082015260600161026f565b5f546040516001600160a01b03909116815260200161026f565b61022a61043c366004614ec6565b612ae6565b6103f761044f366004614ec6565b612e32565b610265610462366004614fbd565b6001600160a01b03165f9081526018602052604090205490565b61048f61048a366004614c5e565b613170565b60405161026f9190614fdf565b6102656104aa366004614c5e565b6131d2565b61022a6104bd366004614cb1565b61343c565b61022a6104d0366004614c5e565b6136cc565b6104e86104e3366004614c5e565b6138f1565b60408051948552602085019390935291830152606082015260800161026f565b61022a610516366004614c5e565b613a4d565b610280610529366004615006565b613aba565b610536613b34565b60405161026f91906150a9565b61022a610551366004614fbd565b613ba7565b61022a610564366004615163565b613be4565b61057c610577366004614c5e565b613dbf565b60405161026f9190615192565b61022a610597366004614c5e565b613f18565b6005546040516331a9108f60e11b815260048101839052829133916001600160a01b0390911690636352211e90602401602060405180830381865afa1580156105e7573d5f803e3d5ffd5b505050506040513d601f19601f8201168201806040525081019061060b919061525b565b6001600160a01b03161461063257604051636db2465f60e01b815260040160405180910390fd5b5f828152601560205260408120600201548190421015610785575f8481526015602052604090206002015461066890429061528a565b915060015f9054906101000a90046001600160a01b03166001600160a01b03166334f2830b6040518163ffffffff1660e01b8152600401602060405180830381865afa1580156106ba573d5f803e3d5ffd5b505050506040513d601f19601f820116820180604052508101906106de919061529d565b6106ea610e10846152c8565b6106f491906152db565b5f85815260156020526040902054909150811161076c575f84815260156020526040902081906001015f82825461072b919061528a565b9091555061073c9050603c4261528a565b5f858152601560205260409020600201558060126001015f828254610761919061528a565b9091555061079e9050565b60405163af1b273d60e01b815260040160405180910390fd5b6040516336a683ad60e01b815260040160405180910390fd5b835f8051602061565583398151915260405180604001604052805f8152602001848152506040516107cf9190614cda565b60405180910390a250505050565b6005546040516331a9108f60e11b815260048101849052839133916001600160a01b0390911690636352211e90602401602060405180830381865afa158015610828573d5f803e3d5ffd5b505050506040513d601f19601f8201168201806040525081019061084c919061525b565b6001600160a01b03161461087357604051636db2465f60e01b815260040160405180910390fd5b828260ff165f60155f8481526020019081526020015f206003018054806020026020016040519081016040528092919081815260200182805480156108d557602002820191905f5260205f20905b8154815260200190600101908083116108c1575b505050505090505f805f90505b825181101561094b575f60165f858481518110610901576109016152f2565b60209081029190910181015182528101919091526040015f206003015460ff169050848103610938578261093481615306565b9350505b508061094381615306565b9150506108e2565b506001546040805163042ec6f160e11b815290516002926001600160a01b03169163085d8de29160048083019260209291908290030181865afa158015610994573d5f803e3d5ffd5b505050506040513d601f19601f820116820180604052508101906109b8919061529d565b6109c291906152c8565b6109cd82600161531e565b11156109ec57604051630336d90d60e41b815260040160405180910390fd5b5f84815260156020526040902060060154610a0890600261531e565b610a1382600161531e565b1115610a325760405163428db80760e01b815260040160405180910390fd5b86610a3c81610e56565b15610a5a5760405163012ee37d60e51b815260040160405180910390fd5b60145460ff881610610a7f576040516327b3518960e11b815260040160405180910390fd5b5f60148860ff1681548110610a9657610a966152f2565b905f5260205f2090600402016040518060800160405290815f82015481526020016001820154815260200160028201548152602001600382018054610ada90615331565b80601f0160208091040260200160405190810160405280929190818152602001828054610b0690615331565b8015610b515780601f10610b2857610100808354040283529160200191610b51565b820191905f5260205f20905b815481529060010190602001808311610b3457829003601f168201915b5050505050815250509050610b81896040518060400160405280845f01518152602001846020015181525061410c565b8860175f60115481526020019081526020015f20819055506040518060800160405280600181526020014281526020018a81526020018960ff1681525060165f60115481526020019081526020015f205f820151815f015560208201518160010155604082015181600201556060820151816003015f6101000a81548160ff021916908360ff16021790555090505060155f8a81526020019081526020015f20600301601154908060018154018082558091505060019003905f5260205f20015f909190919091505560115f815480929190610c5c90615306565b90915550610c6e90504261546061531e565b5f8a8152601560205260409020600201556011548990610c909060019061528a565b60405160ff8b1681527fcbecf69dc8611949e753d337378fb4ace6f6ad1e31b5fbf86b6379ea0279ca749060200160405180910390a3505050505050505050565b6005546040516331a9108f60e11b815260048101859052849133916001600160a01b0390911690636352211e90602401602060405180830381865afa158015610d1c573d5f803e3d5ffd5b505050506040513d601f19601f82011682018060405250810190610d40919061525b565b6001600160a01b031614610d6757604051636db2465f60e01b815260040160405180910390fd5b335f90815260186020526040902054821115610d9657604051631e9acf1760e31b815260040160405180910390fd5b6001831115610db8576040516327b3518960e11b815260040160405180910390fd5b5f610dc1610e9f565b8460028110610dd257610dd26152f2565b6020020151610de984670de0b6b3a76400006152db565b610df391906152c8565b335f90815260186020526040812080549293508592909190610e1690849061528a565b90915550505f85815260156020526040902081908560028110610e3b57610e3b6152f2565b015f828254610e4a919061531e565b90915550505050505050565b5f81815260156020526040812060020154421015610e9a575f82815260156020526040902060020154603c90610e8d90429061528a565b610e9791906152c8565b90505b919050565b610ea7614b3f565b60408051808201909152670de0b6b3a764000080825260208201526013546012545f91610ed39161531e565b90505f5b6002811015610fa457690a968163f0a57b400000821080610f0d575061271060128260028110610f0957610f096152f2565b0154105b15610f3f576040518060400160405280670de0b6b3a76400008152602001670de0b6b3a7640000815250935050505090565b60128160028110610f5257610f526152f2565b0154610f5f9060026152db565b610f7183670de0b6b3a76400006152db565b610f7b91906152c8565b838260028110610f8d57610f8d6152f2565b602002015280610f9c81615306565b915050610ed7565b509092915050565b6005545f82815260176020526040908190205490516331a9108f60e11b81526004810191909152829133916001600160a01b0390911690636352211e90602401602060405180830381865afa158015611007573d5f803e3d5ffd5b505050506040513d601f19601f8201168201806040525081019061102b919061525b565b6001600160a01b03161461105257604051636db2465f60e01b815260040160405180910390fd5b5f61105c83611b2b565b90505f6014826060015160ff1681548110611079576110796152f2565b905f5260205f2090600402016040518060800160405290815f820154815260200160018201548152602001600282015481526020016003820180546110bd90615331565b80601f01602080910402602001604051908101604052809291908181526020018280546110e990615331565b80156111345780601f1061110b57610100808354040283529160200191611134565b820191905f5260205f20905b81548152906001019060200180831161111757829003601f168201915b50505050508152505090505f611149856131d2565b9050611153614b3f565b8181856060015160ff166002811061116d5761116d6152f2565b6020020181815161117e919061531e565b9052505f86815260166020908152604080832060029081015484526015909252918290209185015184929181106111b7576111b76152f2565b015f8282546111c6919061531e565b92505081905550816012856060015160ff16600281106111e8576111e86152f2565b015f8282546111f7919061531e565b90915550505f86815260176020526040908190205490517fb52dd8210b1a40e6da8e0fea50d7ce4daa5aba949225ea1cb093dd5d334445379061123b908490614cda565b60405180910390a2505050505050565b6005546040516331a9108f60e11b815260048101849052839133916001600160a01b0390911690636352211e90602401602060405180830381865afa158015611296573d5f803e3d5ffd5b505050506040513d601f19601f820116820180604052508101906112ba919061525b565b6001600160a01b0316146112e157604051636db2465f60e01b815260040160405180910390fd5b5f8080805b60068110156114a2575f6112fb82600161531e565b90505f878360068110611310576113106152f2565b602002015111801561133157505f8881526015602052604090206004015481115b1561134f57604051632d7a63d360e11b815260040160405180910390fd5b868260068110611361576113616152f2565b6020020151611370908661531e565b9450868260068110611384576113846152f2565b6020020151611391613b34565b83815181106113a2576113a26152f2565b6020026020010151608001516113b891906152db565b6113c2908561531e565b9350816005146113d35760016113d6565b60025b60ff168560015f9054906101000a90046001600160a01b03166001600160a01b031663d72411076040518163ffffffff1660e01b8152600401602060405180830381865afa15801561142a573d5f803e3d5ffd5b505050506040513d601f19601f8201168201806040525081019061144e919061529d565b61145891906152db565b61146291906152db565b61146c908461531e565b925061148f82888460068110611484576114846152f2565b60200201518a614269565b508061149a81615306565b9150506112e6565b505f6114ad876138f1565b935050505083816114be919061531e565b5f888152601560205260409020600701546114da57600a611569565b60015f9054906101000a90046001600160a01b03166001600160a01b03166378658ab56040518163ffffffff1660e01b8152600401602060405180830381865afa15801561152a573d5f803e3d5ffd5b505050506040513d601f19601f8201168201806040525081019061154e919061529d565b5f8981526015602052604090206007015461156991906152db565b101561158857604051630336d90d60e41b815260040160405180910390fd5b6115a68760405180604001604052808581526020018681525061410c565b50505050505050565b335f908152601860205260409020548111156115de5760405163af1b273d60e01b815260040160405180910390fd5b335f90815260186020526040812080548392906115fc90849061528a565b9091555050600654611638906001600160a01b031633606461161f600a8261528a565b61162990866152db565b61163391906152c8565b61429b565b60405181815233907f884edad9ce6fa2440d8a54cc123490eb96d2768479d49ff9c7366125a9424364906020015b60405180910390a250565b611679614b5d565b5f8281526015602052604090819020815161012081019092528160e081018260028282826020028201915b8154815260200190600101908083116116a45750505050508152602001600282015481526020016003820180548060200260200160405190810160405280929190818152602001828054801561171757602002820191905f5260205f20905b815481526020019060010190808311611703575b505050505081526020016004820154815260200160058201548152602001600682015481526020016007820154815250509050919050565b6005546040516331a9108f60e11b815260048101839052829133916001600160a01b0390911690636352211e90602401602060405180830381865afa15801561179a573d5f803e3d5ffd5b505050506040513d601f19601f820116820180604052508101906117be919061525b565b6001600160a01b0316146117e557604051636db2465f60e01b815260040160405180910390fd5b816117ef81610e56565b1561180d5760405163012ee37d60e51b815260040160405180910390fd5b5f838152601560205260409020600581015461182a90600161531e565b8160060154101561184e5760405163428db80760e01b815260040160405180910390fd5b604080518082019182905261189391869161188e9160099060029082845b81548152602001906001019080831161186c5750505050508460050154613aba565b61410c565b60058101546118a390600161531e565b60015f9054906101000a90046001600160a01b03166001600160a01b03166312b347a56040518163ffffffff1660e01b8152600401602060405180830381865afa1580156118f3573d5f803e3d5ffd5b505050506040513d601f19601f82011682018060405250810190611917919061529d565b61192191906152db565b61192b904261531e565b6002820155600581018054905f61194183615306565b9190505550837ffed4122cd1f9640026f0227a22f4b6ae173a38c69ee29a2f09e51b9b7834aa9d82600501546001611979919061531e565b6040519081526020016107cf565b5f838152601560205260408120829084600281106119a7576119a76152f2565b0154116119c75760405163af1b273d60e01b815260040160405180910390fd5b670de0b6b3a76400006119d8610e9f565b84600281106119e9576119e96152f2565b60200201516119f890846152db565b611a0291906152c8565b611a0c908261531e565b5f85815260156020526040902090915082908460028110611a2f57611a2f6152f2565b015f828254611a3e919061528a565b9091555082905060128460028110611a5857611a586152f2565b015f828254611a67919061528a565b90915550506064611a7960058261528a565b611a8390836152db565b611a8d91906152c8565b335f9081526018602052604081208054909190611aab90849061531e565b909155505050505050565b5f828152600460205260408120805482919084908110611ad857611ad86152f2565b905f5260205f2090600a020160040154905042811115611b0b57603c611afe428361528a565b611b0891906152c8565b91505b5092915050565b5f80611b2084846001614396565b915091509250929050565b611b5560405180608001604052805f81526020015f81526020015f81526020015f60ff1681525090565b505f9081526016602090815260409182902082516080810184528154815260018201549281019290925260028101549282019290925260039091015460ff16606082015290565b6005546040516331a9108f60e11b815260048101839052829133916001600160a01b0390911690636352211e90602401602060405180830381865afa158015611be7573d5f803e3d5ffd5b505050506040513d601f19601f82011682018060405250810190611c0b919061525b565b6001600160a01b031614611c3257604051636db2465f60e01b815260040160405180910390fd5b5f82815260156020908152604080832060030180548251818502810185019093528083529192909190830182828015611c8857602002820191905f5260205f20905b815481526020019060010190808311611c74575b50505050509050611c97614b3f565b5f5b601454811015611dc1575f611cc6848381518110611cb957611cb96152f2565b6020026020010151611b2b565b6060015160ff1690505f611cf2858481518110611ce557611ce56152f2565b60200260200101516131d2565b90508060155f60165f898881518110611d0d57611d0d6152f2565b602002602001015181526020019081526020015f206002015481526020019081526020015f205f018360028110611d4657611d466152f2565b015f828254611d55919061531e565b9091555081905060128360028110611d6f57611d6f6152f2565b015f828254611d7e919061531e565b90915550819050848360028110611d9757611d976152f2565b60200201818151611da8919061531e565b905250829150611db9905081615306565b915050611c99565b50837fb52dd8210b1a40e6da8e0fea50d7ce4daa5aba949225ea1cb093dd5d33444537826040516107cf9190614cda565b611dfa614450565b611e035f61447c565b565b6005546040516331a9108f60e11b815260048101849052839133916001600160a01b0390911690636352211e90602401602060405180830381865afa158015611e50573d5f803e3d5ffd5b505050506040513d601f19601f82011682018060405250810190611e74919061525b565b6001600160a01b031614611e9b57604051636db2465f60e01b815260040160405180910390fd5b5f838152600460205260408120805484908110611eba57611eba6152f2565b5f91825260209091206008600a909202019081015490915060ff161515600114611f235760405162461bcd60e51b8152602060048201526015602482015274105c9b5e481a185cc81b9bdd081c995d1d5c9b9959605a1b60448201526064015b60405180910390fd5b5f815f015f81548110611f3857611f386152f2565b905f5260205f2001541180611f6957505f815f01600181548110611f5e57611f5e6152f2565b905f5260205f200154115b611fb55760405162461bcd60e51b815260206004820152601e60248201527f446973706174636865642041726d7920646f6573206e6f7420657869737400006044820152606401611f1a565b612013815f0180548060200260200160405190810160405280929190818152602001828054801561200357602002820191905f5260205f20905b815481526020019060010190808311611fef575b50505050508260090154866144cb565b60068101545f858152601560205260408120805490919061203590849061531e565b909155505060068101600101545f8581526015602052604090206001015f828254612060919061531e565b909155505f90505b81548110156120f4575f825f018281548110612086576120866152f2565b905f5260205f20015411156120e257815f0181815481106120a9576120a96152f2565b5f9182526020808320909101548783526002825260408084208585529092529082208054919290916120dc90849061531e565b90915550505b806120ec81615306565b915050612068565b505f84815260046020526040902080546121109060019061528a565b81548110612120576121206152f2565b905f5260205f2090600a0201905060045f8581526020019081526020015f2080548061214e5761214e615363565b5f828152602081205f1990920191600a8302019061216c8282614b9b565b5f60018301819055600283018190556003830181905560048301819055600583018190556006830181905560078301555060088101805460ff191690555f600990910155905550505050565b6005546040516331a9108f60e11b815260048101839052829133916001600160a01b0390911690636352211e90602401602060405180830381865afa158015612203573d5f803e3d5ffd5b505050506040513d601f19601f82011682018060405250810190612227919061525b565b6001600160a01b03161461224e57604051636db2465f60e01b815260040160405180910390fd5b8161225881610e56565b156122765760405163012ee37d60e51b815260040160405180910390fd5b5f838152601560205260409020600481015461229390600161531e565b816006015410156122b75760405163428db80760e01b815260040160405180910390fd5b60408051808201918290526122f791869161188e9160079060029082845b8154815260200190600101908083116122d55750505050508460040154613aba565b600481015461230790600161531e565b60015f9054906101000a90046001600160a01b03166001600160a01b03166312b347a56040518163ffffffff1660e01b8152600401602060405180830381865afa158015612357573d5f803e3d5ffd5b505050506040513d601f19601f8201168201806040525081019061237b919061529d565b61238591906152db565b61238f904261531e565b6002820155600481018054905f6123a583615306565b9190505550837f04ef68448efe10b7d8fafcde9fb44988ae65b7e3f9e50deeb5dd7a67fd40663382600401546001611979919061531e565b6005546040516331a9108f60e11b815260048101849052839133916001600160a01b0390911690636352211e90602401602060405180830381865afa158015612428573d5f803e3d5ffd5b505050506040513d601f19601f8201168201806040525081019061244c919061525b565b6001600160a01b03161461247357604051636db2465f60e01b815260040160405180910390fd5b61247b613b34565b518451146124c45760405162461bcd60e51b8152602060048201526016602482015275098cadccee8d0e640c8decae640dcdee840dac2e8c6d60531b6044820152606401611f1a565b5f6124d184846001614396565b9150505f6124de856138f1565b93505050506125018560405180604001604052808481526020015f81525061410c565b5f8080805b8951811015612666575f8a8281518110612522576125226152f2565b6020026020010151111561257e57898181518110612542576125426152f2565b602002602001015160025f8b81526020019081526020015f205f8381526020019081526020015f205f828254612578919061528a565b90915550505b898181518110612590576125906152f2565b6020026020010151846125a3919061531e565b93508981815181106125b7576125b76152f2565b60200260200101516125c7613b34565b82815181106125d8576125d86152f2565b60200260200101515f015160ff166125f091906152db565b6125fa908461531e565b925089818151811061260e5761260e6152f2565b602002602001015161261e613b34565b828151811061262f5761262f6152f2565b60200260200101516040015160ff1661264891906152db565b612652908361531e565b91508061265e81615306565b915050612506565b50604080518082018083526001546378e41bb160e01b90915291516126f6928b929182916001600160a01b0316906378e41bb1906044808501916020918187030181865afa1580156126ba573d5f803e3d5ffd5b505050506040513d601f19601f820116820180604052508101906126de919061529d565b6126e890886152db565b81526020015f81525061410c565b60045f8981526020019081526020015f206040518061012001604052808b81526020018581526020018481526020018381526020018742612737919061531e565b815260208082018b90526040805180820182525f80825281840181905291840152606083018190526064608090930192909252835460018101855593825290819020825180519394600a02909101926127939284920190614bb6565b506020820151816001015560408201518160020155606082015181600301556080820151816004015560a0820151816005015560c0820151816006019060026127dd929190614bff565b5060e082015160088201805460ff191691151591909117905561010090910151600990910155505050505050505050565b6005546040516331a9108f60e11b8152600481018490525f9182918291869133916001600160a01b031690636352211e90602401602060405180830381865afa15801561285d573d5f803e3d5ffd5b505050506040513d601f19601f82011682018060405250810190612881919061525b565b6001600160a01b0316146128a857604051636db2465f60e01b815260040160405180910390fd5b5f8681526004602052604081208054879081106128c7576128c76152f2565b5f9182526020909120600a90910201600881015490915060ff16156129225760405162461bcd60e51b815260206004820152601160248201527041726d792069732072657475726e696e6760781b6044820152606401611f1a565b42816004015411156129685760405162461bcd60e51b815260206004820152600f60248201526e139bdd08185c9c9a5d9959081e595d608a1b6044820152606401611f1a565b5f805b82548110156129b057825f018181548110612988576129886152f2565b905f5260205f2001548261299c919061531e565b9150806129a881615306565b91505061296b565b505f8160015f9054906101000a90046001600160a01b03166001600160a01b031663933ee37b6040518163ffffffff1660e01b8152600401602060405180830381865afa158015612a03573d5f803e3d5ffd5b505050506040513d601f19601f82011682018060405250810190612a27919061529d565b612a3191906152db565b5f8a81526015602052604090209091508190600101541015612a51575f80fd5b5f89815260156020526040902081906001015f828254612a71919061528a565b909155505060058301545f90815260156020526040902081906001015f828254612a9b919061531e565b909155505060088301805460ff1916600190811790915560058401545f91612ac4918c91614396565b9150612ad29050814261531e565b846004018190555050505050509250925092565b6005545f83815260176020526040908190205490516331a9108f60e11b81526004810191909152839133916001600160a01b0390911690636352211e90602401602060405180830381865afa158015612b41573d5f803e3d5ffd5b505050506040513d601f19601f82011682018060405250810190612b65919061525b565b6001600160a01b031614612b8c57604051636db2465f60e01b815260040160405180910390fd5b81612b9681610e56565b15612bb45760405163012ee37d60e51b815260040160405180910390fd5b5f848152601760205260409020548314612be1576040516327b3518960e11b815260040160405180910390fd5b612bea84610fac565b5f848152601660205260408120600381015490546014805460ff90931693919284908110612c1a57612c1a6152f2565b905f5260205f2090600402016040518060800160405290815f82015481526020016001820154815260200160028201548152602001600382018054612c5e90615331565b80601f0160208091040260200160405190810160405280929190818152602001828054612c8a90615331565b8015612cd55780601f10612cac57610100808354040283529160200191612cd5565b820191905f5260205f20905b815481529060010190602001808311612cb857829003601f168201915b5050505050815250509050612d2e866040518060400160405280856002612cfc9190615457565b8560200151612d0b91906152db565b8152602001612d1b866002615457565b8551612d2791906152db565b905261410c565b612d3982600161531e565b5f88815260166020526040902055612d5282600161531e565b60015f9054906101000a90046001600160a01b03166001600160a01b03166312b347a56040518163ffffffff1660e01b8152600401602060405180830381865afa158015612da2573d5f803e3d5ffd5b505050506040513d601f19601f82011682018060405250810190612dc6919061529d565b612dd091906152db565b612dda904261531e565b5f87815260156020526040902060020155867feb0ebb51128928d7b1a6419c52128a9319bfcb55f0adafea75afbf75f9f2f3e9612e1884600161531e565b60405190815260200160405180910390a250505050505050565b6005546040516331a9108f60e11b8152600481018490525f9182918291869133916001600160a01b031690636352211e90602401602060405180830381865afa158015612e81573d5f803e3d5ffd5b505050506040513d601f19601f82011682018060405250810190612ea5919061525b565b6001600160a01b031614612ecc57604051636db2465f60e01b815260040160405180910390fd5b5f868152600460205260408120805487908110612eeb57612eeb6152f2565b5f9182526020909120600a90910201600881015490915060ff1615612f465760405162461bcd60e51b815260206004820152601160248201527041726d792069732072657475726e696e6760781b6044820152606401611f1a565b4281600401541115612f8c5760405162461bcd60e51b815260206004820152600f60248201526e139bdd08185c9c9a5d9959081e595d608a1b6044820152606401611f1a565b5f80612f9b83600501546138f1565b509250925050606460155f856005015481526020019081526020015f20600501546005612fc891906152db565b612fd291906152c8565b612fdc90836152db565b612fe6908361531e565b91505f805f612fff866002015487600301548787614575565b925092509250613013818760050154614855565b60088601805460ff191660019081179091556009870183905560058701545f9161303e918f91614396565b915061304c9050814261531e565b6004880155831561311a576001546040805163bf2a0a3f60e01b815290515f926001600160a01b03169163bf2a0a3f9160048083019260209291908290030181865afa15801561309e573d5f803e3d5ffd5b505050506040513d601f19601f820116820180604052508101906130c2919061529d565b6064858a600101546130d491906152db565b6130de91906152c8565b6130e891906152db565b90505f613105896005015485876130ff919061528a565b846148e7565b905061311660068a01826002614bff565b5050505b83151587600501548e7f742e5a32c080cbbf9ee2def8b76b428088934a6e7332c8d79f91b333ecc3bbf98a6006016040516131559190615462565b60405180910390a45091985096509450505050509250925092565b613178614c2c565b5f5b613182613b34565b518110156131cc575f8381526002602090815260408083208484529091529020548282600681106131b5576131b56152f2565b6020020152806131c481615306565b91505061317a565b50919050565b5f806131dd83611b2b565b90505f8160200151426131f0919061528a565b90505f826060015160ff165f1461327a5760015f9054906101000a90046001600160a01b03166001600160a01b0316634031917f6040518163ffffffff1660e01b8152600401602060405180830381865afa158015613251573d5f803e3d5ffd5b505050506040513d601f19601f82011682018060405250810190613275919061529d565b6132ee565b60015f9054906101000a90046001600160a01b03166001600160a01b031663399d7a986040518163ffffffff1660e01b8152600401602060405180830381865afa1580156132ca573d5f803e3d5ffd5b505050506040513d601f19601f820116820180604052508101906132ee919061529d565b90505f6001845f0151613301919061528a565b61330c906002615457565b82613319612a30866152c8565b61332391906152db565b61332d91906152db565b9050835f015160015f9054906101000a90046001600160a01b03166001600160a01b031663dd7b22e16040518163ffffffff1660e01b8152600401602060405180830381865afa158015613383573d5f803e3d5ffd5b505050506040513d601f19601f820116820180604052508101906133a7919061529d565b6133b191906152db565b8111156134335783516001546040805163dd7b22e160e01b815290516001600160a01b039092169163dd7b22e1916004808201926020929091908290030181865afa158015613402573d5f803e3d5ffd5b505050506040513d601f19601f82011682018060405250810190613426919061529d565b61343091906152db565b90505b95945050505050565b6005546040516331a9108f60e11b815260048101859052849133916001600160a01b0390911690636352211e90602401602060405180830381865afa158015613487573d5f803e3d5ffd5b505050506040513d601f19601f820116820180604052508101906134ab919061525b565b6001600160a01b0316146134d257604051636db2465f60e01b815260040160405180910390fd5b5f848152601560205260409020829084600281106134f2576134f26152f2565b015410156135135760405163af1b273d60e01b815260040160405180910390fd5b5f84815260156020526040902082908460028110613533576135336152f2565b015f828254613542919061528a565b909155505f90508315613555575f613558565b60015b60ff1690505f613566610e9f565b90505f81836002811061357b5761357b6152f2565b602002015161359290670de0b6b3a76400006152db565b8287600281106135a4576135a46152f2565b60200201516135b390876152db565b6135bd91906152c8565b905060646135cc60058261528a565b6135d690836152db565b6135e091906152c8565b5f88815260156020526040902084600281106135fe576135fe6152f2565b015f82825461360d919061531e565b9091555081905060128760028110613627576136276152f2565b015f828254613636919061528a565b9091555081905060128460028110613650576136506152f2565b015f82825461365f919061531e565b9091555061366d9050614b3f565b606461367a6005846152db565b61368491906152c8565b818560028110613696576136966152f2565b602002015260405188905f80516020615655833981519152906136ba908490614cda565b60405180910390a25050505050505050565b6005546040516331a9108f60e11b815260048101839052829133916001600160a01b0390911690636352211e90602401602060405180830381865afa158015613717573d5f803e3d5ffd5b505050506040513d601f19601f8201168201806040525081019061373b919061525b565b6001600160a01b03161461376257604051636db2465f60e01b815260040160405180910390fd5b8161376c81610e56565b1561378a5760405163012ee37d60e51b815260040160405180910390fd5b5f83815260156020526040902060078101546137a790600161531e565b816006015410156137cb5760405163428db80760e01b815260040160405180910390fd5b604080518082019182905261380b91869161188e91600d9060029082845b8154815260200190600101908083116137e95750505050508460070154613aba565b600781015461381b90600161531e565b60015f9054906101000a90046001600160a01b03166001600160a01b03166312b347a56040518163ffffffff1660e01b8152600401602060405180830381865afa15801561386b573d5f803e3d5ffd5b505050506040513d601f19601f8201168201806040525081019061388f919061529d565b61389991906152db565b6138a3904261531e565b6002820155600781018054905f6138b983615306565b9190505550837f5982da6cf94280613f2ba3066edb43e8c2f92c7053d39a1a7cbd3c778f2b9b4182600701546001611979919061531e565b5f805f805f5b6138ff613b34565b51811015613a45575f868152600260209081526040808320848452909152902054613928613b34565b8281518110613939576139396152f2565b60200260200101515f015160ff1661395191906152db565b61395b908661531e565b5f87815260026020908152604080832085845290915290205490955061397f613b34565b8281518110613990576139906152f2565b60200260200101516020015160ff166139a991906152db565b6139b3908561531e565b5f8781526002602090815260408083208584529091529020549094506139d7613b34565b82815181106139e8576139e86152f2565b60200260200101516040015160ff16613a0191906152db565b613a0b908461531e565b5f878152600260209081526040808320858452909152902054909350613a31908361531e565b915080613a3d81615306565b9150506138f7565b509193509193565b600654613a65906001600160a01b03163330846149c7565b335f9081526018602052604081208054839290613a8390849061531e565b909155505060405181815233907fe1fffcc4923d04b559f4d29a8bfc6cda04eb5b0d3c460751c2402c5c5cc9109c90602001611666565b613ac2614b3f565b613aca614b3f565b5f5b6002811015613b2a57613ae0846002615457565b858260028110613af257613af26152f2565b6020020151613b0191906152db565b828260028110613b1357613b136152f2565b602002015280613b2281615306565b915050613acc565b5090505b92915050565b60015460408051636cc9544760e01b815290516060926001600160a01b031691636cc95447916004808301925f9291908290030181865afa158015613b7b573d5f803e3d5ffd5b505050506040513d5f823e601f3d908101601f19168201604052613ba29190810190615489565b905090565b613baf614450565b6001600160a01b038116613bd857604051631e4fbdf760e01b81525f6004820152602401611f1a565b613be18161447c565b50565b6005546040516331a9108f60e11b815260048101849052839133916001600160a01b0390911690636352211e90602401602060405180830381865afa158015613c2f573d5f803e3d5ffd5b505050506040513d601f19601f82011682018060405250810190613c53919061525b565b6001600160a01b031614613c7a57604051636db2465f60e01b815260040160405180910390fd5b5f83815260156020526040902084908660028110613c9a57613c9a6152f2565b01541015613ce15760405162461bcd60e51b8152602060048201526014602482015273496e73756666696369656e742062616c616e636560601b6044820152606401611f1a565b5f83815260156020526040902084908660028110613d0157613d016152f2565b015f828254613d10919061528a565b9091555060649050613d2360058261528a565b613d2d90866152db565b613d3791906152c8565b5f8381526015602052604090208660028110613d5557613d556152f2565b015f828254613d64919061531e565b90915550613d729050614b3f565b6064613d7f6005876152db565b613d8991906152c8565b818760028110613d9b57613d9b6152f2565b602002015260405183905f805160206156558339815191529061123b908490614cda565b606060045f8381526020019081526020015f20805480602002602001604051908101604052809291908181526020015f905b82821015613f0d578382905f5260205f2090600a0201604051806101200160405290815f8201805480602002602001604051908101604052809291908181526020018280548015613e5f57602002820191905f5260205f20905b815481526020019060010190808311613e4b575b50505050508152602001600182015481526020016002820154815260200160038201548152602001600482015481526020016005820154815260200160068201600280602002604051908101604052809291908260028015613ed6576020028201915b815481526020019060010190808311613ec2575b5050509183525050600882015460ff1615156020808301919091526009909201546040909101529082526001929092019101613df1565b505050509050919050565b6005546040516331a9108f60e11b815260048101839052829133916001600160a01b0390911690636352211e90602401602060405180830381865afa158015613f63573d5f803e3d5ffd5b505050506040513d601f19601f82011682018060405250810190613f87919061525b565b6001600160a01b031614613fae57604051636db2465f60e01b815260040160405180910390fd5b81613fb881610e56565b15613fd65760405163012ee37d60e51b815260040160405180910390fd5b5f8381526015602052604090819020815180830192839052909161402691869161188e9190600b9060029082845b8154815260200190600101908083116140045750505050508460060154613aba565b600681015461403690600161531e565b60015f9054906101000a90046001600160a01b03166001600160a01b031663a2e6eb9d6040518163ffffffff1660e01b8152600401602060405180830381865afa158015614086573d5f803e3d5ffd5b505050506040513d601f19601f820116820180604052508101906140aa919061529d565b6140b491906152db565b6140be904261531e565b6002820155600681018054905f6140d483615306565b9190505550837fcc41656265acd445daf9de7af23ef21744525e878a546550a86a5ab78a4aef6782600601546001611979919061531e565b5f5b600281101561423f57818160028110614129576141296152f2565b602002015161413784611671565b518260028110614149576141496152f2565b6020020151101561416d57604051631e9acf1760e31b815260040160405180910390fd5b81816002811061417f5761417f6152f2565b602002015160155f8581526020019081526020015f205f0182600281106141a8576141a86152f2565b015f8282546141b7919061528a565b9091555082905081600281106141cf576141cf6152f2565b6020020151601282600281106141e7576141e76152f2565b01541061422d57818160028110614200576142006152f2565b602002015160128260028110614218576142186152f2565b015f828254614227919061528a565b90915550505b8061423781615306565b91505061410e565b50815f805160206156558339815191528260405161425d9190614cda565b60405180910390a25050565b5f8181526002602090815260408083208684529091528120805484929061429190849061531e565b9091555050505050565b604080516001600160a01b038481166024830152604480830185905283518084039091018152606490920183526020820180516001600160e01b031663a9059cbb60e01b17905291515f928392908716916142f691906155f9565b5f604051808303815f865af19150503d805f811461432f576040519150601f19603f3d011682016040523d82523d5f602084013e614334565b606091505b509150915081801561435e57508051158061435e57508080602001905181019061435e9190615614565b61438f5760405162461bcd60e51b815260206004820152600260248201526114d560f21b6044820152606401611f1a565b5050505050565b5f805f806143a387614acc565b915091505f806143b288614acc565b91509150600596505f8483116143d1576143cc838661528a565b6143db565b6143db858461528a565b90505f8483116143f4576143ef838661528a565b6143fe565b6143fe858461528a565b905061442861440e600283615633565b614419600285615633565b614423919061531e565b614aed565b9750886144368960646152db565b61444091906152c8565b9650505050505050935093915050565b5f546001600160a01b03163314611e035760405163118cdaa760e01b8152336004820152602401611f1a565b5f80546001600160a01b038381166001600160a01b0319831681178455604051919092169283917f8be0079c531659141344cd1fd0a4f28419497f9722a3daafe3b4186f6b6457e09190a35050565b5f5b6144d5613b34565b5181101561456f575f8482815181106144f0576144f06152f2565b6020026020010151111561455d57606483858381518110614513576145136152f2565b602002602001015161452591906152db565b61452f91906152c8565b5f8381526002602090815260408083208584529091528120805490919061455790849061531e565b90915550505b8061456781615306565b9150506144cd565b50505050565b5f805f805f80898711801561458957508789115b15614645576145988a8861528a565b6145a2898b61528a565b111561460a57506001886145b760038a6152c8565b6145c1908b61528a565b6145cc9060646152db565b6145d691906152c8565b9250866145e460028c6152c8565b6145ee908961528a565b6145f99060646152db565b61460391906152c8565b9150614847565b505f8861461860028a6152c8565b614622908b61528a565b61462d9060646152db565b61463791906152c8565b9250866145e460038c6152c8565b8987101561474d57506001600261465d8860036152db565b61466791906152c8565b8a10156146a0578861467a60048a6152c8565b614684908b61528a565b61468f9060646152db565b61469991906152c8565b9250601e91505b8960026146ae8960036152db565b6146b891906152c8565b1080156146ce5750896146cc8860026152db565b115b1561470557886146df60058a6152c8565b6146e9908b61528a565b6146f49060646152db565b6146fe91906152c8565b9250600f91505b896147118860026152db565b1015614748578861472360068a6152c8565b61472d908b61528a565b6147389060646152db565b61474291906152c8565b92505f91505b614847565b505f600261475c8a60036152db565b61476691906152c8565b88101561479f57601e92508661477d60048c6152c8565b614787908961528a565b6147929060646152db565b61479c91906152c8565b91505b876147ab8a60026152db565b10156147e357600f9250866147c160058c6152c8565b6147cb908961528a565b6147d69060646152db565b6147e091906152c8565b91505b8760026147f18b60036152db565b6147fb91906152c8565b10801561481157508761480f8a60026152db565b115b15614847575f92508661482560068c6152c8565b61482f908961528a565b61483a9060646152db565b61484491906152c8565b91505b999198509650945050505050565b5f5b61485f613b34565b518110156148e2575f828152600260209081526040808320848452909152902054156148d0575f8281526002602090815260408083208484529091529020546064906148ac9085906152db565b6148b691906152c8565b5f8381526002602090815260408083208584529091529020555b806148da81615306565b915050614857565b505050565b6148ef614b3f565b5f5b60028110156149bf575f8581526015602052604081206064908690846002811061491d5761491d6152f2565b015461492991906152db565b61493391906152c8565b90506149406002856152c8565b811115614955576149526002856152c8565b90505b80838360028110614968576149686152f2565b6020020181815250508060155f8881526020019081526020015f205f018360028110614996576149966152f2565b015f8282546149a5919061528a565b909155508291506149b7905081615306565b9150506148f1565b509392505050565b604080516001600160a01b0385811660248301528481166044830152606480830185905283518084039091018152608490920183526020820180516001600160e01b03166323b872dd60e01b17905291515f92839290881691614a2a91906155f9565b5f604051808303815f865af19150503d805f8114614a63576040519150601f19603f3d011682016040523d82523d5f602084013e614a68565b606091505b5091509150818015614a92575080511580614a92575080806020019051810190614a929190615614565b614ac45760405162461bcd60e51b815260206004820152600360248201526229aa2360e91b6044820152606401611f1a565b505050505050565b5f80614ad96064846152c8565b614ae4606485615641565b91509150915091565b5f806002614afc84600161531e565b614b0691906152c8565b90508291505b818110156131cc57905080600281614b2481866152c8565b614b2e919061531e565b614b3891906152c8565b9050614b0c565b60405180604001604052806002906020820280368337509192915050565b6040518060e00160405280614b70614b3f565b81526020015f8152602001606081526020015f81526020015f81526020015f81526020015f81525090565b5080545f8255905f5260205f2090810190613be19190614c4a565b828054828255905f5260205f20908101928215614bef579160200282015b82811115614bef578251825591602001919060010190614bd4565b50614bfb929150614c4a565b5090565b8260028101928215614bef5791602002820182811115614bef578251825591602001919060010190614bd4565b6040518060c001604052806006906020820280368337509192915050565b5b80821115614bfb575f8155600101614c4b565b5f60208284031215614c6e575f80fd5b5035919050565b60ff81168114613be1575f80fd5b5f8060408385031215614c94575f80fd5b823591506020830135614ca681614c75565b809150509250929050565b5f805f60608486031215614cc3575f80fd5b505081359360208301359350604090920135919050565b6040810181835f5b6002811015614d01578151835260209283019290910190600101614ce2565b50505092915050565b634e487b7160e01b5f52604160045260245ffd5b60405160a0810167ffffffffffffffff81118282101715614d4157614d41614d0a565b60405290565b604051601f8201601f1916810167ffffffffffffffff81118282101715614d7057614d70614d0a565b604052919050565b5f8060e08385031215614d89575f80fd5b82359150602084603f850112614d9d575f80fd5b60405160c0810181811067ffffffffffffffff82111715614dc057614dc0614d0a565b6040528060e0860187811115614dd4575f80fd5b8387015b81811015614def5780358352918401918401614dd8565b50505080925050509250929050565b805f5b600281101561456f578151845260209384019390910190600101614e01565b5f8151808452602080850194508084015f5b83811015614e4e57815187529582019590820190600101614e32565b509495945050505050565b60208152614e6b602082018351614dfe565b602082015160608201525f6040830151610100806080850152614e92610120850183614e20565b9150606085015160a0850152608085015160c085015260a085015160e085015260c085015181850152508091505092915050565b5f8060408385031215614ed7575f80fd5b50508035926020909101359150565b5f67ffffffffffffffff821115614eff57614eff614d0a565b5060051b60200190565b5f805f60608486031215614f1b575f80fd5b833567ffffffffffffffff811115614f31575f80fd5b8401601f81018613614f41575f80fd5b80356020614f56614f5183614ee6565b614d47565b82815260059290921b83018101918181019089841115614f74575f80fd5b938201935b83851015614f9257843582529382019390820190614f79565b999188013598505060409096013595945050505050565b6001600160a01b0381168114613be1575f80fd5b5f60208284031215614fcd575f80fd5b8135614fd881614fa9565b9392505050565b60c0810181835f5b6006811015614d01578151835260209283019290910190600101614fe7565b5f8060608385031215615017575f80fd5b83601f840112615025575f80fd5b6040516040810181811067ffffffffffffffff8211171561504857615048614d0a565b806040525080604085018681111561505e575f80fd5b855b81811015615078578035835260209283019201615060565b50919691359550909350505050565b5f5b838110156150a1578181015183820152602001615089565b50505f910152565b5f6020808301818452808551808352604092508286019150828160051b8701018488015f5b8381101561515557888303603f190185528151805160ff90811685528882015181168986015287820151168785015260608082015160a0918601829052805191860182905260c0919061512682848901838e01615087565b506080928301519286019290925295880195601f91909101601f191690930190920191908601906001016150ce565b509098975050505050505050565b5f805f8060808587031215615176575f80fd5b5050823594602084013594506040840135936060013592509050565b5f6020808301818452808551808352604092508286019150828160051b8701018488015f5b8381101561515557603f19898403018552815161014081518186526151de82870182614e20565b838b0151878c0152898401518a880152606080850151908801526080808501519088015260a0808501519088015260c080850151919350915061522382880182614dfe565b505060e082015161010061523a8188018315159052565b929092015161012095909501949094525093860193908601906001016151b7565b5f6020828403121561526b575f80fd5b8151614fd881614fa9565b634e487b7160e01b5f52601160045260245ffd5b81810381811115613b2e57613b2e615276565b5f602082840312156152ad575f80fd5b5051919050565b634e487b7160e01b5f52601260045260245ffd5b5f826152d6576152d66152b4565b500490565b8082028115828204841417613b2e57613b2e615276565b634e487b7160e01b5f52603260045260245ffd5b5f6001820161531757615317615276565b5060010190565b80820180821115613b2e57613b2e615276565b600181811c9082168061534557607f821691505b6020821081036131cc57634e487b7160e01b5f52602260045260245ffd5b634e487b7160e01b5f52603160045260245ffd5b600181815b808511156153b157815f190482111561539757615397615276565b808516156153a457918102915b93841c939080029061537c565b509250929050565b5f826153c757506001613b2e565b816153d357505f613b2e565b81600181146153e957600281146153f35761540f565b6001915050613b2e565b60ff84111561540457615404615276565b50506001821b613b2e565b5060208310610133831016604e8410600b8410161715615432575081810a613b2e565b61543c8383615377565b805f190482111561544f5761544f615276565b029392505050565b5f614fd883836153b9565b6040810181835f5b6002811015614d0157815483526020909201916001918201910161546a565b5f602080838503121561549a575f80fd5b825167ffffffffffffffff808211156154b1575f80fd5b818501915085601f8301126154c4575f80fd5b81516154d2614f5182614ee6565b81815260059190911b830184019084810190888311156154f0575f80fd5b8585015b838110156155ec5780518581111561550a575f80fd5b8601601f1960a0828d0382011215615520575f80fd5b615528614d1e565b8983015161553581614c75565b815260408381015161554681614c75565b828c0152606084015161555881614c75565b8282015260808401518981111561556e575f8081fd5b8401603f81018f1361557f575f8081fd5b8b8101518a81111561559357615593614d0a565b6155a38d86601f84011601614d47565b94508085528f838284010111156155b9575f8081fd5b6155c8818e8701858501615087565b505050606081019190915260a09190910151608082015283529186019186016154f4565b5098975050505050505050565b5f825161560a818460208701615087565b9190910192915050565b5f60208284031215615624575f80fd5b81518015158114614fd8575f80fd5b5f614fd860ff8416836153b9565b5f8261564f5761564f6152b4565b50069056fe67d910d28fd4b2aeda12200f3aa784bd1aed68019163872ec289d5074da24b68a26469706673582212202f5d8824493745c17e6018d1032abe416754823dcd8b21f57eed7cb4546c61b564736f6c63430008140033ce6d7b5282bd9a3661ae061feed1dbda4e52ab073b1f9285be6e155d9c38d4efce6d7b5282bd9a3661ae061feed1dbda4e52ab073b1f9285be6e155d9c38d4edce6d7b5282bd9a3661ae061feed1dbda4e52ab073b1f9285be6e155d9c38d4eece6d7b5282bd9a3661ae061feed1dbda4e52ab073b1f9285be6e155d9c38d4ec",
  "linkReferences": {},
  "deployedLinkReferences": {}
}