{
  "_format": "hh-sol-artifact-1",
  "contractName": "Town",
  "sourceName": "contracts/V3/TownV3.sol",
  "abi": [
    {
      "inputs": [
        {
          "internalType": "address",
          "name": "BlockchainsKingdomToken",
          "type": "address"
        },
        {
          "internalType": "address",
          "name": "landsAddress",
          "type": "address"
        },
        {
          "internalType": "address",
          "name": "varsAddress",
          "type": "address"
        }
      ],
      "stateMutability": "nonpayable",
      "type": "constructor"
    },
    {
      "inputs": [],
      "name": "AlreadyFinished",
      "type": "error"
    },
    {
      "inputs": [],
      "name": "BarracksLevelLowerThanWarrior",
      "type": "error"
    },
    {
      "inputs": [],
      "name": "CallerIsNotOwner",
      "type": "error"
    },
    {
      "inputs": [],
      "name": "ClaimBeforeAction",
      "type": "error"
    },
    {
      "inputs": [],
      "name": "InsufficientArmy",
      "type": "error"
    },
    {
      "inputs": [],
      "name": "InsufficientBalance",
      "type": "error"
    },
    {
      "inputs": [],
      "name": "InsufficientGoods",
      "type": "error"
    },
    {
      "inputs": [],
      "name": "InvalidItem",
      "type": "error"
    },
    {
      "inputs": [],
      "name": "InvalidLand",
      "type": "error"
    },
    {
      "inputs": [],
      "name": "MaxCapacity",
      "type": "error"
    },
    {
      "inputs": [
        {
          "internalType": "address",
          "name": "owner",
          "type": "address"
        }
      ],
      "name": "OwnableInvalidOwner",
      "type": "error"
    },
    {
      "inputs": [
        {
          "internalType": "address",
          "name": "account",
          "type": "address"
        }
      ],
      "name": "OwnableUnauthorizedAccount",
      "type": "error"
    },
    {
      "inputs": [],
      "name": "TownhallUpgradeRequired",
      "type": "error"
    },
    {
      "inputs": [],
      "name": "UnAuthorizedToken",
      "type": "error"
    },
    {
      "inputs": [],
      "name": "WorkerIsBusy",
      "type": "error"
    },
    {
      "anonymous": false,
      "inputs": [
        {
          "indexed": true,
          "internalType": "uint256",
          "name": "attackerLandId",
          "type": "uint256"
        },
        {
          "indexed": true,
          "internalType": "uint256",
          "name": "defenderLandId",
          "type": "uint256"
        },
        {
          "indexed": true,
          "internalType": "bool",
          "name": "success",
          "type": "bool"
        },
        {
          "indexed": false,
          "internalType": "uint256[2]",
          "name": "lootAmounts",
          "type": "uint256[2]"
        }
      ],
      "name": "Attack",
      "type": "event"
    },
    {
      "anonymous": false,
      "inputs": [
        {
          "indexed": false,
          "internalType": "uint256",
          "name": "buildingTypeIndex",
          "type": "uint256"
        },
        {
          "indexed": true,
          "internalType": "uint256",
          "name": "buildingId",
          "type": "uint256"
        },
        {
          "indexed": true,
          "internalType": "uint256",
          "name": "landTokenId",
          "type": "uint256"
        }
      ],
      "name": "Build",
      "type": "event"
    },
    {
      "anonymous": false,
      "inputs": [
        {
          "indexed": true,
          "internalType": "address",
          "name": "accountAddress",
          "type": "address"
        },
        {
          "indexed": false,
          "internalType": "uint256",
          "name": "tokenAmount",
          "type": "uint256"
        }
      ],
      "name": "Deposit",
      "type": "event"
    },
    {
      "anonymous": false,
      "inputs": [
        {
          "indexed": false,
          "internalType": "uint256[2]",
          "name": "amounts",
          "type": "uint256[2]"
        },
        {
          "indexed": true,
          "internalType": "uint256",
          "name": "landId",
          "type": "uint256"
        }
      ],
      "name": "GoodsConsumption",
      "type": "event"
    },
    {
      "anonymous": false,
      "inputs": [
        {
          "indexed": false,
          "internalType": "uint256[2]",
          "name": "amounts",
          "type": "uint256[2]"
        },
        {
          "indexed": true,
          "internalType": "uint256",
          "name": "landId",
          "type": "uint256"
        }
      ],
      "name": "GoodsProduction",
      "type": "event"
    },
    {
      "anonymous": false,
      "inputs": [
        {
          "indexed": true,
          "internalType": "address",
          "name": "previousOwner",
          "type": "address"
        },
        {
          "indexed": true,
          "internalType": "address",
          "name": "newOwner",
          "type": "address"
        }
      ],
      "name": "OwnershipTransferred",
      "type": "event"
    },
    {
      "anonymous": false,
      "inputs": [
        {
          "indexed": false,
          "internalType": "uint256[]",
          "name": "typesAmount",
          "type": "uint256[]"
        },
        {
          "indexed": true,
          "internalType": "uint256",
          "name": "landId",
          "type": "uint256"
        }
      ],
      "name": "RecruitWarrior",
      "type": "event"
    },
    {
      "anonymous": false,
      "inputs": [
        {
          "indexed": true,
          "internalType": "uint256",
          "name": "buildingId",
          "type": "uint256"
        },
        {
          "indexed": false,
          "internalType": "uint256",
          "name": "level",
          "type": "uint256"
        }
      ],
      "name": "Upgrade",
      "type": "event"
    },
    {
      "anonymous": false,
      "inputs": [
        {
          "indexed": true,
          "internalType": "uint256",
          "name": "landTokenId",
          "type": "uint256"
        },
        {
          "indexed": false,
          "internalType": "uint256",
          "name": "currentLevel",
          "type": "uint256"
        }
      ],
      "name": "UpgradeBarracks",
      "type": "event"
    },
    {
      "anonymous": false,
      "inputs": [
        {
          "indexed": true,
          "internalType": "uint256",
          "name": "landTokenId",
          "type": "uint256"
        },
        {
          "indexed": false,
          "internalType": "uint256",
          "name": "currentLevel",
          "type": "uint256"
        }
      ],
      "name": "UpgradeTownhall",
      "type": "event"
    },
    {
      "anonymous": false,
      "inputs": [
        {
          "indexed": true,
          "internalType": "uint256",
          "name": "landTokenId",
          "type": "uint256"
        },
        {
          "indexed": false,
          "internalType": "uint256",
          "name": "currentLevel",
          "type": "uint256"
        }
      ],
      "name": "UpgradeTrainingCamp",
      "type": "event"
    },
    {
      "anonymous": false,
      "inputs": [
        {
          "indexed": true,
          "internalType": "uint256",
          "name": "landTokenId",
          "type": "uint256"
        },
        {
          "indexed": false,
          "internalType": "uint256",
          "name": "currentLevel",
          "type": "uint256"
        }
      ],
      "name": "UpgradeWalls",
      "type": "event"
    },
    {
      "anonymous": false,
      "inputs": [
        {
          "indexed": true,
          "internalType": "uint256",
          "name": "landTokenId",
          "type": "uint256"
        },
        {
          "indexed": false,
          "internalType": "uint256",
          "name": "currentLevel",
          "type": "uint256"
        }
      ],
      "name": "UpgradeWarehouse",
      "type": "event"
    },
    {
      "anonymous": false,
      "inputs": [
        {
          "indexed": false,
          "internalType": "uint256[]",
          "name": "typesAmount",
          "type": "uint256[]"
        },
        {
          "indexed": true,
          "internalType": "uint256",
          "name": "landId",
          "type": "uint256"
        }
      ],
      "name": "WarriorLosses",
      "type": "event"
    },
    {
      "anonymous": false,
      "inputs": [
        {
          "indexed": true,
          "internalType": "address",
          "name": "accountAddress",
          "type": "address"
        },
        {
          "indexed": false,
          "internalType": "uint256",
          "name": "tokenAmount",
          "type": "uint256"
        }
      ],
      "name": "Withdraw",
      "type": "event"
    },
    {
      "inputs": [
        {
          "internalType": "uint256",
          "name": "landTokenId",
          "type": "uint256"
        }
      ],
      "name": "buildBarracks",
      "outputs": [],
      "stateMutability": "nonpayable",
      "type": "function"
    },
    {
      "inputs": [
        {
          "internalType": "uint256",
          "name": "landTokenId",
          "type": "uint256"
        },
        {
          "internalType": "uint8",
          "name": "buildingIndex",
          "type": "uint8"
        }
      ],
      "name": "buildResourceBuilding",
      "outputs": [],
      "stateMutability": "nonpayable",
      "type": "function"
    },
    {
      "inputs": [
        {
          "internalType": "uint256",
          "name": "landTokenId",
          "type": "uint256"
        }
      ],
      "name": "buildTownhall",
      "outputs": [],
      "stateMutability": "nonpayable",
      "type": "function"
    },
    {
      "inputs": [
        {
          "internalType": "uint256",
          "name": "landTokenId",
          "type": "uint256"
        }
      ],
      "name": "buildTrainingCamp",
      "outputs": [],
      "stateMutability": "nonpayable",
      "type": "function"
    },
    {
      "inputs": [
        {
          "internalType": "uint256",
          "name": "landTokenId",
          "type": "uint256"
        }
      ],
      "name": "buildWalls",
      "outputs": [],
      "stateMutability": "nonpayable",
      "type": "function"
    },
    {
      "inputs": [
        {
          "internalType": "uint256",
          "name": "landTokenId",
          "type": "uint256"
        },
        {
          "internalType": "uint256",
          "name": "goodIndex",
          "type": "uint256"
        },
        {
          "internalType": "uint256",
          "name": "amount",
          "type": "uint256"
        }
      ],
      "name": "buyGood",
      "outputs": [],
      "stateMutability": "nonpayable",
      "type": "function"
    },
    {
      "inputs": [
        {
          "internalType": "uint256",
          "name": "landTokenId",
          "type": "uint256"
        }
      ],
      "name": "claimAll",
      "outputs": [],
      "stateMutability": "nonpayable",
      "type": "function"
    },
    {
      "inputs": [
        {
          "internalType": "uint256",
          "name": "buildingTokenId",
          "type": "uint256"
        }
      ],
      "name": "claimRevenue",
      "outputs": [],
      "stateMutability": "nonpayable",
      "type": "function"
    },
    {
      "inputs": [
        {
          "internalType": "uint256",
          "name": "amount",
          "type": "uint256"
        }
      ],
      "name": "deposit",
      "outputs": [],
      "stateMutability": "nonpayable",
      "type": "function"
    },
    {
      "inputs": [
        {
          "internalType": "uint256[]",
          "name": "warriorAmounts",
          "type": "uint256[]"
        },
        {
          "internalType": "uint256",
          "name": "from",
          "type": "uint256"
        },
        {
          "internalType": "uint256",
          "name": "target",
          "type": "uint256"
        }
      ],
      "name": "dispatchArmy",
      "outputs": [],
      "stateMutability": "nonpayable",
      "type": "function"
    },
    {
      "inputs": [
        {
          "internalType": "uint256",
          "name": "landTokenId",
          "type": "uint256"
        }
      ],
      "name": "finishNow",
      "outputs": [],
      "stateMutability": "nonpayable",
      "type": "function"
    },
    {
      "inputs": [
        {
          "internalType": "uint256",
          "name": "landTokenId",
          "type": "uint256"
        }
      ],
      "name": "getArmy",
      "outputs": [
        {
          "internalType": "uint256[6]",
          "name": "amounts",
          "type": "uint256[6]"
        }
      ],
      "stateMutability": "view",
      "type": "function"
    },
    {
      "inputs": [
        {
          "internalType": "uint256",
          "name": "landTokenId",
          "type": "uint256"
        }
      ],
      "name": "getArmyInfo",
      "outputs": [
        {
          "internalType": "uint256",
          "name": "attPower",
          "type": "uint256"
        },
        {
          "internalType": "uint256",
          "name": "defPower",
          "type": "uint256"
        },
        {
          "internalType": "uint256",
          "name": "hp",
          "type": "uint256"
        },
        {
          "internalType": "uint256",
          "name": "totalArmy",
          "type": "uint256"
        }
      ],
      "stateMutability": "view",
      "type": "function"
    },
    {
      "inputs": [
        {
          "internalType": "address",
          "name": "userAddress",
          "type": "address"
        }
      ],
      "name": "getBMTbalance",
      "outputs": [
        {
          "internalType": "uint256",
          "name": "",
          "type": "uint256"
        }
      ],
      "stateMutability": "view",
      "type": "function"
    },
    {
      "inputs": [
        {
          "internalType": "uint256",
          "name": "buildingTokenId",
          "type": "uint256"
        }
      ],
      "name": "getCurrentRevenue",
      "outputs": [
        {
          "internalType": "uint256",
          "name": "",
          "type": "uint256"
        }
      ],
      "stateMutability": "view",
      "type": "function"
    },
    {
      "inputs": [
        {
          "internalType": "uint256",
          "name": "from",
          "type": "uint256"
        },
        {
          "internalType": "uint256",
          "name": "to",
          "type": "uint256"
        }
      ],
      "name": "getDispatchTime",
      "outputs": [
        {
          "internalType": "uint256",
          "name": "estimatedTime",
          "type": "uint256"
        }
      ],
      "stateMutability": "pure",
      "type": "function"
    },
    {
      "inputs": [
        {
          "internalType": "uint256",
          "name": "landTokenId",
          "type": "uint256"
        }
      ],
      "name": "getDispatchedArmies",
      "outputs": [
        {
          "components": [
            {
              "internalType": "uint256[]",
              "name": "amounts",
              "type": "uint256[]"
            },
            {
              "internalType": "uint256",
              "name": "totalArmyAmount",
              "type": "uint256"
            },
            {
              "internalType": "uint256",
              "name": "totalPower",
              "type": "uint256"
            },
            {
              "internalType": "uint256",
              "name": "totalHp",
              "type": "uint256"
            },
            {
              "internalType": "uint256",
              "name": "remainedTime",
              "type": "uint256"
            },
            {
              "internalType": "uint256",
              "name": "target",
              "type": "uint256"
            },
            {
              "internalType": "uint256[2]",
              "name": "lootedAmounts",
              "type": "uint256[2]"
            },
            {
              "internalType": "bool",
              "name": "isReturning",
              "type": "bool"
            },
            {
              "internalType": "uint256",
              "name": "remainedArmybyPercent",
              "type": "uint256"
            }
          ],
          "internalType": "struct Barracks.DispatchedArmy[]",
          "name": "",
          "type": "tuple[]"
        }
      ],
      "stateMutability": "view",
      "type": "function"
    },
    {
      "inputs": [],
      "name": "getGoodsPrice",
      "outputs": [
        {
          "internalType": "uint256[2]",
          "name": "",
          "type": "uint256[2]"
        }
      ],
      "stateMutability": "view",
      "type": "function"
    },
    {
      "inputs": [
        {
          "internalType": "uint256",
          "name": "landTokenId",
          "type": "uint256"
        }
      ],
      "name": "getLandIdData",
      "outputs": [
        {
          "components": [
            {
              "internalType": "uint256[2]",
              "name": "goodsBalance",
              "type": "uint256[2]"
            },
            {
              "internalType": "uint256",
              "name": "latestBuildTimeStamp",
              "type": "uint256"
            },
            {
              "internalType": "uint256[]",
              "name": "buildedResourceBuildings",
              "type": "uint256[]"
            },
            {
              "internalType": "uint256",
              "name": "barracksLevel",
              "type": "uint256"
            },
            {
              "internalType": "uint256",
              "name": "wallLevel",
              "type": "uint256"
            },
            {
              "internalType": "uint256",
              "name": "townhallLevel",
              "type": "uint256"
            },
            {
              "internalType": "uint256",
              "name": "trainingCampLevel",
              "type": "uint256"
            }
          ],
          "internalType": "struct Town.LandIdData",
          "name": "",
          "type": "tuple"
        }
      ],
      "stateMutability": "view",
      "type": "function"
    },
    {
      "inputs": [
        {
          "internalType": "uint256",
          "name": "landTokenId",
          "type": "uint256"
        }
      ],
      "name": "getRemainedBuildTimestamp",
      "outputs": [
        {
          "internalType": "uint256",
          "name": "remainedTimestamp",
          "type": "uint256"
        }
      ],
      "stateMutability": "view",
      "type": "function"
    },
    {
      "inputs": [
        {
          "internalType": "uint256",
          "name": "landTokenId",
          "type": "uint256"
        },
        {
          "internalType": "uint256",
          "name": "dispatchIndex",
          "type": "uint256"
        }
      ],
      "name": "getRemainedDispatchTimestamp",
      "outputs": [
        {
          "internalType": "uint256",
          "name": "remainedTimestamp",
          "type": "uint256"
        }
      ],
      "stateMutability": "view",
      "type": "function"
    },
    {
      "inputs": [
        {
          "internalType": "uint256[2]",
          "name": "baseAmounts",
          "type": "uint256[2]"
        },
        {
          "internalType": "uint256",
          "name": "currentLevel",
          "type": "uint256"
        }
      ],
      "name": "getRequiredGoods",
      "outputs": [
        {
          "internalType": "uint256[2]",
          "name": "",
          "type": "uint256[2]"
        }
      ],
      "stateMutability": "pure",
      "type": "function"
    },
    {
      "inputs": [
        {
          "internalType": "uint256",
          "name": "tokenId",
          "type": "uint256"
        }
      ],
      "name": "getStatus",
      "outputs": [
        {
          "components": [
            {
              "internalType": "uint256",
              "name": "level",
              "type": "uint256"
            },
            {
              "internalType": "uint256",
              "name": "latestActionTimestamp",
              "type": "uint256"
            },
            {
              "internalType": "uint256",
              "name": "attachedLand",
              "type": "uint256"
            },
            {
              "internalType": "uint8",
              "name": "buildingTypeIndex",
              "type": "uint8"
            }
          ],
          "internalType": "struct Town.ResourceBuildingStatus",
          "name": "",
          "type": "tuple"
        }
      ],
      "stateMutability": "view",
      "type": "function"
    },
    {
      "inputs": [
        {
          "internalType": "uint256",
          "name": "landTokenId",
          "type": "uint256"
        },
        {
          "internalType": "uint256",
          "name": "dispatchedArmyIndex",
          "type": "uint256"
        }
      ],
      "name": "joinDispatchedArmy",
      "outputs": [],
      "stateMutability": "nonpayable",
      "type": "function"
    },
    {
      "inputs": [],
      "name": "owner",
      "outputs": [
        {
          "internalType": "address",
          "name": "",
          "type": "address"
        }
      ],
      "stateMutability": "view",
      "type": "function"
    },
    {
      "inputs": [
        {
          "internalType": "uint256",
          "name": "landTokenId",
          "type": "uint256"
        },
        {
          "internalType": "uint256[6]",
          "name": "amounts",
          "type": "uint256[6]"
        }
      ],
      "name": "recruit",
      "outputs": [],
      "stateMutability": "nonpayable",
      "type": "function"
    },
    {
      "inputs": [],
      "name": "renounceOwnership",
      "outputs": [],
      "stateMutability": "nonpayable",
      "type": "function"
    },
    {
      "inputs": [
        {
          "internalType": "uint256",
          "name": "landTokenId",
          "type": "uint256"
        },
        {
          "internalType": "uint256",
          "name": "dispatchedArmyIndex",
          "type": "uint256"
        }
      ],
      "name": "retreat",
      "outputs": [],
      "stateMutability": "nonpayable",
      "type": "function"
    },
    {
      "inputs": [
        {
          "internalType": "uint256",
          "name": "landTokenId",
          "type": "uint256"
        },
        {
          "internalType": "uint256",
          "name": "goodIndex",
          "type": "uint256"
        },
        {
          "internalType": "uint256",
          "name": "amount",
          "type": "uint256"
        }
      ],
      "name": "sellGood",
      "outputs": [],
      "stateMutability": "nonpayable",
      "type": "function"
    },
    {
      "inputs": [
        {
          "internalType": "uint256",
          "name": "landTokenId",
          "type": "uint256"
        },
        {
          "internalType": "uint256",
          "name": "fromIndex",
          "type": "uint256"
        },
        {
          "internalType": "uint256",
          "name": "amountIn",
          "type": "uint256"
        }
      ],
      "name": "swapGoods",
      "outputs": [],
      "stateMutability": "nonpayable",
      "type": "function"
    },
    {
      "inputs": [
        {
          "internalType": "uint256",
          "name": "goodIndex",
          "type": "uint256"
        },
        {
          "internalType": "uint256",
          "name": "amount",
          "type": "uint256"
        },
        {
          "internalType": "uint256",
          "name": "fromId",
          "type": "uint256"
        },
        {
          "internalType": "uint256",
          "name": "toId",
          "type": "uint256"
        }
      ],
      "name": "transferGoods",
      "outputs": [],
      "stateMutability": "nonpayable",
      "type": "function"
    },
    {
      "inputs": [
        {
          "internalType": "address",
          "name": "newOwner",
          "type": "address"
        }
      ],
      "name": "transferOwnership",
      "outputs": [],
      "stateMutability": "nonpayable",
      "type": "function"
    },
    {
      "inputs": [
        {
          "internalType": "uint256",
          "name": "buildingTokenId",
          "type": "uint256"
        },
        {
          "internalType": "uint256",
          "name": "landTokenId",
          "type": "uint256"
        }
      ],
      "name": "upgradeResourceBuilding",
      "outputs": [],
      "stateMutability": "nonpayable",
      "type": "function"
    },
    {
      "inputs": [
        {
          "internalType": "uint256",
          "name": "landTokenId",
          "type": "uint256"
        },
        {
          "internalType": "uint256",
          "name": "dispatchedArmyIndex",
          "type": "uint256"
        }
      ],
      "name": "war",
      "outputs": [
        {
          "internalType": "bool",
          "name": "",
          "type": "bool"
        },
        {
          "internalType": "uint256",
          "name": "",
          "type": "uint256"
        },
        {
          "internalType": "uint256",
          "name": "",
          "type": "uint256"
        }
      ],
      "stateMutability": "nonpayable",
      "type": "function"
    },
    {
      "inputs": [],
      "name": "warriorTypes",
      "outputs": [
        {
          "components": [
            {
              "internalType": "uint8",
              "name": "attackPower",
              "type": "uint8"
            },
            {
              "internalType": "uint8",
              "name": "defPower",
              "type": "uint8"
            },
            {
              "internalType": "uint8",
              "name": "hp",
              "type": "uint8"
            },
            {
              "internalType": "string",
              "name": "name",
              "type": "string"
            },
            {
              "internalType": "uint256",
              "name": "price",
              "type": "uint256"
            }
          ],
          "internalType": "struct Vars.WarriorInfo[]",
          "name": "",
          "type": "tuple[]"
        }
      ],
      "stateMutability": "view",
      "type": "function"
    },
    {
      "inputs": [
        {
          "internalType": "uint256",
          "name": "amount",
          "type": "uint256"
        }
      ],
      "name": "withdraw",
      "outputs": [],
      "stateMutability": "nonpayable",
      "type": "function"
    }
  ],
  "bytecode": "0x60c0604052680821ab0d44149800006080908152680ad78ebc5ac620000060a0526200003090600790600262000689565b50604080518082019091526802b5e3af16b1880000815268097c9ce4cf6d5c000060208201526200006690600990600262000689565b5060408051808201909152681043561a882930000080825260208201526200009390600b90600262000689565b5060408051808201909152680ad78ebc5ac620000081526802b5e3af16b18800006020820152620000c990600d90600262000689565b5060408051808201909152680821ab0d441498000081526806c6b935b8bbd400006020820152620000ff90600f90600262000689565b50600160115534801562000111575f80fd5b506040516200602f3803806200602f833981016040819052620001349162000709565b8033806200015b57604051631e4fbdf760e01b81525f600482015260240160405180910390fd5b62000166816200063a565b50600180546001600160a01b03199081166001600160a01b03938416178255600680548216878516179055600580549091169285169290921790915560408051608081018252680410d586a20a4c000081526806c6b935b8bbd4000060208083019182525f83850181815285518087019096526004808752634661726d60e01b938701939093526060850195865260148054978801815590915283515f805160206200600f8339815191529690920295860191825591515f8051602062005fcf83398151915286015590515f8051602062005fef833981519152850155915190925f8051602062005faf8339815191520190620002649082620007f0565b5050604080516080810182526806c6b935b8bbd400008152680410d586a20a4c00006020808301918252600183850181815285518087019096526009865268476f6c64206d696e6560b81b92860192909252606084019485526014805491820181555f52835160049091025f805160206200600f833981519152810191825592515f8051602062005fcf83398151915284015590515f8051602062005fef83398151915283015592519193505f8051602062005faf83398151915201906200032d9082620007f0565b5050505f5b6002811015620004755762018aed5f52601560205269021e19e0c9bab24000007f7a85be449187b00e85a5f6d28f53cde5b04c93f5fdf2012ac18b725f72aab68c8260028110620003875762000387620008b8565b015f828254620003989190620008e0565b909155505062019a915f52601560205269021e19e0c9bab24000007f5dfc6f94a55292918c622e0b8f0bb0ef60e78934a1839f44a657513492f086c08260028110620003e857620003e8620008b8565b015f828254620003f99190620008e0565b90915550506201aa355f52601560205269021e19e0c9bab24000007ff5103d35956a4ce8cd4f5ddf4bf2df53bce2746fd5ea7d8ffc86ae78ab164f898260028110620004495762000449620008b8565b015f8282546200045a9190620008e0565b909155508190506200046c81620008fc565b91505062000332565b50506015602052505060027f7a85be449187b00e85a5f6d28f53cde5b04c93f5fdf2012ac18b725f72aab6908190557f5dfc6f94a55292918c622e0b8f0bb0ef60e78934a1839f44a657513492f086c48190557ff5103d35956a4ce8cd4f5ddf4bf2df53bce2746fd5ea7d8ffc86ae78ab164f8d8190557f7a85be449187b00e85a5f6d28f53cde5b04c93f5fdf2012ac18b725f72aab6928190557f5dfc6f94a55292918c622e0b8f0bb0ef60e78934a1839f44a657513492f086c68190557ff5103d35956a4ce8cd4f5ddf4bf2df53bce2746fd5ea7d8ffc86ae78ab164f8f8190557f7a85be449187b00e85a5f6d28f53cde5b04c93f5fdf2012ac18b725f72aab6938190557f5dfc6f94a55292918c622e0b8f0bb0ef60e78934a1839f44a657513492f086c78190557ff5103d35956a4ce8cd4f5ddf4bf2df53bce2746fd5ea7d8ffc86ae78ab164f908190557f7a85be449187b00e85a5f6d28f53cde5b04c93f5fdf2012ac18b725f72aab6918190557f5dfc6f94a55292918c622e0b8f0bb0ef60e78934a1839f44a657513492f086c58190556201aa355f527ff5103d35956a4ce8cd4f5ddf4bf2df53bce2746fd5ea7d8ffc86ae78ab164f8e5562000917565b5f80546001600160a01b038381166001600160a01b0319831681178455604051919092169283917f8be0079c531659141344cd1fd0a4f28419497f9722a3daafe3b4186f6b6457e09190a35050565b8260028101928215620006c5579160200282015b82811115620006c557825182906001600160481b03169055916020019190600101906200069d565b50620006d3929150620006d7565b5090565b5b80821115620006d3575f8155600101620006d8565b80516001600160a01b038116811462000704575f80fd5b919050565b5f805f606084860312156200071c575f80fd5b6200072784620006ed565b92506200073760208501620006ed565b91506200074760408501620006ed565b90509250925092565b634e487b7160e01b5f52604160045260245ffd5b600181811c908216806200077957607f821691505b6020821081036200079857634e487b7160e01b5f52602260045260245ffd5b50919050565b601f821115620007eb575f81815260208120601f850160051c81016020861015620007c65750805b601f850160051c820191505b81811015620007e757828155600101620007d2565b5050505b505050565b81516001600160401b038111156200080c576200080c62000750565b62000824816200081d845462000764565b846200079e565b602080601f8311600181146200085a575f8415620008425750858301515b5f19600386901b1c1916600185901b178555620007e7565b5f85815260208120601f198616915b828110156200088a5788860151825594840194600190910190840162000869565b5085821015620008a857878501515f19600388901b60f8161c191681555b5050505050600190811b01905550565b634e487b7160e01b5f52603260045260245ffd5b634e487b7160e01b5f52601160045260245ffd5b80820180821115620008f657620008f6620008cc565b92915050565b5f60018201620009105762000910620008cc565b5060010190565b61568a80620009255f395ff3fe608060405234801561000f575f80fd5b5060043610610213575f3560e01c8063826ac17d1161011f578063b37d5c1d116100a9578063ef6d0c8311610079578063ef6d0c8314610519578063f2fde38b1461052e578063f32bcb8814610541578063f46e5bec14610554578063fb6e9a4114610574575f80fd5b8063b37d5c1d146104ad578063b5f52ebf146104c0578063b6b55f25146104f3578063b6be72a614610506575f80fd5b8063927cc1ce116100ef578063927cc1ce1461040f578063a02c9a1e1461043f578063a58343da14610467578063aa7e7fa714610487578063b0db1a6c1461049a575f80fd5b8063826ac17d146103bc578063898212b2146103cf5780638da5cb5b146103e25780638e247962146103fc575f80fd5b80633b33ab38116101a05780635c622a0e116101705780635c622a0e146103325780636930fd2a1461037b578063715018a61461038e578063736d2a0214610396578063798d7067146103a9575f80fd5b80633b33ab38146102e6578063426b3b89146102f9578063462ceb011461030c5780634b7b66981461031f575f80fd5b80631a386fcb116101e65780631a386fcb146102785780631cb536ed1461028d578063216666e4146102a05780632e1a7d4d146102b35780633022b71a146102c6575f80fd5b8063015b5e6314610217578063052924f91461022c5780630ff1848d1461023f5780631748627014610252575b5f80fd5b61022a610225366004614c3e565b610587565b005b61022a61023a366004614c63565b6107c8565b61022a61024d366004614c91565b610cbc565b610265610260366004614c3e565b610e41565b6040519081526020015b60405180910390f35b610280610e8a565b60405161026f9190614cba565b61022a61029b366004614c3e565b610f97565b61022a6102ae366004614d58565b611236565b61022a6102c1366004614c3e565b61159a565b6102d96102d4366004614c3e565b61165c565b60405161026f9190614e39565b61022a6102f4366004614c3e565b61173a565b61022a610307366004614c91565b611972565b61026561031a366004614ea6565b611aa1565b61026561032d366004614ea6565b611afd565b610345610340366004614c3e565b611b1a565b60405161026f919081518152602080830151908201526040808301519082015260609182015160ff169181019190915260800190565b61022a610389366004614c3e565b611b8b565b61022a611de1565b61022a6103a4366004614ea6565b611df4565b61022a6103b7366004614c3e565b6121a7565b61022a6103ca366004614ee9565b6123cc565b61022a6103dd366004614ea6565b6127fd565b5f546040516001600160a01b03909116815260200161026f565b61022a61040a366004614ea6565b612acc565b61042261041d366004614ea6565b612e18565b60408051931515845260208401929092529082015260600161026f565b61026561044d366004614f9d565b6001600160a01b03165f9081526018602052604090205490565b61047a610475366004614c3e565b613154565b60405161026f9190614fbf565b610265610495366004614c3e565b6131b6565b61022a6104a8366004614c91565b613420565b61022a6104bb366004614c3e565b6136b0565b6104d36104ce366004614c3e565b6138d5565b60408051948552602085019390935291830152606082015260800161026f565b61022a610501366004614c3e565b613a31565b610280610514366004614fe6565b613a9e565b610521613b18565b60405161026f9190615089565b61022a61053c366004614f9d565b613b8b565b61022a61054f366004615143565b613bc8565b610567610562366004614c3e565b613da3565b60405161026f9190615172565b61022a610582366004614c3e565b613efc565b6005546040516331a9108f60e11b815260048101839052829133916001600160a01b0390911690636352211e90602401602060405180830381865afa1580156105d2573d5f803e3d5ffd5b505050506040513d601f19601f820116820180604052508101906105f6919061523b565b6001600160a01b03161461061d57604051636db2465f60e01b815260040160405180910390fd5b5f828152601560205260408120600201548190421015610770575f8481526015602052604090206002015461065390429061526a565b915060015f9054906101000a90046001600160a01b03166001600160a01b03166334f2830b6040518163ffffffff1660e01b8152600401602060405180830381865afa1580156106a5573d5f803e3d5ffd5b505050506040513d601f19601f820116820180604052508101906106c9919061527d565b6106d5610e10846152a8565b6106df91906152bb565b5f858152601560205260409020549091508111610757575f84815260156020526040902081906001015f828254610716919061526a565b909155506107279050603c4261526a565b5f858152601560205260409020600201558060126001015f82825461074c919061526a565b909155506107899050565b60405163af1b273d60e01b815260040160405180910390fd5b6040516336a683ad60e01b815260040160405180910390fd5b835f8051602061563583398151915260405180604001604052805f8152602001848152506040516107ba9190614cba565b60405180910390a250505050565b6005546040516331a9108f60e11b815260048101849052839133916001600160a01b0390911690636352211e90602401602060405180830381865afa158015610813573d5f803e3d5ffd5b505050506040513d601f19601f82011682018060405250810190610837919061523b565b6001600160a01b03161461085e57604051636db2465f60e01b815260040160405180910390fd5b828260ff165f60155f8481526020019081526020015f206003018054806020026020016040519081016040528092919081815260200182805480156108c057602002820191905f5260205f20905b8154815260200190600101908083116108ac575b505050505090505f805f90505b8251811015610936575f60165f8584815181106108ec576108ec6152d2565b60209081029190910181015182528101919091526040015f206003015460ff169050848103610923578261091f816152e6565b9350505b508061092e816152e6565b9150506108cd565b506001546040805163042ec6f160e11b815290516002926001600160a01b03169163085d8de29160048083019260209291908290030181865afa15801561097f573d5f803e3d5ffd5b505050506040513d601f19601f820116820180604052508101906109a3919061527d565b6109ad91906152a8565b6109b88260016152fe565b11156109d757604051630336d90d60e41b815260040160405180910390fd5b5f848152601560205260409020600601546109f39060026152fe565b6109fe8260016152fe565b1115610a1d5760405163428db80760e01b815260040160405180910390fd5b86610a2781610e41565b15610a455760405163012ee37d60e51b815260040160405180910390fd5b60145460ff881610610a6a576040516327b3518960e11b815260040160405180910390fd5b5f60148860ff1681548110610a8157610a816152d2565b905f5260205f2090600402016040518060800160405290815f82015481526020016001820154815260200160028201548152602001600382018054610ac590615311565b80601f0160208091040260200160405190810160405280929190818152602001828054610af190615311565b8015610b3c5780601f10610b1357610100808354040283529160200191610b3c565b820191905f5260205f20905b815481529060010190602001808311610b1f57829003601f168201915b5050505050815250509050610b6c896040518060400160405280845f0151815260200184602001518152506140f0565b8860175f60115481526020019081526020015f20819055506040518060800160405280600181526020014281526020018a81526020018960ff1681525060165f60115481526020019081526020015f205f820151815f015560208201518160010155604082015181600201556060820151816003015f6101000a81548160ff021916908360ff16021790555090505060155f8a81526020019081526020015f20600301601154908060018154018082558091505060019003905f5260205f20015f909190919091505560115f815480929190610c47906152e6565b90915550610c599050426154606152fe565b5f8a8152601560205260409020600201556011548990610c7b9060019061526a565b60405160ff8b1681527fcbecf69dc8611949e753d337378fb4ace6f6ad1e31b5fbf86b6379ea0279ca749060200160405180910390a3505050505050505050565b6005546040516331a9108f60e11b815260048101859052849133916001600160a01b0390911690636352211e90602401602060405180830381865afa158015610d07573d5f803e3d5ffd5b505050506040513d601f19601f82011682018060405250810190610d2b919061523b565b6001600160a01b031614610d5257604051636db2465f60e01b815260040160405180910390fd5b335f90815260186020526040902054821115610d8157604051631e9acf1760e31b815260040160405180910390fd5b6001831115610da3576040516327b3518960e11b815260040160405180910390fd5b5f610dac610e8a565b8460028110610dbd57610dbd6152d2565b6020020151610dd484670de0b6b3a76400006152bb565b610dde91906152a8565b335f90815260186020526040812080549293508592909190610e0190849061526a565b90915550505f85815260156020526040902081908560028110610e2657610e266152d2565b015f828254610e3591906152fe565b90915550505050505050565b5f81815260156020526040812060020154421015610e85575f82815260156020526040902060020154603c90610e7890429061526a565b610e8291906152a8565b90505b919050565b610e92614b1f565b60408051808201909152670de0b6b3a764000080825260208201526013546012545f91610ebe916152fe565b90505f5b6002811015610f8f57690a968163f0a57b400000821080610ef8575061271060128260028110610ef457610ef46152d2565b0154105b15610f2a576040518060400160405280670de0b6b3a76400008152602001670de0b6b3a7640000815250935050505090565b60128160028110610f3d57610f3d6152d2565b0154610f4a9060026152bb565b610f5c83670de0b6b3a76400006152bb565b610f6691906152a8565b838260028110610f7857610f786152d2565b602002015280610f87816152e6565b915050610ec2565b509092915050565b6005545f82815260176020526040908190205490516331a9108f60e11b81526004810191909152829133916001600160a01b0390911690636352211e90602401602060405180830381865afa158015610ff2573d5f803e3d5ffd5b505050506040513d601f19601f82011682018060405250810190611016919061523b565b6001600160a01b03161461103d57604051636db2465f60e01b815260040160405180910390fd5b5f61104783611b1a565b90505f6014826060015160ff1681548110611064576110646152d2565b905f5260205f2090600402016040518060800160405290815f820154815260200160018201548152602001600282015481526020016003820180546110a890615311565b80601f01602080910402602001604051908101604052809291908181526020018280546110d490615311565b801561111f5780601f106110f65761010080835404028352916020019161111f565b820191905f5260205f20905b81548152906001019060200180831161110257829003601f168201915b50505050508152505090505f611134856131b6565b905061113e614b1f565b8181856060015160ff1660028110611158576111586152d2565b6020020181815161116991906152fe565b9052505f86815260166020908152604080832060029081015484526015909252918290209185015184929181106111a2576111a26152d2565b015f8282546111b191906152fe565b92505081905550816012856060015160ff16600281106111d3576111d36152d2565b015f8282546111e291906152fe565b90915550505f86815260176020526040908190205490517fb52dd8210b1a40e6da8e0fea50d7ce4daa5aba949225ea1cb093dd5d3344453790611226908490614cba565b60405180910390a2505050505050565b6005546040516331a9108f60e11b815260048101849052839133916001600160a01b0390911690636352211e90602401602060405180830381865afa158015611281573d5f803e3d5ffd5b505050506040513d601f19601f820116820180604052508101906112a5919061523b565b6001600160a01b0316146112cc57604051636db2465f60e01b815260040160405180910390fd5b5f8080805b600681101561148d575f6112e68260016152fe565b90505f8783600681106112fb576112fb6152d2565b602002015111801561131c57505f8881526015602052604090206004015481115b1561133a57604051632d7a63d360e11b815260040160405180910390fd5b86826006811061134c5761134c6152d2565b602002015161135b90866152fe565b945086826006811061136f5761136f6152d2565b602002015161137c613b18565b838151811061138d5761138d6152d2565b6020026020010151608001516113a391906152bb565b6113ad90856152fe565b9350816005146113be5760016113c1565b60025b60ff168560015f9054906101000a90046001600160a01b03166001600160a01b031663d72411076040518163ffffffff1660e01b8152600401602060405180830381865afa158015611415573d5f803e3d5ffd5b505050506040513d601f19601f82011682018060405250810190611439919061527d565b61144391906152bb565b61144d91906152bb565b61145790846152fe565b925061147a8288846006811061146f5761146f6152d2565b60200201518a61424d565b5080611485816152e6565b9150506112d1565b505f611498876138d5565b935050505083816114a991906152fe565b5f888152601560205260409020600701546114c557600a611554565b60015f9054906101000a90046001600160a01b03166001600160a01b03166378658ab56040518163ffffffff1660e01b8152600401602060405180830381865afa158015611515573d5f803e3d5ffd5b505050506040513d601f19601f82011682018060405250810190611539919061527d565b5f8981526015602052604090206007015461155491906152bb565b101561157357604051630336d90d60e41b815260040160405180910390fd5b611591876040518060400160405280858152602001868152506140f0565b50505050505050565b335f908152601860205260409020548111156115c95760405163af1b273d60e01b815260040160405180910390fd5b335f90815260186020526040812080548392906115e790849061526a565b9091555050600654611623906001600160a01b031633606461160a600a8261526a565b61161490866152bb565b61161e91906152a8565b61427f565b60405181815233907f884edad9ce6fa2440d8a54cc123490eb96d2768479d49ff9c7366125a9424364906020015b60405180910390a250565b611664614b3d565b5f8281526015602052604090819020815161012081019092528160e081018260028282826020028201915b81548152602001906001019080831161168f5750505050508152602001600282015481526020016003820180548060200260200160405190810160405280929190818152602001828054801561170257602002820191905f5260205f20905b8154815260200190600101908083116116ee575b505050505081526020016004820154815260200160058201548152602001600682015481526020016007820154815250509050919050565b6005546040516331a9108f60e11b815260048101839052829133916001600160a01b0390911690636352211e90602401602060405180830381865afa158015611785573d5f803e3d5ffd5b505050506040513d601f19601f820116820180604052508101906117a9919061523b565b6001600160a01b0316146117d057604051636db2465f60e01b815260040160405180910390fd5b816117da81610e41565b156117f85760405163012ee37d60e51b815260040160405180910390fd5b5f83815260156020526040902060058101546118159060016152fe565b816006015410156118395760405163428db80760e01b815260040160405180910390fd5b604080518082019182905261187e9186916118799160099060029082845b8154815260200190600101908083116118575750505050508460050154613a9e565b6140f0565b600581015461188e9060016152fe565b60015f9054906101000a90046001600160a01b03166001600160a01b03166312b347a56040518163ffffffff1660e01b8152600401602060405180830381865afa1580156118de573d5f803e3d5ffd5b505050506040513d601f19601f82011682018060405250810190611902919061527d565b61190c91906152bb565b61191690426152fe565b6002820155600581018054905f61192c836152e6565b9190505550837ffed4122cd1f9640026f0227a22f4b6ae173a38c69ee29a2f09e51b9b7834aa9d8260050154600161196491906152fe565b6040519081526020016107ba565b5f83815260156020526040812082908460028110611992576119926152d2565b0154116119b25760405163af1b273d60e01b815260040160405180910390fd5b670de0b6b3a76400006119c3610e8a565b84600281106119d4576119d46152d2565b60200201516119e390846152bb565b6119ed91906152a8565b6119f790826152fe565b5f85815260156020526040902090915082908460028110611a1a57611a1a6152d2565b015f828254611a29919061526a565b9091555082905060128460028110611a4357611a436152d2565b015f828254611a52919061526a565b90915550506064611a6460058261526a565b611a6e90836152bb565b611a7891906152a8565b335f9081526018602052604081208054909190611a969084906152fe565b909155505050505050565b5f828152600460205260408120805482919084908110611ac357611ac36152d2565b905f5260205f2090600a020160040154905042811115611af657603c611ae9428361526a565b611af391906152a8565b91505b5092915050565b5f80611b0b8484600561437a565b9150611af39050603c826152a8565b611b4460405180608001604052805f81526020015f81526020015f81526020015f60ff1681525090565b505f9081526016602090815260409182902082516080810184528154815260018201549281019290925260028101549282019290925260039091015460ff16606082015290565b6005546040516331a9108f60e11b815260048101839052829133916001600160a01b0390911690636352211e90602401602060405180830381865afa158015611bd6573d5f803e3d5ffd5b505050506040513d601f19601f82011682018060405250810190611bfa919061523b565b6001600160a01b031614611c2157604051636db2465f60e01b815260040160405180910390fd5b5f82815260156020908152604080832060030180548251818502810185019093528083529192909190830182828015611c7757602002820191905f5260205f20905b815481526020019060010190808311611c63575b50505050509050611c86614b1f565b5f5b601454811015611db0575f611cb5848381518110611ca857611ca86152d2565b6020026020010151611b1a565b6060015160ff1690505f611ce1858481518110611cd457611cd46152d2565b60200260200101516131b6565b90508060155f60165f898881518110611cfc57611cfc6152d2565b602002602001015181526020019081526020015f206002015481526020019081526020015f205f018360028110611d3557611d356152d2565b015f828254611d4491906152fe565b9091555081905060128360028110611d5e57611d5e6152d2565b015f828254611d6d91906152fe565b90915550819050848360028110611d8657611d866152d2565b60200201818151611d9791906152fe565b905250829150611da89050816152e6565b915050611c88565b50837fb52dd8210b1a40e6da8e0fea50d7ce4daa5aba949225ea1cb093dd5d33444537826040516107ba9190614cba565b611de9614430565b611df25f61445c565b565b6005546040516331a9108f60e11b815260048101849052839133916001600160a01b0390911690636352211e90602401602060405180830381865afa158015611e3f573d5f803e3d5ffd5b505050506040513d601f19601f82011682018060405250810190611e63919061523b565b6001600160a01b031614611e8a57604051636db2465f60e01b815260040160405180910390fd5b5f838152600460205260408120805484908110611ea957611ea96152d2565b5f91825260209091206008600a909202019081015490915060ff161515600114611f125760405162461bcd60e51b8152602060048201526015602482015274105c9b5e481a185cc81b9bdd081c995d1d5c9b9959605a1b60448201526064015b60405180910390fd5b5f815f015f81548110611f2757611f276152d2565b905f5260205f2001541180611f5857505f815f01600181548110611f4d57611f4d6152d2565b905f5260205f200154115b611fa45760405162461bcd60e51b815260206004820152601e60248201527f446973706174636865642041726d7920646f6573206e6f7420657869737400006044820152606401611f09565b612002815f01805480602002602001604051908101604052809291908181526020018280548015611ff257602002820191905f5260205f20905b815481526020019060010190808311611fde575b50505050508260090154866144ab565b60068101545f85815260156020526040812080549091906120249084906152fe565b909155505060068101600101545f8581526015602052604090206001015f82825461204f91906152fe565b909155505f90505b81548110156120e3575f825f018281548110612075576120756152d2565b905f5260205f20015411156120d157815f018181548110612098576120986152d2565b5f9182526020808320909101548783526002825260408084208585529092529082208054919290916120cb9084906152fe565b90915550505b806120db816152e6565b915050612057565b505f84815260046020526040902080546120ff9060019061526a565b8154811061210f5761210f6152d2565b905f5260205f2090600a0201905060045f8581526020019081526020015f2080548061213d5761213d615343565b5f828152602081205f1990920191600a8302019061215b8282614b7b565b5f60018301819055600283018190556003830181905560048301819055600583018190556006830181905560078301555060088101805460ff191690555f600990910155905550505050565b6005546040516331a9108f60e11b815260048101839052829133916001600160a01b0390911690636352211e90602401602060405180830381865afa1580156121f2573d5f803e3d5ffd5b505050506040513d601f19601f82011682018060405250810190612216919061523b565b6001600160a01b03161461223d57604051636db2465f60e01b815260040160405180910390fd5b8161224781610e41565b156122655760405163012ee37d60e51b815260040160405180910390fd5b5f83815260156020526040902060048101546122829060016152fe565b816006015410156122a65760405163428db80760e01b815260040160405180910390fd5b60408051808201918290526122e69186916118799160079060029082845b8154815260200190600101908083116122c45750505050508460040154613a9e565b60048101546122f69060016152fe565b60015f9054906101000a90046001600160a01b03166001600160a01b03166312b347a56040518163ffffffff1660e01b8152600401602060405180830381865afa158015612346573d5f803e3d5ffd5b505050506040513d601f19601f8201168201806040525081019061236a919061527d565b61237491906152bb565b61237e90426152fe565b6002820155600481018054905f612394836152e6565b9190505550837f04ef68448efe10b7d8fafcde9fb44988ae65b7e3f9e50deeb5dd7a67fd4066338260040154600161196491906152fe565b6005546040516331a9108f60e11b815260048101849052839133916001600160a01b0390911690636352211e90602401602060405180830381865afa158015612417573d5f803e3d5ffd5b505050506040513d601f19601f8201168201806040525081019061243b919061523b565b6001600160a01b03161461246257604051636db2465f60e01b815260040160405180910390fd5b61246a613b18565b518451146124b35760405162461bcd60e51b8152602060048201526016602482015275098cadccee8d0e640c8decae640dcdee840dac2e8c6d60531b6044820152606401611f09565b5f6124c08484600561437a565b9150505f6124cd856138d5565b93505050506124f08560405180604001604052808481526020015f8152506140f0565b5f8080805b8951811015612655575f8a8281518110612511576125116152d2565b6020026020010151111561256d57898181518110612531576125316152d2565b602002602001015160025f8b81526020019081526020015f205f8381526020019081526020015f205f828254612567919061526a565b90915550505b89818151811061257f5761257f6152d2565b60200260200101518461259291906152fe565b93508981815181106125a6576125a66152d2565b60200260200101516125b6613b18565b82815181106125c7576125c76152d2565b60200260200101515f015160ff166125df91906152bb565b6125e990846152fe565b92508981815181106125fd576125fd6152d2565b602002602001015161260d613b18565b828151811061261e5761261e6152d2565b60200260200101516040015160ff1661263791906152bb565b61264190836152fe565b91508061264d816152e6565b9150506124f5565b50604080518082018083526001546378e41bb160e01b90915291516126e5928b929182916001600160a01b0316906378e41bb1906044808501916020918187030181865afa1580156126a9573d5f803e3d5ffd5b505050506040513d601f19601f820116820180604052508101906126cd919061527d565b6126d790886152bb565b81526020015f8152506140f0565b60045f8981526020019081526020015f206040518061012001604052808b8152602001858152602001848152602001838152602001874261272691906152fe565b815260208082018b90526040805180820182525f80825281840181905291840152606083018190526064608090930192909252835460018101855593825290819020825180519394600a02909101926127829284920190614b96565b506020820151816001015560408201518160020155606082015181600301556080820151816004015560a0820151816005015560c0820151816006019060026127cc929190614bdf565b5060e082015160088201805460ff191691151591909117905561010090910151600990910155505050505050505050565b6005546040516331a9108f60e11b815260048101849052839133916001600160a01b0390911690636352211e90602401602060405180830381865afa158015612848573d5f803e3d5ffd5b505050506040513d601f19601f8201168201806040525081019061286c919061523b565b6001600160a01b03161461289357604051636db2465f60e01b815260040160405180910390fd5b5f8381526004602052604081208054849081106128b2576128b26152d2565b5f9182526020909120600a90910201600881015490915060ff161561290d5760405162461bcd60e51b815260206004820152601160248201527041726d792069732072657475726e696e6760781b6044820152606401611f09565b42816004015411156129535760405162461bcd60e51b815260206004820152600f60248201526e139bdd08185c9c9a5d9959081e595d608a1b6044820152606401611f09565b5f805b825481101561299b57825f018181548110612973576129736152d2565b905f5260205f2001548261298791906152fe565b915080612993816152e6565b915050612956565b505f8160015f9054906101000a90046001600160a01b03166001600160a01b031663933ee37b6040518163ffffffff1660e01b8152600401602060405180830381865afa1580156129ee573d5f803e3d5ffd5b505050506040513d601f19601f82011682018060405250810190612a12919061527d565b612a1c91906152bb565b5f8781526015602052604090209091508190600101541015612a3c575f80fd5b5f86815260156020526040902081906001015f828254612a5c919061526a565b909155505060058301545f90815260156020526040902081906001015f828254612a8691906152fe565b909155505060088301805460ff191660011790556005808401545f91612aad91899161437a565b9150612abb905081426152fe565b846004018190555050505050505050565b6005545f83815260176020526040908190205490516331a9108f60e11b81526004810191909152839133916001600160a01b0390911690636352211e90602401602060405180830381865afa158015612b27573d5f803e3d5ffd5b505050506040513d601f19601f82011682018060405250810190612b4b919061523b565b6001600160a01b031614612b7257604051636db2465f60e01b815260040160405180910390fd5b81612b7c81610e41565b15612b9a5760405163012ee37d60e51b815260040160405180910390fd5b5f848152601760205260409020548314612bc7576040516327b3518960e11b815260040160405180910390fd5b612bd084610f97565b5f848152601660205260408120600381015490546014805460ff90931693919284908110612c0057612c006152d2565b905f5260205f2090600402016040518060800160405290815f82015481526020016001820154815260200160028201548152602001600382018054612c4490615311565b80601f0160208091040260200160405190810160405280929190818152602001828054612c7090615311565b8015612cbb5780601f10612c9257610100808354040283529160200191612cbb565b820191905f5260205f20905b815481529060010190602001808311612c9e57829003601f168201915b5050505050815250509050612d14866040518060400160405280856002612ce29190615437565b8560200151612cf191906152bb565b8152602001612d01866002615437565b8551612d0d91906152bb565b90526140f0565b612d1f8260016152fe565b5f88815260166020526040902055612d388260016152fe565b60015f9054906101000a90046001600160a01b03166001600160a01b03166312b347a56040518163ffffffff1660e01b8152600401602060405180830381865afa158015612d88573d5f803e3d5ffd5b505050506040513d601f19601f82011682018060405250810190612dac919061527d565b612db691906152bb565b612dc090426152fe565b5f87815260156020526040902060020155867feb0ebb51128928d7b1a6419c52128a9319bfcb55f0adafea75afbf75f9f2f3e9612dfe8460016152fe565b60405190815260200160405180910390a250505050505050565b6005546040516331a9108f60e11b8152600481018490525f9182918291869133916001600160a01b031690636352211e90602401602060405180830381865afa158015612e67573d5f803e3d5ffd5b505050506040513d601f19601f82011682018060405250810190612e8b919061523b565b6001600160a01b031614612eb257604051636db2465f60e01b815260040160405180910390fd5b5f868152600460205260408120805487908110612ed157612ed16152d2565b5f9182526020909120600a90910201600881015490915060ff1615612f2c5760405162461bcd60e51b815260206004820152601160248201527041726d792069732072657475726e696e6760781b6044820152606401611f09565b4281600401541115612f725760405162461bcd60e51b815260206004820152600f60248201526e139bdd08185c9c9a5d9959081e595d608a1b6044820152606401611f09565b5f80612f8183600501546138d5565b509250925050606460155f856005015481526020019081526020015f20600501546005612fae91906152bb565b612fb891906152a8565b612fc290836152bb565b612fcc90836152fe565b91505f805f612fe5866002015487600301548787614555565b925092509250612ff9818760050154614835565b60088601805460ff19166001179055600986018290556005808701545f91613022918f9161437a565b9150613030905081426152fe565b600488015583156130fe576001546040805163bf2a0a3f60e01b815290515f926001600160a01b03169163bf2a0a3f9160048083019260209291908290030181865afa158015613082573d5f803e3d5ffd5b505050506040513d601f19601f820116820180604052508101906130a6919061527d565b6064858a600101546130b891906152bb565b6130c291906152a8565b6130cc91906152bb565b90505f6130e9896005015485876130e3919061526a565b846148c7565b90506130fa60068a01826002614bdf565b5050505b83151587600501548e7f742e5a32c080cbbf9ee2def8b76b428088934a6e7332c8d79f91b333ecc3bbf98a6006016040516131399190615442565b60405180910390a45091985096509450505050509250925092565b61315c614c0c565b5f5b613166613b18565b518110156131b0575f838152600260209081526040808320848452909152902054828260068110613199576131996152d2565b6020020152806131a8816152e6565b91505061315e565b50919050565b5f806131c183611b1a565b90505f8160200151426131d4919061526a565b90505f826060015160ff165f1461325e5760015f9054906101000a90046001600160a01b03166001600160a01b0316634031917f6040518163ffffffff1660e01b8152600401602060405180830381865afa158015613235573d5f803e3d5ffd5b505050506040513d601f19601f82011682018060405250810190613259919061527d565b6132d2565b60015f9054906101000a90046001600160a01b03166001600160a01b031663399d7a986040518163ffffffff1660e01b8152600401602060405180830381865afa1580156132ae573d5f803e3d5ffd5b505050506040513d601f19601f820116820180604052508101906132d2919061527d565b90505f6001845f01516132e5919061526a565b6132f0906002615437565b826132fd612a30866152a8565b61330791906152bb565b61331191906152bb565b9050835f015160015f9054906101000a90046001600160a01b03166001600160a01b031663dd7b22e16040518163ffffffff1660e01b8152600401602060405180830381865afa158015613367573d5f803e3d5ffd5b505050506040513d601f19601f8201168201806040525081019061338b919061527d565b61339591906152bb565b8111156134175783516001546040805163dd7b22e160e01b815290516001600160a01b039092169163dd7b22e1916004808201926020929091908290030181865afa1580156133e6573d5f803e3d5ffd5b505050506040513d601f19601f8201168201806040525081019061340a919061527d565b61341491906152bb565b90505b95945050505050565b6005546040516331a9108f60e11b815260048101859052849133916001600160a01b0390911690636352211e90602401602060405180830381865afa15801561346b573d5f803e3d5ffd5b505050506040513d601f19601f8201168201806040525081019061348f919061523b565b6001600160a01b0316146134b657604051636db2465f60e01b815260040160405180910390fd5b5f848152601560205260409020829084600281106134d6576134d66152d2565b015410156134f75760405163af1b273d60e01b815260040160405180910390fd5b5f84815260156020526040902082908460028110613517576135176152d2565b015f828254613526919061526a565b909155505f90508315613539575f61353c565b60015b60ff1690505f61354a610e8a565b90505f81836002811061355f5761355f6152d2565b602002015161357690670de0b6b3a76400006152bb565b828760028110613588576135886152d2565b602002015161359790876152bb565b6135a191906152a8565b905060646135b060058261526a565b6135ba90836152bb565b6135c491906152a8565b5f88815260156020526040902084600281106135e2576135e26152d2565b015f8282546135f191906152fe565b909155508190506012876002811061360b5761360b6152d2565b015f82825461361a919061526a565b9091555081905060128460028110613634576136346152d2565b015f82825461364391906152fe565b909155506136519050614b1f565b606461365e6005846152bb565b61366891906152a8565b81856002811061367a5761367a6152d2565b602002015260405188905f805160206156358339815191529061369e908490614cba565b60405180910390a25050505050505050565b6005546040516331a9108f60e11b815260048101839052829133916001600160a01b0390911690636352211e90602401602060405180830381865afa1580156136fb573d5f803e3d5ffd5b505050506040513d601f19601f8201168201806040525081019061371f919061523b565b6001600160a01b03161461374657604051636db2465f60e01b815260040160405180910390fd5b8161375081610e41565b1561376e5760405163012ee37d60e51b815260040160405180910390fd5b5f838152601560205260409020600781015461378b9060016152fe565b816006015410156137af5760405163428db80760e01b815260040160405180910390fd5b60408051808201918290526137ef91869161187991600d9060029082845b8154815260200190600101908083116137cd5750505050508460070154613a9e565b60078101546137ff9060016152fe565b60015f9054906101000a90046001600160a01b03166001600160a01b03166312b347a56040518163ffffffff1660e01b8152600401602060405180830381865afa15801561384f573d5f803e3d5ffd5b505050506040513d601f19601f82011682018060405250810190613873919061527d565b61387d91906152bb565b61388790426152fe565b6002820155600781018054905f61389d836152e6565b9190505550837f5982da6cf94280613f2ba3066edb43e8c2f92c7053d39a1a7cbd3c778f2b9b418260070154600161196491906152fe565b5f805f805f5b6138e3613b18565b51811015613a29575f86815260026020908152604080832084845290915290205461390c613b18565b828151811061391d5761391d6152d2565b60200260200101515f015160ff1661393591906152bb565b61393f90866152fe565b5f878152600260209081526040808320858452909152902054909550613963613b18565b8281518110613974576139746152d2565b60200260200101516020015160ff1661398d91906152bb565b61399790856152fe565b5f8781526002602090815260408083208584529091529020549094506139bb613b18565b82815181106139cc576139cc6152d2565b60200260200101516040015160ff166139e591906152bb565b6139ef90846152fe565b5f878152600260209081526040808320858452909152902054909350613a1590836152fe565b915080613a21816152e6565b9150506138db565b509193509193565b600654613a49906001600160a01b03163330846149a7565b335f9081526018602052604081208054839290613a679084906152fe565b909155505060405181815233907fe1fffcc4923d04b559f4d29a8bfc6cda04eb5b0d3c460751c2402c5c5cc9109c90602001611651565b613aa6614b1f565b613aae614b1f565b5f5b6002811015613b0e57613ac4846002615437565b858260028110613ad657613ad66152d2565b6020020151613ae591906152bb565b828260028110613af757613af76152d2565b602002015280613b06816152e6565b915050613ab0565b5090505b92915050565b60015460408051636cc9544760e01b815290516060926001600160a01b031691636cc95447916004808301925f9291908290030181865afa158015613b5f573d5f803e3d5ffd5b505050506040513d5f823e601f3d908101601f19168201604052613b869190810190615469565b905090565b613b93614430565b6001600160a01b038116613bbc57604051631e4fbdf760e01b81525f6004820152602401611f09565b613bc58161445c565b50565b6005546040516331a9108f60e11b815260048101849052839133916001600160a01b0390911690636352211e90602401602060405180830381865afa158015613c13573d5f803e3d5ffd5b505050506040513d601f19601f82011682018060405250810190613c37919061523b565b6001600160a01b031614613c5e57604051636db2465f60e01b815260040160405180910390fd5b5f83815260156020526040902084908660028110613c7e57613c7e6152d2565b01541015613cc55760405162461bcd60e51b8152602060048201526014602482015273496e73756666696369656e742062616c616e636560601b6044820152606401611f09565b5f83815260156020526040902084908660028110613ce557613ce56152d2565b015f828254613cf4919061526a565b9091555060649050613d0760058261526a565b613d1190866152bb565b613d1b91906152a8565b5f8381526015602052604090208660028110613d3957613d396152d2565b015f828254613d4891906152fe565b90915550613d569050614b1f565b6064613d636005876152bb565b613d6d91906152a8565b818760028110613d7f57613d7f6152d2565b602002015260405183905f8051602061563583398151915290611226908490614cba565b606060045f8381526020019081526020015f20805480602002602001604051908101604052809291908181526020015f905b82821015613ef1578382905f5260205f2090600a0201604051806101200160405290815f8201805480602002602001604051908101604052809291908181526020018280548015613e4357602002820191905f5260205f20905b815481526020019060010190808311613e2f575b50505050508152602001600182015481526020016002820154815260200160038201548152602001600482015481526020016005820154815260200160068201600280602002604051908101604052809291908260028015613eba576020028201915b815481526020019060010190808311613ea6575b5050509183525050600882015460ff1615156020808301919091526009909201546040909101529082526001929092019101613dd5565b505050509050919050565b6005546040516331a9108f60e11b815260048101839052829133916001600160a01b0390911690636352211e90602401602060405180830381865afa158015613f47573d5f803e3d5ffd5b505050506040513d601f19601f82011682018060405250810190613f6b919061523b565b6001600160a01b031614613f9257604051636db2465f60e01b815260040160405180910390fd5b81613f9c81610e41565b15613fba5760405163012ee37d60e51b815260040160405180910390fd5b5f8381526015602052604090819020815180830192839052909161400a9186916118799190600b9060029082845b815481526020019060010190808311613fe85750505050508460060154613a9e565b600681015461401a9060016152fe565b60015f9054906101000a90046001600160a01b03166001600160a01b031663a2e6eb9d6040518163ffffffff1660e01b8152600401602060405180830381865afa15801561406a573d5f803e3d5ffd5b505050506040513d601f19601f8201168201806040525081019061408e919061527d565b61409891906152bb565b6140a290426152fe565b6002820155600681018054905f6140b8836152e6565b9190505550837fcc41656265acd445daf9de7af23ef21744525e878a546550a86a5ab78a4aef678260060154600161196491906152fe565b5f5b60028110156142235781816002811061410d5761410d6152d2565b602002015161411b8461165c565b51826002811061412d5761412d6152d2565b6020020151101561415157604051631e9acf1760e31b815260040160405180910390fd5b818160028110614163576141636152d2565b602002015160155f8581526020019081526020015f205f01826002811061418c5761418c6152d2565b015f82825461419b919061526a565b9091555082905081600281106141b3576141b36152d2565b6020020151601282600281106141cb576141cb6152d2565b015410614211578181600281106141e4576141e46152d2565b6020020151601282600281106141fc576141fc6152d2565b015f82825461420b919061526a565b90915550505b8061421b816152e6565b9150506140f2565b50815f80516020615635833981519152826040516142419190614cba565b60405180910390a25050565b5f818152600260209081526040808320868452909152812080548492906142759084906152fe565b9091555050505050565b604080516001600160a01b038481166024830152604480830185905283518084039091018152606490920183526020820180516001600160e01b031663a9059cbb60e01b17905291515f928392908716916142da91906155d9565b5f604051808303815f865af19150503d805f8114614313576040519150601f19603f3d011682016040523d82523d5f602084013e614318565b606091505b509150915081801561434257508051158061434257508080602001905181019061434291906155f4565b6143735760405162461bcd60e51b815260206004820152600260248201526114d560f21b6044820152606401611f09565b5050505050565b5f805f8061438787614aac565b915091505f8061439688614aac565b915091505f8483116143b1576143ac838661526a565b6143bb565b6143bb858461526a565b90505f8483116143d4576143cf838661526a565b6143de565b6143de858461526a565b90506144086143ee600283615613565b6143f9600285615613565b61440391906152fe565b614acd565b9750886144168960646152bb565b61442091906152a8565b9650505050505050935093915050565b5f546001600160a01b03163314611df25760405163118cdaa760e01b8152336004820152602401611f09565b5f80546001600160a01b038381166001600160a01b0319831681178455604051919092169283917f8be0079c531659141344cd1fd0a4f28419497f9722a3daafe3b4186f6b6457e09190a35050565b5f5b6144b5613b18565b5181101561454f575f8482815181106144d0576144d06152d2565b6020026020010151111561453d576064838583815181106144f3576144f36152d2565b602002602001015161450591906152bb565b61450f91906152a8565b5f838152600260209081526040808320858452909152812080549091906145379084906152fe565b90915550505b80614547816152e6565b9150506144ad565b50505050565b5f805f805f80898711801561456957508789115b15614625576145788a8861526a565b614582898b61526a565b11156145ea575060018861459760038a6152a8565b6145a1908b61526a565b6145ac9060646152bb565b6145b691906152a8565b9250866145c460028c6152a8565b6145ce908961526a565b6145d99060646152bb565b6145e391906152a8565b9150614827565b505f886145f860028a6152a8565b614602908b61526a565b61460d9060646152bb565b61461791906152a8565b9250866145c460038c6152a8565b8987101561472d57506001600261463d8860036152bb565b61464791906152a8565b8a1015614680578861465a60048a6152a8565b614664908b61526a565b61466f9060646152bb565b61467991906152a8565b9250601e91505b89600261468e8960036152bb565b61469891906152a8565b1080156146ae5750896146ac8860026152bb565b115b156146e557886146bf60058a6152a8565b6146c9908b61526a565b6146d49060646152bb565b6146de91906152a8565b9250600f91505b896146f18860026152bb565b1015614728578861470360068a6152a8565b61470d908b61526a565b6147189060646152bb565b61472291906152a8565b92505f91505b614827565b505f600261473c8a60036152bb565b61474691906152a8565b88101561477f57601e92508661475d60048c6152a8565b614767908961526a565b6147729060646152bb565b61477c91906152a8565b91505b8761478b8a60026152bb565b10156147c357600f9250866147a160058c6152a8565b6147ab908961526a565b6147b69060646152bb565b6147c091906152a8565b91505b8760026147d18b60036152bb565b6147db91906152a8565b1080156147f15750876147ef8a60026152bb565b115b15614827575f92508661480560068c6152a8565b61480f908961526a565b61481a9060646152bb565b61482491906152a8565b91505b999198509650945050505050565b5f5b61483f613b18565b518110156148c2575f828152600260209081526040808320848452909152902054156148b0575f82815260026020908152604080832084845290915290205460649061488c9085906152bb565b61489691906152a8565b5f8381526002602090815260408083208584529091529020555b806148ba816152e6565b915050614837565b505050565b6148cf614b1f565b5f5b600281101561499f575f858152601560205260408120606490869084600281106148fd576148fd6152d2565b015461490991906152bb565b61491391906152a8565b90506149206002856152a8565b811115614935576149326002856152a8565b90505b80838360028110614948576149486152d2565b6020020181815250508060155f8881526020019081526020015f205f018360028110614976576149766152d2565b015f828254614985919061526a565b909155508291506149979050816152e6565b9150506148d1565b509392505050565b604080516001600160a01b0385811660248301528481166044830152606480830185905283518084039091018152608490920183526020820180516001600160e01b03166323b872dd60e01b17905291515f92839290881691614a0a91906155d9565b5f604051808303815f865af19150503d805f8114614a43576040519150601f19603f3d011682016040523d82523d5f602084013e614a48565b606091505b5091509150818015614a72575080511580614a72575080806020019051810190614a7291906155f4565b614aa45760405162461bcd60e51b815260206004820152600360248201526229aa2360e91b6044820152606401611f09565b505050505050565b5f80614ab96064846152a8565b614ac4606485615621565b91509150915091565b5f806002614adc8460016152fe565b614ae691906152a8565b90508291505b818110156131b057905080600281614b0481866152a8565b614b0e91906152fe565b614b1891906152a8565b9050614aec565b60405180604001604052806002906020820280368337509192915050565b6040518060e00160405280614b50614b1f565b81526020015f8152602001606081526020015f81526020015f81526020015f81526020015f81525090565b5080545f8255905f5260205f2090810190613bc59190614c2a565b828054828255905f5260205f20908101928215614bcf579160200282015b82811115614bcf578251825591602001919060010190614bb4565b50614bdb929150614c2a565b5090565b8260028101928215614bcf5791602002820182811115614bcf578251825591602001919060010190614bb4565b6040518060c001604052806006906020820280368337509192915050565b5b80821115614bdb575f8155600101614c2b565b5f60208284031215614c4e575f80fd5b5035919050565b60ff81168114613bc5575f80fd5b5f8060408385031215614c74575f80fd5b823591506020830135614c8681614c55565b809150509250929050565b5f805f60608486031215614ca3575f80fd5b505081359360208301359350604090920135919050565b6040810181835f5b6002811015614ce1578151835260209283019290910190600101614cc2565b50505092915050565b634e487b7160e01b5f52604160045260245ffd5b60405160a0810167ffffffffffffffff81118282101715614d2157614d21614cea565b60405290565b604051601f8201601f1916810167ffffffffffffffff81118282101715614d5057614d50614cea565b604052919050565b5f8060e08385031215614d69575f80fd5b82359150602084603f850112614d7d575f80fd5b60405160c0810181811067ffffffffffffffff82111715614da057614da0614cea565b6040528060e0860187811115614db4575f80fd5b8387015b81811015614dcf5780358352918401918401614db8565b50505080925050509250929050565b805f5b600281101561454f578151845260209384019390910190600101614de1565b5f8151808452602080850194508084015f5b83811015614e2e57815187529582019590820190600101614e12565b509495945050505050565b60208152614e4b602082018351614dde565b602082015160608201525f6040830151610100806080850152614e72610120850183614e00565b9150606085015160a0850152608085015160c085015260a085015160e085015260c085015181850152508091505092915050565b5f8060408385031215614eb7575f80fd5b50508035926020909101359150565b5f67ffffffffffffffff821115614edf57614edf614cea565b5060051b60200190565b5f805f60608486031215614efb575f80fd5b833567ffffffffffffffff811115614f11575f80fd5b8401601f81018613614f21575f80fd5b80356020614f36614f3183614ec6565b614d27565b82815260059290921b83018101918181019089841115614f54575f80fd5b938201935b83851015614f7257843582529382019390820190614f59565b999188013598505060409096013595945050505050565b6001600160a01b0381168114613bc5575f80fd5b5f60208284031215614fad575f80fd5b8135614fb881614f89565b9392505050565b60c0810181835f5b6006811015614ce1578151835260209283019290910190600101614fc7565b5f8060608385031215614ff7575f80fd5b83601f840112615005575f80fd5b6040516040810181811067ffffffffffffffff8211171561502857615028614cea565b806040525080604085018681111561503e575f80fd5b855b81811015615058578035835260209283019201615040565b50919691359550909350505050565b5f5b83811015615081578181015183820152602001615069565b50505f910152565b5f6020808301818452808551808352604092508286019150828160051b8701018488015f5b8381101561513557888303603f190185528151805160ff90811685528882015181168986015287820151168785015260608082015160a0918601829052805191860182905260c0919061510682848901838e01615067565b506080928301519286019290925295880195601f91909101601f191690930190920191908601906001016150ae565b509098975050505050505050565b5f805f8060808587031215615156575f80fd5b5050823594602084013594506040840135936060013592509050565b5f6020808301818452808551808352604092508286019150828160051b8701018488015f5b8381101561513557603f19898403018552815161014081518186526151be82870182614e00565b838b0151878c0152898401518a880152606080850151908801526080808501519088015260a0808501519088015260c080850151919350915061520382880182614dde565b505060e082015161010061521a8188018315159052565b92909201516101209590950194909452509386019390860190600101615197565b5f6020828403121561524b575f80fd5b8151614fb881614f89565b634e487b7160e01b5f52601160045260245ffd5b81810381811115613b1257613b12615256565b5f6020828403121561528d575f80fd5b5051919050565b634e487b7160e01b5f52601260045260245ffd5b5f826152b6576152b6615294565b500490565b8082028115828204841417613b1257613b12615256565b634e487b7160e01b5f52603260045260245ffd5b5f600182016152f7576152f7615256565b5060010190565b80820180821115613b1257613b12615256565b600181811c9082168061532557607f821691505b6020821081036131b057634e487b7160e01b5f52602260045260245ffd5b634e487b7160e01b5f52603160045260245ffd5b600181815b8085111561539157815f190482111561537757615377615256565b8085161561538457918102915b93841c939080029061535c565b509250929050565b5f826153a757506001613b12565b816153b357505f613b12565b81600181146153c957600281146153d3576153ef565b6001915050613b12565b60ff8411156153e4576153e4615256565b50506001821b613b12565b5060208310610133831016604e8410600b8410161715615412575081810a613b12565b61541c8383615357565b805f190482111561542f5761542f615256565b029392505050565b5f614fb88383615399565b6040810181835f5b6002811015614ce157815483526020909201916001918201910161544a565b5f602080838503121561547a575f80fd5b825167ffffffffffffffff80821115615491575f80fd5b818501915085601f8301126154a4575f80fd5b81516154b2614f3182614ec6565b81815260059190911b830184019084810190888311156154d0575f80fd5b8585015b838110156155cc578051858111156154ea575f80fd5b8601601f1960a0828d0382011215615500575f80fd5b615508614cfe565b8983015161551581614c55565b815260408381015161552681614c55565b828c0152606084015161553881614c55565b8282015260808401518981111561554e575f8081fd5b8401603f81018f1361555f575f8081fd5b8b8101518a81111561557357615573614cea565b6155838d86601f84011601614d27565b94508085528f83828401011115615599575f8081fd5b6155a8818e8701858501615067565b505050606081019190915260a09190910151608082015283529186019186016154d4565b5098975050505050505050565b5f82516155ea818460208701615067565b9190910192915050565b5f60208284031215615604575f80fd5b81518015158114614fb8575f80fd5b5f614fb860ff841683615399565b5f8261562f5761562f615294565b50069056fe67d910d28fd4b2aeda12200f3aa784bd1aed68019163872ec289d5074da24b68a26469706673582212203064a5b487e3c74e5928587230a79728a8a1796ac8983bb3779d386e6b51b7b064736f6c63430008140033ce6d7b5282bd9a3661ae061feed1dbda4e52ab073b1f9285be6e155d9c38d4efce6d7b5282bd9a3661ae061feed1dbda4e52ab073b1f9285be6e155d9c38d4edce6d7b5282bd9a3661ae061feed1dbda4e52ab073b1f9285be6e155d9c38d4eece6d7b5282bd9a3661ae061feed1dbda4e52ab073b1f9285be6e155d9c38d4ec",
  "linkReferences": {},
  "deployedLinkReferences": {}
}