{
  "_format": "hh-sol-artifact-1",
  "contractName": "BarracksV1",
  "sourceName": "contracts/V1/BarracksV1.sol",
  "abi": [
    {
      "inputs": [],
      "stateMutability": "nonpayable",
      "type": "constructor"
    },
    {
      "anonymous": false,
      "inputs": [
        {
          "indexed": false,
          "internalType": "uint256",
          "name": "attackerLandId",
          "type": "uint256"
        },
        {
          "indexed": false,
          "internalType": "uint256",
          "name": "defenderLandId",
          "type": "uint256"
        },
        {
          "indexed": false,
          "internalType": "uint256[]",
          "name": "attackerArmy",
          "type": "uint256[]"
        },
        {
          "indexed": false,
          "internalType": "uint256[]",
          "name": "defenderArmy",
          "type": "uint256[]"
        },
        {
          "indexed": false,
          "internalType": "bool",
          "name": "success",
          "type": "bool"
        }
      ],
      "name": "Attack",
      "type": "event"
    },
    {
      "anonymous": false,
      "inputs": [
        {
          "indexed": true,
          "internalType": "address",
          "name": "previousOwner",
          "type": "address"
        },
        {
          "indexed": true,
          "internalType": "address",
          "name": "newOwner",
          "type": "address"
        }
      ],
      "name": "OwnershipTransferred",
      "type": "event"
    },
    {
      "inputs": [
        {
          "internalType": "uint256",
          "name": "warriorType",
          "type": "uint256"
        },
        {
          "internalType": "uint256",
          "name": "amount",
          "type": "uint256"
        },
        {
          "internalType": "uint256",
          "name": "landId",
          "type": "uint256"
        }
      ],
      "name": "addWarrior_",
      "outputs": [],
      "stateMutability": "nonpayable",
      "type": "function"
    },
    {
      "inputs": [
        {
          "internalType": "uint256[]",
          "name": "warriorsAmounts",
          "type": "uint256[]"
        },
        {
          "internalType": "uint256",
          "name": "attackerId",
          "type": "uint256"
        },
        {
          "internalType": "uint256",
          "name": "targetId",
          "type": "uint256"
        }
      ],
      "name": "attack_",
      "outputs": [
        {
          "internalType": "bool",
          "name": "",
          "type": "bool"
        },
        {
          "internalType": "uint256",
          "name": "",
          "type": "uint256"
        }
      ],
      "stateMutability": "nonpayable",
      "type": "function"
    },
    {
      "inputs": [
        {
          "internalType": "address",
          "name": "town",
          "type": "address"
        }
      ],
      "name": "authorize",
      "outputs": [],
      "stateMutability": "nonpayable",
      "type": "function"
    },
    {
      "inputs": [
        {
          "internalType": "uint256",
          "name": "landId",
          "type": "uint256"
        }
      ],
      "name": "getArmy",
      "outputs": [
        {
          "internalType": "uint256[]",
          "name": "",
          "type": "uint256[]"
        }
      ],
      "stateMutability": "view",
      "type": "function"
    },
    {
      "inputs": [],
      "name": "getWarriorTypes",
      "outputs": [
        {
          "components": [
            {
              "internalType": "uint8",
              "name": "attackPower",
              "type": "uint8"
            },
            {
              "internalType": "uint8",
              "name": "defPower",
              "type": "uint8"
            },
            {
              "internalType": "uint8",
              "name": "hp",
              "type": "uint8"
            },
            {
              "internalType": "uint8",
              "name": "requiredLevel",
              "type": "uint8"
            },
            {
              "internalType": "string",
              "name": "name",
              "type": "string"
            },
            {
              "internalType": "uint256",
              "name": "price",
              "type": "uint256"
            }
          ],
          "internalType": "struct BarracksV1.WarriorInfo[]",
          "name": "",
          "type": "tuple[]"
        }
      ],
      "stateMutability": "view",
      "type": "function"
    },
    {
      "inputs": [],
      "name": "owner",
      "outputs": [
        {
          "internalType": "address",
          "name": "",
          "type": "address"
        }
      ],
      "stateMutability": "view",
      "type": "function"
    },
    {
      "inputs": [],
      "name": "renounceOwnership",
      "outputs": [],
      "stateMutability": "nonpayable",
      "type": "function"
    },
    {
      "inputs": [
        {
          "internalType": "address",
          "name": "newOwner",
          "type": "address"
        }
      ],
      "name": "transferOwnership",
      "outputs": [],
      "stateMutability": "nonpayable",
      "type": "function"
    },
    {
      "inputs": [
        {
          "internalType": "uint8[3]",
          "name": "physicalInfo",
          "type": "uint8[3]"
        },
        {
          "internalType": "uint8",
          "name": "requiredLevel",
          "type": "uint8"
        },
        {
          "internalType": "string",
          "name": "name",
          "type": "string"
        },
        {
          "internalType": "uint256",
          "name": "price",
          "type": "uint256"
        },
        {
          "internalType": "uint256",
          "name": "typeIndex",
          "type": "uint256"
        }
      ],
      "name": "updateWarriorType_",
      "outputs": [],
      "stateMutability": "nonpayable",
      "type": "function"
    }
  ],
  "bytecode": "0x60806040523480156200001157600080fd5b5062000032620000266200041f60201b60201c565b6200042760201b60201c565b60026040518060c00160405280603c60ff168152602001605a60ff168152602001608c60ff168152602001600160ff1681526020016040518060400160405280600881526020017f53706561726d616e0000000000000000000000000000000000000000000000008152508152602001674563918244f40000815250908060018154018082558091505060019003906000526020600020906003020160009091909190915060008201518160000160006101000a81548160ff021916908360ff16021790555060208201518160000160016101000a81548160ff021916908360ff16021790555060408201518160000160026101000a81548160ff021916908360ff16021790555060608201518160000160036101000a81548160ff021916908360ff160217905550608082015181600101908162000172919062000765565b5060a08201518160020155505060026040518060c00160405280605a60ff168152602001604660ff16815260200160c860ff168152602001600260ff1681526020016040518060400160405280600981526020017f53776f7264736d616e00000000000000000000000000000000000000000000008152508152602001676f05b59d3b200000815250908060018154018082558091505060019003906000526020600020906003020160009091909190915060008201518160000160006101000a81548160ff021916908360ff16021790555060208201518160000160016101000a81548160ff021916908360ff16021790555060408201518160000160026101000a81548160ff021916908360ff16021790555060608201518160000160036101000a81548160ff021916908360ff1602179055506080820151816001019081620002bf919062000765565b5060a08201518160020155505060026040518060c00160405280602860ff168152602001603c60ff168152602001605060ff168152602001600360ff1681526020016040518060400160405280600681526020017f41726368657200000000000000000000000000000000000000000000000000008152508152602001678ac7230489e80000815250908060018154018082558091505060019003906000526020600020906003020160009091909190915060008201518160000160006101000a81548160ff021916908360ff16021790555060208201518160000160016101000a81548160ff021916908360ff16021790555060408201518160000160026101000a81548160ff021916908360ff16021790555060608201518160000160036101000a81548160ff021916908360ff16021790555060808201518160010190816200040c919062000765565b5060a0820151816002015550506200084c565b600033905090565b60008060009054906101000a900473ffffffffffffffffffffffffffffffffffffffff169050816000806101000a81548173ffffffffffffffffffffffffffffffffffffffff021916908373ffffffffffffffffffffffffffffffffffffffff1602179055508173ffffffffffffffffffffffffffffffffffffffff168173ffffffffffffffffffffffffffffffffffffffff167f8be0079c531659141344cd1fd0a4f28419497f9722a3daafe3b4186f6b6457e060405160405180910390a35050565b600081519050919050565b7f4e487b7100000000000000000000000000000000000000000000000000000000600052604160045260246000fd5b7f4e487b7100000000000000000000000000000000000000000000000000000000600052602260045260246000fd5b600060028204905060018216806200056d57607f821691505b60208210810362000583576200058262000525565b5b50919050565b60008190508160005260206000209050919050565b60006020601f8301049050919050565b600082821b905092915050565b600060088302620005ed7fffffffffffffffffffffffffffffffffffffffffffffffffffffffffffffffff82620005ae565b620005f98683620005ae565b95508019841693508086168417925050509392505050565b6000819050919050565b6000819050919050565b600062000646620006406200063a8462000611565b6200061b565b62000611565b9050919050565b6000819050919050565b620006628362000625565b6200067a62000671826200064d565b848454620005bb565b825550505050565b600090565b6200069162000682565b6200069e81848462000657565b505050565b5b81811015620006c657620006ba60008262000687565b600181019050620006a4565b5050565b601f8211156200071557620006df8162000589565b620006ea846200059e565b81016020851015620006fa578190505b6200071262000709856200059e565b830182620006a3565b50505b505050565b600082821c905092915050565b60006200073a600019846008026200071a565b1980831691505092915050565b600062000755838362000727565b9150826002028217905092915050565b6200077082620004eb565b67ffffffffffffffff8111156200078c576200078b620004f6565b5b62000798825462000554565b620007a5828285620006ca565b600060209050601f831160018114620007dd5760008415620007c8578287015190505b620007d4858262000747565b86555062000844565b601f198416620007ed8662000589565b60005b828110156200081757848901518255600182019150602085019450602081019050620007f0565b8683101562000837578489015162000833601f89168262000727565b8355505b6001600288020188555050505b505050505050565b612168806200085c6000396000f3fe608060405234801561001057600080fd5b50600436106100935760003560e01c80639b97530d116100665780639b97530d146100fa578063a58343da1461012b578063b6a5d7de1461015b578063cc0e27ca14610177578063f2fde38b1461019357610093565b8063715018a61461009857806374cf5d14146100a25780638da5cb5b146100be578063957d99e5146100dc575b600080fd5b6100a06101af565b005b6100bc60048036038101906100b7919061118f565b6101c3565b005b6100c6610293565b6040516100d39190611223565b60405180910390f35b6100e46102bc565b6040516100f19190611444565b60405180910390f35b610114600480360381019061010f91906115ae565b61042b565b604051610122929190611647565b60405180910390f35b61014560048036038101906101409190611670565b610843565b604051610152919061174c565b60405180910390f35b6101756004803603810190610170919061179a565b610908565b005b610191600480360381019061018c9190611959565b610954565b005b6101ad60048036038101906101a8919061179a565b610aad565b005b6101b7610b30565b6101c16000610bae565b565b600360009054906101000a900473ffffffffffffffffffffffffffffffffffffffff1673ffffffffffffffffffffffffffffffffffffffff163373ffffffffffffffffffffffffffffffffffffffff1614610253576040517f08c379a000000000000000000000000000000000000000000000000000000000815260040161024a90611a4d565b60405180910390fd5b8160016000838152602001908152602001600020600085815260200190815260200160002060008282546102879190611a9c565b92505081905550505050565b60008060009054906101000a900473ffffffffffffffffffffffffffffffffffffffff16905090565b60606002805480602002602001604051908101604052809291908181526020016000905b8282101561042257838290600052602060002090600302016040518060c00160405290816000820160009054906101000a900460ff1660ff1660ff1681526020016000820160019054906101000a900460ff1660ff1660ff1681526020016000820160029054906101000a900460ff1660ff1660ff1681526020016000820160039054906101000a900460ff1660ff1660ff16815260200160018201805461038790611aff565b80601f01602080910402602001604051908101604052809291908181526020018280546103b390611aff565b80156104005780601f106103d557610100808354040283529160200191610400565b820191906000526020600020905b8154815290600101906020018083116103e357829003601f168201915b50505050508152602001600282015481525050815260200190600101906102e0565b50505050905090565b600080600360009054906101000a900473ffffffffffffffffffffffffffffffffffffffff1673ffffffffffffffffffffffffffffffffffffffff163373ffffffffffffffffffffffffffffffffffffffff16146104be576040517f08c379a00000000000000000000000000000000000000000000000000000000081526004016104b590611a4d565b60405180910390fd5b600280549050855114610506576040517f08c379a00000000000000000000000000000000000000000000000000000000081526004016104fd90611b7c565b60405180910390fd5b600080600080600061051788610843565b905060005b8a518110156107ae578a818151811061053857610537611b9c565b5b6020026020010151600160008c815260200190815260200160002060008381526020019081526020016000205410156105a6576040517f08c379a000000000000000000000000000000000000000000000000000000000815260040161059d90611c17565b60405180910390fd5b8a81815181106105b9576105b8611b9c565b5b6020026020010151600160008c8152602001908152602001600020600083815260200190815260200160002060008282546105f49190611c37565b925050819055508a818151811061060e5761060d611b9c565b5b60200260200101516002828154811061062a57610629611b9c565b5b906000526020600020906003020160000160009054906101000a900460ff1660ff166106569190611c6b565b866106619190611a9c565b95508a818151811061067657610675611b9c565b5b60200260200101516002828154811061069257610691611b9c565b5b906000526020600020906003020160000160029054906101000a900460ff1660ff166106be9190611c6b565b856106c99190611a9c565b94508181815181106106de576106dd611b9c565b5b6020026020010151600282815481106106fa576106f9611b9c565b5b906000526020600020906003020160000160019054906101000a900460ff1660ff166107269190611c6b565b846107319190611a9c565b935081818151811061074657610745611b9c565b5b60200260200101516002828154811061076257610761611b9c565b5b906000526020600020906003020160000160029054906101000a900460ff1660ff1661078e9190611c6b565b836107999190611a9c565b925080806107a690611cad565b91505061051c565b5060008060006107c088888888610c72565b9250925092506107d0818c610fca565b6107db8d838e611084565b7f56826b4c5de84b889a6c11fb50ed0b7da184f108b6a3236d17e83b3751cebae48c8c8f6108088f610843565b8760405161081a959493929190611cf5565b60405180910390a182818361082f9190611c37565b995099505050505050505050935093915050565b6060600060028054905067ffffffffffffffff8111156108665761086561146b565b5b6040519080825280602002602001820160405280156108945781602001602082028036833780820191505090505b50905060005b6002805490508110156108fe57600160008581526020019081526020016000206000828152602001908152602001600020548282815181106108df576108de611b9c565b5b60200260200101818152505080806108f690611cad565b91505061089a565b5080915050919050565b610910610b30565b80600360006101000a81548173ffffffffffffffffffffffffffffffffffffffff021916908373ffffffffffffffffffffffffffffffffffffffff16021790555050565b61095c610b30565b6040518060c001604052808660006003811061097b5761097a611b9c565b5b602002015160ff1681526020018660016003811061099c5761099b611b9c565b5b602002015160ff168152602001866002600381106109bd576109bc611b9c565b5b602002015160ff1681526020018560ff16815260200184815260200183815250600282815481106109f1576109f0611b9c565b5b906000526020600020906003020160008201518160000160006101000a81548160ff021916908360ff16021790555060208201518160000160016101000a81548160ff021916908360ff16021790555060408201518160000160026101000a81548160ff021916908360ff16021790555060608201518160000160036101000a81548160ff021916908360ff1602179055506080820151816001019081610a989190611f02565b5060a082015181600201559050505050505050565b610ab5610b30565b600073ffffffffffffffffffffffffffffffffffffffff168173ffffffffffffffffffffffffffffffffffffffff1603610b24576040517f08c379a0000000000000000000000000000000000000000000000000000000008152600401610b1b90612046565b60405180910390fd5b610b2d81610bae565b50565b610b3861113d565b73ffffffffffffffffffffffffffffffffffffffff16610b56610293565b73ffffffffffffffffffffffffffffffffffffffff1614610bac576040517f08c379a0000000000000000000000000000000000000000000000000000000008152600401610ba3906120b2565b60405180910390fd5b565b60008060009054906101000a900473ffffffffffffffffffffffffffffffffffffffff169050816000806101000a81548173ffffffffffffffffffffffffffffffffffffffff021916908373ffffffffffffffffffffffffffffffffffffffff1602179055508173ffffffffffffffffffffffffffffffffffffffff168173ffffffffffffffffffffffffffffffffffffffff167f8be0079c531659141344cd1fd0a4f28419497f9722a3daafe3b4186f6b6457e060405160405180910390a35050565b6000806000806000808987118015610c8957508789115b15610d83578987610c9a9190611c37565b888a610ca69190611c37565b1115610d17576001905088606460038a610cc09190612101565b8b610ccb9190611c37565b610cd59190611c6b565b610cdf9190612101565b925086606460028c610cf19190612101565b89610cfc9190611c37565b610d069190611c6b565b610d109190612101565b9150610d7e565b6000905088606460028a610d2b9190612101565b8b610d369190611c37565b610d409190611c6b565b610d4a9190612101565b925086606460038c610d5c9190612101565b89610d679190611c37565b610d719190611c6b565b610d7b9190612101565b91505b610fb4565b89871015610ea157600190506002600388610d9e9190611c6b565b610da89190612101565b8a1015610de55788606460048a610dbf9190612101565b8b610dca9190611c37565b610dd49190611c6b565b610dde9190612101565b9250601e91505b896002600389610df59190611c6b565b610dff9190612101565b108015610e17575089600288610e159190611c6b565b115b15610e525788606460058a610e2c9190612101565b8b610e379190611c37565b610e419190611c6b565b610e4b9190612101565b9250600f91505b89600288610e609190611c6b565b1015610e9c5788606460068a610e769190612101565b8b610e819190611c37565b610e8b9190611c6b565b610e959190612101565b9250600091505b610fb3565b60009050600260038a610eb49190611c6b565b610ebe9190612101565b881015610efb57601e925086606460048c610ed99190612101565b89610ee49190611c37565b610eee9190611c6b565b610ef89190612101565b91505b8760028a610f099190611c6b565b1015610f4557600f925086606460058c610f239190612101565b89610f2e9190611c37565b610f389190611c6b565b610f429190612101565b91505b87600260038b610f559190611c6b565b610f5f9190612101565b108015610f7757508760028a610f759190611c6b565b115b15610fb2576000925086606460068c610f909190612101565b89610f9b9190611c37565b610fa59190611c6b565b610faf9190612101565b91505b5b5b8083839550955095505050509450945094915050565b60005b60028054905081101561107f57600060016000848152602001908152602001600020600083815260200190815260200160002054111561106c57606483600160008581526020019081526020016000206000848152602001908152602001600020546110399190611c6b565b6110439190612101565b600160008481526020019081526020016000206000838152602001908152602001600020819055505b808061107790611cad565b915050610fcd565b505050565b60005b6002805490508110156111375760008482815181106110a9576110a8611b9c565b5b60200260200101511115611124576064838583815181106110cd576110cc611b9c565b5b60200260200101516110df9190611c6b565b6110e99190612101565b600160008481526020019081526020016000206000838152602001908152602001600020600082825461111c9190611a9c565b925050819055505b808061112f90611cad565b915050611087565b50505050565b600033905090565b6000604051905090565b600080fd5b600080fd5b6000819050919050565b61116c81611159565b811461117757600080fd5b50565b60008135905061118981611163565b92915050565b6000806000606084860312156111a8576111a761114f565b5b60006111b68682870161117a565b93505060206111c78682870161117a565b92505060406111d88682870161117a565b9150509250925092565b600073ffffffffffffffffffffffffffffffffffffffff82169050919050565b600061120d826111e2565b9050919050565b61121d81611202565b82525050565b60006020820190506112386000830184611214565b92915050565b600081519050919050565b600082825260208201905092915050565b6000819050602082019050919050565b600060ff82169050919050565b6112808161126a565b82525050565b600081519050919050565b600082825260208201905092915050565b60005b838110156112c05780820151818401526020810190506112a5565b60008484015250505050565b6000601f19601f8301169050919050565b60006112e882611286565b6112f28185611291565b93506113028185602086016112a2565b61130b816112cc565b840191505092915050565b61131f81611159565b82525050565b600060c08301600083015161133d6000860182611277565b5060208301516113506020860182611277565b5060408301516113636040860182611277565b5060608301516113766060860182611277565b506080830151848203608086015261138e82826112dd565b91505060a08301516113a360a0860182611316565b508091505092915050565b60006113ba8383611325565b905092915050565b6000602082019050919050565b60006113da8261123e565b6113e48185611249565b9350836020820285016113f68561125a565b8060005b85811015611432578484038952815161141385826113ae565b945061141e836113c2565b925060208a019950506001810190506113fa565b50829750879550505050505092915050565b6000602082019050818103600083015261145e81846113cf565b905092915050565b600080fd5b7f4e487b7100000000000000000000000000000000000000000000000000000000600052604160045260246000fd5b6114a3826112cc565b810181811067ffffffffffffffff821117156114c2576114c161146b565b5b80604052505050565b60006114d5611145565b90506114e1828261149a565b919050565b600067ffffffffffffffff8211156115015761150061146b565b5b602082029050602081019050919050565b600080fd5b600061152a611525846114e6565b6114cb565b9050808382526020820190506020840283018581111561154d5761154c611512565b5b835b818110156115765780611562888261117a565b84526020840193505060208101905061154f565b5050509392505050565b600082601f83011261159557611594611466565b5b81356115a5848260208601611517565b91505092915050565b6000806000606084860312156115c7576115c661114f565b5b600084013567ffffffffffffffff8111156115e5576115e4611154565b5b6115f186828701611580565b93505060206116028682870161117a565b92505060406116138682870161117a565b9150509250925092565b60008115159050919050565b6116328161161d565b82525050565b61164181611159565b82525050565b600060408201905061165c6000830185611629565b6116696020830184611638565b9392505050565b6000602082840312156116865761168561114f565b5b60006116948482850161117a565b91505092915050565b600081519050919050565b600082825260208201905092915050565b6000819050602082019050919050565b60006116d58383611316565b60208301905092915050565b6000602082019050919050565b60006116f98261169d565b61170381856116a8565b935061170e836116b9565b8060005b8381101561173f57815161172688826116c9565b9750611731836116e1565b925050600181019050611712565b5085935050505092915050565b6000602082019050818103600083015261176681846116ee565b905092915050565b61177781611202565b811461178257600080fd5b50565b6000813590506117948161176e565b92915050565b6000602082840312156117b0576117af61114f565b5b60006117be84828501611785565b91505092915050565b600067ffffffffffffffff8211156117e2576117e161146b565b5b602082029050919050565b6117f68161126a565b811461180157600080fd5b50565b600081359050611813816117ed565b92915050565b600061182c611827846117c7565b6114cb565b9050806020840283018581111561184657611845611512565b5b835b8181101561186f578061185b8882611804565b845260208401935050602081019050611848565b5050509392505050565b600082601f83011261188e5761188d611466565b5b600361189b848285611819565b91505092915050565b600080fd5b600067ffffffffffffffff8211156118c4576118c361146b565b5b6118cd826112cc565b9050602081019050919050565b82818337600083830152505050565b60006118fc6118f7846118a9565b6114cb565b905082815260208101848484011115611918576119176118a4565b5b6119238482856118da565b509392505050565b600082601f8301126119405761193f611466565b5b81356119508482602086016118e9565b91505092915050565b600080600080600060e086880312156119755761197461114f565b5b600061198388828901611879565b955050606061199488828901611804565b945050608086013567ffffffffffffffff8111156119b5576119b4611154565b5b6119c18882890161192b565b93505060a06119d28882890161117a565b92505060c06119e38882890161117a565b9150509295509295909350565b600082825260208201905092915050565b7f43616c6c65722073686f756c6420626520746f776e20636f6e74726163740000600082015250565b6000611a37601e836119f0565b9150611a4282611a01565b602082019050919050565b60006020820190508181036000830152611a6681611a2a565b9050919050565b7f4e487b7100000000000000000000000000000000000000000000000000000000600052601160045260246000fd5b6000611aa782611159565b9150611ab283611159565b9250828201905080821115611aca57611ac9611a6d565b5b92915050565b7f4e487b7100000000000000000000000000000000000000000000000000000000600052602260045260246000fd5b60006002820490506001821680611b1757607f821691505b602082108103611b2a57611b29611ad0565b5b50919050565b7f4c656e6774687320646f6573206e6f74206d6174636800000000000000000000600082015250565b6000611b666016836119f0565b9150611b7182611b30565b602082019050919050565b60006020820190508181036000830152611b9581611b59565b9050919050565b7f4e487b7100000000000000000000000000000000000000000000000000000000600052603260045260246000fd5b7f496e73756666696369656e742061726d79000000000000000000000000000000600082015250565b6000611c016011836119f0565b9150611c0c82611bcb565b602082019050919050565b60006020820190508181036000830152611c3081611bf4565b9050919050565b6000611c4282611159565b9150611c4d83611159565b9250828203905081811115611c6557611c64611a6d565b5b92915050565b6000611c7682611159565b9150611c8183611159565b9250828202611c8f81611159565b91508282048414831517611ca657611ca5611a6d565b5b5092915050565b6000611cb882611159565b91507fffffffffffffffffffffffffffffffffffffffffffffffffffffffffffffffff8203611cea57611ce9611a6d565b5b600182019050919050565b600060a082019050611d0a6000830188611638565b611d176020830187611638565b8181036040830152611d2981866116ee565b90508181036060830152611d3d81856116ee565b9050611d4c6080830184611629565b9695505050505050565b60008190508160005260206000209050919050565b60006020601f8301049050919050565b600082821b905092915050565b600060088302611db87fffffffffffffffffffffffffffffffffffffffffffffffffffffffffffffffff82611d7b565b611dc28683611d7b565b95508019841693508086168417925050509392505050565b6000819050919050565b6000611dff611dfa611df584611159565b611dda565b611159565b9050919050565b6000819050919050565b611e1983611de4565b611e2d611e2582611e06565b848454611d88565b825550505050565b600090565b611e42611e35565b611e4d818484611e10565b505050565b5b81811015611e7157611e66600082611e3a565b600181019050611e53565b5050565b601f821115611eb657611e8781611d56565b611e9084611d6b565b81016020851015611e9f578190505b611eb3611eab85611d6b565b830182611e52565b50505b505050565b600082821c905092915050565b6000611ed960001984600802611ebb565b1980831691505092915050565b6000611ef28383611ec8565b9150826002028217905092915050565b611f0b82611286565b67ffffffffffffffff811115611f2457611f2361146b565b5b611f2e8254611aff565b611f39828285611e75565b600060209050601f831160018114611f6c5760008415611f5a578287015190505b611f648582611ee6565b865550611fcc565b601f198416611f7a86611d56565b60005b82811015611fa257848901518255600182019150602085019450602081019050611f7d565b86831015611fbf5784890151611fbb601f891682611ec8565b8355505b6001600288020188555050505b505050505050565b7f4f776e61626c653a206e6577206f776e657220697320746865207a65726f206160008201527f6464726573730000000000000000000000000000000000000000000000000000602082015250565b60006120306026836119f0565b915061203b82611fd4565b604082019050919050565b6000602082019050818103600083015261205f81612023565b9050919050565b7f4f776e61626c653a2063616c6c6572206973206e6f7420746865206f776e6572600082015250565b600061209c6020836119f0565b91506120a782612066565b602082019050919050565b600060208201905081810360008301526120cb8161208f565b9050919050565b7f4e487b7100000000000000000000000000000000000000000000000000000000600052601260045260246000fd5b600061210c82611159565b915061211783611159565b925082612127576121266120d2565b5b82820490509291505056fea264697066735822122091632ecadba9067cf0a9a7129130f2c1c2fdf0cc1b661c43d195fcf9b3ecda1064736f6c63430008130033",
  "linkReferences": {},
  "deployedLinkReferences": {}
}