{
  "_format": "hh-sol-artifact-1",
  "contractName": "Army",
  "sourceName": "contracts/Army.sol",
  "abi": [
    {
      "inputs": [
        {
          "internalType": "address",
          "name": "landsContractAddress",
          "type": "address"
        }
      ],
      "stateMutability": "nonpayable",
      "type": "constructor"
    },
    {
      "anonymous": false,
      "inputs": [
        {
          "indexed": true,
          "internalType": "address",
          "name": "previousOwner",
          "type": "address"
        },
        {
          "indexed": true,
          "internalType": "address",
          "name": "newOwner",
          "type": "address"
        }
      ],
      "name": "OwnershipTransferred",
      "type": "event"
    },
    {
      "inputs": [
        {
          "internalType": "uint256[]",
          "name": "warriorsAmounts",
          "type": "uint256[]"
        },
        {
          "internalType": "uint256",
          "name": "attackerId",
          "type": "uint256"
        },
        {
          "internalType": "uint256",
          "name": "targetId",
          "type": "uint256"
        }
      ],
      "name": "attack",
      "outputs": [
        {
          "internalType": "bool",
          "name": "",
          "type": "bool"
        }
      ],
      "stateMutability": "nonpayable",
      "type": "function"
    },
    {
      "inputs": [
        {
          "internalType": "uint256",
          "name": "landId",
          "type": "uint256"
        }
      ],
      "name": "buildBarracks",
      "outputs": [],
      "stateMutability": "nonpayable",
      "type": "function"
    },
    {
      "inputs": [
        {
          "internalType": "uint256",
          "name": "landId",
          "type": "uint256"
        }
      ],
      "name": "getArmy",
      "outputs": [
        {
          "internalType": "uint256[]",
          "name": "",
          "type": "uint256[]"
        },
        {
          "internalType": "uint256",
          "name": "",
          "type": "uint256"
        }
      ],
      "stateMutability": "view",
      "type": "function"
    },
    {
      "inputs": [
        {
          "internalType": "uint256",
          "name": "landTokenId",
          "type": "uint256"
        }
      ],
      "name": "getLevel",
      "outputs": [
        {
          "internalType": "uint256",
          "name": "",
          "type": "uint256"
        }
      ],
      "stateMutability": "view",
      "type": "function"
    },
    {
      "inputs": [],
      "name": "getRequiredCommodities",
      "outputs": [
        {
          "internalType": "uint256[5]",
          "name": "",
          "type": "uint256[5]"
        }
      ],
      "stateMutability": "view",
      "type": "function"
    },
    {
      "inputs": [],
      "name": "getTypes",
      "outputs": [
        {
          "components": [
            {
              "internalType": "uint8",
              "name": "attackPower",
              "type": "uint8"
            },
            {
              "internalType": "uint8",
              "name": "defPower",
              "type": "uint8"
            },
            {
              "internalType": "uint8",
              "name": "hp",
              "type": "uint8"
            },
            {
              "internalType": "uint8",
              "name": "requiredLevel",
              "type": "uint8"
            },
            {
              "internalType": "string",
              "name": "imageURL",
              "type": "string"
            },
            {
              "internalType": "string",
              "name": "name",
              "type": "string"
            },
            {
              "internalType": "uint256",
              "name": "price",
              "type": "uint256"
            }
          ],
          "internalType": "struct Army.Info[]",
          "name": "",
          "type": "tuple[]"
        }
      ],
      "stateMutability": "view",
      "type": "function"
    },
    {
      "inputs": [],
      "name": "owner",
      "outputs": [
        {
          "internalType": "address",
          "name": "",
          "type": "address"
        }
      ],
      "stateMutability": "view",
      "type": "function"
    },
    {
      "inputs": [
        {
          "internalType": "uint256",
          "name": "landId",
          "type": "uint256"
        },
        {
          "internalType": "uint256",
          "name": "typeIndex",
          "type": "uint256"
        },
        {
          "internalType": "uint256",
          "name": "amount",
          "type": "uint256"
        }
      ],
      "name": "recruit",
      "outputs": [],
      "stateMutability": "nonpayable",
      "type": "function"
    },
    {
      "inputs": [],
      "name": "renounceOwnership",
      "outputs": [],
      "stateMutability": "nonpayable",
      "type": "function"
    },
    {
      "inputs": [
        {
          "internalType": "address",
          "name": "newOwner",
          "type": "address"
        }
      ],
      "name": "transferOwnership",
      "outputs": [],
      "stateMutability": "nonpayable",
      "type": "function"
    },
    {
      "inputs": [
        {
          "internalType": "uint8[3]",
          "name": "physicalInfo",
          "type": "uint8[3]"
        },
        {
          "internalType": "uint8",
          "name": "requiredLevel",
          "type": "uint8"
        },
        {
          "internalType": "string",
          "name": "imageURL",
          "type": "string"
        },
        {
          "internalType": "string",
          "name": "name",
          "type": "string"
        },
        {
          "internalType": "uint256",
          "name": "price",
          "type": "uint256"
        },
        {
          "internalType": "uint256",
          "name": "typeIndex",
          "type": "uint256"
        }
      ],
      "name": "updateType",
      "outputs": [],
      "stateMutability": "nonpayable",
      "type": "function"
    }
  ],
  "bytecode": "0x60806040526040518060a001604052806802b5e3af16b188000068ffffffffffffffffff1681526020016802b5e3af16b188000068ffffffffffffffffff1681526020016802b5e3af16b188000068ffffffffffffffffff16815260200168056bc75e2d6310000068ffffffffffffffffff1681526020016802b5e3af16b188000068ffffffffffffffffff168152506002906005620000a192919062000695565b50348015620000af57600080fd5b5060405162003cf438038062003cf48339818101604052810190620000d5919062000770565b620000f5620000e9620005c960201b60201c565b620005d160201b60201c565b60096040518060e00160405280603c60ff168152602001605a60ff168152602001608c60ff168152602001600160ff16815260200160405180608001604052806043815260200162003cb16043913981526020016040518060400160405280600981526020017f5370656172206d616e00000000000000000000000000000000000000000000008152508152602001674563918244f40000815250908060018154018082558091505060019003906000526020600020906004020160009091909190915060008201518160000160006101000a81548160ff021916908360ff16021790555060208201518160000160016101000a81548160ff021916908360ff16021790555060408201518160000160026101000a81548160ff021916908360ff16021790555060608201518160000160036101000a81548160ff021916908360ff160217905550608082015181600101908162000254919062000a1c565b5060a08201518160020190816200026c919062000a1c565b5060c08201518160030155505060096040518060e00160405280605a60ff168152602001604660ff16815260200160c860ff168152602001600260ff16815260200160405180608001604052806043815260200162003c2b6043913981526020016040518060400160405280600981526020017f53776f7264736d616e00000000000000000000000000000000000000000000008152508152602001676f05b59d3b200000815250908060018154018082558091505060019003906000526020600020906004020160009091909190915060008201518160000160006101000a81548160ff021916908360ff16021790555060208201518160000160016101000a81548160ff021916908360ff16021790555060408201518160000160026101000a81548160ff021916908360ff16021790555060608201518160000160036101000a81548160ff021916908360ff1602179055506080820151816001019081620003d8919062000a1c565b5060a0820151816002019081620003f0919062000a1c565b5060c08201518160030155505060096040518060e00160405280602860ff168152602001603c60ff168152602001605060ff168152602001600360ff16815260200160405180608001604052806043815260200162003c6e6043913981526020016040518060400160405280600681526020017f41726368657200000000000000000000000000000000000000000000000000008152508152602001678ac7230489e80000815250908060018154018082558091505060019003906000526020600020906004020160009091909190915060008201518160000160006101000a81548160ff021916908360ff16021790555060208201518160000160016101000a81548160ff021916908360ff16021790555060408201518160000160026101000a81548160ff021916908360ff16021790555060608201518160000160036101000a81548160ff021916908360ff16021790555060808201518160010190816200055c919062000a1c565b5060a082015181600201908162000574919062000a1c565b5060c08201518160030155505080600160006101000a81548173ffffffffffffffffffffffffffffffffffffffff021916908373ffffffffffffffffffffffffffffffffffffffff1602179055505062000b03565b600033905090565b60008060009054906101000a900473ffffffffffffffffffffffffffffffffffffffff169050816000806101000a81548173ffffffffffffffffffffffffffffffffffffffff021916908373ffffffffffffffffffffffffffffffffffffffff1602179055508173ffffffffffffffffffffffffffffffffffffffff168173ffffffffffffffffffffffffffffffffffffffff167f8be0079c531659141344cd1fd0a4f28419497f9722a3daafe3b4186f6b6457e060405160405180910390a35050565b8260058101928215620006d4579160200282015b82811115620006d3578251829068ffffffffffffffffff16905591602001919060010190620006a9565b5b509050620006e39190620006e7565b5090565b5b8082111562000702576000816000905550600101620006e8565b5090565b600080fd5b600073ffffffffffffffffffffffffffffffffffffffff82169050919050565b600062000738826200070b565b9050919050565b6200074a816200072b565b81146200075657600080fd5b50565b6000815190506200076a816200073f565b92915050565b60006020828403121562000789576200078862000706565b5b6000620007998482850162000759565b91505092915050565b600081519050919050565b7f4e487b7100000000000000000000000000000000000000000000000000000000600052604160045260246000fd5b7f4e487b7100000000000000000000000000000000000000000000000000000000600052602260045260246000fd5b600060028204905060018216806200082457607f821691505b6020821081036200083a5762000839620007dc565b5b50919050565b60008190508160005260206000209050919050565b60006020601f8301049050919050565b600082821b905092915050565b600060088302620008a47fffffffffffffffffffffffffffffffffffffffffffffffffffffffffffffffff8262000865565b620008b0868362000865565b95508019841693508086168417925050509392505050565b6000819050919050565b6000819050919050565b6000620008fd620008f7620008f184620008c8565b620008d2565b620008c8565b9050919050565b6000819050919050565b6200091983620008dc565b62000931620009288262000904565b84845462000872565b825550505050565b600090565b6200094862000939565b620009558184846200090e565b505050565b5b818110156200097d57620009716000826200093e565b6001810190506200095b565b5050565b601f821115620009cc57620009968162000840565b620009a18462000855565b81016020851015620009b1578190505b620009c9620009c08562000855565b8301826200095a565b50505b505050565b600082821c905092915050565b6000620009f160001984600802620009d1565b1980831691505092915050565b600062000a0c8383620009de565b9150826002028217905092915050565b62000a2782620007a2565b67ffffffffffffffff81111562000a435762000a42620007ad565b5b62000a4f82546200080b565b62000a5c82828562000981565b600060209050601f83116001811462000a94576000841562000a7f578287015190505b62000a8b8582620009fe565b86555062000afb565b601f19841662000aa48662000840565b60005b8281101562000ace5784890151825560018201915060208501945060208101905062000aa7565b8683101562000aee578489015162000aea601f891682620009de565b8355505b6001600288020188555050505b505050505050565b6131188062000b136000396000f3fe608060405234801561001057600080fd5b50600436106100a95760003560e01c806386481d401161007157806386481d401461013e5780638da5cb5b1461016e578063a306fd4f1461018c578063a58343da146101a8578063b4579d60146101d9578063f2fde38b146101f7576100a9565b80630d9bfc3d146100ae57806325e4de48146100ca578063344f34f2146100e8578063715018a614610118578063798d706714610122575b600080fd5b6100c860048036038101906100c39190611c14565b610213565b005b6100d26106d8565b6040516100df9190611d12565b60405180910390f35b61010260048036038101906100fd9190611e86565b610723565b60405161010f9190611f10565b60405180910390f35b610120610c8d565b005b61013c60048036038101906101379190611f2b565b610ca1565b005b61015860048036038101906101539190611f2b565b610feb565b6040516101659190611f67565b60405180910390f35b610176611008565b6040516101839190611fc3565b60405180910390f35b6101a660048036038101906101a1919061217d565b611031565b005b6101c260048036038101906101bd9190611f2b565b6111a7565b6040516101d09291906122da565b60405180910390f35b6101e16112a8565b6040516101ee91906124fd565b60405180910390f35b610211600480360381019061020c919061254b565b6114a9565b005b600160009054906101000a900473ffffffffffffffffffffffffffffffffffffffff1673ffffffffffffffffffffffffffffffffffffffff16636352211e846040518263ffffffff1660e01b815260040161026e9190611f67565b602060405180830381865afa15801561028b573d6000803e3d6000fd5b505050506040513d601f19601f820116820180604052508101906102af919061258d565b73ffffffffffffffffffffffffffffffffffffffff163373ffffffffffffffffffffffffffffffffffffffff161461031c576040517f08c379a000000000000000000000000000000000000000000000000000000000815260040161031390612617565b60405180910390fd5b6009805490508210610363576040517f08c379a000000000000000000000000000000000000000000000000000000000815260040161035a90612683565b60405180910390fd5b600061036e846111a7565b915050818161037d91906126d2565b6032600860008781526020019081526020016000205461039d9190612706565b116103dd576040517f08c379a00000000000000000000000000000000000000000000000000000000081526004016103d4906127ba565b60405180910390fd5b600860008581526020019081526020016000205460098481548110610405576104046127da565b5b906000526020600020906004020160000160039054906101000a900460ff1660ff161115801561044957506000600860008681526020019081526020016000205414155b610488576040517f08c379a000000000000000000000000000000000000000000000000000000000815260040161047f90612855565b60405180910390fd5b600160009054906101000a900473ffffffffffffffffffffffffffffffffffffffff1673ffffffffffffffffffffffffffffffffffffffff1663393c775f856040518263ffffffff1660e01b81526004016104e39190611f67565b60a060405180830381865afa158015610500573d6000803e3d6000fd5b505050506040513d601f19601f82011682018060405250810190610524919061293b565b600360058110610537576105366127da565b5b60200201518260098581548110610551576105506127da565b5b90600052602060002090600402016003015461056d9190612706565b11156105ae576040517f08c379a00000000000000000000000000000000000000000000000000000000081526004016105a5906129b4565b60405180910390fd5b600160009054906101000a900473ffffffffffffffffffffffffffffffffffffffff1673ffffffffffffffffffffffffffffffffffffffff1663308fad6d856040518060a001604052806000815260200160008152602001600081526020018660098981548110610622576106216127da565b5b90600052602060002090600402016003015461063e9190612706565b815260200160008152506040518363ffffffff1660e01b81526004016106659291906129d4565b600060405180830381600087803b15801561067f57600080fd5b505af1158015610693573d6000803e3d6000fd5b505050508160076000868152602001908152602001600020600085815260200190815260200160002060008282546106cb91906126d2565b9250508190555050505050565b6106e0611ba8565b6002600580602002604051908101604052809291908260058015610719576020028201915b815481526020019060010190808311610705575b5050505050905090565b6000823373ffffffffffffffffffffffffffffffffffffffff16600160009054906101000a900473ffffffffffffffffffffffffffffffffffffffff1673ffffffffffffffffffffffffffffffffffffffff16636352211e836040518263ffffffff1660e01b81526004016107989190611f67565b602060405180830381865afa1580156107b5573d6000803e3d6000fd5b505050506040513d601f19601f820116820180604052508101906107d9919061258d565b73ffffffffffffffffffffffffffffffffffffffff161461082f576040517f08c379a000000000000000000000000000000000000000000000000000000000815260040161082690612a49565b60405180910390fd5b600073ffffffffffffffffffffffffffffffffffffffff16600160009054906101000a900473ffffffffffffffffffffffffffffffffffffffff1673ffffffffffffffffffffffffffffffffffffffff16636352211e856040518263ffffffff1660e01b81526004016108a29190611f67565b602060405180830381865afa1580156108bf573d6000803e3d6000fd5b505050506040513d601f19601f820116820180604052508101906108e3919061258d565b73ffffffffffffffffffffffffffffffffffffffff1603610939576040517f08c379a000000000000000000000000000000000000000000000000000000000815260040161093090612a8f565b60405180910390fd5b600980549050855114610981576040517f08c379a000000000000000000000000000000000000000000000000000000000815260040161097890612afb565b60405180910390fd5b60005b8551811015610a76578581815181106109a05761099f6127da565b5b6020026020010151600760008781526020019081526020016000206000838152602001908152602001600020541015610a0e576040517f08c379a0000000000000000000000000000000000000000000000000000000008152600401610a0590612b67565b60405180910390fd5b858181518110610a2157610a206127da565b5b60200260200101516007600087815260200190815260200160002060008381526020019081526020016000206000828254610a5c9190612b87565b925050819055508080610a6e90612bbb565b915050610984565b506000806000610a86888761152c565b9250925092508215610b2f57600160009054906101000a900473ffffffffffffffffffffffffffffffffffffffff1673ffffffffffffffffffffffffffffffffffffffff166337fd9b6988888486610ade9190612b87565b6040518463ffffffff1660e01b8152600401610afc93929190612c03565b600060405180830381600087803b158015610b1657600080fd5b505af1158015610b2a573d6000803e3d6000fd5b505050505b60005b600980549050811015610c7e576000600760008981526020019081526020016000206000838152602001908152602001600020541115610bd157606482600760008a8152602001908152602001600020600084815260200190815260200160002054610b9e9190612706565b610ba89190612c69565b600760008981526020019081526020016000206000838152602001908152602001600020819055505b6000600760008a81526020019081526020016000206000838152602001908152602001600020541115610c6b576064838a8381518110610c1457610c136127da565b5b6020026020010151610c269190612706565b610c309190612c69565b600760008a815260200190815260200160002060008381526020019081526020016000206000828254610c6391906126d2565b925050819055505b8080610c7690612bbb565b915050610b32565b50829450505050509392505050565b610c95611a5e565b610c9f6000611adc565b565b600060086000838152602001908152602001600020549050610cc1611ba8565b60005b6005811015610d2957600183610cda91906126d2565b60028260058110610cee57610ced6127da565b5b0154610cfa9190612706565b828260058110610d0d57610d0c6127da565b5b6020020181815250508080610d2190612bbb565b915050610cc4565b506000600160009054906101000a900473ffffffffffffffffffffffffffffffffffffffff1673ffffffffffffffffffffffffffffffffffffffff1663393c775f856040518263ffffffff1660e01b8152600401610d879190611f67565b60a060405180830381865afa158015610da4573d6000803e3d6000fd5b505050506040513d601f19601f82011682018060405250810190610dc8919061293b565b905081600060058110610dde57610ddd6127da565b5b602002015181600060058110610df757610df66127da565b5b602002015110158015610e3a575081600160058110610e1957610e186127da565b5b602002015181600160058110610e3257610e316127da565b5b602002015110155b8015610e76575081600260058110610e5557610e546127da565b5b602002015181600260058110610e6e57610e6d6127da565b5b602002015110155b8015610eb2575081600360058110610e9157610e906127da565b5b602002015181600360058110610eaa57610ea96127da565b5b602002015110155b8015610eee575081600460058110610ecd57610ecc6127da565b5b602002015181600460058110610ee657610ee56127da565b5b602002015110155b610f2d576040517f08c379a0000000000000000000000000000000000000000000000000000000008152600401610f2490612ce6565b60405180910390fd5b600160009054906101000a900473ffffffffffffffffffffffffffffffffffffffff1673ffffffffffffffffffffffffffffffffffffffff1663308fad6d85846040518363ffffffff1660e01b8152600401610f8a9291906129d4565b600060405180830381600087803b158015610fa457600080fd5b505af1158015610fb8573d6000803e3d6000fd5b50505050600860008581526020019081526020016000206000815480929190610fe090612bbb565b919050555050505050565b600060086000838152602001908152602001600020549050919050565b60008060009054906101000a900473ffffffffffffffffffffffffffffffffffffffff16905090565b611039611a5e565b6040518060e0016040528087600060038110611058576110576127da565b5b602002015160ff16815260200187600160038110611079576110786127da565b5b602002015160ff1681526020018760026003811061109a576110996127da565b5b602002015160ff1681526020018660ff16815260200185815260200184815260200183815250600982815481106110d4576110d36127da565b5b906000526020600020906004020160008201518160000160006101000a81548160ff021916908360ff16021790555060208201518160000160016101000a81548160ff021916908360ff16021790555060408201518160000160026101000a81548160ff021916908360ff16021790555060608201518160000160036101000a81548160ff021916908360ff160217905550608082015181600101908161117b9190612f12565b5060a08201518160020190816111919190612f12565b5060c08201518160030155905050505050505050565b606060008060098054905067ffffffffffffffff8111156111cb576111ca611d43565b5b6040519080825280602002602001820160405280156111f95781602001602082028036833780820191505090505b509050600080600090505b60098054905081101561129a5760076000878152602001908152602001600020600082815260200190815260200160002054838281518110611249576112486127da565b5b602002602001018181525050600760008781526020019081526020016000206000828152602001908152602001600020548261128591906126d2565b9150808061129290612bbb565b915050611204565b508181935093505050915091565b60606009805480602002602001604051908101604052809291908181526020016000905b828210156114a057838290600052602060002090600402016040518060e00160405290816000820160009054906101000a900460ff1660ff1660ff1681526020016000820160019054906101000a900460ff1660ff1660ff1681526020016000820160029054906101000a900460ff1660ff1660ff1681526020016000820160039054906101000a900460ff1660ff1660ff16815260200160018201805461137390612d35565b80601f016020809104026020016040519081016040528092919081815260200182805461139f90612d35565b80156113ec5780601f106113c1576101008083540402835291602001916113ec565b820191906000526020600020905b8154815290600101906020018083116113cf57829003601f168201915b5050505050815260200160028201805461140590612d35565b80601f016020809104026020016040519081016040528092919081815260200182805461143190612d35565b801561147e5780601f106114535761010080835404028352916020019161147e565b820191906000526020600020905b81548152906001019060200180831161146157829003601f168201915b50505050508152602001600382015481525050815260200190600101906112cc565b50505050905090565b6114b1611a5e565b600073ffffffffffffffffffffffffffffffffffffffff168173ffffffffffffffffffffffffffffffffffffffff1603611520576040517f08c379a000000000000000000000000000000000000000000000000000000000815260040161151790613056565b60405180910390fd5b61152981611adc565b50565b60008060008060008060008060006115438a6111a7565b50905060005b600980549050811015611709578b8181518110611569576115686127da565b5b602002602001015160098281548110611585576115846127da565b5b906000526020600020906004020160000160009054906101000a900460ff1660ff166115b19190612706565b876115bc91906126d2565b96508b81815181106115d1576115d06127da565b5b6020026020010151600982815481106115ed576115ec6127da565b5b906000526020600020906004020160000160029054906101000a900460ff1660ff166116199190612706565b8661162491906126d2565b9550818181518110611639576116386127da565b5b602002602001015160098281548110611655576116546127da565b5b906000526020600020906004020160000160019054906101000a900460ff1660ff166116819190612706565b8561168c91906126d2565b94508181815181106116a1576116a06127da565b5b6020026020010151600982815481106116bd576116bc6127da565b5b906000526020600020906004020160000160029054906101000a900460ff1660ff166116e99190612706565b846116f491906126d2565b9350808061170190612bbb565b915050611549565b50600080878511801561171b57508587115b1561181557878561172c9190612b87565b86886117389190612b87565b11156117a957600193508660646003886117529190612c69565b8961175d9190612b87565b6117679190612706565b6117719190612c69565b915084606460028a6117839190612c69565b8761178e9190612b87565b6117989190612706565b6117a29190612c69565b9050611810565b600093508660646002886117bd9190612c69565b896117c89190612b87565b6117d29190612706565b6117dc9190612c69565b915084606460038a6117ee9190612c69565b876117f99190612b87565b6118039190612706565b61180d9190612c69565b90505b611a46565b87851015611933576001935060026003866118309190612706565b61183a9190612c69565b881015611877578660646004886118519190612c69565b8961185c9190612b87565b6118669190612706565b6118709190612c69565b9150601e90505b8760026003876118879190612706565b6118919190612c69565b1080156118a95750876002866118a79190612706565b115b156118e4578660646005886118be9190612c69565b896118c99190612b87565b6118d39190612706565b6118dd9190612c69565b9150600f90505b876002866118f29190612706565b101561192e578660646006886119089190612c69565b896119139190612b87565b61191d9190612706565b6119279190612c69565b9150600090505b611a45565b6000935060026003886119469190612706565b6119509190612c69565b86101561198d57601e915084606460048a61196b9190612c69565b876119769190612b87565b6119809190612706565b61198a9190612c69565b90505b8560028861199b9190612706565b10156119d757600f915084606460058a6119b59190612c69565b876119c09190612b87565b6119ca9190612706565b6119d49190612c69565b90505b8560026003896119e79190612706565b6119f19190612c69565b108015611a09575085600288611a079190612706565b115b15611a44576000915084606460068a611a229190612c69565b87611a2d9190612b87565b611a379190612706565b611a419190612c69565b90505b5b5b8382829a509a509a5050505050505050509250925092565b611a66611ba0565b73ffffffffffffffffffffffffffffffffffffffff16611a84611008565b73ffffffffffffffffffffffffffffffffffffffff1614611ada576040517f08c379a0000000000000000000000000000000000000000000000000000000008152600401611ad1906130c2565b60405180910390fd5b565b60008060009054906101000a900473ffffffffffffffffffffffffffffffffffffffff169050816000806101000a81548173ffffffffffffffffffffffffffffffffffffffff021916908373ffffffffffffffffffffffffffffffffffffffff1602179055508173ffffffffffffffffffffffffffffffffffffffff168173ffffffffffffffffffffffffffffffffffffffff167f8be0079c531659141344cd1fd0a4f28419497f9722a3daafe3b4186f6b6457e060405160405180910390a35050565b600033905090565b6040518060a00160405280600590602082028036833780820191505090505090565b6000604051905090565b600080fd5b600080fd5b6000819050919050565b611bf181611bde565b8114611bfc57600080fd5b50565b600081359050611c0e81611be8565b92915050565b600080600060608486031215611c2d57611c2c611bd4565b5b6000611c3b86828701611bff565b9350506020611c4c86828701611bff565b9250506040611c5d86828701611bff565b9150509250925092565b600060059050919050565b600081905092915050565b6000819050919050565b611c9081611bde565b82525050565b6000611ca28383611c87565b60208301905092915050565b6000602082019050919050565b611cc481611c67565b611cce8184611c72565b9250611cd982611c7d565b8060005b83811015611d0a578151611cf18782611c96565b9650611cfc83611cae565b925050600181019050611cdd565b505050505050565b600060a082019050611d276000830184611cbb565b92915050565b600080fd5b6000601f19601f8301169050919050565b7f4e487b7100000000000000000000000000000000000000000000000000000000600052604160045260246000fd5b611d7b82611d32565b810181811067ffffffffffffffff82111715611d9a57611d99611d43565b5b80604052505050565b6000611dad611bca565b9050611db98282611d72565b919050565b600067ffffffffffffffff821115611dd957611dd8611d43565b5b602082029050602081019050919050565b600080fd5b6000611e02611dfd84611dbe565b611da3565b90508083825260208201905060208402830185811115611e2557611e24611dea565b5b835b81811015611e4e5780611e3a8882611bff565b845260208401935050602081019050611e27565b5050509392505050565b600082601f830112611e6d57611e6c611d2d565b5b8135611e7d848260208601611def565b91505092915050565b600080600060608486031215611e9f57611e9e611bd4565b5b600084013567ffffffffffffffff811115611ebd57611ebc611bd9565b5b611ec986828701611e58565b9350506020611eda86828701611bff565b9250506040611eeb86828701611bff565b9150509250925092565b60008115159050919050565b611f0a81611ef5565b82525050565b6000602082019050611f256000830184611f01565b92915050565b600060208284031215611f4157611f40611bd4565b5b6000611f4f84828501611bff565b91505092915050565b611f6181611bde565b82525050565b6000602082019050611f7c6000830184611f58565b92915050565b600073ffffffffffffffffffffffffffffffffffffffff82169050919050565b6000611fad82611f82565b9050919050565b611fbd81611fa2565b82525050565b6000602082019050611fd86000830184611fb4565b92915050565b600067ffffffffffffffff821115611ff957611ff8611d43565b5b602082029050919050565b600060ff82169050919050565b61201a81612004565b811461202557600080fd5b50565b60008135905061203781612011565b92915050565b600061205061204b84611fde565b611da3565b9050806020840283018581111561206a57612069611dea565b5b835b81811015612093578061207f8882612028565b84526020840193505060208101905061206c565b5050509392505050565b600082601f8301126120b2576120b1611d2d565b5b60036120bf84828561203d565b91505092915050565b600080fd5b600067ffffffffffffffff8211156120e8576120e7611d43565b5b6120f182611d32565b9050602081019050919050565b82818337600083830152505050565b600061212061211b846120cd565b611da3565b90508281526020810184848401111561213c5761213b6120c8565b5b6121478482856120fe565b509392505050565b600082601f83011261216457612163611d2d565b5b813561217484826020860161210d565b91505092915050565b600080600080600080610100878903121561219b5761219a611bd4565b5b60006121a989828a0161209d565b96505060606121ba89828a01612028565b955050608087013567ffffffffffffffff8111156121db576121da611bd9565b5b6121e789828a0161214f565b94505060a087013567ffffffffffffffff81111561220857612207611bd9565b5b61221489828a0161214f565b93505060c061222589828a01611bff565b92505060e061223689828a01611bff565b9150509295509295509295565b600081519050919050565b600082825260208201905092915050565b6000819050602082019050919050565b6000602082019050919050565b600061228782612243565b612291818561224e565b935061229c8361225f565b8060005b838110156122cd5781516122b48882611c96565b97506122bf8361226f565b9250506001810190506122a0565b5085935050505092915050565b600060408201905081810360008301526122f4818561227c565b90506123036020830184611f58565b9392505050565b600081519050919050565b600082825260208201905092915050565b6000819050602082019050919050565b61233f81612004565b82525050565b600081519050919050565b600082825260208201905092915050565b60005b8381101561237f578082015181840152602081019050612364565b60008484015250505050565b600061239682612345565b6123a08185612350565b93506123b0818560208601612361565b6123b981611d32565b840191505092915050565b600060e0830160008301516123dc6000860182612336565b5060208301516123ef6020860182612336565b5060408301516124026040860182612336565b5060608301516124156060860182612336565b506080830151848203608086015261242d828261238b565b91505060a083015184820360a0860152612447828261238b565b91505060c083015161245c60c0860182611c87565b508091505092915050565b600061247383836123c4565b905092915050565b6000602082019050919050565b60006124938261230a565b61249d8185612315565b9350836020820285016124af85612326565b8060005b858110156124eb57848403895281516124cc8582612467565b94506124d78361247b565b925060208a019950506001810190506124b3565b50829750879550505050505092915050565b600060208201905081810360008301526125178184612488565b905092915050565b61252881611fa2565b811461253357600080fd5b50565b6000813590506125458161251f565b92915050565b60006020828403121561256157612560611bd4565b5b600061256f84828501612536565b91505092915050565b6000815190506125878161251f565b92915050565b6000602082840312156125a3576125a2611bd4565b5b60006125b184828501612578565b91505092915050565b600082825260208201905092915050565b7f43616c6c657272206973206e6f74206c616e64206f776e657200000000000000600082015250565b60006126016019836125ba565b915061260c826125cb565b602082019050919050565b60006020820190508181036000830152612630816125f4565b9050919050565b7f54797065206973206e6f742076616c6964000000000000000000000000000000600082015250565b600061266d6011836125ba565b915061267882612637565b602082019050919050565b6000602082019050818103600083015261269c81612660565b9050919050565b7f4e487b7100000000000000000000000000000000000000000000000000000000600052601160045260246000fd5b60006126dd82611bde565b91506126e883611bde565b9250828201905080821115612700576126ff6126a3565b5b92915050565b600061271182611bde565b915061271c83611bde565b925082820261272a81611bde565b91508282048414831517612741576127406126a3565b5b5092915050565b7f41726d79203e206d6178696d756d2063617061636974792c205570677261646560008201527f20796f7572206c616e6400000000000000000000000000000000000000000000602082015250565b60006127a4602a836125ba565b91506127af82612748565b604082019050919050565b600060208201905081810360008301526127d381612797565b9050919050565b7f4e487b7100000000000000000000000000000000000000000000000000000000600052603260045260246000fd5b7f55706772616465206261727261636b73206e6565646564000000000000000000600082015250565b600061283f6017836125ba565b915061284a82612809565b602082019050919050565b6000602082019050818103600083015261286e81612832565b9050919050565b600067ffffffffffffffff8211156128905761288f611d43565b5b602082029050919050565b6000815190506128aa81611be8565b92915050565b60006128c36128be84612875565b611da3565b905080602084028301858111156128dd576128dc611dea565b5b835b8181101561290657806128f2888261289b565b8452602084019350506020810190506128df565b5050509392505050565b600082601f83011261292557612924611d2d565b5b60056129328482856128b0565b91505092915050565b600060a0828403121561295157612950611bd4565b5b600061295f84828501612910565b91505092915050565b7f496e73756666696369656e7420676f6c64000000000000000000000000000000600082015250565b600061299e6011836125ba565b91506129a982612968565b602082019050919050565b600060208201905081810360008301526129cd81612991565b9050919050565b600060c0820190506129e96000830185611f58565b6129f66020830184611cbb565b9392505050565b7f4c616e64206e6f74206f776e656420627920796f750000000000000000000000600082015250565b6000612a336015836125ba565b9150612a3e826129fd565b602082019050919050565b60006020820190508181036000830152612a6281612a26565b9050919050565b50565b6000612a796000836125ba565b9150612a8482612a69565b600082019050919050565b60006020820190508181036000830152612aa881612a6c565b9050919050565b7f4c656e6774687320646f6573206e6f74206d6174636800000000000000000000600082015250565b6000612ae56016836125ba565b9150612af082612aaf565b602082019050919050565b60006020820190508181036000830152612b1481612ad8565b9050919050565b7f496e73756666696369656e742061726d79000000000000000000000000000000600082015250565b6000612b516011836125ba565b9150612b5c82612b1b565b602082019050919050565b60006020820190508181036000830152612b8081612b44565b9050919050565b6000612b9282611bde565b9150612b9d83611bde565b9250828203905081811115612bb557612bb46126a3565b5b92915050565b6000612bc682611bde565b91507fffffffffffffffffffffffffffffffffffffffffffffffffffffffffffffffff8203612bf857612bf76126a3565b5b600182019050919050565b6000606082019050612c186000830186611f58565b612c256020830185611f58565b612c326040830184611f58565b949350505050565b7f4e487b7100000000000000000000000000000000000000000000000000000000600052601260045260246000fd5b6000612c7482611bde565b9150612c7f83611bde565b925082612c8f57612c8e612c3a565b5b828204905092915050565b7f496e73756666696369656e7420636f6d6d6f6469746965730000000000000000600082015250565b6000612cd06018836125ba565b9150612cdb82612c9a565b602082019050919050565b60006020820190508181036000830152612cff81612cc3565b9050919050565b7f4e487b7100000000000000000000000000000000000000000000000000000000600052602260045260246000fd5b60006002820490506001821680612d4d57607f821691505b602082108103612d6057612d5f612d06565b5b50919050565b60008190508160005260206000209050919050565b60006020601f8301049050919050565b600082821b905092915050565b600060088302612dc87fffffffffffffffffffffffffffffffffffffffffffffffffffffffffffffffff82612d8b565b612dd28683612d8b565b95508019841693508086168417925050509392505050565b6000819050919050565b6000612e0f612e0a612e0584611bde565b612dea565b611bde565b9050919050565b6000819050919050565b612e2983612df4565b612e3d612e3582612e16565b848454612d98565b825550505050565b600090565b612e52612e45565b612e5d818484612e20565b505050565b5b81811015612e8157612e76600082612e4a565b600181019050612e63565b5050565b601f821115612ec657612e9781612d66565b612ea084612d7b565b81016020851015612eaf578190505b612ec3612ebb85612d7b565b830182612e62565b50505b505050565b600082821c905092915050565b6000612ee960001984600802612ecb565b1980831691505092915050565b6000612f028383612ed8565b9150826002028217905092915050565b612f1b82612345565b67ffffffffffffffff811115612f3457612f33611d43565b5b612f3e8254612d35565b612f49828285612e85565b600060209050601f831160018114612f7c5760008415612f6a578287015190505b612f748582612ef6565b865550612fdc565b601f198416612f8a86612d66565b60005b82811015612fb257848901518255600182019150602085019450602081019050612f8d565b86831015612fcf5784890151612fcb601f891682612ed8565b8355505b6001600288020188555050505b505050505050565b7f4f776e61626c653a206e6577206f776e657220697320746865207a65726f206160008201527f6464726573730000000000000000000000000000000000000000000000000000602082015250565b60006130406026836125ba565b915061304b82612fe4565b604082019050919050565b6000602082019050818103600083015261306f81613033565b9050919050565b7f4f776e61626c653a2063616c6c6572206973206e6f7420746865206f776e6572600082015250565b60006130ac6020836125ba565b91506130b782613076565b602082019050919050565b600060208201905081810360008301526130db8161309f565b905091905056fea26469706673582212207979ccddf25cd00e6b47f3ef91e72b4f6a782f7aad3ebdd48fcf4467c6f5e2dd64736f6c6343000813003368747470733a2f2f697066732e696f2f697066732f516d556a4e5177667833446b5657313135637977585462674253626b68353375316b336244636d6141397861674a68747470733a2f2f697066732e696f2f697066732f516d6558786e433569717a655865424635446a5850654c4c75343633364173346d517076394c746f7448464d537068747470733a2f2f697066732e696f2f697066732f516d5464313774754e31466d4d596251794544624441374c3937613966506f36597a52594a5654476350316a576f",
  "linkReferences": {},
  "deployedLinkReferences": {}
}