{
  "_format": "hh-sol-artifact-1",
  "contractName": "Lands",
  "sourceName": "contracts/Lands.sol",
  "abi": [
    {
      "inputs": [
        {
          "internalType": "address",
          "name": "_stone",
          "type": "address"
        },
        {
          "internalType": "address",
          "name": "_wood",
          "type": "address"
        },
        {
          "internalType": "address",
          "name": "_iron",
          "type": "address"
        },
        {
          "internalType": "address",
          "name": "_gold",
          "type": "address"
        },
        {
          "internalType": "address",
          "name": "_food",
          "type": "address"
        }
      ],
      "stateMutability": "nonpayable",
      "type": "constructor"
    },
    {
      "inputs": [],
      "name": "Lands__InvalidCoordinate",
      "type": "error"
    },
    {
      "inputs": [],
      "name": "Lands__LandAlreadyMinted",
      "type": "error"
    },
    {
      "anonymous": false,
      "inputs": [
        {
          "indexed": true,
          "internalType": "address",
          "name": "owner",
          "type": "address"
        },
        {
          "indexed": true,
          "internalType": "address",
          "name": "approved",
          "type": "address"
        },
        {
          "indexed": true,
          "internalType": "uint256",
          "name": "tokenId",
          "type": "uint256"
        }
      ],
      "name": "Approval",
      "type": "event"
    },
    {
      "anonymous": false,
      "inputs": [
        {
          "indexed": true,
          "internalType": "address",
          "name": "owner",
          "type": "address"
        },
        {
          "indexed": true,
          "internalType": "address",
          "name": "operator",
          "type": "address"
        },
        {
          "indexed": false,
          "internalType": "bool",
          "name": "approved",
          "type": "bool"
        }
      ],
      "name": "ApprovalForAll",
      "type": "event"
    },
    {
      "anonymous": false,
      "inputs": [
        {
          "indexed": true,
          "internalType": "address",
          "name": "previousOwner",
          "type": "address"
        },
        {
          "indexed": true,
          "internalType": "address",
          "name": "newOwner",
          "type": "address"
        }
      ],
      "name": "OwnershipTransferred",
      "type": "event"
    },
    {
      "anonymous": false,
      "inputs": [
        {
          "indexed": true,
          "internalType": "address",
          "name": "from",
          "type": "address"
        },
        {
          "indexed": true,
          "internalType": "address",
          "name": "to",
          "type": "address"
        },
        {
          "indexed": true,
          "internalType": "uint256",
          "name": "tokenId",
          "type": "uint256"
        }
      ],
      "name": "Transfer",
      "type": "event"
    },
    {
      "inputs": [],
      "name": "URI",
      "outputs": [
        {
          "internalType": "string",
          "name": "",
          "type": "string"
        }
      ],
      "stateMutability": "view",
      "type": "function"
    },
    {
      "inputs": [
        {
          "internalType": "address",
          "name": "newItem",
          "type": "address"
        }
      ],
      "name": "addItem",
      "outputs": [],
      "stateMutability": "nonpayable",
      "type": "function"
    },
    {
      "inputs": [
        {
          "internalType": "address",
          "name": "to",
          "type": "address"
        },
        {
          "internalType": "uint256",
          "name": "tokenId",
          "type": "uint256"
        }
      ],
      "name": "approve",
      "outputs": [],
      "stateMutability": "nonpayable",
      "type": "function"
    },
    {
      "inputs": [
        {
          "internalType": "address",
          "name": "owner",
          "type": "address"
        }
      ],
      "name": "balanceOf",
      "outputs": [
        {
          "internalType": "uint256",
          "name": "",
          "type": "uint256"
        }
      ],
      "stateMutability": "view",
      "type": "function"
    },
    {
      "inputs": [
        {
          "internalType": "uint256",
          "name": "assetIndex",
          "type": "uint256"
        },
        {
          "internalType": "uint256",
          "name": "amount",
          "type": "uint256"
        },
        {
          "internalType": "uint256",
          "name": "landTokenId",
          "type": "uint256"
        }
      ],
      "name": "claimAsset",
      "outputs": [],
      "stateMutability": "nonpayable",
      "type": "function"
    },
    {
      "inputs": [
        {
          "internalType": "address",
          "name": "commodityTokenAddress",
          "type": "address"
        },
        {
          "internalType": "uint256",
          "name": "amount",
          "type": "uint256"
        },
        {
          "internalType": "uint256",
          "name": "landId",
          "type": "uint256"
        }
      ],
      "name": "deposit",
      "outputs": [],
      "stateMutability": "nonpayable",
      "type": "function"
    },
    {
      "inputs": [
        {
          "internalType": "uint256",
          "name": "tokenId",
          "type": "uint256"
        }
      ],
      "name": "getApproved",
      "outputs": [
        {
          "internalType": "address",
          "name": "",
          "type": "address"
        }
      ],
      "stateMutability": "view",
      "type": "function"
    },
    {
      "inputs": [
        {
          "internalType": "uint256",
          "name": "tokenId",
          "type": "uint256"
        }
      ],
      "name": "getAssetsBal",
      "outputs": [
        {
          "internalType": "uint256[5]",
          "name": "",
          "type": "uint256[5]"
        }
      ],
      "stateMutability": "view",
      "type": "function"
    },
    {
      "inputs": [
        {
          "internalType": "uint256",
          "name": "tokenId",
          "type": "uint256"
        }
      ],
      "name": "getLand",
      "outputs": [
        {
          "components": [
            {
              "internalType": "uint8",
              "name": "coordinateX",
              "type": "uint8"
            },
            {
              "internalType": "uint8",
              "name": "coordinateY",
              "type": "uint8"
            }
          ],
          "internalType": "struct Lands.Land",
          "name": "",
          "type": "tuple"
        }
      ],
      "stateMutability": "view",
      "type": "function"
    },
    {
      "inputs": [],
      "name": "getPrice",
      "outputs": [
        {
          "internalType": "uint256",
          "name": "",
          "type": "uint256"
        }
      ],
      "stateMutability": "view",
      "type": "function"
    },
    {
      "inputs": [
        {
          "internalType": "address",
          "name": "owner",
          "type": "address"
        },
        {
          "internalType": "address",
          "name": "operator",
          "type": "address"
        }
      ],
      "name": "isApprovedForAll",
      "outputs": [
        {
          "internalType": "bool",
          "name": "",
          "type": "bool"
        }
      ],
      "stateMutability": "view",
      "type": "function"
    },
    {
      "inputs": [
        {
          "internalType": "uint256",
          "name": "attackerLandId",
          "type": "uint256"
        },
        {
          "internalType": "uint256",
          "name": "targetLandId",
          "type": "uint256"
        },
        {
          "internalType": "uint256",
          "name": "lootPercentage",
          "type": "uint256"
        }
      ],
      "name": "loot",
      "outputs": [],
      "stateMutability": "nonpayable",
      "type": "function"
    },
    {
      "inputs": [
        {
          "internalType": "uint8",
          "name": "x",
          "type": "uint8"
        },
        {
          "internalType": "uint8",
          "name": "y",
          "type": "uint8"
        }
      ],
      "name": "mintLand",
      "outputs": [],
      "stateMutability": "payable",
      "type": "function"
    },
    {
      "inputs": [],
      "name": "name",
      "outputs": [
        {
          "internalType": "string",
          "name": "",
          "type": "string"
        }
      ],
      "stateMutability": "view",
      "type": "function"
    },
    {
      "inputs": [],
      "name": "owner",
      "outputs": [
        {
          "internalType": "address",
          "name": "",
          "type": "address"
        }
      ],
      "stateMutability": "view",
      "type": "function"
    },
    {
      "inputs": [
        {
          "internalType": "uint256",
          "name": "tokenId",
          "type": "uint256"
        }
      ],
      "name": "ownerOf",
      "outputs": [
        {
          "internalType": "address",
          "name": "",
          "type": "address"
        }
      ],
      "stateMutability": "view",
      "type": "function"
    },
    {
      "inputs": [],
      "name": "renounceOwnership",
      "outputs": [],
      "stateMutability": "nonpayable",
      "type": "function"
    },
    {
      "inputs": [
        {
          "internalType": "address",
          "name": "from",
          "type": "address"
        },
        {
          "internalType": "address",
          "name": "to",
          "type": "address"
        },
        {
          "internalType": "uint256",
          "name": "tokenId",
          "type": "uint256"
        }
      ],
      "name": "safeTransferFrom",
      "outputs": [],
      "stateMutability": "nonpayable",
      "type": "function"
    },
    {
      "inputs": [
        {
          "internalType": "address",
          "name": "from",
          "type": "address"
        },
        {
          "internalType": "address",
          "name": "to",
          "type": "address"
        },
        {
          "internalType": "uint256",
          "name": "tokenId",
          "type": "uint256"
        },
        {
          "internalType": "bytes",
          "name": "data",
          "type": "bytes"
        }
      ],
      "name": "safeTransferFrom",
      "outputs": [],
      "stateMutability": "nonpayable",
      "type": "function"
    },
    {
      "inputs": [
        {
          "internalType": "address",
          "name": "operator",
          "type": "address"
        },
        {
          "internalType": "bool",
          "name": "approved",
          "type": "bool"
        }
      ],
      "name": "setApprovalForAll",
      "outputs": [],
      "stateMutability": "nonpayable",
      "type": "function"
    },
    {
      "inputs": [
        {
          "internalType": "uint256",
          "name": "commodityIndex",
          "type": "uint256"
        },
        {
          "internalType": "uint8",
          "name": "newAmount",
          "type": "uint8"
        }
      ],
      "name": "setDifficulty",
      "outputs": [],
      "stateMutability": "nonpayable",
      "type": "function"
    },
    {
      "inputs": [
        {
          "internalType": "uint256",
          "name": "landTokenId",
          "type": "uint256"
        },
        {
          "internalType": "address",
          "name": "assetAddress",
          "type": "address"
        },
        {
          "internalType": "uint256",
          "name": "amount",
          "type": "uint256"
        }
      ],
      "name": "spendAsset",
      "outputs": [],
      "stateMutability": "nonpayable",
      "type": "function"
    },
    {
      "inputs": [
        {
          "internalType": "uint256",
          "name": "landTokenId",
          "type": "uint256"
        },
        {
          "internalType": "uint256[5]",
          "name": "amounts",
          "type": "uint256[5]"
        }
      ],
      "name": "spendCommodities",
      "outputs": [],
      "stateMutability": "nonpayable",
      "type": "function"
    },
    {
      "inputs": [
        {
          "internalType": "bytes4",
          "name": "interfaceId",
          "type": "bytes4"
        }
      ],
      "name": "supportsInterface",
      "outputs": [
        {
          "internalType": "bool",
          "name": "",
          "type": "bool"
        }
      ],
      "stateMutability": "view",
      "type": "function"
    },
    {
      "inputs": [],
      "name": "symbol",
      "outputs": [
        {
          "internalType": "string",
          "name": "",
          "type": "string"
        }
      ],
      "stateMutability": "view",
      "type": "function"
    },
    {
      "inputs": [
        {
          "internalType": "uint256",
          "name": "landTokenId",
          "type": "uint256"
        }
      ],
      "name": "testDeposit",
      "outputs": [],
      "stateMutability": "nonpayable",
      "type": "function"
    },
    {
      "inputs": [
        {
          "internalType": "uint256",
          "name": "",
          "type": "uint256"
        }
      ],
      "name": "tokenIdLand",
      "outputs": [
        {
          "internalType": "uint8",
          "name": "coordinateX",
          "type": "uint8"
        },
        {
          "internalType": "uint8",
          "name": "coordinateY",
          "type": "uint8"
        }
      ],
      "stateMutability": "view",
      "type": "function"
    },
    {
      "inputs": [
        {
          "internalType": "uint256",
          "name": "_tokenId",
          "type": "uint256"
        }
      ],
      "name": "tokenURI",
      "outputs": [
        {
          "internalType": "string",
          "name": "",
          "type": "string"
        }
      ],
      "stateMutability": "view",
      "type": "function"
    },
    {
      "inputs": [
        {
          "internalType": "uint256",
          "name": "commodityIndex",
          "type": "uint256"
        },
        {
          "internalType": "uint256",
          "name": "amount",
          "type": "uint256"
        },
        {
          "internalType": "uint256",
          "name": "fromId",
          "type": "uint256"
        },
        {
          "internalType": "uint256",
          "name": "toId",
          "type": "uint256"
        }
      ],
      "name": "transferCommodity",
      "outputs": [],
      "stateMutability": "nonpayable",
      "type": "function"
    },
    {
      "inputs": [
        {
          "internalType": "address",
          "name": "from",
          "type": "address"
        },
        {
          "internalType": "address",
          "name": "to",
          "type": "address"
        },
        {
          "internalType": "uint256",
          "name": "tokenId",
          "type": "uint256"
        }
      ],
      "name": "transferFrom",
      "outputs": [],
      "stateMutability": "nonpayable",
      "type": "function"
    },
    {
      "inputs": [
        {
          "internalType": "address",
          "name": "newOwner",
          "type": "address"
        }
      ],
      "name": "transferOwnership",
      "outputs": [],
      "stateMutability": "nonpayable",
      "type": "function"
    },
    {
      "inputs": [
        {
          "internalType": "address",
          "name": "commodityTokenAddress",
          "type": "address"
        },
        {
          "internalType": "uint256",
          "name": "amount",
          "type": "uint256"
        },
        {
          "internalType": "uint256",
          "name": "landId",
          "type": "uint256"
        }
      ],
      "name": "withdraw",
      "outputs": [],
      "stateMutability": "nonpayable",
      "type": "function"
    }
  ],
  "bytecode": "0x60806040526003600d553480156200001657600080fd5b5060405162005dcf38038062005dcf83398181016040528101906200003c919062000376565b6040518060400160405280601181526020017f506f6c79676f6e2077617273206c616e640000000000000000000000000000008152506040518060400160405280600381526020017f50574c00000000000000000000000000000000000000000000000000000000008152508160009081620000b9919062000678565b508060019081620000cb919062000678565b505050620000ee620000e26200023e60201b60201c565b6200024660201b60201c565b84600760006101000a81548173ffffffffffffffffffffffffffffffffffffffff021916908373ffffffffffffffffffffffffffffffffffffffff16021790555083600860006101000a81548173ffffffffffffffffffffffffffffffffffffffff021916908373ffffffffffffffffffffffffffffffffffffffff16021790555082600960006101000a81548173ffffffffffffffffffffffffffffffffffffffff021916908373ffffffffffffffffffffffffffffffffffffffff16021790555081600a60006101000a81548173ffffffffffffffffffffffffffffffffffffffff021916908373ffffffffffffffffffffffffffffffffffffffff16021790555080600b60006101000a81548173ffffffffffffffffffffffffffffffffffffffff021916908373ffffffffffffffffffffffffffffffffffffffff16021790555050505050506200075f565b600033905090565b6000600660009054906101000a900473ffffffffffffffffffffffffffffffffffffffff16905081600660006101000a81548173ffffffffffffffffffffffffffffffffffffffff021916908373ffffffffffffffffffffffffffffffffffffffff1602179055508173ffffffffffffffffffffffffffffffffffffffff168173ffffffffffffffffffffffffffffffffffffffff167f8be0079c531659141344cd1fd0a4f28419497f9722a3daafe3b4186f6b6457e060405160405180910390a35050565b600080fd5b600073ffffffffffffffffffffffffffffffffffffffff82169050919050565b60006200033e8262000311565b9050919050565b620003508162000331565b81146200035c57600080fd5b50565b600081519050620003708162000345565b92915050565b600080600080600060a086880312156200039557620003946200030c565b5b6000620003a5888289016200035f565b9550506020620003b8888289016200035f565b9450506040620003cb888289016200035f565b9350506060620003de888289016200035f565b9250506080620003f1888289016200035f565b9150509295509295909350565b600081519050919050565b7f4e487b7100000000000000000000000000000000000000000000000000000000600052604160045260246000fd5b7f4e487b7100000000000000000000000000000000000000000000000000000000600052602260045260246000fd5b600060028204905060018216806200048057607f821691505b60208210810362000496576200049562000438565b5b50919050565b60008190508160005260206000209050919050565b60006020601f8301049050919050565b600082821b905092915050565b600060088302620005007fffffffffffffffffffffffffffffffffffffffffffffffffffffffffffffffff82620004c1565b6200050c8683620004c1565b95508019841693508086168417925050509392505050565b6000819050919050565b6000819050919050565b600062000559620005536200054d8462000524565b6200052e565b62000524565b9050919050565b6000819050919050565b620005758362000538565b6200058d620005848262000560565b848454620004ce565b825550505050565b600090565b620005a462000595565b620005b18184846200056a565b505050565b5b81811015620005d957620005cd6000826200059a565b600181019050620005b7565b5050565b601f8211156200062857620005f2816200049c565b620005fd84620004b1565b810160208510156200060d578190505b620006256200061c85620004b1565b830182620005b6565b50505b505050565b600082821c905092915050565b60006200064d600019846008026200062d565b1980831691505092915050565b60006200066883836200063a565b9150826002028217905092915050565b6200068382620003fe565b67ffffffffffffffff8111156200069f576200069e62000409565b5b620006ab825462000467565b620006b8828285620005dd565b600060209050601f831160018114620006f05760008415620006db578287015190505b620006e785826200065a565b86555062000757565b601f19841662000700866200049c565b60005b828110156200072a5784890151825560018201915060208501945060208101905062000703565b868310156200074a578489015162000746601f8916826200063a565b8355505b6001600288020188555050505b505050505050565b615660806200076f6000396000f3fe6080604052600436106101e35760003560e01c80636980d8b91161010257806398d5fdca11610095578063c87b56dd11610064578063c87b56dd146106c8578063e985e9c514610705578063f02dd53f14610742578063f2fde38b1461077f576101e3565b806398d5fdca14610622578063a22cb4651461064d578063b5c5f67214610676578063b88d4fde1461069f576101e3565b80637cf90fcc116100d15780637cf90fcc1461057a578063885085a0146105a35780638da5cb5b146105cc57806395d89b41146105f7576101e3565b80636980d8b9146104bf57806370a08231146104fd578063715018a61461053a578063728834a514610551576101e3565b806337fd9b691161017a578063475953bd11610149578063475953bd146104145780634d0b47d1146104305780635f3d06e9146104595780636352211e14610482576101e3565b806337fd9b691461035c578063393c775f1461038557806342842e0e146103c257806345e00ef4146103eb576101e3565b80630efe6a8b116101b65780630efe6a8b146102b65780631141d7de146102df57806323b872dd1461030a578063308fad6d14610333576101e3565b806301ffc9a7146101e857806306fdde0314610225578063081812fc14610250578063095ea7b31461028d575b600080fd5b3480156101f457600080fd5b5061020f600480360381019061020a9190613bde565b6107a8565b60405161021c9190613c26565b60405180910390f35b34801561023157600080fd5b5061023a61088a565b6040516102479190613cd1565b60405180910390f35b34801561025c57600080fd5b5061027760048036038101906102729190613d29565b61091c565b6040516102849190613d97565b60405180910390f35b34801561029957600080fd5b506102b460048036038101906102af9190613dde565b610962565b005b3480156102c257600080fd5b506102dd60048036038101906102d89190613e1e565b610a79565b005b3480156102eb57600080fd5b506102f4610dd2565b6040516103019190613cd1565b60405180910390f35b34801561031657600080fd5b50610331600480360381019061032c9190613e71565b610de1565b005b34801561033f57600080fd5b5061035a60048036038101906103559190613ffa565b610e41565b005b34801561036857600080fd5b50610383600480360381019061037e919061403a565b610fd2565b005b34801561039157600080fd5b506103ac60048036038101906103a79190613d29565b611231565b6040516103b99190614138565b60405180910390f35b3480156103ce57600080fd5b506103e960048036038101906103e49190613e71565b6112e5565b005b3480156103f757600080fd5b50610412600480360381019061040d9190613d29565b611305565b005b61042e6004803603810190610429919061418c565b6115e7565b005b34801561043c57600080fd5b50610457600480360381019061045291906141cc565b6117b0565b005b34801561046557600080fd5b50610480600480360381019061047b9190614233565b611b1e565b005b34801561048e57600080fd5b506104a960048036038101906104a49190613d29565b611c14565b6040516104b69190613d97565b60405180910390f35b3480156104cb57600080fd5b506104e660048036038101906104e19190613d29565b611c9a565b6040516104f4929190614282565b60405180910390f35b34801561050957600080fd5b50610524600480360381019061051f91906142ab565b611cd8565b60405161053191906142e7565b60405180910390f35b34801561054657600080fd5b5061054f611d8f565b005b34801561055d57600080fd5b506105786004803603810190610573919061403a565b611da3565b005b34801561058657600080fd5b506105a1600480360381019061059c91906142ab565b611f84565b005b3480156105af57600080fd5b506105ca60048036038101906105c59190614302565b611ff2565b005b3480156105d857600080fd5b506105e1612145565b6040516105ee9190613d97565b60405180910390f35b34801561060357600080fd5b5061060c61216f565b6040516106199190613cd1565b60405180910390f35b34801561062e57600080fd5b50610637612201565b60405161064491906142e7565b60405180910390f35b34801561065957600080fd5b50610674600480360381019061066f9190614381565b612210565b005b34801561068257600080fd5b5061069d60048036038101906106989190613e1e565b612226565b005b3480156106ab57600080fd5b506106c660048036038101906106c19190614476565b61259a565b005b3480156106d457600080fd5b506106ef60048036038101906106ea9190613d29565b6125fc565b6040516106fc9190613cd1565b60405180910390f35b34801561071157600080fd5b5061072c600480360381019061072791906144f9565b6126f9565b6040516107399190613c26565b60405180910390f35b34801561074e57600080fd5b5061076960048036038101906107649190613d29565b61278d565b6040516107769190614577565b60405180910390f35b34801561078b57600080fd5b506107a660048036038101906107a191906142ab565b6127f4565b005b60007f80ac58cd000000000000000000000000000000000000000000000000000000007bffffffffffffffffffffffffffffffffffffffffffffffffffffffff1916827bffffffffffffffffffffffffffffffffffffffffffffffffffffffff1916148061087357507f5b5e139f000000000000000000000000000000000000000000000000000000007bffffffffffffffffffffffffffffffffffffffffffffffffffffffff1916827bffffffffffffffffffffffffffffffffffffffffffffffffffffffff1916145b80610883575061088282612877565b5b9050919050565b606060008054610899906145c1565b80601f01602080910402602001604051908101604052809291908181526020018280546108c5906145c1565b80156109125780601f106108e757610100808354040283529160200191610912565b820191906000526020600020905b8154815290600101906020018083116108f557829003601f168201915b5050505050905090565b6000610927826128e1565b6004600083815260200190815260200160002060009054906101000a900473ffffffffffffffffffffffffffffffffffffffff169050919050565b600061096d82611c14565b90508073ffffffffffffffffffffffffffffffffffffffff168373ffffffffffffffffffffffffffffffffffffffff16036109dd576040517f08c379a00000000000000000000000000000000000000000000000000000000081526004016109d490614664565b60405180910390fd5b8073ffffffffffffffffffffffffffffffffffffffff166109fc61292c565b73ffffffffffffffffffffffffffffffffffffffff161480610a2b5750610a2a81610a2561292c565b6126f9565b5b610a6a576040517f08c379a0000000000000000000000000000000000000000000000000000000008152600401610a61906146f6565b60405180910390fd5b610a748383612934565b505050565b82600760009054906101000a900473ffffffffffffffffffffffffffffffffffffffff1673ffffffffffffffffffffffffffffffffffffffff168173ffffffffffffffffffffffffffffffffffffffff161480610b235750600860009054906101000a900473ffffffffffffffffffffffffffffffffffffffff1673ffffffffffffffffffffffffffffffffffffffff168173ffffffffffffffffffffffffffffffffffffffff16145b80610b7b5750600960009054906101000a900473ffffffffffffffffffffffffffffffffffffffff1673ffffffffffffffffffffffffffffffffffffffff168173ffffffffffffffffffffffffffffffffffffffff16145b80610bd35750600a60009054906101000a900473ffffffffffffffffffffffffffffffffffffffff1673ffffffffffffffffffffffffffffffffffffffff168173ffffffffffffffffffffffffffffffffffffffff16145b80610c2b5750600b60009054906101000a900473ffffffffffffffffffffffffffffffffffffffff1673ffffffffffffffffffffffffffffffffffffffff168173ffffffffffffffffffffffffffffffffffffffff16145b610c6a576040517f08c379a0000000000000000000000000000000000000000000000000000000008152600401610c6190614762565b60405180910390fd5b81610c7481611c14565b73ffffffffffffffffffffffffffffffffffffffff163373ffffffffffffffffffffffffffffffffffffffff1614610ce1576040517f08c379a0000000000000000000000000000000000000000000000000000000008152600401610cd8906147ce565b60405180910390fd5b600073ffffffffffffffffffffffffffffffffffffffff16610d02846129ed565b73ffffffffffffffffffffffffffffffffffffffff1603610d58576040517f08c379a0000000000000000000000000000000000000000000000000000000008152600401610d4f9061483a565b60405180910390fd5b610d6485333087612a2a565b83600f600085815260200190815260200160002060008773ffffffffffffffffffffffffffffffffffffffff1673ffffffffffffffffffffffffffffffffffffffff1681526020019081526020016000206000828254610dc49190614889565b925050819055505050505050565b6060610ddc612b82565b905090565b610df2610dec61292c565b82612ba2565b610e31576040517f08c379a0000000000000000000000000000000000000000000000000000000008152600401610e289061492f565b60405180910390fd5b610e3c838383612c37565b505050565b6000805b600c80549050811015610edf57600c8181548110610e6657610e6561494f565b5b9060005260206000200160009054906101000a900473ffffffffffffffffffffffffffffffffffffffff1673ffffffffffffffffffffffffffffffffffffffff163373ffffffffffffffffffffffffffffffffffffffff1603610ecc5760019150610edf565b8080610ed79061497e565b915050610e45565b506001151581151514610f27576040517f08c379a0000000000000000000000000000000000000000000000000000000008152600401610f1e90614a12565b60405180910390fd5b60005b6005811015610fcc57828160058110610f4657610f4561494f565b5b6020020151600f60008681526020019081526020016000206000610f6984612f30565b73ffffffffffffffffffffffffffffffffffffffff1673ffffffffffffffffffffffffffffffffffffffff1681526020019081526020016000206000828254610fb29190614a32565b925050819055508080610fc49061497e565b915050610f2a565b50505050565b6000805b600c8054905081101561107057600c8181548110610ff757610ff661494f565b5b9060005260206000200160009054906101000a900473ffffffffffffffffffffffffffffffffffffffff1673ffffffffffffffffffffffffffffffffffffffff163373ffffffffffffffffffffffffffffffffffffffff160361105d5760019150611070565b80806110689061497e565b915050610fd6565b5060011515811515146110b8576040517f08c379a00000000000000000000000000000000000000000000000000000000081526004016110af90614a12565b60405180910390fd5b60005b600581101561122a576000606484600f600088815260200190815260200160002060006110e786612f30565b73ffffffffffffffffffffffffffffffffffffffff1673ffffffffffffffffffffffffffffffffffffffff1681526020019081526020016000205461112c9190614a66565b6111369190614ad7565b905080600f6000878152602001908152602001600020600061115785612f30565b73ffffffffffffffffffffffffffffffffffffffff1673ffffffffffffffffffffffffffffffffffffffff16815260200190815260200160002060008282546111a09190614a32565b9250508190555080600f600088815260200190815260200160002060006111c685612f30565b73ffffffffffffffffffffffffffffffffffffffff1673ffffffffffffffffffffffffffffffffffffffff168152602001908152602001600020600082825461120f9190614889565b925050819055505080806112229061497e565b9150506110bb565b5050505050565b611239613b30565b611241613b30565b60005b60058110156112db576000600f6000868152602001908152602001600020600061126d84612f30565b73ffffffffffffffffffffffffffffffffffffffff1673ffffffffffffffffffffffffffffffffffffffff168152602001908152602001600020549050808383600581106112be576112bd61494f565b5b6020020181815250505080806112d39061497e565b915050611244565b5080915050919050565b6113008383836040518060200160405280600081525061259a565b505050565b69021e19e0c9bab2400000600f60008381526020019081526020016000206000600860009054906101000a900473ffffffffffffffffffffffffffffffffffffffff1673ffffffffffffffffffffffffffffffffffffffff1673ffffffffffffffffffffffffffffffffffffffff16815260200190815260200160002060008282546113919190614889565b9250508190555069021e19e0c9bab2400000600f60008381526020019081526020016000206000600760009054906101000a900473ffffffffffffffffffffffffffffffffffffffff1673ffffffffffffffffffffffffffffffffffffffff1673ffffffffffffffffffffffffffffffffffffffff16815260200190815260200160002060008282546114249190614889565b9250508190555069021e19e0c9bab2400000600f60008381526020019081526020016000206000600960009054906101000a900473ffffffffffffffffffffffffffffffffffffffff1673ffffffffffffffffffffffffffffffffffffffff1673ffffffffffffffffffffffffffffffffffffffff16815260200190815260200160002060008282546114b79190614889565b9250508190555069021e19e0c9bab2400000600f60008381526020019081526020016000206000600a60009054906101000a900473ffffffffffffffffffffffffffffffffffffffff1673ffffffffffffffffffffffffffffffffffffffff1673ffffffffffffffffffffffffffffffffffffffff168152602001908152602001600020600082825461154a9190614889565b9250508190555069021e19e0c9bab2400000600f60008381526020019081526020016000206000600b60009054906101000a900473ffffffffffffffffffffffffffffffffffffffff1673ffffffffffffffffffffffffffffffffffffffff1673ffffffffffffffffffffffffffffffffffffffff16815260200190815260200160002060008282546115dd9190614889565b9250508190555050565b818160006115f58383613075565b9050600073ffffffffffffffffffffffffffffffffffffffff16611618826129ed565b73ffffffffffffffffffffffffffffffffffffffff1614611665576040517f4cab46b100000000000000000000000000000000000000000000000000000000815260040160405180910390fd5b848460648260ff16108061167d57506103e78260ff16115b8061168b575060648160ff16105b8061169a57506103e78160ff16115b156116d1576040517f636beb5100000000000000000000000000000000000000000000000000000000815260040160405180910390fd5b66470de4df82000034101561171b576040517f08c379a000000000000000000000000000000000000000000000000000000000815260040161171290614b54565b60405180910390fd5b60006117278888613075565b905061173333826130d6565b60405180604001604052808960ff1681526020018860ff16815250600e600083815260200190815260200160002060008201518160000160006101000a81548160ff021916908360ff16021790555060208201518160000160016101000a81548160ff021916908360ff1602179055509050505050505050505050565b6117b984612f30565b600760009054906101000a900473ffffffffffffffffffffffffffffffffffffffff1673ffffffffffffffffffffffffffffffffffffffff168173ffffffffffffffffffffffffffffffffffffffff1614806118625750600860009054906101000a900473ffffffffffffffffffffffffffffffffffffffff1673ffffffffffffffffffffffffffffffffffffffff168173ffffffffffffffffffffffffffffffffffffffff16145b806118ba5750600960009054906101000a900473ffffffffffffffffffffffffffffffffffffffff1673ffffffffffffffffffffffffffffffffffffffff168173ffffffffffffffffffffffffffffffffffffffff16145b806119125750600a60009054906101000a900473ffffffffffffffffffffffffffffffffffffffff1673ffffffffffffffffffffffffffffffffffffffff168173ffffffffffffffffffffffffffffffffffffffff16145b8061196a5750600b60009054906101000a900473ffffffffffffffffffffffffffffffffffffffff1673ffffffffffffffffffffffffffffffffffffffff168173ffffffffffffffffffffffffffffffffffffffff16145b6119a9576040517f08c379a00000000000000000000000000000000000000000000000000000000081526004016119a090614762565b60405180910390fd5b826119b381611c14565b73ffffffffffffffffffffffffffffffffffffffff163373ffffffffffffffffffffffffffffffffffffffff1614611a20576040517f08c379a0000000000000000000000000000000000000000000000000000000008152600401611a17906147ce565b60405180910390fd5b84611a2a85611231565b8760058110611a3c57611a3b61494f565b5b60200201511015611a82576040517f08c379a0000000000000000000000000000000000000000000000000000000008152600401611a7990614bc0565b60405180910390fd5b6064600d546064611a939190614a32565b86611a9e9190614a66565b611aa89190614ad7565b600f60008581526020019081526020016000206000611ac689612f30565b73ffffffffffffffffffffffffffffffffffffffff1673ffffffffffffffffffffffffffffffffffffffff1681526020019081526020016000206000828254611b0f9190614889565b92505081905550505050505050565b611b266132f3565b60008210611b69576040517f08c379a0000000000000000000000000000000000000000000000000000000008152600401611b6090614c2c565b60405180910390fd5b605a8160ff161115611bb0576040517f08c379a0000000000000000000000000000000000000000000000000000000008152600401611ba790614c98565b60405180910390fd5b8060106000611bbe85612f30565b73ffffffffffffffffffffffffffffffffffffffff1673ffffffffffffffffffffffffffffffffffffffff16815260200190815260200160002060006101000a81548160ff021916908360ff1602179055505050565b600080611c20836129ed565b9050600073ffffffffffffffffffffffffffffffffffffffff168173ffffffffffffffffffffffffffffffffffffffff1603611c91576040517f08c379a0000000000000000000000000000000000000000000000000000000008152600401611c8890614d04565b60405180910390fd5b80915050919050565b600e6020528060005260406000206000915090508060000160009054906101000a900460ff16908060000160019054906101000a900460ff16905082565b60008073ffffffffffffffffffffffffffffffffffffffff168273ffffffffffffffffffffffffffffffffffffffff1603611d48576040517f08c379a0000000000000000000000000000000000000000000000000000000008152600401611d3f90614d96565b60405180910390fd5b600360008373ffffffffffffffffffffffffffffffffffffffff1673ffffffffffffffffffffffffffffffffffffffff168152602001908152602001600020549050919050565b611d976132f3565b611da16000613371565b565b6000805b600c80549050811015611e4157600c8181548110611dc857611dc761494f565b5b9060005260206000200160009054906101000a900473ffffffffffffffffffffffffffffffffffffffff1673ffffffffffffffffffffffffffffffffffffffff163373ffffffffffffffffffffffffffffffffffffffff1603611e2e5760019150611e41565b8080611e399061497e565b915050611da7565b506001151581151514611e89576040517f08c379a0000000000000000000000000000000000000000000000000000000008152600401611e8090614a12565b60405180910390fd5b600060106000611e9887612f30565b73ffffffffffffffffffffffffffffffffffffffff1673ffffffffffffffffffffffffffffffffffffffff16815260200190815260200160002060009054906101000a900460ff16905060006064826064611ef39190614db6565b60ff1686611f019190614a66565b611f0b9190614ad7565b905080600f60008681526020019081526020016000206000611f2c89612f30565b73ffffffffffffffffffffffffffffffffffffffff1673ffffffffffffffffffffffffffffffffffffffff1681526020019081526020016000206000828254611f759190614889565b92505081905550505050505050565b611f8c6132f3565b600c819080600181540180825580915050600190039060005260206000200160009091909190916101000a81548173ffffffffffffffffffffffffffffffffffffffff021916908373ffffffffffffffffffffffffffffffffffffffff16021790555050565b6000805b600c8054905081101561209057600c81815481106120175761201661494f565b5b9060005260206000200160009054906101000a900473ffffffffffffffffffffffffffffffffffffffff1673ffffffffffffffffffffffffffffffffffffffff163373ffffffffffffffffffffffffffffffffffffffff160361207d5760019150612090565b80806120889061497e565b915050611ff6565b5060011515811515146120d8576040517f08c379a00000000000000000000000000000000000000000000000000000000081526004016120cf90614a12565b60405180910390fd5b81600f600086815260200190815260200160002060008573ffffffffffffffffffffffffffffffffffffffff1673ffffffffffffffffffffffffffffffffffffffff16815260200190815260200160002060008282546121389190614a32565b9250508190555050505050565b6000600660009054906101000a900473ffffffffffffffffffffffffffffffffffffffff16905090565b60606001805461217e906145c1565b80601f01602080910402602001604051908101604052809291908181526020018280546121aa906145c1565b80156121f75780601f106121cc576101008083540402835291602001916121f7565b820191906000526020600020905b8154815290600101906020018083116121da57829003601f168201915b5050505050905090565b600066470de4df820000905090565b61222261221b61292c565b8383613437565b5050565b82600760009054906101000a900473ffffffffffffffffffffffffffffffffffffffff1673ffffffffffffffffffffffffffffffffffffffff168173ffffffffffffffffffffffffffffffffffffffff1614806122d05750600860009054906101000a900473ffffffffffffffffffffffffffffffffffffffff1673ffffffffffffffffffffffffffffffffffffffff168173ffffffffffffffffffffffffffffffffffffffff16145b806123285750600960009054906101000a900473ffffffffffffffffffffffffffffffffffffffff1673ffffffffffffffffffffffffffffffffffffffff168173ffffffffffffffffffffffffffffffffffffffff16145b806123805750600a60009054906101000a900473ffffffffffffffffffffffffffffffffffffffff1673ffffffffffffffffffffffffffffffffffffffff168173ffffffffffffffffffffffffffffffffffffffff16145b806123d85750600b60009054906101000a900473ffffffffffffffffffffffffffffffffffffffff1673ffffffffffffffffffffffffffffffffffffffff168173ffffffffffffffffffffffffffffffffffffffff16145b612417576040517f08c379a000000000000000000000000000000000000000000000000000000000815260040161240e90614762565b60405180910390fd5b8161242181611c14565b73ffffffffffffffffffffffffffffffffffffffff163373ffffffffffffffffffffffffffffffffffffffff161461248e576040517f08c379a0000000000000000000000000000000000000000000000000000000008152600401612485906147ce565b60405180910390fd5b83600f600085815260200190815260200160002060008773ffffffffffffffffffffffffffffffffffffffff1673ffffffffffffffffffffffffffffffffffffffff168152602001908152602001600020541015612521576040517f08c379a000000000000000000000000000000000000000000000000000000000815260040161251890614bc0565b60405180910390fd5b83600f600085815260200190815260200160002060008773ffffffffffffffffffffffffffffffffffffffff1673ffffffffffffffffffffffffffffffffffffffff16815260200190815260200160002060008282546125819190614a32565b925050819055506125938533866135a3565b5050505050565b6125ab6125a561292c565b83612ba2565b6125ea576040517f08c379a00000000000000000000000000000000000000000000000000000000081526004016125e19061492f565b60405180910390fd5b6125f6848484846136f8565b50505050565b606061260782613754565b612646576040517f08c379a000000000000000000000000000000000000000000000000000000000815260040161263d90614e5d565b60405180910390fd5b6000612650612b82565b9050600081511161267057604051806020016040528060008152506126f1565b61269f600e600085815260200190815260200160002060000160009054906101000a900460ff1660ff16613795565b6126ce600e600086815260200190815260200160002060000160019054906101000a900460ff1660ff16613795565b826040516020016126e193929190614eb9565b6040516020818303038152906040525b915050919050565b6000600560008473ffffffffffffffffffffffffffffffffffffffff1673ffffffffffffffffffffffffffffffffffffffff16815260200190815260200160002060008373ffffffffffffffffffffffffffffffffffffffff1673ffffffffffffffffffffffffffffffffffffffff16815260200190815260200160002060009054906101000a900460ff16905092915050565b612795613b52565b600e60008381526020019081526020016000206040518060400160405290816000820160009054906101000a900460ff1660ff1660ff1681526020016000820160019054906101000a900460ff1660ff1660ff16815250509050919050565b6127fc6132f3565b600073ffffffffffffffffffffffffffffffffffffffff168173ffffffffffffffffffffffffffffffffffffffff160361286b576040517f08c379a000000000000000000000000000000000000000000000000000000000815260040161286290614f5c565b60405180910390fd5b61287481613371565b50565b60007f01ffc9a7000000000000000000000000000000000000000000000000000000007bffffffffffffffffffffffffffffffffffffffffffffffffffffffff1916827bffffffffffffffffffffffffffffffffffffffffffffffffffffffff1916149050919050565b6128ea81613754565b612929576040517f08c379a000000000000000000000000000000000000000000000000000000000815260040161292090614d04565b60405180910390fd5b50565b600033905090565b816004600083815260200190815260200160002060006101000a81548173ffffffffffffffffffffffffffffffffffffffff021916908373ffffffffffffffffffffffffffffffffffffffff160217905550808273ffffffffffffffffffffffffffffffffffffffff166129a783611c14565b73ffffffffffffffffffffffffffffffffffffffff167f8c5be1e5ebec7d5bd14f71427d1e84f3dd0314c0f7b2291e5b200ac8c7c3b92560405160405180910390a45050565b60006002600083815260200190815260200160002060009054906101000a900473ffffffffffffffffffffffffffffffffffffffff169050919050565b6000808573ffffffffffffffffffffffffffffffffffffffff166323b872dd60e01b868686604051602401612a6193929190614f7c565b604051602081830303815290604052907bffffffffffffffffffffffffffffffffffffffffffffffffffffffff19166020820180517bffffffffffffffffffffffffffffffffffffffffffffffffffffffff8381831617835250505050604051612acb9190614ffa565b6000604051808303816000865af19150503d8060008114612b08576040519150601f19603f3d011682016040523d82523d6000602084013e612b0d565b606091505b5091509150818015612b3b5750600081511480612b3a575080806020019051810190612b399190615026565b5b5b612b7a576040517f08c379a0000000000000000000000000000000000000000000000000000000008152600401612b719061509f565b60405180910390fd5b505050505050565b60606040518060800160405280604381526020016155e860439139905090565b600080612bae83611c14565b90508073ffffffffffffffffffffffffffffffffffffffff168473ffffffffffffffffffffffffffffffffffffffff161480612bf05750612bef81856126f9565b5b80612c2e57508373ffffffffffffffffffffffffffffffffffffffff16612c168461091c565b73ffffffffffffffffffffffffffffffffffffffff16145b91505092915050565b8273ffffffffffffffffffffffffffffffffffffffff16612c5782611c14565b73ffffffffffffffffffffffffffffffffffffffff1614612cad576040517f08c379a0000000000000000000000000000000000000000000000000000000008152600401612ca490615131565b60405180910390fd5b600073ffffffffffffffffffffffffffffffffffffffff168273ffffffffffffffffffffffffffffffffffffffff1603612d1c576040517f08c379a0000000000000000000000000000000000000000000000000000000008152600401612d13906151c3565b60405180910390fd5b612d2983838360016138f5565b8273ffffffffffffffffffffffffffffffffffffffff16612d4982611c14565b73ffffffffffffffffffffffffffffffffffffffff1614612d9f576040517f08c379a0000000000000000000000000000000000000000000000000000000008152600401612d9690615131565b60405180910390fd5b6004600082815260200190815260200160002060006101000a81549073ffffffffffffffffffffffffffffffffffffffff02191690556001600360008573ffffffffffffffffffffffffffffffffffffffff1673ffffffffffffffffffffffffffffffffffffffff168152602001908152602001600020600082825403925050819055506001600360008473ffffffffffffffffffffffffffffffffffffffff1673ffffffffffffffffffffffffffffffffffffffff16815260200190815260200160002060008282540192505081905550816002600083815260200190815260200160002060006101000a81548173ffffffffffffffffffffffffffffffffffffffff021916908373ffffffffffffffffffffffffffffffffffffffff160217905550808273ffffffffffffffffffffffffffffffffffffffff168473ffffffffffffffffffffffffffffffffffffffff167fddf252ad1be2c89b69c2b068fc378daa952ba7f163c4a11628f55a4df523b3ef60405160405180910390a4612f2b83838360016138fb565b505050565b600060058210612f75576040517f08c379a0000000000000000000000000000000000000000000000000000000008152600401612f6c90614c2c565b60405180910390fd5b60008203612fa757600760009054906101000a900473ffffffffffffffffffffffffffffffffffffffff169050613070565b60018203612fd957600860009054906101000a900473ffffffffffffffffffffffffffffffffffffffff169050613070565b6002820361300b57600960009054906101000a900473ffffffffffffffffffffffffffffffffffffffff169050613070565b6003820361303d57600a60009054906101000a900473ffffffffffffffffffffffffffffffffffffffff169050613070565b6004820361306f57600b60009054906101000a900473ffffffffffffffffffffffffffffffffffffffff169050613070565b5b919050565b6000806130848460ff16613795565b905060006130948460ff16613795565b9050600082826040516020016130ab9291906151e3565b604051602081830303815290604052905060006130c782613901565b90508094505050505092915050565b600073ffffffffffffffffffffffffffffffffffffffff168273ffffffffffffffffffffffffffffffffffffffff1603613145576040517f08c379a000000000000000000000000000000000000000000000000000000000815260040161313c90615253565b60405180910390fd5b61314e81613754565b1561318e576040517f08c379a0000000000000000000000000000000000000000000000000000000008152600401613185906152bf565b60405180910390fd5b61319c6000838360016138f5565b6131a581613754565b156131e5576040517f08c379a00000000000000000000000000000000000000000000000000000000081526004016131dc906152bf565b60405180910390fd5b6001600360008473ffffffffffffffffffffffffffffffffffffffff1673ffffffffffffffffffffffffffffffffffffffff16815260200190815260200160002060008282540192505081905550816002600083815260200190815260200160002060006101000a81548173ffffffffffffffffffffffffffffffffffffffff021916908373ffffffffffffffffffffffffffffffffffffffff160217905550808273ffffffffffffffffffffffffffffffffffffffff16600073ffffffffffffffffffffffffffffffffffffffff167fddf252ad1be2c89b69c2b068fc378daa952ba7f163c4a11628f55a4df523b3ef60405160405180910390a46132ef6000838360016138fb565b5050565b6132fb61292c565b73ffffffffffffffffffffffffffffffffffffffff16613319612145565b73ffffffffffffffffffffffffffffffffffffffff161461336f576040517f08c379a00000000000000000000000000000000000000000000000000000000081526004016133669061532b565b60405180910390fd5b565b6000600660009054906101000a900473ffffffffffffffffffffffffffffffffffffffff16905081600660006101000a81548173ffffffffffffffffffffffffffffffffffffffff021916908373ffffffffffffffffffffffffffffffffffffffff1602179055508173ffffffffffffffffffffffffffffffffffffffff168173ffffffffffffffffffffffffffffffffffffffff167f8be0079c531659141344cd1fd0a4f28419497f9722a3daafe3b4186f6b6457e060405160405180910390a35050565b8173ffffffffffffffffffffffffffffffffffffffff168373ffffffffffffffffffffffffffffffffffffffff16036134a5576040517f08c379a000000000000000000000000000000000000000000000000000000000815260040161349c90615397565b60405180910390fd5b80600560008573ffffffffffffffffffffffffffffffffffffffff1673ffffffffffffffffffffffffffffffffffffffff16815260200190815260200160002060008473ffffffffffffffffffffffffffffffffffffffff1673ffffffffffffffffffffffffffffffffffffffff16815260200190815260200160002060006101000a81548160ff0219169083151502179055508173ffffffffffffffffffffffffffffffffffffffff168373ffffffffffffffffffffffffffffffffffffffff167f17307eab39ab6107e8899845ad3d59bd9653f200f220920489ca2b5937696c31836040516135969190613c26565b60405180910390a3505050565b6000808473ffffffffffffffffffffffffffffffffffffffff1663a9059cbb60e01b85856040516024016135d89291906153b7565b604051602081830303815290604052907bffffffffffffffffffffffffffffffffffffffffffffffffffffffff19166020820180517bffffffffffffffffffffffffffffffffffffffffffffffffffffffff83818316178352505050506040516136429190614ffa565b6000604051808303816000865af19150503d806000811461367f576040519150601f19603f3d011682016040523d82523d6000602084013e613684565b606091505b50915091508180156136b257506000815114806136b15750808060200190518101906136b09190615026565b5b5b6136f1576040517f08c379a00000000000000000000000000000000000000000000000000000000081526004016136e89061542c565b60405180910390fd5b5050505050565b613703848484612c37565b61370f84848484613986565b61374e576040517f08c379a0000000000000000000000000000000000000000000000000000000008152600401613745906154be565b60405180910390fd5b50505050565b60008073ffffffffffffffffffffffffffffffffffffffff16613776836129ed565b73ffffffffffffffffffffffffffffffffffffffff1614159050919050565b6060600082036137dc576040518060400160405280600181526020017f300000000000000000000000000000000000000000000000000000000000000081525090506138f0565b600082905060005b6000821461380e5780806137f79061497e565b915050600a826138079190614ad7565b91506137e4565b60008167ffffffffffffffff81111561382a57613829613ec9565b5b6040519080825280601f01601f19166020018201604052801561385c5781602001600182028036833780820191505090505b5090505b600085146138e9576001826138759190614a32565b9150600a8561388491906154de565b60306138909190614889565b60f81b8183815181106138a6576138a561494f565b5b60200101907effffffffffffffffffffffffffffffffffffffffffffffffffffffffffffff1916908160001a905350600a856138e29190614ad7565b9450613860565b8093505050505b919050565b50505050565b50505050565b60008060009050600083905060005b815181101561397b57600060308383815181106139305761392f61494f565b5b602001015160f81c60f81b60f81c60ff1661394b9190614a32565b905080600a8561395b9190614a66565b6139659190614889565b93505080806139739061497e565b915050613910565b508192505050919050565b60006139a78473ffffffffffffffffffffffffffffffffffffffff16613b0d565b15613b00578373ffffffffffffffffffffffffffffffffffffffff1663150b7a026139d061292c565b8786866040518563ffffffff1660e01b81526004016139f29493929190615559565b6020604051808303816000875af1925050508015613a2e57506040513d601f19601f82011682018060405250810190613a2b91906155ba565b60015b613ab0573d8060008114613a5e576040519150601f19603f3d011682016040523d82523d6000602084013e613a63565b606091505b506000815103613aa8576040517f08c379a0000000000000000000000000000000000000000000000000000000008152600401613a9f906154be565b60405180910390fd5b805181602001fd5b63150b7a0260e01b7bffffffffffffffffffffffffffffffffffffffffffffffffffffffff1916817bffffffffffffffffffffffffffffffffffffffffffffffffffffffff191614915050613b05565b600190505b949350505050565b6000808273ffffffffffffffffffffffffffffffffffffffff163b119050919050565b6040518060a00160405280600590602082028036833780820191505090505090565b6040518060400160405280600060ff168152602001600060ff1681525090565b6000604051905090565b600080fd5b600080fd5b60007fffffffff0000000000000000000000000000000000000000000000000000000082169050919050565b613bbb81613b86565b8114613bc657600080fd5b50565b600081359050613bd881613bb2565b92915050565b600060208284031215613bf457613bf3613b7c565b5b6000613c0284828501613bc9565b91505092915050565b60008115159050919050565b613c2081613c0b565b82525050565b6000602082019050613c3b6000830184613c17565b92915050565b600081519050919050565b600082825260208201905092915050565b60005b83811015613c7b578082015181840152602081019050613c60565b60008484015250505050565b6000601f19601f8301169050919050565b6000613ca382613c41565b613cad8185613c4c565b9350613cbd818560208601613c5d565b613cc681613c87565b840191505092915050565b60006020820190508181036000830152613ceb8184613c98565b905092915050565b6000819050919050565b613d0681613cf3565b8114613d1157600080fd5b50565b600081359050613d2381613cfd565b92915050565b600060208284031215613d3f57613d3e613b7c565b5b6000613d4d84828501613d14565b91505092915050565b600073ffffffffffffffffffffffffffffffffffffffff82169050919050565b6000613d8182613d56565b9050919050565b613d9181613d76565b82525050565b6000602082019050613dac6000830184613d88565b92915050565b613dbb81613d76565b8114613dc657600080fd5b50565b600081359050613dd881613db2565b92915050565b60008060408385031215613df557613df4613b7c565b5b6000613e0385828601613dc9565b9250506020613e1485828601613d14565b9150509250929050565b600080600060608486031215613e3757613e36613b7c565b5b6000613e4586828701613dc9565b9350506020613e5686828701613d14565b9250506040613e6786828701613d14565b9150509250925092565b600080600060608486031215613e8a57613e89613b7c565b5b6000613e9886828701613dc9565b9350506020613ea986828701613dc9565b9250506040613eba86828701613d14565b9150509250925092565b600080fd5b7f4e487b7100000000000000000000000000000000000000000000000000000000600052604160045260246000fd5b613f0182613c87565b810181811067ffffffffffffffff82111715613f2057613f1f613ec9565b5b80604052505050565b6000613f33613b72565b9050613f3f8282613ef8565b919050565b600067ffffffffffffffff821115613f5f57613f5e613ec9565b5b602082029050919050565b600080fd5b6000613f82613f7d84613f44565b613f29565b90508060208402830185811115613f9c57613f9b613f6a565b5b835b81811015613fc55780613fb18882613d14565b845260208401935050602081019050613f9e565b5050509392505050565b600082601f830112613fe457613fe3613ec4565b5b6005613ff1848285613f6f565b91505092915050565b60008060c0838503121561401157614010613b7c565b5b600061401f85828601613d14565b925050602061403085828601613fcf565b9150509250929050565b60008060006060848603121561405357614052613b7c565b5b600061406186828701613d14565b935050602061407286828701613d14565b925050604061408386828701613d14565b9150509250925092565b600060059050919050565b600081905092915050565b6000819050919050565b6140b681613cf3565b82525050565b60006140c883836140ad565b60208301905092915050565b6000602082019050919050565b6140ea8161408d565b6140f48184614098565b92506140ff826140a3565b8060005b8381101561413057815161411787826140bc565b9650614122836140d4565b925050600181019050614103565b505050505050565b600060a08201905061414d60008301846140e1565b92915050565b600060ff82169050919050565b61416981614153565b811461417457600080fd5b50565b60008135905061418681614160565b92915050565b600080604083850312156141a3576141a2613b7c565b5b60006141b185828601614177565b92505060206141c285828601614177565b9150509250929050565b600080600080608085870312156141e6576141e5613b7c565b5b60006141f487828801613d14565b945050602061420587828801613d14565b935050604061421687828801613d14565b925050606061422787828801613d14565b91505092959194509250565b6000806040838503121561424a57614249613b7c565b5b600061425885828601613d14565b925050602061426985828601614177565b9150509250929050565b61427c81614153565b82525050565b60006040820190506142976000830185614273565b6142a46020830184614273565b9392505050565b6000602082840312156142c1576142c0613b7c565b5b60006142cf84828501613dc9565b91505092915050565b6142e181613cf3565b82525050565b60006020820190506142fc60008301846142d8565b92915050565b60008060006060848603121561431b5761431a613b7c565b5b600061432986828701613d14565b935050602061433a86828701613dc9565b925050604061434b86828701613d14565b9150509250925092565b61435e81613c0b565b811461436957600080fd5b50565b60008135905061437b81614355565b92915050565b6000806040838503121561439857614397613b7c565b5b60006143a685828601613dc9565b92505060206143b78582860161436c565b9150509250929050565b600080fd5b600067ffffffffffffffff8211156143e1576143e0613ec9565b5b6143ea82613c87565b9050602081019050919050565b82818337600083830152505050565b6000614419614414846143c6565b613f29565b905082815260208101848484011115614435576144346143c1565b5b6144408482856143f7565b509392505050565b600082601f83011261445d5761445c613ec4565b5b813561446d848260208601614406565b91505092915050565b600080600080608085870312156144905761448f613b7c565b5b600061449e87828801613dc9565b94505060206144af87828801613dc9565b93505060406144c087828801613d14565b925050606085013567ffffffffffffffff8111156144e1576144e0613b81565b5b6144ed87828801614448565b91505092959194509250565b600080604083850312156145105761450f613b7c565b5b600061451e85828601613dc9565b925050602061452f85828601613dc9565b9150509250929050565b61454281614153565b82525050565b60408201600082015161455e6000850182614539565b5060208201516145716020850182614539565b50505050565b600060408201905061458c6000830184614548565b92915050565b7f4e487b7100000000000000000000000000000000000000000000000000000000600052602260045260246000fd5b600060028204905060018216806145d957607f821691505b6020821081036145ec576145eb614592565b5b50919050565b7f4552433732313a20617070726f76616c20746f2063757272656e74206f776e6560008201527f7200000000000000000000000000000000000000000000000000000000000000602082015250565b600061464e602183613c4c565b9150614659826145f2565b604082019050919050565b6000602082019050818103600083015261467d81614641565b9050919050565b7f4552433732313a20617070726f76652063616c6c6572206973206e6f7420746f60008201527f6b656e206f776e6572206f7220617070726f76656420666f7220616c6c000000602082015250565b60006146e0603d83613c4c565b91506146eb82614684565b604082019050919050565b6000602082019050818103600083015261470f816146d3565b9050919050565b7f41646472657373206973206e6f7420636f6d6d6f646974790000000000000000600082015250565b600061474c601883613c4c565b915061475782614716565b602082019050919050565b6000602082019050818103600083015261477b8161473f565b9050919050565b7f4e6f74206f776e65720000000000000000000000000000000000000000000000600082015250565b60006147b8600983613c4c565b91506147c382614782565b602082019050919050565b600060208201905081810360008301526147e7816147ab565b9050919050565b7f496e76616c6964206c616e640000000000000000000000000000000000000000600082015250565b6000614824600c83613c4c565b915061482f826147ee565b602082019050919050565b6000602082019050818103600083015261485381614817565b9050919050565b7f4e487b7100000000000000000000000000000000000000000000000000000000600052601160045260246000fd5b600061489482613cf3565b915061489f83613cf3565b92508282019050808211156148b7576148b661485a565b5b92915050565b7f4552433732313a2063616c6c6572206973206e6f7420746f6b656e206f776e6560008201527f72206f7220617070726f76656400000000000000000000000000000000000000602082015250565b6000614919602d83613c4c565b9150614924826148bd565b604082019050919050565b600060208201905081810360008301526149488161490c565b9050919050565b7f4e487b7100000000000000000000000000000000000000000000000000000000600052603260045260246000fd5b600061498982613cf3565b91507fffffffffffffffffffffffffffffffffffffffffffffffffffffffffffffffff82036149bb576149ba61485a565b5b600182019050919050565b7f41646472657373206e6f7420617574686f72697a656400000000000000000000600082015250565b60006149fc601683613c4c565b9150614a07826149c6565b602082019050919050565b60006020820190508181036000830152614a2b816149ef565b9050919050565b6000614a3d82613cf3565b9150614a4883613cf3565b9250828203905081811115614a6057614a5f61485a565b5b92915050565b6000614a7182613cf3565b9150614a7c83613cf3565b9250828202614a8a81613cf3565b91508282048414831517614aa157614aa061485a565b5b5092915050565b7f4e487b7100000000000000000000000000000000000000000000000000000000600052601260045260246000fd5b6000614ae282613cf3565b9150614aed83613cf3565b925082614afd57614afc614aa8565b5b828204905092915050565b7f6d73672e76616c7565206c657373207468616e206c616e642070726963650000600082015250565b6000614b3e601e83613c4c565b9150614b4982614b08565b602082019050919050565b60006020820190508181036000830152614b6d81614b31565b9050919050565b7f496e73756666696369656e742062616c616e6365000000000000000000000000600082015250565b6000614baa601483613c4c565b9150614bb582614b74565b602082019050919050565b60006020820190508181036000830152614bd981614b9d565b9050919050565b7f496e76616c696420696e64657800000000000000000000000000000000000000600082015250565b6000614c16600d83613c4c565b9150614c2182614be0565b602082019050919050565b60006020820190508181036000830152614c4581614c09565b9050919050565b7f426967676572207468616e206d6178696d756d20646966666963756c74790000600082015250565b6000614c82601e83613c4c565b9150614c8d82614c4c565b602082019050919050565b60006020820190508181036000830152614cb181614c75565b9050919050565b7f4552433732313a20696e76616c696420746f6b656e2049440000000000000000600082015250565b6000614cee601883613c4c565b9150614cf982614cb8565b602082019050919050565b60006020820190508181036000830152614d1d81614ce1565b9050919050565b7f4552433732313a2061646472657373207a65726f206973206e6f74206120766160008201527f6c6964206f776e65720000000000000000000000000000000000000000000000602082015250565b6000614d80602983613c4c565b9150614d8b82614d24565b604082019050919050565b60006020820190508181036000830152614daf81614d73565b9050919050565b6000614dc182614153565b9150614dcc83614153565b9250828203905060ff811115614de557614de461485a565b5b92915050565b7f4552433732314d657461646174613a2055524920717565727920666f72206e6f60008201527f6e6578697374656e7420746f6b656e0000000000000000000000000000000000602082015250565b6000614e47602f83613c4c565b9150614e5282614deb565b604082019050919050565b60006020820190508181036000830152614e7681614e3a565b9050919050565b600081905092915050565b6000614e9382613c41565b614e9d8185614e7d565b9350614ead818560208601613c5d565b80840191505092915050565b6000614ec58286614e88565b9150614ed18285614e88565b9150614edd8284614e88565b9150819050949350505050565b7f4f776e61626c653a206e6577206f776e657220697320746865207a65726f206160008201527f6464726573730000000000000000000000000000000000000000000000000000602082015250565b6000614f46602683613c4c565b9150614f5182614eea565b604082019050919050565b60006020820190508181036000830152614f7581614f39565b9050919050565b6000606082019050614f916000830186613d88565b614f9e6020830185613d88565b614fab60408301846142d8565b949350505050565b600081519050919050565b600081905092915050565b6000614fd482614fb3565b614fde8185614fbe565b9350614fee818560208601613c5d565b80840191505092915050565b60006150068284614fc9565b915081905092915050565b60008151905061502081614355565b92915050565b60006020828403121561503c5761503b613b7c565b5b600061504a84828501615011565b91505092915050565b7f5354460000000000000000000000000000000000000000000000000000000000600082015250565b6000615089600383613c4c565b915061509482615053565b602082019050919050565b600060208201905081810360008301526150b88161507c565b9050919050565b7f4552433732313a207472616e736665722066726f6d20696e636f72726563742060008201527f6f776e6572000000000000000000000000000000000000000000000000000000602082015250565b600061511b602583613c4c565b9150615126826150bf565b604082019050919050565b6000602082019050818103600083015261514a8161510e565b9050919050565b7f4552433732313a207472616e7366657220746f20746865207a65726f2061646460008201527f7265737300000000000000000000000000000000000000000000000000000000602082015250565b60006151ad602483613c4c565b91506151b882615151565b604082019050919050565b600060208201905081810360008301526151dc816151a0565b9050919050565b60006151ef8285614e88565b91506151fb8284614e88565b91508190509392505050565b7f4552433732313a206d696e7420746f20746865207a65726f2061646472657373600082015250565b600061523d602083613c4c565b915061524882615207565b602082019050919050565b6000602082019050818103600083015261526c81615230565b9050919050565b7f4552433732313a20746f6b656e20616c7265616479206d696e74656400000000600082015250565b60006152a9601c83613c4c565b91506152b482615273565b602082019050919050565b600060208201905081810360008301526152d88161529c565b9050919050565b7f4f776e61626c653a2063616c6c6572206973206e6f7420746865206f776e6572600082015250565b6000615315602083613c4c565b9150615320826152df565b602082019050919050565b6000602082019050818103600083015261534481615308565b9050919050565b7f4552433732313a20617070726f766520746f2063616c6c657200000000000000600082015250565b6000615381601983613c4c565b915061538c8261534b565b602082019050919050565b600060208201905081810360008301526153b081615374565b9050919050565b60006040820190506153cc6000830185613d88565b6153d960208301846142d8565b9392505050565b7f5354000000000000000000000000000000000000000000000000000000000000600082015250565b6000615416600283613c4c565b9150615421826153e0565b602082019050919050565b6000602082019050818103600083015261544581615409565b9050919050565b7f4552433732313a207472616e7366657220746f206e6f6e20455243373231526560008201527f63656976657220696d706c656d656e7465720000000000000000000000000000602082015250565b60006154a8603283613c4c565b91506154b38261544c565b604082019050919050565b600060208201905081810360008301526154d78161549b565b9050919050565b60006154e982613cf3565b91506154f483613cf3565b92508261550457615503614aa8565b5b828206905092915050565b600082825260208201905092915050565b600061552b82614fb3565b615535818561550f565b9350615545818560208601613c5d565b61554e81613c87565b840191505092915050565b600060808201905061556e6000830187613d88565b61557b6020830186613d88565b61558860408301856142d8565b818103606083015261559a8184615520565b905095945050505050565b6000815190506155b481613bb2565b92915050565b6000602082840312156155d0576155cf613b7c565b5b60006155de848285016155a5565b9150509291505056fe68747470733a2f2f697066732e696f2f697066732f516d617a314e694672666958533942636b484e79537a646d6b707135475469725532526f547434536a693868646da26469706673582212208015286fc90449679a45b79a0f01754525076ec151bced1451763dec8fc990cd64736f6c63430008130033",
  "linkReferences": {},
  "deployedLinkReferences": {}
}