{
    "_format": "hh-sol-artifact-1",
    "contractName": "Army",
    "sourceName": "contracts/Army.sol",
    "abi": [
        {
            "inputs": [
                {
                    "internalType": "address",
                    "name": "landsContractAddress",
                    "type": "address"
                }
            ],
            "stateMutability": "nonpayable",
            "type": "constructor"
        },
        {
            "anonymous": false,
            "inputs": [
                {
                    "indexed": true,
                    "internalType": "address",
                    "name": "previousOwner",
                    "type": "address"
                },
                {
                    "indexed": true,
                    "internalType": "address",
                    "name": "newOwner",
                    "type": "address"
                }
            ],
            "name": "OwnershipTransferred",
            "type": "event"
        },
        {
            "inputs": [
                {
                    "internalType": "uint256[]",
                    "name": "warriorsAmounts",
                    "type": "uint256[]"
                },
                {
                    "internalType": "uint256",
                    "name": "attackerId",
                    "type": "uint256"
                },
                {
                    "internalType": "uint256",
                    "name": "targetId",
                    "type": "uint256"
                }
            ],
            "name": "attack",
            "outputs": [
                {
                    "internalType": "bool",
                    "name": "",
                    "type": "bool"
                }
            ],
            "stateMutability": "nonpayable",
            "type": "function"
        },
        {
            "inputs": [
                {
                    "internalType": "uint256",
                    "name": "landId",
                    "type": "uint256"
                }
            ],
            "name": "buildBarracks",
            "outputs": [],
            "stateMutability": "nonpayable",
            "type": "function"
        },
        {
            "inputs": [
                {
                    "internalType": "uint256",
                    "name": "landId",
                    "type": "uint256"
                },
                {
                    "internalType": "uint256",
                    "name": "typeIndex",
                    "type": "uint256"
                },
                {
                    "internalType": "uint256",
                    "name": "amount",
                    "type": "uint256"
                }
            ],
            "name": "buildWarrior",
            "outputs": [],
            "stateMutability": "nonpayable",
            "type": "function"
        },
        {
            "inputs": [
                {
                    "internalType": "uint256",
                    "name": "landId",
                    "type": "uint256"
                }
            ],
            "name": "getArmy",
            "outputs": [
                {
                    "internalType": "uint256[]",
                    "name": "",
                    "type": "uint256[]"
                }
            ],
            "stateMutability": "view",
            "type": "function"
        },
        {
            "inputs": [],
            "name": "owner",
            "outputs": [
                {
                    "internalType": "address",
                    "name": "",
                    "type": "address"
                }
            ],
            "stateMutability": "view",
            "type": "function"
        },
        {
            "inputs": [],
            "name": "renounceOwnership",
            "outputs": [],
            "stateMutability": "nonpayable",
            "type": "function"
        },
        {
            "inputs": [
                {
                    "internalType": "address",
                    "name": "newOwner",
                    "type": "address"
                }
            ],
            "name": "transferOwnership",
            "outputs": [],
            "stateMutability": "nonpayable",
            "type": "function"
        },
        {
            "inputs": [
                {
                    "internalType": "uint8[3]",
                    "name": "physicalInfo",
                    "type": "uint8[3]"
                },
                {
                    "internalType": "string",
                    "name": "imageURL",
                    "type": "string"
                },
                {
                    "internalType": "string",
                    "name": "name",
                    "type": "string"
                },
                {
                    "internalType": "uint256",
                    "name": "price",
                    "type": "uint256"
                },
                {
                    "internalType": "uint256",
                    "name": "typeIndex",
                    "type": "uint256"
                }
            ],
            "name": "updateType",
            "outputs": [],
            "stateMutability": "nonpayable",
            "type": "function"
        }
    ],
    "bytecode": "0x60806040526040518060a001604052806802b5e3af16b188000068ffffffffffffffffff1681526020016802b5e3af16b188000068ffffffffffffffffff1681526020016802b5e3af16b188000068ffffffffffffffffff16815260200168056bc75e2d6310000068ffffffffffffffffff1681526020016802b5e3af16b188000068ffffffffffffffffff168152506002906005620000a192919062000614565b50348015620000af57600080fd5b50604051620033ed380380620033ed8339818101604052810190620000d59190620006ef565b620000f5620000e96200054860201b60201c565b6200055060201b60201c565b60096040518060c00160405280603c60ff168152602001605a60ff168152602001608c60ff168152602001604051806080016040528060438152602001620033aa6043913981526020016040518060400160405280600981526020017f5370656172206d616e00000000000000000000000000000000000000000000008152508152602001674563918244f40000815250908060018154018082558091505060019003906000526020600020906004020160009091909190915060008201518160000160006101000a81548160ff021916908360ff16021790555060208201518160000160016101000a81548160ff021916908360ff16021790555060408201518160000160026101000a81548160ff021916908360ff16021790555060608201518160010190816200022991906200099b565b5060808201518160020190816200024191906200099b565b5060a08201518160030155505060096040518060c00160405280605a60ff168152602001604660ff16815260200160c860ff168152602001604051806080016040528060438152602001620033246043913981526020016040518060400160405280600981526020017f53776f7264736d616e00000000000000000000000000000000000000000000008152508152602001676f05b59d3b200000815250908060018154018082558091505060019003906000526020600020906004020160009091909190915060008201518160000160006101000a81548160ff021916908360ff16021790555060208201518160000160016101000a81548160ff021916908360ff16021790555060408201518160000160026101000a81548160ff021916908360ff16021790555060608201518160010190816200038291906200099b565b5060808201518160020190816200039a91906200099b565b5060a08201518160030155505060096040518060c00160405280602860ff168152602001603c60ff168152602001605060ff168152602001604051806080016040528060438152602001620033676043913981526020016040518060400160405280600681526020017f41726368657200000000000000000000000000000000000000000000000000008152508152602001678ac7230489e80000815250908060018154018082558091505060019003906000526020600020906004020160009091909190915060008201518160000160006101000a81548160ff021916908360ff16021790555060208201518160000160016101000a81548160ff021916908360ff16021790555060408201518160000160026101000a81548160ff021916908360ff1602179055506060820151816001019081620004db91906200099b565b506080820151816002019081620004f391906200099b565b5060a08201518160030155505080600160006101000a81548173ffffffffffffffffffffffffffffffffffffffff021916908373ffffffffffffffffffffffffffffffffffffffff1602179055505062000a82565b600033905090565b60008060009054906101000a900473ffffffffffffffffffffffffffffffffffffffff169050816000806101000a81548173ffffffffffffffffffffffffffffffffffffffff021916908373ffffffffffffffffffffffffffffffffffffffff1602179055508173ffffffffffffffffffffffffffffffffffffffff168173ffffffffffffffffffffffffffffffffffffffff167f8be0079c531659141344cd1fd0a4f28419497f9722a3daafe3b4186f6b6457e060405160405180910390a35050565b826005810192821562000653579160200282015b8281111562000652578251829068ffffffffffffffffff1690559160200191906001019062000628565b5b50905062000662919062000666565b5090565b5b808211156200068157600081600090555060010162000667565b5090565b600080fd5b600073ffffffffffffffffffffffffffffffffffffffff82169050919050565b6000620006b7826200068a565b9050919050565b620006c981620006aa565b8114620006d557600080fd5b50565b600081519050620006e981620006be565b92915050565b60006020828403121562000708576200070762000685565b5b60006200071884828501620006d8565b91505092915050565b600081519050919050565b7f4e487b7100000000000000000000000000000000000000000000000000000000600052604160045260246000fd5b7f4e487b7100000000000000000000000000000000000000000000000000000000600052602260045260246000fd5b60006002820490506001821680620007a357607f821691505b602082108103620007b957620007b86200075b565b5b50919050565b60008190508160005260206000209050919050565b60006020601f8301049050919050565b600082821b905092915050565b600060088302620008237fffffffffffffffffffffffffffffffffffffffffffffffffffffffffffffffff82620007e4565b6200082f8683620007e4565b95508019841693508086168417925050509392505050565b6000819050919050565b6000819050919050565b60006200087c62000876620008708462000847565b62000851565b62000847565b9050919050565b6000819050919050565b62000898836200085b565b620008b0620008a78262000883565b848454620007f1565b825550505050565b600090565b620008c7620008b8565b620008d48184846200088d565b505050565b5b81811015620008fc57620008f0600082620008bd565b600181019050620008da565b5050565b601f8211156200094b576200091581620007bf565b6200092084620007d4565b8101602085101562000930578190505b620009486200093f85620007d4565b830182620008d9565b50505b505050565b600082821c905092915050565b6000620009706000198460080262000950565b1980831691505092915050565b60006200098b83836200095d565b9150826002028217905092915050565b620009a68262000721565b67ffffffffffffffff811115620009c257620009c16200072c565b5b620009ce82546200078a565b620009db82828562000900565b600060209050601f83116001811462000a135760008415620009fe578287015190505b62000a0a85826200097d565b86555062000a7a565b601f19841662000a2386620007bf565b60005b8281101562000a4d5784890151825560018201915060208501945060208101905062000a26565b8683101562000a6d578489015162000a69601f8916826200095d565b8355505b6001600288020188555050505b505050505050565b6128928062000a926000396000f3fe608060405234801561001057600080fd5b50600436106100875760003560e01c8063798d70671161005b578063798d7067146100fe5780638da5cb5b1461011a578063a58343da14610138578063f2fde38b1461016857610087565b80624c2fff1461008c578063344f34f2146100a85780636ea09b6c146100d8578063715018a6146100f4575b600080fd5b6100a660048036038101906100a191906116d2565b610184565b005b6100c260048036038101906100bd919061187e565b610467565b6040516100cf9190611908565b60405180910390f35b6100f260048036038101906100ed9190611ac2565b6109d1565b005b6100fc610b1c565b005b61011860048036038101906101139190611b75565b610b30565b005b610122610e7a565b60405161012f9190611be3565b60405180910390f35b610152600480360381019061014d9190611b75565b610ea3565b60405161015f9190611cbc565b60405180910390f35b610182600480360381019061017d9190611d0a565b610f68565b005b600160009054906101000a900473ffffffffffffffffffffffffffffffffffffffff1673ffffffffffffffffffffffffffffffffffffffff16636352211e846040518263ffffffff1660e01b81526004016101df9190611d46565b602060405180830381865afa1580156101fc573d6000803e3d6000fd5b505050506040513d601f19601f820116820180604052508101906102209190611d76565b73ffffffffffffffffffffffffffffffffffffffff163373ffffffffffffffffffffffffffffffffffffffff161461028d576040517f08c379a000000000000000000000000000000000000000000000000000000000815260040161028490611e00565b60405180910390fd5b60098054905082106102d4576040517f08c379a00000000000000000000000000000000000000000000000000000000081526004016102cb90611e6c565b60405180910390fd5b60086000848152602001908152602001600020548210801561030a57506000600860008581526020019081526020016000205414155b610349576040517f08c379a000000000000000000000000000000000000000000000000000000000815260040161034090611ed8565b60405180910390fd5b600160009054906101000a900473ffffffffffffffffffffffffffffffffffffffff1673ffffffffffffffffffffffffffffffffffffffff1663308fad6d846040518060a00160405280600081526020016000815260200160008152602001600987815481106103bc576103bb611ef8565b5b906000526020600020906004020160030154815260200160008152506040518363ffffffff1660e01b81526004016103f5929190611fab565b600060405180830381600087803b15801561040f57600080fd5b505af1158015610423573d6000803e3d6000fd5b5050505080600760008581526020019081526020016000206000848152602001908152602001600020600082825461045b9190612003565b92505081905550505050565b6000823373ffffffffffffffffffffffffffffffffffffffff16600160009054906101000a900473ffffffffffffffffffffffffffffffffffffffff1673ffffffffffffffffffffffffffffffffffffffff16636352211e836040518263ffffffff1660e01b81526004016104dc9190611d46565b602060405180830381865afa1580156104f9573d6000803e3d6000fd5b505050506040513d601f19601f8201168201806040525081019061051d9190611d76565b73ffffffffffffffffffffffffffffffffffffffff1614610573576040517f08c379a000000000000000000000000000000000000000000000000000000000815260040161056a90612083565b60405180910390fd5b600073ffffffffffffffffffffffffffffffffffffffff16600160009054906101000a900473ffffffffffffffffffffffffffffffffffffffff1673ffffffffffffffffffffffffffffffffffffffff16636352211e856040518263ffffffff1660e01b81526004016105e69190611d46565b602060405180830381865afa158015610603573d6000803e3d6000fd5b505050506040513d601f19601f820116820180604052508101906106279190611d76565b73ffffffffffffffffffffffffffffffffffffffff160361067d576040517f08c379a0000000000000000000000000000000000000000000000000000000008152600401610674906120c9565b60405180910390fd5b6009805490508551146106c5576040517f08c379a00000000000000000000000000000000000000000000000000000000081526004016106bc90612135565b60405180910390fd5b60005b85518110156107ba578581815181106106e4576106e3611ef8565b5b6020026020010151600760008781526020019081526020016000206000838152602001908152602001600020541015610752576040517f08c379a0000000000000000000000000000000000000000000000000000000008152600401610749906121a1565b60405180910390fd5b85818151811061076557610764611ef8565b5b602002602001015160076000878152602001908152602001600020600083815260200190815260200160002060008282546107a091906121c1565b9250508190555080806107b2906121f5565b9150506106c8565b5060008060006107ca8887610feb565b925092509250821561087357600160009054906101000a900473ffffffffffffffffffffffffffffffffffffffff1673ffffffffffffffffffffffffffffffffffffffff166337fd9b698888848661082291906121c1565b6040518463ffffffff1660e01b81526004016108409392919061223d565b600060405180830381600087803b15801561085a57600080fd5b505af115801561086e573d6000803e3d6000fd5b505050505b60005b6009805490508110156109c257600060076000898152602001908152602001600020600083815260200190815260200160002054111561091557606482600760008a81526020019081526020016000206000848152602001908152602001600020546108e29190612274565b6108ec91906122e5565b600760008981526020019081526020016000206000838152602001908152602001600020819055505b6000600760008a815260200190815260200160002060008381526020019081526020016000205411156109af576064838a838151811061095857610957611ef8565b5b602002602001015161096a9190612274565b61097491906122e5565b600760008a8152602001908152602001600020600083815260200190815260200160002060008282546109a79190612003565b925050819055505b80806109ba906121f5565b915050610876565b50829450505050509392505050565b6109d961151c565b6040518060c00160405280866000600381106109f8576109f7611ef8565b5b602002015160ff16815260200186600160038110610a1957610a18611ef8565b5b602002015160ff16815260200186600260038110610a3a57610a39611ef8565b5b602002015160ff1681526020018581526020018481526020018381525060098281548110610a6b57610a6a611ef8565b5b906000526020600020906004020160008201518160000160006101000a81548160ff021916908360ff16021790555060208201518160000160016101000a81548160ff021916908360ff16021790555060408201518160000160026101000a81548160ff021916908360ff1602179055506060820151816001019081610af1919061252d565b506080820151816002019081610b07919061252d565b5060a082015181600301559050505050505050565b610b2461151c565b610b2e600061159a565b565b600060086000838152602001908152602001600020549050610b50611666565b60005b6005811015610bb857600183610b699190612003565b60028260058110610b7d57610b7c611ef8565b5b0154610b899190612274565b828260058110610b9c57610b9b611ef8565b5b6020020181815250508080610bb0906121f5565b915050610b53565b506000600160009054906101000a900473ffffffffffffffffffffffffffffffffffffffff1673ffffffffffffffffffffffffffffffffffffffff1663393c775f856040518263ffffffff1660e01b8152600401610c169190611d46565b60a060405180830381865afa158015610c33573d6000803e3d6000fd5b505050506040513d601f19601f82011682018060405250810190610c5791906126c5565b905081600060058110610c6d57610c6c611ef8565b5b602002015181600060058110610c8657610c85611ef8565b5b602002015110158015610cc9575081600160058110610ca857610ca7611ef8565b5b602002015181600160058110610cc157610cc0611ef8565b5b602002015110155b8015610d05575081600260058110610ce457610ce3611ef8565b5b602002015181600260058110610cfd57610cfc611ef8565b5b602002015110155b8015610d41575081600360058110610d2057610d1f611ef8565b5b602002015181600360058110610d3957610d38611ef8565b5b602002015110155b8015610d7d575081600460058110610d5c57610d5b611ef8565b5b602002015181600460058110610d7557610d74611ef8565b5b602002015110155b610dbc576040517f08c379a0000000000000000000000000000000000000000000000000000000008152600401610db39061273e565b60405180910390fd5b600160009054906101000a900473ffffffffffffffffffffffffffffffffffffffff1673ffffffffffffffffffffffffffffffffffffffff1663308fad6d85846040518363ffffffff1660e01b8152600401610e19929190611fab565b600060405180830381600087803b158015610e3357600080fd5b505af1158015610e47573d6000803e3d6000fd5b50505050600860008581526020019081526020016000206000815480929190610e6f906121f5565b919050555050505050565b60008060009054906101000a900473ffffffffffffffffffffffffffffffffffffffff16905090565b6060600060098054905067ffffffffffffffff811115610ec657610ec561173b565b5b604051908082528060200260200182016040528015610ef45781602001602082028036833780820191505090505b50905060005b600980549050811015610f5e5760076000858152602001908152602001600020600082815260200190815260200160002054828281518110610f3f57610f3e611ef8565b5b6020026020010181815250508080610f56906121f5565b915050610efa565b5080915050919050565b610f7061151c565b600073ffffffffffffffffffffffffffffffffffffffff168173ffffffffffffffffffffffffffffffffffffffff1603610fdf576040517f08c379a0000000000000000000000000000000000000000000000000000000008152600401610fd6906127d0565b60405180910390fd5b610fe88161159a565b50565b60008060008060008060008060006110028a610ea3565b905060005b6009805490508110156111c7578b818151811061102757611026611ef8565b5b60200260200101516009828154811061104357611042611ef8565b5b906000526020600020906004020160000160009054906101000a900460ff1660ff1661106f9190612274565b8761107a9190612003565b96508b818151811061108f5761108e611ef8565b5b6020026020010151600982815481106110ab576110aa611ef8565b5b906000526020600020906004020160000160029054906101000a900460ff1660ff166110d79190612274565b866110e29190612003565b95508181815181106110f7576110f6611ef8565b5b60200260200101516009828154811061111357611112611ef8565b5b906000526020600020906004020160000160019054906101000a900460ff1660ff1661113f9190612274565b8561114a9190612003565b945081818151811061115f5761115e611ef8565b5b60200260200101516009828154811061117b5761117a611ef8565b5b906000526020600020906004020160000160029054906101000a900460ff1660ff166111a79190612274565b846111b29190612003565b935080806111bf906121f5565b915050611007565b5060008087851180156111d957508587115b156112d35787856111ea91906121c1565b86886111f691906121c1565b1115611267576001935086606460038861121091906122e5565b8961121b91906121c1565b6112259190612274565b61122f91906122e5565b915084606460028a61124191906122e5565b8761124c91906121c1565b6112569190612274565b61126091906122e5565b90506112ce565b6000935086606460028861127b91906122e5565b8961128691906121c1565b6112909190612274565b61129a91906122e5565b915084606460038a6112ac91906122e5565b876112b791906121c1565b6112c19190612274565b6112cb91906122e5565b90505b611504565b878510156113f1576001935060026003866112ee9190612274565b6112f891906122e5565b8810156113355786606460048861130f91906122e5565b8961131a91906121c1565b6113249190612274565b61132e91906122e5565b9150601e90505b8760026003876113459190612274565b61134f91906122e5565b1080156113675750876002866113659190612274565b115b156113a25786606460058861137c91906122e5565b8961138791906121c1565b6113919190612274565b61139b91906122e5565b9150600f90505b876002866113b09190612274565b10156113ec578660646006886113c691906122e5565b896113d191906121c1565b6113db9190612274565b6113e591906122e5565b9150600090505b611503565b6000935060026003886114049190612274565b61140e91906122e5565b86101561144b57601e915084606460048a61142991906122e5565b8761143491906121c1565b61143e9190612274565b61144891906122e5565b90505b856002886114599190612274565b101561149557600f915084606460058a61147391906122e5565b8761147e91906121c1565b6114889190612274565b61149291906122e5565b90505b8560026003896114a59190612274565b6114af91906122e5565b1080156114c75750856002886114c59190612274565b115b15611502576000915084606460068a6114e091906122e5565b876114eb91906121c1565b6114f59190612274565b6114ff91906122e5565b90505b5b5b8382829a509a509a5050505050505050509250925092565b61152461165e565b73ffffffffffffffffffffffffffffffffffffffff16611542610e7a565b73ffffffffffffffffffffffffffffffffffffffff1614611598576040517f08c379a000000000000000000000000000000000000000000000000000000000815260040161158f9061283c565b60405180910390fd5b565b60008060009054906101000a900473ffffffffffffffffffffffffffffffffffffffff169050816000806101000a81548173ffffffffffffffffffffffffffffffffffffffff021916908373ffffffffffffffffffffffffffffffffffffffff1602179055508173ffffffffffffffffffffffffffffffffffffffff168173ffffffffffffffffffffffffffffffffffffffff167f8be0079c531659141344cd1fd0a4f28419497f9722a3daafe3b4186f6b6457e060405160405180910390a35050565b600033905090565b6040518060a00160405280600590602082028036833780820191505090505090565b6000604051905090565b600080fd5b600080fd5b6000819050919050565b6116af8161169c565b81146116ba57600080fd5b50565b6000813590506116cc816116a6565b92915050565b6000806000606084860312156116eb576116ea611692565b5b60006116f9868287016116bd565b935050602061170a868287016116bd565b925050604061171b868287016116bd565b9150509250925092565b600080fd5b6000601f19601f8301169050919050565b7f4e487b7100000000000000000000000000000000000000000000000000000000600052604160045260246000fd5b6117738261172a565b810181811067ffffffffffffffff821117156117925761179161173b565b5b80604052505050565b60006117a5611688565b90506117b1828261176a565b919050565b600067ffffffffffffffff8211156117d1576117d061173b565b5b602082029050602081019050919050565b600080fd5b60006117fa6117f5846117b6565b61179b565b9050808382526020820190506020840283018581111561181d5761181c6117e2565b5b835b81811015611846578061183288826116bd565b84526020840193505060208101905061181f565b5050509392505050565b600082601f83011261186557611864611725565b5b81356118758482602086016117e7565b91505092915050565b60008060006060848603121561189757611896611692565b5b600084013567ffffffffffffffff8111156118b5576118b4611697565b5b6118c186828701611850565b93505060206118d2868287016116bd565b92505060406118e3868287016116bd565b9150509250925092565b60008115159050919050565b611902816118ed565b82525050565b600060208201905061191d60008301846118f9565b92915050565b600067ffffffffffffffff82111561193e5761193d61173b565b5b602082029050919050565b600060ff82169050919050565b61195f81611949565b811461196a57600080fd5b50565b60008135905061197c81611956565b92915050565b600061199561199084611923565b61179b565b905080602084028301858111156119af576119ae6117e2565b5b835b818110156119d857806119c4888261196d565b8452602084019350506020810190506119b1565b5050509392505050565b600082601f8301126119f7576119f6611725565b5b6003611a04848285611982565b91505092915050565b600080fd5b600067ffffffffffffffff821115611a2d57611a2c61173b565b5b611a368261172a565b9050602081019050919050565b82818337600083830152505050565b6000611a65611a6084611a12565b61179b565b905082815260208101848484011115611a8157611a80611a0d565b5b611a8c848285611a43565b509392505050565b600082601f830112611aa957611aa8611725565b5b8135611ab9848260208601611a52565b91505092915050565b600080600080600060e08688031215611ade57611add611692565b5b6000611aec888289016119e2565b955050606086013567ffffffffffffffff811115611b0d57611b0c611697565b5b611b1988828901611a94565b945050608086013567ffffffffffffffff811115611b3a57611b39611697565b5b611b4688828901611a94565b93505060a0611b57888289016116bd565b92505060c0611b68888289016116bd565b9150509295509295909350565b600060208284031215611b8b57611b8a611692565b5b6000611b99848285016116bd565b91505092915050565b600073ffffffffffffffffffffffffffffffffffffffff82169050919050565b6000611bcd82611ba2565b9050919050565b611bdd81611bc2565b82525050565b6000602082019050611bf86000830184611bd4565b92915050565b600081519050919050565b600082825260208201905092915050565b6000819050602082019050919050565b611c338161169c565b82525050565b6000611c458383611c2a565b60208301905092915050565b6000602082019050919050565b6000611c6982611bfe565b611c738185611c09565b9350611c7e83611c1a565b8060005b83811015611caf578151611c968882611c39565b9750611ca183611c51565b925050600181019050611c82565b5085935050505092915050565b60006020820190508181036000830152611cd68184611c5e565b905092915050565b611ce781611bc2565b8114611cf257600080fd5b50565b600081359050611d0481611cde565b92915050565b600060208284031215611d2057611d1f611692565b5b6000611d2e84828501611cf5565b91505092915050565b611d408161169c565b82525050565b6000602082019050611d5b6000830184611d37565b92915050565b600081519050611d7081611cde565b92915050565b600060208284031215611d8c57611d8b611692565b5b6000611d9a84828501611d61565b91505092915050565b600082825260208201905092915050565b7f43616c6c657272206973206e6f74206c616e64206f776e657200000000000000600082015250565b6000611dea601983611da3565b9150611df582611db4565b602082019050919050565b60006020820190508181036000830152611e1981611ddd565b9050919050565b7f54797065206973206e6f742076616c6964000000000000000000000000000000600082015250565b6000611e56601183611da3565b9150611e6182611e20565b602082019050919050565b60006020820190508181036000830152611e8581611e49565b9050919050565b7f55706772616465206261727261636b73206e6565646564000000000000000000600082015250565b6000611ec2601783611da3565b9150611ecd82611e8c565b602082019050919050565b60006020820190508181036000830152611ef181611eb5565b9050919050565b7f4e487b7100000000000000000000000000000000000000000000000000000000600052603260045260246000fd5b600060059050919050565b600081905092915050565b6000819050919050565b6000602082019050919050565b611f5d81611f27565b611f678184611f32565b9250611f7282611f3d565b8060005b83811015611fa3578151611f8a8782611c39565b9650611f9583611f47565b925050600181019050611f76565b505050505050565b600060c082019050611fc06000830185611d37565b611fcd6020830184611f54565b9392505050565b7f4e487b7100000000000000000000000000000000000000000000000000000000600052601160045260246000fd5b600061200e8261169c565b91506120198361169c565b925082820190508082111561203157612030611fd4565b5b92915050565b7f4c616e64206e6f74206f776e656420627920796f750000000000000000000000600082015250565b600061206d601583611da3565b915061207882612037565b602082019050919050565b6000602082019050818103600083015261209c81612060565b9050919050565b50565b60006120b3600083611da3565b91506120be826120a3565b600082019050919050565b600060208201905081810360008301526120e2816120a6565b9050919050565b7f4c656e6774687320646f6573206e6f74206d6174636800000000000000000000600082015250565b600061211f601683611da3565b915061212a826120e9565b602082019050919050565b6000602082019050818103600083015261214e81612112565b9050919050565b7f496e73756666696369656e742061726d79000000000000000000000000000000600082015250565b600061218b601183611da3565b915061219682612155565b602082019050919050565b600060208201905081810360008301526121ba8161217e565b9050919050565b60006121cc8261169c565b91506121d78361169c565b92508282039050818111156121ef576121ee611fd4565b5b92915050565b60006122008261169c565b91507fffffffffffffffffffffffffffffffffffffffffffffffffffffffffffffffff820361223257612231611fd4565b5b600182019050919050565b60006060820190506122526000830186611d37565b61225f6020830185611d37565b61226c6040830184611d37565b949350505050565b600061227f8261169c565b915061228a8361169c565b92508282026122988161169c565b915082820484148315176122af576122ae611fd4565b5b5092915050565b7f4e487b7100000000000000000000000000000000000000000000000000000000600052601260045260246000fd5b60006122f08261169c565b91506122fb8361169c565b92508261230b5761230a6122b6565b5b828204905092915050565b600081519050919050565b7f4e487b7100000000000000000000000000000000000000000000000000000000600052602260045260246000fd5b6000600282049050600182168061236857607f821691505b60208210810361237b5761237a612321565b5b50919050565b60008190508160005260206000209050919050565b60006020601f8301049050919050565b600082821b905092915050565b6000600883026123e37fffffffffffffffffffffffffffffffffffffffffffffffffffffffffffffffff826123a6565b6123ed86836123a6565b95508019841693508086168417925050509392505050565b6000819050919050565b600061242a6124256124208461169c565b612405565b61169c565b9050919050565b6000819050919050565b6124448361240f565b61245861245082612431565b8484546123b3565b825550505050565b600090565b61246d612460565b61247881848461243b565b505050565b5b8181101561249c57612491600082612465565b60018101905061247e565b5050565b601f8211156124e1576124b281612381565b6124bb84612396565b810160208510156124ca578190505b6124de6124d685612396565b83018261247d565b50505b505050565b600082821c905092915050565b6000612504600019846008026124e6565b1980831691505092915050565b600061251d83836124f3565b9150826002028217905092915050565b61253682612316565b67ffffffffffffffff81111561254f5761254e61173b565b5b6125598254612350565b6125648282856124a0565b600060209050601f8311600181146125975760008415612585578287015190505b61258f8582612511565b8655506125f7565b601f1984166125a586612381565b60005b828110156125cd578489015182556001820191506020850194506020810190506125a8565b868310156125ea57848901516125e6601f8916826124f3565b8355505b6001600288020188555050505b505050505050565b600067ffffffffffffffff82111561261a5761261961173b565b5b602082029050919050565b600081519050612634816116a6565b92915050565b600061264d612648846125ff565b61179b565b90508060208402830185811115612667576126666117e2565b5b835b81811015612690578061267c8882612625565b845260208401935050602081019050612669565b5050509392505050565b600082601f8301126126af576126ae611725565b5b60056126bc84828561263a565b91505092915050565b600060a082840312156126db576126da611692565b5b60006126e98482850161269a565b91505092915050565b7f496e73756666696369656e7420636f6d6d6f6469746965730000000000000000600082015250565b6000612728601883611da3565b9150612733826126f2565b602082019050919050565b600060208201905081810360008301526127578161271b565b9050919050565b7f4f776e61626c653a206e6577206f776e657220697320746865207a65726f206160008201527f6464726573730000000000000000000000000000000000000000000000000000602082015250565b60006127ba602683611da3565b91506127c58261275e565b604082019050919050565b600060208201905081810360008301526127e9816127ad565b9050919050565b7f4f776e61626c653a2063616c6c6572206973206e6f7420746865206f776e6572600082015250565b6000612826602083611da3565b9150612831826127f0565b602082019050919050565b6000602082019050818103600083015261285581612819565b905091905056fea2646970667358221220a73ebb0e3ffc0ef27c157d0914fab631cca55a07dd6d10e0e75b9536ee022fcd64736f6c6343000813003368747470733a2f2f697066732e696f2f697066732f516d556a4e5177667833446b5657313135637977585462674253626b68353375316b336244636d6141397861674a68747470733a2f2f697066732e696f2f697066732f516d6558786e433569717a655865424635446a5850654c4c75343633364173346d517076394c746f7448464d537068747470733a2f2f697066732e696f2f697066732f516d5464313774754e31466d4d596251794544624441374c3937613966506f36597a52594a5654476350316a576f",
    "linkReferences": {},
    "deployedLinkReferences": {}
}