{
  "_format": "hh-sol-artifact-1",
  "contractName": "Army",
  "sourceName": "contracts/Army.sol",
  "abi": [
    {
      "inputs": [
        {
          "internalType": "address",
          "name": "landsContractAddress",
          "type": "address"
        }
      ],
      "stateMutability": "nonpayable",
      "type": "constructor"
    },
    {
      "anonymous": false,
      "inputs": [
        {
          "indexed": true,
          "internalType": "address",
          "name": "previousOwner",
          "type": "address"
        },
        {
          "indexed": true,
          "internalType": "address",
          "name": "newOwner",
          "type": "address"
        }
      ],
      "name": "OwnershipTransferred",
      "type": "event"
    },
    {
      "inputs": [
        {
          "internalType": "uint256[]",
          "name": "warriorsAmounts",
          "type": "uint256[]"
        },
        {
          "internalType": "uint256",
          "name": "attackerId",
          "type": "uint256"
        },
        {
          "internalType": "uint256",
          "name": "targetId",
          "type": "uint256"
        }
      ],
      "name": "attack",
      "outputs": [
        {
          "internalType": "bool",
          "name": "",
          "type": "bool"
        }
      ],
      "stateMutability": "nonpayable",
      "type": "function"
    },
    {
      "inputs": [
        {
          "internalType": "uint256",
          "name": "landId",
          "type": "uint256"
        }
      ],
      "name": "buildBarracks",
      "outputs": [],
      "stateMutability": "nonpayable",
      "type": "function"
    },
    {
      "inputs": [
        {
          "internalType": "uint256",
          "name": "landId",
          "type": "uint256"
        },
        {
          "internalType": "uint256",
          "name": "typeIndex",
          "type": "uint256"
        },
        {
          "internalType": "uint256",
          "name": "amount",
          "type": "uint256"
        }
      ],
      "name": "buildWarrior",
      "outputs": [],
      "stateMutability": "nonpayable",
      "type": "function"
    },
    {
      "inputs": [
        {
          "internalType": "uint256",
          "name": "landId",
          "type": "uint256"
        }
      ],
      "name": "getArmy",
      "outputs": [
        {
          "internalType": "uint256[]",
          "name": "",
          "type": "uint256[]"
        }
      ],
      "stateMutability": "view",
      "type": "function"
    },
    {
      "inputs": [
        {
          "internalType": "uint256",
          "name": "landTokenId",
          "type": "uint256"
        }
      ],
      "name": "getLevel",
      "outputs": [
        {
          "internalType": "uint256",
          "name": "",
          "type": "uint256"
        }
      ],
      "stateMutability": "view",
      "type": "function"
    },
    {
      "inputs": [],
      "name": "getRequiredCommodities",
      "outputs": [
        {
          "internalType": "uint256[5]",
          "name": "",
          "type": "uint256[5]"
        }
      ],
      "stateMutability": "view",
      "type": "function"
    },
    {
      "inputs": [],
      "name": "getTypes",
      "outputs": [
        {
          "components": [
            {
              "internalType": "uint8",
              "name": "attackPower",
              "type": "uint8"
            },
            {
              "internalType": "uint8",
              "name": "defPower",
              "type": "uint8"
            },
            {
              "internalType": "uint8",
              "name": "hp",
              "type": "uint8"
            },
            {
              "internalType": "uint8",
              "name": "requiredLevel",
              "type": "uint8"
            },
            {
              "internalType": "string",
              "name": "imageURL",
              "type": "string"
            },
            {
              "internalType": "string",
              "name": "name",
              "type": "string"
            },
            {
              "internalType": "uint256",
              "name": "price",
              "type": "uint256"
            }
          ],
          "internalType": "struct Army.Info[]",
          "name": "",
          "type": "tuple[]"
        }
      ],
      "stateMutability": "view",
      "type": "function"
    },
    {
      "inputs": [],
      "name": "owner",
      "outputs": [
        {
          "internalType": "address",
          "name": "",
          "type": "address"
        }
      ],
      "stateMutability": "view",
      "type": "function"
    },
    {
      "inputs": [],
      "name": "renounceOwnership",
      "outputs": [],
      "stateMutability": "nonpayable",
      "type": "function"
    },
    {
      "inputs": [
        {
          "internalType": "address",
          "name": "newOwner",
          "type": "address"
        }
      ],
      "name": "transferOwnership",
      "outputs": [],
      "stateMutability": "nonpayable",
      "type": "function"
    },
    {
      "inputs": [
        {
          "internalType": "uint8[3]",
          "name": "physicalInfo",
          "type": "uint8[3]"
        },
        {
          "internalType": "uint8",
          "name": "requiredLevel",
          "type": "uint8"
        },
        {
          "internalType": "string",
          "name": "imageURL",
          "type": "string"
        },
        {
          "internalType": "string",
          "name": "name",
          "type": "string"
        },
        {
          "internalType": "uint256",
          "name": "price",
          "type": "uint256"
        },
        {
          "internalType": "uint256",
          "name": "typeIndex",
          "type": "uint256"
        }
      ],
      "name": "updateType",
      "outputs": [],
      "stateMutability": "nonpayable",
      "type": "function"
    }
  ],
  "bytecode": "0x60806040526040518060a001604052806802b5e3af16b188000068ffffffffffffffffff1681526020016802b5e3af16b188000068ffffffffffffffffff1681526020016802b5e3af16b188000068ffffffffffffffffff16815260200168056bc75e2d6310000068ffffffffffffffffff1681526020016802b5e3af16b188000068ffffffffffffffffff168152506002906005620000a192919062000695565b50348015620000af57600080fd5b5060405162003b8438038062003b848339818101604052810190620000d5919062000770565b620000f5620000e9620005c960201b60201c565b620005d160201b60201c565b60096040518060e00160405280603c60ff168152602001605a60ff168152602001608c60ff168152602001600160ff16815260200160405180608001604052806043815260200162003b416043913981526020016040518060400160405280600981526020017f5370656172206d616e00000000000000000000000000000000000000000000008152508152602001674563918244f40000815250908060018154018082558091505060019003906000526020600020906004020160009091909190915060008201518160000160006101000a81548160ff021916908360ff16021790555060208201518160000160016101000a81548160ff021916908360ff16021790555060408201518160000160026101000a81548160ff021916908360ff16021790555060608201518160000160036101000a81548160ff021916908360ff160217905550608082015181600101908162000254919062000a1c565b5060a08201518160020190816200026c919062000a1c565b5060c08201518160030155505060096040518060e00160405280605a60ff168152602001604660ff16815260200160c860ff168152602001600260ff16815260200160405180608001604052806043815260200162003abb6043913981526020016040518060400160405280600981526020017f53776f7264736d616e00000000000000000000000000000000000000000000008152508152602001676f05b59d3b200000815250908060018154018082558091505060019003906000526020600020906004020160009091909190915060008201518160000160006101000a81548160ff021916908360ff16021790555060208201518160000160016101000a81548160ff021916908360ff16021790555060408201518160000160026101000a81548160ff021916908360ff16021790555060608201518160000160036101000a81548160ff021916908360ff1602179055506080820151816001019081620003d8919062000a1c565b5060a0820151816002019081620003f0919062000a1c565b5060c08201518160030155505060096040518060e00160405280602860ff168152602001603c60ff168152602001605060ff168152602001600360ff16815260200160405180608001604052806043815260200162003afe6043913981526020016040518060400160405280600681526020017f41726368657200000000000000000000000000000000000000000000000000008152508152602001678ac7230489e80000815250908060018154018082558091505060019003906000526020600020906004020160009091909190915060008201518160000160006101000a81548160ff021916908360ff16021790555060208201518160000160016101000a81548160ff021916908360ff16021790555060408201518160000160026101000a81548160ff021916908360ff16021790555060608201518160000160036101000a81548160ff021916908360ff16021790555060808201518160010190816200055c919062000a1c565b5060a082015181600201908162000574919062000a1c565b5060c08201518160030155505080600160006101000a81548173ffffffffffffffffffffffffffffffffffffffff021916908373ffffffffffffffffffffffffffffffffffffffff1602179055505062000b03565b600033905090565b60008060009054906101000a900473ffffffffffffffffffffffffffffffffffffffff169050816000806101000a81548173ffffffffffffffffffffffffffffffffffffffff021916908373ffffffffffffffffffffffffffffffffffffffff1602179055508173ffffffffffffffffffffffffffffffffffffffff168173ffffffffffffffffffffffffffffffffffffffff167f8be0079c531659141344cd1fd0a4f28419497f9722a3daafe3b4186f6b6457e060405160405180910390a35050565b8260058101928215620006d4579160200282015b82811115620006d3578251829068ffffffffffffffffff16905591602001919060010190620006a9565b5b509050620006e39190620006e7565b5090565b5b8082111562000702576000816000905550600101620006e8565b5090565b600080fd5b600073ffffffffffffffffffffffffffffffffffffffff82169050919050565b600062000738826200070b565b9050919050565b6200074a816200072b565b81146200075657600080fd5b50565b6000815190506200076a816200073f565b92915050565b60006020828403121562000789576200078862000706565b5b6000620007998482850162000759565b91505092915050565b600081519050919050565b7f4e487b7100000000000000000000000000000000000000000000000000000000600052604160045260246000fd5b7f4e487b7100000000000000000000000000000000000000000000000000000000600052602260045260246000fd5b600060028204905060018216806200082457607f821691505b6020821081036200083a5762000839620007dc565b5b50919050565b60008190508160005260206000209050919050565b60006020601f8301049050919050565b600082821b905092915050565b600060088302620008a47fffffffffffffffffffffffffffffffffffffffffffffffffffffffffffffffff8262000865565b620008b0868362000865565b95508019841693508086168417925050509392505050565b6000819050919050565b6000819050919050565b6000620008fd620008f7620008f184620008c8565b620008d2565b620008c8565b9050919050565b6000819050919050565b6200091983620008dc565b62000931620009288262000904565b84845462000872565b825550505050565b600090565b6200094862000939565b620009558184846200090e565b505050565b5b818110156200097d57620009716000826200093e565b6001810190506200095b565b5050565b601f821115620009cc57620009968162000840565b620009a18462000855565b81016020851015620009b1578190505b620009c9620009c08562000855565b8301826200095a565b50505b505050565b600082821c905092915050565b6000620009f160001984600802620009d1565b1980831691505092915050565b600062000a0c8383620009de565b9150826002028217905092915050565b62000a2782620007a2565b67ffffffffffffffff81111562000a435762000a42620007ad565b5b62000a4f82546200080b565b62000a5c82828562000981565b600060209050601f83116001811462000a94576000841562000a7f578287015190505b62000a8b8582620009fe565b86555062000afb565b601f19841662000aa48662000840565b60005b8281101562000ace5784890151825560018201915060208501945060208101905062000aa7565b8683101562000aee578489015162000aea601f891682620009de565b8355505b6001600288020188555050505b505050505050565b612fa88062000b136000396000f3fe608060405234801561001057600080fd5b50600436106100a85760003560e01c806386481d401161007157806386481d401461013d5780638da5cb5b1461016d578063a306fd4f1461018b578063a58343da146101a7578063b4579d60146101d7578063f2fde38b146101f5576100a8565b80624c2fff146100ad57806325e4de48146100c9578063344f34f2146100e7578063715018a614610117578063798d706714610121575b600080fd5b6100c760048036038101906100c29190611b44565b610211565b005b6100d1610645565b6040516100de9190611c42565b60405180910390f35b61010160048036038101906100fc9190611db6565b610690565b60405161010e9190611e40565b60405180910390f35b61011f610bfa565b005b61013b60048036038101906101369190611e5b565b610c0e565b005b61015760048036038101906101529190611e5b565b610f58565b6040516101649190611e97565b60405180910390f35b610175610f75565b6040516101829190611ef3565b60405180910390f35b6101a560048036038101906101a091906120ad565b610f9e565b005b6101c160048036038101906101bc9190611e5b565b611114565b6040516101ce919061220a565b60405180910390f35b6101df6111d9565b6040516101ec919061241f565b60405180910390f35b61020f600480360381019061020a919061246d565b6113da565b005b600160009054906101000a900473ffffffffffffffffffffffffffffffffffffffff1673ffffffffffffffffffffffffffffffffffffffff16636352211e846040518263ffffffff1660e01b815260040161026c9190611e97565b602060405180830381865afa158015610289573d6000803e3d6000fd5b505050506040513d601f19601f820116820180604052508101906102ad91906124af565b73ffffffffffffffffffffffffffffffffffffffff163373ffffffffffffffffffffffffffffffffffffffff161461031a576040517f08c379a000000000000000000000000000000000000000000000000000000000815260040161031190612539565b60405180910390fd5b6009805490508210610361576040517f08c379a0000000000000000000000000000000000000000000000000000000008152600401610358906125a5565b60405180910390fd5b600860008481526020019081526020016000205460098381548110610389576103886125c5565b5b906000526020600020906004020160000160039054906101000a900460ff1660ff16111580156103cd57506000600860008581526020019081526020016000205414155b61040c576040517f08c379a000000000000000000000000000000000000000000000000000000000815260040161040390612640565b60405180910390fd5b600160009054906101000a900473ffffffffffffffffffffffffffffffffffffffff1673ffffffffffffffffffffffffffffffffffffffff1663393c775f846040518263ffffffff1660e01b81526004016104679190611e97565b60a060405180830381865afa158015610484573d6000803e3d6000fd5b505050506040513d601f19601f820116820180604052508101906104a89190612726565b6004600581106104bb576104ba6125c5565b5b6020020151600983815481106104d4576104d36125c5565b5b9060005260206000209060040201600301541015610527576040517f08c379a000000000000000000000000000000000000000000000000000000000815260040161051e9061279f565b60405180910390fd5b600160009054906101000a900473ffffffffffffffffffffffffffffffffffffffff1673ffffffffffffffffffffffffffffffffffffffff1663308fad6d846040518060a001604052806000815260200160008152602001600081526020016009878154811061059a576105996125c5565b5b906000526020600020906004020160030154815260200160008152506040518363ffffffff1660e01b81526004016105d39291906127bf565b600060405180830381600087803b1580156105ed57600080fd5b505af1158015610601573d6000803e3d6000fd5b505050508060076000858152602001908152602001600020600084815260200190815260200160002060008282546106399190612817565b92505081905550505050565b61064d611ad8565b6002600580602002604051908101604052809291908260058015610686576020028201915b815481526020019060010190808311610672575b5050505050905090565b6000823373ffffffffffffffffffffffffffffffffffffffff16600160009054906101000a900473ffffffffffffffffffffffffffffffffffffffff1673ffffffffffffffffffffffffffffffffffffffff16636352211e836040518263ffffffff1660e01b81526004016107059190611e97565b602060405180830381865afa158015610722573d6000803e3d6000fd5b505050506040513d601f19601f8201168201806040525081019061074691906124af565b73ffffffffffffffffffffffffffffffffffffffff161461079c576040517f08c379a000000000000000000000000000000000000000000000000000000000815260040161079390612897565b60405180910390fd5b600073ffffffffffffffffffffffffffffffffffffffff16600160009054906101000a900473ffffffffffffffffffffffffffffffffffffffff1673ffffffffffffffffffffffffffffffffffffffff16636352211e856040518263ffffffff1660e01b815260040161080f9190611e97565b602060405180830381865afa15801561082c573d6000803e3d6000fd5b505050506040513d601f19601f8201168201806040525081019061085091906124af565b73ffffffffffffffffffffffffffffffffffffffff16036108a6576040517f08c379a000000000000000000000000000000000000000000000000000000000815260040161089d906128dd565b60405180910390fd5b6009805490508551146108ee576040517f08c379a00000000000000000000000000000000000000000000000000000000081526004016108e590612949565b60405180910390fd5b60005b85518110156109e35785818151811061090d5761090c6125c5565b5b602002602001015160076000878152602001908152602001600020600083815260200190815260200160002054101561097b576040517f08c379a0000000000000000000000000000000000000000000000000000000008152600401610972906129b5565b60405180910390fd5b85818151811061098e5761098d6125c5565b5b602002602001015160076000878152602001908152602001600020600083815260200190815260200160002060008282546109c991906129d5565b9250508190555080806109db90612a09565b9150506108f1565b5060008060006109f3888761145d565b9250925092508215610a9c57600160009054906101000a900473ffffffffffffffffffffffffffffffffffffffff1673ffffffffffffffffffffffffffffffffffffffff166337fd9b6988888486610a4b91906129d5565b6040518463ffffffff1660e01b8152600401610a6993929190612a51565b600060405180830381600087803b158015610a8357600080fd5b505af1158015610a97573d6000803e3d6000fd5b505050505b60005b600980549050811015610beb576000600760008981526020019081526020016000206000838152602001908152602001600020541115610b3e57606482600760008a8152602001908152602001600020600084815260200190815260200160002054610b0b9190612a88565b610b159190612af9565b600760008981526020019081526020016000206000838152602001908152602001600020819055505b6000600760008a81526020019081526020016000206000838152602001908152602001600020541115610bd8576064838a8381518110610b8157610b806125c5565b5b6020026020010151610b939190612a88565b610b9d9190612af9565b600760008a815260200190815260200160002060008381526020019081526020016000206000828254610bd09190612817565b925050819055505b8080610be390612a09565b915050610a9f565b50829450505050509392505050565b610c0261198e565b610c0c6000611a0c565b565b600060086000838152602001908152602001600020549050610c2e611ad8565b60005b6005811015610c9657600183610c479190612817565b60028260058110610c5b57610c5a6125c5565b5b0154610c679190612a88565b828260058110610c7a57610c796125c5565b5b6020020181815250508080610c8e90612a09565b915050610c31565b506000600160009054906101000a900473ffffffffffffffffffffffffffffffffffffffff1673ffffffffffffffffffffffffffffffffffffffff1663393c775f856040518263ffffffff1660e01b8152600401610cf49190611e97565b60a060405180830381865afa158015610d11573d6000803e3d6000fd5b505050506040513d601f19601f82011682018060405250810190610d359190612726565b905081600060058110610d4b57610d4a6125c5565b5b602002015181600060058110610d6457610d636125c5565b5b602002015110158015610da7575081600160058110610d8657610d856125c5565b5b602002015181600160058110610d9f57610d9e6125c5565b5b602002015110155b8015610de3575081600260058110610dc257610dc16125c5565b5b602002015181600260058110610ddb57610dda6125c5565b5b602002015110155b8015610e1f575081600360058110610dfe57610dfd6125c5565b5b602002015181600360058110610e1757610e166125c5565b5b602002015110155b8015610e5b575081600460058110610e3a57610e396125c5565b5b602002015181600460058110610e5357610e526125c5565b5b602002015110155b610e9a576040517f08c379a0000000000000000000000000000000000000000000000000000000008152600401610e9190612b76565b60405180910390fd5b600160009054906101000a900473ffffffffffffffffffffffffffffffffffffffff1673ffffffffffffffffffffffffffffffffffffffff1663308fad6d85846040518363ffffffff1660e01b8152600401610ef79291906127bf565b600060405180830381600087803b158015610f1157600080fd5b505af1158015610f25573d6000803e3d6000fd5b50505050600860008581526020019081526020016000206000815480929190610f4d90612a09565b919050555050505050565b600060086000838152602001908152602001600020549050919050565b60008060009054906101000a900473ffffffffffffffffffffffffffffffffffffffff16905090565b610fa661198e565b6040518060e0016040528087600060038110610fc557610fc46125c5565b5b602002015160ff16815260200187600160038110610fe657610fe56125c5565b5b602002015160ff16815260200187600260038110611007576110066125c5565b5b602002015160ff1681526020018660ff1681526020018581526020018481526020018381525060098281548110611041576110406125c5565b5b906000526020600020906004020160008201518160000160006101000a81548160ff021916908360ff16021790555060208201518160000160016101000a81548160ff021916908360ff16021790555060408201518160000160026101000a81548160ff021916908360ff16021790555060608201518160000160036101000a81548160ff021916908360ff16021790555060808201518160010190816110e89190612da2565b5060a08201518160020190816110fe9190612da2565b5060c08201518160030155905050505050505050565b6060600060098054905067ffffffffffffffff81111561113757611136611c73565b5b6040519080825280602002602001820160405280156111655781602001602082028036833780820191505090505b50905060005b6009805490508110156111cf57600760008581526020019081526020016000206000828152602001908152602001600020548282815181106111b0576111af6125c5565b5b60200260200101818152505080806111c790612a09565b91505061116b565b5080915050919050565b60606009805480602002602001604051908101604052809291908181526020016000905b828210156113d157838290600052602060002090600402016040518060e00160405290816000820160009054906101000a900460ff1660ff1660ff1681526020016000820160019054906101000a900460ff1660ff1660ff1681526020016000820160029054906101000a900460ff1660ff1660ff1681526020016000820160039054906101000a900460ff1660ff1660ff1681526020016001820180546112a490612bc5565b80601f01602080910402602001604051908101604052809291908181526020018280546112d090612bc5565b801561131d5780601f106112f25761010080835404028352916020019161131d565b820191906000526020600020905b81548152906001019060200180831161130057829003601f168201915b5050505050815260200160028201805461133690612bc5565b80601f016020809104026020016040519081016040528092919081815260200182805461136290612bc5565b80156113af5780601f10611384576101008083540402835291602001916113af565b820191906000526020600020905b81548152906001019060200180831161139257829003601f168201915b50505050508152602001600382015481525050815260200190600101906111fd565b50505050905090565b6113e261198e565b600073ffffffffffffffffffffffffffffffffffffffff168173ffffffffffffffffffffffffffffffffffffffff1603611451576040517f08c379a000000000000000000000000000000000000000000000000000000000815260040161144890612ee6565b60405180910390fd5b61145a81611a0c565b50565b60008060008060008060008060006114748a611114565b905060005b600980549050811015611639578b8181518110611499576114986125c5565b5b6020026020010151600982815481106114b5576114b46125c5565b5b906000526020600020906004020160000160009054906101000a900460ff1660ff166114e19190612a88565b876114ec9190612817565b96508b8181518110611501576115006125c5565b5b60200260200101516009828154811061151d5761151c6125c5565b5b906000526020600020906004020160000160029054906101000a900460ff1660ff166115499190612a88565b866115549190612817565b9550818181518110611569576115686125c5565b5b602002602001015160098281548110611585576115846125c5565b5b906000526020600020906004020160000160019054906101000a900460ff1660ff166115b19190612a88565b856115bc9190612817565b94508181815181106115d1576115d06125c5565b5b6020026020010151600982815481106115ed576115ec6125c5565b5b906000526020600020906004020160000160029054906101000a900460ff1660ff166116199190612a88565b846116249190612817565b9350808061163190612a09565b915050611479565b50600080878511801561164b57508587115b1561174557878561165c91906129d5565b868861166891906129d5565b11156116d957600193508660646003886116829190612af9565b8961168d91906129d5565b6116979190612a88565b6116a19190612af9565b915084606460028a6116b39190612af9565b876116be91906129d5565b6116c89190612a88565b6116d29190612af9565b9050611740565b600093508660646002886116ed9190612af9565b896116f891906129d5565b6117029190612a88565b61170c9190612af9565b915084606460038a61171e9190612af9565b8761172991906129d5565b6117339190612a88565b61173d9190612af9565b90505b611976565b87851015611863576001935060026003866117609190612a88565b61176a9190612af9565b8810156117a7578660646004886117819190612af9565b8961178c91906129d5565b6117969190612a88565b6117a09190612af9565b9150601e90505b8760026003876117b79190612a88565b6117c19190612af9565b1080156117d95750876002866117d79190612a88565b115b15611814578660646005886117ee9190612af9565b896117f991906129d5565b6118039190612a88565b61180d9190612af9565b9150600f90505b876002866118229190612a88565b101561185e578660646006886118389190612af9565b8961184391906129d5565b61184d9190612a88565b6118579190612af9565b9150600090505b611975565b6000935060026003886118769190612a88565b6118809190612af9565b8610156118bd57601e915084606460048a61189b9190612af9565b876118a691906129d5565b6118b09190612a88565b6118ba9190612af9565b90505b856002886118cb9190612a88565b101561190757600f915084606460058a6118e59190612af9565b876118f091906129d5565b6118fa9190612a88565b6119049190612af9565b90505b8560026003896119179190612a88565b6119219190612af9565b1080156119395750856002886119379190612a88565b115b15611974576000915084606460068a6119529190612af9565b8761195d91906129d5565b6119679190612a88565b6119719190612af9565b90505b5b5b8382829a509a509a5050505050505050509250925092565b611996611ad0565b73ffffffffffffffffffffffffffffffffffffffff166119b4610f75565b73ffffffffffffffffffffffffffffffffffffffff1614611a0a576040517f08c379a0000000000000000000000000000000000000000000000000000000008152600401611a0190612f52565b60405180910390fd5b565b60008060009054906101000a900473ffffffffffffffffffffffffffffffffffffffff169050816000806101000a81548173ffffffffffffffffffffffffffffffffffffffff021916908373ffffffffffffffffffffffffffffffffffffffff1602179055508173ffffffffffffffffffffffffffffffffffffffff168173ffffffffffffffffffffffffffffffffffffffff167f8be0079c531659141344cd1fd0a4f28419497f9722a3daafe3b4186f6b6457e060405160405180910390a35050565b600033905090565b6040518060a00160405280600590602082028036833780820191505090505090565b6000604051905090565b600080fd5b600080fd5b6000819050919050565b611b2181611b0e565b8114611b2c57600080fd5b50565b600081359050611b3e81611b18565b92915050565b600080600060608486031215611b5d57611b5c611b04565b5b6000611b6b86828701611b2f565b9350506020611b7c86828701611b2f565b9250506040611b8d86828701611b2f565b9150509250925092565b600060059050919050565b600081905092915050565b6000819050919050565b611bc081611b0e565b82525050565b6000611bd28383611bb7565b60208301905092915050565b6000602082019050919050565b611bf481611b97565b611bfe8184611ba2565b9250611c0982611bad565b8060005b83811015611c3a578151611c218782611bc6565b9650611c2c83611bde565b925050600181019050611c0d565b505050505050565b600060a082019050611c576000830184611beb565b92915050565b600080fd5b6000601f19601f8301169050919050565b7f4e487b7100000000000000000000000000000000000000000000000000000000600052604160045260246000fd5b611cab82611c62565b810181811067ffffffffffffffff82111715611cca57611cc9611c73565b5b80604052505050565b6000611cdd611afa565b9050611ce98282611ca2565b919050565b600067ffffffffffffffff821115611d0957611d08611c73565b5b602082029050602081019050919050565b600080fd5b6000611d32611d2d84611cee565b611cd3565b90508083825260208201905060208402830185811115611d5557611d54611d1a565b5b835b81811015611d7e5780611d6a8882611b2f565b845260208401935050602081019050611d57565b5050509392505050565b600082601f830112611d9d57611d9c611c5d565b5b8135611dad848260208601611d1f565b91505092915050565b600080600060608486031215611dcf57611dce611b04565b5b600084013567ffffffffffffffff811115611ded57611dec611b09565b5b611df986828701611d88565b9350506020611e0a86828701611b2f565b9250506040611e1b86828701611b2f565b9150509250925092565b60008115159050919050565b611e3a81611e25565b82525050565b6000602082019050611e556000830184611e31565b92915050565b600060208284031215611e7157611e70611b04565b5b6000611e7f84828501611b2f565b91505092915050565b611e9181611b0e565b82525050565b6000602082019050611eac6000830184611e88565b92915050565b600073ffffffffffffffffffffffffffffffffffffffff82169050919050565b6000611edd82611eb2565b9050919050565b611eed81611ed2565b82525050565b6000602082019050611f086000830184611ee4565b92915050565b600067ffffffffffffffff821115611f2957611f28611c73565b5b602082029050919050565b600060ff82169050919050565b611f4a81611f34565b8114611f5557600080fd5b50565b600081359050611f6781611f41565b92915050565b6000611f80611f7b84611f0e565b611cd3565b90508060208402830185811115611f9a57611f99611d1a565b5b835b81811015611fc35780611faf8882611f58565b845260208401935050602081019050611f9c565b5050509392505050565b600082601f830112611fe257611fe1611c5d565b5b6003611fef848285611f6d565b91505092915050565b600080fd5b600067ffffffffffffffff82111561201857612017611c73565b5b61202182611c62565b9050602081019050919050565b82818337600083830152505050565b600061205061204b84611ffd565b611cd3565b90508281526020810184848401111561206c5761206b611ff8565b5b61207784828561202e565b509392505050565b600082601f83011261209457612093611c5d565b5b81356120a484826020860161203d565b91505092915050565b60008060008060008061010087890312156120cb576120ca611b04565b5b60006120d989828a01611fcd565b96505060606120ea89828a01611f58565b955050608087013567ffffffffffffffff81111561210b5761210a611b09565b5b61211789828a0161207f565b94505060a087013567ffffffffffffffff81111561213857612137611b09565b5b61214489828a0161207f565b93505060c061215589828a01611b2f565b92505060e061216689828a01611b2f565b9150509295509295509295565b600081519050919050565b600082825260208201905092915050565b6000819050602082019050919050565b6000602082019050919050565b60006121b782612173565b6121c1818561217e565b93506121cc8361218f565b8060005b838110156121fd5781516121e48882611bc6565b97506121ef8361219f565b9250506001810190506121d0565b5085935050505092915050565b6000602082019050818103600083015261222481846121ac565b905092915050565b600081519050919050565b600082825260208201905092915050565b6000819050602082019050919050565b61226181611f34565b82525050565b600081519050919050565b600082825260208201905092915050565b60005b838110156122a1578082015181840152602081019050612286565b60008484015250505050565b60006122b882612267565b6122c28185612272565b93506122d2818560208601612283565b6122db81611c62565b840191505092915050565b600060e0830160008301516122fe6000860182612258565b5060208301516123116020860182612258565b5060408301516123246040860182612258565b5060608301516123376060860182612258565b506080830151848203608086015261234f82826122ad565b91505060a083015184820360a086015261236982826122ad565b91505060c083015161237e60c0860182611bb7565b508091505092915050565b600061239583836122e6565b905092915050565b6000602082019050919050565b60006123b58261222c565b6123bf8185612237565b9350836020820285016123d185612248565b8060005b8581101561240d57848403895281516123ee8582612389565b94506123f98361239d565b925060208a019950506001810190506123d5565b50829750879550505050505092915050565b6000602082019050818103600083015261243981846123aa565b905092915050565b61244a81611ed2565b811461245557600080fd5b50565b60008135905061246781612441565b92915050565b60006020828403121561248357612482611b04565b5b600061249184828501612458565b91505092915050565b6000815190506124a981612441565b92915050565b6000602082840312156124c5576124c4611b04565b5b60006124d38482850161249a565b91505092915050565b600082825260208201905092915050565b7f43616c6c657272206973206e6f74206c616e64206f776e657200000000000000600082015250565b60006125236019836124dc565b915061252e826124ed565b602082019050919050565b6000602082019050818103600083015261255281612516565b9050919050565b7f54797065206973206e6f742076616c6964000000000000000000000000000000600082015250565b600061258f6011836124dc565b915061259a82612559565b602082019050919050565b600060208201905081810360008301526125be81612582565b9050919050565b7f4e487b7100000000000000000000000000000000000000000000000000000000600052603260045260246000fd5b7f55706772616465206261727261636b73206e6565646564000000000000000000600082015250565b600061262a6017836124dc565b9150612635826125f4565b602082019050919050565b600060208201905081810360008301526126598161261d565b9050919050565b600067ffffffffffffffff82111561267b5761267a611c73565b5b602082029050919050565b60008151905061269581611b18565b92915050565b60006126ae6126a984612660565b611cd3565b905080602084028301858111156126c8576126c7611d1a565b5b835b818110156126f157806126dd8882612686565b8452602084019350506020810190506126ca565b5050509392505050565b600082601f8301126127105761270f611c5d565b5b600561271d84828561269b565b91505092915050565b600060a0828403121561273c5761273b611b04565b5b600061274a848285016126fb565b91505092915050565b7f496e73756666696369656e7420676f6c64000000000000000000000000000000600082015250565b60006127896011836124dc565b915061279482612753565b602082019050919050565b600060208201905081810360008301526127b88161277c565b9050919050565b600060c0820190506127d46000830185611e88565b6127e16020830184611beb565b9392505050565b7f4e487b7100000000000000000000000000000000000000000000000000000000600052601160045260246000fd5b600061282282611b0e565b915061282d83611b0e565b9250828201905080821115612845576128446127e8565b5b92915050565b7f4c616e64206e6f74206f776e656420627920796f750000000000000000000000600082015250565b60006128816015836124dc565b915061288c8261284b565b602082019050919050565b600060208201905081810360008301526128b081612874565b9050919050565b50565b60006128c76000836124dc565b91506128d2826128b7565b600082019050919050565b600060208201905081810360008301526128f6816128ba565b9050919050565b7f4c656e6774687320646f6573206e6f74206d6174636800000000000000000000600082015250565b60006129336016836124dc565b915061293e826128fd565b602082019050919050565b6000602082019050818103600083015261296281612926565b9050919050565b7f496e73756666696369656e742061726d79000000000000000000000000000000600082015250565b600061299f6011836124dc565b91506129aa82612969565b602082019050919050565b600060208201905081810360008301526129ce81612992565b9050919050565b60006129e082611b0e565b91506129eb83611b0e565b9250828203905081811115612a0357612a026127e8565b5b92915050565b6000612a1482611b0e565b91507fffffffffffffffffffffffffffffffffffffffffffffffffffffffffffffffff8203612a4657612a456127e8565b5b600182019050919050565b6000606082019050612a666000830186611e88565b612a736020830185611e88565b612a806040830184611e88565b949350505050565b6000612a9382611b0e565b9150612a9e83611b0e565b9250828202612aac81611b0e565b91508282048414831517612ac357612ac26127e8565b5b5092915050565b7f4e487b7100000000000000000000000000000000000000000000000000000000600052601260045260246000fd5b6000612b0482611b0e565b9150612b0f83611b0e565b925082612b1f57612b1e612aca565b5b828204905092915050565b7f496e73756666696369656e7420636f6d6d6f6469746965730000000000000000600082015250565b6000612b606018836124dc565b9150612b6b82612b2a565b602082019050919050565b60006020820190508181036000830152612b8f81612b53565b9050919050565b7f4e487b7100000000000000000000000000000000000000000000000000000000600052602260045260246000fd5b60006002820490506001821680612bdd57607f821691505b602082108103612bf057612bef612b96565b5b50919050565b60008190508160005260206000209050919050565b60006020601f8301049050919050565b600082821b905092915050565b600060088302612c587fffffffffffffffffffffffffffffffffffffffffffffffffffffffffffffffff82612c1b565b612c628683612c1b565b95508019841693508086168417925050509392505050565b6000819050919050565b6000612c9f612c9a612c9584611b0e565b612c7a565b611b0e565b9050919050565b6000819050919050565b612cb983612c84565b612ccd612cc582612ca6565b848454612c28565b825550505050565b600090565b612ce2612cd5565b612ced818484612cb0565b505050565b5b81811015612d1157612d06600082612cda565b600181019050612cf3565b5050565b601f821115612d5657612d2781612bf6565b612d3084612c0b565b81016020851015612d3f578190505b612d53612d4b85612c0b565b830182612cf2565b50505b505050565b600082821c905092915050565b6000612d7960001984600802612d5b565b1980831691505092915050565b6000612d928383612d68565b9150826002028217905092915050565b612dab82612267565b67ffffffffffffffff811115612dc457612dc3611c73565b5b612dce8254612bc5565b612dd9828285612d15565b600060209050601f831160018114612e0c5760008415612dfa578287015190505b612e048582612d86565b865550612e6c565b601f198416612e1a86612bf6565b60005b82811015612e4257848901518255600182019150602085019450602081019050612e1d565b86831015612e5f5784890151612e5b601f891682612d68565b8355505b6001600288020188555050505b505050505050565b7f4f776e61626c653a206e6577206f776e657220697320746865207a65726f206160008201527f6464726573730000000000000000000000000000000000000000000000000000602082015250565b6000612ed06026836124dc565b9150612edb82612e74565b604082019050919050565b60006020820190508181036000830152612eff81612ec3565b9050919050565b7f4f776e61626c653a2063616c6c6572206973206e6f7420746865206f776e6572600082015250565b6000612f3c6020836124dc565b9150612f4782612f06565b602082019050919050565b60006020820190508181036000830152612f6b81612f2f565b905091905056fea26469706673582212203698b0a6ad90160938cd5bb78dbcc9160d87580a90b52c3fe4e1f533d1453bb364736f6c6343000813003368747470733a2f2f697066732e696f2f697066732f516d556a4e5177667833446b5657313135637977585462674253626b68353375316b336244636d6141397861674a68747470733a2f2f697066732e696f2f697066732f516d6558786e433569717a655865424635446a5850654c4c75343633364173346d517076394c746f7448464d537068747470733a2f2f697066732e696f2f697066732f516d5464313774754e31466d4d596251794544624441374c3937613966506f36597a52594a5654476350316a576f",
  "linkReferences": {},
  "deployedLinkReferences": {}
}