{
  "_format": "hh-sol-artifact-1",
  "contractName": "Building",
  "sourceName": "contracts/Building.sol",
  "abi": [
    {
      "inputs": [
        {
          "internalType": "address",
          "name": "landsContractAddress",
          "type": "address"
        }
      ],
      "stateMutability": "nonpayable",
      "type": "constructor"
    },
    {
      "anonymous": false,
      "inputs": [
        {
          "indexed": true,
          "internalType": "address",
          "name": "owner",
          "type": "address"
        },
        {
          "indexed": true,
          "internalType": "address",
          "name": "approved",
          "type": "address"
        },
        {
          "indexed": true,
          "internalType": "uint256",
          "name": "tokenId",
          "type": "uint256"
        }
      ],
      "name": "Approval",
      "type": "event"
    },
    {
      "anonymous": false,
      "inputs": [
        {
          "indexed": true,
          "internalType": "address",
          "name": "owner",
          "type": "address"
        },
        {
          "indexed": true,
          "internalType": "address",
          "name": "operator",
          "type": "address"
        },
        {
          "indexed": false,
          "internalType": "bool",
          "name": "approved",
          "type": "bool"
        }
      ],
      "name": "ApprovalForAll",
      "type": "event"
    },
    {
      "anonymous": false,
      "inputs": [
        {
          "indexed": true,
          "internalType": "address",
          "name": "previousOwner",
          "type": "address"
        },
        {
          "indexed": true,
          "internalType": "address",
          "name": "newOwner",
          "type": "address"
        }
      ],
      "name": "OwnershipTransferred",
      "type": "event"
    },
    {
      "anonymous": false,
      "inputs": [
        {
          "indexed": true,
          "internalType": "address",
          "name": "from",
          "type": "address"
        },
        {
          "indexed": true,
          "internalType": "address",
          "name": "to",
          "type": "address"
        },
        {
          "indexed": true,
          "internalType": "uint256",
          "name": "tokenId",
          "type": "uint256"
        }
      ],
      "name": "Transfer",
      "type": "event"
    },
    {
      "inputs": [
        {
          "internalType": "uint256[7]",
          "name": "requiredCommodities",
          "type": "uint256[7]"
        },
        {
          "internalType": "string",
          "name": "imgUrl",
          "type": "string"
        },
        {
          "internalType": "string",
          "name": "name",
          "type": "string"
        }
      ],
      "name": "addNewBuilding",
      "outputs": [],
      "stateMutability": "nonpayable",
      "type": "function"
    },
    {
      "inputs": [
        {
          "internalType": "address",
          "name": "to",
          "type": "address"
        },
        {
          "internalType": "uint256",
          "name": "tokenId",
          "type": "uint256"
        }
      ],
      "name": "approve",
      "outputs": [],
      "stateMutability": "nonpayable",
      "type": "function"
    },
    {
      "inputs": [
        {
          "internalType": "address",
          "name": "owner",
          "type": "address"
        }
      ],
      "name": "balanceOf",
      "outputs": [
        {
          "internalType": "uint256",
          "name": "",
          "type": "uint256"
        }
      ],
      "stateMutability": "view",
      "type": "function"
    },
    {
      "inputs": [
        {
          "internalType": "uint256",
          "name": "landTokenId",
          "type": "uint256"
        },
        {
          "internalType": "uint8",
          "name": "buildingIndex",
          "type": "uint8"
        }
      ],
      "name": "build",
      "outputs": [],
      "stateMutability": "nonpayable",
      "type": "function"
    },
    {
      "inputs": [
        {
          "internalType": "uint256",
          "name": "buildingTokenId",
          "type": "uint256"
        }
      ],
      "name": "claimRevenue",
      "outputs": [],
      "stateMutability": "nonpayable",
      "type": "function"
    },
    {
      "inputs": [
        {
          "internalType": "uint256",
          "name": "tokenId",
          "type": "uint256"
        }
      ],
      "name": "getApproved",
      "outputs": [
        {
          "internalType": "address",
          "name": "",
          "type": "address"
        }
      ],
      "stateMutability": "view",
      "type": "function"
    },
    {
      "inputs": [
        {
          "internalType": "uint256",
          "name": "landTokenId",
          "type": "uint256"
        },
        {
          "internalType": "uint8",
          "name": "commodityTokenIndex",
          "type": "uint8"
        }
      ],
      "name": "getBal",
      "outputs": [
        {
          "internalType": "uint256",
          "name": "",
          "type": "uint256"
        }
      ],
      "stateMutability": "view",
      "type": "function"
    },
    {
      "inputs": [
        {
          "internalType": "uint8",
          "name": "typeIndex",
          "type": "uint8"
        }
      ],
      "name": "getBuilding",
      "outputs": [
        {
          "components": [
            {
              "internalType": "uint256",
              "name": "requiredStone",
              "type": "uint256"
            },
            {
              "internalType": "uint256",
              "name": "requiredWood",
              "type": "uint256"
            },
            {
              "internalType": "uint256",
              "name": "requiredIron",
              "type": "uint256"
            },
            {
              "internalType": "uint256",
              "name": "requiredGold",
              "type": "uint256"
            },
            {
              "internalType": "uint256",
              "name": "requiredFood",
              "type": "uint256"
            },
            {
              "internalType": "uint256",
              "name": "baseRev",
              "type": "uint256"
            },
            {
              "internalType": "uint256",
              "name": "baseCapacity",
              "type": "uint256"
            },
            {
              "internalType": "uint8",
              "name": "revTokenIndex",
              "type": "uint8"
            },
            {
              "internalType": "string",
              "name": "imageURL",
              "type": "string"
            },
            {
              "internalType": "string",
              "name": "biuldingName",
              "type": "string"
            }
          ],
          "internalType": "struct Building.Info",
          "name": "",
          "type": "tuple"
        }
      ],
      "stateMutability": "view",
      "type": "function"
    },
    {
      "inputs": [
        {
          "internalType": "uint256",
          "name": "buildingTokenId",
          "type": "uint256"
        }
      ],
      "name": "getCurrentRevenue",
      "outputs": [
        {
          "internalType": "uint256",
          "name": "",
          "type": "uint256"
        }
      ],
      "stateMutability": "view",
      "type": "function"
    },
    {
      "inputs": [
        {
          "internalType": "uint256",
          "name": "tokenId",
          "type": "uint256"
        }
      ],
      "name": "getStatus",
      "outputs": [
        {
          "components": [
            {
              "internalType": "uint256",
              "name": "level",
              "type": "uint256"
            },
            {
              "internalType": "uint256",
              "name": "latestActionTimestamp",
              "type": "uint256"
            },
            {
              "internalType": "uint256",
              "name": "attachedLand",
              "type": "uint256"
            },
            {
              "internalType": "uint8",
              "name": "buildingTypeIndex",
              "type": "uint8"
            }
          ],
          "internalType": "struct Building.Status",
          "name": "",
          "type": "tuple"
        }
      ],
      "stateMutability": "view",
      "type": "function"
    },
    {
      "inputs": [
        {
          "internalType": "address",
          "name": "owner",
          "type": "address"
        },
        {
          "internalType": "address",
          "name": "operator",
          "type": "address"
        }
      ],
      "name": "isApprovedForAll",
      "outputs": [
        {
          "internalType": "bool",
          "name": "",
          "type": "bool"
        }
      ],
      "stateMutability": "view",
      "type": "function"
    },
    {
      "inputs": [],
      "name": "name",
      "outputs": [
        {
          "internalType": "string",
          "name": "",
          "type": "string"
        }
      ],
      "stateMutability": "view",
      "type": "function"
    },
    {
      "inputs": [],
      "name": "owner",
      "outputs": [
        {
          "internalType": "address",
          "name": "",
          "type": "address"
        }
      ],
      "stateMutability": "view",
      "type": "function"
    },
    {
      "inputs": [
        {
          "internalType": "uint256",
          "name": "tokenId",
          "type": "uint256"
        }
      ],
      "name": "ownerOf",
      "outputs": [
        {
          "internalType": "address",
          "name": "",
          "type": "address"
        }
      ],
      "stateMutability": "view",
      "type": "function"
    },
    {
      "inputs": [],
      "name": "renounceOwnership",
      "outputs": [],
      "stateMutability": "nonpayable",
      "type": "function"
    },
    {
      "inputs": [
        {
          "internalType": "address",
          "name": "from",
          "type": "address"
        },
        {
          "internalType": "address",
          "name": "to",
          "type": "address"
        },
        {
          "internalType": "uint256",
          "name": "tokenId",
          "type": "uint256"
        }
      ],
      "name": "safeTransferFrom",
      "outputs": [],
      "stateMutability": "nonpayable",
      "type": "function"
    },
    {
      "inputs": [
        {
          "internalType": "address",
          "name": "from",
          "type": "address"
        },
        {
          "internalType": "address",
          "name": "to",
          "type": "address"
        },
        {
          "internalType": "uint256",
          "name": "tokenId",
          "type": "uint256"
        },
        {
          "internalType": "bytes",
          "name": "data",
          "type": "bytes"
        }
      ],
      "name": "safeTransferFrom",
      "outputs": [],
      "stateMutability": "nonpayable",
      "type": "function"
    },
    {
      "inputs": [
        {
          "internalType": "address",
          "name": "operator",
          "type": "address"
        },
        {
          "internalType": "bool",
          "name": "approved",
          "type": "bool"
        }
      ],
      "name": "setApprovalForAll",
      "outputs": [],
      "stateMutability": "nonpayable",
      "type": "function"
    },
    {
      "inputs": [
        {
          "internalType": "bytes4",
          "name": "interfaceId",
          "type": "bytes4"
        }
      ],
      "name": "supportsInterface",
      "outputs": [
        {
          "internalType": "bool",
          "name": "",
          "type": "bool"
        }
      ],
      "stateMutability": "view",
      "type": "function"
    },
    {
      "inputs": [],
      "name": "symbol",
      "outputs": [
        {
          "internalType": "string",
          "name": "",
          "type": "string"
        }
      ],
      "stateMutability": "view",
      "type": "function"
    },
    {
      "inputs": [
        {
          "internalType": "uint256",
          "name": "_tokenId",
          "type": "uint256"
        }
      ],
      "name": "tokenURI",
      "outputs": [
        {
          "internalType": "string",
          "name": "",
          "type": "string"
        }
      ],
      "stateMutability": "view",
      "type": "function"
    },
    {
      "inputs": [
        {
          "internalType": "address",
          "name": "from",
          "type": "address"
        },
        {
          "internalType": "address",
          "name": "to",
          "type": "address"
        },
        {
          "internalType": "uint256",
          "name": "tokenId",
          "type": "uint256"
        }
      ],
      "name": "transferFrom",
      "outputs": [],
      "stateMutability": "nonpayable",
      "type": "function"
    },
    {
      "inputs": [
        {
          "internalType": "address",
          "name": "newOwner",
          "type": "address"
        }
      ],
      "name": "transferOwnership",
      "outputs": [],
      "stateMutability": "nonpayable",
      "type": "function"
    },
    {
      "inputs": [
        {
          "internalType": "uint256",
          "name": "buildingTokenId",
          "type": "uint256"
        },
        {
          "internalType": "uint256",
          "name": "landTokenId",
          "type": "uint256"
        }
      ],
      "name": "upgrade",
      "outputs": [],
      "stateMutability": "nonpayable",
      "type": "function"
    }
  ],
  "bytecode": "0x608060405260016008553480156200001657600080fd5b5060405162004ff438038062004ff483398181016040528101906200003c91906200026e565b6040518060400160405280600981526020017f4275696c64696e677300000000000000000000000000000000000000000000008152506040518060400160405280600381526020017f42444700000000000000000000000000000000000000000000000000000000008152508160009081620000b991906200051a565b508060019081620000cb91906200051a565b505050620000ee620000e26200013660201b60201c565b6200013e60201b60201c565b80600760006101000a81548173ffffffffffffffffffffffffffffffffffffffff021916908373ffffffffffffffffffffffffffffffffffffffff1602179055505062000601565b600033905090565b6000600660009054906101000a900473ffffffffffffffffffffffffffffffffffffffff16905081600660006101000a81548173ffffffffffffffffffffffffffffffffffffffff021916908373ffffffffffffffffffffffffffffffffffffffff1602179055508173ffffffffffffffffffffffffffffffffffffffff168173ffffffffffffffffffffffffffffffffffffffff167f8be0079c531659141344cd1fd0a4f28419497f9722a3daafe3b4186f6b6457e060405160405180910390a35050565b600080fd5b600073ffffffffffffffffffffffffffffffffffffffff82169050919050565b6000620002368262000209565b9050919050565b620002488162000229565b81146200025457600080fd5b50565b60008151905062000268816200023d565b92915050565b60006020828403121562000287576200028662000204565b5b6000620002978482850162000257565b91505092915050565b600081519050919050565b7f4e487b7100000000000000000000000000000000000000000000000000000000600052604160045260246000fd5b7f4e487b7100000000000000000000000000000000000000000000000000000000600052602260045260246000fd5b600060028204905060018216806200032257607f821691505b602082108103620003385762000337620002da565b5b50919050565b60008190508160005260206000209050919050565b60006020601f8301049050919050565b600082821b905092915050565b600060088302620003a27fffffffffffffffffffffffffffffffffffffffffffffffffffffffffffffffff8262000363565b620003ae868362000363565b95508019841693508086168417925050509392505050565b6000819050919050565b6000819050919050565b6000620003fb620003f5620003ef84620003c6565b620003d0565b620003c6565b9050919050565b6000819050919050565b6200041783620003da565b6200042f620004268262000402565b84845462000370565b825550505050565b600090565b6200044662000437565b620004538184846200040c565b505050565b5b818110156200047b576200046f6000826200043c565b60018101905062000459565b5050565b601f821115620004ca5762000494816200033e565b6200049f8462000353565b81016020851015620004af578190505b620004c7620004be8562000353565b83018262000458565b50505b505050565b600082821c905092915050565b6000620004ef60001984600802620004cf565b1980831691505092915050565b60006200050a8383620004dc565b9150826002028217905092915050565b6200052582620002a0565b67ffffffffffffffff811115620005415762000540620002ab565b5b6200054d825462000309565b6200055a8282856200047f565b600060209050601f8311600181146200059257600084156200057d578287015190505b620005898582620004fc565b865550620005f9565b601f198416620005a2866200033e565b60005b82811015620005cc57848901518255600182019150602085019450602081019050620005a5565b86831015620005ec5784890151620005e8601f891682620004dc565b8355505b6001600288020188555050505b505050505050565b6149e380620006116000396000f3fe608060405234801561001057600080fd5b50600436106101585760003560e01c806370a08231116100c3578063ae0324c51161007c578063ae0324c5146103d5578063b88d4fde146103f1578063c23eb0111461040d578063c87b56dd1461043d578063e985e9c51461046d578063f2fde38b1461049d57610158565b806370a0823114610313578063715018a6146103435780638da5cb5b1461034d57806395d89b411461036b578063a22cb46514610389578063aa7e7fa7146103a557610158565b806342842e0e1161011557806342842e0e1461022f578063451450ec1461024b5780634639aa3f14610267578063595c3824146102835780635c622a0e146102b35780636352211e146102e357610158565b806301ffc9a71461015d57806306fdde031461018d578063081812fc146101ab578063095ea7b3146101db5780631cb536ed146101f757806323b872dd14610213575b600080fd5b61017760048036038101906101729190612e0b565b6104b9565b6040516101849190612e53565b60405180910390f35b61019561059b565b6040516101a29190612efe565b60405180910390f35b6101c560048036038101906101c09190612f56565b61062d565b6040516101d29190612fc4565b60405180910390f35b6101f560048036038101906101f0919061300b565b610673565b005b610211600480360381019061020c9190612f56565b61078a565b005b61022d6004803603810190610228919061304b565b610a9c565b005b6102496004803603810190610244919061304b565b610afc565b005b6102656004803603810190610260919061309e565b610b1c565b005b610281600480360381019061027c9190613117565b610e72565b005b61029d60048036038101906102989190613117565b6113d5565b6040516102aa9190613166565b60405180910390f35b6102cd60048036038101906102c89190612f56565b61147d565b6040516102da91906131f4565b60405180910390f35b6102fd60048036038101906102f89190612f56565b6114e5565b60405161030a9190612fc4565b60405180910390f35b61032d6004803603810190610328919061320f565b61156b565b60405161033a9190613166565b60405180910390f35b61034b611622565b005b610355611636565b6040516103629190612fc4565b60405180910390f35b610373611660565b6040516103809190612efe565b60405180910390f35b6103a3600480360381019061039e9190613268565b6116f2565b005b6103bf60048036038101906103ba9190612f56565b611708565b6040516103cc9190613166565b60405180910390f35b6103ef60048036038101906103ea9190613493565b6117b6565b005b61040b600480360381019061040691906135c1565b6119bb565b005b61042760048036038101906104229190613644565b611a1d565b604051610434919061379c565b60405180910390f35b61045760048036038101906104529190612f56565b611bd8565b6040516104649190612efe565b60405180910390f35b610487600480360381019061048291906137be565b611e42565b6040516104949190612e53565b60405180910390f35b6104b760048036038101906104b2919061320f565b611ed6565b005b60007f80ac58cd000000000000000000000000000000000000000000000000000000007bffffffffffffffffffffffffffffffffffffffffffffffffffffffff1916827bffffffffffffffffffffffffffffffffffffffffffffffffffffffff1916148061058457507f5b5e139f000000000000000000000000000000000000000000000000000000007bffffffffffffffffffffffffffffffffffffffffffffffffffffffff1916827bffffffffffffffffffffffffffffffffffffffffffffffffffffffff1916145b80610594575061059382611f59565b5b9050919050565b6060600080546105aa9061382d565b80601f01602080910402602001604051908101604052809291908181526020018280546105d69061382d565b80156106235780601f106105f857610100808354040283529160200191610623565b820191906000526020600020905b81548152906001019060200180831161060657829003601f168201915b5050505050905090565b600061063882611fc3565b6004600083815260200190815260200160002060009054906101000a900473ffffffffffffffffffffffffffffffffffffffff169050919050565b600061067e826114e5565b90508073ffffffffffffffffffffffffffffffffffffffff168373ffffffffffffffffffffffffffffffffffffffff16036106ee576040517f08c379a00000000000000000000000000000000000000000000000000000000081526004016106e5906138d0565b60405180910390fd5b8073ffffffffffffffffffffffffffffffffffffffff1661070d61200e565b73ffffffffffffffffffffffffffffffffffffffff16148061073c575061073b8161073661200e565b611e42565b5b61077b576040517f08c379a000000000000000000000000000000000000000000000000000000000815260040161077290613962565b60405180910390fd5b6107858383612016565b505050565b803373ffffffffffffffffffffffffffffffffffffffff166107ab826120cf565b73ffffffffffffffffffffffffffffffffffffffff1614610801576040517f08c379a00000000000000000000000000000000000000000000000000000000081526004016107f8906139ce565b60405180910390fd5b600061080c8361147d565b90506000600b6000836060015160ff1660ff16815260200190815260200160002060405180610140016040529081600082015481526020016001820154815260200160028201548152602001600382015481526020016004820154815260200160058201548152602001600682015481526020016007820160009054906101000a900460ff1660ff1660ff1681526020016008820180546108ac9061382d565b80601f01602080910402602001604051908101604052809291908181526020018280546108d89061382d565b80156109255780601f106108fa57610100808354040283529160200191610925565b820191906000526020600020905b81548152906001019060200180831161090857829003601f168201915b5050505050815260200160098201805461093e9061382d565b80601f016020809104026020016040519081016040528092919081815260200182805461096a9061382d565b80156109b75780601f1061098c576101008083540402835291602001916109b7565b820191906000526020600020905b81548152906001019060200180831161099a57829003601f168201915b505050505081525050905060006109cd85611708565b905042600a600087815260200190815260200160002060010181905550600760009054906101000a900473ffffffffffffffffffffffffffffffffffffffff1673ffffffffffffffffffffffffffffffffffffffff1663728834a58360e0015183600a60008a8152602001908152602001600020600201546040518463ffffffff1660e01b8152600401610a6393929190613a29565b600060405180830381600087803b158015610a7d57600080fd5b505af1158015610a91573d6000803e3d6000fd5b505050505050505050565b610aad610aa761200e565b8261210c565b610aec576040517f08c379a0000000000000000000000000000000000000000000000000000000008152600401610ae390613ad2565b60405180910390fd5b610af78383836121a1565b505050565b610b17838383604051806020016040528060008152506119bb565b505050565b816000600a600083815260200190815260200160002060010154905060008142610b469190613b21565b9050620151808110610b8d576040517f08c379a0000000000000000000000000000000000000000000000000000000008152600401610b8490613bc7565b60405180910390fd5b6000610b988661147d565b90506000610ba98260600151611a1d565b90506000826000015190506000610bc18860006113d5565b90506000610bd08960016113d5565b90506000610bdf8a60026113d5565b90506000610bee8b60036113d5565b90506000610bfd8c60046113d5565b9050600186610c0c9190613be7565b8760000151610c1b9190613c1b565b8510158015610c455750600186610c329190613be7565b8760200151610c419190613c1b565b8410155b8015610c6c5750600186610c599190613be7565b8760400151610c689190613c1b565b8310155b8015610c935750600186610c809190613be7565b8760800151610c8f9190613c1b565b8210155b8015610cba5750600186610ca79190613be7565b8760600151610cb69190613c1b565b8110155b610cf9576040517f08c379a0000000000000000000000000000000000000000000000000000000008152600401610cf090613ca9565b60405180910390fd5b600760009054906101000a900473ffffffffffffffffffffffffffffffffffffffff1673ffffffffffffffffffffffffffffffffffffffff1663308fad6d8d6040518060a0016040528060018b610d509190613be7565b8c60000151610d5f9190613c1b565b815260200160018b610d719190613be7565b8c60200151610d809190613c1b565b815260200160018b610d929190613be7565b8c60400151610da19190613c1b565b815260200160018b610db39190613be7565b8c60800151610dc29190613c1b565b815260200160018b610dd49190613be7565b8c60600151610de39190613c1b565b8152506040518363ffffffff1660e01b8152600401610e03929190613d65565b600060405180830381600087803b158015610e1d57600080fd5b505af1158015610e31573d6000803e3d6000fd5b505050506001600a60008f81526020019081526020016000206000016000828254610e5c9190613be7565b9250508190555050505050505050505050505050565b813373ffffffffffffffffffffffffffffffffffffffff16600760009054906101000a900473ffffffffffffffffffffffffffffffffffffffff1673ffffffffffffffffffffffffffffffffffffffff16636352211e836040518263ffffffff1660e01b8152600401610ee59190613166565b602060405180830381865afa158015610f02573d6000803e3d6000fd5b505050506040513d601f19601f82011682018060405250810190610f269190613da3565b73ffffffffffffffffffffffffffffffffffffffff1614610f7c576040517f08c379a0000000000000000000000000000000000000000000000000000000008152600401610f7390613e1c565b60405180910390fd5b600960009054906101000a900460ff1660ff168260ff1610610fd3576040517f08c379a0000000000000000000000000000000000000000000000000000000008152600401610fca90613e88565b60405180910390fd5b6000600b60008460ff1660ff16815260200190815260200160002060405180610140016040529081600082015481526020016001820154815260200160028201548152602001600382015481526020016004820154815260200160058201548152602001600682015481526020016007820160009054906101000a900460ff1660ff1660ff16815260200160088201805461106d9061382d565b80601f01602080910402602001604051908101604052809291908181526020018280546110999061382d565b80156110e65780601f106110bb576101008083540402835291602001916110e6565b820191906000526020600020905b8154815290600101906020018083116110c957829003601f168201915b505050505081526020016009820180546110ff9061382d565b80601f016020809104026020016040519081016040528092919081815260200182805461112b9061382d565b80156111785780601f1061114d57610100808354040283529160200191611178565b820191906000526020600020905b81548152906001019060200180831161115b57829003601f168201915b505050505081525050905060006111908560006113d5565b9050600061119f8660016113d5565b905060006111ae8760026113d5565b905060006111bd8860036113d5565b905060006111cc8960046113d5565b9050856000015185101580156111e6575085602001518410155b80156111f6575085604001518310155b8015611206575085608001518210155b8015611216575085606001518110155b611255576040517f08c379a000000000000000000000000000000000000000000000000000000000815260040161124c90613ca9565b60405180910390fd5b600760009054906101000a900473ffffffffffffffffffffffffffffffffffffffff1673ffffffffffffffffffffffffffffffffffffffff1663308fad6d8a6040518060a001604052808a6000015181526020018a6020015181526020018a6040015181526020018a6080015181526020018a606001518152506040518363ffffffff1660e01b81526004016112ec929190613d65565b600060405180830381600087803b15801561130657600080fd5b505af115801561131a573d6000803e3d6000fd5b505050506040518060800160405280600181526020014281526020018a81526020018960ff16815250600a6000600854815260200190815260200160002060008201518160000155602082015181600101556040820151816002015560608201518160030160006101000a81548160ff021916908360ff1602179055509050506113a63360085461249a565b6113b2896008546124b8565b600860008154809291906113c590613ea8565b9190505550505050505050505050565b6000600760009054906101000a900473ffffffffffffffffffffffffffffffffffffffff1673ffffffffffffffffffffffffffffffffffffffff16639c930ab184846040518363ffffffff1660e01b8152600401611434929190613ef0565b602060405180830381865afa158015611451573d6000803e3d6000fd5b505050506040513d601f19601f820116820180604052508101906114759190613f2e565b905092915050565b611485612d1e565b600a60008381526020019081526020016000206040518060800160405290816000820154815260200160018201548152602001600282015481526020016003820160009054906101000a900460ff1660ff1660ff16815250509050919050565b6000806114f1836120cf565b9050600073ffffffffffffffffffffffffffffffffffffffff168173ffffffffffffffffffffffffffffffffffffffff1603611562576040517f08c379a000000000000000000000000000000000000000000000000000000000815260040161155990613fa7565b60405180910390fd5b80915050919050565b60008073ffffffffffffffffffffffffffffffffffffffff168273ffffffffffffffffffffffffffffffffffffffff16036115db576040517f08c379a00000000000000000000000000000000000000000000000000000000081526004016115d290614039565b60405180910390fd5b600360008373ffffffffffffffffffffffffffffffffffffffff1673ffffffffffffffffffffffffffffffffffffffff168152602001908152602001600020549050919050565b61162a6125a3565b6116346000612621565b565b6000600660009054906101000a900473ffffffffffffffffffffffffffffffffffffffff16905090565b60606001805461166f9061382d565b80601f016020809104026020016040519081016040528092919081815260200182805461169b9061382d565b80156116e85780601f106116bd576101008083540402835291602001916116e8565b820191906000526020600020905b8154815290600101906020018083116116cb57829003601f168201915b5050505050905090565b6117046116fd61200e565b83836126e7565b5050565b6000806117148361147d565b905060006117258260600151611a1d565b90506000826020015190506000814261173e9190613b21565b905060008360a0015185600001516117569190613c1b565b9050600081620151808461176a9190614088565b6117749190613c1b565b905085600001518560c0015161178a9190613c1b565b8111156117a85785600001518560c001516117a59190613c1b565b90505b809650505050505050919050565b6117be6125a3565b604051806101400160405280846000600781106117de576117dd6140b9565b5b60200201518152602001846001600781106117fc576117fb6140b9565b5b602002015181526020018460026007811061181a576118196140b9565b5b6020020151815260200184600360078110611838576118376140b9565b5b6020020151815260200184600460078110611856576118556140b9565b5b6020020151815260200184600560078110611874576118736140b9565b5b6020020151815260200184600660078110611892576118916140b9565b5b60200201518152602001600960009054906101000a900460ff1660ff16815260200183815260200182815250600b6000600960009054906101000a900460ff1660ff1660ff168152602001908152602001600020600082015181600001556020820151816001015560408201518160020155606082015181600301556080820151816004015560a0820151816005015560c0820151816006015560e08201518160070160006101000a81548160ff021916908360ff160217905550610100820151816008019081611963919061428a565b5061012082015181600901908161197a919061428a565b509050506009600081819054906101000a900460ff168092919061199d9061435c565b91906101000a81548160ff021916908360ff16021790555050505050565b6119cc6119c661200e565b8361210c565b611a0b576040517f08c379a0000000000000000000000000000000000000000000000000000000008152600401611a0290613ad2565b60405180910390fd5b611a1784848484612853565b50505050565b611a25612d49565b600b60008360ff1660ff16815260200190815260200160002060405180610140016040529081600082015481526020016001820154815260200160028201548152602001600382015481526020016004820154815260200160058201548152602001600682015481526020016007820160009054906101000a900460ff1660ff1660ff168152602001600882018054611abd9061382d565b80601f0160208091040260200160405190810160405280929190818152602001828054611ae99061382d565b8015611b365780601f10611b0b57610100808354040283529160200191611b36565b820191906000526020600020905b815481529060010190602001808311611b1957829003601f168201915b50505050508152602001600982018054611b4f9061382d565b80601f0160208091040260200160405190810160405280929190818152602001828054611b7b9061382d565b8015611bc85780601f10611b9d57610100808354040283529160200191611bc8565b820191906000526020600020905b815481529060010190602001808311611bab57829003601f168201915b5050505050815250509050919050565b6060611be3826128af565b611c22576040517f08c379a0000000000000000000000000000000000000000000000000000000008152600401611c19906143f7565b60405180910390fd5b6000600a60008481526020019081526020016000206040518060800160405290816000820154815260200160018201548152602001600282015481526020016003820160009054906101000a900460ff1660ff1660ff168152505090506000600b6000836060015160ff1660ff16815260200190815260200160002060405180610140016040529081600082015481526020016001820154815260200160028201548152602001600382015481526020016004820154815260200160058201548152602001600682015481526020016007820160009054906101000a900460ff1660ff1660ff168152602001600882018054611d1d9061382d565b80601f0160208091040260200160405190810160405280929190818152602001828054611d499061382d565b8015611d965780601f10611d6b57610100808354040283529160200191611d96565b820191906000526020600020905b815481529060010190602001808311611d7957829003601f168201915b50505050508152602001600982018054611daf9061382d565b80601f0160208091040260200160405190810160405280929190818152602001828054611ddb9061382d565b8015611e285780601f10611dfd57610100808354040283529160200191611e28565b820191906000526020600020905b815481529060010190602001808311611e0b57829003601f168201915b505050505081525050905080610100015192505050919050565b6000600560008473ffffffffffffffffffffffffffffffffffffffff1673ffffffffffffffffffffffffffffffffffffffff16815260200190815260200160002060008373ffffffffffffffffffffffffffffffffffffffff1673ffffffffffffffffffffffffffffffffffffffff16815260200190815260200160002060009054906101000a900460ff16905092915050565b611ede6125a3565b600073ffffffffffffffffffffffffffffffffffffffff168173ffffffffffffffffffffffffffffffffffffffff1603611f4d576040517f08c379a0000000000000000000000000000000000000000000000000000000008152600401611f4490614489565b60405180910390fd5b611f5681612621565b50565b60007f01ffc9a7000000000000000000000000000000000000000000000000000000007bffffffffffffffffffffffffffffffffffffffffffffffffffffffff1916827bffffffffffffffffffffffffffffffffffffffffffffffffffffffff1916149050919050565b611fcc816128af565b61200b576040517f08c379a000000000000000000000000000000000000000000000000000000000815260040161200290613fa7565b60405180910390fd5b50565b600033905090565b816004600083815260200190815260200160002060006101000a81548173ffffffffffffffffffffffffffffffffffffffff021916908373ffffffffffffffffffffffffffffffffffffffff160217905550808273ffffffffffffffffffffffffffffffffffffffff16612089836114e5565b73ffffffffffffffffffffffffffffffffffffffff167f8c5be1e5ebec7d5bd14f71427d1e84f3dd0314c0f7b2291e5b200ac8c7c3b92560405160405180910390a45050565b60006002600083815260200190815260200160002060009054906101000a900473ffffffffffffffffffffffffffffffffffffffff169050919050565b600080612118836114e5565b90508073ffffffffffffffffffffffffffffffffffffffff168473ffffffffffffffffffffffffffffffffffffffff16148061215a57506121598185611e42565b5b8061219857508373ffffffffffffffffffffffffffffffffffffffff166121808461062d565b73ffffffffffffffffffffffffffffffffffffffff16145b91505092915050565b8273ffffffffffffffffffffffffffffffffffffffff166121c1826114e5565b73ffffffffffffffffffffffffffffffffffffffff1614612217576040517f08c379a000000000000000000000000000000000000000000000000000000000815260040161220e9061451b565b60405180910390fd5b600073ffffffffffffffffffffffffffffffffffffffff168273ffffffffffffffffffffffffffffffffffffffff1603612286576040517f08c379a000000000000000000000000000000000000000000000000000000000815260040161227d906145ad565b60405180910390fd5b61229383838360016128f0565b8273ffffffffffffffffffffffffffffffffffffffff166122b3826114e5565b73ffffffffffffffffffffffffffffffffffffffff1614612309576040517f08c379a00000000000000000000000000000000000000000000000000000000081526004016123009061451b565b60405180910390fd5b6004600082815260200190815260200160002060006101000a81549073ffffffffffffffffffffffffffffffffffffffff02191690556001600360008573ffffffffffffffffffffffffffffffffffffffff1673ffffffffffffffffffffffffffffffffffffffff168152602001908152602001600020600082825403925050819055506001600360008473ffffffffffffffffffffffffffffffffffffffff1673ffffffffffffffffffffffffffffffffffffffff16815260200190815260200160002060008282540192505081905550816002600083815260200190815260200160002060006101000a81548173ffffffffffffffffffffffffffffffffffffffff021916908373ffffffffffffffffffffffffffffffffffffffff160217905550808273ffffffffffffffffffffffffffffffffffffffff168473ffffffffffffffffffffffffffffffffffffffff167fddf252ad1be2c89b69c2b068fc378daa952ba7f163c4a11628f55a4df523b3ef60405160405180910390a461249583838360016128f6565b505050565b6124b48282604051806020016040528060008152506128fc565b5050565b81600a60008381526020019081526020016000206002015414612510576040517f08c379a00000000000000000000000000000000000000000000000000000000081526004016125079061463f565b60405180910390fd5b600760009054906101000a900473ffffffffffffffffffffffffffffffffffffffff1673ffffffffffffffffffffffffffffffffffffffff1663c55e0ec582846040518363ffffffff1660e01b815260040161256d92919061465f565b600060405180830381600087803b15801561258757600080fd5b505af115801561259b573d6000803e3d6000fd5b505050505050565b6125ab61200e565b73ffffffffffffffffffffffffffffffffffffffff166125c9611636565b73ffffffffffffffffffffffffffffffffffffffff161461261f576040517f08c379a0000000000000000000000000000000000000000000000000000000008152600401612616906146d4565b60405180910390fd5b565b6000600660009054906101000a900473ffffffffffffffffffffffffffffffffffffffff16905081600660006101000a81548173ffffffffffffffffffffffffffffffffffffffff021916908373ffffffffffffffffffffffffffffffffffffffff1602179055508173ffffffffffffffffffffffffffffffffffffffff168173ffffffffffffffffffffffffffffffffffffffff167f8be0079c531659141344cd1fd0a4f28419497f9722a3daafe3b4186f6b6457e060405160405180910390a35050565b8173ffffffffffffffffffffffffffffffffffffffff168373ffffffffffffffffffffffffffffffffffffffff1603612755576040517f08c379a000000000000000000000000000000000000000000000000000000000815260040161274c90614740565b60405180910390fd5b80600560008573ffffffffffffffffffffffffffffffffffffffff1673ffffffffffffffffffffffffffffffffffffffff16815260200190815260200160002060008473ffffffffffffffffffffffffffffffffffffffff1673ffffffffffffffffffffffffffffffffffffffff16815260200190815260200160002060006101000a81548160ff0219169083151502179055508173ffffffffffffffffffffffffffffffffffffffff168373ffffffffffffffffffffffffffffffffffffffff167f17307eab39ab6107e8899845ad3d59bd9653f200f220920489ca2b5937696c31836040516128469190612e53565b60405180910390a3505050565b61285e8484846121a1565b61286a84848484612957565b6128a9576040517f08c379a00000000000000000000000000000000000000000000000000000000081526004016128a0906147d2565b60405180910390fd5b50505050565b60008073ffffffffffffffffffffffffffffffffffffffff166128d1836120cf565b73ffffffffffffffffffffffffffffffffffffffff1614159050919050565b50505050565b50505050565b6129068383612ade565b6129136000848484612957565b612952576040517f08c379a0000000000000000000000000000000000000000000000000000000008152600401612949906147d2565b60405180910390fd5b505050565b60006129788473ffffffffffffffffffffffffffffffffffffffff16612cfb565b15612ad1578373ffffffffffffffffffffffffffffffffffffffff1663150b7a026129a161200e565b8786866040518563ffffffff1660e01b81526004016129c39493929190614847565b6020604051808303816000875af19250505080156129ff57506040513d601f19601f820116820180604052508101906129fc91906148a8565b60015b612a81573d8060008114612a2f576040519150601f19603f3d011682016040523d82523d6000602084013e612a34565b606091505b506000815103612a79576040517f08c379a0000000000000000000000000000000000000000000000000000000008152600401612a70906147d2565b60405180910390fd5b805181602001fd5b63150b7a0260e01b7bffffffffffffffffffffffffffffffffffffffffffffffffffffffff1916817bffffffffffffffffffffffffffffffffffffffffffffffffffffffff191614915050612ad6565b600190505b949350505050565b600073ffffffffffffffffffffffffffffffffffffffff168273ffffffffffffffffffffffffffffffffffffffff1603612b4d576040517f08c379a0000000000000000000000000000000000000000000000000000000008152600401612b4490614921565b60405180910390fd5b612b56816128af565b15612b96576040517f08c379a0000000000000000000000000000000000000000000000000000000008152600401612b8d9061498d565b60405180910390fd5b612ba46000838360016128f0565b612bad816128af565b15612bed576040517f08c379a0000000000000000000000000000000000000000000000000000000008152600401612be49061498d565b60405180910390fd5b6001600360008473ffffffffffffffffffffffffffffffffffffffff1673ffffffffffffffffffffffffffffffffffffffff16815260200190815260200160002060008282540192505081905550816002600083815260200190815260200160002060006101000a81548173ffffffffffffffffffffffffffffffffffffffff021916908373ffffffffffffffffffffffffffffffffffffffff160217905550808273ffffffffffffffffffffffffffffffffffffffff16600073ffffffffffffffffffffffffffffffffffffffff167fddf252ad1be2c89b69c2b068fc378daa952ba7f163c4a11628f55a4df523b3ef60405160405180910390a4612cf76000838360016128f6565b5050565b6000808273ffffffffffffffffffffffffffffffffffffffff163b119050919050565b6040518060800160405280600081526020016000815260200160008152602001600060ff1681525090565b60405180610140016040528060008152602001600081526020016000815260200160008152602001600081526020016000815260200160008152602001600060ff16815260200160608152602001606081525090565b6000604051905090565b600080fd5b600080fd5b60007fffffffff0000000000000000000000000000000000000000000000000000000082169050919050565b612de881612db3565b8114612df357600080fd5b50565b600081359050612e0581612ddf565b92915050565b600060208284031215612e2157612e20612da9565b5b6000612e2f84828501612df6565b91505092915050565b60008115159050919050565b612e4d81612e38565b82525050565b6000602082019050612e686000830184612e44565b92915050565b600081519050919050565b600082825260208201905092915050565b60005b83811015612ea8578082015181840152602081019050612e8d565b60008484015250505050565b6000601f19601f8301169050919050565b6000612ed082612e6e565b612eda8185612e79565b9350612eea818560208601612e8a565b612ef381612eb4565b840191505092915050565b60006020820190508181036000830152612f188184612ec5565b905092915050565b6000819050919050565b612f3381612f20565b8114612f3e57600080fd5b50565b600081359050612f5081612f2a565b92915050565b600060208284031215612f6c57612f6b612da9565b5b6000612f7a84828501612f41565b91505092915050565b600073ffffffffffffffffffffffffffffffffffffffff82169050919050565b6000612fae82612f83565b9050919050565b612fbe81612fa3565b82525050565b6000602082019050612fd96000830184612fb5565b92915050565b612fe881612fa3565b8114612ff357600080fd5b50565b60008135905061300581612fdf565b92915050565b6000806040838503121561302257613021612da9565b5b600061303085828601612ff6565b925050602061304185828601612f41565b9150509250929050565b60008060006060848603121561306457613063612da9565b5b600061307286828701612ff6565b935050602061308386828701612ff6565b925050604061309486828701612f41565b9150509250925092565b600080604083850312156130b5576130b4612da9565b5b60006130c385828601612f41565b92505060206130d485828601612f41565b9150509250929050565b600060ff82169050919050565b6130f4816130de565b81146130ff57600080fd5b50565b600081359050613111816130eb565b92915050565b6000806040838503121561312e5761312d612da9565b5b600061313c85828601612f41565b925050602061314d85828601613102565b9150509250929050565b61316081612f20565b82525050565b600060208201905061317b6000830184613157565b92915050565b61318a81612f20565b82525050565b613199816130de565b82525050565b6080820160008201516131b56000850182613181565b5060208201516131c86020850182613181565b5060408201516131db6040850182613181565b5060608201516131ee6060850182613190565b50505050565b6000608082019050613209600083018461319f565b92915050565b60006020828403121561322557613224612da9565b5b600061323384828501612ff6565b91505092915050565b61324581612e38565b811461325057600080fd5b50565b6000813590506132628161323c565b92915050565b6000806040838503121561327f5761327e612da9565b5b600061328d85828601612ff6565b925050602061329e85828601613253565b9150509250929050565b600080fd5b7f4e487b7100000000000000000000000000000000000000000000000000000000600052604160045260246000fd5b6132e582612eb4565b810181811067ffffffffffffffff82111715613304576133036132ad565b5b80604052505050565b6000613317612d9f565b905061332382826132dc565b919050565b600067ffffffffffffffff821115613343576133426132ad565b5b602082029050919050565b600080fd5b600061336661336184613328565b61330d565b905080602084028301858111156133805761337f61334e565b5b835b818110156133a957806133958882612f41565b845260208401935050602081019050613382565b5050509392505050565b600082601f8301126133c8576133c76132a8565b5b60076133d5848285613353565b91505092915050565b600080fd5b600067ffffffffffffffff8211156133fe576133fd6132ad565b5b61340782612eb4565b9050602081019050919050565b82818337600083830152505050565b6000613436613431846133e3565b61330d565b905082815260208101848484011115613452576134516133de565b5b61345d848285613414565b509392505050565b600082601f83011261347a576134796132a8565b5b813561348a848260208601613423565b91505092915050565b600080600061012084860312156134ad576134ac612da9565b5b60006134bb868287016133b3565b93505060e084013567ffffffffffffffff8111156134dc576134db612dae565b5b6134e886828701613465565b92505061010084013567ffffffffffffffff81111561350a57613509612dae565b5b61351686828701613465565b9150509250925092565b600067ffffffffffffffff82111561353b5761353a6132ad565b5b61354482612eb4565b9050602081019050919050565b600061356461355f84613520565b61330d565b9050828152602081018484840111156135805761357f6133de565b5b61358b848285613414565b509392505050565b600082601f8301126135a8576135a76132a8565b5b81356135b8848260208601613551565b91505092915050565b600080600080608085870312156135db576135da612da9565b5b60006135e987828801612ff6565b94505060206135fa87828801612ff6565b935050604061360b87828801612f41565b925050606085013567ffffffffffffffff81111561362c5761362b612dae565b5b61363887828801613593565b91505092959194509250565b60006020828403121561365a57613659612da9565b5b600061366884828501613102565b91505092915050565b600082825260208201905092915050565b600061368d82612e6e565b6136978185613671565b93506136a7818560208601612e8a565b6136b081612eb4565b840191505092915050565b6000610140830160008301516136d46000860182613181565b5060208301516136e76020860182613181565b5060408301516136fa6040860182613181565b50606083015161370d6060860182613181565b5060808301516137206080860182613181565b5060a083015161373360a0860182613181565b5060c083015161374660c0860182613181565b5060e083015161375960e0860182613190565b506101008301518482036101008601526137738282613682565b91505061012083015184820361012086015261378f8282613682565b9150508091505092915050565b600060208201905081810360008301526137b681846136bb565b905092915050565b600080604083850312156137d5576137d4612da9565b5b60006137e385828601612ff6565b92505060206137f485828601612ff6565b9150509250929050565b7f4e487b7100000000000000000000000000000000000000000000000000000000600052602260045260246000fd5b6000600282049050600182168061384557607f821691505b602082108103613858576138576137fe565b5b50919050565b7f4552433732313a20617070726f76616c20746f2063757272656e74206f776e6560008201527f7200000000000000000000000000000000000000000000000000000000000000602082015250565b60006138ba602183612e79565b91506138c58261385e565b604082019050919050565b600060208201905081810360008301526138e9816138ad565b9050919050565b7f4552433732313a20617070726f76652063616c6c6572206973206e6f7420746f60008201527f6b656e206f776e6572206f7220617070726f76656420666f7220616c6c000000602082015250565b600061394c603d83612e79565b9150613957826138f0565b604082019050919050565b6000602082019050818103600083015261397b8161393f565b9050919050565b7f4e6f74206f776e656420627920796f7500000000000000000000000000000000600082015250565b60006139b8601083612e79565b91506139c382613982565b602082019050919050565b600060208201905081810360008301526139e7816139ab565b9050919050565b6000819050919050565b6000613a13613a0e613a09846130de565b6139ee565b612f20565b9050919050565b613a23816139f8565b82525050565b6000606082019050613a3e6000830186613a1a565b613a4b6020830185613157565b613a586040830184613157565b949350505050565b7f4552433732313a2063616c6c6572206973206e6f7420746f6b656e206f776e6560008201527f72206f7220617070726f76656400000000000000000000000000000000000000602082015250565b6000613abc602d83612e79565b9150613ac782613a60565b604082019050919050565b60006020820190508181036000830152613aeb81613aaf565b9050919050565b7f4e487b7100000000000000000000000000000000000000000000000000000000600052601160045260246000fd5b6000613b2c82612f20565b9150613b3783612f20565b9250828203905081811115613b4f57613b4e613af2565b5b92915050565b7f536f7272792c20726576656e75652073686f756c6420636c61696d206265666f60008201527f726520616374696f6e0000000000000000000000000000000000000000000000602082015250565b6000613bb1602983612e79565b9150613bbc82613b55565b604082019050919050565b60006020820190508181036000830152613be081613ba4565b9050919050565b6000613bf282612f20565b9150613bfd83612f20565b9250828201905080821115613c1557613c14613af2565b5b92915050565b6000613c2682612f20565b9150613c3183612f20565b9250828202613c3f81612f20565b91508282048414831517613c5657613c55613af2565b5b5092915050565b7f496e73756666696369656e7420636f6d6d6f6469746965730000000000000000600082015250565b6000613c93601883612e79565b9150613c9e82613c5d565b602082019050919050565b60006020820190508181036000830152613cc281613c86565b9050919050565b600060059050919050565b600081905092915050565b6000819050919050565b6000613cf58383613181565b60208301905092915050565b6000602082019050919050565b613d1781613cc9565b613d218184613cd4565b9250613d2c82613cdf565b8060005b83811015613d5d578151613d448782613ce9565b9650613d4f83613d01565b925050600181019050613d30565b505050505050565b600060c082019050613d7a6000830185613157565b613d876020830184613d0e565b9392505050565b600081519050613d9d81612fdf565b92915050565b600060208284031215613db957613db8612da9565b5b6000613dc784828501613d8e565b91505092915050565b7f4c616e64206e6f74206f776e656420627920796f750000000000000000000000600082015250565b6000613e06601583612e79565b9150613e1182613dd0565b602082019050919050565b60006020820190508181036000830152613e3581613df9565b9050919050565b7f4275696c64696e67206973206e6f742076616c69640000000000000000000000600082015250565b6000613e72601583612e79565b9150613e7d82613e3c565b602082019050919050565b60006020820190508181036000830152613ea181613e65565b9050919050565b6000613eb382612f20565b91507fffffffffffffffffffffffffffffffffffffffffffffffffffffffffffffffff8203613ee557613ee4613af2565b5b600182019050919050565b6000604082019050613f056000830185613157565b613f126020830184613a1a565b9392505050565b600081519050613f2881612f2a565b92915050565b600060208284031215613f4457613f43612da9565b5b6000613f5284828501613f19565b91505092915050565b7f4552433732313a20696e76616c696420746f6b656e2049440000000000000000600082015250565b6000613f91601883612e79565b9150613f9c82613f5b565b602082019050919050565b60006020820190508181036000830152613fc081613f84565b9050919050565b7f4552433732313a2061646472657373207a65726f206973206e6f74206120766160008201527f6c6964206f776e65720000000000000000000000000000000000000000000000602082015250565b6000614023602983612e79565b915061402e82613fc7565b604082019050919050565b6000602082019050818103600083015261405281614016565b9050919050565b7f4e487b7100000000000000000000000000000000000000000000000000000000600052601260045260246000fd5b600061409382612f20565b915061409e83612f20565b9250826140ae576140ad614059565b5b828204905092915050565b7f4e487b7100000000000000000000000000000000000000000000000000000000600052603260045260246000fd5b60008190508160005260206000209050919050565b60006020601f8301049050919050565b600082821b905092915050565b60006008830261414a7fffffffffffffffffffffffffffffffffffffffffffffffffffffffffffffffff8261410d565b614154868361410d565b95508019841693508086168417925050509392505050565b600061418761418261417d84612f20565b6139ee565b612f20565b9050919050565b6000819050919050565b6141a18361416c565b6141b56141ad8261418e565b84845461411a565b825550505050565b600090565b6141ca6141bd565b6141d5818484614198565b505050565b5b818110156141f9576141ee6000826141c2565b6001810190506141db565b5050565b601f82111561423e5761420f816140e8565b614218846140fd565b81016020851015614227578190505b61423b614233856140fd565b8301826141da565b50505b505050565b600082821c905092915050565b600061426160001984600802614243565b1980831691505092915050565b600061427a8383614250565b9150826002028217905092915050565b61429382612e6e565b67ffffffffffffffff8111156142ac576142ab6132ad565b5b6142b6825461382d565b6142c18282856141fd565b600060209050601f8311600181146142f457600084156142e2578287015190505b6142ec858261426e565b865550614354565b601f198416614302866140e8565b60005b8281101561432a57848901518255600182019150602085019450602081019050614305565b868310156143475784890151614343601f891682614250565b8355505b6001600288020188555050505b505050505050565b6000614367826130de565b915060ff820361437a57614379613af2565b5b600182019050919050565b7f4552433732314d657461646174613a2055524920717565727920666f72206e6f60008201527f6e6578697374656e7420746f6b656e0000000000000000000000000000000000602082015250565b60006143e1602f83612e79565b91506143ec82614385565b604082019050919050565b60006020820190508181036000830152614410816143d4565b9050919050565b7f4f776e61626c653a206e6577206f776e657220697320746865207a65726f206160008201527f6464726573730000000000000000000000000000000000000000000000000000602082015250565b6000614473602683612e79565b915061447e82614417565b604082019050919050565b600060208201905081810360008301526144a281614466565b9050919050565b7f4552433732313a207472616e736665722066726f6d20696e636f72726563742060008201527f6f776e6572000000000000000000000000000000000000000000000000000000602082015250565b6000614505602583612e79565b9150614510826144a9565b604082019050919050565b60006020820190508181036000830152614534816144f8565b9050919050565b7f4552433732313a207472616e7366657220746f20746865207a65726f2061646460008201527f7265737300000000000000000000000000000000000000000000000000000000602082015250565b6000614597602483612e79565b91506145a28261453b565b604082019050919050565b600060208201905081810360008301526145c68161458a565b9050919050565b7f4275696c64696e6720697320616c726561647920617474616368656420746f2060008201527f6f6e65206c616e64000000000000000000000000000000000000000000000000602082015250565b6000614629602883612e79565b9150614634826145cd565b604082019050919050565b600060208201905081810360008301526146588161461c565b9050919050565b60006040820190506146746000830185613157565b6146816020830184613157565b9392505050565b7f4f776e61626c653a2063616c6c6572206973206e6f7420746865206f776e6572600082015250565b60006146be602083612e79565b91506146c982614688565b602082019050919050565b600060208201905081810360008301526146ed816146b1565b9050919050565b7f4552433732313a20617070726f766520746f2063616c6c657200000000000000600082015250565b600061472a601983612e79565b9150614735826146f4565b602082019050919050565b600060208201905081810360008301526147598161471d565b9050919050565b7f4552433732313a207472616e7366657220746f206e6f6e20455243373231526560008201527f63656976657220696d706c656d656e7465720000000000000000000000000000602082015250565b60006147bc603283612e79565b91506147c782614760565b604082019050919050565b600060208201905081810360008301526147eb816147af565b9050919050565b600081519050919050565b600082825260208201905092915050565b6000614819826147f2565b61482381856147fd565b9350614833818560208601612e8a565b61483c81612eb4565b840191505092915050565b600060808201905061485c6000830187612fb5565b6148696020830186612fb5565b6148766040830185613157565b8181036060830152614888818461480e565b905095945050505050565b6000815190506148a281612ddf565b92915050565b6000602082840312156148be576148bd612da9565b5b60006148cc84828501614893565b91505092915050565b7f4552433732313a206d696e7420746f20746865207a65726f2061646472657373600082015250565b600061490b602083612e79565b9150614916826148d5565b602082019050919050565b6000602082019050818103600083015261493a816148fe565b9050919050565b7f4552433732313a20746f6b656e20616c7265616479206d696e74656400000000600082015250565b6000614977601c83612e79565b915061498282614941565b602082019050919050565b600060208201905081810360008301526149a68161496a565b905091905056fea26469706673582212204d52ac4045a32382a525257ad0f372736b8ee6d4db8cd824d88495c0ac479b9d64736f6c63430008130033",
  "linkReferences": {},
  "deployedLinkReferences": {}
}