{
  "_format": "hh-sol-artifact-1",
  "contractName": "Lands",
  "sourceName": "contracts/Lands.sol",
  "abi": [
    {
      "inputs": [
        {
          "internalType": "address",
          "name": "_stone",
          "type": "address"
        },
        {
          "internalType": "address",
          "name": "_wood",
          "type": "address"
        },
        {
          "internalType": "address",
          "name": "_iron",
          "type": "address"
        },
        {
          "internalType": "address",
          "name": "_gold",
          "type": "address"
        },
        {
          "internalType": "address",
          "name": "_food",
          "type": "address"
        }
      ],
      "stateMutability": "nonpayable",
      "type": "constructor"
    },
    {
      "inputs": [],
      "name": "Lands__InvalidCoordinate",
      "type": "error"
    },
    {
      "inputs": [],
      "name": "Lands__LandAlreadyMinted",
      "type": "error"
    },
    {
      "anonymous": false,
      "inputs": [
        {
          "indexed": true,
          "internalType": "address",
          "name": "owner",
          "type": "address"
        },
        {
          "indexed": true,
          "internalType": "address",
          "name": "approved",
          "type": "address"
        },
        {
          "indexed": true,
          "internalType": "uint256",
          "name": "tokenId",
          "type": "uint256"
        }
      ],
      "name": "Approval",
      "type": "event"
    },
    {
      "anonymous": false,
      "inputs": [
        {
          "indexed": true,
          "internalType": "address",
          "name": "owner",
          "type": "address"
        },
        {
          "indexed": true,
          "internalType": "address",
          "name": "operator",
          "type": "address"
        },
        {
          "indexed": false,
          "internalType": "bool",
          "name": "approved",
          "type": "bool"
        }
      ],
      "name": "ApprovalForAll",
      "type": "event"
    },
    {
      "anonymous": false,
      "inputs": [
        {
          "indexed": true,
          "internalType": "address",
          "name": "previousOwner",
          "type": "address"
        },
        {
          "indexed": true,
          "internalType": "address",
          "name": "newOwner",
          "type": "address"
        }
      ],
      "name": "OwnershipTransferred",
      "type": "event"
    },
    {
      "anonymous": false,
      "inputs": [
        {
          "indexed": true,
          "internalType": "address",
          "name": "from",
          "type": "address"
        },
        {
          "indexed": true,
          "internalType": "address",
          "name": "to",
          "type": "address"
        },
        {
          "indexed": true,
          "internalType": "uint256",
          "name": "tokenId",
          "type": "uint256"
        }
      ],
      "name": "Transfer",
      "type": "event"
    },
    {
      "inputs": [],
      "name": "URI",
      "outputs": [
        {
          "internalType": "string",
          "name": "",
          "type": "string"
        }
      ],
      "stateMutability": "view",
      "type": "function"
    },
    {
      "inputs": [
        {
          "internalType": "address",
          "name": "newItem",
          "type": "address"
        }
      ],
      "name": "addItem",
      "outputs": [],
      "stateMutability": "nonpayable",
      "type": "function"
    },
    {
      "inputs": [
        {
          "internalType": "address",
          "name": "to",
          "type": "address"
        },
        {
          "internalType": "uint256",
          "name": "tokenId",
          "type": "uint256"
        }
      ],
      "name": "approve",
      "outputs": [],
      "stateMutability": "nonpayable",
      "type": "function"
    },
    {
      "inputs": [
        {
          "internalType": "address",
          "name": "owner",
          "type": "address"
        }
      ],
      "name": "balanceOf",
      "outputs": [
        {
          "internalType": "uint256",
          "name": "",
          "type": "uint256"
        }
      ],
      "stateMutability": "view",
      "type": "function"
    },
    {
      "inputs": [
        {
          "internalType": "uint256",
          "name": "assetIndex",
          "type": "uint256"
        },
        {
          "internalType": "uint256",
          "name": "amount",
          "type": "uint256"
        },
        {
          "internalType": "uint256",
          "name": "landTokenId",
          "type": "uint256"
        }
      ],
      "name": "claimAsset",
      "outputs": [],
      "stateMutability": "nonpayable",
      "type": "function"
    },
    {
      "inputs": [
        {
          "internalType": "address",
          "name": "commodityTokenAddress",
          "type": "address"
        },
        {
          "internalType": "uint256",
          "name": "amount",
          "type": "uint256"
        },
        {
          "internalType": "uint256",
          "name": "landId",
          "type": "uint256"
        }
      ],
      "name": "deposit",
      "outputs": [],
      "stateMutability": "nonpayable",
      "type": "function"
    },
    {
      "inputs": [
        {
          "internalType": "uint256",
          "name": "tokenId",
          "type": "uint256"
        }
      ],
      "name": "getApproved",
      "outputs": [
        {
          "internalType": "address",
          "name": "",
          "type": "address"
        }
      ],
      "stateMutability": "view",
      "type": "function"
    },
    {
      "inputs": [
        {
          "internalType": "uint256",
          "name": "tokenId",
          "type": "uint256"
        }
      ],
      "name": "getAssetsBal",
      "outputs": [
        {
          "internalType": "uint256[5]",
          "name": "",
          "type": "uint256[5]"
        }
      ],
      "stateMutability": "view",
      "type": "function"
    },
    {
      "inputs": [
        {
          "internalType": "uint256",
          "name": "tokenId",
          "type": "uint256"
        }
      ],
      "name": "getLand",
      "outputs": [
        {
          "components": [
            {
              "internalType": "uint8",
              "name": "coordinateX",
              "type": "uint8"
            },
            {
              "internalType": "uint8",
              "name": "coordinateY",
              "type": "uint8"
            },
            {
              "internalType": "uint8",
              "name": "level",
              "type": "uint8"
            }
          ],
          "internalType": "struct Lands.Land",
          "name": "",
          "type": "tuple"
        }
      ],
      "stateMutability": "view",
      "type": "function"
    },
    {
      "inputs": [
        {
          "internalType": "address",
          "name": "owner",
          "type": "address"
        },
        {
          "internalType": "address",
          "name": "operator",
          "type": "address"
        }
      ],
      "name": "isApprovedForAll",
      "outputs": [
        {
          "internalType": "bool",
          "name": "",
          "type": "bool"
        }
      ],
      "stateMutability": "view",
      "type": "function"
    },
    {
      "inputs": [
        {
          "internalType": "uint256",
          "name": "attackerLandId",
          "type": "uint256"
        },
        {
          "internalType": "uint256",
          "name": "targetLandId",
          "type": "uint256"
        },
        {
          "internalType": "uint256",
          "name": "lootPercentage",
          "type": "uint256"
        }
      ],
      "name": "loot",
      "outputs": [],
      "stateMutability": "nonpayable",
      "type": "function"
    },
    {
      "inputs": [
        {
          "internalType": "uint8",
          "name": "x",
          "type": "uint8"
        },
        {
          "internalType": "uint8",
          "name": "y",
          "type": "uint8"
        }
      ],
      "name": "mintLand",
      "outputs": [],
      "stateMutability": "payable",
      "type": "function"
    },
    {
      "inputs": [],
      "name": "name",
      "outputs": [
        {
          "internalType": "string",
          "name": "",
          "type": "string"
        }
      ],
      "stateMutability": "view",
      "type": "function"
    },
    {
      "inputs": [],
      "name": "owner",
      "outputs": [
        {
          "internalType": "address",
          "name": "",
          "type": "address"
        }
      ],
      "stateMutability": "view",
      "type": "function"
    },
    {
      "inputs": [
        {
          "internalType": "uint256",
          "name": "tokenId",
          "type": "uint256"
        }
      ],
      "name": "ownerOf",
      "outputs": [
        {
          "internalType": "address",
          "name": "",
          "type": "address"
        }
      ],
      "stateMutability": "view",
      "type": "function"
    },
    {
      "inputs": [],
      "name": "renounceOwnership",
      "outputs": [],
      "stateMutability": "nonpayable",
      "type": "function"
    },
    {
      "inputs": [
        {
          "internalType": "address",
          "name": "from",
          "type": "address"
        },
        {
          "internalType": "address",
          "name": "to",
          "type": "address"
        },
        {
          "internalType": "uint256",
          "name": "tokenId",
          "type": "uint256"
        }
      ],
      "name": "safeTransferFrom",
      "outputs": [],
      "stateMutability": "nonpayable",
      "type": "function"
    },
    {
      "inputs": [
        {
          "internalType": "address",
          "name": "from",
          "type": "address"
        },
        {
          "internalType": "address",
          "name": "to",
          "type": "address"
        },
        {
          "internalType": "uint256",
          "name": "tokenId",
          "type": "uint256"
        },
        {
          "internalType": "bytes",
          "name": "data",
          "type": "bytes"
        }
      ],
      "name": "safeTransferFrom",
      "outputs": [],
      "stateMutability": "nonpayable",
      "type": "function"
    },
    {
      "inputs": [
        {
          "internalType": "address",
          "name": "operator",
          "type": "address"
        },
        {
          "internalType": "bool",
          "name": "approved",
          "type": "bool"
        }
      ],
      "name": "setApprovalForAll",
      "outputs": [],
      "stateMutability": "nonpayable",
      "type": "function"
    },
    {
      "inputs": [
        {
          "internalType": "uint256",
          "name": "commodityIndex",
          "type": "uint256"
        },
        {
          "internalType": "uint8",
          "name": "newAmount",
          "type": "uint8"
        }
      ],
      "name": "setDifficulty",
      "outputs": [],
      "stateMutability": "nonpayable",
      "type": "function"
    },
    {
      "inputs": [
        {
          "internalType": "uint256",
          "name": "landTokenId",
          "type": "uint256"
        },
        {
          "internalType": "address",
          "name": "assetAddress",
          "type": "address"
        },
        {
          "internalType": "uint256",
          "name": "amount",
          "type": "uint256"
        }
      ],
      "name": "spendAsset",
      "outputs": [],
      "stateMutability": "nonpayable",
      "type": "function"
    },
    {
      "inputs": [
        {
          "internalType": "uint256",
          "name": "landTokenId",
          "type": "uint256"
        },
        {
          "internalType": "uint256[5]",
          "name": "amounts",
          "type": "uint256[5]"
        }
      ],
      "name": "spendCommodities",
      "outputs": [],
      "stateMutability": "nonpayable",
      "type": "function"
    },
    {
      "inputs": [
        {
          "internalType": "bytes4",
          "name": "interfaceId",
          "type": "bytes4"
        }
      ],
      "name": "supportsInterface",
      "outputs": [
        {
          "internalType": "bool",
          "name": "",
          "type": "bool"
        }
      ],
      "stateMutability": "view",
      "type": "function"
    },
    {
      "inputs": [],
      "name": "symbol",
      "outputs": [
        {
          "internalType": "string",
          "name": "",
          "type": "string"
        }
      ],
      "stateMutability": "view",
      "type": "function"
    },
    {
      "inputs": [
        {
          "internalType": "uint256",
          "name": "landTokenId",
          "type": "uint256"
        }
      ],
      "name": "testDeposit",
      "outputs": [],
      "stateMutability": "nonpayable",
      "type": "function"
    },
    {
      "inputs": [
        {
          "internalType": "uint256",
          "name": "",
          "type": "uint256"
        }
      ],
      "name": "tokenIdLand",
      "outputs": [
        {
          "internalType": "uint8",
          "name": "coordinateX",
          "type": "uint8"
        },
        {
          "internalType": "uint8",
          "name": "coordinateY",
          "type": "uint8"
        },
        {
          "internalType": "uint8",
          "name": "level",
          "type": "uint8"
        }
      ],
      "stateMutability": "view",
      "type": "function"
    },
    {
      "inputs": [
        {
          "internalType": "uint256",
          "name": "_tokenId",
          "type": "uint256"
        }
      ],
      "name": "tokenURI",
      "outputs": [
        {
          "internalType": "string",
          "name": "",
          "type": "string"
        }
      ],
      "stateMutability": "view",
      "type": "function"
    },
    {
      "inputs": [
        {
          "internalType": "uint256",
          "name": "commodityIndex",
          "type": "uint256"
        },
        {
          "internalType": "uint256",
          "name": "amount",
          "type": "uint256"
        },
        {
          "internalType": "uint256",
          "name": "fromId",
          "type": "uint256"
        },
        {
          "internalType": "uint256",
          "name": "toId",
          "type": "uint256"
        }
      ],
      "name": "transferCommodity",
      "outputs": [],
      "stateMutability": "nonpayable",
      "type": "function"
    },
    {
      "inputs": [
        {
          "internalType": "address",
          "name": "from",
          "type": "address"
        },
        {
          "internalType": "address",
          "name": "to",
          "type": "address"
        },
        {
          "internalType": "uint256",
          "name": "tokenId",
          "type": "uint256"
        }
      ],
      "name": "transferFrom",
      "outputs": [],
      "stateMutability": "nonpayable",
      "type": "function"
    },
    {
      "inputs": [
        {
          "internalType": "address",
          "name": "newOwner",
          "type": "address"
        }
      ],
      "name": "transferOwnership",
      "outputs": [],
      "stateMutability": "nonpayable",
      "type": "function"
    },
    {
      "inputs": [
        {
          "internalType": "address",
          "name": "commodityTokenAddress",
          "type": "address"
        },
        {
          "internalType": "uint256",
          "name": "amount",
          "type": "uint256"
        },
        {
          "internalType": "uint256",
          "name": "landId",
          "type": "uint256"
        }
      ],
      "name": "withdraw",
      "outputs": [],
      "stateMutability": "nonpayable",
      "type": "function"
    }
  ],
  "bytecode": "0x60806040526003600d556040518060600160405280606460ff168152602001606460ff168152602001600160ff16815250601260008201518160000160006101000a81548160ff021916908360ff16021790555060208201518160000160016101000a81548160ff021916908360ff16021790555060408201518160000160026101000a81548160ff021916908360ff1602179055505050348015620000a457600080fd5b5060405162005ee038038062005ee08339818101604052810190620000ca919062000404565b6040518060400160405280601181526020017f506f6c79676f6e2077617273206c616e640000000000000000000000000000008152506040518060400160405280600381526020017f50574c0000000000000000000000000000000000000000000000000000000000815250816000908162000147919062000706565b50806001908162000159919062000706565b5050506200017c62000170620002cc60201b60201c565b620002d460201b60201c565b84600760006101000a81548173ffffffffffffffffffffffffffffffffffffffff021916908373ffffffffffffffffffffffffffffffffffffffff16021790555083600860006101000a81548173ffffffffffffffffffffffffffffffffffffffff021916908373ffffffffffffffffffffffffffffffffffffffff16021790555082600960006101000a81548173ffffffffffffffffffffffffffffffffffffffff021916908373ffffffffffffffffffffffffffffffffffffffff16021790555081600a60006101000a81548173ffffffffffffffffffffffffffffffffffffffff021916908373ffffffffffffffffffffffffffffffffffffffff16021790555080600b60006101000a81548173ffffffffffffffffffffffffffffffffffffffff021916908373ffffffffffffffffffffffffffffffffffffffff1602179055505050505050620007ed565b600033905090565b6000600660009054906101000a900473ffffffffffffffffffffffffffffffffffffffff16905081600660006101000a81548173ffffffffffffffffffffffffffffffffffffffff021916908373ffffffffffffffffffffffffffffffffffffffff1602179055508173ffffffffffffffffffffffffffffffffffffffff168173ffffffffffffffffffffffffffffffffffffffff167f8be0079c531659141344cd1fd0a4f28419497f9722a3daafe3b4186f6b6457e060405160405180910390a35050565b600080fd5b600073ffffffffffffffffffffffffffffffffffffffff82169050919050565b6000620003cc826200039f565b9050919050565b620003de81620003bf565b8114620003ea57600080fd5b50565b600081519050620003fe81620003d3565b92915050565b600080600080600060a086880312156200042357620004226200039a565b5b60006200043388828901620003ed565b95505060206200044688828901620003ed565b94505060406200045988828901620003ed565b93505060606200046c88828901620003ed565b92505060806200047f88828901620003ed565b9150509295509295909350565b600081519050919050565b7f4e487b7100000000000000000000000000000000000000000000000000000000600052604160045260246000fd5b7f4e487b7100000000000000000000000000000000000000000000000000000000600052602260045260246000fd5b600060028204905060018216806200050e57607f821691505b602082108103620005245762000523620004c6565b5b50919050565b60008190508160005260206000209050919050565b60006020601f8301049050919050565b600082821b905092915050565b6000600883026200058e7fffffffffffffffffffffffffffffffffffffffffffffffffffffffffffffffff826200054f565b6200059a86836200054f565b95508019841693508086168417925050509392505050565b6000819050919050565b6000819050919050565b6000620005e7620005e1620005db84620005b2565b620005bc565b620005b2565b9050919050565b6000819050919050565b6200060383620005c6565b6200061b6200061282620005ee565b8484546200055c565b825550505050565b600090565b6200063262000623565b6200063f818484620005f8565b505050565b5b8181101562000667576200065b60008262000628565b60018101905062000645565b5050565b601f821115620006b65762000680816200052a565b6200068b846200053f565b810160208510156200069b578190505b620006b3620006aa856200053f565b83018262000644565b50505b505050565b600082821c905092915050565b6000620006db60001984600802620006bb565b1980831691505092915050565b6000620006f68383620006c8565b9150826002028217905092915050565b62000711826200048c565b67ffffffffffffffff8111156200072d576200072c62000497565b5b620007398254620004f5565b620007468282856200066b565b600060209050601f8311600181146200077e576000841562000769578287015190505b620007758582620006e8565b865550620007e5565b601f1984166200078e866200052a565b60005b82811015620007b85784890151825560018201915060208501945060208101905062000791565b86831015620007d85784890151620007d4601f891682620006c8565b8355505b6001600288020188555050505b505050505050565b6156e380620007fd6000396000f3fe6080604052600436106101d85760003560e01c80636352211e1161010257806395d89b4111610095578063c87b56dd11610064578063c87b56dd14610693578063e985e9c5146106d0578063f02dd53f1461070d578063f2fde38b1461074a576101d8565b806395d89b41146105ed578063a22cb46514610618578063b5c5f67214610641578063b88d4fde1461066a576101d8565b8063728834a5116100d1578063728834a5146105475780637cf90fcc14610570578063885085a0146105995780638da5cb5b146105c2576101d8565b80636352211e146104775780636980d8b9146104b457806370a08231146104f3578063715018a614610530576101d8565b8063308fad6d1161017a57806345e00ef41161014957806345e00ef4146103e0578063475953bd146104095780634d0b47d1146104255780635f3d06e91461044e576101d8565b8063308fad6d1461032857806337fd9b6914610351578063393c775f1461037a57806342842e0e146103b7576101d8565b8063095ea7b3116101b6578063095ea7b3146102825780630efe6a8b146102ab5780631141d7de146102d457806323b872dd146102ff576101d8565b806301ffc9a7146101dd57806306fdde031461021a578063081812fc14610245575b600080fd5b3480156101e957600080fd5b5061020460048036038101906101ff9190613c33565b610773565b6040516102119190613c7b565b60405180910390f35b34801561022657600080fd5b5061022f610855565b60405161023c9190613d26565b60405180910390f35b34801561025157600080fd5b5061026c60048036038101906102679190613d7e565b6108e7565b6040516102799190613dec565b60405180910390f35b34801561028e57600080fd5b506102a960048036038101906102a49190613e33565b61092d565b005b3480156102b757600080fd5b506102d260048036038101906102cd9190613e73565b610a44565b005b3480156102e057600080fd5b506102e9610d9d565b6040516102f69190613d26565b60405180910390f35b34801561030b57600080fd5b5061032660048036038101906103219190613ec6565b610dac565b005b34801561033457600080fd5b5061034f600480360381019061034a919061404f565b610e0c565b005b34801561035d57600080fd5b506103786004803603810190610373919061408f565b610f9d565b005b34801561038657600080fd5b506103a1600480360381019061039c9190613d7e565b6111fc565b6040516103ae919061418d565b60405180910390f35b3480156103c357600080fd5b506103de60048036038101906103d99190613ec6565b6112b0565b005b3480156103ec57600080fd5b5061040760048036038101906104029190613d7e565b6112d0565b005b610423600480360381019061041e91906141e1565b6115b2565b005b34801561043157600080fd5b5061044c60048036038101906104479190614221565b6117aa565b005b34801561045a57600080fd5b5061047560048036038101906104709190614288565b611b18565b005b34801561048357600080fd5b5061049e60048036038101906104999190613d7e565b611c0e565b6040516104ab9190613dec565b60405180910390f35b3480156104c057600080fd5b506104db60048036038101906104d69190613d7e565b611c94565b6040516104ea939291906142d7565b60405180910390f35b3480156104ff57600080fd5b5061051a6004803603810190610515919061430e565b611ce5565b604051610527919061434a565b60405180910390f35b34801561053c57600080fd5b50610545611d9c565b005b34801561055357600080fd5b5061056e6004803603810190610569919061408f565b611db0565b005b34801561057c57600080fd5b506105976004803603810190610592919061430e565b611f91565b005b3480156105a557600080fd5b506105c060048036038101906105bb9190614365565b611fff565b005b3480156105ce57600080fd5b506105d7612152565b6040516105e49190613dec565b60405180910390f35b3480156105f957600080fd5b5061060261217c565b60405161060f9190613d26565b60405180910390f35b34801561062457600080fd5b5061063f600480360381019061063a91906143e4565b61220e565b005b34801561064d57600080fd5b5061066860048036038101906106639190613e73565b612224565b005b34801561067657600080fd5b50610691600480360381019061068c91906144d9565b612598565b005b34801561069f57600080fd5b506106ba60048036038101906106b59190613d7e565b6125fa565b6040516106c79190613d26565b60405180910390f35b3480156106dc57600080fd5b506106f760048036038101906106f2919061455c565b612727565b6040516107049190613c7b565b60405180910390f35b34801561071957600080fd5b50610734600480360381019061072f9190613d7e565b6127bb565b60405161074191906145ed565b60405180910390f35b34801561075657600080fd5b50610771600480360381019061076c919061430e565b61283f565b005b60007f80ac58cd000000000000000000000000000000000000000000000000000000007bffffffffffffffffffffffffffffffffffffffffffffffffffffffff1916827bffffffffffffffffffffffffffffffffffffffffffffffffffffffff1916148061083e57507f5b5e139f000000000000000000000000000000000000000000000000000000007bffffffffffffffffffffffffffffffffffffffffffffffffffffffff1916827bffffffffffffffffffffffffffffffffffffffffffffffffffffffff1916145b8061084e575061084d826128c2565b5b9050919050565b60606000805461086490614637565b80601f016020809104026020016040519081016040528092919081815260200182805461089090614637565b80156108dd5780601f106108b2576101008083540402835291602001916108dd565b820191906000526020600020905b8154815290600101906020018083116108c057829003601f168201915b5050505050905090565b60006108f28261292c565b6004600083815260200190815260200160002060009054906101000a900473ffffffffffffffffffffffffffffffffffffffff169050919050565b600061093882611c0e565b90508073ffffffffffffffffffffffffffffffffffffffff168373ffffffffffffffffffffffffffffffffffffffff16036109a8576040517f08c379a000000000000000000000000000000000000000000000000000000000815260040161099f906146da565b60405180910390fd5b8073ffffffffffffffffffffffffffffffffffffffff166109c7612977565b73ffffffffffffffffffffffffffffffffffffffff1614806109f657506109f5816109f0612977565b612727565b5b610a35576040517f08c379a0000000000000000000000000000000000000000000000000000000008152600401610a2c9061476c565b60405180910390fd5b610a3f838361297f565b505050565b82600760009054906101000a900473ffffffffffffffffffffffffffffffffffffffff1673ffffffffffffffffffffffffffffffffffffffff168173ffffffffffffffffffffffffffffffffffffffff161480610aee5750600860009054906101000a900473ffffffffffffffffffffffffffffffffffffffff1673ffffffffffffffffffffffffffffffffffffffff168173ffffffffffffffffffffffffffffffffffffffff16145b80610b465750600960009054906101000a900473ffffffffffffffffffffffffffffffffffffffff1673ffffffffffffffffffffffffffffffffffffffff168173ffffffffffffffffffffffffffffffffffffffff16145b80610b9e5750600a60009054906101000a900473ffffffffffffffffffffffffffffffffffffffff1673ffffffffffffffffffffffffffffffffffffffff168173ffffffffffffffffffffffffffffffffffffffff16145b80610bf65750600b60009054906101000a900473ffffffffffffffffffffffffffffffffffffffff1673ffffffffffffffffffffffffffffffffffffffff168173ffffffffffffffffffffffffffffffffffffffff16145b610c35576040517f08c379a0000000000000000000000000000000000000000000000000000000008152600401610c2c906147d8565b60405180910390fd5b81610c3f81611c0e565b73ffffffffffffffffffffffffffffffffffffffff163373ffffffffffffffffffffffffffffffffffffffff1614610cac576040517f08c379a0000000000000000000000000000000000000000000000000000000008152600401610ca390614844565b60405180910390fd5b600073ffffffffffffffffffffffffffffffffffffffff16610ccd84612a38565b73ffffffffffffffffffffffffffffffffffffffff1603610d23576040517f08c379a0000000000000000000000000000000000000000000000000000000008152600401610d1a906148b0565b60405180910390fd5b610d2f85333087612a75565b836010600085815260200190815260200160002060008773ffffffffffffffffffffffffffffffffffffffff1673ffffffffffffffffffffffffffffffffffffffff1681526020019081526020016000206000828254610d8f91906148ff565b925050819055505050505050565b6060610da7612bcd565b905090565b610dbd610db7612977565b82612bed565b610dfc576040517f08c379a0000000000000000000000000000000000000000000000000000000008152600401610df3906149a5565b60405180910390fd5b610e07838383612c82565b505050565b6000805b600c80549050811015610eaa57600c8181548110610e3157610e306149c5565b5b9060005260206000200160009054906101000a900473ffffffffffffffffffffffffffffffffffffffff1673ffffffffffffffffffffffffffffffffffffffff163373ffffffffffffffffffffffffffffffffffffffff1603610e975760019150610eaa565b8080610ea2906149f4565b915050610e10565b506001151581151514610ef2576040517f08c379a0000000000000000000000000000000000000000000000000000000008152600401610ee990614a88565b60405180910390fd5b60005b6005811015610f9757828160058110610f1157610f106149c5565b5b6020020151601060008681526020019081526020016000206000610f3484612f7b565b73ffffffffffffffffffffffffffffffffffffffff1673ffffffffffffffffffffffffffffffffffffffff1681526020019081526020016000206000828254610f7d9190614aa8565b925050819055508080610f8f906149f4565b915050610ef5565b50505050565b6000805b600c8054905081101561103b57600c8181548110610fc257610fc16149c5565b5b9060005260206000200160009054906101000a900473ffffffffffffffffffffffffffffffffffffffff1673ffffffffffffffffffffffffffffffffffffffff163373ffffffffffffffffffffffffffffffffffffffff1603611028576001915061103b565b8080611033906149f4565b915050610fa1565b506001151581151514611083576040517f08c379a000000000000000000000000000000000000000000000000000000000815260040161107a90614a88565b60405180910390fd5b60005b60058110156111f55760006064846010600088815260200190815260200160002060006110b286612f7b565b73ffffffffffffffffffffffffffffffffffffffff1673ffffffffffffffffffffffffffffffffffffffff168152602001908152602001600020546110f79190614adc565b6111019190614b4d565b90508060106000878152602001908152602001600020600061112285612f7b565b73ffffffffffffffffffffffffffffffffffffffff1673ffffffffffffffffffffffffffffffffffffffff168152602001908152602001600020600082825461116b9190614aa8565b925050819055508060106000888152602001908152602001600020600061119185612f7b565b73ffffffffffffffffffffffffffffffffffffffff1673ffffffffffffffffffffffffffffffffffffffff16815260200190815260200160002060008282546111da91906148ff565b925050819055505080806111ed906149f4565b915050611086565b5050505050565b611204613b7b565b61120c613b7b565b60005b60058110156112a657600060106000868152602001908152602001600020600061123884612f7b565b73ffffffffffffffffffffffffffffffffffffffff1673ffffffffffffffffffffffffffffffffffffffff16815260200190815260200160002054905080838360058110611289576112886149c5565b5b60200201818152505050808061129e906149f4565b91505061120f565b5080915050919050565b6112cb83838360405180602001604052806000815250612598565b505050565b69021e19e0c9bab2400000601060008381526020019081526020016000206000600860009054906101000a900473ffffffffffffffffffffffffffffffffffffffff1673ffffffffffffffffffffffffffffffffffffffff1673ffffffffffffffffffffffffffffffffffffffff168152602001908152602001600020600082825461135c91906148ff565b9250508190555069021e19e0c9bab2400000601060008381526020019081526020016000206000600760009054906101000a900473ffffffffffffffffffffffffffffffffffffffff1673ffffffffffffffffffffffffffffffffffffffff1673ffffffffffffffffffffffffffffffffffffffff16815260200190815260200160002060008282546113ef91906148ff565b9250508190555069021e19e0c9bab2400000601060008381526020019081526020016000206000600960009054906101000a900473ffffffffffffffffffffffffffffffffffffffff1673ffffffffffffffffffffffffffffffffffffffff1673ffffffffffffffffffffffffffffffffffffffff168152602001908152602001600020600082825461148291906148ff565b9250508190555069021e19e0c9bab2400000601060008381526020019081526020016000206000600a60009054906101000a900473ffffffffffffffffffffffffffffffffffffffff1673ffffffffffffffffffffffffffffffffffffffff1673ffffffffffffffffffffffffffffffffffffffff168152602001908152602001600020600082825461151591906148ff565b9250508190555069021e19e0c9bab2400000601060008381526020019081526020016000206000600b60009054906101000a900473ffffffffffffffffffffffffffffffffffffffff1673ffffffffffffffffffffffffffffffffffffffff1673ffffffffffffffffffffffffffffffffffffffff16815260200190815260200160002060008282546115a891906148ff565b9250508190555050565b818160006115c083836130c0565b9050600073ffffffffffffffffffffffffffffffffffffffff166115e382612a38565b73ffffffffffffffffffffffffffffffffffffffff1614611630576040517f4cab46b100000000000000000000000000000000000000000000000000000000815260040160405180910390fd5b848460648260ff16108061164857506103e78260ff16115b80611656575060648160ff16105b8061166557506103e78160ff16115b1561169c576040517f636beb5100000000000000000000000000000000000000000000000000000000815260040160405180910390fd5b66470de4df8200003410156116e6576040517f08c379a00000000000000000000000000000000000000000000000000000000081526004016116dd90614bca565b60405180910390fd5b60006116f288886130c0565b90506116fe3382613121565b6012600e60008381526020019081526020016000206000820160009054906101000a900460ff168160000160006101000a81548160ff021916908360ff1602179055506000820160019054906101000a900460ff168160000160016101000a81548160ff021916908360ff1602179055506000820160029054906101000a900460ff168160000160026101000a81548160ff021916908360ff1602179055509050505050505050505050565b6117b384612f7b565b600760009054906101000a900473ffffffffffffffffffffffffffffffffffffffff1673ffffffffffffffffffffffffffffffffffffffff168173ffffffffffffffffffffffffffffffffffffffff16148061185c5750600860009054906101000a900473ffffffffffffffffffffffffffffffffffffffff1673ffffffffffffffffffffffffffffffffffffffff168173ffffffffffffffffffffffffffffffffffffffff16145b806118b45750600960009054906101000a900473ffffffffffffffffffffffffffffffffffffffff1673ffffffffffffffffffffffffffffffffffffffff168173ffffffffffffffffffffffffffffffffffffffff16145b8061190c5750600a60009054906101000a900473ffffffffffffffffffffffffffffffffffffffff1673ffffffffffffffffffffffffffffffffffffffff168173ffffffffffffffffffffffffffffffffffffffff16145b806119645750600b60009054906101000a900473ffffffffffffffffffffffffffffffffffffffff1673ffffffffffffffffffffffffffffffffffffffff168173ffffffffffffffffffffffffffffffffffffffff16145b6119a3576040517f08c379a000000000000000000000000000000000000000000000000000000000815260040161199a906147d8565b60405180910390fd5b826119ad81611c0e565b73ffffffffffffffffffffffffffffffffffffffff163373ffffffffffffffffffffffffffffffffffffffff1614611a1a576040517f08c379a0000000000000000000000000000000000000000000000000000000008152600401611a1190614844565b60405180910390fd5b84611a24856111fc565b8760058110611a3657611a356149c5565b5b60200201511015611a7c576040517f08c379a0000000000000000000000000000000000000000000000000000000008152600401611a7390614c36565b60405180910390fd5b6064600d546064611a8d9190614aa8565b86611a989190614adc565b611aa29190614b4d565b601060008581526020019081526020016000206000611ac089612f7b565b73ffffffffffffffffffffffffffffffffffffffff1673ffffffffffffffffffffffffffffffffffffffff1681526020019081526020016000206000828254611b0991906148ff565b92505081905550505050505050565b611b2061333e565b60008210611b63576040517f08c379a0000000000000000000000000000000000000000000000000000000008152600401611b5a90614ca2565b60405180910390fd5b605a8160ff161115611baa576040517f08c379a0000000000000000000000000000000000000000000000000000000008152600401611ba190614d0e565b60405180910390fd5b8060116000611bb885612f7b565b73ffffffffffffffffffffffffffffffffffffffff1673ffffffffffffffffffffffffffffffffffffffff16815260200190815260200160002060006101000a81548160ff021916908360ff1602179055505050565b600080611c1a83612a38565b9050600073ffffffffffffffffffffffffffffffffffffffff168173ffffffffffffffffffffffffffffffffffffffff1603611c8b576040517f08c379a0000000000000000000000000000000000000000000000000000000008152600401611c8290614d7a565b60405180910390fd5b80915050919050565b600e6020528060005260406000206000915090508060000160009054906101000a900460ff16908060000160019054906101000a900460ff16908060000160029054906101000a900460ff16905083565b60008073ffffffffffffffffffffffffffffffffffffffff168273ffffffffffffffffffffffffffffffffffffffff1603611d55576040517f08c379a0000000000000000000000000000000000000000000000000000000008152600401611d4c90614e0c565b60405180910390fd5b600360008373ffffffffffffffffffffffffffffffffffffffff1673ffffffffffffffffffffffffffffffffffffffff168152602001908152602001600020549050919050565b611da461333e565b611dae60006133bc565b565b6000805b600c80549050811015611e4e57600c8181548110611dd557611dd46149c5565b5b9060005260206000200160009054906101000a900473ffffffffffffffffffffffffffffffffffffffff1673ffffffffffffffffffffffffffffffffffffffff163373ffffffffffffffffffffffffffffffffffffffff1603611e3b5760019150611e4e565b8080611e46906149f4565b915050611db4565b506001151581151514611e96576040517f08c379a0000000000000000000000000000000000000000000000000000000008152600401611e8d90614a88565b60405180910390fd5b600060116000611ea587612f7b565b73ffffffffffffffffffffffffffffffffffffffff1673ffffffffffffffffffffffffffffffffffffffff16815260200190815260200160002060009054906101000a900460ff16905060006064826064611f009190614e2c565b60ff1686611f0e9190614adc565b611f189190614b4d565b905080601060008681526020019081526020016000206000611f3989612f7b565b73ffffffffffffffffffffffffffffffffffffffff1673ffffffffffffffffffffffffffffffffffffffff1681526020019081526020016000206000828254611f8291906148ff565b92505081905550505050505050565b611f9961333e565b600c819080600181540180825580915050600190039060005260206000200160009091909190916101000a81548173ffffffffffffffffffffffffffffffffffffffff021916908373ffffffffffffffffffffffffffffffffffffffff16021790555050565b6000805b600c8054905081101561209d57600c8181548110612024576120236149c5565b5b9060005260206000200160009054906101000a900473ffffffffffffffffffffffffffffffffffffffff1673ffffffffffffffffffffffffffffffffffffffff163373ffffffffffffffffffffffffffffffffffffffff160361208a576001915061209d565b8080612095906149f4565b915050612003565b5060011515811515146120e5576040517f08c379a00000000000000000000000000000000000000000000000000000000081526004016120dc90614a88565b60405180910390fd5b816010600086815260200190815260200160002060008573ffffffffffffffffffffffffffffffffffffffff1673ffffffffffffffffffffffffffffffffffffffff16815260200190815260200160002060008282546121459190614aa8565b9250508190555050505050565b6000600660009054906101000a900473ffffffffffffffffffffffffffffffffffffffff16905090565b60606001805461218b90614637565b80601f01602080910402602001604051908101604052809291908181526020018280546121b790614637565b80156122045780601f106121d957610100808354040283529160200191612204565b820191906000526020600020905b8154815290600101906020018083116121e757829003601f168201915b5050505050905090565b612220612219612977565b8383613482565b5050565b82600760009054906101000a900473ffffffffffffffffffffffffffffffffffffffff1673ffffffffffffffffffffffffffffffffffffffff168173ffffffffffffffffffffffffffffffffffffffff1614806122ce5750600860009054906101000a900473ffffffffffffffffffffffffffffffffffffffff1673ffffffffffffffffffffffffffffffffffffffff168173ffffffffffffffffffffffffffffffffffffffff16145b806123265750600960009054906101000a900473ffffffffffffffffffffffffffffffffffffffff1673ffffffffffffffffffffffffffffffffffffffff168173ffffffffffffffffffffffffffffffffffffffff16145b8061237e5750600a60009054906101000a900473ffffffffffffffffffffffffffffffffffffffff1673ffffffffffffffffffffffffffffffffffffffff168173ffffffffffffffffffffffffffffffffffffffff16145b806123d65750600b60009054906101000a900473ffffffffffffffffffffffffffffffffffffffff1673ffffffffffffffffffffffffffffffffffffffff168173ffffffffffffffffffffffffffffffffffffffff16145b612415576040517f08c379a000000000000000000000000000000000000000000000000000000000815260040161240c906147d8565b60405180910390fd5b8161241f81611c0e565b73ffffffffffffffffffffffffffffffffffffffff163373ffffffffffffffffffffffffffffffffffffffff161461248c576040517f08c379a000000000000000000000000000000000000000000000000000000000815260040161248390614844565b60405180910390fd5b836010600085815260200190815260200160002060008773ffffffffffffffffffffffffffffffffffffffff1673ffffffffffffffffffffffffffffffffffffffff16815260200190815260200160002054101561251f576040517f08c379a000000000000000000000000000000000000000000000000000000000815260040161251690614c36565b60405180910390fd5b836010600085815260200190815260200160002060008773ffffffffffffffffffffffffffffffffffffffff1673ffffffffffffffffffffffffffffffffffffffff168152602001908152602001600020600082825461257f9190614aa8565b925050819055506125918533866135ee565b5050505050565b6125a96125a3612977565b83612bed565b6125e8576040517f08c379a00000000000000000000000000000000000000000000000000000000081526004016125df906149a5565b60405180910390fd5b6125f484848484613743565b50505050565b60606126058261379f565b612644576040517f08c379a000000000000000000000000000000000000000000000000000000000815260040161263b90614ed3565b60405180910390fd5b600061264e612bcd565b9050600081511161266e576040518060200160405280600081525061271f565b61269d600e600085815260200190815260200160002060000160009054906101000a900460ff1660ff166137e0565b6126cc600e600086815260200190815260200160002060000160019054906101000a900460ff1660ff166137e0565b6126fb600e600087815260200190815260200160002060000160029054906101000a900460ff1660ff166137e0565b8360405160200161270f9493929190614f2f565b6040516020818303038152906040525b915050919050565b6000600560008473ffffffffffffffffffffffffffffffffffffffff1673ffffffffffffffffffffffffffffffffffffffff16815260200190815260200160002060008373ffffffffffffffffffffffffffffffffffffffff1673ffffffffffffffffffffffffffffffffffffffff16815260200190815260200160002060009054906101000a900460ff16905092915050565b6127c3613b9d565b600e60008381526020019081526020016000206040518060600160405290816000820160009054906101000a900460ff1660ff1660ff1681526020016000820160019054906101000a900460ff1660ff1660ff1681526020016000820160029054906101000a900460ff1660ff1660ff16815250509050919050565b61284761333e565b600073ffffffffffffffffffffffffffffffffffffffff168173ffffffffffffffffffffffffffffffffffffffff16036128b6576040517f08c379a00000000000000000000000000000000000000000000000000000000081526004016128ad90614fdf565b60405180910390fd5b6128bf816133bc565b50565b60007f01ffc9a7000000000000000000000000000000000000000000000000000000007bffffffffffffffffffffffffffffffffffffffffffffffffffffffff1916827bffffffffffffffffffffffffffffffffffffffffffffffffffffffff1916149050919050565b6129358161379f565b612974576040517f08c379a000000000000000000000000000000000000000000000000000000000815260040161296b90614d7a565b60405180910390fd5b50565b600033905090565b816004600083815260200190815260200160002060006101000a81548173ffffffffffffffffffffffffffffffffffffffff021916908373ffffffffffffffffffffffffffffffffffffffff160217905550808273ffffffffffffffffffffffffffffffffffffffff166129f283611c0e565b73ffffffffffffffffffffffffffffffffffffffff167f8c5be1e5ebec7d5bd14f71427d1e84f3dd0314c0f7b2291e5b200ac8c7c3b92560405160405180910390a45050565b60006002600083815260200190815260200160002060009054906101000a900473ffffffffffffffffffffffffffffffffffffffff169050919050565b6000808573ffffffffffffffffffffffffffffffffffffffff166323b872dd60e01b868686604051602401612aac93929190614fff565b604051602081830303815290604052907bffffffffffffffffffffffffffffffffffffffffffffffffffffffff19166020820180517bffffffffffffffffffffffffffffffffffffffffffffffffffffffff8381831617835250505050604051612b16919061507d565b6000604051808303816000865af19150503d8060008114612b53576040519150601f19603f3d011682016040523d82523d6000602084013e612b58565b606091505b5091509150818015612b865750600081511480612b85575080806020019051810190612b8491906150a9565b5b5b612bc5576040517f08c379a0000000000000000000000000000000000000000000000000000000008152600401612bbc90615122565b60405180910390fd5b505050505050565b606060405180608001604052806043815260200161566b60439139905090565b600080612bf983611c0e565b90508073ffffffffffffffffffffffffffffffffffffffff168473ffffffffffffffffffffffffffffffffffffffff161480612c3b5750612c3a8185612727565b5b80612c7957508373ffffffffffffffffffffffffffffffffffffffff16612c61846108e7565b73ffffffffffffffffffffffffffffffffffffffff16145b91505092915050565b8273ffffffffffffffffffffffffffffffffffffffff16612ca282611c0e565b73ffffffffffffffffffffffffffffffffffffffff1614612cf8576040517f08c379a0000000000000000000000000000000000000000000000000000000008152600401612cef906151b4565b60405180910390fd5b600073ffffffffffffffffffffffffffffffffffffffff168273ffffffffffffffffffffffffffffffffffffffff1603612d67576040517f08c379a0000000000000000000000000000000000000000000000000000000008152600401612d5e90615246565b60405180910390fd5b612d748383836001613940565b8273ffffffffffffffffffffffffffffffffffffffff16612d9482611c0e565b73ffffffffffffffffffffffffffffffffffffffff1614612dea576040517f08c379a0000000000000000000000000000000000000000000000000000000008152600401612de1906151b4565b60405180910390fd5b6004600082815260200190815260200160002060006101000a81549073ffffffffffffffffffffffffffffffffffffffff02191690556001600360008573ffffffffffffffffffffffffffffffffffffffff1673ffffffffffffffffffffffffffffffffffffffff168152602001908152602001600020600082825403925050819055506001600360008473ffffffffffffffffffffffffffffffffffffffff1673ffffffffffffffffffffffffffffffffffffffff16815260200190815260200160002060008282540192505081905550816002600083815260200190815260200160002060006101000a81548173ffffffffffffffffffffffffffffffffffffffff021916908373ffffffffffffffffffffffffffffffffffffffff160217905550808273ffffffffffffffffffffffffffffffffffffffff168473ffffffffffffffffffffffffffffffffffffffff167fddf252ad1be2c89b69c2b068fc378daa952ba7f163c4a11628f55a4df523b3ef60405160405180910390a4612f768383836001613946565b505050565b600060058210612fc0576040517f08c379a0000000000000000000000000000000000000000000000000000000008152600401612fb790614ca2565b60405180910390fd5b60008203612ff257600760009054906101000a900473ffffffffffffffffffffffffffffffffffffffff1690506130bb565b6001820361302457600860009054906101000a900473ffffffffffffffffffffffffffffffffffffffff1690506130bb565b6002820361305657600960009054906101000a900473ffffffffffffffffffffffffffffffffffffffff1690506130bb565b6003820361308857600a60009054906101000a900473ffffffffffffffffffffffffffffffffffffffff1690506130bb565b600482036130ba57600b60009054906101000a900473ffffffffffffffffffffffffffffffffffffffff1690506130bb565b5b919050565b6000806130cf8460ff166137e0565b905060006130df8460ff166137e0565b9050600082826040516020016130f6929190615266565b604051602081830303815290604052905060006131128261394c565b90508094505050505092915050565b600073ffffffffffffffffffffffffffffffffffffffff168273ffffffffffffffffffffffffffffffffffffffff1603613190576040517f08c379a0000000000000000000000000000000000000000000000000000000008152600401613187906152d6565b60405180910390fd5b6131998161379f565b156131d9576040517f08c379a00000000000000000000000000000000000000000000000000000000081526004016131d090615342565b60405180910390fd5b6131e7600083836001613940565b6131f08161379f565b15613230576040517f08c379a000000000000000000000000000000000000000000000000000000000815260040161322790615342565b60405180910390fd5b6001600360008473ffffffffffffffffffffffffffffffffffffffff1673ffffffffffffffffffffffffffffffffffffffff16815260200190815260200160002060008282540192505081905550816002600083815260200190815260200160002060006101000a81548173ffffffffffffffffffffffffffffffffffffffff021916908373ffffffffffffffffffffffffffffffffffffffff160217905550808273ffffffffffffffffffffffffffffffffffffffff16600073ffffffffffffffffffffffffffffffffffffffff167fddf252ad1be2c89b69c2b068fc378daa952ba7f163c4a11628f55a4df523b3ef60405160405180910390a461333a600083836001613946565b5050565b613346612977565b73ffffffffffffffffffffffffffffffffffffffff16613364612152565b73ffffffffffffffffffffffffffffffffffffffff16146133ba576040517f08c379a00000000000000000000000000000000000000000000000000000000081526004016133b1906153ae565b60405180910390fd5b565b6000600660009054906101000a900473ffffffffffffffffffffffffffffffffffffffff16905081600660006101000a81548173ffffffffffffffffffffffffffffffffffffffff021916908373ffffffffffffffffffffffffffffffffffffffff1602179055508173ffffffffffffffffffffffffffffffffffffffff168173ffffffffffffffffffffffffffffffffffffffff167f8be0079c531659141344cd1fd0a4f28419497f9722a3daafe3b4186f6b6457e060405160405180910390a35050565b8173ffffffffffffffffffffffffffffffffffffffff168373ffffffffffffffffffffffffffffffffffffffff16036134f0576040517f08c379a00000000000000000000000000000000000000000000000000000000081526004016134e79061541a565b60405180910390fd5b80600560008573ffffffffffffffffffffffffffffffffffffffff1673ffffffffffffffffffffffffffffffffffffffff16815260200190815260200160002060008473ffffffffffffffffffffffffffffffffffffffff1673ffffffffffffffffffffffffffffffffffffffff16815260200190815260200160002060006101000a81548160ff0219169083151502179055508173ffffffffffffffffffffffffffffffffffffffff168373ffffffffffffffffffffffffffffffffffffffff167f17307eab39ab6107e8899845ad3d59bd9653f200f220920489ca2b5937696c31836040516135e19190613c7b565b60405180910390a3505050565b6000808473ffffffffffffffffffffffffffffffffffffffff1663a9059cbb60e01b858560405160240161362392919061543a565b604051602081830303815290604052907bffffffffffffffffffffffffffffffffffffffffffffffffffffffff19166020820180517bffffffffffffffffffffffffffffffffffffffffffffffffffffffff838183161783525050505060405161368d919061507d565b6000604051808303816000865af19150503d80600081146136ca576040519150601f19603f3d011682016040523d82523d6000602084013e6136cf565b606091505b50915091508180156136fd57506000815114806136fc5750808060200190518101906136fb91906150a9565b5b5b61373c576040517f08c379a0000000000000000000000000000000000000000000000000000000008152600401613733906154af565b60405180910390fd5b5050505050565b61374e848484612c82565b61375a848484846139d1565b613799576040517f08c379a000000000000000000000000000000000000000000000000000000000815260040161379090615541565b60405180910390fd5b50505050565b60008073ffffffffffffffffffffffffffffffffffffffff166137c183612a38565b73ffffffffffffffffffffffffffffffffffffffff1614159050919050565b606060008203613827576040518060400160405280600181526020017f3000000000000000000000000000000000000000000000000000000000000000815250905061393b565b600082905060005b60008214613859578080613842906149f4565b915050600a826138529190614b4d565b915061382f565b60008167ffffffffffffffff81111561387557613874613f1e565b5b6040519080825280601f01601f1916602001820160405280156138a75781602001600182028036833780820191505090505b5090505b60008514613934576001826138c09190614aa8565b9150600a856138cf9190615561565b60306138db91906148ff565b60f81b8183815181106138f1576138f06149c5565b5b60200101907effffffffffffffffffffffffffffffffffffffffffffffffffffffffffffff1916908160001a905350600a8561392d9190614b4d565b94506138ab565b8093505050505b919050565b50505050565b50505050565b60008060009050600083905060005b81518110156139c6576000603083838151811061397b5761397a6149c5565b5b602001015160f81c60f81b60f81c60ff166139969190614aa8565b905080600a856139a69190614adc565b6139b091906148ff565b93505080806139be906149f4565b91505061395b565b508192505050919050565b60006139f28473ffffffffffffffffffffffffffffffffffffffff16613b58565b15613b4b578373ffffffffffffffffffffffffffffffffffffffff1663150b7a02613a1b612977565b8786866040518563ffffffff1660e01b8152600401613a3d94939291906155dc565b6020604051808303816000875af1925050508015613a7957506040513d601f19601f82011682018060405250810190613a76919061563d565b60015b613afb573d8060008114613aa9576040519150601f19603f3d011682016040523d82523d6000602084013e613aae565b606091505b506000815103613af3576040517f08c379a0000000000000000000000000000000000000000000000000000000008152600401613aea90615541565b60405180910390fd5b805181602001fd5b63150b7a0260e01b7bffffffffffffffffffffffffffffffffffffffffffffffffffffffff1916817bffffffffffffffffffffffffffffffffffffffffffffffffffffffff191614915050613b50565b600190505b949350505050565b6000808273ffffffffffffffffffffffffffffffffffffffff163b119050919050565b6040518060a00160405280600590602082028036833780820191505090505090565b6040518060600160405280600060ff168152602001600060ff168152602001600060ff1681525090565b6000604051905090565b600080fd5b600080fd5b60007fffffffff0000000000000000000000000000000000000000000000000000000082169050919050565b613c1081613bdb565b8114613c1b57600080fd5b50565b600081359050613c2d81613c07565b92915050565b600060208284031215613c4957613c48613bd1565b5b6000613c5784828501613c1e565b91505092915050565b60008115159050919050565b613c7581613c60565b82525050565b6000602082019050613c906000830184613c6c565b92915050565b600081519050919050565b600082825260208201905092915050565b60005b83811015613cd0578082015181840152602081019050613cb5565b60008484015250505050565b6000601f19601f8301169050919050565b6000613cf882613c96565b613d028185613ca1565b9350613d12818560208601613cb2565b613d1b81613cdc565b840191505092915050565b60006020820190508181036000830152613d408184613ced565b905092915050565b6000819050919050565b613d5b81613d48565b8114613d6657600080fd5b50565b600081359050613d7881613d52565b92915050565b600060208284031215613d9457613d93613bd1565b5b6000613da284828501613d69565b91505092915050565b600073ffffffffffffffffffffffffffffffffffffffff82169050919050565b6000613dd682613dab565b9050919050565b613de681613dcb565b82525050565b6000602082019050613e016000830184613ddd565b92915050565b613e1081613dcb565b8114613e1b57600080fd5b50565b600081359050613e2d81613e07565b92915050565b60008060408385031215613e4a57613e49613bd1565b5b6000613e5885828601613e1e565b9250506020613e6985828601613d69565b9150509250929050565b600080600060608486031215613e8c57613e8b613bd1565b5b6000613e9a86828701613e1e565b9350506020613eab86828701613d69565b9250506040613ebc86828701613d69565b9150509250925092565b600080600060608486031215613edf57613ede613bd1565b5b6000613eed86828701613e1e565b9350506020613efe86828701613e1e565b9250506040613f0f86828701613d69565b9150509250925092565b600080fd5b7f4e487b7100000000000000000000000000000000000000000000000000000000600052604160045260246000fd5b613f5682613cdc565b810181811067ffffffffffffffff82111715613f7557613f74613f1e565b5b80604052505050565b6000613f88613bc7565b9050613f948282613f4d565b919050565b600067ffffffffffffffff821115613fb457613fb3613f1e565b5b602082029050919050565b600080fd5b6000613fd7613fd284613f99565b613f7e565b90508060208402830185811115613ff157613ff0613fbf565b5b835b8181101561401a57806140068882613d69565b845260208401935050602081019050613ff3565b5050509392505050565b600082601f83011261403957614038613f19565b5b6005614046848285613fc4565b91505092915050565b60008060c0838503121561406657614065613bd1565b5b600061407485828601613d69565b925050602061408585828601614024565b9150509250929050565b6000806000606084860312156140a8576140a7613bd1565b5b60006140b686828701613d69565b93505060206140c786828701613d69565b92505060406140d886828701613d69565b9150509250925092565b600060059050919050565b600081905092915050565b6000819050919050565b61410b81613d48565b82525050565b600061411d8383614102565b60208301905092915050565b6000602082019050919050565b61413f816140e2565b61414981846140ed565b9250614154826140f8565b8060005b8381101561418557815161416c8782614111565b965061417783614129565b925050600181019050614158565b505050505050565b600060a0820190506141a26000830184614136565b92915050565b600060ff82169050919050565b6141be816141a8565b81146141c957600080fd5b50565b6000813590506141db816141b5565b92915050565b600080604083850312156141f8576141f7613bd1565b5b6000614206858286016141cc565b9250506020614217858286016141cc565b9150509250929050565b6000806000806080858703121561423b5761423a613bd1565b5b600061424987828801613d69565b945050602061425a87828801613d69565b935050604061426b87828801613d69565b925050606061427c87828801613d69565b91505092959194509250565b6000806040838503121561429f5761429e613bd1565b5b60006142ad85828601613d69565b92505060206142be858286016141cc565b9150509250929050565b6142d1816141a8565b82525050565b60006060820190506142ec60008301866142c8565b6142f960208301856142c8565b61430660408301846142c8565b949350505050565b60006020828403121561432457614323613bd1565b5b600061433284828501613e1e565b91505092915050565b61434481613d48565b82525050565b600060208201905061435f600083018461433b565b92915050565b60008060006060848603121561437e5761437d613bd1565b5b600061438c86828701613d69565b935050602061439d86828701613e1e565b92505060406143ae86828701613d69565b9150509250925092565b6143c181613c60565b81146143cc57600080fd5b50565b6000813590506143de816143b8565b92915050565b600080604083850312156143fb576143fa613bd1565b5b600061440985828601613e1e565b925050602061441a858286016143cf565b9150509250929050565b600080fd5b600067ffffffffffffffff82111561444457614443613f1e565b5b61444d82613cdc565b9050602081019050919050565b82818337600083830152505050565b600061447c61447784614429565b613f7e565b90508281526020810184848401111561449857614497614424565b5b6144a384828561445a565b509392505050565b600082601f8301126144c0576144bf613f19565b5b81356144d0848260208601614469565b91505092915050565b600080600080608085870312156144f3576144f2613bd1565b5b600061450187828801613e1e565b945050602061451287828801613e1e565b935050604061452387828801613d69565b925050606085013567ffffffffffffffff81111561454457614543613bd6565b5b614550878288016144ab565b91505092959194509250565b6000806040838503121561457357614572613bd1565b5b600061458185828601613e1e565b925050602061459285828601613e1e565b9150509250929050565b6145a5816141a8565b82525050565b6060820160008201516145c1600085018261459c565b5060208201516145d4602085018261459c565b5060408201516145e7604085018261459c565b50505050565b600060608201905061460260008301846145ab565b92915050565b7f4e487b7100000000000000000000000000000000000000000000000000000000600052602260045260246000fd5b6000600282049050600182168061464f57607f821691505b60208210810361466257614661614608565b5b50919050565b7f4552433732313a20617070726f76616c20746f2063757272656e74206f776e6560008201527f7200000000000000000000000000000000000000000000000000000000000000602082015250565b60006146c4602183613ca1565b91506146cf82614668565b604082019050919050565b600060208201905081810360008301526146f3816146b7565b9050919050565b7f4552433732313a20617070726f76652063616c6c6572206973206e6f7420746f60008201527f6b656e206f776e6572206f7220617070726f76656420666f7220616c6c000000602082015250565b6000614756603d83613ca1565b9150614761826146fa565b604082019050919050565b6000602082019050818103600083015261478581614749565b9050919050565b7f41646472657373206973206e6f7420636f6d6d6f646974790000000000000000600082015250565b60006147c2601883613ca1565b91506147cd8261478c565b602082019050919050565b600060208201905081810360008301526147f1816147b5565b9050919050565b7f4e6f74206f776e65720000000000000000000000000000000000000000000000600082015250565b600061482e600983613ca1565b9150614839826147f8565b602082019050919050565b6000602082019050818103600083015261485d81614821565b9050919050565b7f496e76616c6964206c616e640000000000000000000000000000000000000000600082015250565b600061489a600c83613ca1565b91506148a582614864565b602082019050919050565b600060208201905081810360008301526148c98161488d565b9050919050565b7f4e487b7100000000000000000000000000000000000000000000000000000000600052601160045260246000fd5b600061490a82613d48565b915061491583613d48565b925082820190508082111561492d5761492c6148d0565b5b92915050565b7f4552433732313a2063616c6c6572206973206e6f7420746f6b656e206f776e6560008201527f72206f7220617070726f76656400000000000000000000000000000000000000602082015250565b600061498f602d83613ca1565b915061499a82614933565b604082019050919050565b600060208201905081810360008301526149be81614982565b9050919050565b7f4e487b7100000000000000000000000000000000000000000000000000000000600052603260045260246000fd5b60006149ff82613d48565b91507fffffffffffffffffffffffffffffffffffffffffffffffffffffffffffffffff8203614a3157614a306148d0565b5b600182019050919050565b7f41646472657373206e6f7420617574686f72697a656400000000000000000000600082015250565b6000614a72601683613ca1565b9150614a7d82614a3c565b602082019050919050565b60006020820190508181036000830152614aa181614a65565b9050919050565b6000614ab382613d48565b9150614abe83613d48565b9250828203905081811115614ad657614ad56148d0565b5b92915050565b6000614ae782613d48565b9150614af283613d48565b9250828202614b0081613d48565b91508282048414831517614b1757614b166148d0565b5b5092915050565b7f4e487b7100000000000000000000000000000000000000000000000000000000600052601260045260246000fd5b6000614b5882613d48565b9150614b6383613d48565b925082614b7357614b72614b1e565b5b828204905092915050565b7f6d73672e76616c7565206c657373207468616e206c616e642070726963650000600082015250565b6000614bb4601e83613ca1565b9150614bbf82614b7e565b602082019050919050565b60006020820190508181036000830152614be381614ba7565b9050919050565b7f496e73756666696369656e742062616c616e6365000000000000000000000000600082015250565b6000614c20601483613ca1565b9150614c2b82614bea565b602082019050919050565b60006020820190508181036000830152614c4f81614c13565b9050919050565b7f496e76616c696420696e64657800000000000000000000000000000000000000600082015250565b6000614c8c600d83613ca1565b9150614c9782614c56565b602082019050919050565b60006020820190508181036000830152614cbb81614c7f565b9050919050565b7f426967676572207468616e206d6178696d756d20646966666963756c74790000600082015250565b6000614cf8601e83613ca1565b9150614d0382614cc2565b602082019050919050565b60006020820190508181036000830152614d2781614ceb565b9050919050565b7f4552433732313a20696e76616c696420746f6b656e2049440000000000000000600082015250565b6000614d64601883613ca1565b9150614d6f82614d2e565b602082019050919050565b60006020820190508181036000830152614d9381614d57565b9050919050565b7f4552433732313a2061646472657373207a65726f206973206e6f74206120766160008201527f6c6964206f776e65720000000000000000000000000000000000000000000000602082015250565b6000614df6602983613ca1565b9150614e0182614d9a565b604082019050919050565b60006020820190508181036000830152614e2581614de9565b9050919050565b6000614e37826141a8565b9150614e42836141a8565b9250828203905060ff811115614e5b57614e5a6148d0565b5b92915050565b7f4552433732314d657461646174613a2055524920717565727920666f72206e6f60008201527f6e6578697374656e7420746f6b656e0000000000000000000000000000000000602082015250565b6000614ebd602f83613ca1565b9150614ec882614e61565b604082019050919050565b60006020820190508181036000830152614eec81614eb0565b9050919050565b600081905092915050565b6000614f0982613c96565b614f138185614ef3565b9350614f23818560208601613cb2565b80840191505092915050565b6000614f3b8287614efe565b9150614f478286614efe565b9150614f538285614efe565b9150614f5f8284614efe565b915081905095945050505050565b7f4f776e61626c653a206e6577206f776e657220697320746865207a65726f206160008201527f6464726573730000000000000000000000000000000000000000000000000000602082015250565b6000614fc9602683613ca1565b9150614fd482614f6d565b604082019050919050565b60006020820190508181036000830152614ff881614fbc565b9050919050565b60006060820190506150146000830186613ddd565b6150216020830185613ddd565b61502e604083018461433b565b949350505050565b600081519050919050565b600081905092915050565b600061505782615036565b6150618185615041565b9350615071818560208601613cb2565b80840191505092915050565b6000615089828461504c565b915081905092915050565b6000815190506150a3816143b8565b92915050565b6000602082840312156150bf576150be613bd1565b5b60006150cd84828501615094565b91505092915050565b7f5354460000000000000000000000000000000000000000000000000000000000600082015250565b600061510c600383613ca1565b9150615117826150d6565b602082019050919050565b6000602082019050818103600083015261513b816150ff565b9050919050565b7f4552433732313a207472616e736665722066726f6d20696e636f72726563742060008201527f6f776e6572000000000000000000000000000000000000000000000000000000602082015250565b600061519e602583613ca1565b91506151a982615142565b604082019050919050565b600060208201905081810360008301526151cd81615191565b9050919050565b7f4552433732313a207472616e7366657220746f20746865207a65726f2061646460008201527f7265737300000000000000000000000000000000000000000000000000000000602082015250565b6000615230602483613ca1565b915061523b826151d4565b604082019050919050565b6000602082019050818103600083015261525f81615223565b9050919050565b60006152728285614efe565b915061527e8284614efe565b91508190509392505050565b7f4552433732313a206d696e7420746f20746865207a65726f2061646472657373600082015250565b60006152c0602083613ca1565b91506152cb8261528a565b602082019050919050565b600060208201905081810360008301526152ef816152b3565b9050919050565b7f4552433732313a20746f6b656e20616c7265616479206d696e74656400000000600082015250565b600061532c601c83613ca1565b9150615337826152f6565b602082019050919050565b6000602082019050818103600083015261535b8161531f565b9050919050565b7f4f776e61626c653a2063616c6c6572206973206e6f7420746865206f776e6572600082015250565b6000615398602083613ca1565b91506153a382615362565b602082019050919050565b600060208201905081810360008301526153c78161538b565b9050919050565b7f4552433732313a20617070726f766520746f2063616c6c657200000000000000600082015250565b6000615404601983613ca1565b915061540f826153ce565b602082019050919050565b60006020820190508181036000830152615433816153f7565b9050919050565b600060408201905061544f6000830185613ddd565b61545c602083018461433b565b9392505050565b7f5354000000000000000000000000000000000000000000000000000000000000600082015250565b6000615499600283613ca1565b91506154a482615463565b602082019050919050565b600060208201905081810360008301526154c88161548c565b9050919050565b7f4552433732313a207472616e7366657220746f206e6f6e20455243373231526560008201527f63656976657220696d706c656d656e7465720000000000000000000000000000602082015250565b600061552b603283613ca1565b9150615536826154cf565b604082019050919050565b6000602082019050818103600083015261555a8161551e565b9050919050565b600061556c82613d48565b915061557783613d48565b92508261558757615586614b1e565b5b828206905092915050565b600082825260208201905092915050565b60006155ae82615036565b6155b88185615592565b93506155c8818560208601613cb2565b6155d181613cdc565b840191505092915050565b60006080820190506155f16000830187613ddd565b6155fe6020830186613ddd565b61560b604083018561433b565b818103606083015261561d81846155a3565b905095945050505050565b60008151905061563781613c07565b92915050565b60006020828403121561565357615652613bd1565b5b600061566184828501615628565b9150509291505056fe68747470733a2f2f697066732e696f2f697066732f516d617a314e694672666958533942636b484e79537a646d6b707135475469725532526f547434536a693868646da2646970667358221220e4c493da0297df0be271c552d658da6a770e3824adc5df1fed15c25c8c97f41264736f6c63430008130033",
  "linkReferences": {},
  "deployedLinkReferences": {}
}