{
  "_format": "hh-sol-artifact-1",
  "contractName": "LandsV1",
  "sourceName": "contracts/LandsV1.sol",
  "abi": [
    {
      "inputs": [
        {
          "internalType": "address",
          "name": "_stone",
          "type": "address"
        },
        {
          "internalType": "address",
          "name": "_wood",
          "type": "address"
        },
        {
          "internalType": "address",
          "name": "_iron",
          "type": "address"
        },
        {
          "internalType": "address",
          "name": "_gold",
          "type": "address"
        },
        {
          "internalType": "address",
          "name": "_food",
          "type": "address"
        }
      ],
      "stateMutability": "nonpayable",
      "type": "constructor"
    },
    {
      "inputs": [],
      "name": "Lands__InvalidCoordinate",
      "type": "error"
    },
    {
      "inputs": [],
      "name": "Lands__LandAlreadyMinted",
      "type": "error"
    },
    {
      "anonymous": false,
      "inputs": [
        {
          "indexed": true,
          "internalType": "address",
          "name": "owner",
          "type": "address"
        },
        {
          "indexed": true,
          "internalType": "address",
          "name": "approved",
          "type": "address"
        },
        {
          "indexed": true,
          "internalType": "uint256",
          "name": "tokenId",
          "type": "uint256"
        }
      ],
      "name": "Approval",
      "type": "event"
    },
    {
      "anonymous": false,
      "inputs": [
        {
          "indexed": true,
          "internalType": "address",
          "name": "owner",
          "type": "address"
        },
        {
          "indexed": true,
          "internalType": "address",
          "name": "operator",
          "type": "address"
        },
        {
          "indexed": false,
          "internalType": "bool",
          "name": "approved",
          "type": "bool"
        }
      ],
      "name": "ApprovalForAll",
      "type": "event"
    },
    {
      "anonymous": false,
      "inputs": [
        {
          "indexed": true,
          "internalType": "address",
          "name": "previousOwner",
          "type": "address"
        },
        {
          "indexed": true,
          "internalType": "address",
          "name": "newOwner",
          "type": "address"
        }
      ],
      "name": "OwnershipTransferred",
      "type": "event"
    },
    {
      "anonymous": false,
      "inputs": [
        {
          "indexed": true,
          "internalType": "address",
          "name": "from",
          "type": "address"
        },
        {
          "indexed": true,
          "internalType": "address",
          "name": "to",
          "type": "address"
        },
        {
          "indexed": true,
          "internalType": "uint256",
          "name": "tokenId",
          "type": "uint256"
        }
      ],
      "name": "Transfer",
      "type": "event"
    },
    {
      "inputs": [],
      "name": "URI",
      "outputs": [
        {
          "internalType": "string",
          "name": "",
          "type": "string"
        }
      ],
      "stateMutability": "view",
      "type": "function"
    },
    {
      "inputs": [
        {
          "internalType": "address",
          "name": "newItem",
          "type": "address"
        }
      ],
      "name": "addItem",
      "outputs": [],
      "stateMutability": "nonpayable",
      "type": "function"
    },
    {
      "inputs": [
        {
          "internalType": "address",
          "name": "to",
          "type": "address"
        },
        {
          "internalType": "uint256",
          "name": "tokenId",
          "type": "uint256"
        }
      ],
      "name": "approve",
      "outputs": [],
      "stateMutability": "nonpayable",
      "type": "function"
    },
    {
      "inputs": [
        {
          "internalType": "uint256",
          "name": "buildingTokenId",
          "type": "uint256"
        },
        {
          "internalType": "uint256",
          "name": "landTokenId",
          "type": "uint256"
        }
      ],
      "name": "attach",
      "outputs": [],
      "stateMutability": "nonpayable",
      "type": "function"
    },
    {
      "inputs": [
        {
          "internalType": "address",
          "name": "owner",
          "type": "address"
        }
      ],
      "name": "balanceOf",
      "outputs": [
        {
          "internalType": "uint256",
          "name": "",
          "type": "uint256"
        }
      ],
      "stateMutability": "view",
      "type": "function"
    },
    {
      "inputs": [
        {
          "internalType": "uint256",
          "name": "assetIndex",
          "type": "uint256"
        },
        {
          "internalType": "uint256",
          "name": "amount",
          "type": "uint256"
        },
        {
          "internalType": "uint256",
          "name": "landTokenId",
          "type": "uint256"
        }
      ],
      "name": "claimAsset",
      "outputs": [],
      "stateMutability": "nonpayable",
      "type": "function"
    },
    {
      "inputs": [
        {
          "internalType": "address",
          "name": "commodityTokenAddress",
          "type": "address"
        },
        {
          "internalType": "uint256",
          "name": "amount",
          "type": "uint256"
        },
        {
          "internalType": "uint256",
          "name": "landId",
          "type": "uint256"
        }
      ],
      "name": "deposit",
      "outputs": [],
      "stateMutability": "nonpayable",
      "type": "function"
    },
    {
      "inputs": [
        {
          "internalType": "uint256",
          "name": "tokenId",
          "type": "uint256"
        }
      ],
      "name": "getApproved",
      "outputs": [
        {
          "internalType": "address",
          "name": "",
          "type": "address"
        }
      ],
      "stateMutability": "view",
      "type": "function"
    },
    {
      "inputs": [
        {
          "internalType": "uint256",
          "name": "tokenId",
          "type": "uint256"
        },
        {
          "internalType": "uint256",
          "name": "commodityIndex",
          "type": "uint256"
        }
      ],
      "name": "getAssetBal",
      "outputs": [
        {
          "internalType": "uint256",
          "name": "",
          "type": "uint256"
        }
      ],
      "stateMutability": "view",
      "type": "function"
    },
    {
      "inputs": [
        {
          "internalType": "address",
          "name": "owner",
          "type": "address"
        },
        {
          "internalType": "address",
          "name": "operator",
          "type": "address"
        }
      ],
      "name": "isApprovedForAll",
      "outputs": [
        {
          "internalType": "bool",
          "name": "",
          "type": "bool"
        }
      ],
      "stateMutability": "view",
      "type": "function"
    },
    {
      "inputs": [
        {
          "internalType": "uint8",
          "name": "x",
          "type": "uint8"
        },
        {
          "internalType": "uint8",
          "name": "y",
          "type": "uint8"
        }
      ],
      "name": "mintLand",
      "outputs": [],
      "stateMutability": "payable",
      "type": "function"
    },
    {
      "inputs": [],
      "name": "name",
      "outputs": [
        {
          "internalType": "string",
          "name": "",
          "type": "string"
        }
      ],
      "stateMutability": "view",
      "type": "function"
    },
    {
      "inputs": [],
      "name": "owner",
      "outputs": [
        {
          "internalType": "address",
          "name": "",
          "type": "address"
        }
      ],
      "stateMutability": "view",
      "type": "function"
    },
    {
      "inputs": [
        {
          "internalType": "uint256",
          "name": "tokenId",
          "type": "uint256"
        }
      ],
      "name": "ownerOf",
      "outputs": [
        {
          "internalType": "address",
          "name": "",
          "type": "address"
        }
      ],
      "stateMutability": "view",
      "type": "function"
    },
    {
      "inputs": [],
      "name": "renounceOwnership",
      "outputs": [],
      "stateMutability": "nonpayable",
      "type": "function"
    },
    {
      "inputs": [
        {
          "internalType": "address",
          "name": "from",
          "type": "address"
        },
        {
          "internalType": "address",
          "name": "to",
          "type": "address"
        },
        {
          "internalType": "uint256",
          "name": "tokenId",
          "type": "uint256"
        }
      ],
      "name": "safeTransferFrom",
      "outputs": [],
      "stateMutability": "nonpayable",
      "type": "function"
    },
    {
      "inputs": [
        {
          "internalType": "address",
          "name": "from",
          "type": "address"
        },
        {
          "internalType": "address",
          "name": "to",
          "type": "address"
        },
        {
          "internalType": "uint256",
          "name": "tokenId",
          "type": "uint256"
        },
        {
          "internalType": "bytes",
          "name": "data",
          "type": "bytes"
        }
      ],
      "name": "safeTransferFrom",
      "outputs": [],
      "stateMutability": "nonpayable",
      "type": "function"
    },
    {
      "inputs": [
        {
          "internalType": "address",
          "name": "operator",
          "type": "address"
        },
        {
          "internalType": "bool",
          "name": "approved",
          "type": "bool"
        }
      ],
      "name": "setApprovalForAll",
      "outputs": [],
      "stateMutability": "nonpayable",
      "type": "function"
    },
    {
      "inputs": [
        {
          "internalType": "address",
          "name": "assetAddress",
          "type": "address"
        },
        {
          "internalType": "uint8",
          "name": "newAmount",
          "type": "uint8"
        }
      ],
      "name": "setDifficulty",
      "outputs": [],
      "stateMutability": "nonpayable",
      "type": "function"
    },
    {
      "inputs": [
        {
          "internalType": "uint256",
          "name": "landTokenId",
          "type": "uint256"
        },
        {
          "internalType": "address",
          "name": "assetAddress",
          "type": "address"
        },
        {
          "internalType": "uint256",
          "name": "amount",
          "type": "uint256"
        }
      ],
      "name": "spendAsset",
      "outputs": [],
      "stateMutability": "nonpayable",
      "type": "function"
    },
    {
      "inputs": [
        {
          "internalType": "uint256",
          "name": "landTokenId",
          "type": "uint256"
        },
        {
          "internalType": "uint256[5]",
          "name": "amounts",
          "type": "uint256[5]"
        }
      ],
      "name": "spendCommodities",
      "outputs": [],
      "stateMutability": "nonpayable",
      "type": "function"
    },
    {
      "inputs": [
        {
          "internalType": "bytes4",
          "name": "interfaceId",
          "type": "bytes4"
        }
      ],
      "name": "supportsInterface",
      "outputs": [
        {
          "internalType": "bool",
          "name": "",
          "type": "bool"
        }
      ],
      "stateMutability": "view",
      "type": "function"
    },
    {
      "inputs": [],
      "name": "symbol",
      "outputs": [
        {
          "internalType": "string",
          "name": "",
          "type": "string"
        }
      ],
      "stateMutability": "view",
      "type": "function"
    },
    {
      "inputs": [
        {
          "internalType": "uint256",
          "name": "landTokenId",
          "type": "uint256"
        }
      ],
      "name": "testDeposit",
      "outputs": [],
      "stateMutability": "nonpayable",
      "type": "function"
    },
    {
      "inputs": [
        {
          "internalType": "uint256",
          "name": "",
          "type": "uint256"
        }
      ],
      "name": "tokenIdLand",
      "outputs": [
        {
          "internalType": "uint8",
          "name": "coordinateX",
          "type": "uint8"
        },
        {
          "internalType": "uint8",
          "name": "coordinateY",
          "type": "uint8"
        },
        {
          "internalType": "uint8",
          "name": "level",
          "type": "uint8"
        },
        {
          "internalType": "enum LandsV1.LandStatus",
          "name": "defence",
          "type": "uint8"
        }
      ],
      "stateMutability": "view",
      "type": "function"
    },
    {
      "inputs": [
        {
          "internalType": "uint256",
          "name": "_tokenId",
          "type": "uint256"
        }
      ],
      "name": "tokenURI",
      "outputs": [
        {
          "internalType": "string",
          "name": "",
          "type": "string"
        }
      ],
      "stateMutability": "view",
      "type": "function"
    },
    {
      "inputs": [
        {
          "internalType": "uint256",
          "name": "commodityIndex",
          "type": "uint256"
        },
        {
          "internalType": "uint256",
          "name": "amount",
          "type": "uint256"
        },
        {
          "internalType": "uint256",
          "name": "fromId",
          "type": "uint256"
        },
        {
          "internalType": "uint256",
          "name": "toId",
          "type": "uint256"
        }
      ],
      "name": "transferCommodity",
      "outputs": [],
      "stateMutability": "nonpayable",
      "type": "function"
    },
    {
      "inputs": [
        {
          "internalType": "address",
          "name": "from",
          "type": "address"
        },
        {
          "internalType": "address",
          "name": "to",
          "type": "address"
        },
        {
          "internalType": "uint256",
          "name": "tokenId",
          "type": "uint256"
        }
      ],
      "name": "transferFrom",
      "outputs": [],
      "stateMutability": "nonpayable",
      "type": "function"
    },
    {
      "inputs": [
        {
          "internalType": "address",
          "name": "newOwner",
          "type": "address"
        }
      ],
      "name": "transferOwnership",
      "outputs": [],
      "stateMutability": "nonpayable",
      "type": "function"
    },
    {
      "inputs": [
        {
          "internalType": "address",
          "name": "commodityTokenAddress",
          "type": "address"
        },
        {
          "internalType": "uint256",
          "name": "amount",
          "type": "uint256"
        },
        {
          "internalType": "uint256",
          "name": "landId",
          "type": "uint256"
        }
      ],
      "name": "withdraw",
      "outputs": [],
      "stateMutability": "nonpayable",
      "type": "function"
    }
  ],
  "bytecode": "0x60806040526003600d556040518060800160405280606460ff168152602001606460ff168152602001600160ff16815260200160006001811115620000495762000048620003e9565b5b815250601360008201518160000160006101000a81548160ff021916908360ff16021790555060208201518160000160016101000a81548160ff021916908360ff16021790555060408201518160000160026101000a81548160ff021916908360ff16021790555060608201518160000160036101000a81548160ff02191690836001811115620000df57620000de620003e9565b5b02179055505050348015620000f357600080fd5b5060405162005b1938038062005b19833981810160405281019062000119919062000482565b6040518060400160405280601181526020017f506f6c79676f6e2077617273206c616e640000000000000000000000000000008152506040518060400160405280600381526020017f50574c0000000000000000000000000000000000000000000000000000000000815250816000908162000196919062000784565b508060019081620001a8919062000784565b505050620001cb620001bf6200031b60201b60201c565b6200032360201b60201c565b84600760006101000a81548173ffffffffffffffffffffffffffffffffffffffff021916908373ffffffffffffffffffffffffffffffffffffffff16021790555083600860006101000a81548173ffffffffffffffffffffffffffffffffffffffff021916908373ffffffffffffffffffffffffffffffffffffffff16021790555082600960006101000a81548173ffffffffffffffffffffffffffffffffffffffff021916908373ffffffffffffffffffffffffffffffffffffffff16021790555081600a60006101000a81548173ffffffffffffffffffffffffffffffffffffffff021916908373ffffffffffffffffffffffffffffffffffffffff16021790555080600b60006101000a81548173ffffffffffffffffffffffffffffffffffffffff021916908373ffffffffffffffffffffffffffffffffffffffff16021790555050505050506200086b565b600033905090565b6000600660009054906101000a900473ffffffffffffffffffffffffffffffffffffffff16905081600660006101000a81548173ffffffffffffffffffffffffffffffffffffffff021916908373ffffffffffffffffffffffffffffffffffffffff1602179055508173ffffffffffffffffffffffffffffffffffffffff168173ffffffffffffffffffffffffffffffffffffffff167f8be0079c531659141344cd1fd0a4f28419497f9722a3daafe3b4186f6b6457e060405160405180910390a35050565b7f4e487b7100000000000000000000000000000000000000000000000000000000600052602160045260246000fd5b600080fd5b600073ffffffffffffffffffffffffffffffffffffffff82169050919050565b60006200044a826200041d565b9050919050565b6200045c816200043d565b81146200046857600080fd5b50565b6000815190506200047c8162000451565b92915050565b600080600080600060a08688031215620004a157620004a062000418565b5b6000620004b1888289016200046b565b9550506020620004c4888289016200046b565b9450506040620004d7888289016200046b565b9350506060620004ea888289016200046b565b9250506080620004fd888289016200046b565b9150509295509295909350565b600081519050919050565b7f4e487b7100000000000000000000000000000000000000000000000000000000600052604160045260246000fd5b7f4e487b7100000000000000000000000000000000000000000000000000000000600052602260045260246000fd5b600060028204905060018216806200058c57607f821691505b602082108103620005a257620005a162000544565b5b50919050565b60008190508160005260206000209050919050565b60006020601f8301049050919050565b600082821b905092915050565b6000600883026200060c7fffffffffffffffffffffffffffffffffffffffffffffffffffffffffffffffff82620005cd565b620006188683620005cd565b95508019841693508086168417925050509392505050565b6000819050919050565b6000819050919050565b6000620006656200065f620006598462000630565b6200063a565b62000630565b9050919050565b6000819050919050565b620006818362000644565b6200069962000690826200066c565b848454620005da565b825550505050565b600090565b620006b0620006a1565b620006bd81848462000676565b505050565b5b81811015620006e557620006d9600082620006a6565b600181019050620006c3565b5050565b601f8211156200073457620006fe81620005a8565b6200070984620005bd565b8101602085101562000719578190505b620007316200072885620005bd565b830182620006c2565b50505b505050565b600082821c905092915050565b6000620007596000198460080262000739565b1980831691505092915050565b600062000774838362000746565b9150826002028217905092915050565b6200078f826200050a565b67ffffffffffffffff811115620007ab57620007aa62000515565b5b620007b7825462000573565b620007c4828285620006e9565b600060209050601f831160018114620007fc5760008415620007e7578287015190505b620007f3858262000766565b86555062000863565b601f1984166200080c86620005a8565b60005b8281101562000836578489015182556001820191506020850194506020810190506200080f565b8683101562000856578489015162000852601f89168262000746565b8355505b6001600288020188555050505b505050505050565b61529e806200087b6000396000f3fe6080604052600436106101cd5760003560e01c806370a08231116100f75780639c930ab111610095578063c55e0ec511610064578063c55e0ec514610660578063c87b56dd14610689578063e985e9c5146106c6578063f2fde38b14610703576101cd565b80639c930ab1146105a8578063a22cb465146105e5578063b5c5f6721461060e578063b88d4fde14610637576101cd565b80637cf90fcc116100d15780637cf90fcc14610500578063885085a0146105295780638da5cb5b1461055257806395d89b411461057d576101cd565b806370a0823114610483578063715018a6146104c0578063728834a5146104d7576101cd565b8063308fad6d1161016f578063475953bd1161013e578063475953bd146103c15780634d0b47d1146103dd5780636352211e146104065780636980d8b914610443576101cd565b8063308fad6d1461031d5780633a4f75921461034657806342842e0e1461036f57806345e00ef414610398576101cd565b8063095ea7b3116101ab578063095ea7b3146102775780630efe6a8b146102a05780631141d7de146102c957806323b872dd146102f4576101cd565b806301ffc9a7146101d257806306fdde031461020f578063081812fc1461023a575b600080fd5b3480156101de57600080fd5b506101f960048036038101906101f49190613864565b61072c565b60405161020691906138ac565b60405180910390f35b34801561021b57600080fd5b5061022461080e565b6040516102319190613957565b60405180910390f35b34801561024657600080fd5b50610261600480360381019061025c91906139af565b6108a0565b60405161026e9190613a1d565b60405180910390f35b34801561028357600080fd5b5061029e60048036038101906102999190613a64565b6108e6565b005b3480156102ac57600080fd5b506102c760048036038101906102c29190613aa4565b6109fd565b005b3480156102d557600080fd5b506102de610cdf565b6040516102eb9190613957565b60405180910390f35b34801561030057600080fd5b5061031b60048036038101906103169190613af7565b610cee565b005b34801561032957600080fd5b50610344600480360381019061033f9190613c80565b610d4e565b005b34801561035257600080fd5b5061036d60048036038101906103689190613cf9565b610edf565b005b34801561037b57600080fd5b5061039660048036038101906103919190613af7565b610f8a565b005b3480156103a457600080fd5b506103bf60048036038101906103ba91906139af565b610faa565b005b6103db60048036038101906103d69190613d39565b61128c565b005b3480156103e957600080fd5b5061040460048036038101906103ff9190613d79565b611477565b005b34801561041257600080fd5b5061042d600480360381019061042891906139af565b6117cf565b60405161043a9190613a1d565b60405180910390f35b34801561044f57600080fd5b5061046a600480360381019061046591906139af565b611855565b60405161047a9493929190613e66565b60405180910390f35b34801561048f57600080fd5b506104aa60048036038101906104a59190613eab565b6118b9565b6040516104b79190613ee7565b60405180910390f35b3480156104cc57600080fd5b506104d5611970565b005b3480156104e357600080fd5b506104fe60048036038101906104f99190613f02565b611984565b005b34801561050c57600080fd5b5061052760048036038101906105229190613eab565b611b65565b005b34801561053557600080fd5b50610550600480360381019061054b9190613f55565b611bd3565b005b34801561055e57600080fd5b50610567611d26565b6040516105749190613a1d565b60405180910390f35b34801561058957600080fd5b50610592611d50565b60405161059f9190613957565b60405180910390f35b3480156105b457600080fd5b506105cf60048036038101906105ca9190613fa8565b611de2565b6040516105dc9190613ee7565b60405180910390f35b3480156105f157600080fd5b5061060c60048036038101906106079190614014565b611e45565b005b34801561061a57600080fd5b5061063560048036038101906106309190613aa4565b611e5b565b005b34801561064357600080fd5b5061065e60048036038101906106599190614109565b6121cf565b005b34801561066c57600080fd5b5061068760048036038101906106829190613fa8565b612231565b005b34801561069557600080fd5b506106b060048036038101906106ab91906139af565b6122fa565b6040516106bd9190613957565b60405180910390f35b3480156106d257600080fd5b506106ed60048036038101906106e8919061418c565b612427565b6040516106fa91906138ac565b60405180910390f35b34801561070f57600080fd5b5061072a60048036038101906107259190613eab565b6124bb565b005b60007f80ac58cd000000000000000000000000000000000000000000000000000000007bffffffffffffffffffffffffffffffffffffffffffffffffffffffff1916827bffffffffffffffffffffffffffffffffffffffffffffffffffffffff191614806107f757507f5b5e139f000000000000000000000000000000000000000000000000000000007bffffffffffffffffffffffffffffffffffffffffffffffffffffffff1916827bffffffffffffffffffffffffffffffffffffffffffffffffffffffff1916145b8061080757506108068261253e565b5b9050919050565b60606000805461081d906141fb565b80601f0160208091040260200160405190810160405280929190818152602001828054610849906141fb565b80156108965780601f1061086b57610100808354040283529160200191610896565b820191906000526020600020905b81548152906001019060200180831161087957829003601f168201915b5050505050905090565b60006108ab826125a8565b6004600083815260200190815260200160002060009054906101000a900473ffffffffffffffffffffffffffffffffffffffff169050919050565b60006108f1826117cf565b90508073ffffffffffffffffffffffffffffffffffffffff168373ffffffffffffffffffffffffffffffffffffffff1603610961576040517f08c379a00000000000000000000000000000000000000000000000000000000081526004016109589061429e565b60405180910390fd5b8073ffffffffffffffffffffffffffffffffffffffff166109806125f3565b73ffffffffffffffffffffffffffffffffffffffff1614806109af57506109ae816109a96125f3565b612427565b5b6109ee576040517f08c379a00000000000000000000000000000000000000000000000000000000081526004016109e590614330565b60405180910390fd5b6109f883836125fb565b505050565b82600760009054906101000a900473ffffffffffffffffffffffffffffffffffffffff1673ffffffffffffffffffffffffffffffffffffffff168173ffffffffffffffffffffffffffffffffffffffff161480610aa75750600860009054906101000a900473ffffffffffffffffffffffffffffffffffffffff1673ffffffffffffffffffffffffffffffffffffffff168173ffffffffffffffffffffffffffffffffffffffff16145b80610aff5750600960009054906101000a900473ffffffffffffffffffffffffffffffffffffffff1673ffffffffffffffffffffffffffffffffffffffff168173ffffffffffffffffffffffffffffffffffffffff16145b80610b575750600a60009054906101000a900473ffffffffffffffffffffffffffffffffffffffff1673ffffffffffffffffffffffffffffffffffffffff168173ffffffffffffffffffffffffffffffffffffffff16145b80610baf5750600b60009054906101000a900473ffffffffffffffffffffffffffffffffffffffff1673ffffffffffffffffffffffffffffffffffffffff168173ffffffffffffffffffffffffffffffffffffffff16145b610bee576040517f08c379a0000000000000000000000000000000000000000000000000000000008152600401610be59061439c565b60405180910390fd5b81610bf8816117cf565b73ffffffffffffffffffffffffffffffffffffffff163373ffffffffffffffffffffffffffffffffffffffff1614610c65576040517f08c379a0000000000000000000000000000000000000000000000000000000008152600401610c5c90614408565b60405180910390fd5b610c71853330876126b4565b836010600085815260200190815260200160002060008773ffffffffffffffffffffffffffffffffffffffff1673ffffffffffffffffffffffffffffffffffffffff1681526020019081526020016000206000828254610cd19190614457565b925050819055505050505050565b6060610ce961280c565b905090565b610cff610cf96125f3565b8261282c565b610d3e576040517f08c379a0000000000000000000000000000000000000000000000000000000008152600401610d35906144fd565b60405180910390fd5b610d498383836128c1565b505050565b6000805b600c80549050811015610dec57600c8181548110610d7357610d7261451d565b5b9060005260206000200160009054906101000a900473ffffffffffffffffffffffffffffffffffffffff1673ffffffffffffffffffffffffffffffffffffffff163373ffffffffffffffffffffffffffffffffffffffff1603610dd95760019150610dec565b8080610de49061454c565b915050610d52565b506001151581151514610e34576040517f08c379a0000000000000000000000000000000000000000000000000000000008152600401610e2b906145e0565b60405180910390fd5b60005b6005811015610ed957828160058110610e5357610e5261451d565b5b6020020151601060008681526020019081526020016000206000610e7684612bba565b73ffffffffffffffffffffffffffffffffffffffff1673ffffffffffffffffffffffffffffffffffffffff1681526020019081526020016000206000828254610ebf9190614600565b925050819055508080610ed19061454c565b915050610e37565b50505050565b610ee7612d00565b605a8160ff161115610f2e576040517f08c379a0000000000000000000000000000000000000000000000000000000008152600401610f2590614680565b60405180910390fd5b80601160008473ffffffffffffffffffffffffffffffffffffffff1673ffffffffffffffffffffffffffffffffffffffff16815260200190815260200160002060006101000a81548160ff021916908360ff1602179055505050565b610fa5838383604051806020016040528060008152506121cf565b505050565b69021e19e0c9bab2400000601060008381526020019081526020016000206000600860009054906101000a900473ffffffffffffffffffffffffffffffffffffffff1673ffffffffffffffffffffffffffffffffffffffff1673ffffffffffffffffffffffffffffffffffffffff16815260200190815260200160002060008282546110369190614457565b9250508190555069021e19e0c9bab2400000601060008381526020019081526020016000206000600760009054906101000a900473ffffffffffffffffffffffffffffffffffffffff1673ffffffffffffffffffffffffffffffffffffffff1673ffffffffffffffffffffffffffffffffffffffff16815260200190815260200160002060008282546110c99190614457565b9250508190555069021e19e0c9bab2400000601060008381526020019081526020016000206000600960009054906101000a900473ffffffffffffffffffffffffffffffffffffffff1673ffffffffffffffffffffffffffffffffffffffff1673ffffffffffffffffffffffffffffffffffffffff168152602001908152602001600020600082825461115c9190614457565b9250508190555069021e19e0c9bab2400000601060008381526020019081526020016000206000600a60009054906101000a900473ffffffffffffffffffffffffffffffffffffffff1673ffffffffffffffffffffffffffffffffffffffff1673ffffffffffffffffffffffffffffffffffffffff16815260200190815260200160002060008282546111ef9190614457565b9250508190555069021e19e0c9bab2400000601060008381526020019081526020016000206000600b60009054906101000a900473ffffffffffffffffffffffffffffffffffffffff1673ffffffffffffffffffffffffffffffffffffffff1673ffffffffffffffffffffffffffffffffffffffff16815260200190815260200160002060008282546112829190614457565b9250508190555050565b8181600061129a8383612d7e565b9050600073ffffffffffffffffffffffffffffffffffffffff166112bd82612ddf565b73ffffffffffffffffffffffffffffffffffffffff161461130a576040517f4cab46b100000000000000000000000000000000000000000000000000000000815260040160405180910390fd5b848460648260ff16108061132257506103e78260ff16115b80611330575060648160ff16105b8061133f57506103e78160ff16115b15611376576040517f636beb5100000000000000000000000000000000000000000000000000000000815260040160405180910390fd5b60006113828888612d7e565b905061138e3382612e1c565b6013600e60008381526020019081526020016000206000820160009054906101000a900460ff168160000160006101000a81548160ff021916908360ff1602179055506000820160019054906101000a900460ff168160000160016101000a81548160ff021916908360ff1602179055506000820160029054906101000a900460ff168160000160026101000a81548160ff021916908360ff1602179055506000820160039054906101000a900460ff168160000160036101000a81548160ff0219169083600181111561146557611464613def565b5b02179055509050505050505050505050565b61148084612bba565b600760009054906101000a900473ffffffffffffffffffffffffffffffffffffffff1673ffffffffffffffffffffffffffffffffffffffff168173ffffffffffffffffffffffffffffffffffffffff1614806115295750600860009054906101000a900473ffffffffffffffffffffffffffffffffffffffff1673ffffffffffffffffffffffffffffffffffffffff168173ffffffffffffffffffffffffffffffffffffffff16145b806115815750600960009054906101000a900473ffffffffffffffffffffffffffffffffffffffff1673ffffffffffffffffffffffffffffffffffffffff168173ffffffffffffffffffffffffffffffffffffffff16145b806115d95750600a60009054906101000a900473ffffffffffffffffffffffffffffffffffffffff1673ffffffffffffffffffffffffffffffffffffffff168173ffffffffffffffffffffffffffffffffffffffff16145b806116315750600b60009054906101000a900473ffffffffffffffffffffffffffffffffffffffff1673ffffffffffffffffffffffffffffffffffffffff168173ffffffffffffffffffffffffffffffffffffffff16145b611670576040517f08c379a00000000000000000000000000000000000000000000000000000000081526004016116679061439c565b60405180910390fd5b8261167a816117cf565b73ffffffffffffffffffffffffffffffffffffffff163373ffffffffffffffffffffffffffffffffffffffff16146116e7576040517f08c379a00000000000000000000000000000000000000000000000000000000081526004016116de90614408565b60405180910390fd5b846116f28588611de2565b1015611733576040517f08c379a000000000000000000000000000000000000000000000000000000000815260040161172a906146ec565b60405180910390fd5b6064600d5460646117449190614600565b8661174f919061470c565b611759919061477d565b60106000858152602001908152602001600020600061177789612bba565b73ffffffffffffffffffffffffffffffffffffffff1673ffffffffffffffffffffffffffffffffffffffff16815260200190815260200160002060008282546117c09190614457565b92505081905550505050505050565b6000806117db83612ddf565b9050600073ffffffffffffffffffffffffffffffffffffffff168173ffffffffffffffffffffffffffffffffffffffff160361184c576040517f08c379a0000000000000000000000000000000000000000000000000000000008152600401611843906147fa565b60405180910390fd5b80915050919050565b600e6020528060005260406000206000915090508060000160009054906101000a900460ff16908060000160019054906101000a900460ff16908060000160029054906101000a900460ff16908060000160039054906101000a900460ff16905084565b60008073ffffffffffffffffffffffffffffffffffffffff168273ffffffffffffffffffffffffffffffffffffffff1603611929576040517f08c379a00000000000000000000000000000000000000000000000000000000081526004016119209061488c565b60405180910390fd5b600360008373ffffffffffffffffffffffffffffffffffffffff1673ffffffffffffffffffffffffffffffffffffffff168152602001908152602001600020549050919050565b611978612d00565b6119826000613039565b565b6000805b600c80549050811015611a2257600c81815481106119a9576119a861451d565b5b9060005260206000200160009054906101000a900473ffffffffffffffffffffffffffffffffffffffff1673ffffffffffffffffffffffffffffffffffffffff163373ffffffffffffffffffffffffffffffffffffffff1603611a0f5760019150611a22565b8080611a1a9061454c565b915050611988565b506001151581151514611a6a576040517f08c379a0000000000000000000000000000000000000000000000000000000008152600401611a61906145e0565b60405180910390fd5b600060116000611a7987612bba565b73ffffffffffffffffffffffffffffffffffffffff1673ffffffffffffffffffffffffffffffffffffffff16815260200190815260200160002060009054906101000a900460ff16905060006064826064611ad491906148ac565b60ff1686611ae2919061470c565b611aec919061477d565b905080601060008681526020019081526020016000206000611b0d89612bba565b73ffffffffffffffffffffffffffffffffffffffff1673ffffffffffffffffffffffffffffffffffffffff1681526020019081526020016000206000828254611b569190614457565b92505081905550505050505050565b611b6d612d00565b600c819080600181540180825580915050600190039060005260206000200160009091909190916101000a81548173ffffffffffffffffffffffffffffffffffffffff021916908373ffffffffffffffffffffffffffffffffffffffff16021790555050565b6000805b600c80549050811015611c7157600c8181548110611bf857611bf761451d565b5b9060005260206000200160009054906101000a900473ffffffffffffffffffffffffffffffffffffffff1673ffffffffffffffffffffffffffffffffffffffff163373ffffffffffffffffffffffffffffffffffffffff1603611c5e5760019150611c71565b8080611c699061454c565b915050611bd7565b506001151581151514611cb9576040517f08c379a0000000000000000000000000000000000000000000000000000000008152600401611cb0906145e0565b60405180910390fd5b816010600086815260200190815260200160002060008573ffffffffffffffffffffffffffffffffffffffff1673ffffffffffffffffffffffffffffffffffffffff1681526020019081526020016000206000828254611d199190614600565b9250508190555050505050565b6000600660009054906101000a900473ffffffffffffffffffffffffffffffffffffffff16905090565b606060018054611d5f906141fb565b80601f0160208091040260200160405190810160405280929190818152602001828054611d8b906141fb565b8015611dd85780601f10611dad57610100808354040283529160200191611dd8565b820191906000526020600020905b815481529060010190602001808311611dbb57829003601f168201915b5050505050905090565b6000601060008481526020019081526020016000206000611e0284612bba565b73ffffffffffffffffffffffffffffffffffffffff1673ffffffffffffffffffffffffffffffffffffffff16815260200190815260200160002054905092915050565b611e57611e506125f3565b83836130ff565b5050565b82600760009054906101000a900473ffffffffffffffffffffffffffffffffffffffff1673ffffffffffffffffffffffffffffffffffffffff168173ffffffffffffffffffffffffffffffffffffffff161480611f055750600860009054906101000a900473ffffffffffffffffffffffffffffffffffffffff1673ffffffffffffffffffffffffffffffffffffffff168173ffffffffffffffffffffffffffffffffffffffff16145b80611f5d5750600960009054906101000a900473ffffffffffffffffffffffffffffffffffffffff1673ffffffffffffffffffffffffffffffffffffffff168173ffffffffffffffffffffffffffffffffffffffff16145b80611fb55750600a60009054906101000a900473ffffffffffffffffffffffffffffffffffffffff1673ffffffffffffffffffffffffffffffffffffffff168173ffffffffffffffffffffffffffffffffffffffff16145b8061200d5750600b60009054906101000a900473ffffffffffffffffffffffffffffffffffffffff1673ffffffffffffffffffffffffffffffffffffffff168173ffffffffffffffffffffffffffffffffffffffff16145b61204c576040517f08c379a00000000000000000000000000000000000000000000000000000000081526004016120439061439c565b60405180910390fd5b81612056816117cf565b73ffffffffffffffffffffffffffffffffffffffff163373ffffffffffffffffffffffffffffffffffffffff16146120c3576040517f08c379a00000000000000000000000000000000000000000000000000000000081526004016120ba90614408565b60405180910390fd5b836010600085815260200190815260200160002060008773ffffffffffffffffffffffffffffffffffffffff1673ffffffffffffffffffffffffffffffffffffffff168152602001908152602001600020541015612156576040517f08c379a000000000000000000000000000000000000000000000000000000000815260040161214d906146ec565b60405180910390fd5b836010600085815260200190815260200160002060008773ffffffffffffffffffffffffffffffffffffffff1673ffffffffffffffffffffffffffffffffffffffff16815260200190815260200160002060008282546121b69190614600565b925050819055506121c885338661326b565b5050505050565b6121e06121da6125f3565b8361282c565b61221f576040517f08c379a0000000000000000000000000000000000000000000000000000000008152600401612216906144fd565b60405180910390fd5b61222b848484846133c0565b50505050565b600f6000828152602001908152602001600020805490506006600e600084815260200190815260200160002060000160029054906101000a900460ff1661227891906148e1565b60ff1610156122bc576040517f08c379a00000000000000000000000000000000000000000000000000000000081526004016122b390614990565b60405180910390fd5b600f60008281526020019081526020016000208290806001815401808255809150506001900390600052602060002001600090919091909150555050565b60606123058261341c565b612344576040517f08c379a000000000000000000000000000000000000000000000000000000000815260040161233b90614a22565b60405180910390fd5b600061234e61280c565b9050600081511161236e576040518060200160405280600081525061241f565b61239d600e600085815260200190815260200160002060000160009054906101000a900460ff1660ff1661345d565b6123cc600e600086815260200190815260200160002060000160019054906101000a900460ff1660ff1661345d565b6123fb600e600087815260200190815260200160002060000160029054906101000a900460ff1660ff1661345d565b8360405160200161240f9493929190614a7e565b6040516020818303038152906040525b915050919050565b6000600560008473ffffffffffffffffffffffffffffffffffffffff1673ffffffffffffffffffffffffffffffffffffffff16815260200190815260200160002060008373ffffffffffffffffffffffffffffffffffffffff1673ffffffffffffffffffffffffffffffffffffffff16815260200190815260200160002060009054906101000a900460ff16905092915050565b6124c3612d00565b600073ffffffffffffffffffffffffffffffffffffffff168173ffffffffffffffffffffffffffffffffffffffff1603612532576040517f08c379a000000000000000000000000000000000000000000000000000000000815260040161252990614b2e565b60405180910390fd5b61253b81613039565b50565b60007f01ffc9a7000000000000000000000000000000000000000000000000000000007bffffffffffffffffffffffffffffffffffffffffffffffffffffffff1916827bffffffffffffffffffffffffffffffffffffffffffffffffffffffff1916149050919050565b6125b18161341c565b6125f0576040517f08c379a00000000000000000000000000000000000000000000000000000000081526004016125e7906147fa565b60405180910390fd5b50565b600033905090565b816004600083815260200190815260200160002060006101000a81548173ffffffffffffffffffffffffffffffffffffffff021916908373ffffffffffffffffffffffffffffffffffffffff160217905550808273ffffffffffffffffffffffffffffffffffffffff1661266e836117cf565b73ffffffffffffffffffffffffffffffffffffffff167f8c5be1e5ebec7d5bd14f71427d1e84f3dd0314c0f7b2291e5b200ac8c7c3b92560405160405180910390a45050565b6000808573ffffffffffffffffffffffffffffffffffffffff166323b872dd60e01b8686866040516024016126eb93929190614b4e565b604051602081830303815290604052907bffffffffffffffffffffffffffffffffffffffffffffffffffffffff19166020820180517bffffffffffffffffffffffffffffffffffffffffffffffffffffffff83818316178352505050506040516127559190614bcc565b6000604051808303816000865af19150503d8060008114612792576040519150601f19603f3d011682016040523d82523d6000602084013e612797565b606091505b50915091508180156127c557506000815114806127c45750808060200190518101906127c39190614bf8565b5b5b612804576040517f08c379a00000000000000000000000000000000000000000000000000000000081526004016127fb90614c71565b60405180910390fd5b505050505050565b606060405180608001604052806043815260200161522660439139905090565b600080612838836117cf565b90508073ffffffffffffffffffffffffffffffffffffffff168473ffffffffffffffffffffffffffffffffffffffff16148061287a57506128798185612427565b5b806128b857508373ffffffffffffffffffffffffffffffffffffffff166128a0846108a0565b73ffffffffffffffffffffffffffffffffffffffff16145b91505092915050565b8273ffffffffffffffffffffffffffffffffffffffff166128e1826117cf565b73ffffffffffffffffffffffffffffffffffffffff1614612937576040517f08c379a000000000000000000000000000000000000000000000000000000000815260040161292e90614d03565b60405180910390fd5b600073ffffffffffffffffffffffffffffffffffffffff168273ffffffffffffffffffffffffffffffffffffffff16036129a6576040517f08c379a000000000000000000000000000000000000000000000000000000000815260040161299d90614d95565b60405180910390fd5b6129b383838360016135bd565b8273ffffffffffffffffffffffffffffffffffffffff166129d3826117cf565b73ffffffffffffffffffffffffffffffffffffffff1614612a29576040517f08c379a0000000000000000000000000000000000000000000000000000000008152600401612a2090614d03565b60405180910390fd5b6004600082815260200190815260200160002060006101000a81549073ffffffffffffffffffffffffffffffffffffffff02191690556001600360008573ffffffffffffffffffffffffffffffffffffffff1673ffffffffffffffffffffffffffffffffffffffff168152602001908152602001600020600082825403925050819055506001600360008473ffffffffffffffffffffffffffffffffffffffff1673ffffffffffffffffffffffffffffffffffffffff16815260200190815260200160002060008282540192505081905550816002600083815260200190815260200160002060006101000a81548173ffffffffffffffffffffffffffffffffffffffff021916908373ffffffffffffffffffffffffffffffffffffffff160217905550808273ffffffffffffffffffffffffffffffffffffffff168473ffffffffffffffffffffffffffffffffffffffff167fddf252ad1be2c89b69c2b068fc378daa952ba7f163c4a11628f55a4df523b3ef60405160405180910390a4612bb583838360016135c3565b505050565b60006005821115612c00576040517f08c379a0000000000000000000000000000000000000000000000000000000008152600401612bf790614e01565b60405180910390fd5b60008203612c3257600760009054906101000a900473ffffffffffffffffffffffffffffffffffffffff169050612cfb565b60018203612c6457600860009054906101000a900473ffffffffffffffffffffffffffffffffffffffff169050612cfb565b60028203612c9657600960009054906101000a900473ffffffffffffffffffffffffffffffffffffffff169050612cfb565b60038203612cc857600a60009054906101000a900473ffffffffffffffffffffffffffffffffffffffff169050612cfb565b60048203612cfa57600b60009054906101000a900473ffffffffffffffffffffffffffffffffffffffff169050612cfb565b5b919050565b612d086125f3565b73ffffffffffffffffffffffffffffffffffffffff16612d26611d26565b73ffffffffffffffffffffffffffffffffffffffff1614612d7c576040517f08c379a0000000000000000000000000000000000000000000000000000000008152600401612d7390614e6d565b60405180910390fd5b565b600080612d8d8460ff1661345d565b90506000612d9d8460ff1661345d565b905060008282604051602001612db4929190614e8d565b60405160208183030381529060405290506000612dd0826135c9565b90508094505050505092915050565b60006002600083815260200190815260200160002060009054906101000a900473ffffffffffffffffffffffffffffffffffffffff169050919050565b600073ffffffffffffffffffffffffffffffffffffffff168273ffffffffffffffffffffffffffffffffffffffff1603612e8b576040517f08c379a0000000000000000000000000000000000000000000000000000000008152600401612e8290614efd565b60405180910390fd5b612e948161341c565b15612ed4576040517f08c379a0000000000000000000000000000000000000000000000000000000008152600401612ecb90614f69565b60405180910390fd5b612ee26000838360016135bd565b612eeb8161341c565b15612f2b576040517f08c379a0000000000000000000000000000000000000000000000000000000008152600401612f2290614f69565b60405180910390fd5b6001600360008473ffffffffffffffffffffffffffffffffffffffff1673ffffffffffffffffffffffffffffffffffffffff16815260200190815260200160002060008282540192505081905550816002600083815260200190815260200160002060006101000a81548173ffffffffffffffffffffffffffffffffffffffff021916908373ffffffffffffffffffffffffffffffffffffffff160217905550808273ffffffffffffffffffffffffffffffffffffffff16600073ffffffffffffffffffffffffffffffffffffffff167fddf252ad1be2c89b69c2b068fc378daa952ba7f163c4a11628f55a4df523b3ef60405160405180910390a46130356000838360016135c3565b5050565b6000600660009054906101000a900473ffffffffffffffffffffffffffffffffffffffff16905081600660006101000a81548173ffffffffffffffffffffffffffffffffffffffff021916908373ffffffffffffffffffffffffffffffffffffffff1602179055508173ffffffffffffffffffffffffffffffffffffffff168173ffffffffffffffffffffffffffffffffffffffff167f8be0079c531659141344cd1fd0a4f28419497f9722a3daafe3b4186f6b6457e060405160405180910390a35050565b8173ffffffffffffffffffffffffffffffffffffffff168373ffffffffffffffffffffffffffffffffffffffff160361316d576040517f08c379a000000000000000000000000000000000000000000000000000000000815260040161316490614fd5565b60405180910390fd5b80600560008573ffffffffffffffffffffffffffffffffffffffff1673ffffffffffffffffffffffffffffffffffffffff16815260200190815260200160002060008473ffffffffffffffffffffffffffffffffffffffff1673ffffffffffffffffffffffffffffffffffffffff16815260200190815260200160002060006101000a81548160ff0219169083151502179055508173ffffffffffffffffffffffffffffffffffffffff168373ffffffffffffffffffffffffffffffffffffffff167f17307eab39ab6107e8899845ad3d59bd9653f200f220920489ca2b5937696c318360405161325e91906138ac565b60405180910390a3505050565b6000808473ffffffffffffffffffffffffffffffffffffffff1663a9059cbb60e01b85856040516024016132a0929190614ff5565b604051602081830303815290604052907bffffffffffffffffffffffffffffffffffffffffffffffffffffffff19166020820180517bffffffffffffffffffffffffffffffffffffffffffffffffffffffff838183161783525050505060405161330a9190614bcc565b6000604051808303816000865af19150503d8060008114613347576040519150601f19603f3d011682016040523d82523d6000602084013e61334c565b606091505b509150915081801561337a57506000815114806133795750808060200190518101906133789190614bf8565b5b5b6133b9576040517f08c379a00000000000000000000000000000000000000000000000000000000081526004016133b09061506a565b60405180910390fd5b5050505050565b6133cb8484846128c1565b6133d78484848461364e565b613416576040517f08c379a000000000000000000000000000000000000000000000000000000000815260040161340d906150fc565b60405180910390fd5b50505050565b60008073ffffffffffffffffffffffffffffffffffffffff1661343e83612ddf565b73ffffffffffffffffffffffffffffffffffffffff1614159050919050565b6060600082036134a4576040518060400160405280600181526020017f300000000000000000000000000000000000000000000000000000000000000081525090506135b8565b600082905060005b600082146134d65780806134bf9061454c565b915050600a826134cf919061477d565b91506134ac565b60008167ffffffffffffffff8111156134f2576134f1613b4f565b5b6040519080825280601f01601f1916602001820160405280156135245781602001600182028036833780820191505090505b5090505b600085146135b15760018261353d9190614600565b9150600a8561354c919061511c565b60306135589190614457565b60f81b81838151811061356e5761356d61451d565b5b60200101907effffffffffffffffffffffffffffffffffffffffffffffffffffffffffffff1916908160001a905350600a856135aa919061477d565b9450613528565b8093505050505b919050565b50505050565b50505050565b60008060009050600083905060005b815181101561364357600060308383815181106135f8576135f761451d565b5b602001015160f81c60f81b60f81c60ff166136139190614600565b905080600a85613623919061470c565b61362d9190614457565b935050808061363b9061454c565b9150506135d8565b508192505050919050565b600061366f8473ffffffffffffffffffffffffffffffffffffffff166137d5565b156137c8578373ffffffffffffffffffffffffffffffffffffffff1663150b7a026136986125f3565b8786866040518563ffffffff1660e01b81526004016136ba9493929190615197565b6020604051808303816000875af19250505080156136f657506040513d601f19601f820116820180604052508101906136f391906151f8565b60015b613778573d8060008114613726576040519150601f19603f3d011682016040523d82523d6000602084013e61372b565b606091505b506000815103613770576040517f08c379a0000000000000000000000000000000000000000000000000000000008152600401613767906150fc565b60405180910390fd5b805181602001fd5b63150b7a0260e01b7bffffffffffffffffffffffffffffffffffffffffffffffffffffffff1916817bffffffffffffffffffffffffffffffffffffffffffffffffffffffff1916149150506137cd565b600190505b949350505050565b6000808273ffffffffffffffffffffffffffffffffffffffff163b119050919050565b6000604051905090565b600080fd5b600080fd5b60007fffffffff0000000000000000000000000000000000000000000000000000000082169050919050565b6138418161380c565b811461384c57600080fd5b50565b60008135905061385e81613838565b92915050565b60006020828403121561387a57613879613802565b5b60006138888482850161384f565b91505092915050565b60008115159050919050565b6138a681613891565b82525050565b60006020820190506138c1600083018461389d565b92915050565b600081519050919050565b600082825260208201905092915050565b60005b838110156139015780820151818401526020810190506138e6565b60008484015250505050565b6000601f19601f8301169050919050565b6000613929826138c7565b61393381856138d2565b93506139438185602086016138e3565b61394c8161390d565b840191505092915050565b60006020820190508181036000830152613971818461391e565b905092915050565b6000819050919050565b61398c81613979565b811461399757600080fd5b50565b6000813590506139a981613983565b92915050565b6000602082840312156139c5576139c4613802565b5b60006139d38482850161399a565b91505092915050565b600073ffffffffffffffffffffffffffffffffffffffff82169050919050565b6000613a07826139dc565b9050919050565b613a17816139fc565b82525050565b6000602082019050613a326000830184613a0e565b92915050565b613a41816139fc565b8114613a4c57600080fd5b50565b600081359050613a5e81613a38565b92915050565b60008060408385031215613a7b57613a7a613802565b5b6000613a8985828601613a4f565b9250506020613a9a8582860161399a565b9150509250929050565b600080600060608486031215613abd57613abc613802565b5b6000613acb86828701613a4f565b9350506020613adc8682870161399a565b9250506040613aed8682870161399a565b9150509250925092565b600080600060608486031215613b1057613b0f613802565b5b6000613b1e86828701613a4f565b9350506020613b2f86828701613a4f565b9250506040613b408682870161399a565b9150509250925092565b600080fd5b7f4e487b7100000000000000000000000000000000000000000000000000000000600052604160045260246000fd5b613b878261390d565b810181811067ffffffffffffffff82111715613ba657613ba5613b4f565b5b80604052505050565b6000613bb96137f8565b9050613bc58282613b7e565b919050565b600067ffffffffffffffff821115613be557613be4613b4f565b5b602082029050919050565b600080fd5b6000613c08613c0384613bca565b613baf565b90508060208402830185811115613c2257613c21613bf0565b5b835b81811015613c4b5780613c37888261399a565b845260208401935050602081019050613c24565b5050509392505050565b600082601f830112613c6a57613c69613b4a565b5b6005613c77848285613bf5565b91505092915050565b60008060c08385031215613c9757613c96613802565b5b6000613ca58582860161399a565b9250506020613cb685828601613c55565b9150509250929050565b600060ff82169050919050565b613cd681613cc0565b8114613ce157600080fd5b50565b600081359050613cf381613ccd565b92915050565b60008060408385031215613d1057613d0f613802565b5b6000613d1e85828601613a4f565b9250506020613d2f85828601613ce4565b9150509250929050565b60008060408385031215613d5057613d4f613802565b5b6000613d5e85828601613ce4565b9250506020613d6f85828601613ce4565b9150509250929050565b60008060008060808587031215613d9357613d92613802565b5b6000613da18782880161399a565b9450506020613db28782880161399a565b9350506040613dc38782880161399a565b9250506060613dd48782880161399a565b91505092959194509250565b613de981613cc0565b82525050565b7f4e487b7100000000000000000000000000000000000000000000000000000000600052602160045260246000fd5b60028110613e2f57613e2e613def565b5b50565b6000819050613e4082613e1e565b919050565b6000613e5082613e32565b9050919050565b613e6081613e45565b82525050565b6000608082019050613e7b6000830187613de0565b613e886020830186613de0565b613e956040830185613de0565b613ea26060830184613e57565b95945050505050565b600060208284031215613ec157613ec0613802565b5b6000613ecf84828501613a4f565b91505092915050565b613ee181613979565b82525050565b6000602082019050613efc6000830184613ed8565b92915050565b600080600060608486031215613f1b57613f1a613802565b5b6000613f298682870161399a565b9350506020613f3a8682870161399a565b9250506040613f4b8682870161399a565b9150509250925092565b600080600060608486031215613f6e57613f6d613802565b5b6000613f7c8682870161399a565b9350506020613f8d86828701613a4f565b9250506040613f9e8682870161399a565b9150509250925092565b60008060408385031215613fbf57613fbe613802565b5b6000613fcd8582860161399a565b9250506020613fde8582860161399a565b9150509250929050565b613ff181613891565b8114613ffc57600080fd5b50565b60008135905061400e81613fe8565b92915050565b6000806040838503121561402b5761402a613802565b5b600061403985828601613a4f565b925050602061404a85828601613fff565b9150509250929050565b600080fd5b600067ffffffffffffffff82111561407457614073613b4f565b5b61407d8261390d565b9050602081019050919050565b82818337600083830152505050565b60006140ac6140a784614059565b613baf565b9050828152602081018484840111156140c8576140c7614054565b5b6140d384828561408a565b509392505050565b600082601f8301126140f0576140ef613b4a565b5b8135614100848260208601614099565b91505092915050565b6000806000806080858703121561412357614122613802565b5b600061413187828801613a4f565b945050602061414287828801613a4f565b93505060406141538782880161399a565b925050606085013567ffffffffffffffff81111561417457614173613807565b5b614180878288016140db565b91505092959194509250565b600080604083850312156141a3576141a2613802565b5b60006141b185828601613a4f565b92505060206141c285828601613a4f565b9150509250929050565b7f4e487b7100000000000000000000000000000000000000000000000000000000600052602260045260246000fd5b6000600282049050600182168061421357607f821691505b602082108103614226576142256141cc565b5b50919050565b7f4552433732313a20617070726f76616c20746f2063757272656e74206f776e6560008201527f7200000000000000000000000000000000000000000000000000000000000000602082015250565b60006142886021836138d2565b91506142938261422c565b604082019050919050565b600060208201905081810360008301526142b78161427b565b9050919050565b7f4552433732313a20617070726f76652063616c6c6572206973206e6f7420746f60008201527f6b656e206f776e6572206f7220617070726f76656420666f7220616c6c000000602082015250565b600061431a603d836138d2565b9150614325826142be565b604082019050919050565b600060208201905081810360008301526143498161430d565b9050919050565b7f41646472657373206973206e6f7420636f6d6d6f646974790000000000000000600082015250565b60006143866018836138d2565b915061439182614350565b602082019050919050565b600060208201905081810360008301526143b581614379565b9050919050565b7f4e6f74206f776e65720000000000000000000000000000000000000000000000600082015250565b60006143f26009836138d2565b91506143fd826143bc565b602082019050919050565b60006020820190508181036000830152614421816143e5565b9050919050565b7f4e487b7100000000000000000000000000000000000000000000000000000000600052601160045260246000fd5b600061446282613979565b915061446d83613979565b925082820190508082111561448557614484614428565b5b92915050565b7f4552433732313a2063616c6c6572206973206e6f7420746f6b656e206f776e6560008201527f72206f7220617070726f76656400000000000000000000000000000000000000602082015250565b60006144e7602d836138d2565b91506144f28261448b565b604082019050919050565b60006020820190508181036000830152614516816144da565b9050919050565b7f4e487b7100000000000000000000000000000000000000000000000000000000600052603260045260246000fd5b600061455782613979565b91507fffffffffffffffffffffffffffffffffffffffffffffffffffffffffffffffff820361458957614588614428565b5b600182019050919050565b7f41646472657373206e6f7420617574686f72697a656400000000000000000000600082015250565b60006145ca6016836138d2565b91506145d582614594565b602082019050919050565b600060208201905081810360008301526145f9816145bd565b9050919050565b600061460b82613979565b915061461683613979565b925082820390508181111561462e5761462d614428565b5b92915050565b7f426967676572207468616e206d6178696d756d20646966666963756c74790000600082015250565b600061466a601e836138d2565b915061467582614634565b602082019050919050565b600060208201905081810360008301526146998161465d565b9050919050565b7f496e73756666696369656e742062616c616e6365000000000000000000000000600082015250565b60006146d66014836138d2565b91506146e1826146a0565b602082019050919050565b60006020820190508181036000830152614705816146c9565b9050919050565b600061471782613979565b915061472283613979565b925082820261473081613979565b9150828204841483151761474757614746614428565b5b5092915050565b7f4e487b7100000000000000000000000000000000000000000000000000000000600052601260045260246000fd5b600061478882613979565b915061479383613979565b9250826147a3576147a261474e565b5b828204905092915050565b7f4552433732313a20696e76616c696420746f6b656e2049440000000000000000600082015250565b60006147e46018836138d2565b91506147ef826147ae565b602082019050919050565b60006020820190508181036000830152614813816147d7565b9050919050565b7f4552433732313a2061646472657373207a65726f206973206e6f74206120766160008201527f6c6964206f776e65720000000000000000000000000000000000000000000000602082015250565b60006148766029836138d2565b91506148818261481a565b604082019050919050565b600060208201905081810360008301526148a581614869565b9050919050565b60006148b782613cc0565b91506148c283613cc0565b9250828203905060ff8111156148db576148da614428565b5b92915050565b60006148ec82613cc0565b91506148f783613cc0565b925082820261490581613cc0565b915080821461491757614916614428565b5b5092915050565b7f596f752068617665206e6f7420656e6f7567682063617061636974792e20506c60008201527f65617365207570677261646520796f7572206c616e642e000000000000000000602082015250565b600061497a6037836138d2565b91506149858261491e565b604082019050919050565b600060208201905081810360008301526149a98161496d565b9050919050565b7f4552433732314d657461646174613a2055524920717565727920666f72206e6f60008201527f6e6578697374656e7420746f6b656e0000000000000000000000000000000000602082015250565b6000614a0c602f836138d2565b9150614a17826149b0565b604082019050919050565b60006020820190508181036000830152614a3b816149ff565b9050919050565b600081905092915050565b6000614a58826138c7565b614a628185614a42565b9350614a728185602086016138e3565b80840191505092915050565b6000614a8a8287614a4d565b9150614a968286614a4d565b9150614aa28285614a4d565b9150614aae8284614a4d565b915081905095945050505050565b7f4f776e61626c653a206e6577206f776e657220697320746865207a65726f206160008201527f6464726573730000000000000000000000000000000000000000000000000000602082015250565b6000614b186026836138d2565b9150614b2382614abc565b604082019050919050565b60006020820190508181036000830152614b4781614b0b565b9050919050565b6000606082019050614b636000830186613a0e565b614b706020830185613a0e565b614b7d6040830184613ed8565b949350505050565b600081519050919050565b600081905092915050565b6000614ba682614b85565b614bb08185614b90565b9350614bc08185602086016138e3565b80840191505092915050565b6000614bd88284614b9b565b915081905092915050565b600081519050614bf281613fe8565b92915050565b600060208284031215614c0e57614c0d613802565b5b6000614c1c84828501614be3565b91505092915050565b7f5354460000000000000000000000000000000000000000000000000000000000600082015250565b6000614c5b6003836138d2565b9150614c6682614c25565b602082019050919050565b60006020820190508181036000830152614c8a81614c4e565b9050919050565b7f4552433732313a207472616e736665722066726f6d20696e636f72726563742060008201527f6f776e6572000000000000000000000000000000000000000000000000000000602082015250565b6000614ced6025836138d2565b9150614cf882614c91565b604082019050919050565b60006020820190508181036000830152614d1c81614ce0565b9050919050565b7f4552433732313a207472616e7366657220746f20746865207a65726f2061646460008201527f7265737300000000000000000000000000000000000000000000000000000000602082015250565b6000614d7f6024836138d2565b9150614d8a82614d23565b604082019050919050565b60006020820190508181036000830152614dae81614d72565b9050919050565b7f496e76616c696420696e64657800000000000000000000000000000000000000600082015250565b6000614deb600d836138d2565b9150614df682614db5565b602082019050919050565b60006020820190508181036000830152614e1a81614dde565b9050919050565b7f4f776e61626c653a2063616c6c6572206973206e6f7420746865206f776e6572600082015250565b6000614e576020836138d2565b9150614e6282614e21565b602082019050919050565b60006020820190508181036000830152614e8681614e4a565b9050919050565b6000614e998285614a4d565b9150614ea58284614a4d565b91508190509392505050565b7f4552433732313a206d696e7420746f20746865207a65726f2061646472657373600082015250565b6000614ee76020836138d2565b9150614ef282614eb1565b602082019050919050565b60006020820190508181036000830152614f1681614eda565b9050919050565b7f4552433732313a20746f6b656e20616c7265616479206d696e74656400000000600082015250565b6000614f53601c836138d2565b9150614f5e82614f1d565b602082019050919050565b60006020820190508181036000830152614f8281614f46565b9050919050565b7f4552433732313a20617070726f766520746f2063616c6c657200000000000000600082015250565b6000614fbf6019836138d2565b9150614fca82614f89565b602082019050919050565b60006020820190508181036000830152614fee81614fb2565b9050919050565b600060408201905061500a6000830185613a0e565b6150176020830184613ed8565b9392505050565b7f5354000000000000000000000000000000000000000000000000000000000000600082015250565b60006150546002836138d2565b915061505f8261501e565b602082019050919050565b6000602082019050818103600083015261508381615047565b9050919050565b7f4552433732313a207472616e7366657220746f206e6f6e20455243373231526560008201527f63656976657220696d706c656d656e7465720000000000000000000000000000602082015250565b60006150e66032836138d2565b91506150f18261508a565b604082019050919050565b60006020820190508181036000830152615115816150d9565b9050919050565b600061512782613979565b915061513283613979565b9250826151425761514161474e565b5b828206905092915050565b600082825260208201905092915050565b600061516982614b85565b615173818561514d565b93506151838185602086016138e3565b61518c8161390d565b840191505092915050565b60006080820190506151ac6000830187613a0e565b6151b96020830186613a0e565b6151c66040830185613ed8565b81810360608301526151d8818461515e565b905095945050505050565b6000815190506151f281613838565b92915050565b60006020828403121561520e5761520d613802565b5b600061521c848285016151e3565b9150509291505056fe68747470733a2f2f697066732e696f2f697066732f516d617a314e694672666958533942636b484e79537a646d6b707135475469725532526f547434536a693868646da2646970667358221220d6461df9e34378d5f5fb5d74bd0ea49f2b09e4e3d79df4b3ab4f730a9ca04afe64736f6c63430008130033",
  "linkReferences": {},
  "deployedLinkReferences": {}
}