{
  "_format": "hh-sol-artifact-1",
  "contractName": "Lands",
  "sourceName": "contracts/V2/Lands.sol",
  "abi": [
    {
      "inputs": [],
      "stateMutability": "nonpayable",
      "type": "constructor"
    },
    {
      "inputs": [],
      "name": "Lands__InsufficientPrice",
      "type": "error"
    },
    {
      "inputs": [],
      "name": "Lands__InvalidCoordinate",
      "type": "error"
    },
    {
      "anonymous": false,
      "inputs": [
        {
          "indexed": true,
          "internalType": "address",
          "name": "owner",
          "type": "address"
        },
        {
          "indexed": true,
          "internalType": "address",
          "name": "approved",
          "type": "address"
        },
        {
          "indexed": true,
          "internalType": "uint256",
          "name": "tokenId",
          "type": "uint256"
        }
      ],
      "name": "Approval",
      "type": "event"
    },
    {
      "anonymous": false,
      "inputs": [
        {
          "indexed": true,
          "internalType": "address",
          "name": "owner",
          "type": "address"
        },
        {
          "indexed": true,
          "internalType": "address",
          "name": "operator",
          "type": "address"
        },
        {
          "indexed": false,
          "internalType": "bool",
          "name": "approved",
          "type": "bool"
        }
      ],
      "name": "ApprovalForAll",
      "type": "event"
    },
    {
      "anonymous": false,
      "inputs": [
        {
          "indexed": true,
          "internalType": "address",
          "name": "previousOwner",
          "type": "address"
        },
        {
          "indexed": true,
          "internalType": "address",
          "name": "newOwner",
          "type": "address"
        }
      ],
      "name": "OwnershipTransferred",
      "type": "event"
    },
    {
      "anonymous": false,
      "inputs": [
        {
          "indexed": true,
          "internalType": "address",
          "name": "from",
          "type": "address"
        },
        {
          "indexed": true,
          "internalType": "address",
          "name": "to",
          "type": "address"
        },
        {
          "indexed": true,
          "internalType": "uint256",
          "name": "tokenId",
          "type": "uint256"
        }
      ],
      "name": "Transfer",
      "type": "event"
    },
    {
      "inputs": [],
      "name": "URI",
      "outputs": [
        {
          "internalType": "string",
          "name": "",
          "type": "string"
        }
      ],
      "stateMutability": "view",
      "type": "function"
    },
    {
      "inputs": [
        {
          "internalType": "address",
          "name": "to",
          "type": "address"
        },
        {
          "internalType": "uint256",
          "name": "tokenId",
          "type": "uint256"
        }
      ],
      "name": "approve",
      "outputs": [],
      "stateMutability": "nonpayable",
      "type": "function"
    },
    {
      "inputs": [
        {
          "internalType": "address",
          "name": "owner",
          "type": "address"
        }
      ],
      "name": "balanceOf",
      "outputs": [
        {
          "internalType": "uint256",
          "name": "",
          "type": "uint256"
        }
      ],
      "stateMutability": "view",
      "type": "function"
    },
    {
      "inputs": [
        {
          "internalType": "uint256",
          "name": "tokenId",
          "type": "uint256"
        }
      ],
      "name": "getApproved",
      "outputs": [
        {
          "internalType": "address",
          "name": "",
          "type": "address"
        }
      ],
      "stateMutability": "view",
      "type": "function"
    },
    {
      "inputs": [],
      "name": "getPrice",
      "outputs": [
        {
          "internalType": "uint256",
          "name": "",
          "type": "uint256"
        }
      ],
      "stateMutability": "pure",
      "type": "function"
    },
    {
      "inputs": [
        {
          "internalType": "address",
          "name": "owner",
          "type": "address"
        },
        {
          "internalType": "address",
          "name": "operator",
          "type": "address"
        }
      ],
      "name": "isApprovedForAll",
      "outputs": [
        {
          "internalType": "bool",
          "name": "",
          "type": "bool"
        }
      ],
      "stateMutability": "view",
      "type": "function"
    },
    {
      "inputs": [
        {
          "internalType": "uint8",
          "name": "x",
          "type": "uint8"
        },
        {
          "internalType": "uint8",
          "name": "y",
          "type": "uint8"
        }
      ],
      "name": "mintLand",
      "outputs": [],
      "stateMutability": "payable",
      "type": "function"
    },
    {
      "inputs": [],
      "name": "name",
      "outputs": [
        {
          "internalType": "string",
          "name": "",
          "type": "string"
        }
      ],
      "stateMutability": "view",
      "type": "function"
    },
    {
      "inputs": [],
      "name": "owner",
      "outputs": [
        {
          "internalType": "address",
          "name": "",
          "type": "address"
        }
      ],
      "stateMutability": "view",
      "type": "function"
    },
    {
      "inputs": [
        {
          "internalType": "uint256",
          "name": "tokenId",
          "type": "uint256"
        }
      ],
      "name": "ownerOf",
      "outputs": [
        {
          "internalType": "address",
          "name": "",
          "type": "address"
        }
      ],
      "stateMutability": "view",
      "type": "function"
    },
    {
      "inputs": [],
      "name": "renounceOwnership",
      "outputs": [],
      "stateMutability": "nonpayable",
      "type": "function"
    },
    {
      "inputs": [
        {
          "internalType": "address",
          "name": "from",
          "type": "address"
        },
        {
          "internalType": "address",
          "name": "to",
          "type": "address"
        },
        {
          "internalType": "uint256",
          "name": "tokenId",
          "type": "uint256"
        }
      ],
      "name": "safeTransferFrom",
      "outputs": [],
      "stateMutability": "nonpayable",
      "type": "function"
    },
    {
      "inputs": [
        {
          "internalType": "address",
          "name": "from",
          "type": "address"
        },
        {
          "internalType": "address",
          "name": "to",
          "type": "address"
        },
        {
          "internalType": "uint256",
          "name": "tokenId",
          "type": "uint256"
        },
        {
          "internalType": "bytes",
          "name": "data",
          "type": "bytes"
        }
      ],
      "name": "safeTransferFrom",
      "outputs": [],
      "stateMutability": "nonpayable",
      "type": "function"
    },
    {
      "inputs": [
        {
          "internalType": "address",
          "name": "operator",
          "type": "address"
        },
        {
          "internalType": "bool",
          "name": "approved",
          "type": "bool"
        }
      ],
      "name": "setApprovalForAll",
      "outputs": [],
      "stateMutability": "nonpayable",
      "type": "function"
    },
    {
      "inputs": [
        {
          "internalType": "bytes4",
          "name": "interfaceId",
          "type": "bytes4"
        }
      ],
      "name": "supportsInterface",
      "outputs": [
        {
          "internalType": "bool",
          "name": "",
          "type": "bool"
        }
      ],
      "stateMutability": "view",
      "type": "function"
    },
    {
      "inputs": [],
      "name": "symbol",
      "outputs": [
        {
          "internalType": "string",
          "name": "",
          "type": "string"
        }
      ],
      "stateMutability": "view",
      "type": "function"
    },
    {
      "inputs": [
        {
          "internalType": "uint256",
          "name": "_tokenId",
          "type": "uint256"
        }
      ],
      "name": "tokenURI",
      "outputs": [
        {
          "internalType": "string",
          "name": "",
          "type": "string"
        }
      ],
      "stateMutability": "view",
      "type": "function"
    },
    {
      "inputs": [
        {
          "internalType": "address",
          "name": "from",
          "type": "address"
        },
        {
          "internalType": "address",
          "name": "to",
          "type": "address"
        },
        {
          "internalType": "uint256",
          "name": "tokenId",
          "type": "uint256"
        }
      ],
      "name": "transferFrom",
      "outputs": [],
      "stateMutability": "nonpayable",
      "type": "function"
    },
    {
      "inputs": [
        {
          "internalType": "address",
          "name": "newOwner",
          "type": "address"
        }
      ],
      "name": "transferOwnership",
      "outputs": [],
      "stateMutability": "nonpayable",
      "type": "function"
    }
  ],
  "bytecode": "0x60806040523480156200001157600080fd5b506040518060400160405280601181526020017f506f6c79676f6e2077617273206c616e640000000000000000000000000000008152506040518060400160405280600381526020017f50574c000000000000000000000000000000000000000000000000000000000081525081600090816200008f919062000412565b508060019081620000a1919062000412565b505050620000c4620000b8620000ca60201b60201c565b620000d260201b60201c565b620004f9565b600033905090565b6000600660009054906101000a900473ffffffffffffffffffffffffffffffffffffffff16905081600660006101000a81548173ffffffffffffffffffffffffffffffffffffffff021916908373ffffffffffffffffffffffffffffffffffffffff1602179055508173ffffffffffffffffffffffffffffffffffffffff168173ffffffffffffffffffffffffffffffffffffffff167f8be0079c531659141344cd1fd0a4f28419497f9722a3daafe3b4186f6b6457e060405160405180910390a35050565b600081519050919050565b7f4e487b7100000000000000000000000000000000000000000000000000000000600052604160045260246000fd5b7f4e487b7100000000000000000000000000000000000000000000000000000000600052602260045260246000fd5b600060028204905060018216806200021a57607f821691505b60208210810362000230576200022f620001d2565b5b50919050565b60008190508160005260206000209050919050565b60006020601f8301049050919050565b600082821b905092915050565b6000600883026200029a7fffffffffffffffffffffffffffffffffffffffffffffffffffffffffffffffff826200025b565b620002a686836200025b565b95508019841693508086168417925050509392505050565b6000819050919050565b6000819050919050565b6000620002f3620002ed620002e784620002be565b620002c8565b620002be565b9050919050565b6000819050919050565b6200030f83620002d2565b620003276200031e82620002fa565b84845462000268565b825550505050565b600090565b6200033e6200032f565b6200034b81848462000304565b505050565b5b8181101562000373576200036760008262000334565b60018101905062000351565b5050565b601f821115620003c2576200038c8162000236565b62000397846200024b565b81016020851015620003a7578190505b620003bf620003b6856200024b565b83018262000350565b50505b505050565b600082821c905092915050565b6000620003e760001984600802620003c7565b1980831691505092915050565b6000620004028383620003d4565b9150826002028217905092915050565b6200041d8262000198565b67ffffffffffffffff811115620004395762000438620001a3565b5b62000445825462000201565b6200045282828562000377565b600060209050601f8311600181146200048a576000841562000475578287015190505b620004818582620003f4565b865550620004f1565b601f1984166200049a8662000236565b60005b82811015620004c4578489015182556001820191506020850194506020810190506200049d565b86831015620004e45784890151620004e0601f891682620003d4565b8355505b6001600288020188555050505b505050505050565b612d4780620005096000396000f3fe6080604052600436106101145760003560e01c806370a08231116100a0578063a22cb46511610064578063a22cb46514610392578063b88d4fde146103bb578063c87b56dd146103e4578063e985e9c514610421578063f2fde38b1461045e57610114565b806370a08231146102bd578063715018a6146102fa5780638da5cb5b1461031157806395d89b411461033c57806398d5fdca1461036757610114565b80631141d7de116100e75780631141d7de146101e757806323b872dd1461021257806342842e0e1461023b578063475953bd146102645780636352211e1461028057610114565b806301ffc9a71461011957806306fdde0314610156578063081812fc14610181578063095ea7b3146101be575b600080fd5b34801561012557600080fd5b50610140600480360381019061013b9190611c2e565b610487565b60405161014d9190611c76565b60405180910390f35b34801561016257600080fd5b5061016b610569565b6040516101789190611d21565b60405180910390f35b34801561018d57600080fd5b506101a860048036038101906101a39190611d79565b6105fb565b6040516101b59190611de7565b60405180910390f35b3480156101ca57600080fd5b506101e560048036038101906101e09190611e2e565b610641565b005b3480156101f357600080fd5b506101fc610758565b6040516102099190611d21565b60405180910390f35b34801561021e57600080fd5b5061023960048036038101906102349190611e6e565b610767565b005b34801561024757600080fd5b50610262600480360381019061025d9190611e6e565b6107c7565b005b61027e60048036038101906102799190611efa565b6107e7565b005b34801561028c57600080fd5b506102a760048036038101906102a29190611d79565b6108b3565b6040516102b49190611de7565b60405180910390f35b3480156102c957600080fd5b506102e460048036038101906102df9190611f3a565b610939565b6040516102f19190611f76565b60405180910390f35b34801561030657600080fd5b5061030f6109f0565b005b34801561031d57600080fd5b50610326610a04565b6040516103339190611de7565b60405180910390f35b34801561034857600080fd5b50610351610a2e565b60405161035e9190611d21565b60405180910390f35b34801561037357600080fd5b5061037c610ac0565b6040516103899190611f76565b60405180910390f35b34801561039e57600080fd5b506103b960048036038101906103b49190611fbd565b610acf565b005b3480156103c757600080fd5b506103e260048036038101906103dd9190612132565b610ae5565b005b3480156103f057600080fd5b5061040b60048036038101906104069190611d79565b610b47565b6040516104189190611d21565b60405180910390f35b34801561042d57600080fd5b50610448600480360381019061044391906121b5565b610be4565b6040516104559190611c76565b60405180910390f35b34801561046a57600080fd5b5061048560048036038101906104809190611f3a565b610c78565b005b60007f80ac58cd000000000000000000000000000000000000000000000000000000007bffffffffffffffffffffffffffffffffffffffffffffffffffffffff1916827bffffffffffffffffffffffffffffffffffffffffffffffffffffffff1916148061055257507f5b5e139f000000000000000000000000000000000000000000000000000000007bffffffffffffffffffffffffffffffffffffffffffffffffffffffff1916827bffffffffffffffffffffffffffffffffffffffffffffffffffffffff1916145b80610562575061056182610cfb565b5b9050919050565b60606000805461057890612224565b80601f01602080910402602001604051908101604052809291908181526020018280546105a490612224565b80156105f15780601f106105c6576101008083540402835291602001916105f1565b820191906000526020600020905b8154815290600101906020018083116105d457829003601f168201915b5050505050905090565b600061060682610d65565b6004600083815260200190815260200160002060009054906101000a900473ffffffffffffffffffffffffffffffffffffffff169050919050565b600061064c826108b3565b90508073ffffffffffffffffffffffffffffffffffffffff168373ffffffffffffffffffffffffffffffffffffffff16036106bc576040517f08c379a00000000000000000000000000000000000000000000000000000000081526004016106b3906122c7565b60405180910390fd5b8073ffffffffffffffffffffffffffffffffffffffff166106db610db0565b73ffffffffffffffffffffffffffffffffffffffff16148061070a575061070981610704610db0565b610be4565b5b610749576040517f08c379a000000000000000000000000000000000000000000000000000000000815260040161074090612359565b60405180910390fd5b6107538383610db8565b505050565b6060610762610e71565b905090565b610778610772610db0565b82610e91565b6107b7576040517f08c379a00000000000000000000000000000000000000000000000000000000081526004016107ae906123eb565b60405180910390fd5b6107c2838383610f26565b505050565b6107e283838360405180602001604052806000815250610ae5565b505050565b818160648260ff1610806107ff57506103e78260ff16115b8061080d575060648160ff16105b8061081c57506103e78160ff16115b15610853576040517f636beb5100000000000000000000000000000000000000000000000000000000815260040160405180910390fd5b66470de4df820000341015610894576040517f1352bb8a00000000000000000000000000000000000000000000000000000000815260040160405180910390fd5b60006108a0858561121f565b90506108ac3382611280565b5050505050565b6000806108bf8361149d565b9050600073ffffffffffffffffffffffffffffffffffffffff168173ffffffffffffffffffffffffffffffffffffffff1603610930576040517f08c379a000000000000000000000000000000000000000000000000000000000815260040161092790612457565b60405180910390fd5b80915050919050565b60008073ffffffffffffffffffffffffffffffffffffffff168273ffffffffffffffffffffffffffffffffffffffff16036109a9576040517f08c379a00000000000000000000000000000000000000000000000000000000081526004016109a0906124e9565b60405180910390fd5b600360008373ffffffffffffffffffffffffffffffffffffffff1673ffffffffffffffffffffffffffffffffffffffff168152602001908152602001600020549050919050565b6109f86114da565b610a026000611558565b565b6000600660009054906101000a900473ffffffffffffffffffffffffffffffffffffffff16905090565b606060018054610a3d90612224565b80601f0160208091040260200160405190810160405280929190818152602001828054610a6990612224565b8015610ab65780601f10610a8b57610100808354040283529160200191610ab6565b820191906000526020600020905b815481529060010190602001808311610a9957829003601f168201915b5050505050905090565b600066470de4df820000905090565b610ae1610ada610db0565b838361161e565b5050565b610af6610af0610db0565b83610e91565b610b35576040517f08c379a0000000000000000000000000000000000000000000000000000000008152600401610b2c906123eb565b60405180910390fd5b610b418484848461178a565b50505050565b6060610b52826117e6565b610b91576040517f08c379a0000000000000000000000000000000000000000000000000000000008152600401610b889061257b565b60405180910390fd5b6000610b9b610e71565b90506000815111610bbb5760405180602001604052806000815250610bdc565b80604051602001610bcc91906125d7565b6040516020818303038152906040525b915050919050565b6000600560008473ffffffffffffffffffffffffffffffffffffffff1673ffffffffffffffffffffffffffffffffffffffff16815260200190815260200160002060008373ffffffffffffffffffffffffffffffffffffffff1673ffffffffffffffffffffffffffffffffffffffff16815260200190815260200160002060009054906101000a900460ff16905092915050565b610c806114da565b600073ffffffffffffffffffffffffffffffffffffffff168173ffffffffffffffffffffffffffffffffffffffff1603610cef576040517f08c379a0000000000000000000000000000000000000000000000000000000008152600401610ce690612660565b60405180910390fd5b610cf881611558565b50565b60007f01ffc9a7000000000000000000000000000000000000000000000000000000007bffffffffffffffffffffffffffffffffffffffffffffffffffffffff1916827bffffffffffffffffffffffffffffffffffffffffffffffffffffffff1916149050919050565b610d6e816117e6565b610dad576040517f08c379a0000000000000000000000000000000000000000000000000000000008152600401610da490612457565b60405180910390fd5b50565b600033905090565b816004600083815260200190815260200160002060006101000a81548173ffffffffffffffffffffffffffffffffffffffff021916908373ffffffffffffffffffffffffffffffffffffffff160217905550808273ffffffffffffffffffffffffffffffffffffffff16610e2b836108b3565b73ffffffffffffffffffffffffffffffffffffffff167f8c5be1e5ebec7d5bd14f71427d1e84f3dd0314c0f7b2291e5b200ac8c7c3b92560405160405180910390a45050565b6060604051806080016040528060438152602001612ccf60439139905090565b600080610e9d836108b3565b90508073ffffffffffffffffffffffffffffffffffffffff168473ffffffffffffffffffffffffffffffffffffffff161480610edf5750610ede8185610be4565b5b80610f1d57508373ffffffffffffffffffffffffffffffffffffffff16610f05846105fb565b73ffffffffffffffffffffffffffffffffffffffff16145b91505092915050565b8273ffffffffffffffffffffffffffffffffffffffff16610f46826108b3565b73ffffffffffffffffffffffffffffffffffffffff1614610f9c576040517f08c379a0000000000000000000000000000000000000000000000000000000008152600401610f93906126f2565b60405180910390fd5b600073ffffffffffffffffffffffffffffffffffffffff168273ffffffffffffffffffffffffffffffffffffffff160361100b576040517f08c379a000000000000000000000000000000000000000000000000000000000815260040161100290612784565b60405180910390fd5b6110188383836001611827565b8273ffffffffffffffffffffffffffffffffffffffff16611038826108b3565b73ffffffffffffffffffffffffffffffffffffffff161461108e576040517f08c379a0000000000000000000000000000000000000000000000000000000008152600401611085906126f2565b60405180910390fd5b6004600082815260200190815260200160002060006101000a81549073ffffffffffffffffffffffffffffffffffffffff02191690556001600360008573ffffffffffffffffffffffffffffffffffffffff1673ffffffffffffffffffffffffffffffffffffffff168152602001908152602001600020600082825403925050819055506001600360008473ffffffffffffffffffffffffffffffffffffffff1673ffffffffffffffffffffffffffffffffffffffff16815260200190815260200160002060008282540192505081905550816002600083815260200190815260200160002060006101000a81548173ffffffffffffffffffffffffffffffffffffffff021916908373ffffffffffffffffffffffffffffffffffffffff160217905550808273ffffffffffffffffffffffffffffffffffffffff168473ffffffffffffffffffffffffffffffffffffffff167fddf252ad1be2c89b69c2b068fc378daa952ba7f163c4a11628f55a4df523b3ef60405160405180910390a461121a838383600161182d565b505050565b60008061122e8460ff16611833565b9050600061123e8460ff16611833565b9050600082826040516020016112559291906127a4565b6040516020818303038152906040529050600061127182611993565b90508094505050505092915050565b600073ffffffffffffffffffffffffffffffffffffffff168273ffffffffffffffffffffffffffffffffffffffff16036112ef576040517f08c379a00000000000000000000000000000000000000000000000000000000081526004016112e690612814565b60405180910390fd5b6112f8816117e6565b15611338576040517f08c379a000000000000000000000000000000000000000000000000000000000815260040161132f90612880565b60405180910390fd5b611346600083836001611827565b61134f816117e6565b1561138f576040517f08c379a000000000000000000000000000000000000000000000000000000000815260040161138690612880565b60405180910390fd5b6001600360008473ffffffffffffffffffffffffffffffffffffffff1673ffffffffffffffffffffffffffffffffffffffff16815260200190815260200160002060008282540192505081905550816002600083815260200190815260200160002060006101000a81548173ffffffffffffffffffffffffffffffffffffffff021916908373ffffffffffffffffffffffffffffffffffffffff160217905550808273ffffffffffffffffffffffffffffffffffffffff16600073ffffffffffffffffffffffffffffffffffffffff167fddf252ad1be2c89b69c2b068fc378daa952ba7f163c4a11628f55a4df523b3ef60405160405180910390a461149960008383600161182d565b5050565b60006002600083815260200190815260200160002060009054906101000a900473ffffffffffffffffffffffffffffffffffffffff169050919050565b6114e2610db0565b73ffffffffffffffffffffffffffffffffffffffff16611500610a04565b73ffffffffffffffffffffffffffffffffffffffff1614611556576040517f08c379a000000000000000000000000000000000000000000000000000000000815260040161154d906128ec565b60405180910390fd5b565b6000600660009054906101000a900473ffffffffffffffffffffffffffffffffffffffff16905081600660006101000a81548173ffffffffffffffffffffffffffffffffffffffff021916908373ffffffffffffffffffffffffffffffffffffffff1602179055508173ffffffffffffffffffffffffffffffffffffffff168173ffffffffffffffffffffffffffffffffffffffff167f8be0079c531659141344cd1fd0a4f28419497f9722a3daafe3b4186f6b6457e060405160405180910390a35050565b8173ffffffffffffffffffffffffffffffffffffffff168373ffffffffffffffffffffffffffffffffffffffff160361168c576040517f08c379a000000000000000000000000000000000000000000000000000000000815260040161168390612958565b60405180910390fd5b80600560008573ffffffffffffffffffffffffffffffffffffffff1673ffffffffffffffffffffffffffffffffffffffff16815260200190815260200160002060008473ffffffffffffffffffffffffffffffffffffffff1673ffffffffffffffffffffffffffffffffffffffff16815260200190815260200160002060006101000a81548160ff0219169083151502179055508173ffffffffffffffffffffffffffffffffffffffff168373ffffffffffffffffffffffffffffffffffffffff167f17307eab39ab6107e8899845ad3d59bd9653f200f220920489ca2b5937696c318360405161177d9190611c76565b60405180910390a3505050565b611795848484610f26565b6117a184848484611a18565b6117e0576040517f08c379a00000000000000000000000000000000000000000000000000000000081526004016117d7906129ea565b60405180910390fd5b50505050565b60008073ffffffffffffffffffffffffffffffffffffffff166118088361149d565b73ffffffffffffffffffffffffffffffffffffffff1614159050919050565b50505050565b50505050565b60606000820361187a576040518060400160405280600181526020017f3000000000000000000000000000000000000000000000000000000000000000815250905061198e565b600082905060005b600082146118ac57808061189590612a39565b915050600a826118a59190612ab0565b9150611882565b60008167ffffffffffffffff8111156118c8576118c7612007565b5b6040519080825280601f01601f1916602001820160405280156118fa5781602001600182028036833780820191505090505b5090505b60008514611987576001826119139190612ae1565b9150600a856119229190612b15565b603061192e9190612b46565b60f81b81838151811061194457611943612b7a565b5b60200101907effffffffffffffffffffffffffffffffffffffffffffffffffffffffffffff1916908160001a905350600a856119809190612ab0565b94506118fe565b8093505050505b919050565b60008060009050600083905060005b8151811015611a0d57600060308383815181106119c2576119c1612b7a565b5b602001015160f81c60f81b60f81c60ff166119dd9190612ae1565b905080600a856119ed9190612ba9565b6119f79190612b46565b9350508080611a0590612a39565b9150506119a2565b508192505050919050565b6000611a398473ffffffffffffffffffffffffffffffffffffffff16611b9f565b15611b92578373ffffffffffffffffffffffffffffffffffffffff1663150b7a02611a62610db0565b8786866040518563ffffffff1660e01b8152600401611a849493929190612c40565b6020604051808303816000875af1925050508015611ac057506040513d601f19601f82011682018060405250810190611abd9190612ca1565b60015b611b42573d8060008114611af0576040519150601f19603f3d011682016040523d82523d6000602084013e611af5565b606091505b506000815103611b3a576040517f08c379a0000000000000000000000000000000000000000000000000000000008152600401611b31906129ea565b60405180910390fd5b805181602001fd5b63150b7a0260e01b7bffffffffffffffffffffffffffffffffffffffffffffffffffffffff1916817bffffffffffffffffffffffffffffffffffffffffffffffffffffffff191614915050611b97565b600190505b949350505050565b6000808273ffffffffffffffffffffffffffffffffffffffff163b119050919050565b6000604051905090565b600080fd5b600080fd5b60007fffffffff0000000000000000000000000000000000000000000000000000000082169050919050565b611c0b81611bd6565b8114611c1657600080fd5b50565b600081359050611c2881611c02565b92915050565b600060208284031215611c4457611c43611bcc565b5b6000611c5284828501611c19565b91505092915050565b60008115159050919050565b611c7081611c5b565b82525050565b6000602082019050611c8b6000830184611c67565b92915050565b600081519050919050565b600082825260208201905092915050565b60005b83811015611ccb578082015181840152602081019050611cb0565b60008484015250505050565b6000601f19601f8301169050919050565b6000611cf382611c91565b611cfd8185611c9c565b9350611d0d818560208601611cad565b611d1681611cd7565b840191505092915050565b60006020820190508181036000830152611d3b8184611ce8565b905092915050565b6000819050919050565b611d5681611d43565b8114611d6157600080fd5b50565b600081359050611d7381611d4d565b92915050565b600060208284031215611d8f57611d8e611bcc565b5b6000611d9d84828501611d64565b91505092915050565b600073ffffffffffffffffffffffffffffffffffffffff82169050919050565b6000611dd182611da6565b9050919050565b611de181611dc6565b82525050565b6000602082019050611dfc6000830184611dd8565b92915050565b611e0b81611dc6565b8114611e1657600080fd5b50565b600081359050611e2881611e02565b92915050565b60008060408385031215611e4557611e44611bcc565b5b6000611e5385828601611e19565b9250506020611e6485828601611d64565b9150509250929050565b600080600060608486031215611e8757611e86611bcc565b5b6000611e9586828701611e19565b9350506020611ea686828701611e19565b9250506040611eb786828701611d64565b9150509250925092565b600060ff82169050919050565b611ed781611ec1565b8114611ee257600080fd5b50565b600081359050611ef481611ece565b92915050565b60008060408385031215611f1157611f10611bcc565b5b6000611f1f85828601611ee5565b9250506020611f3085828601611ee5565b9150509250929050565b600060208284031215611f5057611f4f611bcc565b5b6000611f5e84828501611e19565b91505092915050565b611f7081611d43565b82525050565b6000602082019050611f8b6000830184611f67565b92915050565b611f9a81611c5b565b8114611fa557600080fd5b50565b600081359050611fb781611f91565b92915050565b60008060408385031215611fd457611fd3611bcc565b5b6000611fe285828601611e19565b9250506020611ff385828601611fa8565b9150509250929050565b600080fd5b600080fd5b7f4e487b7100000000000000000000000000000000000000000000000000000000600052604160045260246000fd5b61203f82611cd7565b810181811067ffffffffffffffff8211171561205e5761205d612007565b5b80604052505050565b6000612071611bc2565b905061207d8282612036565b919050565b600067ffffffffffffffff82111561209d5761209c612007565b5b6120a682611cd7565b9050602081019050919050565b82818337600083830152505050565b60006120d56120d084612082565b612067565b9050828152602081018484840111156120f1576120f0612002565b5b6120fc8482856120b3565b509392505050565b600082601f83011261211957612118611ffd565b5b81356121298482602086016120c2565b91505092915050565b6000806000806080858703121561214c5761214b611bcc565b5b600061215a87828801611e19565b945050602061216b87828801611e19565b935050604061217c87828801611d64565b925050606085013567ffffffffffffffff81111561219d5761219c611bd1565b5b6121a987828801612104565b91505092959194509250565b600080604083850312156121cc576121cb611bcc565b5b60006121da85828601611e19565b92505060206121eb85828601611e19565b9150509250929050565b7f4e487b7100000000000000000000000000000000000000000000000000000000600052602260045260246000fd5b6000600282049050600182168061223c57607f821691505b60208210810361224f5761224e6121f5565b5b50919050565b7f4552433732313a20617070726f76616c20746f2063757272656e74206f776e6560008201527f7200000000000000000000000000000000000000000000000000000000000000602082015250565b60006122b1602183611c9c565b91506122bc82612255565b604082019050919050565b600060208201905081810360008301526122e0816122a4565b9050919050565b7f4552433732313a20617070726f76652063616c6c6572206973206e6f7420746f60008201527f6b656e206f776e6572206f7220617070726f76656420666f7220616c6c000000602082015250565b6000612343603d83611c9c565b915061234e826122e7565b604082019050919050565b6000602082019050818103600083015261237281612336565b9050919050565b7f4552433732313a2063616c6c6572206973206e6f7420746f6b656e206f776e6560008201527f72206f7220617070726f76656400000000000000000000000000000000000000602082015250565b60006123d5602d83611c9c565b91506123e082612379565b604082019050919050565b60006020820190508181036000830152612404816123c8565b9050919050565b7f4552433732313a20696e76616c696420746f6b656e2049440000000000000000600082015250565b6000612441601883611c9c565b915061244c8261240b565b602082019050919050565b6000602082019050818103600083015261247081612434565b9050919050565b7f4552433732313a2061646472657373207a65726f206973206e6f74206120766160008201527f6c6964206f776e65720000000000000000000000000000000000000000000000602082015250565b60006124d3602983611c9c565b91506124de82612477565b604082019050919050565b60006020820190508181036000830152612502816124c6565b9050919050565b7f4552433732314d657461646174613a2055524920717565727920666f72206e6f60008201527f6e6578697374656e7420746f6b656e0000000000000000000000000000000000602082015250565b6000612565602f83611c9c565b915061257082612509565b604082019050919050565b6000602082019050818103600083015261259481612558565b9050919050565b600081905092915050565b60006125b182611c91565b6125bb818561259b565b93506125cb818560208601611cad565b80840191505092915050565b60006125e382846125a6565b915081905092915050565b7f4f776e61626c653a206e6577206f776e657220697320746865207a65726f206160008201527f6464726573730000000000000000000000000000000000000000000000000000602082015250565b600061264a602683611c9c565b9150612655826125ee565b604082019050919050565b600060208201905081810360008301526126798161263d565b9050919050565b7f4552433732313a207472616e736665722066726f6d20696e636f72726563742060008201527f6f776e6572000000000000000000000000000000000000000000000000000000602082015250565b60006126dc602583611c9c565b91506126e782612680565b604082019050919050565b6000602082019050818103600083015261270b816126cf565b9050919050565b7f4552433732313a207472616e7366657220746f20746865207a65726f2061646460008201527f7265737300000000000000000000000000000000000000000000000000000000602082015250565b600061276e602483611c9c565b915061277982612712565b604082019050919050565b6000602082019050818103600083015261279d81612761565b9050919050565b60006127b082856125a6565b91506127bc82846125a6565b91508190509392505050565b7f4552433732313a206d696e7420746f20746865207a65726f2061646472657373600082015250565b60006127fe602083611c9c565b9150612809826127c8565b602082019050919050565b6000602082019050818103600083015261282d816127f1565b9050919050565b7f4552433732313a20746f6b656e20616c7265616479206d696e74656400000000600082015250565b600061286a601c83611c9c565b915061287582612834565b602082019050919050565b600060208201905081810360008301526128998161285d565b9050919050565b7f4f776e61626c653a2063616c6c6572206973206e6f7420746865206f776e6572600082015250565b60006128d6602083611c9c565b91506128e1826128a0565b602082019050919050565b60006020820190508181036000830152612905816128c9565b9050919050565b7f4552433732313a20617070726f766520746f2063616c6c657200000000000000600082015250565b6000612942601983611c9c565b915061294d8261290c565b602082019050919050565b6000602082019050818103600083015261297181612935565b9050919050565b7f4552433732313a207472616e7366657220746f206e6f6e20455243373231526560008201527f63656976657220696d706c656d656e7465720000000000000000000000000000602082015250565b60006129d4603283611c9c565b91506129df82612978565b604082019050919050565b60006020820190508181036000830152612a03816129c7565b9050919050565b7f4e487b7100000000000000000000000000000000000000000000000000000000600052601160045260246000fd5b6000612a4482611d43565b91507fffffffffffffffffffffffffffffffffffffffffffffffffffffffffffffffff8203612a7657612a75612a0a565b5b600182019050919050565b7f4e487b7100000000000000000000000000000000000000000000000000000000600052601260045260246000fd5b6000612abb82611d43565b9150612ac683611d43565b925082612ad657612ad5612a81565b5b828204905092915050565b6000612aec82611d43565b9150612af783611d43565b9250828203905081811115612b0f57612b0e612a0a565b5b92915050565b6000612b2082611d43565b9150612b2b83611d43565b925082612b3b57612b3a612a81565b5b828206905092915050565b6000612b5182611d43565b9150612b5c83611d43565b9250828201905080821115612b7457612b73612a0a565b5b92915050565b7f4e487b7100000000000000000000000000000000000000000000000000000000600052603260045260246000fd5b6000612bb482611d43565b9150612bbf83611d43565b9250828202612bcd81611d43565b91508282048414831517612be457612be3612a0a565b5b5092915050565b600081519050919050565b600082825260208201905092915050565b6000612c1282612beb565b612c1c8185612bf6565b9350612c2c818560208601611cad565b612c3581611cd7565b840191505092915050565b6000608082019050612c556000830187611dd8565b612c626020830186611dd8565b612c6f6040830185611f67565b8181036060830152612c818184612c07565b905095945050505050565b600081519050612c9b81611c02565b92915050565b600060208284031215612cb757612cb6611bcc565b5b6000612cc584828501612c8c565b9150509291505056fe68747470733a2f2f697066732e696f2f697066732f516d617a314e694672666958533942636b484e79537a646d6b707135475469725532526f547434536a693868646da26469706673582212202c4489973df9f090086a77a5471c1d17116e467588670341945ad960e41dae7f64736f6c63430008130033",
  "linkReferences": {},
  "deployedLinkReferences": {}
}