{
  "_format": "hh-sol-artifact-1",
  "contractName": "TownV2",
  "sourceName": "contracts/V2/TownV2.sol",
  "abi": [
    {
      "inputs": [
        {
          "internalType": "address",
          "name": "BlockchainsKingdomToken",
          "type": "address"
        },
        {
          "internalType": "address",
          "name": "landsContract",
          "type": "address"
        }
      ],
      "stateMutability": "nonpayable",
      "type": "constructor"
    },
    {
      "inputs": [],
      "name": "CallerIsNotOwner",
      "type": "error"
    },
    {
      "inputs": [],
      "name": "ClaimBeforeAction",
      "type": "error"
    },
    {
      "inputs": [],
      "name": "InsufficientArmy",
      "type": "error"
    },
    {
      "inputs": [],
      "name": "InsufficientCommodity",
      "type": "error"
    },
    {
      "inputs": [],
      "name": "InvalidItem",
      "type": "error"
    },
    {
      "inputs": [],
      "name": "InvalidLand",
      "type": "error"
    },
    {
      "inputs": [],
      "name": "LevelLessThanMin",
      "type": "error"
    },
    {
      "inputs": [],
      "name": "MaxCapacity",
      "type": "error"
    },
    {
      "inputs": [
        {
          "internalType": "address",
          "name": "owner",
          "type": "address"
        }
      ],
      "name": "OwnableInvalidOwner",
      "type": "error"
    },
    {
      "inputs": [
        {
          "internalType": "address",
          "name": "account",
          "type": "address"
        }
      ],
      "name": "OwnableUnauthorizedAccount",
      "type": "error"
    },
    {
      "inputs": [],
      "name": "TimeLimitation",
      "type": "error"
    },
    {
      "inputs": [],
      "name": "UnAuthorizedToken",
      "type": "error"
    },
    {
      "anonymous": false,
      "inputs": [
        {
          "indexed": true,
          "internalType": "uint256",
          "name": "attackerLandId",
          "type": "uint256"
        },
        {
          "indexed": true,
          "internalType": "uint256",
          "name": "defenderLandId",
          "type": "uint256"
        },
        {
          "indexed": false,
          "internalType": "bool",
          "name": "success",
          "type": "bool"
        },
        {
          "indexed": false,
          "internalType": "uint256[5]",
          "name": "lootAmounts",
          "type": "uint256[5]"
        }
      ],
      "name": "Attack",
      "type": "event"
    },
    {
      "anonymous": false,
      "inputs": [
        {
          "indexed": false,
          "internalType": "uint256",
          "name": "buildingTypeIndex",
          "type": "uint256"
        },
        {
          "indexed": true,
          "internalType": "uint256",
          "name": "buildingId",
          "type": "uint256"
        },
        {
          "indexed": true,
          "internalType": "uint256",
          "name": "landTokenId",
          "type": "uint256"
        }
      ],
      "name": "Build",
      "type": "event"
    },
    {
      "anonymous": false,
      "inputs": [
        {
          "indexed": true,
          "internalType": "address",
          "name": "previousOwner",
          "type": "address"
        },
        {
          "indexed": true,
          "internalType": "address",
          "name": "newOwner",
          "type": "address"
        }
      ],
      "name": "OwnershipTransferred",
      "type": "event"
    },
    {
      "anonymous": false,
      "inputs": [
        {
          "indexed": true,
          "internalType": "uint256",
          "name": "buildingId",
          "type": "uint256"
        },
        {
          "indexed": false,
          "internalType": "uint256",
          "name": "level",
          "type": "uint256"
        }
      ],
      "name": "Upgrade",
      "type": "event"
    },
    {
      "inputs": [
        {
          "internalType": "uint256[]",
          "name": "warriorsAmounts",
          "type": "uint256[]"
        },
        {
          "internalType": "uint256",
          "name": "attackerId",
          "type": "uint256"
        },
        {
          "internalType": "uint256",
          "name": "targetId",
          "type": "uint256"
        }
      ],
      "name": "attack",
      "outputs": [],
      "stateMutability": "nonpayable",
      "type": "function"
    },
    {
      "inputs": [
        {
          "internalType": "uint256",
          "name": "landTokenId",
          "type": "uint256"
        },
        {
          "internalType": "uint8",
          "name": "buildingIndex",
          "type": "uint8"
        }
      ],
      "name": "build",
      "outputs": [],
      "stateMutability": "nonpayable",
      "type": "function"
    },
    {
      "inputs": [
        {
          "internalType": "uint256",
          "name": "landTokenId",
          "type": "uint256"
        }
      ],
      "name": "buildBarracks",
      "outputs": [],
      "stateMutability": "nonpayable",
      "type": "function"
    },
    {
      "inputs": [
        {
          "internalType": "uint256",
          "name": "buildingTokenId",
          "type": "uint256"
        }
      ],
      "name": "claimRevenue",
      "outputs": [],
      "stateMutability": "nonpayable",
      "type": "function"
    },
    {
      "inputs": [
        {
          "internalType": "uint256",
          "name": "landTokenId",
          "type": "uint256"
        },
        {
          "internalType": "uint256",
          "name": "amount",
          "type": "uint256"
        },
        {
          "internalType": "uint256",
          "name": "commodityIndex",
          "type": "uint256"
        }
      ],
      "name": "deposit",
      "outputs": [],
      "stateMutability": "nonpayable",
      "type": "function"
    },
    {
      "inputs": [
        {
          "internalType": "uint256",
          "name": "landId",
          "type": "uint256"
        }
      ],
      "name": "getArmy",
      "outputs": [
        {
          "internalType": "uint256[]",
          "name": "",
          "type": "uint256[]"
        }
      ],
      "stateMutability": "view",
      "type": "function"
    },
    {
      "inputs": [
        {
          "internalType": "uint256",
          "name": "landTokenId",
          "type": "uint256"
        }
      ],
      "name": "getAssetsBal",
      "outputs": [
        {
          "internalType": "uint256[5]",
          "name": "",
          "type": "uint256[5]"
        }
      ],
      "stateMutability": "view",
      "type": "function"
    },
    {
      "inputs": [
        {
          "internalType": "uint256",
          "name": "landId",
          "type": "uint256"
        }
      ],
      "name": "getBarracksRequiredCommodities",
      "outputs": [
        {
          "internalType": "uint256[5]",
          "name": "",
          "type": "uint256[5]"
        }
      ],
      "stateMutability": "view",
      "type": "function"
    },
    {
      "inputs": [],
      "name": "getBuildings",
      "outputs": [
        {
          "components": [
            {
              "internalType": "uint256",
              "name": "requiredStone",
              "type": "uint256"
            },
            {
              "internalType": "uint256",
              "name": "requiredWood",
              "type": "uint256"
            },
            {
              "internalType": "uint256",
              "name": "requiredIron",
              "type": "uint256"
            },
            {
              "internalType": "uint256",
              "name": "requiredGold",
              "type": "uint256"
            },
            {
              "internalType": "uint256",
              "name": "requiredFood",
              "type": "uint256"
            },
            {
              "internalType": "uint256",
              "name": "revTokenIndex",
              "type": "uint256"
            },
            {
              "internalType": "string",
              "name": "buildingName",
              "type": "string"
            }
          ],
          "internalType": "struct TownV2.Info[]",
          "name": "",
          "type": "tuple[]"
        }
      ],
      "stateMutability": "view",
      "type": "function"
    },
    {
      "inputs": [
        {
          "internalType": "uint256",
          "name": "buildingTokenId",
          "type": "uint256"
        }
      ],
      "name": "getCurrentRevenue",
      "outputs": [
        {
          "internalType": "uint256",
          "name": "",
          "type": "uint256"
        }
      ],
      "stateMutability": "view",
      "type": "function"
    },
    {
      "inputs": [
        {
          "internalType": "uint256",
          "name": "landTokenId",
          "type": "uint256"
        }
      ],
      "name": "getLandIdData",
      "outputs": [
        {
          "components": [
            {
              "internalType": "uint256[5]",
              "name": "commoditiesBalance",
              "type": "uint256[5]"
            },
            {
              "internalType": "uint256",
              "name": "latestBuildTimeStamp",
              "type": "uint256"
            },
            {
              "internalType": "uint256[]",
              "name": "buildedBuildings",
              "type": "uint256[]"
            },
            {
              "internalType": "uint256",
              "name": "barracksLevel",
              "type": "uint256"
            }
          ],
          "internalType": "struct TownV2.LandIdData",
          "name": "",
          "type": "tuple"
        }
      ],
      "stateMutability": "view",
      "type": "function"
    },
    {
      "inputs": [
        {
          "internalType": "uint256",
          "name": "landTokenId",
          "type": "uint256"
        }
      ],
      "name": "getRemainedTimestamp",
      "outputs": [
        {
          "internalType": "uint256",
          "name": "",
          "type": "uint256"
        }
      ],
      "stateMutability": "view",
      "type": "function"
    },
    {
      "inputs": [
        {
          "internalType": "uint256",
          "name": "tokenId",
          "type": "uint256"
        }
      ],
      "name": "getStatus",
      "outputs": [
        {
          "components": [
            {
              "internalType": "uint256",
              "name": "level",
              "type": "uint256"
            },
            {
              "internalType": "uint256",
              "name": "latestActionTimestamp",
              "type": "uint256"
            },
            {
              "internalType": "uint256",
              "name": "attachedLand",
              "type": "uint256"
            },
            {
              "internalType": "uint8",
              "name": "buildingTypeIndex",
              "type": "uint8"
            }
          ],
          "internalType": "struct TownV2.Status",
          "name": "",
          "type": "tuple"
        }
      ],
      "stateMutability": "view",
      "type": "function"
    },
    {
      "inputs": [],
      "name": "getWarriorTypes",
      "outputs": [
        {
          "components": [
            {
              "internalType": "uint8",
              "name": "attackPower",
              "type": "uint8"
            },
            {
              "internalType": "uint8",
              "name": "defPower",
              "type": "uint8"
            },
            {
              "internalType": "uint8",
              "name": "hp",
              "type": "uint8"
            },
            {
              "internalType": "uint8",
              "name": "requiredLevel",
              "type": "uint8"
            },
            {
              "internalType": "string",
              "name": "name",
              "type": "string"
            },
            {
              "internalType": "uint256",
              "name": "price",
              "type": "uint256"
            }
          ],
          "internalType": "struct Barracks.WarriorInfo[]",
          "name": "",
          "type": "tuple[]"
        }
      ],
      "stateMutability": "view",
      "type": "function"
    },
    {
      "inputs": [],
      "name": "owner",
      "outputs": [
        {
          "internalType": "address",
          "name": "",
          "type": "address"
        }
      ],
      "stateMutability": "view",
      "type": "function"
    },
    {
      "inputs": [
        {
          "internalType": "uint256",
          "name": "landTokenId",
          "type": "uint256"
        },
        {
          "internalType": "uint256",
          "name": "typeIndex",
          "type": "uint256"
        },
        {
          "internalType": "uint256",
          "name": "amount",
          "type": "uint256"
        }
      ],
      "name": "recruit",
      "outputs": [],
      "stateMutability": "nonpayable",
      "type": "function"
    },
    {
      "inputs": [],
      "name": "renounceOwnership",
      "outputs": [],
      "stateMutability": "nonpayable",
      "type": "function"
    },
    {
      "inputs": [
        {
          "internalType": "uint256",
          "name": "landTokenId",
          "type": "uint256"
        },
        {
          "internalType": "uint256",
          "name": "amount",
          "type": "uint256"
        }
      ],
      "name": "splitDeposit",
      "outputs": [],
      "stateMutability": "nonpayable",
      "type": "function"
    },
    {
      "inputs": [
        {
          "internalType": "uint256",
          "name": "landTokenId",
          "type": "uint256"
        },
        {
          "internalType": "uint256",
          "name": "fromIndex",
          "type": "uint256"
        },
        {
          "internalType": "uint256",
          "name": "toIndex",
          "type": "uint256"
        },
        {
          "internalType": "uint256",
          "name": "amount",
          "type": "uint256"
        }
      ],
      "name": "swapCommodity",
      "outputs": [],
      "stateMutability": "nonpayable",
      "type": "function"
    },
    {
      "inputs": [
        {
          "internalType": "address",
          "name": "newOwner",
          "type": "address"
        }
      ],
      "name": "transferOwnership",
      "outputs": [],
      "stateMutability": "nonpayable",
      "type": "function"
    },
    {
      "inputs": [
        {
          "internalType": "uint8[3]",
          "name": "physicalInfo",
          "type": "uint8[3]"
        },
        {
          "internalType": "uint8",
          "name": "requiredLevel",
          "type": "uint8"
        },
        {
          "internalType": "string",
          "name": "name",
          "type": "string"
        },
        {
          "internalType": "uint256",
          "name": "price",
          "type": "uint256"
        },
        {
          "internalType": "uint256",
          "name": "typeIndex",
          "type": "uint256"
        }
      ],
      "name": "updateWarriorType_",
      "outputs": [],
      "stateMutability": "nonpayable",
      "type": "function"
    },
    {
      "inputs": [
        {
          "internalType": "uint256",
          "name": "buildingTokenId",
          "type": "uint256"
        },
        {
          "internalType": "uint256",
          "name": "landTokenId",
          "type": "uint256"
        }
      ],
      "name": "upgrade",
      "outputs": [],
      "stateMutability": "nonpayable",
      "type": "function"
    },
    {
      "inputs": [
        {
          "internalType": "uint256",
          "name": "amount",
          "type": "uint256"
        },
        {
          "internalType": "uint256",
          "name": "landTokenId",
          "type": "uint256"
        },
        {
          "internalType": "uint256",
          "name": "commodityIndex",
          "type": "uint256"
        }
      ],
      "name": "withdraw",
      "outputs": [],
      "stateMutability": "nonpayable",
      "type": "function"
    }
  ],
  "bytecode": "0x60806040526040518060a001604052806802b5e3af16b188000068ffffffffffffffffff1681526020016802b5e3af16b188000068ffffffffffffffffff1681526020016802b5e3af16b188000068ffffffffffffffffff1681526020016802b5e3af16b188000068ffffffffffffffffff16815260200168056bc75e2d6310000068ffffffffffffffffff168152506005906005620000a192919062000c87565b506001600a55348015620000b3575f80fd5b5060405162006070380380620060708339818101604052810190620000d9919062000d5b565b335f73ffffffffffffffffffffffffffffffffffffffff168173ffffffffffffffffffffffffffffffffffffffff16036200014d575f6040517f1e4fbdf700000000000000000000000000000000000000000000000000000000815260040162000144919062000db1565b60405180910390fd5b6200015e8162000bc660201b60201c565b5060026040518060c00160405280603c60ff168152602001605a60ff168152602001608c60ff168152602001600160ff1681526020016040518060400160405280600881526020017f53706561726d616e0000000000000000000000000000000000000000000000008152508152602001674563918244f40000815250908060018154018082558091505060019003905f5260205f2090600302015f909190919091505f820151815f015f6101000a81548160ff021916908360ff1602179055506020820151815f0160016101000a81548160ff021916908360ff1602179055506040820151815f0160026101000a81548160ff021916908360ff1602179055506060820151815f0160036101000a81548160ff021916908360ff160217905550608082015181600101908162000296919062001030565b5060a08201518160020155505060026040518060c00160405280605a60ff168152602001604660ff16815260200160c860ff168152602001600260ff1681526020016040518060400160405280600981526020017f53776f7264736d616e00000000000000000000000000000000000000000000008152508152602001676f05b59d3b200000815250908060018154018082558091505060019003905f5260205f2090600302015f909190919091505f820151815f015f6101000a81548160ff021916908360ff1602179055506020820151815f0160016101000a81548160ff021916908360ff1602179055506040820151815f0160026101000a81548160ff021916908360ff1602179055506060820151815f0160036101000a81548160ff021916908360ff1602179055506080820151816001019081620003da919062001030565b5060a08201518160020155505060026040518060c00160405280602860ff168152602001603c60ff168152602001605060ff168152602001600360ff1681526020016040518060400160405280600681526020017f41726368657200000000000000000000000000000000000000000000000000008152508152602001678ac7230489e80000815250908060018154018082558091505060019003905f5260205f2090600302015f909190919091505f820151815f015f6101000a81548160ff021916908360ff1602179055506020820151815f0160016101000a81548160ff021916908360ff1602179055506040820151815f0160026101000a81548160ff021916908360ff1602179055506060820151815f0160036101000a81548160ff021916908360ff16021790555060808201518160010190816200051e919062001030565b5060a0820151816002015550508160045f6101000a81548173ffffffffffffffffffffffffffffffffffffffff021916908373ffffffffffffffffffffffffffffffffffffffff1602179055508060035f6101000a81548173ffffffffffffffffffffffffffffffffffffffff021916908373ffffffffffffffffffffffffffffffffffffffff160217905550600b6040518060e001604052805f8152602001680ad78ebc5ac62000008152602001680821ab0d441498000081526020015f815260200168015af1d78b58c4000081526020015f81526020016040518060400160405280600a81526020017f53746f6e65206d696e6500000000000000000000000000000000000000000000815250815250908060018154018082558091505060019003905f5260205f2090600702015f909190919091505f820151815f01556020820151816001015560408201518160020155606082015181600301556080820151816004015560a0820151816005015560c0820151816006019081620006a7919062001030565b505050600b6040518060e001604052806802b5e3af16b188000081526020016802b5e3af16b18800008152602001680d8d726b7177a8000081526020015f815260200168015af1d78b58c400008152602001600181526020016040518060400160405280600b81526020017f4c756d626572206d696c6c000000000000000000000000000000000000000000815250815250908060018154018082558091505060019003905f5260205f2090600702015f909190919091505f820151815f01556020820151816001015560408201518160020155606082015181600301556080820151816004015560a0820151816005015560c0820151816006019081620007b0919062001030565b505050600b6040518060e0016040528068056bc75e2d63100000815260200168056bc75e2d63100000815260200168056bc75e2d6310000081526020015f815260200168015af1d78b58c400008152602001600281526020016040518060400160405280600981526020017f49726f6e206d696e650000000000000000000000000000000000000000000000815250815250908060018154018082558091505060019003905f5260205f2090600702015f909190919091505f820151815f01556020820151816001015560408201518160020155606082015181600301556080820151816004015560a0820151816005015560c0820151816006019081620008b9919062001030565b505050600b6040518060e00160405280680d8d726b7177a8000081526020016802b5e3af16b188000081526020015f81526020015f815260200168056bc75e2d631000008152602001600481526020016040518060400160405280600481526020017f4661726d00000000000000000000000000000000000000000000000000000000815250815250908060018154018082558091505060019003905f5260205f2090600702015f909190919091505f820151815f01556020820151816001015560408201518160020155606082015181600301556080820151816004015560a0820151816005015560c0820151816006019081620009b9919062001030565b505050600b6040518060e00160405280680d8d726b7177a800008152602001680d8d726b7177a800008152602001680d8d726b7177a8000081526020015f81526020016802b5e3af16b18800008152602001600381526020016040518060400160405280600981526020017f476f6c64206d696e650000000000000000000000000000000000000000000000815250815250908060018154018082558091505060019003905f5260205f2090600702015f909190919091505f820151815f01556020820151816001015560408201518160020155606082015181600301556080820151816004015560a0820151816005015560c082015181600601908162000ac2919062001030565b5050505f5b600581101562000b835769021e19e0c9bab2400000600c5f62018aed81526020019081526020015f205f01826005811062000b075762000b0662001114565b5b015f82825462000b1891906200116e565b9250508190555069021e19e0c9bab2400000600c5f6201aa3581526020019081526020015f205f01826005811062000b555762000b5462001114565b5b015f82825462000b6691906200116e565b92505081905550808062000b7a90620011a8565b91505062000ac7565b506001600c5f62018aed81526020019081526020015f20600701819055506001600c5f6201aa3581526020019081526020015f20600701819055505050620011f4565b5f805f9054906101000a900473ffffffffffffffffffffffffffffffffffffffff169050815f806101000a81548173ffffffffffffffffffffffffffffffffffffffff021916908373ffffffffffffffffffffffffffffffffffffffff1602179055508173ffffffffffffffffffffffffffffffffffffffff168173ffffffffffffffffffffffffffffffffffffffff167f8be0079c531659141344cd1fd0a4f28419497f9722a3daafe3b4186f6b6457e060405160405180910390a35050565b826005810192821562000cc6579160200282015b8281111562000cc5578251829068ffffffffffffffffff1690559160200191906001019062000c9b565b5b50905062000cd5919062000cd9565b5090565b5b8082111562000cf2575f815f90555060010162000cda565b5090565b5f80fd5b5f73ffffffffffffffffffffffffffffffffffffffff82169050919050565b5f62000d258262000cfa565b9050919050565b62000d378162000d19565b811462000d42575f80fd5b50565b5f8151905062000d558162000d2c565b92915050565b5f806040838503121562000d745762000d7362000cf6565b5b5f62000d838582860162000d45565b925050602062000d968582860162000d45565b9150509250929050565b62000dab8162000d19565b82525050565b5f60208201905062000dc65f83018462000da0565b92915050565b5f81519050919050565b7f4e487b71000000000000000000000000000000000000000000000000000000005f52604160045260245ffd5b7f4e487b71000000000000000000000000000000000000000000000000000000005f52602260045260245ffd5b5f600282049050600182168062000e4857607f821691505b60208210810362000e5e5762000e5d62000e03565b5b50919050565b5f819050815f5260205f209050919050565b5f6020601f8301049050919050565b5f82821b905092915050565b5f6008830262000ec27fffffffffffffffffffffffffffffffffffffffffffffffffffffffffffffffff8262000e85565b62000ece868362000e85565b95508019841693508086168417925050509392505050565b5f819050919050565b5f819050919050565b5f62000f1862000f1262000f0c8462000ee6565b62000eef565b62000ee6565b9050919050565b5f819050919050565b62000f338362000ef8565b62000f4b62000f428262000f1f565b84845462000e91565b825550505050565b5f90565b62000f6162000f53565b62000f6e81848462000f28565b505050565b5b8181101562000f955762000f895f8262000f57565b60018101905062000f74565b5050565b601f82111562000fe45762000fae8162000e64565b62000fb98462000e76565b8101602085101562000fc9578190505b62000fe162000fd88562000e76565b83018262000f73565b50505b505050565b5f82821c905092915050565b5f620010065f198460080262000fe9565b1980831691505092915050565b5f62001020838362000ff5565b9150826002028217905092915050565b6200103b8262000dcc565b67ffffffffffffffff81111562001057576200105662000dd6565b5b62001063825462000e30565b6200107082828562000f99565b5f60209050601f831160018114620010a6575f841562001091578287015190505b6200109d858262001013565b8655506200110c565b601f198416620010b68662000e64565b5f5b82811015620010df57848901518255600182019150602085019450602081019050620010b8565b86831015620010ff5784890151620010fb601f89168262000ff5565b8355505b6001600288020188555050505b505050505050565b7f4e487b71000000000000000000000000000000000000000000000000000000005f52603260045260245ffd5b7f4e487b71000000000000000000000000000000000000000000000000000000005f52601160045260245ffd5b5f6200117a8262000ee6565b9150620011878362000ee6565b9250828201905080821115620011a257620011a162001141565b5b92915050565b5f620011b48262000ee6565b91507fffffffffffffffffffffffffffffffffffffffffffffffffffffffffffffffff8203620011e957620011e862001141565b5b600182019050919050565b614e6e80620012025f395ff3fe608060405234801561000f575f80fd5b506004361061014a575f3560e01c8063798d7067116100c1578063aa7e7fa71161007a578063aa7e7fa714610380578063cc0e27ca146103b0578063cc920333146103cc578063d9cf6a26146103fc578063ec6a585f1461041a578063f2fde38b146104365761014a565b8063798d7067146102c0578063886011f9146102dc5780638da5cb5b146102f8578063957d99e514610316578063a41fe49f14610334578063a58343da146103505761014a565b8063344f34f211610113578063344f34f214610202578063393c775f1461021e578063451450ec1461024e5780634639aa3f1461026a5780635c622a0e14610286578063715018a6146102b65761014a565b8062aeef8a1461014e5780630d9bfc3d1461016a5780630ffad7c0146101865780631cb536ed146101b65780633022b71a146101d2575b5f80fd5b610168600480360381019061016391906138dd565b610452565b005b610184600480360381019061017f91906138dd565b6105bf565b005b6101a0600480360381019061019b919061392d565b610930565b6040516101ad91906139fd565b60405180910390f35b6101d060048036038101906101cb919061392d565b6109c5565b005b6101ec60048036038101906101e7919061392d565b610c60565b6040516101f99190613b68565b60405180910390f35b61021c60048036038101906102179190613cd8565b610d39565b005b6102386004803603810190610233919061392d565b610fae565b60405161024591906139fd565b60405180910390f35b61026860048036038101906102639190613d44565b61102e565b005b610284600480360381019061027f9190613db8565b6115dc565b005b6102a0600480360381019061029b919061392d565b611b8a565b6040516102ad9190613e58565b60405180910390f35b6102be611bee565b005b6102da60048036038101906102d5919061392d565b611c01565b005b6102f660048036038101906102f19190613d44565b611fdd565b005b610300612087565b60405161030d9190613eb0565b60405180910390f35b61031e6120ae565b60405161032b9190614084565b60405180910390f35b61034e600480360381019061034991906138dd565b612213565b005b61036a6004803603810190610365919061392d565b6123f7565b6040516103779190614110565b60405180910390f35b61039a6004803603810190610395919061392d565b6124b6565b6040516103a7919061413f565b60405180910390f35b6103ca60048036038101906103c591906142b6565b61254d565b005b6103e660048036038101906103e1919061392d565b61269d565b6040516103f3919061413f565b60405180910390f35b6104046126f3565b604051610411919061449d565b60405180910390f35b610434600480360381019061042f91906144bd565b61281a565b005b610450600480360381019061044b919061454b565b612a0f565b005b823373ffffffffffffffffffffffffffffffffffffffff1660035f9054906101000a900473ffffffffffffffffffffffffffffffffffffffff1673ffffffffffffffffffffffffffffffffffffffff16636352211e836040518263ffffffff1660e01b81526004016104c4919061413f565b602060405180830381865afa1580156104df573d5f803e3d5ffd5b505050506040513d601f19601f82011682018060405250810190610503919061458a565b73ffffffffffffffffffffffffffffffffffffffff1614610550576040517f6db2465f00000000000000000000000000000000000000000000000000000000815260040160405180910390fd5b61057d60045f9054906101000a900473ffffffffffffffffffffffffffffffffffffffff16333086612a93565b82600c5f8681526020019081526020015f205f0183600581106105a3576105a26145b5565b5b015f8282546105b2919061460f565b9250508190555050505050565b823373ffffffffffffffffffffffffffffffffffffffff1660035f9054906101000a900473ffffffffffffffffffffffffffffffffffffffff1673ffffffffffffffffffffffffffffffffffffffff16636352211e836040518263ffffffff1660e01b8152600401610631919061413f565b602060405180830381865afa15801561064c573d5f803e3d5ffd5b505050506040513d601f19601f82011682018060405250810190610670919061458a565b73ffffffffffffffffffffffffffffffffffffffff16146106bd576040517f6db2465f00000000000000000000000000000000000000000000000000000000815260040160405180910390fd5b6106c56120ae565b5183106106fe576040517f4f66a31200000000000000000000000000000000000000000000000000000000815260040160405180910390fd5b600c5f8581526020019081526020015f206007015461071b6120ae565b848151811061072d5761072c6145b5565b5b60200260200101516060015160ff161115610774576040517f56ca09d100000000000000000000000000000000000000000000000000000000815260040160405180910390fd5b61077d84610fae565b6004600581106107905761078f6145b5565b5b60200201518261079e6120ae565b85815181106107b0576107af6145b5565b5b602002602001015160a001516107c69190614642565b11156107fe576040517f9a2f48b400000000000000000000000000000000000000000000000000000000815260040160405180910390fd5b5f610808856123f7565b90505f805f90505b82518110156108545782818151811061082c5761082b6145b5565b5b60200260200101518261083f919061460f565b9150808061084c90614683565b915050610810565b508381610861919061460f565b603260ff16600c5f8981526020019081526020015f20600701546108859190614642565b10156108bd576040517f336d90d000000000000000000000000000000000000000000000000000000000815260040160405180910390fd5b61091d866040518060a001604052805f81526020015f81526020015f81526020015f8152602001876108ed6120ae565b8a815181106108ff576108fe6145b5565b5b602002602001015160a001516109159190614642565b815250612be5565b610928858588612c5b565b505050505050565b610938613824565b610940613824565b5f5b60058110156109bb576001600c5f8681526020019081526020015f206007015461096c919061460f565b600582600581106109805761097f6145b5565b5b015461098c9190614642565b82826005811061099f5761099e6145b5565b5b60200201818152505080806109b390614683565b915050610942565b5080915050919050565b803373ffffffffffffffffffffffffffffffffffffffff1660035f9054906101000a900473ffffffffffffffffffffffffffffffffffffffff1673ffffffffffffffffffffffffffffffffffffffff16636352211e600e5f8581526020019081526020015f20546040518263ffffffff1660e01b8152600401610a48919061413f565b602060405180830381865afa158015610a63573d5f803e3d5ffd5b505050506040513d601f19601f82011682018060405250810190610a87919061458a565b73ffffffffffffffffffffffffffffffffffffffff1614610ad4576040517f6db2465f00000000000000000000000000000000000000000000000000000000815260040160405180910390fd5b5f610ade83611b8a565b90505f600b826060015160ff1681548110610afc57610afb6145b5565b5b905f5260205f2090600702016040518060e00160405290815f82015481526020016001820154815260200160028201548152602001600382015481526020016004820154815260200160058201548152602001600682018054610b5e906146f7565b80601f0160208091040260200160405190810160405280929190818152602001828054610b8a906146f7565b8015610bd55780601f10610bac57610100808354040283529160200191610bd5565b820191905f5260205f20905b815481529060010190602001808311610bb857829003601f168201915b50505050508152505090505f610bea856124b6565b905042600d5f8781526020019081526020015f206001018190555080600c5f600d5f8981526020019081526020015f206002015481526020019081526020015f205f018360a0015160058110610c4357610c426145b5565b5b015f828254610c52919061460f565b925050819055505050505050565b610c68613846565b600c5f8381526020019081526020015f206040518060800160405290815f8201600580602002604051908101604052809291908260058015610cbf576020028201915b815481526020019060010190808311610cab575b505050505081526020016005820154815260200160068201805480602002602001604051908101604052809291908181526020018280548015610d1f57602002820191905f5260205f20905b815481526020019060010190808311610d0b575b505050505081526020016007820154815250509050919050565b813373ffffffffffffffffffffffffffffffffffffffff1660035f9054906101000a900473ffffffffffffffffffffffffffffffffffffffff1673ffffffffffffffffffffffffffffffffffffffff16636352211e836040518263ffffffff1660e01b8152600401610dab919061413f565b602060405180830381865afa158015610dc6573d5f803e3d5ffd5b505050506040513d601f19601f82011682018060405250810190610dea919061458a565b73ffffffffffffffffffffffffffffffffffffffff1614610e37576040517f6db2465f00000000000000000000000000000000000000000000000000000000815260040160405180910390fd5b5f73ffffffffffffffffffffffffffffffffffffffff1660035f9054906101000a900473ffffffffffffffffffffffffffffffffffffffff1673ffffffffffffffffffffffffffffffffffffffff16636352211e846040518263ffffffff1660e01b8152600401610ea8919061413f565b602060405180830381865afa158015610ec3573d5f803e3d5ffd5b505050506040513d601f19601f82011682018060405250810190610ee7919061458a565b73ffffffffffffffffffffffffffffffffffffffff1603610f3d576040517f08c379a0000000000000000000000000000000000000000000000000000000008152600401610f3490614781565b60405180910390fd5b5f80610f4a868686612c96565b91509150610f56613824565b8215610f6a57610f67868684612fba565b90505b84867fac027589d3750b6cab4c0e375f36083f350beb623cddc1a1fe7365e5ae44c15b8584604051610f9d9291906147b9565b60405180910390a350505050505050565b610fb6613824565b610fbe613824565b5f5b6005811015611024575f600c5f8681526020019081526020015f205f018260058110610fef57610fee6145b5565b5b0154905080838360058110611007576110066145b5565b5b60200201818152505050808061101c90614683565b915050610fc0565b5080915050919050565b813373ffffffffffffffffffffffffffffffffffffffff1660035f9054906101000a900473ffffffffffffffffffffffffffffffffffffffff1673ffffffffffffffffffffffffffffffffffffffff16636352211e600e5f8581526020019081526020015f20546040518263ffffffff1660e01b81526004016110b1919061413f565b602060405180830381865afa1580156110cc573d5f803e3d5ffd5b505050506040513d601f19601f820116820180604052508101906110f0919061458a565b73ffffffffffffffffffffffffffffffffffffffff161461113d576040517f6db2465f00000000000000000000000000000000000000000000000000000000815260040160405180910390fd5b5f6111478361269d565b1461117e576040517f4bc45d9a00000000000000000000000000000000000000000000000000000000815260040160405180910390fd5b611187836109c5565b5f600d5f8581526020019081526020015f206003015f9054906101000a900460ff1660ff1690505f600d5f8681526020019081526020015f205f015490505f600b83815481106111da576111d96145b5565b5b905f5260205f2090600702016040518060e00160405290815f8201548152602001600182015481526020016002820154815260200160038201548152602001600482015481526020016005820154815260200160068201805461123c906146f7565b80601f0160208091040260200160405190810160405280929190818152602001828054611268906146f7565b80156112b35780601f1061128a576101008083540402835291602001916112b3565b820191905f5260205f20905b81548152906001019060200180831161129657829003601f168201915b50505050508152505090506001826112cb919061460f565b815f01516112d99190614642565b600c5f8781526020019081526020015f205f015f600581106112fe576112fd6145b5565b5b0154101580156113505750600182611316919061460f565b81602001516113259190614642565b600c5f8781526020019081526020015f205f0160016005811061134b5761134a6145b5565b5b015410155b801561139e5750600182611364919061460f565b81604001516113739190614642565b600c5f8781526020019081526020015f205f01600260058110611399576113986145b5565b5b015410155b80156113ec57506001826113b2919061460f565b81606001516113c19190614642565b600c5f8781526020019081526020015f205f016003600581106113e7576113e66145b5565b5b015410155b801561143a5750600182611400919061460f565b816080015161140f9190614642565b600c5f8781526020019081526020015f205f01600460058110611435576114346145b5565b5b015410155b611479576040517f08c379a00000000000000000000000000000000000000000000000000000000081526004016114709061482a565b60405180910390fd5b61152f856040518060a00160405280600186611495919061460f565b855f01516114a39190614642565b81526020016001866114b5919061460f565b85602001516114c49190614642565b81526020016001866114d6919061460f565b85604001516114e59190614642565b81526020016001866114f7919061460f565b85606001516115069190614642565b8152602001600186611518919061460f565b85608001516115279190614642565b815250612be5565b60018261153c919061460f565b600d5f8881526020019081526020015f205f0181905550600182611560919061460f565b61546061156d9190614642565b42611578919061460f565b600c5f8781526020019081526020015f2060050181905550857feb0ebb51128928d7b1a6419c52128a9319bfcb55f0adafea75afbf75f9f2f3e96001846115bf919061460f565b6040516115cc919061413f565b60405180910390a2505050505050565b813373ffffffffffffffffffffffffffffffffffffffff1660035f9054906101000a900473ffffffffffffffffffffffffffffffffffffffff1673ffffffffffffffffffffffffffffffffffffffff16636352211e836040518263ffffffff1660e01b815260040161164e919061413f565b602060405180830381865afa158015611669573d5f803e3d5ffd5b505050506040513d601f19601f8201168201806040525081019061168d919061458a565b73ffffffffffffffffffffffffffffffffffffffff16146116da576040517f6db2465f00000000000000000000000000000000000000000000000000000000815260040160405180910390fd5b600b805490508260ff161061171b576040517f4f66a31200000000000000000000000000000000000000000000000000000000815260040160405180910390fd5b600c5f8481526020019081526020015f2060060180549050600c60ff161161176f576040517f336d90d000000000000000000000000000000000000000000000000000000000815260040160405180910390fd5b5f6117798461269d565b146117b0576040517f4bc45d9a00000000000000000000000000000000000000000000000000000000815260040160405180910390fd5b5f600b8360ff16815481106117c8576117c76145b5565b5b905f5260205f2090600702016040518060e00160405290815f8201548152602001600182015481526020016002820154815260200160038201548152602001600482015481526020016005820154815260200160068201805461182a906146f7565b80601f0160208091040260200160405190810160405280929190818152602001828054611856906146f7565b80156118a15780601f10611878576101008083540402835291602001916118a1565b820191905f5260205f20905b81548152906001019060200180831161188457829003601f168201915b5050505050815250509050805f0151600c5f8681526020019081526020015f205f015f600581106118d5576118d46145b5565b5b01541015801561191057508060200151600c5f8681526020019081526020015f205f0160016005811061190b5761190a6145b5565b5b015410155b801561194757508060400151600c5f8681526020019081526020015f205f01600260058110611942576119416145b5565b5b015410155b801561197e57508060800151600c5f8681526020019081526020015f205f01600360058110611979576119786145b5565b5b015410155b80156119b557508060600151600c5f8681526020019081526020015f205f016004600581106119b0576119af6145b5565b5b015410155b6119f4576040517f08c379a00000000000000000000000000000000000000000000000000000000081526004016119eb9061482a565b60405180910390fd5b611a37846040518060a00160405280845f015181526020018460200151815260200184604001518152602001846080015181526020018460600151815250612be5565b83600e5f600a5481526020019081526020015f20819055506040518060800160405280600181526020014281526020018581526020018460ff16815250600d5f600a5481526020019081526020015f205f820151815f015560208201518160010155604082015181600201556060820151816003015f6101000a81548160ff021916908360ff160217905550905050600c5f8581526020019081526020015f20600601600a54908060018154018082558091505060019003905f5260205f20015f9091909190915055600a5f815480929190611b1290614683565b919050555061546042611b25919061460f565b600c5f8681526020019081526020015f2060050181905550836001600a54611b4d9190614848565b7fcbecf69dc8611949e753d337378fb4ace6f6ad1e31b5fbf86b6379ea0279ca7485604051611b7c91906148b4565b60405180910390a350505050565b611b92613872565b600d5f8381526020019081526020015f206040518060800160405290815f82015481526020016001820154815260200160028201548152602001600382015f9054906101000a900460ff1660ff1660ff16815250509050919050565b611bf66130d7565b611bff5f61315e565b565b803373ffffffffffffffffffffffffffffffffffffffff1660035f9054906101000a900473ffffffffffffffffffffffffffffffffffffffff1673ffffffffffffffffffffffffffffffffffffffff16636352211e836040518263ffffffff1660e01b8152600401611c73919061413f565b602060405180830381865afa158015611c8e573d5f803e3d5ffd5b505050506040513d601f19601f82011682018060405250810190611cb2919061458a565b73ffffffffffffffffffffffffffffffffffffffff1614611cff576040517f6db2465f00000000000000000000000000000000000000000000000000000000815260040160405180910390fd5b5f611d098361269d565b14611d40576040517f4bc45d9a00000000000000000000000000000000000000000000000000000000815260040160405180910390fd5b5f600c5f8481526020019081526020015f206007015490505f611d6284610fae565b905060055f60058110611d7857611d776145b5565b5b0154815f60058110611d8d57611d8c6145b5565b5b602002015110158015611de55750600182611da8919061460f565b6005600160058110611dbd57611dbc6145b5565b5b0154611dc99190614642565b81600160058110611ddd57611ddc6145b5565b5b602002015110155b8015611e365750600182611df9919061460f565b6005600260058110611e0e57611e0d6145b5565b5b0154611e1a9190614642565b81600260058110611e2e57611e2d6145b5565b5b602002015110155b8015611e875750600182611e4a919061460f565b6005600360058110611e5f57611e5e6145b5565b5b0154611e6b9190614642565b81600360058110611e7f57611e7e6145b5565b5b602002015110155b8015611ed85750600182611e9b919061460f565b6005600460058110611eb057611eaf6145b5565b5b0154611ebc9190614642565b81600460058110611ed057611ecf6145b5565b5b602002015110155b611f17576040517f08c379a0000000000000000000000000000000000000000000000000000000008152600401611f0e9061482a565b60405180910390fd5b611f5d8460058080602002604051908101604052809291908260058015611f53576020028201915b815481526020019060010190808311611f3f575b5050505050612be5565b6001600c5f8681526020019081526020015f2060070154611f7e919061460f565b615460611f8b9190614642565b42611f96919061460f565b600c5f8681526020019081526020015f2060050181905550600c5f8581526020019081526020015f206007015f815480929190611fd290614683565b919050555050505050565b61200a60045f9054906101000a900473ffffffffffffffffffffffffffffffffffffffff16333084612a93565b5f5b600c5f8481526020019081526020015f205060058110156120825760058261203491906148fa565b600c5f8581526020019081526020015f205f018260058110612059576120586145b5565b5b015f828254612068919061460f565b92505081905550808061207a90614683565b91505061200c565b505050565b5f805f9054906101000a900473ffffffffffffffffffffffffffffffffffffffff16905090565b60606002805480602002602001604051908101604052809291908181526020015f905b8282101561220a578382905f5260205f2090600302016040518060c00160405290815f82015f9054906101000a900460ff1660ff1660ff1681526020015f820160019054906101000a900460ff1660ff1660ff1681526020015f820160029054906101000a900460ff1660ff1660ff1681526020015f820160039054906101000a900460ff1660ff1660ff168152602001600182018054612171906146f7565b80601f016020809104026020016040519081016040528092919081815260200182805461219d906146f7565b80156121e85780601f106121bf576101008083540402835291602001916121e8565b820191905f5260205f20905b8154815290600101906020018083116121cb57829003601f168201915b50505050508152602001600282015481525050815260200190600101906120d1565b50505050905090565b813373ffffffffffffffffffffffffffffffffffffffff1660035f9054906101000a900473ffffffffffffffffffffffffffffffffffffffff1673ffffffffffffffffffffffffffffffffffffffff16636352211e836040518263ffffffff1660e01b8152600401612285919061413f565b602060405180830381865afa1580156122a0573d5f803e3d5ffd5b505050506040513d601f19601f820116820180604052508101906122c4919061458a565b73ffffffffffffffffffffffffffffffffffffffff1614612311576040517f6db2465f00000000000000000000000000000000000000000000000000000000815260040160405180910390fd5b83600c5f8581526020019081526020015f205f018360058110612337576123366145b5565b5b01541015612371576040517f9a2f48b400000000000000000000000000000000000000000000000000000000815260040160405180910390fd5b83600c5f8581526020019081526020015f205f018360058110612397576123966145b5565b5b015f8282546123a69190614848565b925050819055506123f160045f9054906101000a900473ffffffffffffffffffffffffffffffffffffffff16336064605f886123e29190614642565b6123ec91906148fa565b61321f565b50505050565b60605f60028054905067ffffffffffffffff81111561241957612418613b9c565b5b6040519080825280602002602001820160405280156124475781602001602082028036833780820191505090505b5090505f5b6002805490508110156124ac5760015f8581526020019081526020015f205f8281526020019081526020015f205482828151811061248d5761248c6145b5565b5b60200260200101818152505080806124a490614683565b91505061244c565b5080915050919050565b5f806124c183611b8a565b90505f8160200151426124d49190614848565b90505f670de0b6b3a7640000835f0151612a30846124f291906148fa565b6124fc9190614642565b6125069190614642565b9050825f01516804563918244f4000006125209190614642565b81111561254257825f01516804563918244f40000061253f9190614642565b90505b809350505050919050565b6125556130d7565b6040518060c00160405280865f60038110612573576125726145b5565b5b602002015160ff16815260200186600160038110612594576125936145b5565b5b602002015160ff168152602001866002600381106125b5576125b46145b5565b5b602002015160ff1681526020018560ff16815260200184815260200183815250600282815481106125e9576125e86145b5565b5b905f5260205f2090600302015f820151815f015f6101000a81548160ff021916908360ff1602179055506020820151815f0160016101000a81548160ff021916908360ff1602179055506040820151815f0160026101000a81548160ff021916908360ff1602179055506060820151815f0160036101000a81548160ff021916908360ff16021790555060808201518160010190816126889190614abe565b5060a082015181600201559050505050505050565b5f8042600c5f8581526020019081526020015f206005015411156126ea57603c42600c5f8681526020019081526020015f20600501546126dd9190614848565b6126e791906148fa565b90505b80915050919050565b6060600b805480602002602001604051908101604052809291908181526020015f905b82821015612811578382905f5260205f2090600702016040518060e00160405290815f82015481526020016001820154815260200160028201548152602001600382015481526020016004820154815260200160058201548152602001600682018054612782906146f7565b80601f01602080910402602001604051908101604052809291908181526020018280546127ae906146f7565b80156127f95780601f106127d0576101008083540402835291602001916127f9565b820191905f5260205f20905b8154815290600101906020018083116127dc57829003601f168201915b50505050508152505081526020019060010190612716565b50505050905090565b833373ffffffffffffffffffffffffffffffffffffffff1660035f9054906101000a900473ffffffffffffffffffffffffffffffffffffffff1673ffffffffffffffffffffffffffffffffffffffff16636352211e836040518263ffffffff1660e01b815260040161288c919061413f565b602060405180830381865afa1580156128a7573d5f803e3d5ffd5b505050506040513d601f19601f820116820180604052508101906128cb919061458a565b73ffffffffffffffffffffffffffffffffffffffff1614612918576040517f6db2465f00000000000000000000000000000000000000000000000000000000815260040160405180910390fd5b81600c5f8781526020019081526020015f205f01856005811061293e5761293d6145b5565b5b01541015612978576040517f9a2f48b400000000000000000000000000000000000000000000000000000000815260040160405180910390fd5b81600c5f8781526020019081526020015f205f01856005811061299e5761299d6145b5565b5b015f8282546129ad9190614848565b92505081905550600a6009836129c39190614642565b6129cd91906148fa565b600c5f8781526020019081526020015f205f0184600581106129f2576129f16145b5565b5b015f828254612a01919061460f565b925050819055505050505050565b612a176130d7565b5f73ffffffffffffffffffffffffffffffffffffffff168173ffffffffffffffffffffffffffffffffffffffff1603612a87575f6040517f1e4fbdf7000000000000000000000000000000000000000000000000000000008152600401612a7e9190613eb0565b60405180910390fd5b612a908161315e565b50565b5f808573ffffffffffffffffffffffffffffffffffffffff166323b872dd60e01b868686604051602401612ac993929190614b8d565b604051602081830303815290604052907bffffffffffffffffffffffffffffffffffffffffffffffffffffffff19166020820180517bffffffffffffffffffffffffffffffffffffffffffffffffffffffff8381831617835250505050604051612b339190614c06565b5f604051808303815f865af19150503d805f8114612b6c576040519150601f19603f3d011682016040523d82523d5f602084013e612b71565b606091505b5091509150818015612b9e57505f81511480612b9d575080806020019051810190612b9c9190614c46565b5b5b612bdd576040517f08c379a0000000000000000000000000000000000000000000000000000000008152600401612bd490614cbb565b60405180910390fd5b505050505050565b5f5b6005811015612c5657818160058110612c0357612c026145b5565b5b6020020151600c5f8581526020019081526020015f205f018260058110612c2d57612c2c6145b5565b5b015f828254612c3c9190614848565b925050819055508080612c4e90614683565b915050612be7565b505050565b8160015f8381526020019081526020015f205f8581526020019081526020015f205f828254612c8a919061460f565b92505081905550505050565b5f80600280549050855114612ce0576040517f08c379a0000000000000000000000000000000000000000000000000000000008152600401612cd790614d23565b60405180910390fd5b5f805f805f612cee886123f7565b90505f5b8a51811015612f6e578a8181518110612d0e57612d0d6145b5565b5b602002602001015160015f8c81526020019081526020015f205f8381526020019081526020015f20541015612d78576040517f08c379a0000000000000000000000000000000000000000000000000000000008152600401612d6f90614d8b565b60405180910390fd5b8a8181518110612d8b57612d8a6145b5565b5b602002602001015160015f8c81526020019081526020015f205f8381526020019081526020015f205f828254612dc19190614848565b925050819055508a8181518110612ddb57612dda6145b5565b5b602002602001015160028281548110612df757612df66145b5565b5b905f5260205f2090600302015f015f9054906101000a900460ff1660ff16612e1f9190614642565b86612e2a919061460f565b95508a8181518110612e3f57612e3e6145b5565b5b602002602001015160028281548110612e5b57612e5a6145b5565b5b905f5260205f2090600302015f0160029054906101000a900460ff1660ff16612e849190614642565b85612e8f919061460f565b9450818181518110612ea457612ea36145b5565b5b602002602001015160028281548110612ec057612ebf6145b5565b5b905f5260205f2090600302015f0160019054906101000a900460ff1660ff16612ee99190614642565b84612ef4919061460f565b9350818181518110612f0957612f086145b5565b5b602002602001015160028281548110612f2557612f246145b5565b5b905f5260205f2090600302015f0160029054906101000a900460ff1660ff16612f4e9190614642565b83612f59919061460f565b92508080612f6690614683565b915050612cf2565b505f805f612f7e8888888861336e565b925092509250612f8e818c6136bf565b612f998d838e61376b565b828183612fa69190614848565b995099505050505050505050935093915050565b612fc2613824565b5f5b60058110156130cf575f606484600c5f8881526020019081526020015f205f018460058110612ff657612ff56145b5565b5b01546130029190614642565b61300c91906148fa565b905080838360058110613022576130216145b5565b5b60200201818152505080600c5f8781526020019081526020015f205f018360058110613051576130506145b5565b5b015f8282546130609190614848565b9250508190555060646055826130769190614642565b61308091906148fa565b600c5f8881526020019081526020015f205f0183600581106130a5576130a46145b5565b5b015f8282546130b4919061460f565b925050819055505080806130c790614683565b915050612fc4565b509392505050565b6130df61381d565b73ffffffffffffffffffffffffffffffffffffffff166130fd612087565b73ffffffffffffffffffffffffffffffffffffffff161461315c5761312061381d565b6040517f118cdaa70000000000000000000000000000000000000000000000000000000081526004016131539190613eb0565b60405180910390fd5b565b5f805f9054906101000a900473ffffffffffffffffffffffffffffffffffffffff169050815f806101000a81548173ffffffffffffffffffffffffffffffffffffffff021916908373ffffffffffffffffffffffffffffffffffffffff1602179055508173ffffffffffffffffffffffffffffffffffffffff168173ffffffffffffffffffffffffffffffffffffffff167f8be0079c531659141344cd1fd0a4f28419497f9722a3daafe3b4186f6b6457e060405160405180910390a35050565b5f808473ffffffffffffffffffffffffffffffffffffffff1663a9059cbb60e01b8585604051602401613253929190614da9565b604051602081830303815290604052907bffffffffffffffffffffffffffffffffffffffffffffffffffffffff19166020820180517bffffffffffffffffffffffffffffffffffffffffffffffffffffffff83818316178352505050506040516132bd9190614c06565b5f604051808303815f865af19150503d805f81146132f6576040519150601f19603f3d011682016040523d82523d5f602084013e6132fb565b606091505b509150915081801561332857505f815114806133275750808060200190518101906133269190614c46565b5b5b613367576040517f08c379a000000000000000000000000000000000000000000000000000000000815260040161335e90614e1a565b60405180910390fd5b5050505050565b5f805f805f80898711801561338257508789115b1561347b5789876133939190614848565b888a61339f9190614848565b1115613410576001905088606460038a6133b991906148fa565b8b6133c49190614848565b6133ce9190614642565b6133d891906148fa565b925086606460028c6133ea91906148fa565b896133f59190614848565b6133ff9190614642565b61340991906148fa565b9150613476565b5f905088606460028a61342391906148fa565b8b61342e9190614848565b6134389190614642565b61344291906148fa565b925086606460038c61345491906148fa565b8961345f9190614848565b6134699190614642565b61347391906148fa565b91505b6136a9565b89871015613598576001905060026003886134969190614642565b6134a091906148fa565b8a10156134dd5788606460048a6134b791906148fa565b8b6134c29190614848565b6134cc9190614642565b6134d691906148fa565b9250601e91505b8960026003896134ed9190614642565b6134f791906148fa565b10801561350f57508960028861350d9190614642565b115b1561354a5788606460058a61352491906148fa565b8b61352f9190614848565b6135399190614642565b61354391906148fa565b9250600f91505b896002886135589190614642565b10156135935788606460068a61356e91906148fa565b8b6135799190614848565b6135839190614642565b61358d91906148fa565b92505f91505b6136a8565b5f9050600260038a6135aa9190614642565b6135b491906148fa565b8810156135f157601e925086606460048c6135cf91906148fa565b896135da9190614848565b6135e49190614642565b6135ee91906148fa565b91505b8760028a6135ff9190614642565b101561363b57600f925086606460058c61361991906148fa565b896136249190614848565b61362e9190614642565b61363891906148fa565b91505b87600260038b61364b9190614642565b61365591906148fa565b10801561366d57508760028a61366b9190614642565b115b156136a7575f925086606460068c61368591906148fa565b896136909190614848565b61369a9190614642565b6136a491906148fa565b91505b5b5b8083839550955095505050509450945094915050565b5f5b600280549050811015613766575f60015f8481526020019081526020015f205f8381526020019081526020015f205411156137535760648360015f8581526020019081526020015f205f8481526020019081526020015f20546137249190614642565b61372e91906148fa565b60015f8481526020019081526020015f205f8381526020019081526020015f20819055505b808061375e90614683565b9150506136c1565b505050565b5f5b600280549050811015613817575f84828151811061378e5761378d6145b5565b5b60200260200101511115613804576064838583815181106137b2576137b16145b5565b5b60200260200101516137c49190614642565b6137ce91906148fa565b60015f8481526020019081526020015f205f8381526020019081526020015f205f8282546137fc919061460f565b925050819055505b808061380f90614683565b91505061376d565b50505050565b5f33905090565b6040518060a00160405280600590602082028036833780820191505090505090565b6040518060800160405280613859613824565b81526020015f8152602001606081526020015f81525090565b60405180608001604052805f81526020015f81526020015f81526020015f60ff1681525090565b5f604051905090565b5f80fd5b5f80fd5b5f819050919050565b6138bc816138aa565b81146138c6575f80fd5b50565b5f813590506138d7816138b3565b92915050565b5f805f606084860312156138f4576138f36138a2565b5b5f613901868287016138c9565b9350506020613912868287016138c9565b9250506040613923868287016138c9565b9150509250925092565b5f60208284031215613942576139416138a2565b5b5f61394f848285016138c9565b91505092915050565b5f60059050919050565b5f81905092915050565b5f819050919050565b61397e816138aa565b82525050565b5f61398f8383613975565b60208301905092915050565b5f602082019050919050565b6139b081613958565b6139ba8184613962565b92506139c58261396c565b805f5b838110156139f55781516139dc8782613984565b96506139e78361399b565b9250506001810190506139c8565b505050505050565b5f60a082019050613a105f8301846139a7565b92915050565b5f81905092915050565b613a2981613958565b613a338184613a16565b9250613a3e8261396c565b805f5b83811015613a6e578151613a558782613984565b9650613a608361399b565b925050600181019050613a41565b505050505050565b5f81519050919050565b5f82825260208201905092915050565b5f819050602082019050919050565b5f602082019050919050565b5f613ab582613a76565b613abf8185613a80565b9350613aca83613a90565b805f5b83811015613afa578151613ae18882613984565b9750613aec83613a9f565b925050600181019050613acd565b5085935050505092915050565b5f61010083015f830151613b1d5f860182613a20565b506020830151613b3060a0860182613975565b50604083015184820360c0860152613b488282613aab565b9150506060830151613b5d60e0860182613975565b508091505092915050565b5f6020820190508181035f830152613b808184613b07565b905092915050565b5f80fd5b5f601f19601f8301169050919050565b7f4e487b71000000000000000000000000000000000000000000000000000000005f52604160045260245ffd5b613bd282613b8c565b810181811067ffffffffffffffff82111715613bf157613bf0613b9c565b5b80604052505050565b5f613c03613899565b9050613c0f8282613bc9565b919050565b5f67ffffffffffffffff821115613c2e57613c2d613b9c565b5b602082029050602081019050919050565b5f80fd5b5f613c55613c5084613c14565b613bfa565b90508083825260208201905060208402830185811115613c7857613c77613c3f565b5b835b81811015613ca15780613c8d88826138c9565b845260208401935050602081019050613c7a565b5050509392505050565b5f82601f830112613cbf57613cbe613b88565b5b8135613ccf848260208601613c43565b91505092915050565b5f805f60608486031215613cef57613cee6138a2565b5b5f84013567ffffffffffffffff811115613d0c57613d0b6138a6565b5b613d1886828701613cab565b9350506020613d29868287016138c9565b9250506040613d3a868287016138c9565b9150509250925092565b5f8060408385031215613d5a57613d596138a2565b5b5f613d67858286016138c9565b9250506020613d78858286016138c9565b9150509250929050565b5f60ff82169050919050565b613d9781613d82565b8114613da1575f80fd5b50565b5f81359050613db281613d8e565b92915050565b5f8060408385031215613dce57613dcd6138a2565b5b5f613ddb858286016138c9565b9250506020613dec85828601613da4565b9150509250929050565b613dff81613d82565b82525050565b608082015f820151613e195f850182613975565b506020820151613e2c6020850182613975565b506040820151613e3f6040850182613975565b506060820151613e526060850182613df6565b50505050565b5f608082019050613e6b5f830184613e05565b92915050565b5f73ffffffffffffffffffffffffffffffffffffffff82169050919050565b5f613e9a82613e71565b9050919050565b613eaa81613e90565b82525050565b5f602082019050613ec35f830184613ea1565b92915050565b5f81519050919050565b5f82825260208201905092915050565b5f819050602082019050919050565b5f81519050919050565b5f82825260208201905092915050565b5f5b83811015613f29578082015181840152602081019050613f0e565b5f8484015250505050565b5f613f3e82613ef2565b613f488185613efc565b9350613f58818560208601613f0c565b613f6181613b8c565b840191505092915050565b5f60c083015f830151613f815f860182613df6565b506020830151613f946020860182613df6565b506040830151613fa76040860182613df6565b506060830151613fba6060860182613df6565b5060808301518482036080860152613fd28282613f34565b91505060a0830151613fe760a0860182613975565b508091505092915050565b5f613ffd8383613f6c565b905092915050565b5f602082019050919050565b5f61401b82613ec9565b6140258185613ed3565b93508360208202850161403785613ee3565b805f5b8581101561407257848403895281516140538582613ff2565b945061405e83614005565b925060208a0199505060018101905061403a565b50829750879550505050505092915050565b5f6020820190508181035f83015261409c8184614011565b905092915050565b5f82825260208201905092915050565b5f6140be82613a76565b6140c881856140a4565b93506140d383613a90565b805f5b838110156141035781516140ea8882613984565b97506140f583613a9f565b9250506001810190506140d6565b5085935050505092915050565b5f6020820190508181035f83015261412881846140b4565b905092915050565b614139816138aa565b82525050565b5f6020820190506141525f830184614130565b92915050565b5f67ffffffffffffffff82111561417257614171613b9c565b5b602082029050919050565b5f61418f61418a84614158565b613bfa565b905080602084028301858111156141a9576141a8613c3f565b5b835b818110156141d257806141be8882613da4565b8452602084019350506020810190506141ab565b5050509392505050565b5f82601f8301126141f0576141ef613b88565b5b60036141fd84828561417d565b91505092915050565b5f80fd5b5f67ffffffffffffffff82111561422457614223613b9c565b5b61422d82613b8c565b9050602081019050919050565b828183375f83830152505050565b5f61425a6142558461420a565b613bfa565b90508281526020810184848401111561427657614275614206565b5b61428184828561423a565b509392505050565b5f82601f83011261429d5761429c613b88565b5b81356142ad848260208601614248565b91505092915050565b5f805f805f60e086880312156142cf576142ce6138a2565b5b5f6142dc888289016141dc565b95505060606142ed88828901613da4565b945050608086013567ffffffffffffffff81111561430e5761430d6138a6565b5b61431a88828901614289565b93505060a061432b888289016138c9565b92505060c061433c888289016138c9565b9150509295509295909350565b5f81519050919050565b5f82825260208201905092915050565b5f819050602082019050919050565b5f60e083015f8301516143875f860182613975565b50602083015161439a6020860182613975565b5060408301516143ad6040860182613975565b5060608301516143c06060860182613975565b5060808301516143d36080860182613975565b5060a08301516143e660a0860182613975565b5060c083015184820360c08601526143fe8282613f34565b9150508091505092915050565b5f6144168383614372565b905092915050565b5f602082019050919050565b5f61443482614349565b61443e8185614353565b93508360208202850161445085614363565b805f5b8581101561448b578484038952815161446c858261440b565b94506144778361441e565b925060208a01995050600181019050614453565b50829750879550505050505092915050565b5f6020820190508181035f8301526144b5818461442a565b905092915050565b5f805f80608085870312156144d5576144d46138a2565b5b5f6144e2878288016138c9565b94505060206144f3878288016138c9565b9350506040614504878288016138c9565b9250506060614515878288016138c9565b91505092959194509250565b61452a81613e90565b8114614534575f80fd5b50565b5f8135905061454581614521565b92915050565b5f602082840312156145605761455f6138a2565b5b5f61456d84828501614537565b91505092915050565b5f8151905061458481614521565b92915050565b5f6020828403121561459f5761459e6138a2565b5b5f6145ac84828501614576565b91505092915050565b7f4e487b71000000000000000000000000000000000000000000000000000000005f52603260045260245ffd5b7f4e487b71000000000000000000000000000000000000000000000000000000005f52601160045260245ffd5b5f614619826138aa565b9150614624836138aa565b925082820190508082111561463c5761463b6145e2565b5b92915050565b5f61464c826138aa565b9150614657836138aa565b9250828202614665816138aa565b9150828204841483151761467c5761467b6145e2565b5b5092915050565b5f61468d826138aa565b91507fffffffffffffffffffffffffffffffffffffffffffffffffffffffffffffffff82036146bf576146be6145e2565b5b600182019050919050565b7f4e487b71000000000000000000000000000000000000000000000000000000005f52602260045260245ffd5b5f600282049050600182168061470e57607f821691505b602082108103614721576147206146ca565b5b50919050565b5f82825260208201905092915050565b7f496e76616c6964206c616e6400000000000000000000000000000000000000005f82015250565b5f61476b600c83614727565b915061477682614737565b602082019050919050565b5f6020820190508181035f8301526147988161475f565b9050919050565b5f8115159050919050565b6147b38161479f565b82525050565b5f60c0820190506147cc5f8301856147aa565b6147d960208301846139a7565b9392505050565b7f496e73756666696369656e7420636f6d6d6f64697469657300000000000000005f82015250565b5f614814601883614727565b915061481f826147e0565b602082019050919050565b5f6020820190508181035f83015261484181614808565b9050919050565b5f614852826138aa565b915061485d836138aa565b9250828203905081811115614875576148746145e2565b5b92915050565b5f819050919050565b5f61489e61489961489484613d82565b61487b565b6138aa565b9050919050565b6148ae81614884565b82525050565b5f6020820190506148c75f8301846148a5565b92915050565b7f4e487b71000000000000000000000000000000000000000000000000000000005f52601260045260245ffd5b5f614904826138aa565b915061490f836138aa565b92508261491f5761491e6148cd565b5b828204905092915050565b5f819050815f5260205f209050919050565b5f6020601f8301049050919050565b5f82821b905092915050565b5f600883026149867fffffffffffffffffffffffffffffffffffffffffffffffffffffffffffffffff8261494b565b614990868361494b565b95508019841693508086168417925050509392505050565b5f6149c26149bd6149b8846138aa565b61487b565b6138aa565b9050919050565b5f819050919050565b6149db836149a8565b6149ef6149e7826149c9565b848454614957565b825550505050565b5f90565b614a036149f7565b614a0e8184846149d2565b505050565b5b81811015614a3157614a265f826149fb565b600181019050614a14565b5050565b601f821115614a7657614a478161492a565b614a508461493c565b81016020851015614a5f578190505b614a73614a6b8561493c565b830182614a13565b50505b505050565b5f82821c905092915050565b5f614a965f1984600802614a7b565b1980831691505092915050565b5f614aae8383614a87565b9150826002028217905092915050565b614ac782613ef2565b67ffffffffffffffff811115614ae057614adf613b9c565b5b614aea82546146f7565b614af5828285614a35565b5f60209050601f831160018114614b26575f8415614b14578287015190505b614b1e8582614aa3565b865550614b85565b601f198416614b348661492a565b5f5b82811015614b5b57848901518255600182019150602085019450602081019050614b36565b86831015614b785784890151614b74601f891682614a87565b8355505b6001600288020188555050505b505050505050565b5f606082019050614ba05f830186613ea1565b614bad6020830185613ea1565b614bba6040830184614130565b949350505050565b5f81519050919050565b5f81905092915050565b5f614be082614bc2565b614bea8185614bcc565b9350614bfa818560208601613f0c565b80840191505092915050565b5f614c118284614bd6565b915081905092915050565b614c258161479f565b8114614c2f575f80fd5b50565b5f81519050614c4081614c1c565b92915050565b5f60208284031215614c5b57614c5a6138a2565b5b5f614c6884828501614c32565b91505092915050565b7f53544600000000000000000000000000000000000000000000000000000000005f82015250565b5f614ca5600383614727565b9150614cb082614c71565b602082019050919050565b5f6020820190508181035f830152614cd281614c99565b9050919050565b7f4c656e6774687320646f6573206e6f74206d61746368000000000000000000005f82015250565b5f614d0d601683614727565b9150614d1882614cd9565b602082019050919050565b5f6020820190508181035f830152614d3a81614d01565b9050919050565b7f496e73756666696369656e742061726d790000000000000000000000000000005f82015250565b5f614d75601183614727565b9150614d8082614d41565b602082019050919050565b5f6020820190508181035f830152614da281614d69565b9050919050565b5f604082019050614dbc5f830185613ea1565b614dc96020830184614130565b9392505050565b7f53540000000000000000000000000000000000000000000000000000000000005f82015250565b5f614e04600283614727565b9150614e0f82614dd0565b602082019050919050565b5f6020820190508181035f830152614e3181614df8565b905091905056fea2646970667358221220c15b453e0852b5e8246ab5ae534500d54ee51b41c1a8f6adc4e8119c13cc5c6864736f6c63430008140033",
  "linkReferences": {},
  "deployedLinkReferences": {}
}