{
  "_format": "hh-sol-artifact-1",
  "contractName": "Town",
  "sourceName": "contracts/Town.sol",
  "abi": [
    {
      "inputs": [
        {
          "internalType": "address",
          "name": "landsContractAddress",
          "type": "address"
        }
      ],
      "stateMutability": "nonpayable",
      "type": "constructor"
    },
    {
      "anonymous": false,
      "inputs": [
        {
          "indexed": false,
          "internalType": "uint256",
          "name": "buildingTypeIndex",
          "type": "uint256"
        },
        {
          "indexed": true,
          "internalType": "uint256",
          "name": "tokenId",
          "type": "uint256"
        },
        {
          "indexed": true,
          "internalType": "uint256",
          "name": "landTokenId",
          "type": "uint256"
        }
      ],
      "name": "Build",
      "type": "event"
    },
    {
      "anonymous": false,
      "inputs": [
        {
          "indexed": true,
          "internalType": "uint256",
          "name": "tokenId",
          "type": "uint256"
        },
        {
          "indexed": false,
          "internalType": "uint256",
          "name": "amount",
          "type": "uint256"
        },
        {
          "indexed": false,
          "internalType": "uint256",
          "name": "commodityIndex",
          "type": "uint256"
        }
      ],
      "name": "Claim",
      "type": "event"
    },
    {
      "anonymous": false,
      "inputs": [
        {
          "indexed": true,
          "internalType": "address",
          "name": "previousOwner",
          "type": "address"
        },
        {
          "indexed": true,
          "internalType": "address",
          "name": "newOwner",
          "type": "address"
        }
      ],
      "name": "OwnershipTransferred",
      "type": "event"
    },
    {
      "anonymous": false,
      "inputs": [
        {
          "indexed": true,
          "internalType": "uint256",
          "name": "tokenId",
          "type": "uint256"
        },
        {
          "indexed": false,
          "internalType": "uint256",
          "name": "level",
          "type": "uint256"
        }
      ],
      "name": "Upgrade",
      "type": "event"
    },
    {
      "inputs": [
        {
          "internalType": "uint256",
          "name": "landTokenId",
          "type": "uint256"
        },
        {
          "internalType": "uint8",
          "name": "buildingIndex",
          "type": "uint8"
        }
      ],
      "name": "build",
      "outputs": [],
      "stateMutability": "nonpayable",
      "type": "function"
    },
    {
      "inputs": [
        {
          "internalType": "uint256",
          "name": "buildingTokenId",
          "type": "uint256"
        }
      ],
      "name": "claimRevenue",
      "outputs": [],
      "stateMutability": "nonpayable",
      "type": "function"
    },
    {
      "inputs": [],
      "name": "getBuildings",
      "outputs": [
        {
          "components": [
            {
              "internalType": "uint256",
              "name": "requiredStone",
              "type": "uint256"
            },
            {
              "internalType": "uint256",
              "name": "requiredWood",
              "type": "uint256"
            },
            {
              "internalType": "uint256",
              "name": "requiredIron",
              "type": "uint256"
            },
            {
              "internalType": "uint256",
              "name": "requiredGold",
              "type": "uint256"
            },
            {
              "internalType": "uint256",
              "name": "requiredFood",
              "type": "uint256"
            },
            {
              "internalType": "uint256",
              "name": "revTokenIndex",
              "type": "uint256"
            },
            {
              "internalType": "string",
              "name": "imageURL",
              "type": "string"
            },
            {
              "internalType": "string",
              "name": "buildingName",
              "type": "string"
            }
          ],
          "internalType": "struct Town.Info[]",
          "name": "",
          "type": "tuple[]"
        }
      ],
      "stateMutability": "view",
      "type": "function"
    },
    {
      "inputs": [
        {
          "internalType": "uint256",
          "name": "buildingTokenId",
          "type": "uint256"
        }
      ],
      "name": "getCurrentRevenue",
      "outputs": [
        {
          "internalType": "uint256",
          "name": "",
          "type": "uint256"
        }
      ],
      "stateMutability": "view",
      "type": "function"
    },
    {
      "inputs": [
        {
          "internalType": "uint256",
          "name": "tokenId",
          "type": "uint256"
        }
      ],
      "name": "getStatus",
      "outputs": [
        {
          "components": [
            {
              "internalType": "uint256",
              "name": "level",
              "type": "uint256"
            },
            {
              "internalType": "uint256",
              "name": "latestActionTimestamp",
              "type": "uint256"
            },
            {
              "internalType": "uint256",
              "name": "attachedLand",
              "type": "uint256"
            },
            {
              "internalType": "uint8",
              "name": "buildingTypeIndex",
              "type": "uint8"
            }
          ],
          "internalType": "struct Town.Status",
          "name": "",
          "type": "tuple"
        }
      ],
      "stateMutability": "view",
      "type": "function"
    },
    {
      "inputs": [
        {
          "internalType": "uint256",
          "name": "landTokenId",
          "type": "uint256"
        }
      ],
      "name": "landBuildings",
      "outputs": [
        {
          "internalType": "uint256[]",
          "name": "",
          "type": "uint256[]"
        }
      ],
      "stateMutability": "view",
      "type": "function"
    },
    {
      "inputs": [],
      "name": "owner",
      "outputs": [
        {
          "internalType": "address",
          "name": "",
          "type": "address"
        }
      ],
      "stateMutability": "view",
      "type": "function"
    },
    {
      "inputs": [],
      "name": "renounceOwnership",
      "outputs": [],
      "stateMutability": "nonpayable",
      "type": "function"
    },
    {
      "inputs": [
        {
          "internalType": "uint256",
          "name": "_tokenId",
          "type": "uint256"
        }
      ],
      "name": "tokenURI",
      "outputs": [
        {
          "internalType": "string",
          "name": "",
          "type": "string"
        }
      ],
      "stateMutability": "view",
      "type": "function"
    },
    {
      "inputs": [
        {
          "internalType": "address",
          "name": "newOwner",
          "type": "address"
        }
      ],
      "name": "transferOwnership",
      "outputs": [],
      "stateMutability": "nonpayable",
      "type": "function"
    },
    {
      "inputs": [
        {
          "internalType": "uint256",
          "name": "index",
          "type": "uint256"
        },
        {
          "internalType": "uint256[5]",
          "name": "requiredCommodities",
          "type": "uint256[5]"
        },
        {
          "internalType": "string",
          "name": "imgUrl",
          "type": "string"
        },
        {
          "internalType": "string",
          "name": "name",
          "type": "string"
        }
      ],
      "name": "updateBuilding",
      "outputs": [],
      "stateMutability": "nonpayable",
      "type": "function"
    },
    {
      "inputs": [
        {
          "internalType": "uint256",
          "name": "buildingTokenId",
          "type": "uint256"
        },
        {
          "internalType": "uint256",
          "name": "landTokenId",
          "type": "uint256"
        }
      ],
      "name": "upgrade",
      "outputs": [],
      "stateMutability": "nonpayable",
      "type": "function"
    }
  ],
  "bytecode": "0x608060405260016002553480156200001657600080fd5b5060405162003f8a38038062003f8a83398181016040528101906200003c919062000881565b6200005c620000506200074b60201b60201c565b6200075360201b60201c565b80600160006101000a81548173ffffffffffffffffffffffffffffffffffffffff021916908373ffffffffffffffffffffffffffffffffffffffff160217905550600360405180610100016040528060008152602001680ad78ebc5ac62000008152602001680821ab0d441498000081526020016000815260200168015af1d78b58c4000081526020016000815260200160405180608001604052806043815260200162003f476043913981526020016040518060400160405280600a81526020017f53746f6e65206d696e65000000000000000000000000000000000000000000008152508152509080600181540180825580915050600190039060005260206000209060080201600090919091909150600082015181600001556020820151816001015560408201518160020155606082015181600301556080820151816004015560a0820151816005015560c0820151816006019081620001c1919062000b2d565b5060e0820151816007019081620001d9919062000b2d565b50505060036040518061010001604052806802b5e3af16b188000081526020016802b5e3af16b18800008152602001680d8d726b7177a8000081526020016000815260200168015af1d78b58c4000081526020016001815260200160405180608001604052806043815260200162003f046043913981526020016040518060400160405280600b81526020017f4c756d626572206d696c6c0000000000000000000000000000000000000000008152508152509080600181540180825580915050600190039060005260206000209060080201600090919091909150600082015181600001556020820151816001015560408201518160020155606082015181600301556080820151816004015560a0820151816005015560c082015181600601908162000308919062000b2d565b5060e082015181600701908162000320919062000b2d565b505050600360405180610100016040528068056bc75e2d63100000815260200168056bc75e2d63100000815260200168056bc75e2d6310000081526020016000815260200168015af1d78b58c400008152602001600281526020016040518060400160405280600381526020017f55726c000000000000000000000000000000000000000000000000000000000081525081526020016040518060400160405280600981526020017f49726f6e206d696e6500000000000000000000000000000000000000000000008152508152509080600181540180825580915050600190039060005260206000209060080201600090919091909150600082015181600001556020820151816001015560408201518160020155606082015181600301556080820151816004015560a0820151816005015560c08201518160060190816200046b919062000b2d565b5060e082015181600701908162000483919062000b2d565b505050600360405180610100016040528068878678326eac9000008152602001680d8d726b7177a800008152602001680d8d726b7177a800008152602001600081526020016802b5e3af16b18800008152602001600381526020016040518060400160405280600381526020017f55726c000000000000000000000000000000000000000000000000000000000081525081526020016040518060400160405280600981526020017f476f6c64206d696e6500000000000000000000000000000000000000000000008152508152509080600181540180825580915050600190039060005260206000209060080201600090919091909150600082015181600001556020820151816001015560408201518160020155606082015181600301556080820151816004015560a0820151816005015560c0820151816006019081620005ce919062000b2d565b5060e0820151816007019081620005e6919062000b2d565b5050506003604051806101000160405280680d8d726b7177a8000081526020016802b5e3af16b18800008152602001600081526020016000815260200168056bc75e2d631000008152602001600481526020016040518060400160405280601b81526020017f5265706c6163652074686973207769746820696d6167652075726c000000000081525081526020016040518060400160405280600a81526020017f72616e6368486f757365000000000000000000000000000000000000000000008152508152509080600181540180825580915050600190039060005260206000209060080201600090919091909150600082015181600001556020820151816001015560408201518160020155606082015181600301556080820151816004015560a0820151816005015560c082015181600601908162000729919062000b2d565b5060e082015181600701908162000741919062000b2d565b5050505062000c14565b600033905090565b60008060009054906101000a900473ffffffffffffffffffffffffffffffffffffffff169050816000806101000a81548173ffffffffffffffffffffffffffffffffffffffff021916908373ffffffffffffffffffffffffffffffffffffffff1602179055508173ffffffffffffffffffffffffffffffffffffffff168173ffffffffffffffffffffffffffffffffffffffff167f8be0079c531659141344cd1fd0a4f28419497f9722a3daafe3b4186f6b6457e060405160405180910390a35050565b600080fd5b600073ffffffffffffffffffffffffffffffffffffffff82169050919050565b600062000849826200081c565b9050919050565b6200085b816200083c565b81146200086757600080fd5b50565b6000815190506200087b8162000850565b92915050565b6000602082840312156200089a576200089962000817565b5b6000620008aa848285016200086a565b91505092915050565b600081519050919050565b7f4e487b7100000000000000000000000000000000000000000000000000000000600052604160045260246000fd5b7f4e487b7100000000000000000000000000000000000000000000000000000000600052602260045260246000fd5b600060028204905060018216806200093557607f821691505b6020821081036200094b576200094a620008ed565b5b50919050565b60008190508160005260206000209050919050565b60006020601f8301049050919050565b600082821b905092915050565b600060088302620009b57fffffffffffffffffffffffffffffffffffffffffffffffffffffffffffffffff8262000976565b620009c1868362000976565b95508019841693508086168417925050509392505050565b6000819050919050565b6000819050919050565b600062000a0e62000a0862000a0284620009d9565b620009e3565b620009d9565b9050919050565b6000819050919050565b62000a2a83620009ed565b62000a4262000a398262000a15565b84845462000983565b825550505050565b600090565b62000a5962000a4a565b62000a6681848462000a1f565b505050565b5b8181101562000a8e5762000a8260008262000a4f565b60018101905062000a6c565b5050565b601f82111562000add5762000aa78162000951565b62000ab28462000966565b8101602085101562000ac2578190505b62000ada62000ad18562000966565b83018262000a6b565b50505b505050565b600082821c905092915050565b600062000b026000198460080262000ae2565b1980831691505092915050565b600062000b1d838362000aef565b9150826002028217905092915050565b62000b3882620008b3565b67ffffffffffffffff81111562000b545762000b53620008be565b5b62000b6082546200091c565b62000b6d82828562000a92565b600060209050601f83116001811462000ba5576000841562000b90578287015190505b62000b9c858262000b0f565b86555062000c0c565b601f19841662000bb58662000951565b60005b8281101562000bdf5784890151825560018201915060208501945060208101905062000bb8565b8683101562000bff578489015162000bfb601f89168262000aef565b8355505b6001600288020188555050505b505050505050565b6132e08062000c246000396000f3fe608060405234801561001057600080fd5b50600436106100b45760003560e01c806391dab5701161007157806391dab570146101655780639233b3b414610195578063aa7e7fa7146101b1578063c87b56dd146101e1578063d9cf6a2614610211578063f2fde38b1461022f576100b4565b80631cb536ed146100b9578063451450ec146100d55780634639aa3f146100f15780635c622a0e1461010d578063715018a61461013d5780638da5cb5b14610147575b600080fd5b6100d360048036038101906100ce919061202e565b61024b565b005b6100ef60048036038101906100ea919061205b565b610626565b005b61010b600480360381019061010691906120d4565b610e30565b005b6101276004803603810190610122919061202e565b61171f565b6040516101349190612187565b60405180910390f35b610145611787565b005b61014f61179b565b60405161015c91906121e3565b60405180910390f35b61017f600480360381019061017a919061202e565b6117c4565b60405161018c91906122ad565b60405180910390f35b6101af60048036038101906101aa91906124cb565b61182f565b005b6101cb60048036038101906101c6919061202e565b61197c565b6040516101d8919061257a565b60405180910390f35b6101fb60048036038101906101f6919061202e565b611a26565b6040516102089190612614565b60405180910390f35b610219611c2c565b60405161022691906127f9565b60405180910390f35b61024960048036038101906102449190612847565b611dec565b005b803373ffffffffffffffffffffffffffffffffffffffff16600160009054906101000a900473ffffffffffffffffffffffffffffffffffffffff1673ffffffffffffffffffffffffffffffffffffffff16636352211e60066000858152602001908152602001600020546040518263ffffffff1660e01b81526004016102d1919061257a565b602060405180830381865afa1580156102ee573d6000803e3d6000fd5b505050506040513d601f19601f820116820180604052508101906103129190612889565b73ffffffffffffffffffffffffffffffffffffffff1614610368576040517f08c379a000000000000000000000000000000000000000000000000000000000815260040161035f90612902565b60405180910390fd5b60006103738361171f565b905060006003826060015160ff168154811061039257610391612922565b5b9060005260206000209060080201604051806101000160405290816000820154815260200160018201548152602001600282015481526020016003820154815260200160048201548152602001600582015481526020016006820180546103f890612980565b80601f016020809104026020016040519081016040528092919081815260200182805461042490612980565b80156104715780601f1061044657610100808354040283529160200191610471565b820191906000526020600020905b81548152906001019060200180831161045457829003601f168201915b5050505050815260200160078201805461048a90612980565b80601f01602080910402602001604051908101604052809291908181526020018280546104b690612980565b80156105035780601f106104d857610100808354040283529160200191610503565b820191906000526020600020905b8154815290600101906020018083116104e657829003601f168201915b505050505081525050905060006105198561197c565b9050426004600087815260200190815260200160002060010181905550600160009054906101000a900473ffffffffffffffffffffffffffffffffffffffff1673ffffffffffffffffffffffffffffffffffffffff1663728834a58360a0015183600460008a8152602001908152602001600020600201546040518463ffffffff1660e01b81526004016105af939291906129b1565b600060405180830381600087803b1580156105c957600080fd5b505af11580156105dd573d6000803e3d6000fd5b50505050847fe630ca519fedafd2bd9bd35ad65e198e08398f47c88ca063c406740992bcd1a4828460a001516040516106179291906129e8565b60405180910390a25050505050565b81600060046000838152602001908152602001600020600101549050600081426106509190612a40565b9050620151808110610697576040517f08c379a000000000000000000000000000000000000000000000000000000000815260040161068e90612ae6565b60405180910390fd5b60006004600087815260200190815260200160002060030160009054906101000a900460ff1660ff1690506000600460008881526020019081526020016000206000015490506000600383815481106106f3576106f2612922565b5b90600052602060002090600802016040518061010001604052908160008201548152602001600182015481526020016002820154815260200160038201548152602001600482015481526020016005820154815260200160068201805461075990612980565b80601f016020809104026020016040519081016040528092919081815260200182805461078590612980565b80156107d25780601f106107a7576101008083540402835291602001916107d2565b820191906000526020600020905b8154815290600101906020018083116107b557829003601f168201915b505050505081526020016007820180546107eb90612980565b80601f016020809104026020016040519081016040528092919081815260200182805461081790612980565b80156108645780601f1061083957610100808354040283529160200191610864565b820191906000526020600020905b81548152906001019060200180831161084757829003601f168201915b5050505050815250509050600060018361087e9190612b06565b826000015161088d9190612b3a565b9050600060018461089e9190612b06565b83602001516108ad9190612b3a565b905060006001856108be9190612b06565b84604001516108cd9190612b3a565b905060006001866108de9190612b06565b85606001516108ed9190612b3a565b905060006001876108fe9190612b06565b866080015161090d9190612b3a565b905084600160009054906101000a900473ffffffffffffffffffffffffffffffffffffffff1673ffffffffffffffffffffffffffffffffffffffff1663393c775f8e6040518263ffffffff1660e01b815260040161096b919061257a565b60a060405180830381865afa158015610988573d6000803e3d6000fd5b505050506040513d601f19601f820116820180604052508101906109ac9190612c1c565b6000600581106109bf576109be612922565b5b602002015110158015610a85575083600160009054906101000a900473ffffffffffffffffffffffffffffffffffffffff1673ffffffffffffffffffffffffffffffffffffffff1663393c775f8e6040518263ffffffff1660e01b8152600401610a29919061257a565b60a060405180830381865afa158015610a46573d6000803e3d6000fd5b505050506040513d601f19601f82011682018060405250810190610a6a9190612c1c565b600160058110610a7d57610a7c612922565b5b602002015110155b8015610b44575082600160009054906101000a900473ffffffffffffffffffffffffffffffffffffffff1673ffffffffffffffffffffffffffffffffffffffff1663393c775f8e6040518263ffffffff1660e01b8152600401610ae8919061257a565b60a060405180830381865afa158015610b05573d6000803e3d6000fd5b505050506040513d601f19601f82011682018060405250810190610b299190612c1c565b600260058110610b3c57610b3b612922565b5b602002015110155b8015610c03575081600160009054906101000a900473ffffffffffffffffffffffffffffffffffffffff1673ffffffffffffffffffffffffffffffffffffffff1663393c775f8e6040518263ffffffff1660e01b8152600401610ba7919061257a565b60a060405180830381865afa158015610bc4573d6000803e3d6000fd5b505050506040513d601f19601f82011682018060405250810190610be89190612c1c565b600360058110610bfb57610bfa612922565b5b602002015110155b8015610cc2575080600160009054906101000a900473ffffffffffffffffffffffffffffffffffffffff1673ffffffffffffffffffffffffffffffffffffffff1663393c775f8e6040518263ffffffff1660e01b8152600401610c66919061257a565b60a060405180830381865afa158015610c83573d6000803e3d6000fd5b505050506040513d601f19601f82011682018060405250810190610ca79190612c1c565b600460058110610cba57610cb9612922565b5b602002015110155b610d01576040517f08c379a0000000000000000000000000000000000000000000000000000000008152600401610cf890612c95565b60405180910390fd5b600160009054906101000a900473ffffffffffffffffffffffffffffffffffffffff1673ffffffffffffffffffffffffffffffffffffffff1663308fad6d8d6040518060a00160405280898152602001888152602001878152602001868152602001858152506040518363ffffffff1660e01b8152600401610d84929190612d39565b600060405180830381600087803b158015610d9e57600080fd5b505af1158015610db2573d6000803e3d6000fd5b50505050600187610dc39190612b06565b600460008f8152602001908152602001600020600001819055508c7feb0ebb51128928d7b1a6419c52128a9319bfcb55f0adafea75afbf75f9f2f3e9600189610e0c9190612b06565b604051610e19919061257a565b60405180910390a250505050505050505050505050565b813373ffffffffffffffffffffffffffffffffffffffff16600160009054906101000a900473ffffffffffffffffffffffffffffffffffffffff1673ffffffffffffffffffffffffffffffffffffffff16636352211e836040518263ffffffff1660e01b8152600401610ea3919061257a565b602060405180830381865afa158015610ec0573d6000803e3d6000fd5b505050506040513d601f19601f82011682018060405250810190610ee49190612889565b73ffffffffffffffffffffffffffffffffffffffff1614610f3a576040517f08c379a0000000000000000000000000000000000000000000000000000000008152600401610f3190612dae565b60405180910390fd5b6003805490508260ff1610610f84576040517f08c379a0000000000000000000000000000000000000000000000000000000008152600401610f7b90612e1a565b60405180910390fd5b600060038360ff1681548110610f9d57610f9c612922565b5b90600052602060002090600802016040518061010001604052908160008201548152602001600182015481526020016002820154815260200160038201548152602001600482015481526020016005820154815260200160068201805461100390612980565b80601f016020809104026020016040519081016040528092919081815260200182805461102f90612980565b801561107c5780601f106110515761010080835404028352916020019161107c565b820191906000526020600020905b81548152906001019060200180831161105f57829003601f168201915b5050505050815260200160078201805461109590612980565b80601f01602080910402602001604051908101604052809291908181526020018280546110c190612980565b801561110e5780601f106110e35761010080835404028352916020019161110e565b820191906000526020600020905b8154815290600101906020018083116110f157829003601f168201915b50505050508152505090508060000151600160009054906101000a900473ffffffffffffffffffffffffffffffffffffffff1673ffffffffffffffffffffffffffffffffffffffff1663393c775f866040518263ffffffff1660e01b8152600401611179919061257a565b60a060405180830381865afa158015611196573d6000803e3d6000fd5b505050506040513d601f19601f820116820180604052508101906111ba9190612c1c565b6000600581106111cd576111cc612922565b5b60200201511015801561129757508060200151600160009054906101000a900473ffffffffffffffffffffffffffffffffffffffff1673ffffffffffffffffffffffffffffffffffffffff1663393c775f866040518263ffffffff1660e01b815260040161123b919061257a565b60a060405180830381865afa158015611258573d6000803e3d6000fd5b505050506040513d601f19601f8201168201806040525081019061127c9190612c1c565b60016005811061128f5761128e612922565b5b602002015110155b801561135a57508060400151600160009054906101000a900473ffffffffffffffffffffffffffffffffffffffff1673ffffffffffffffffffffffffffffffffffffffff1663393c775f866040518263ffffffff1660e01b81526004016112fe919061257a565b60a060405180830381865afa15801561131b573d6000803e3d6000fd5b505050506040513d601f19601f8201168201806040525081019061133f9190612c1c565b60026005811061135257611351612922565b5b602002015110155b801561141d57508060800151600160009054906101000a900473ffffffffffffffffffffffffffffffffffffffff1673ffffffffffffffffffffffffffffffffffffffff1663393c775f866040518263ffffffff1660e01b81526004016113c1919061257a565b60a060405180830381865afa1580156113de573d6000803e3d6000fd5b505050506040513d601f19601f820116820180604052508101906114029190612c1c565b60036005811061141557611414612922565b5b602002015110155b80156114e057508060600151600160009054906101000a900473ffffffffffffffffffffffffffffffffffffffff1673ffffffffffffffffffffffffffffffffffffffff1663393c775f866040518263ffffffff1660e01b8152600401611484919061257a565b60a060405180830381865afa1580156114a1573d6000803e3d6000fd5b505050506040513d601f19601f820116820180604052508101906114c59190612c1c565b6004600581106114d8576114d7612922565b5b602002015110155b61151f576040517f08c379a000000000000000000000000000000000000000000000000000000000815260040161151690612c95565b60405180910390fd5b600160009054906101000a900473ffffffffffffffffffffffffffffffffffffffff1673ffffffffffffffffffffffffffffffffffffffff1663308fad6d856040518060a001604052808560000151815260200185602001518152602001856040015181526020018560800151815260200185606001518152506040518363ffffffff1660e01b81526004016115b6929190612d39565b600060405180830381600087803b1580156115d057600080fd5b505af11580156115e4573d6000803e3d6000fd5b5050505083600660006002548152602001908152602001600020819055506040518060800160405280600181526020014281526020018581526020018460ff1681525060046000600254815260200190815260200160002060008201518160000155602082015181600101556040820151816002015560608201518160030160006101000a81548160ff021916908360ff160217905550905050600560008581526020019081526020016000206002549080600181540180825580915050600190039060005260206000200160009091909190915055600260008154809291906116cd90612e3a565b91905055508360016002546116e29190612a40565b7fcbecf69dc8611949e753d337378fb4ace6f6ad1e31b5fbf86b6379ea0279ca74856040516117119190612ebd565b60405180910390a350505050565b611727611fb9565b600460008381526020019081526020016000206040518060800160405290816000820154815260200160018201548152602001600282015481526020016003820160009054906101000a900460ff1660ff1660ff16815250509050919050565b61178f611e6f565b6117996000611eed565b565b60008060009054906101000a900473ffffffffffffffffffffffffffffffffffffffff16905090565b60606005600083815260200190815260200160002080548060200260200160405190810160405280929190818152602001828054801561182357602002820191906000526020600020905b81548152602001906001019080831161180f575b50505050509050919050565b611837611e6f565b6040518061010001604052808460006005811061185757611856612922565b5b602002015181526020018460016005811061187557611874612922565b5b602002015181526020018460026005811061189357611892612922565b5b60200201518152602001846003600581106118b1576118b0612922565b5b60200201518152602001846004600581106118cf576118ce612922565b5b6020020151815260200185815260200183815260200182815250600385815481106118fd576118fc612922565b5b9060005260206000209060080201600082015181600001556020820151816001015560408201518160020155606082015181600301556080820151816004015560a0820151816005015560c082015181600601908161195c919061307a565b5060e0820151816007019081611972919061307a565b5090505050505050565b6000806119888361171f565b9050600081602001519050600081426119a19190612a40565b90506000676f05b59d3b20000084600001516119bd9190612b3a565b905060008162015180846119d1919061317b565b6119db9190612b3a565b905084600001516804563918244f4000006119f69190612b3a565b811115611a195784600001516804563918244f400000611a169190612b3a565b90505b8095505050505050919050565b60606000600460008481526020019081526020016000206040518060800160405290816000820154815260200160018201548152602001600282015481526020016003820160009054906101000a900460ff1660ff1660ff1681525050905060006003826060015160ff1681548110611aa257611aa1612922565b5b906000526020600020906008020160405180610100016040529081600082015481526020016001820154815260200160028201548152602001600382015481526020016004820154815260200160058201548152602001600682018054611b0890612980565b80601f0160208091040260200160405190810160405280929190818152602001828054611b3490612980565b8015611b815780601f10611b5657610100808354040283529160200191611b81565b820191906000526020600020905b815481529060010190602001808311611b6457829003601f168201915b50505050508152602001600782018054611b9a90612980565b80601f0160208091040260200160405190810160405280929190818152602001828054611bc690612980565b8015611c135780601f10611be857610100808354040283529160200191611c13565b820191906000526020600020905b815481529060010190602001808311611bf657829003601f168201915b50505050508152505090508060c0015192505050919050565b60606003805480602002602001604051908101604052809291908181526020016000905b82821015611de3578382906000526020600020906008020160405180610100016040529081600082015481526020016001820154815260200160028201548152602001600382015481526020016004820154815260200160058201548152602001600682018054611cc090612980565b80601f0160208091040260200160405190810160405280929190818152602001828054611cec90612980565b8015611d395780601f10611d0e57610100808354040283529160200191611d39565b820191906000526020600020905b815481529060010190602001808311611d1c57829003601f168201915b50505050508152602001600782018054611d5290612980565b80601f0160208091040260200160405190810160405280929190818152602001828054611d7e90612980565b8015611dcb5780601f10611da057610100808354040283529160200191611dcb565b820191906000526020600020905b815481529060010190602001808311611dae57829003601f168201915b50505050508152505081526020019060010190611c50565b50505050905090565b611df4611e6f565b600073ffffffffffffffffffffffffffffffffffffffff168173ffffffffffffffffffffffffffffffffffffffff1603611e63576040517f08c379a0000000000000000000000000000000000000000000000000000000008152600401611e5a9061321e565b60405180910390fd5b611e6c81611eed565b50565b611e77611fb1565b73ffffffffffffffffffffffffffffffffffffffff16611e9561179b565b73ffffffffffffffffffffffffffffffffffffffff1614611eeb576040517f08c379a0000000000000000000000000000000000000000000000000000000008152600401611ee29061328a565b60405180910390fd5b565b60008060009054906101000a900473ffffffffffffffffffffffffffffffffffffffff169050816000806101000a81548173ffffffffffffffffffffffffffffffffffffffff021916908373ffffffffffffffffffffffffffffffffffffffff1602179055508173ffffffffffffffffffffffffffffffffffffffff168173ffffffffffffffffffffffffffffffffffffffff167f8be0079c531659141344cd1fd0a4f28419497f9722a3daafe3b4186f6b6457e060405160405180910390a35050565b600033905090565b6040518060800160405280600081526020016000815260200160008152602001600060ff1681525090565b6000604051905090565b600080fd5b600080fd5b6000819050919050565b61200b81611ff8565b811461201657600080fd5b50565b60008135905061202881612002565b92915050565b60006020828403121561204457612043611fee565b5b600061205284828501612019565b91505092915050565b6000806040838503121561207257612071611fee565b5b600061208085828601612019565b925050602061209185828601612019565b9150509250929050565b600060ff82169050919050565b6120b18161209b565b81146120bc57600080fd5b50565b6000813590506120ce816120a8565b92915050565b600080604083850312156120eb576120ea611fee565b5b60006120f985828601612019565b925050602061210a858286016120bf565b9150509250929050565b61211d81611ff8565b82525050565b61212c8161209b565b82525050565b6080820160008201516121486000850182612114565b50602082015161215b6020850182612114565b50604082015161216e6040850182612114565b5060608201516121816060850182612123565b50505050565b600060808201905061219c6000830184612132565b92915050565b600073ffffffffffffffffffffffffffffffffffffffff82169050919050565b60006121cd826121a2565b9050919050565b6121dd816121c2565b82525050565b60006020820190506121f860008301846121d4565b92915050565b600081519050919050565b600082825260208201905092915050565b6000819050602082019050919050565b60006122368383612114565b60208301905092915050565b6000602082019050919050565b600061225a826121fe565b6122648185612209565b935061226f8361221a565b8060005b838110156122a0578151612287888261222a565b975061229283612242565b925050600181019050612273565b5085935050505092915050565b600060208201905081810360008301526122c7818461224f565b905092915050565b600080fd5b6000601f19601f8301169050919050565b7f4e487b7100000000000000000000000000000000000000000000000000000000600052604160045260246000fd5b61231d826122d4565b810181811067ffffffffffffffff8211171561233c5761233b6122e5565b5b80604052505050565b600061234f611fe4565b905061235b8282612314565b919050565b600067ffffffffffffffff82111561237b5761237a6122e5565b5b602082029050919050565b600080fd5b600061239e61239984612360565b612345565b905080602084028301858111156123b8576123b7612386565b5b835b818110156123e157806123cd8882612019565b8452602084019350506020810190506123ba565b5050509392505050565b600082601f830112612400576123ff6122cf565b5b600561240d84828561238b565b91505092915050565b600080fd5b600067ffffffffffffffff821115612436576124356122e5565b5b61243f826122d4565b9050602081019050919050565b82818337600083830152505050565b600061246e6124698461241b565b612345565b90508281526020810184848401111561248a57612489612416565b5b61249584828561244c565b509392505050565b600082601f8301126124b2576124b16122cf565b5b81356124c284826020860161245b565b91505092915050565b60008060008061010085870312156124e6576124e5611fee565b5b60006124f487828801612019565b9450506020612505878288016123eb565b93505060c085013567ffffffffffffffff81111561252657612525611ff3565b5b6125328782880161249d565b92505060e085013567ffffffffffffffff81111561255357612552611ff3565b5b61255f8782880161249d565b91505092959194509250565b61257481611ff8565b82525050565b600060208201905061258f600083018461256b565b92915050565b600081519050919050565b600082825260208201905092915050565b60005b838110156125cf5780820151818401526020810190506125b4565b60008484015250505050565b60006125e682612595565b6125f081856125a0565b93506126008185602086016125b1565b612609816122d4565b840191505092915050565b6000602082019050818103600083015261262e81846125db565b905092915050565b600081519050919050565b600082825260208201905092915050565b6000819050602082019050919050565b600082825260208201905092915050565b600061267e82612595565b6126888185612662565b93506126988185602086016125b1565b6126a1816122d4565b840191505092915050565b6000610100830160008301516126c56000860182612114565b5060208301516126d86020860182612114565b5060408301516126eb6040860182612114565b5060608301516126fe6060860182612114565b5060808301516127116080860182612114565b5060a083015161272460a0860182612114565b5060c083015184820360c086015261273c8282612673565b91505060e083015184820360e08601526127568282612673565b9150508091505092915050565b600061276f83836126ac565b905092915050565b6000602082019050919050565b600061278f82612636565b6127998185612641565b9350836020820285016127ab85612652565b8060005b858110156127e757848403895281516127c88582612763565b94506127d383612777565b925060208a019950506001810190506127af565b50829750879550505050505092915050565b600060208201905081810360008301526128138184612784565b905092915050565b612824816121c2565b811461282f57600080fd5b50565b6000813590506128418161281b565b92915050565b60006020828403121561285d5761285c611fee565b5b600061286b84828501612832565b91505092915050565b6000815190506128838161281b565b92915050565b60006020828403121561289f5761289e611fee565b5b60006128ad84828501612874565b91505092915050565b7f4e6f74206f776e656420627920796f7500000000000000000000000000000000600082015250565b60006128ec6010836125a0565b91506128f7826128b6565b602082019050919050565b6000602082019050818103600083015261291b816128df565b9050919050565b7f4e487b7100000000000000000000000000000000000000000000000000000000600052603260045260246000fd5b7f4e487b7100000000000000000000000000000000000000000000000000000000600052602260045260246000fd5b6000600282049050600182168061299857607f821691505b6020821081036129ab576129aa612951565b5b50919050565b60006060820190506129c6600083018661256b565b6129d3602083018561256b565b6129e0604083018461256b565b949350505050565b60006040820190506129fd600083018561256b565b612a0a602083018461256b565b9392505050565b7f4e487b7100000000000000000000000000000000000000000000000000000000600052601160045260246000fd5b6000612a4b82611ff8565b9150612a5683611ff8565b9250828203905081811115612a6e57612a6d612a11565b5b92915050565b7f536f7272792c20726576656e75652073686f756c6420636c61696d206265666f60008201527f726520616374696f6e0000000000000000000000000000000000000000000000602082015250565b6000612ad06029836125a0565b9150612adb82612a74565b604082019050919050565b60006020820190508181036000830152612aff81612ac3565b9050919050565b6000612b1182611ff8565b9150612b1c83611ff8565b9250828201905080821115612b3457612b33612a11565b5b92915050565b6000612b4582611ff8565b9150612b5083611ff8565b9250828202612b5e81611ff8565b91508282048414831517612b7557612b74612a11565b5b5092915050565b600081519050612b8b81612002565b92915050565b6000612ba4612b9f84612360565b612345565b90508060208402830185811115612bbe57612bbd612386565b5b835b81811015612be75780612bd38882612b7c565b845260208401935050602081019050612bc0565b5050509392505050565b600082601f830112612c0657612c056122cf565b5b6005612c13848285612b91565b91505092915050565b600060a08284031215612c3257612c31611fee565b5b6000612c4084828501612bf1565b91505092915050565b7f496e73756666696369656e7420636f6d6d6f6469746965730000000000000000600082015250565b6000612c7f6018836125a0565b9150612c8a82612c49565b602082019050919050565b60006020820190508181036000830152612cae81612c72565b9050919050565b600060059050919050565b600081905092915050565b6000819050919050565b6000602082019050919050565b612ceb81612cb5565b612cf58184612cc0565b9250612d0082612ccb565b8060005b83811015612d31578151612d18878261222a565b9650612d2383612cd5565b925050600181019050612d04565b505050505050565b600060c082019050612d4e600083018561256b565b612d5b6020830184612ce2565b9392505050565b7f4c616e64206e6f74206f776e656420627920796f750000000000000000000000600082015250565b6000612d986015836125a0565b9150612da382612d62565b602082019050919050565b60006020820190508181036000830152612dc781612d8b565b9050919050565b7f4275696c64696e67206973206e6f742076616c69640000000000000000000000600082015250565b6000612e046015836125a0565b9150612e0f82612dce565b602082019050919050565b60006020820190508181036000830152612e3381612df7565b9050919050565b6000612e4582611ff8565b91507fffffffffffffffffffffffffffffffffffffffffffffffffffffffffffffffff8203612e7757612e76612a11565b5b600182019050919050565b6000819050919050565b6000612ea7612ea2612e9d8461209b565b612e82565b611ff8565b9050919050565b612eb781612e8c565b82525050565b6000602082019050612ed26000830184612eae565b92915050565b60008190508160005260206000209050919050565b60006020601f8301049050919050565b600082821b905092915050565b600060088302612f3a7fffffffffffffffffffffffffffffffffffffffffffffffffffffffffffffffff82612efd565b612f448683612efd565b95508019841693508086168417925050509392505050565b6000612f77612f72612f6d84611ff8565b612e82565b611ff8565b9050919050565b6000819050919050565b612f9183612f5c565b612fa5612f9d82612f7e565b848454612f0a565b825550505050565b600090565b612fba612fad565b612fc5818484612f88565b505050565b5b81811015612fe957612fde600082612fb2565b600181019050612fcb565b5050565b601f82111561302e57612fff81612ed8565b61300884612eed565b81016020851015613017578190505b61302b61302385612eed565b830182612fca565b50505b505050565b600082821c905092915050565b600061305160001984600802613033565b1980831691505092915050565b600061306a8383613040565b9150826002028217905092915050565b61308382612595565b67ffffffffffffffff81111561309c5761309b6122e5565b5b6130a68254612980565b6130b1828285612fed565b600060209050601f8311600181146130e457600084156130d2578287015190505b6130dc858261305e565b865550613144565b601f1984166130f286612ed8565b60005b8281101561311a578489015182556001820191506020850194506020810190506130f5565b868310156131375784890151613133601f891682613040565b8355505b6001600288020188555050505b505050505050565b7f4e487b7100000000000000000000000000000000000000000000000000000000600052601260045260246000fd5b600061318682611ff8565b915061319183611ff8565b9250826131a1576131a061314c565b5b828204905092915050565b7f4f776e61626c653a206e6577206f776e657220697320746865207a65726f206160008201527f6464726573730000000000000000000000000000000000000000000000000000602082015250565b60006132086026836125a0565b9150613213826131ac565b604082019050919050565b60006020820190508181036000830152613237816131fb565b9050919050565b7f4f776e61626c653a2063616c6c6572206973206e6f7420746865206f776e6572600082015250565b60006132746020836125a0565b915061327f8261323e565b602082019050919050565b600060208201905081810360008301526132a381613267565b905091905056fea264697066735822122053b387dbe26961d26d7c4912b204fad8905e98f9a570c0c983f183bf6058a0b064736f6c6343000813003368747470733a2f2f697066732e696f2f697066732f516d553939647870774d6f464147536f51504c7842365956416f59536b31697762446f4b6a3243754d32704b794268747470733a2f2f697066732e696f2f697066732f516d504e6e66664e7467695848686246464b707a4a4736467767575452677057567637464a7a6135684b3756376f",
  "linkReferences": {},
  "deployedLinkReferences": {}
}