{
  "_format": "hh-sol-artifact-1",
  "contractName": "TownV2",
  "sourceName": "contracts/V2/TownV2.sol",
  "abi": [
    {
      "inputs": [
        {
          "internalType": "address",
          "name": "BlockchainsKingdomToken",
          "type": "address"
        },
        {
          "internalType": "address",
          "name": "landsContract",
          "type": "address"
        }
      ],
      "stateMutability": "nonpayable",
      "type": "constructor"
    },
    {
      "inputs": [],
      "name": "CallerIsNotOwner",
      "type": "error"
    },
    {
      "inputs": [],
      "name": "ClaimBeforeAction",
      "type": "error"
    },
    {
      "inputs": [],
      "name": "InsufficientArmy",
      "type": "error"
    },
    {
      "inputs": [],
      "name": "InsufficientCommodity",
      "type": "error"
    },
    {
      "inputs": [],
      "name": "InvalidItem",
      "type": "error"
    },
    {
      "inputs": [],
      "name": "InvalidLand",
      "type": "error"
    },
    {
      "inputs": [],
      "name": "LevelLessThanMin",
      "type": "error"
    },
    {
      "inputs": [],
      "name": "MaxCapacity",
      "type": "error"
    },
    {
      "inputs": [],
      "name": "TimeLimitation",
      "type": "error"
    },
    {
      "inputs": [],
      "name": "UnAuthorizedToken",
      "type": "error"
    },
    {
      "anonymous": false,
      "inputs": [
        {
          "indexed": true,
          "internalType": "uint256",
          "name": "attackerLandId",
          "type": "uint256"
        },
        {
          "indexed": true,
          "internalType": "uint256",
          "name": "defenderLandId",
          "type": "uint256"
        },
        {
          "indexed": false,
          "internalType": "bool",
          "name": "success",
          "type": "bool"
        },
        {
          "indexed": false,
          "internalType": "uint256[5]",
          "name": "lootAmounts",
          "type": "uint256[5]"
        }
      ],
      "name": "Attack",
      "type": "event"
    },
    {
      "anonymous": false,
      "inputs": [
        {
          "indexed": false,
          "internalType": "uint256",
          "name": "buildingTypeIndex",
          "type": "uint256"
        },
        {
          "indexed": true,
          "internalType": "uint256",
          "name": "buildingId",
          "type": "uint256"
        },
        {
          "indexed": true,
          "internalType": "uint256",
          "name": "landTokenId",
          "type": "uint256"
        }
      ],
      "name": "Build",
      "type": "event"
    },
    {
      "anonymous": false,
      "inputs": [
        {
          "indexed": true,
          "internalType": "address",
          "name": "previousOwner",
          "type": "address"
        },
        {
          "indexed": true,
          "internalType": "address",
          "name": "newOwner",
          "type": "address"
        }
      ],
      "name": "OwnershipTransferred",
      "type": "event"
    },
    {
      "anonymous": false,
      "inputs": [
        {
          "indexed": true,
          "internalType": "uint256",
          "name": "buildingId",
          "type": "uint256"
        },
        {
          "indexed": false,
          "internalType": "uint256",
          "name": "level",
          "type": "uint256"
        }
      ],
      "name": "Upgrade",
      "type": "event"
    },
    {
      "inputs": [
        {
          "internalType": "uint256[]",
          "name": "warriorsAmounts",
          "type": "uint256[]"
        },
        {
          "internalType": "uint256",
          "name": "attackerId",
          "type": "uint256"
        },
        {
          "internalType": "uint256",
          "name": "targetId",
          "type": "uint256"
        }
      ],
      "name": "attack",
      "outputs": [],
      "stateMutability": "nonpayable",
      "type": "function"
    },
    {
      "inputs": [
        {
          "internalType": "uint256",
          "name": "landTokenId",
          "type": "uint256"
        },
        {
          "internalType": "uint8",
          "name": "buildingIndex",
          "type": "uint8"
        }
      ],
      "name": "build",
      "outputs": [],
      "stateMutability": "nonpayable",
      "type": "function"
    },
    {
      "inputs": [
        {
          "internalType": "uint256",
          "name": "landTokenId",
          "type": "uint256"
        }
      ],
      "name": "buildBarracks",
      "outputs": [],
      "stateMutability": "nonpayable",
      "type": "function"
    },
    {
      "inputs": [
        {
          "internalType": "uint256",
          "name": "buildingTokenId",
          "type": "uint256"
        }
      ],
      "name": "claimRevenue",
      "outputs": [],
      "stateMutability": "nonpayable",
      "type": "function"
    },
    {
      "inputs": [
        {
          "internalType": "uint256",
          "name": "landTokenId",
          "type": "uint256"
        },
        {
          "internalType": "uint256",
          "name": "amount",
          "type": "uint256"
        },
        {
          "internalType": "uint256",
          "name": "commodityIndex",
          "type": "uint256"
        }
      ],
      "name": "deposit",
      "outputs": [],
      "stateMutability": "nonpayable",
      "type": "function"
    },
    {
      "inputs": [
        {
          "internalType": "uint256",
          "name": "landId",
          "type": "uint256"
        }
      ],
      "name": "getArmy",
      "outputs": [
        {
          "internalType": "uint256[]",
          "name": "",
          "type": "uint256[]"
        }
      ],
      "stateMutability": "view",
      "type": "function"
    },
    {
      "inputs": [
        {
          "internalType": "uint256",
          "name": "landTokenId",
          "type": "uint256"
        }
      ],
      "name": "getAssetsBal",
      "outputs": [
        {
          "internalType": "uint256[5]",
          "name": "",
          "type": "uint256[5]"
        }
      ],
      "stateMutability": "view",
      "type": "function"
    },
    {
      "inputs": [],
      "name": "getBarracksRequiredCommodities",
      "outputs": [
        {
          "internalType": "uint256[5]",
          "name": "",
          "type": "uint256[5]"
        }
      ],
      "stateMutability": "view",
      "type": "function"
    },
    {
      "inputs": [],
      "name": "getBuildings",
      "outputs": [
        {
          "components": [
            {
              "internalType": "uint256",
              "name": "requiredStone",
              "type": "uint256"
            },
            {
              "internalType": "uint256",
              "name": "requiredWood",
              "type": "uint256"
            },
            {
              "internalType": "uint256",
              "name": "requiredIron",
              "type": "uint256"
            },
            {
              "internalType": "uint256",
              "name": "requiredGold",
              "type": "uint256"
            },
            {
              "internalType": "uint256",
              "name": "requiredFood",
              "type": "uint256"
            },
            {
              "internalType": "uint256",
              "name": "revTokenIndex",
              "type": "uint256"
            },
            {
              "internalType": "string",
              "name": "buildingName",
              "type": "string"
            }
          ],
          "internalType": "struct TownV2.Info[]",
          "name": "",
          "type": "tuple[]"
        }
      ],
      "stateMutability": "view",
      "type": "function"
    },
    {
      "inputs": [
        {
          "internalType": "uint256",
          "name": "buildingTokenId",
          "type": "uint256"
        }
      ],
      "name": "getCurrentRevenue",
      "outputs": [
        {
          "internalType": "uint256",
          "name": "",
          "type": "uint256"
        }
      ],
      "stateMutability": "view",
      "type": "function"
    },
    {
      "inputs": [
        {
          "internalType": "uint256",
          "name": "landTokenId",
          "type": "uint256"
        }
      ],
      "name": "getLandIdData",
      "outputs": [
        {
          "components": [
            {
              "internalType": "uint256[5]",
              "name": "commoditiesBalance",
              "type": "uint256[5]"
            },
            {
              "internalType": "uint256",
              "name": "latestBuildTimeStamp",
              "type": "uint256"
            },
            {
              "internalType": "uint256[]",
              "name": "buildedBuildings",
              "type": "uint256[]"
            },
            {
              "internalType": "uint256",
              "name": "barracksLevel",
              "type": "uint256"
            }
          ],
          "internalType": "struct TownV2.LandIdData",
          "name": "",
          "type": "tuple"
        }
      ],
      "stateMutability": "view",
      "type": "function"
    },
    {
      "inputs": [
        {
          "internalType": "uint256",
          "name": "landTokenId",
          "type": "uint256"
        }
      ],
      "name": "getRemainedTimestamp",
      "outputs": [
        {
          "internalType": "uint256",
          "name": "",
          "type": "uint256"
        }
      ],
      "stateMutability": "view",
      "type": "function"
    },
    {
      "inputs": [
        {
          "internalType": "uint256",
          "name": "tokenId",
          "type": "uint256"
        }
      ],
      "name": "getStatus",
      "outputs": [
        {
          "components": [
            {
              "internalType": "uint256",
              "name": "level",
              "type": "uint256"
            },
            {
              "internalType": "uint256",
              "name": "latestActionTimestamp",
              "type": "uint256"
            },
            {
              "internalType": "uint256",
              "name": "attachedLand",
              "type": "uint256"
            },
            {
              "internalType": "uint8",
              "name": "buildingTypeIndex",
              "type": "uint8"
            }
          ],
          "internalType": "struct TownV2.Status",
          "name": "",
          "type": "tuple"
        }
      ],
      "stateMutability": "view",
      "type": "function"
    },
    {
      "inputs": [],
      "name": "getWarriorTypes",
      "outputs": [
        {
          "components": [
            {
              "internalType": "uint8",
              "name": "attackPower",
              "type": "uint8"
            },
            {
              "internalType": "uint8",
              "name": "defPower",
              "type": "uint8"
            },
            {
              "internalType": "uint8",
              "name": "hp",
              "type": "uint8"
            },
            {
              "internalType": "uint8",
              "name": "requiredLevel",
              "type": "uint8"
            },
            {
              "internalType": "string",
              "name": "name",
              "type": "string"
            },
            {
              "internalType": "uint256",
              "name": "price",
              "type": "uint256"
            }
          ],
          "internalType": "struct Barracks.WarriorInfo[]",
          "name": "",
          "type": "tuple[]"
        }
      ],
      "stateMutability": "view",
      "type": "function"
    },
    {
      "inputs": [],
      "name": "owner",
      "outputs": [
        {
          "internalType": "address",
          "name": "",
          "type": "address"
        }
      ],
      "stateMutability": "view",
      "type": "function"
    },
    {
      "inputs": [
        {
          "internalType": "uint256",
          "name": "landTokenId",
          "type": "uint256"
        },
        {
          "internalType": "uint256",
          "name": "typeIndex",
          "type": "uint256"
        },
        {
          "internalType": "uint256",
          "name": "amount",
          "type": "uint256"
        }
      ],
      "name": "recruit",
      "outputs": [],
      "stateMutability": "nonpayable",
      "type": "function"
    },
    {
      "inputs": [],
      "name": "renounceOwnership",
      "outputs": [],
      "stateMutability": "nonpayable",
      "type": "function"
    },
    {
      "inputs": [
        {
          "internalType": "uint256",
          "name": "landTokenId",
          "type": "uint256"
        },
        {
          "internalType": "uint256",
          "name": "amount",
          "type": "uint256"
        }
      ],
      "name": "splitDeposit",
      "outputs": [],
      "stateMutability": "nonpayable",
      "type": "function"
    },
    {
      "inputs": [
        {
          "internalType": "uint256",
          "name": "landTokenId",
          "type": "uint256"
        },
        {
          "internalType": "uint256",
          "name": "fromIndex",
          "type": "uint256"
        },
        {
          "internalType": "uint256",
          "name": "toIndex",
          "type": "uint256"
        },
        {
          "internalType": "uint256",
          "name": "amount",
          "type": "uint256"
        }
      ],
      "name": "swapCommodity",
      "outputs": [],
      "stateMutability": "nonpayable",
      "type": "function"
    },
    {
      "inputs": [
        {
          "internalType": "address",
          "name": "newOwner",
          "type": "address"
        }
      ],
      "name": "transferOwnership",
      "outputs": [],
      "stateMutability": "nonpayable",
      "type": "function"
    },
    {
      "inputs": [
        {
          "internalType": "uint8[3]",
          "name": "physicalInfo",
          "type": "uint8[3]"
        },
        {
          "internalType": "uint8",
          "name": "requiredLevel",
          "type": "uint8"
        },
        {
          "internalType": "string",
          "name": "name",
          "type": "string"
        },
        {
          "internalType": "uint256",
          "name": "price",
          "type": "uint256"
        },
        {
          "internalType": "uint256",
          "name": "typeIndex",
          "type": "uint256"
        }
      ],
      "name": "updateWarriorType_",
      "outputs": [],
      "stateMutability": "nonpayable",
      "type": "function"
    },
    {
      "inputs": [
        {
          "internalType": "uint256",
          "name": "buildingTokenId",
          "type": "uint256"
        },
        {
          "internalType": "uint256",
          "name": "landTokenId",
          "type": "uint256"
        }
      ],
      "name": "upgrade",
      "outputs": [],
      "stateMutability": "nonpayable",
      "type": "function"
    },
    {
      "inputs": [
        {
          "internalType": "uint256",
          "name": "amount",
          "type": "uint256"
        },
        {
          "internalType": "uint256",
          "name": "landTokenId",
          "type": "uint256"
        },
        {
          "internalType": "uint256",
          "name": "commodityIndex",
          "type": "uint256"
        }
      ],
      "name": "withdraw",
      "outputs": [],
      "stateMutability": "nonpayable",
      "type": "function"
    }
  ],
  "bytecode": "0x60806040526040518060a001604052806802b5e3af16b188000068ffffffffffffffffff1681526020016802b5e3af16b188000068ffffffffffffffffff1681526020016802b5e3af16b188000068ffffffffffffffffff1681526020016802b5e3af16b188000068ffffffffffffffffff16815260200168056bc75e2d6310000068ffffffffffffffffff168152506005906005620000a192919062000c78565b506001600a55348015620000b457600080fd5b50604051620063a1380380620063a18339818101604052810190620000da919062000d53565b620000fa620000ee62000bac60201b60201c565b62000bb460201b60201c565b60026040518060c00160405280603c60ff168152602001605a60ff168152602001608c60ff168152602001600160ff1681526020016040518060400160405280600881526020017f53706561726d616e0000000000000000000000000000000000000000000000008152508152602001674563918244f40000815250908060018154018082558091505060019003906000526020600020906003020160009091909190915060008201518160000160006101000a81548160ff021916908360ff16021790555060208201518160000160016101000a81548160ff021916908360ff16021790555060408201518160000160026101000a81548160ff021916908360ff16021790555060608201518160000160036101000a81548160ff021916908360ff16021790555060808201518160010190816200023a919062001014565b5060a08201518160020155505060026040518060c00160405280605a60ff168152602001604660ff16815260200160c860ff168152602001600260ff1681526020016040518060400160405280600981526020017f53776f7264736d616e00000000000000000000000000000000000000000000008152508152602001676f05b59d3b200000815250908060018154018082558091505060019003906000526020600020906003020160009091909190915060008201518160000160006101000a81548160ff021916908360ff16021790555060208201518160000160016101000a81548160ff021916908360ff16021790555060408201518160000160026101000a81548160ff021916908360ff16021790555060608201518160000160036101000a81548160ff021916908360ff160217905550608082015181600101908162000387919062001014565b5060a08201518160020155505060026040518060c00160405280602860ff168152602001603c60ff168152602001605060ff168152602001600360ff1681526020016040518060400160405280600681526020017f41726368657200000000000000000000000000000000000000000000000000008152508152602001678ac7230489e80000815250908060018154018082558091505060019003906000526020600020906003020160009091909190915060008201518160000160006101000a81548160ff021916908360ff16021790555060208201518160000160016101000a81548160ff021916908360ff16021790555060408201518160000160026101000a81548160ff021916908360ff16021790555060608201518160000160036101000a81548160ff021916908360ff1602179055506080820151816001019081620004d4919062001014565b5060a08201518160020155505081600460006101000a81548173ffffffffffffffffffffffffffffffffffffffff021916908373ffffffffffffffffffffffffffffffffffffffff16021790555080600360006101000a81548173ffffffffffffffffffffffffffffffffffffffff021916908373ffffffffffffffffffffffffffffffffffffffff160217905550600b6040518060e0016040528060008152602001680ad78ebc5ac62000008152602001680821ab0d441498000081526020016000815260200168015af1d78b58c400008152602001600081526020016040518060400160405280600a81526020017f53746f6e65206d696e65000000000000000000000000000000000000000000008152508152509080600181540180825580915050600190039060005260206000209060070201600090919091909150600082015181600001556020820151816001015560408201518160020155606082015181600301556080820151816004015560a0820151816005015560c082015181600601908162000667919062001014565b505050600b6040518060e001604052806802b5e3af16b188000081526020016802b5e3af16b18800008152602001680d8d726b7177a8000081526020016000815260200168015af1d78b58c400008152602001600181526020016040518060400160405280600b81526020017f4c756d626572206d696c6c0000000000000000000000000000000000000000008152508152509080600181540180825580915050600190039060005260206000209060070201600090919091909150600082015181600001556020820151816001015560408201518160020155606082015181600301556080820151816004015560a0820151816005015560c082015181600601908162000776919062001014565b505050600b6040518060e0016040528068056bc75e2d63100000815260200168056bc75e2d63100000815260200168056bc75e2d6310000081526020016000815260200168015af1d78b58c400008152602001600281526020016040518060400160405280600981526020017f49726f6e206d696e6500000000000000000000000000000000000000000000008152508152509080600181540180825580915050600190039060005260206000209060070201600090919091909150600082015181600001556020820151816001015560408201518160020155606082015181600301556080820151816004015560a0820151816005015560c082015181600601908162000885919062001014565b505050600b6040518060e00160405280680d8d726b7177a8000081526020016802b5e3af16b18800008152602001600081526020016000815260200168056bc75e2d631000008152602001600481526020016040518060400160405280600481526020017f4661726d000000000000000000000000000000000000000000000000000000008152508152509080600181540180825580915050600190039060005260206000209060070201600090919091909150600082015181600001556020820151816001015560408201518160020155606082015181600301556080820151816004015560a0820151816005015560c08201518160060190816200098c919062001014565b505050600b6040518060e00160405280680d8d726b7177a800008152602001680d8d726b7177a800008152602001680d8d726b7177a800008152602001600081526020016802b5e3af16b18800008152602001600381526020016040518060400160405280600981526020017f476f6c64206d696e6500000000000000000000000000000000000000000000008152508152509080600181540180825580915050600190039060005260206000209060070201600090919091909150600082015181600001556020820151816001015560408201518160020155606082015181600301556080820151816004015560a0820151816005015560c082015181600601908162000a9b919062001014565b50505060005b600581101562000b655769021e19e0c9bab2400000600c600062018aed8152602001908152602001600020600001826005811062000ae45762000ae3620010fb565b5b01600082825462000af6919062001159565b9250508190555069021e19e0c9bab2400000600c60006201aa358152602001908152602001600020600001826005811062000b365762000b35620010fb565b5b01600082825462000b48919062001159565b92505081905550808062000b5c9062001194565b91505062000aa1565b506001600c600062018aed8152602001908152602001600020600701819055506001600c60006201aa358152602001908152602001600020600701819055505050620011e1565b600033905090565b60008060009054906101000a900473ffffffffffffffffffffffffffffffffffffffff169050816000806101000a81548173ffffffffffffffffffffffffffffffffffffffff021916908373ffffffffffffffffffffffffffffffffffffffff1602179055508173ffffffffffffffffffffffffffffffffffffffff168173ffffffffffffffffffffffffffffffffffffffff167f8be0079c531659141344cd1fd0a4f28419497f9722a3daafe3b4186f6b6457e060405160405180910390a35050565b826005810192821562000cb7579160200282015b8281111562000cb6578251829068ffffffffffffffffff1690559160200191906001019062000c8c565b5b50905062000cc6919062000cca565b5090565b5b8082111562000ce557600081600090555060010162000ccb565b5090565b600080fd5b600073ffffffffffffffffffffffffffffffffffffffff82169050919050565b600062000d1b8262000cee565b9050919050565b62000d2d8162000d0e565b811462000d3957600080fd5b50565b60008151905062000d4d8162000d22565b92915050565b6000806040838503121562000d6d5762000d6c62000ce9565b5b600062000d7d8582860162000d3c565b925050602062000d908582860162000d3c565b9150509250929050565b600081519050919050565b7f4e487b7100000000000000000000000000000000000000000000000000000000600052604160045260246000fd5b7f4e487b7100000000000000000000000000000000000000000000000000000000600052602260045260246000fd5b6000600282049050600182168062000e1c57607f821691505b60208210810362000e325762000e3162000dd4565b5b50919050565b60008190508160005260206000209050919050565b60006020601f8301049050919050565b600082821b905092915050565b60006008830262000e9c7fffffffffffffffffffffffffffffffffffffffffffffffffffffffffffffffff8262000e5d565b62000ea8868362000e5d565b95508019841693508086168417925050509392505050565b6000819050919050565b6000819050919050565b600062000ef562000eef62000ee98462000ec0565b62000eca565b62000ec0565b9050919050565b6000819050919050565b62000f118362000ed4565b62000f2962000f208262000efc565b84845462000e6a565b825550505050565b600090565b62000f4062000f31565b62000f4d81848462000f06565b505050565b5b8181101562000f755762000f6960008262000f36565b60018101905062000f53565b5050565b601f82111562000fc45762000f8e8162000e38565b62000f998462000e4d565b8101602085101562000fa9578190505b62000fc162000fb88562000e4d565b83018262000f52565b50505b505050565b600082821c905092915050565b600062000fe96000198460080262000fc9565b1980831691505092915050565b600062001004838362000fd6565b9150826002028217905092915050565b6200101f8262000d9a565b67ffffffffffffffff8111156200103b576200103a62000da5565b5b62001047825462000e03565b6200105482828562000f79565b600060209050601f8311600181146200108c576000841562001077578287015190505b62001083858262000ff6565b865550620010f3565b601f1984166200109c8662000e38565b60005b82811015620010c6578489015182556001820191506020850194506020810190506200109f565b86831015620010e65784890151620010e2601f89168262000fd6565b8355505b6001600288020188555050505b505050505050565b7f4e487b7100000000000000000000000000000000000000000000000000000000600052603260045260246000fd5b7f4e487b7100000000000000000000000000000000000000000000000000000000600052601160045260246000fd5b6000620011668262000ec0565b9150620011738362000ec0565b92508282019050808211156200118e576200118d6200112a565b5b92915050565b6000620011a18262000ec0565b91507fffffffffffffffffffffffffffffffffffffffffffffffffffffffffffffffff8203620011d657620011d56200112a565b5b600182019050919050565b6151b080620011f16000396000f3fe608060405234801561001057600080fd5b506004361061014c5760003560e01c80638251fab7116100c3578063aa7e7fa71161007c578063aa7e7fa714610371578063cc0e27ca146103a1578063cc920333146103bd578063d9cf6a26146103ed578063ec6a585f1461040b578063f2fde38b146104275761014c565b80638251fab7146102af578063886011f9146102cd5780638da5cb5b146102e9578063957d99e514610307578063a41fe49f14610325578063a58343da146103415761014c565b8063393c775f11610115578063393c775f146101f1578063451450ec146102215780634639aa3f1461023d5780635c622a0e14610259578063715018a614610289578063798d7067146102935761014c565b8062aeef8a146101515780630d9bfc3d1461016d5780631cb536ed146101895780633022b71a146101a5578063344f34f2146101d5575b600080fd5b61016b60048036038101906101669190613a67565b610443565b005b61018760048036038101906101829190613a67565b6105b8565b005b6101a3600480360381019061019e9190613aba565b610937565b005b6101bf60048036038101906101ba9190613aba565b610be7565b6040516101cc9190613c8d565b60405180910390f35b6101ef60048036038101906101ea9190613e08565b610cc5565b005b61020b60048036038101906102069190613aba565b610f42565b6040516102189190613ed9565b60405180910390f35b61023b60048036038101906102369190613ef4565b610fc7565b005b61025760048036038101906102529190613f6d565b6115a0565b005b610273600480360381019061026e9190613aba565b611b7b565b6040516102809190614011565b60405180910390f35b610291611be3565b005b6102ad60048036038101906102a89190613aba565b611bf7565b005b6102b761206e565b6040516102c49190613ed9565b60405180910390f35b6102e760048036038101906102e29190613ef4565b6120b8565b005b6102f161216a565b6040516102fe919061406d565b60405180910390f35b61030f612193565b60405161031c9190614252565b60405180910390f35b61033f600480360381019061033a9190613a67565b612302565b005b61035b60048036038101906103569190613aba565b6124f1565b60405161036891906142e3565b60405180910390f35b61038b60048036038101906103869190613aba565b6125b6565b6040516103989190614314565b60405180910390f35b6103bb60048036038101906103b69190614495565b612653565b005b6103d760048036038101906103d29190613aba565b6127ac565b6040516103e49190614314565b60405180910390f35b6103f5612807565b604051610402919061468a565b60405180910390f35b610425600480360381019061042091906146ac565b612934565b005b610441600480360381019061043c919061473f565b612b37565b005b823373ffffffffffffffffffffffffffffffffffffffff16600360009054906101000a900473ffffffffffffffffffffffffffffffffffffffff1673ffffffffffffffffffffffffffffffffffffffff16636352211e836040518263ffffffff1660e01b81526004016104b69190614314565b602060405180830381865afa1580156104d3573d6000803e3d6000fd5b505050506040513d601f19601f820116820180604052508101906104f79190614781565b73ffffffffffffffffffffffffffffffffffffffff1614610544576040517f6db2465f00000000000000000000000000000000000000000000000000000000815260040160405180910390fd5b610572600460009054906101000a900473ffffffffffffffffffffffffffffffffffffffff16333086612bba565b82600c6000868152602001908152602001600020600001836005811061059b5761059a6147ae565b5b0160008282546105ab919061480c565b9250508190555050505050565b823373ffffffffffffffffffffffffffffffffffffffff16600360009054906101000a900473ffffffffffffffffffffffffffffffffffffffff1673ffffffffffffffffffffffffffffffffffffffff16636352211e836040518263ffffffff1660e01b815260040161062b9190614314565b602060405180830381865afa158015610648573d6000803e3d6000fd5b505050506040513d601f19601f8201168201806040525081019061066c9190614781565b73ffffffffffffffffffffffffffffffffffffffff16146106b9576040517f6db2465f00000000000000000000000000000000000000000000000000000000815260040160405180910390fd5b6106c1612193565b5183106106fa576040517f4f66a31200000000000000000000000000000000000000000000000000000000815260040160405180910390fd5b600c600085815260200190815260200160002060070154610719612193565b848151811061072b5761072a6147ae565b5b60200260200101516060015160ff161115610772576040517f56ca09d100000000000000000000000000000000000000000000000000000000815260040160405180910390fd5b61077b84610f42565b60046005811061078e5761078d6147ae565b5b60200201518261079c612193565b85815181106107ae576107ad6147ae565b5b602002602001015160a001516107c49190614840565b11156107fc576040517f9a2f48b400000000000000000000000000000000000000000000000000000000815260040160405180910390fd5b6000610807856124f1565b9050600080600090505b82518110156108555782818151811061082d5761082c6147ae565b5b602002602001015182610840919061480c565b9150808061084d90614882565b915050610811565b508381610862919061480c565b603260ff16600c6000898152602001908152602001600020600701546108889190614840565b10156108c0576040517f336d90d000000000000000000000000000000000000000000000000000000000815260040160405180910390fd5b610924866040518060a0016040528060008152602001600081526020016000815260200160008152602001876108f4612193565b8a81518110610906576109056147ae565b5b602002602001015160a0015161091c9190614840565b815250612d12565b61092f858588612d8d565b505050505050565b803373ffffffffffffffffffffffffffffffffffffffff16600360009054906101000a900473ffffffffffffffffffffffffffffffffffffffff1673ffffffffffffffffffffffffffffffffffffffff16636352211e600e6000858152602001908152602001600020546040518263ffffffff1660e01b81526004016109bd9190614314565b602060405180830381865afa1580156109da573d6000803e3d6000fd5b505050506040513d601f19601f820116820180604052508101906109fe9190614781565b73ffffffffffffffffffffffffffffffffffffffff1614610a4b576040517f6db2465f00000000000000000000000000000000000000000000000000000000815260040160405180910390fd5b6000610a5683611b7b565b90506000600b826060015160ff1681548110610a7557610a746147ae565b5b90600052602060002090600702016040518060e0016040529081600082015481526020016001820154815260200160028201548152602001600382015481526020016004820154815260200160058201548152602001600682018054610ada906148f9565b80601f0160208091040260200160405190810160405280929190818152602001828054610b06906148f9565b8015610b535780601f10610b2857610100808354040283529160200191610b53565b820191906000526020600020905b815481529060010190602001808311610b3657829003601f168201915b50505050508152505090506000610b69856125b6565b905042600d60008781526020019081526020016000206001018190555080600c6000600d60008981526020019081526020016000206002015481526020019081526020016000206000018360a0015160058110610bc957610bc86147ae565b5b016000828254610bd9919061480c565b925050819055505050505050565b610bef6139a2565b600c600083815260200190815260200160002060405180608001604052908160008201600580602002604051908101604052809291908260058015610c49576020028201915b815481526020019060010190808311610c35575b505050505081526020016005820154815260200160068201805480602002602001604051908101604052809291908181526020018280548015610cab57602002820191906000526020600020905b815481526020019060010190808311610c97575b505050505081526020016007820154815250509050919050565b813373ffffffffffffffffffffffffffffffffffffffff16600360009054906101000a900473ffffffffffffffffffffffffffffffffffffffff1673ffffffffffffffffffffffffffffffffffffffff16636352211e836040518263ffffffff1660e01b8152600401610d389190614314565b602060405180830381865afa158015610d55573d6000803e3d6000fd5b505050506040513d601f19601f82011682018060405250810190610d799190614781565b73ffffffffffffffffffffffffffffffffffffffff1614610dc6576040517f6db2465f00000000000000000000000000000000000000000000000000000000815260040160405180910390fd5b600073ffffffffffffffffffffffffffffffffffffffff16600360009054906101000a900473ffffffffffffffffffffffffffffffffffffffff1673ffffffffffffffffffffffffffffffffffffffff16636352211e846040518263ffffffff1660e01b8152600401610e399190614314565b602060405180830381865afa158015610e56573d6000803e3d6000fd5b505050506040513d601f19601f82011682018060405250810190610e7a9190614781565b73ffffffffffffffffffffffffffffffffffffffff1603610ed0576040517f08c379a0000000000000000000000000000000000000000000000000000000008152600401610ec790614987565b60405180910390fd5b600080610ede868686612dcd565b91509150610eea6139d0565b8215610efe57610efb86868461310e565b90505b84867fac027589d3750b6cab4c0e375f36083f350beb623cddc1a1fe7365e5ae44c15b8584604051610f319291906149c2565b60405180910390a350505050505050565b610f4a6139d0565b610f526139d0565b60005b6005811015610fbd576000600c60008681526020019081526020016000206000018260058110610f8857610f876147ae565b5b0154905080838360058110610fa057610f9f6147ae565b5b602002018181525050508080610fb590614882565b915050610f55565b5080915050919050565b813373ffffffffffffffffffffffffffffffffffffffff16600360009054906101000a900473ffffffffffffffffffffffffffffffffffffffff1673ffffffffffffffffffffffffffffffffffffffff16636352211e600e6000858152602001908152602001600020546040518263ffffffff1660e01b815260040161104d9190614314565b602060405180830381865afa15801561106a573d6000803e3d6000fd5b505050506040513d601f19601f8201168201806040525081019061108e9190614781565b73ffffffffffffffffffffffffffffffffffffffff16146110db576040517f6db2465f00000000000000000000000000000000000000000000000000000000815260040160405180910390fd5b60006110e6836127ac565b1461111d576040517f4bc45d9a00000000000000000000000000000000000000000000000000000000815260040160405180910390fd5b61112683610937565b6000600d600085815260200190815260200160002060030160009054906101000a900460ff1660ff1690506000600d60008681526020019081526020016000206000015490506000600b8381548110611182576111816147ae565b5b90600052602060002090600702016040518060e00160405290816000820154815260200160018201548152602001600282015481526020016003820154815260200160048201548152602001600582015481526020016006820180546111e7906148f9565b80601f0160208091040260200160405190810160405280929190818152602001828054611213906148f9565b80156112605780601f1061123557610100808354040283529160200191611260565b820191906000526020600020905b81548152906001019060200180831161124357829003601f168201915b5050505050815250509050600182611278919061480c565b81600001516112879190614840565b600c60008781526020019081526020016000206000016000600581106112b0576112af6147ae565b5b01541015801561130557506001826112c8919061480c565b81602001516112d79190614840565b600c6000878152602001908152602001600020600001600160058110611300576112ff6147ae565b5b015410155b80156113565750600182611319919061480c565b81604001516113289190614840565b600c6000878152602001908152602001600020600001600260058110611351576113506147ae565b5b015410155b80156113a7575060018261136a919061480c565b81606001516113799190614840565b600c60008781526020019081526020016000206000016003600581106113a2576113a16147ae565b5b015410155b80156113f857506001826113bb919061480c565b81608001516113ca9190614840565b600c60008781526020019081526020016000206000016004600581106113f3576113f26147ae565b5b015410155b611437576040517f08c379a000000000000000000000000000000000000000000000000000000000815260040161142e90614a37565b60405180910390fd5b6114ee856040518060a00160405280600186611453919061480c565b85600001516114629190614840565b8152602001600186611474919061480c565b85602001516114839190614840565b8152602001600186611495919061480c565b85604001516114a49190614840565b81526020016001866114b6919061480c565b85606001516114c59190614840565b81526020016001866114d7919061480c565b85608001516114e69190614840565b815250612d12565b6001826114fb919061480c565b600d600088815260200190815260200160002060000181905550600182611522919061480c565b61546061152f9190614840565b4261153a919061480c565b600c600087815260200190815260200160002060050181905550857feb0ebb51128928d7b1a6419c52128a9319bfcb55f0adafea75afbf75f9f2f3e9600184611583919061480c565b6040516115909190614314565b60405180910390a2505050505050565b813373ffffffffffffffffffffffffffffffffffffffff16600360009054906101000a900473ffffffffffffffffffffffffffffffffffffffff1673ffffffffffffffffffffffffffffffffffffffff16636352211e836040518263ffffffff1660e01b81526004016116139190614314565b602060405180830381865afa158015611630573d6000803e3d6000fd5b505050506040513d601f19601f820116820180604052508101906116549190614781565b73ffffffffffffffffffffffffffffffffffffffff16146116a1576040517f6db2465f00000000000000000000000000000000000000000000000000000000815260040160405180910390fd5b600b805490508260ff16106116e2576040517f4f66a31200000000000000000000000000000000000000000000000000000000815260040160405180910390fd5b600c600084815260200190815260200160002060060180549050600c60ff1611611738576040517f336d90d000000000000000000000000000000000000000000000000000000000815260040160405180910390fd5b6000611743846127ac565b1461177a576040517f4bc45d9a00000000000000000000000000000000000000000000000000000000815260040160405180910390fd5b6000600b8360ff1681548110611793576117926147ae565b5b90600052602060002090600702016040518060e00160405290816000820154815260200160018201548152602001600282015481526020016003820154815260200160048201548152602001600582015481526020016006820180546117f8906148f9565b80601f0160208091040260200160405190810160405280929190818152602001828054611824906148f9565b80156118715780601f1061184657610100808354040283529160200191611871565b820191906000526020600020905b81548152906001019060200180831161185457829003601f168201915b50505050508152505090508060000151600c60008681526020019081526020016000206000016000600581106118aa576118a96147ae565b5b0154101580156118e857508060200151600c60008681526020019081526020016000206000016001600581106118e3576118e26147ae565b5b015410155b801561192257508060400151600c600086815260200190815260200160002060000160026005811061191d5761191c6147ae565b5b015410155b801561195c57508060800151600c6000868152602001908152602001600020600001600360058110611957576119566147ae565b5b015410155b801561199657508060600151600c6000868152602001908152602001600020600001600460058110611991576119906147ae565b5b015410155b6119d5576040517f08c379a00000000000000000000000000000000000000000000000000000000081526004016119cc90614a37565b60405180910390fd5b611a19846040518060a00160405280846000015181526020018460200151815260200184604001518152602001846080015181526020018460600151815250612d12565b83600e6000600a548152602001908152602001600020819055506040518060800160405280600181526020014281526020018581526020018460ff16815250600d6000600a54815260200190815260200160002060008201518160000155602082015181600101556040820151816002015560608201518160030160006101000a81548160ff021916908360ff160217905550905050600c6000858152602001908152602001600020600601600a549080600181540180825580915050600190039060005260206000200160009091909190915055600a6000815480929190611b0190614882565b919050555061546042611b14919061480c565b600c600086815260200190815260200160002060050181905550836001600a54611b3e9190614a57565b7fcbecf69dc8611949e753d337378fb4ace6f6ad1e31b5fbf86b6379ea0279ca7485604051611b6d9190614ac6565b60405180910390a350505050565b611b836139f2565b600d60008381526020019081526020016000206040518060800160405290816000820154815260200160018201548152602001600282015481526020016003820160009054906101000a900460ff1660ff1660ff16815250509050919050565b611beb613238565b611bf560006132b6565b565b803373ffffffffffffffffffffffffffffffffffffffff16600360009054906101000a900473ffffffffffffffffffffffffffffffffffffffff1673ffffffffffffffffffffffffffffffffffffffff16636352211e836040518263ffffffff1660e01b8152600401611c6a9190614314565b602060405180830381865afa158015611c87573d6000803e3d6000fd5b505050506040513d601f19601f82011682018060405250810190611cab9190614781565b73ffffffffffffffffffffffffffffffffffffffff1614611cf8576040517f6db2465f00000000000000000000000000000000000000000000000000000000815260040160405180910390fd5b813373ffffffffffffffffffffffffffffffffffffffff16600360009054906101000a900473ffffffffffffffffffffffffffffffffffffffff1673ffffffffffffffffffffffffffffffffffffffff16636352211e836040518263ffffffff1660e01b8152600401611d6b9190614314565b602060405180830381865afa158015611d88573d6000803e3d6000fd5b505050506040513d601f19601f82011682018060405250810190611dac9190614781565b73ffffffffffffffffffffffffffffffffffffffff1614611df9576040517f6db2465f00000000000000000000000000000000000000000000000000000000815260040160405180910390fd5b6000611e04846127ac565b14611e3b576040517f4bc45d9a00000000000000000000000000000000000000000000000000000000815260040160405180910390fd5b6000611e4684610f42565b90506005600060058110611e5d57611e5c6147ae565b5b015481600060058110611e7357611e726147ae565b5b602002015110158015611eb457506005600160058110611e9657611e956147ae565b5b015481600160058110611eac57611eab6147ae565b5b602002015110155b8015611eee57506005600260058110611ed057611ecf6147ae565b5b015481600260058110611ee657611ee56147ae565b5b602002015110155b8015611f2857506005600360058110611f0a57611f096147ae565b5b015481600360058110611f2057611f1f6147ae565b5b602002015110155b8015611f6257506005600460058110611f4457611f436147ae565b5b015481600460058110611f5a57611f596147ae565b5b602002015110155b611fa1576040517f08c379a0000000000000000000000000000000000000000000000000000000008152600401611f9890614a37565b60405180910390fd5b611fe78460058080602002604051908101604052809291908260058015611fdd576020028201915b815481526020019060010190808311611fc9575b5050505050612d12565b6001600c60008681526020019081526020016000206007015461200a919061480c565b6154606120179190614840565b42612022919061480c565b600c600086815260200190815260200160002060050181905550600c6000858152602001908152602001600020600701600081548092919061206390614882565b919050555050505050565b6120766139d0565b600580806020026040519081016040528092919082600580156120ae576020028201915b81548152602001906001019080831161209a575b5050505050905090565b6120e6600460009054906101000a900473ffffffffffffffffffffffffffffffffffffffff16333084612bba565b60005b600c6000848152602001908152602001600020506005811015612165576005826121139190614b10565b600c6000858152602001908152602001600020600001826005811061213b5761213a6147ae565b5b01600082825461214b919061480c565b92505081905550808061215d90614882565b9150506120e9565b505050565b60008060009054906101000a900473ffffffffffffffffffffffffffffffffffffffff16905090565b60606002805480602002602001604051908101604052809291908181526020016000905b828210156122f957838290600052602060002090600302016040518060c00160405290816000820160009054906101000a900460ff1660ff1660ff1681526020016000820160019054906101000a900460ff1660ff1660ff1681526020016000820160029054906101000a900460ff1660ff1660ff1681526020016000820160039054906101000a900460ff1660ff1660ff16815260200160018201805461225e906148f9565b80601f016020809104026020016040519081016040528092919081815260200182805461228a906148f9565b80156122d75780601f106122ac576101008083540402835291602001916122d7565b820191906000526020600020905b8154815290600101906020018083116122ba57829003601f168201915b50505050508152602001600282015481525050815260200190600101906121b7565b50505050905090565b813373ffffffffffffffffffffffffffffffffffffffff16600360009054906101000a900473ffffffffffffffffffffffffffffffffffffffff1673ffffffffffffffffffffffffffffffffffffffff16636352211e836040518263ffffffff1660e01b81526004016123759190614314565b602060405180830381865afa158015612392573d6000803e3d6000fd5b505050506040513d601f19601f820116820180604052508101906123b69190614781565b73ffffffffffffffffffffffffffffffffffffffff1614612403576040517f6db2465f00000000000000000000000000000000000000000000000000000000815260040160405180910390fd5b83600c6000858152602001908152602001600020600001836005811061242c5761242b6147ae565b5b01541015612466576040517f9a2f48b400000000000000000000000000000000000000000000000000000000815260040160405180910390fd5b83600c6000858152602001908152602001600020600001836005811061248f5761248e6147ae565b5b01600082825461249f9190614a57565b925050819055506124eb600460009054906101000a900473ffffffffffffffffffffffffffffffffffffffff16336064605f886124dc9190614840565b6124e69190614b10565b61337a565b50505050565b6060600060028054905067ffffffffffffffff81111561251457612513613cc5565b5b6040519080825280602002602001820160405280156125425781602001602082028036833780820191505090505b50905060005b6002805490508110156125ac576001600085815260200190815260200160002060008281526020019081526020016000205482828151811061258d5761258c6147ae565b5b60200260200101818152505080806125a490614882565b915050612548565b5080915050919050565b6000806125c283611b7b565b905060008160200151426125d69190614a57565b90506000670de0b6b3a76400008360000151612a30846125f69190614b10565b6126009190614840565b61260a9190614840565b905082600001516804563918244f4000006126259190614840565b8111156126485782600001516804563918244f4000006126459190614840565b90505b809350505050919050565b61265b613238565b6040518060c001604052808660006003811061267a576126796147ae565b5b602002015160ff1681526020018660016003811061269b5761269a6147ae565b5b602002015160ff168152602001866002600381106126bc576126bb6147ae565b5b602002015160ff1681526020018560ff16815260200184815260200183815250600282815481106126f0576126ef6147ae565b5b906000526020600020906003020160008201518160000160006101000a81548160ff021916908360ff16021790555060208201518160000160016101000a81548160ff021916908360ff16021790555060408201518160000160026101000a81548160ff021916908360ff16021790555060608201518160000160036101000a81548160ff021916908360ff16021790555060808201518160010190816127979190614ce3565b5060a082015181600201559050505050505050565b60008042600c60008581526020019081526020016000206005015411156127fe57603c42600c6000868152602001908152602001600020600501546127f19190614a57565b6127fb9190614b10565b90505b80915050919050565b6060600b805480602002602001604051908101604052809291908181526020016000905b8282101561292b57838290600052602060002090600702016040518060e001604052908160008201548152602001600182015481526020016002820154815260200160038201548152602001600482015481526020016005820154815260200160068201805461289a906148f9565b80601f01602080910402602001604051908101604052809291908181526020018280546128c6906148f9565b80156129135780601f106128e857610100808354040283529160200191612913565b820191906000526020600020905b8154815290600101906020018083116128f657829003601f168201915b5050505050815250508152602001906001019061282b565b50505050905090565b833373ffffffffffffffffffffffffffffffffffffffff16600360009054906101000a900473ffffffffffffffffffffffffffffffffffffffff1673ffffffffffffffffffffffffffffffffffffffff16636352211e836040518263ffffffff1660e01b81526004016129a79190614314565b602060405180830381865afa1580156129c4573d6000803e3d6000fd5b505050506040513d601f19601f820116820180604052508101906129e89190614781565b73ffffffffffffffffffffffffffffffffffffffff1614612a35576040517f6db2465f00000000000000000000000000000000000000000000000000000000815260040160405180910390fd5b81600c60008781526020019081526020016000206000018560058110612a5e57612a5d6147ae565b5b01541015612a98576040517f9a2f48b400000000000000000000000000000000000000000000000000000000815260040160405180910390fd5b81600c60008781526020019081526020016000206000018560058110612ac157612ac06147ae565b5b016000828254612ad19190614a57565b92505081905550600a600983612ae79190614840565b612af19190614b10565b600c60008781526020019081526020016000206000018460058110612b1957612b186147ae565b5b016000828254612b29919061480c565b925050819055505050505050565b612b3f613238565b600073ffffffffffffffffffffffffffffffffffffffff168173ffffffffffffffffffffffffffffffffffffffff1603612bae576040517f08c379a0000000000000000000000000000000000000000000000000000000008152600401612ba590614e27565b60405180910390fd5b612bb7816132b6565b50565b6000808573ffffffffffffffffffffffffffffffffffffffff166323b872dd60e01b868686604051602401612bf193929190614e47565b604051602081830303815290604052907bffffffffffffffffffffffffffffffffffffffffffffffffffffffff19166020820180517bffffffffffffffffffffffffffffffffffffffffffffffffffffffff8381831617835250505050604051612c5b9190614ec5565b6000604051808303816000865af19150503d8060008114612c98576040519150601f19603f3d011682016040523d82523d6000602084013e612c9d565b606091505b5091509150818015612ccb5750600081511480612cca575080806020019051810190612cc99190614f08565b5b5b612d0a576040517f08c379a0000000000000000000000000000000000000000000000000000000008152600401612d0190614f81565b60405180910390fd5b505050505050565b60005b6005811015612d8857818160058110612d3157612d306147ae565b5b6020020151600c60008581526020019081526020016000206000018260058110612d5e57612d5d6147ae565b5b016000828254612d6e9190614a57565b925050819055508080612d8090614882565b915050612d15565b505050565b816001600083815260200190815260200160002060008581526020019081526020016000206000828254612dc1919061480c565b92505081905550505050565b600080600280549050855114612e18576040517f08c379a0000000000000000000000000000000000000000000000000000000008152600401612e0f90614fed565b60405180910390fd5b6000806000806000612e29886124f1565b905060005b8a518110156130c0578a8181518110612e4a57612e496147ae565b5b6020026020010151600160008c81526020019081526020016000206000838152602001908152602001600020541015612eb8576040517f08c379a0000000000000000000000000000000000000000000000000000000008152600401612eaf90615059565b60405180910390fd5b8a8181518110612ecb57612eca6147ae565b5b6020026020010151600160008c815260200190815260200160002060008381526020019081526020016000206000828254612f069190614a57565b925050819055508a8181518110612f2057612f1f6147ae565b5b602002602001015160028281548110612f3c57612f3b6147ae565b5b906000526020600020906003020160000160009054906101000a900460ff1660ff16612f689190614840565b86612f73919061480c565b95508a8181518110612f8857612f876147ae565b5b602002602001015160028281548110612fa457612fa36147ae565b5b906000526020600020906003020160000160029054906101000a900460ff1660ff16612fd09190614840565b85612fdb919061480c565b9450818181518110612ff057612fef6147ae565b5b60200260200101516002828154811061300c5761300b6147ae565b5b906000526020600020906003020160000160019054906101000a900460ff1660ff166130389190614840565b84613043919061480c565b9350818181518110613058576130576147ae565b5b602002602001015160028281548110613074576130736147ae565b5b906000526020600020906003020160000160029054906101000a900460ff1660ff166130a09190614840565b836130ab919061480c565b925080806130b890614882565b915050612e2e565b5060008060006130d2888888886134cf565b9250925092506130e2818c613827565b6130ed8d838e6138e1565b8281836130fa9190614a57565b995099505050505050505050935093915050565b6131166139d0565b60005b6005811015613230576000606484600c6000888152602001908152602001600020600001846005811061314f5761314e6147ae565b5b015461315b9190614840565b6131659190614b10565b90508083836005811061317b5761317a6147ae565b5b60200201818152505080600c600087815260200190815260200160002060000183600581106131ad576131ac6147ae565b5b0160008282546131bd9190614a57565b9250508190555060646055826131d39190614840565b6131dd9190614b10565b600c60008881526020019081526020016000206000018360058110613205576132046147ae565b5b016000828254613215919061480c565b9250508190555050808061322890614882565b915050613119565b509392505050565b61324061399a565b73ffffffffffffffffffffffffffffffffffffffff1661325e61216a565b73ffffffffffffffffffffffffffffffffffffffff16146132b4576040517f08c379a00000000000000000000000000000000000000000000000000000000081526004016132ab906150c5565b60405180910390fd5b565b60008060009054906101000a900473ffffffffffffffffffffffffffffffffffffffff169050816000806101000a81548173ffffffffffffffffffffffffffffffffffffffff021916908373ffffffffffffffffffffffffffffffffffffffff1602179055508173ffffffffffffffffffffffffffffffffffffffff168173ffffffffffffffffffffffffffffffffffffffff167f8be0079c531659141344cd1fd0a4f28419497f9722a3daafe3b4186f6b6457e060405160405180910390a35050565b6000808473ffffffffffffffffffffffffffffffffffffffff1663a9059cbb60e01b85856040516024016133af9291906150e5565b604051602081830303815290604052907bffffffffffffffffffffffffffffffffffffffffffffffffffffffff19166020820180517bffffffffffffffffffffffffffffffffffffffffffffffffffffffff83818316178352505050506040516134199190614ec5565b6000604051808303816000865af19150503d8060008114613456576040519150601f19603f3d011682016040523d82523d6000602084013e61345b565b606091505b509150915081801561348957506000815114806134885750808060200190518101906134879190614f08565b5b5b6134c8576040517f08c379a00000000000000000000000000000000000000000000000000000000081526004016134bf9061515a565b60405180910390fd5b5050505050565b60008060008060008089871180156134e657508789115b156135e05789876134f79190614a57565b888a6135039190614a57565b1115613574576001905088606460038a61351d9190614b10565b8b6135289190614a57565b6135329190614840565b61353c9190614b10565b925086606460028c61354e9190614b10565b896135599190614a57565b6135639190614840565b61356d9190614b10565b91506135db565b6000905088606460028a6135889190614b10565b8b6135939190614a57565b61359d9190614840565b6135a79190614b10565b925086606460038c6135b99190614b10565b896135c49190614a57565b6135ce9190614840565b6135d89190614b10565b91505b613811565b898710156136fe576001905060026003886135fb9190614840565b6136059190614b10565b8a10156136425788606460048a61361c9190614b10565b8b6136279190614a57565b6136319190614840565b61363b9190614b10565b9250601e91505b8960026003896136529190614840565b61365c9190614b10565b1080156136745750896002886136729190614840565b115b156136af5788606460058a6136899190614b10565b8b6136949190614a57565b61369e9190614840565b6136a89190614b10565b9250600f91505b896002886136bd9190614840565b10156136f95788606460068a6136d39190614b10565b8b6136de9190614a57565b6136e89190614840565b6136f29190614b10565b9250600091505b613810565b60009050600260038a6137119190614840565b61371b9190614b10565b88101561375857601e925086606460048c6137369190614b10565b896137419190614a57565b61374b9190614840565b6137559190614b10565b91505b8760028a6137669190614840565b10156137a257600f925086606460058c6137809190614b10565b8961378b9190614a57565b6137959190614840565b61379f9190614b10565b91505b87600260038b6137b29190614840565b6137bc9190614b10565b1080156137d457508760028a6137d29190614840565b115b1561380f576000925086606460068c6137ed9190614b10565b896137f89190614a57565b6138029190614840565b61380c9190614b10565b91505b5b5b8083839550955095505050509450945094915050565b60005b6002805490508110156138dc5760006001600084815260200190815260200160002060008381526020019081526020016000205411156138c957606483600160008581526020019081526020016000206000848152602001908152602001600020546138969190614840565b6138a09190614b10565b600160008481526020019081526020016000206000838152602001908152602001600020819055505b80806138d490614882565b91505061382a565b505050565b60005b600280549050811015613994576000848281518110613906576139056147ae565b5b602002602001015111156139815760648385838151811061392a576139296147ae565b5b602002602001015161393c9190614840565b6139469190614b10565b6001600084815260200190815260200160002060008381526020019081526020016000206000828254613979919061480c565b925050819055505b808061398c90614882565b9150506138e4565b50505050565b600033905090565b60405180608001604052806139b56139d0565b81526020016000815260200160608152602001600081525090565b6040518060a00160405280600590602082028036833780820191505090505090565b6040518060800160405280600081526020016000815260200160008152602001600060ff1681525090565b6000604051905090565b600080fd5b600080fd5b6000819050919050565b613a4481613a31565b8114613a4f57600080fd5b50565b600081359050613a6181613a3b565b92915050565b600080600060608486031215613a8057613a7f613a27565b5b6000613a8e86828701613a52565b9350506020613a9f86828701613a52565b9250506040613ab086828701613a52565b9150509250925092565b600060208284031215613ad057613acf613a27565b5b6000613ade84828501613a52565b91505092915050565b600060059050919050565b600081905092915050565b6000819050919050565b613b1081613a31565b82525050565b6000613b228383613b07565b60208301905092915050565b6000602082019050919050565b613b4481613ae7565b613b4e8184613af2565b9250613b5982613afd565b8060005b83811015613b8a578151613b718782613b16565b9650613b7c83613b2e565b925050600181019050613b5d565b505050505050565b600081519050919050565b600082825260208201905092915050565b6000819050602082019050919050565b6000602082019050919050565b6000613bd682613b92565b613be08185613b9d565b9350613beb83613bae565b8060005b83811015613c1c578151613c038882613b16565b9750613c0e83613bbe565b925050600181019050613bef565b5085935050505092915050565b600061010083016000830151613c426000860182613b3b565b506020830151613c5560a0860182613b07565b50604083015184820360c0860152613c6d8282613bcb565b9150506060830151613c8260e0860182613b07565b508091505092915050565b60006020820190508181036000830152613ca78184613c29565b905092915050565b600080fd5b6000601f19601f8301169050919050565b7f4e487b7100000000000000000000000000000000000000000000000000000000600052604160045260246000fd5b613cfd82613cb4565b810181811067ffffffffffffffff82111715613d1c57613d1b613cc5565b5b80604052505050565b6000613d2f613a1d565b9050613d3b8282613cf4565b919050565b600067ffffffffffffffff821115613d5b57613d5a613cc5565b5b602082029050602081019050919050565b600080fd5b6000613d84613d7f84613d40565b613d25565b90508083825260208201905060208402830185811115613da757613da6613d6c565b5b835b81811015613dd05780613dbc8882613a52565b845260208401935050602081019050613da9565b5050509392505050565b600082601f830112613def57613dee613caf565b5b8135613dff848260208601613d71565b91505092915050565b600080600060608486031215613e2157613e20613a27565b5b600084013567ffffffffffffffff811115613e3f57613e3e613a2c565b5b613e4b86828701613dda565b9350506020613e5c86828701613a52565b9250506040613e6d86828701613a52565b9150509250925092565b600081905092915050565b613e8b81613ae7565b613e958184613e77565b9250613ea082613afd565b8060005b83811015613ed1578151613eb88782613b16565b9650613ec383613b2e565b925050600181019050613ea4565b505050505050565b600060a082019050613eee6000830184613e82565b92915050565b60008060408385031215613f0b57613f0a613a27565b5b6000613f1985828601613a52565b9250506020613f2a85828601613a52565b9150509250929050565b600060ff82169050919050565b613f4a81613f34565b8114613f5557600080fd5b50565b600081359050613f6781613f41565b92915050565b60008060408385031215613f8457613f83613a27565b5b6000613f9285828601613a52565b9250506020613fa385828601613f58565b9150509250929050565b613fb681613f34565b82525050565b608082016000820151613fd26000850182613b07565b506020820151613fe56020850182613b07565b506040820151613ff86040850182613b07565b50606082015161400b6060850182613fad565b50505050565b60006080820190506140266000830184613fbc565b92915050565b600073ffffffffffffffffffffffffffffffffffffffff82169050919050565b60006140578261402c565b9050919050565b6140678161404c565b82525050565b6000602082019050614082600083018461405e565b92915050565b600081519050919050565b600082825260208201905092915050565b6000819050602082019050919050565b600081519050919050565b600082825260208201905092915050565b60005b838110156140ee5780820151818401526020810190506140d3565b60008484015250505050565b6000614105826140b4565b61410f81856140bf565b935061411f8185602086016140d0565b61412881613cb4565b840191505092915050565b600060c08301600083015161414b6000860182613fad565b50602083015161415e6020860182613fad565b5060408301516141716040860182613fad565b5060608301516141846060860182613fad565b506080830151848203608086015261419c82826140fa565b91505060a08301516141b160a0860182613b07565b508091505092915050565b60006141c88383614133565b905092915050565b6000602082019050919050565b60006141e882614088565b6141f28185614093565b935083602082028501614204856140a4565b8060005b85811015614240578484038952815161422185826141bc565b945061422c836141d0565b925060208a01995050600181019050614208565b50829750879550505050505092915050565b6000602082019050818103600083015261426c81846141dd565b905092915050565b600082825260208201905092915050565b600061429082613b92565b61429a8185614274565b93506142a583613bae565b8060005b838110156142d65781516142bd8882613b16565b97506142c883613bbe565b9250506001810190506142a9565b5085935050505092915050565b600060208201905081810360008301526142fd8184614285565b905092915050565b61430e81613a31565b82525050565b60006020820190506143296000830184614305565b92915050565b600067ffffffffffffffff82111561434a57614349613cc5565b5b602082029050919050565b60006143686143638461432f565b613d25565b9050806020840283018581111561438257614381613d6c565b5b835b818110156143ab57806143978882613f58565b845260208401935050602081019050614384565b5050509392505050565b600082601f8301126143ca576143c9613caf565b5b60036143d7848285614355565b91505092915050565b600080fd5b600067ffffffffffffffff821115614400576143ff613cc5565b5b61440982613cb4565b9050602081019050919050565b82818337600083830152505050565b6000614438614433846143e5565b613d25565b905082815260208101848484011115614454576144536143e0565b5b61445f848285614416565b509392505050565b600082601f83011261447c5761447b613caf565b5b813561448c848260208601614425565b91505092915050565b600080600080600060e086880312156144b1576144b0613a27565b5b60006144bf888289016143b5565b95505060606144d088828901613f58565b945050608086013567ffffffffffffffff8111156144f1576144f0613a2c565b5b6144fd88828901614467565b93505060a061450e88828901613a52565b92505060c061451f88828901613a52565b9150509295509295909350565b600081519050919050565b600082825260208201905092915050565b6000819050602082019050919050565b600060e0830160008301516145706000860182613b07565b5060208301516145836020860182613b07565b5060408301516145966040860182613b07565b5060608301516145a96060860182613b07565b5060808301516145bc6080860182613b07565b5060a08301516145cf60a0860182613b07565b5060c083015184820360c08601526145e782826140fa565b9150508091505092915050565b60006146008383614558565b905092915050565b6000602082019050919050565b60006146208261452c565b61462a8185614537565b93508360208202850161463c85614548565b8060005b85811015614678578484038952815161465985826145f4565b945061466483614608565b925060208a01995050600181019050614640565b50829750879550505050505092915050565b600060208201905081810360008301526146a48184614615565b905092915050565b600080600080608085870312156146c6576146c5613a27565b5b60006146d487828801613a52565b94505060206146e587828801613a52565b93505060406146f687828801613a52565b925050606061470787828801613a52565b91505092959194509250565b61471c8161404c565b811461472757600080fd5b50565b60008135905061473981614713565b92915050565b60006020828403121561475557614754613a27565b5b60006147638482850161472a565b91505092915050565b60008151905061477b81614713565b92915050565b60006020828403121561479757614796613a27565b5b60006147a58482850161476c565b91505092915050565b7f4e487b7100000000000000000000000000000000000000000000000000000000600052603260045260246000fd5b7f4e487b7100000000000000000000000000000000000000000000000000000000600052601160045260246000fd5b600061481782613a31565b915061482283613a31565b925082820190508082111561483a576148396147dd565b5b92915050565b600061484b82613a31565b915061485683613a31565b925082820261486481613a31565b9150828204841483151761487b5761487a6147dd565b5b5092915050565b600061488d82613a31565b91507fffffffffffffffffffffffffffffffffffffffffffffffffffffffffffffffff82036148bf576148be6147dd565b5b600182019050919050565b7f4e487b7100000000000000000000000000000000000000000000000000000000600052602260045260246000fd5b6000600282049050600182168061491157607f821691505b602082108103614924576149236148ca565b5b50919050565b600082825260208201905092915050565b7f496e76616c6964206c616e640000000000000000000000000000000000000000600082015250565b6000614971600c8361492a565b915061497c8261493b565b602082019050919050565b600060208201905081810360008301526149a081614964565b9050919050565b60008115159050919050565b6149bc816149a7565b82525050565b600060c0820190506149d760008301856149b3565b6149e46020830184613e82565b9392505050565b7f496e73756666696369656e7420636f6d6d6f6469746965730000000000000000600082015250565b6000614a2160188361492a565b9150614a2c826149eb565b602082019050919050565b60006020820190508181036000830152614a5081614a14565b9050919050565b6000614a6282613a31565b9150614a6d83613a31565b9250828203905081811115614a8557614a846147dd565b5b92915050565b6000819050919050565b6000614ab0614aab614aa684613f34565b614a8b565b613a31565b9050919050565b614ac081614a95565b82525050565b6000602082019050614adb6000830184614ab7565b92915050565b7f4e487b7100000000000000000000000000000000000000000000000000000000600052601260045260246000fd5b6000614b1b82613a31565b9150614b2683613a31565b925082614b3657614b35614ae1565b5b828204905092915050565b60008190508160005260206000209050919050565b60006020601f8301049050919050565b600082821b905092915050565b600060088302614ba37fffffffffffffffffffffffffffffffffffffffffffffffffffffffffffffffff82614b66565b614bad8683614b66565b95508019841693508086168417925050509392505050565b6000614be0614bdb614bd684613a31565b614a8b565b613a31565b9050919050565b6000819050919050565b614bfa83614bc5565b614c0e614c0682614be7565b848454614b73565b825550505050565b600090565b614c23614c16565b614c2e818484614bf1565b505050565b5b81811015614c5257614c47600082614c1b565b600181019050614c34565b5050565b601f821115614c9757614c6881614b41565b614c7184614b56565b81016020851015614c80578190505b614c94614c8c85614b56565b830182614c33565b50505b505050565b600082821c905092915050565b6000614cba60001984600802614c9c565b1980831691505092915050565b6000614cd38383614ca9565b9150826002028217905092915050565b614cec826140b4565b67ffffffffffffffff811115614d0557614d04613cc5565b5b614d0f82546148f9565b614d1a828285614c56565b600060209050601f831160018114614d4d5760008415614d3b578287015190505b614d458582614cc7565b865550614dad565b601f198416614d5b86614b41565b60005b82811015614d8357848901518255600182019150602085019450602081019050614d5e565b86831015614da05784890151614d9c601f891682614ca9565b8355505b6001600288020188555050505b505050505050565b7f4f776e61626c653a206e6577206f776e657220697320746865207a65726f206160008201527f6464726573730000000000000000000000000000000000000000000000000000602082015250565b6000614e1160268361492a565b9150614e1c82614db5565b604082019050919050565b60006020820190508181036000830152614e4081614e04565b9050919050565b6000606082019050614e5c600083018661405e565b614e69602083018561405e565b614e766040830184614305565b949350505050565b600081519050919050565b600081905092915050565b6000614e9f82614e7e565b614ea98185614e89565b9350614eb98185602086016140d0565b80840191505092915050565b6000614ed18284614e94565b915081905092915050565b614ee5816149a7565b8114614ef057600080fd5b50565b600081519050614f0281614edc565b92915050565b600060208284031215614f1e57614f1d613a27565b5b6000614f2c84828501614ef3565b91505092915050565b7f5354460000000000000000000000000000000000000000000000000000000000600082015250565b6000614f6b60038361492a565b9150614f7682614f35565b602082019050919050565b60006020820190508181036000830152614f9a81614f5e565b9050919050565b7f4c656e6774687320646f6573206e6f74206d6174636800000000000000000000600082015250565b6000614fd760168361492a565b9150614fe282614fa1565b602082019050919050565b6000602082019050818103600083015261500681614fca565b9050919050565b7f496e73756666696369656e742061726d79000000000000000000000000000000600082015250565b600061504360118361492a565b915061504e8261500d565b602082019050919050565b6000602082019050818103600083015261507281615036565b9050919050565b7f4f776e61626c653a2063616c6c6572206973206e6f7420746865206f776e6572600082015250565b60006150af60208361492a565b91506150ba82615079565b602082019050919050565b600060208201905081810360008301526150de816150a2565b9050919050565b60006040820190506150fa600083018561405e565b6151076020830184614305565b9392505050565b7f5354000000000000000000000000000000000000000000000000000000000000600082015250565b600061514460028361492a565b915061514f8261510e565b602082019050919050565b6000602082019050818103600083015261517381615137565b905091905056fea2646970667358221220999dd0bd100deab2686516b6d822cf9c751be8603f8300b7d96f630c0cdfbfb364736f6c63430008130033",
  "linkReferences": {},
  "deployedLinkReferences": {}
}