{
  "_format": "hh-sol-artifact-1",
  "contractName": "TownV2",
  "sourceName": "contracts/V2/TownV2.sol",
  "abi": [
    {
      "inputs": [
        {
          "internalType": "address",
          "name": "BlockchainsKingdomToken",
          "type": "address"
        },
        {
          "internalType": "address",
          "name": "landsContract",
          "type": "address"
        }
      ],
      "stateMutability": "nonpayable",
      "type": "constructor"
    },
    {
      "inputs": [],
      "name": "CallerIsNotOwner",
      "type": "error"
    },
    {
      "inputs": [],
      "name": "InsufficientCommodity",
      "type": "error"
    },
    {
      "inputs": [],
      "name": "InvalidItem",
      "type": "error"
    },
    {
      "inputs": [],
      "name": "LevelLessThanMin",
      "type": "error"
    },
    {
      "inputs": [],
      "name": "MaxCapacity",
      "type": "error"
    },
    {
      "anonymous": false,
      "inputs": [
        {
          "indexed": true,
          "internalType": "uint256",
          "name": "attackerLandId",
          "type": "uint256"
        },
        {
          "indexed": true,
          "internalType": "uint256",
          "name": "DefenderLandId",
          "type": "uint256"
        },
        {
          "indexed": false,
          "internalType": "bool",
          "name": "success",
          "type": "bool"
        },
        {
          "indexed": false,
          "internalType": "uint256[]",
          "name": "lootAmounts",
          "type": "uint256[]"
        }
      ],
      "name": "Attack",
      "type": "event"
    },
    {
      "anonymous": false,
      "inputs": [
        {
          "indexed": false,
          "internalType": "uint256",
          "name": "attackerLandId",
          "type": "uint256"
        },
        {
          "indexed": false,
          "internalType": "uint256",
          "name": "defenderLandId",
          "type": "uint256"
        },
        {
          "indexed": false,
          "internalType": "uint256[]",
          "name": "attackerArmy",
          "type": "uint256[]"
        },
        {
          "indexed": false,
          "internalType": "uint256[]",
          "name": "defenderArmy",
          "type": "uint256[]"
        },
        {
          "indexed": false,
          "internalType": "bool",
          "name": "success",
          "type": "bool"
        }
      ],
      "name": "Attack",
      "type": "event"
    },
    {
      "anonymous": false,
      "inputs": [
        {
          "indexed": false,
          "internalType": "uint256",
          "name": "buildingTypeIndex",
          "type": "uint256"
        },
        {
          "indexed": true,
          "internalType": "uint256",
          "name": "buildingId",
          "type": "uint256"
        },
        {
          "indexed": true,
          "internalType": "uint256",
          "name": "landTokenId",
          "type": "uint256"
        }
      ],
      "name": "Build",
      "type": "event"
    },
    {
      "anonymous": false,
      "inputs": [
        {
          "indexed": true,
          "internalType": "address",
          "name": "previousOwner",
          "type": "address"
        },
        {
          "indexed": true,
          "internalType": "address",
          "name": "newOwner",
          "type": "address"
        }
      ],
      "name": "OwnershipTransferred",
      "type": "event"
    },
    {
      "anonymous": false,
      "inputs": [
        {
          "indexed": true,
          "internalType": "uint256",
          "name": "buildingId",
          "type": "uint256"
        },
        {
          "indexed": false,
          "internalType": "uint256",
          "name": "level",
          "type": "uint256"
        }
      ],
      "name": "Upgrade",
      "type": "event"
    },
    {
      "inputs": [
        {
          "internalType": "uint256[]",
          "name": "warriorsAmounts",
          "type": "uint256[]"
        },
        {
          "internalType": "uint256",
          "name": "attackerId",
          "type": "uint256"
        },
        {
          "internalType": "uint256",
          "name": "targetId",
          "type": "uint256"
        }
      ],
      "name": "attack",
      "outputs": [],
      "stateMutability": "nonpayable",
      "type": "function"
    },
    {
      "inputs": [
        {
          "internalType": "uint256",
          "name": "landTokenId",
          "type": "uint256"
        },
        {
          "internalType": "uint8",
          "name": "buildingIndex",
          "type": "uint8"
        }
      ],
      "name": "build",
      "outputs": [],
      "stateMutability": "nonpayable",
      "type": "function"
    },
    {
      "inputs": [
        {
          "internalType": "uint256",
          "name": "landTokenId",
          "type": "uint256"
        }
      ],
      "name": "buildBarracks",
      "outputs": [],
      "stateMutability": "nonpayable",
      "type": "function"
    },
    {
      "inputs": [
        {
          "internalType": "uint256",
          "name": "buildingTokenId",
          "type": "uint256"
        }
      ],
      "name": "claimRevenue",
      "outputs": [],
      "stateMutability": "nonpayable",
      "type": "function"
    },
    {
      "inputs": [
        {
          "internalType": "uint256",
          "name": "landTokenId",
          "type": "uint256"
        },
        {
          "internalType": "uint256",
          "name": "amount",
          "type": "uint256"
        },
        {
          "internalType": "uint256",
          "name": "commodityIndex",
          "type": "uint256"
        }
      ],
      "name": "deposit",
      "outputs": [],
      "stateMutability": "nonpayable",
      "type": "function"
    },
    {
      "inputs": [
        {
          "internalType": "uint256",
          "name": "landId",
          "type": "uint256"
        }
      ],
      "name": "getArmy",
      "outputs": [
        {
          "internalType": "uint256[]",
          "name": "",
          "type": "uint256[]"
        }
      ],
      "stateMutability": "view",
      "type": "function"
    },
    {
      "inputs": [
        {
          "internalType": "uint256",
          "name": "landTokenId",
          "type": "uint256"
        }
      ],
      "name": "getAssetsBal",
      "outputs": [
        {
          "internalType": "uint256[5]",
          "name": "",
          "type": "uint256[5]"
        }
      ],
      "stateMutability": "view",
      "type": "function"
    },
    {
      "inputs": [],
      "name": "getBarracksRequiredCommodities",
      "outputs": [
        {
          "internalType": "uint256[5]",
          "name": "",
          "type": "uint256[5]"
        }
      ],
      "stateMutability": "view",
      "type": "function"
    },
    {
      "inputs": [],
      "name": "getBuildings",
      "outputs": [
        {
          "components": [
            {
              "internalType": "uint256",
              "name": "requiredStone",
              "type": "uint256"
            },
            {
              "internalType": "uint256",
              "name": "requiredWood",
              "type": "uint256"
            },
            {
              "internalType": "uint256",
              "name": "requiredIron",
              "type": "uint256"
            },
            {
              "internalType": "uint256",
              "name": "requiredGold",
              "type": "uint256"
            },
            {
              "internalType": "uint256",
              "name": "requiredFood",
              "type": "uint256"
            },
            {
              "internalType": "uint256",
              "name": "revTokenIndex",
              "type": "uint256"
            },
            {
              "internalType": "string",
              "name": "buildingName",
              "type": "string"
            }
          ],
          "internalType": "struct TownV2.Info[]",
          "name": "",
          "type": "tuple[]"
        }
      ],
      "stateMutability": "view",
      "type": "function"
    },
    {
      "inputs": [
        {
          "internalType": "uint256",
          "name": "buildingTokenId",
          "type": "uint256"
        }
      ],
      "name": "getCurrentRevenue",
      "outputs": [
        {
          "internalType": "uint256",
          "name": "",
          "type": "uint256"
        }
      ],
      "stateMutability": "view",
      "type": "function"
    },
    {
      "inputs": [
        {
          "internalType": "uint256",
          "name": "landTokenId",
          "type": "uint256"
        }
      ],
      "name": "getLandIdData",
      "outputs": [
        {
          "components": [
            {
              "internalType": "uint256[5]",
              "name": "commoditiesBalance",
              "type": "uint256[5]"
            },
            {
              "internalType": "uint256",
              "name": "latestBuildTimeStamp",
              "type": "uint256"
            },
            {
              "internalType": "uint256[]",
              "name": "buildedBuildings",
              "type": "uint256[]"
            },
            {
              "internalType": "uint256",
              "name": "barracksLevel",
              "type": "uint256"
            }
          ],
          "internalType": "struct TownV2.LandIdData",
          "name": "",
          "type": "tuple"
        }
      ],
      "stateMutability": "view",
      "type": "function"
    },
    {
      "inputs": [
        {
          "internalType": "uint256",
          "name": "tokenId",
          "type": "uint256"
        }
      ],
      "name": "getStatus",
      "outputs": [
        {
          "components": [
            {
              "internalType": "uint256",
              "name": "level",
              "type": "uint256"
            },
            {
              "internalType": "uint256",
              "name": "latestActionTimestamp",
              "type": "uint256"
            },
            {
              "internalType": "uint256",
              "name": "attachedLand",
              "type": "uint256"
            },
            {
              "internalType": "uint8",
              "name": "buildingTypeIndex",
              "type": "uint8"
            }
          ],
          "internalType": "struct TownV2.Status",
          "name": "",
          "type": "tuple"
        }
      ],
      "stateMutability": "view",
      "type": "function"
    },
    {
      "inputs": [],
      "name": "getWarriorTypes",
      "outputs": [
        {
          "components": [
            {
              "internalType": "uint8",
              "name": "attackPower",
              "type": "uint8"
            },
            {
              "internalType": "uint8",
              "name": "defPower",
              "type": "uint8"
            },
            {
              "internalType": "uint8",
              "name": "hp",
              "type": "uint8"
            },
            {
              "internalType": "uint8",
              "name": "requiredLevel",
              "type": "uint8"
            },
            {
              "internalType": "string",
              "name": "name",
              "type": "string"
            },
            {
              "internalType": "uint256",
              "name": "price",
              "type": "uint256"
            }
          ],
          "internalType": "struct Barracks.WarriorInfo[]",
          "name": "",
          "type": "tuple[]"
        }
      ],
      "stateMutability": "view",
      "type": "function"
    },
    {
      "inputs": [],
      "name": "owner",
      "outputs": [
        {
          "internalType": "address",
          "name": "",
          "type": "address"
        }
      ],
      "stateMutability": "view",
      "type": "function"
    },
    {
      "inputs": [
        {
          "internalType": "uint256",
          "name": "landTokenId",
          "type": "uint256"
        },
        {
          "internalType": "uint256",
          "name": "typeIndex",
          "type": "uint256"
        },
        {
          "internalType": "uint256",
          "name": "amount",
          "type": "uint256"
        }
      ],
      "name": "recruit",
      "outputs": [],
      "stateMutability": "nonpayable",
      "type": "function"
    },
    {
      "inputs": [],
      "name": "renounceOwnership",
      "outputs": [],
      "stateMutability": "nonpayable",
      "type": "function"
    },
    {
      "inputs": [
        {
          "internalType": "uint256",
          "name": "landTokenId",
          "type": "uint256"
        },
        {
          "internalType": "uint256",
          "name": "amount",
          "type": "uint256"
        }
      ],
      "name": "splitDeposit",
      "outputs": [],
      "stateMutability": "nonpayable",
      "type": "function"
    },
    {
      "inputs": [
        {
          "internalType": "uint256",
          "name": "landTokenId",
          "type": "uint256"
        },
        {
          "internalType": "uint256",
          "name": "fromIndex",
          "type": "uint256"
        },
        {
          "internalType": "uint256",
          "name": "toIndex",
          "type": "uint256"
        },
        {
          "internalType": "uint256",
          "name": "amount",
          "type": "uint256"
        }
      ],
      "name": "swapCommodity",
      "outputs": [],
      "stateMutability": "nonpayable",
      "type": "function"
    },
    {
      "inputs": [
        {
          "internalType": "address",
          "name": "newOwner",
          "type": "address"
        }
      ],
      "name": "transferOwnership",
      "outputs": [],
      "stateMutability": "nonpayable",
      "type": "function"
    },
    {
      "inputs": [
        {
          "internalType": "uint8[3]",
          "name": "physicalInfo",
          "type": "uint8[3]"
        },
        {
          "internalType": "uint8",
          "name": "requiredLevel",
          "type": "uint8"
        },
        {
          "internalType": "string",
          "name": "name",
          "type": "string"
        },
        {
          "internalType": "uint256",
          "name": "price",
          "type": "uint256"
        },
        {
          "internalType": "uint256",
          "name": "typeIndex",
          "type": "uint256"
        }
      ],
      "name": "updateWarriorType_",
      "outputs": [],
      "stateMutability": "nonpayable",
      "type": "function"
    },
    {
      "inputs": [
        {
          "internalType": "uint256",
          "name": "buildingTokenId",
          "type": "uint256"
        },
        {
          "internalType": "uint256",
          "name": "landTokenId",
          "type": "uint256"
        }
      ],
      "name": "upgrade",
      "outputs": [],
      "stateMutability": "nonpayable",
      "type": "function"
    },
    {
      "inputs": [
        {
          "internalType": "uint256",
          "name": "amount",
          "type": "uint256"
        },
        {
          "internalType": "uint256",
          "name": "landTokenId",
          "type": "uint256"
        },
        {
          "internalType": "uint256",
          "name": "commodityIndex",
          "type": "uint256"
        }
      ],
      "name": "withdraw",
      "outputs": [],
      "stateMutability": "nonpayable",
      "type": "function"
    }
  ],
  "bytecode": "0x60806040526040518060a001604052806802b5e3af16b188000068ffffffffffffffffff1681526020016802b5e3af16b188000068ffffffffffffffffff1681526020016802b5e3af16b188000068ffffffffffffffffff1681526020016802b5e3af16b188000068ffffffffffffffffff16815260200168056bc75e2d6310000068ffffffffffffffffff168152506005906005620000a192919062000c78565b506001600a55348015620000b457600080fd5b506040516200648e3803806200648e8339818101604052810190620000da919062000d53565b620000fa620000ee62000bac60201b60201c565b62000bb460201b60201c565b60026040518060c00160405280603c60ff168152602001605a60ff168152602001608c60ff168152602001600160ff1681526020016040518060400160405280600881526020017f53706561726d616e0000000000000000000000000000000000000000000000008152508152602001674563918244f40000815250908060018154018082558091505060019003906000526020600020906003020160009091909190915060008201518160000160006101000a81548160ff021916908360ff16021790555060208201518160000160016101000a81548160ff021916908360ff16021790555060408201518160000160026101000a81548160ff021916908360ff16021790555060608201518160000160036101000a81548160ff021916908360ff16021790555060808201518160010190816200023a919062001014565b5060a08201518160020155505060026040518060c00160405280605a60ff168152602001604660ff16815260200160c860ff168152602001600260ff1681526020016040518060400160405280600981526020017f53776f7264736d616e00000000000000000000000000000000000000000000008152508152602001676f05b59d3b200000815250908060018154018082558091505060019003906000526020600020906003020160009091909190915060008201518160000160006101000a81548160ff021916908360ff16021790555060208201518160000160016101000a81548160ff021916908360ff16021790555060408201518160000160026101000a81548160ff021916908360ff16021790555060608201518160000160036101000a81548160ff021916908360ff160217905550608082015181600101908162000387919062001014565b5060a08201518160020155505060026040518060c00160405280602860ff168152602001603c60ff168152602001605060ff168152602001600360ff1681526020016040518060400160405280600681526020017f41726368657200000000000000000000000000000000000000000000000000008152508152602001678ac7230489e80000815250908060018154018082558091505060019003906000526020600020906003020160009091909190915060008201518160000160006101000a81548160ff021916908360ff16021790555060208201518160000160016101000a81548160ff021916908360ff16021790555060408201518160000160026101000a81548160ff021916908360ff16021790555060608201518160000160036101000a81548160ff021916908360ff1602179055506080820151816001019081620004d4919062001014565b5060a08201518160020155505081600460006101000a81548173ffffffffffffffffffffffffffffffffffffffff021916908373ffffffffffffffffffffffffffffffffffffffff16021790555080600360006101000a81548173ffffffffffffffffffffffffffffffffffffffff021916908373ffffffffffffffffffffffffffffffffffffffff160217905550600b6040518060e0016040528060008152602001680ad78ebc5ac62000008152602001680821ab0d441498000081526020016000815260200168015af1d78b58c400008152602001600081526020016040518060400160405280600a81526020017f53746f6e65206d696e65000000000000000000000000000000000000000000008152508152509080600181540180825580915050600190039060005260206000209060070201600090919091909150600082015181600001556020820151816001015560408201518160020155606082015181600301556080820151816004015560a0820151816005015560c082015181600601908162000667919062001014565b505050600b6040518060e001604052806802b5e3af16b188000081526020016802b5e3af16b18800008152602001680d8d726b7177a8000081526020016000815260200168015af1d78b58c400008152602001600181526020016040518060400160405280600b81526020017f4c756d626572206d696c6c0000000000000000000000000000000000000000008152508152509080600181540180825580915050600190039060005260206000209060070201600090919091909150600082015181600001556020820151816001015560408201518160020155606082015181600301556080820151816004015560a0820151816005015560c082015181600601908162000776919062001014565b505050600b6040518060e0016040528068056bc75e2d63100000815260200168056bc75e2d63100000815260200168056bc75e2d6310000081526020016000815260200168015af1d78b58c400008152602001600281526020016040518060400160405280600981526020017f49726f6e206d696e6500000000000000000000000000000000000000000000008152508152509080600181540180825580915050600190039060005260206000209060070201600090919091909150600082015181600001556020820151816001015560408201518160020155606082015181600301556080820151816004015560a0820151816005015560c082015181600601908162000885919062001014565b505050600b6040518060e00160405280680d8d726b7177a8000081526020016802b5e3af16b18800008152602001600081526020016000815260200168056bc75e2d631000008152602001600481526020016040518060400160405280600481526020017f4661726d000000000000000000000000000000000000000000000000000000008152508152509080600181540180825580915050600190039060005260206000209060070201600090919091909150600082015181600001556020820151816001015560408201518160020155606082015181600301556080820151816004015560a0820151816005015560c08201518160060190816200098c919062001014565b505050600b6040518060e0016040528068878678326eac9000008152602001680d8d726b7177a800008152602001680d8d726b7177a800008152602001600081526020016802b5e3af16b18800008152602001600381526020016040518060400160405280600981526020017f476f6c64206d696e6500000000000000000000000000000000000000000000008152508152509080600181540180825580915050600190039060005260206000209060070201600090919091909150600082015181600001556020820151816001015560408201518160020155606082015181600301556080820151816004015560a0820151816005015560c082015181600601908162000a9b919062001014565b50505060005b600581101562000b655769021e19e0c9bab2400000600c600062018aed8152602001908152602001600020600001826005811062000ae45762000ae3620010fb565b5b01600082825462000af6919062001159565b9250508190555069021e19e0c9bab2400000600c60006201aa358152602001908152602001600020600001826005811062000b365762000b35620010fb565b5b01600082825462000b48919062001159565b92505081905550808062000b5c9062001194565b91505062000aa1565b506002600c600062018aed8152602001908152602001600020600701819055506002600c60006201aa358152602001908152602001600020600701819055505050620011e1565b600033905090565b60008060009054906101000a900473ffffffffffffffffffffffffffffffffffffffff169050816000806101000a81548173ffffffffffffffffffffffffffffffffffffffff021916908373ffffffffffffffffffffffffffffffffffffffff1602179055508173ffffffffffffffffffffffffffffffffffffffff168173ffffffffffffffffffffffffffffffffffffffff167f8be0079c531659141344cd1fd0a4f28419497f9722a3daafe3b4186f6b6457e060405160405180910390a35050565b826005810192821562000cb7579160200282015b8281111562000cb6578251829068ffffffffffffffffff1690559160200191906001019062000c8c565b5b50905062000cc6919062000cca565b5090565b5b8082111562000ce557600081600090555060010162000ccb565b5090565b600080fd5b600073ffffffffffffffffffffffffffffffffffffffff82169050919050565b600062000d1b8262000cee565b9050919050565b62000d2d8162000d0e565b811462000d3957600080fd5b50565b60008151905062000d4d8162000d22565b92915050565b6000806040838503121562000d6d5762000d6c62000ce9565b5b600062000d7d8582860162000d3c565b925050602062000d908582860162000d3c565b9150509250929050565b600081519050919050565b7f4e487b7100000000000000000000000000000000000000000000000000000000600052604160045260246000fd5b7f4e487b7100000000000000000000000000000000000000000000000000000000600052602260045260246000fd5b6000600282049050600182168062000e1c57607f821691505b60208210810362000e325762000e3162000dd4565b5b50919050565b60008190508160005260206000209050919050565b60006020601f8301049050919050565b600082821b905092915050565b60006008830262000e9c7fffffffffffffffffffffffffffffffffffffffffffffffffffffffffffffffff8262000e5d565b62000ea8868362000e5d565b95508019841693508086168417925050509392505050565b6000819050919050565b6000819050919050565b600062000ef562000eef62000ee98462000ec0565b62000eca565b62000ec0565b9050919050565b6000819050919050565b62000f118362000ed4565b62000f2962000f208262000efc565b84845462000e6a565b825550505050565b600090565b62000f4062000f31565b62000f4d81848462000f06565b505050565b5b8181101562000f755762000f6960008262000f36565b60018101905062000f53565b5050565b601f82111562000fc45762000f8e8162000e38565b62000f998462000e4d565b8101602085101562000fa9578190505b62000fc162000fb88562000e4d565b83018262000f52565b50505b505050565b600082821c905092915050565b600062000fe96000198460080262000fc9565b1980831691505092915050565b600062001004838362000fd6565b9150826002028217905092915050565b6200101f8262000d9a565b67ffffffffffffffff8111156200103b576200103a62000da5565b5b62001047825462000e03565b6200105482828562000f79565b600060209050601f8311600181146200108c576000841562001077578287015190505b62001083858262000ff6565b865550620010f3565b601f1984166200109c8662000e38565b60005b82811015620010c6578489015182556001820191506020850194506020810190506200109f565b86831015620010e65784890151620010e2601f89168262000fd6565b8355505b6001600288020188555050505b505050505050565b7f4e487b7100000000000000000000000000000000000000000000000000000000600052603260045260246000fd5b7f4e487b7100000000000000000000000000000000000000000000000000000000600052601160045260246000fd5b6000620011668262000ec0565b9150620011738362000ec0565b92508282019050808211156200118e576200118d6200112a565b5b92915050565b6000620011a18262000ec0565b91507fffffffffffffffffffffffffffffffffffffffffffffffffffffffffffffffff8203620011d657620011d56200112a565b5b600182019050919050565b61529d80620011f16000396000f3fe608060405234801561001057600080fd5b50600436106101415760003560e01c80638251fab7116100b8578063a58343da1161007c578063a58343da14610336578063aa7e7fa714610366578063cc0e27ca14610396578063d9cf6a26146103b2578063ec6a585f146103d0578063f2fde38b146103ec57610141565b80638251fab7146102a4578063886011f9146102c25780638da5cb5b146102de578063957d99e5146102fc578063a41fe49f1461031a57610141565b8063393c775f1161010a578063393c775f146101e6578063451450ec146102165780634639aa3f146102325780635c622a0e1461024e578063715018a61461027e578063798d70671461028857610141565b8062aeef8a146101465780630d9bfc3d146101625780631cb536ed1461017e5780633022b71a1461019a578063344f34f2146101ca575b600080fd5b610160600480360381019061015b9190613a80565b610408565b005b61017c60048036038101906101779190613a80565b61057d565b005b61019860048036038101906101939190613ad3565b6108fc565b005b6101b460048036038101906101af9190613ad3565b610bac565b6040516101c19190613ca6565b60405180910390f35b6101e460048036038101906101df9190613e21565b610caa565b005b61020060048036038101906101fb9190613ad3565b610f21565b60405161020d9190613ef2565b60405180910390f35b610230600480360381019061022b9190613f0d565b610fa6565b005b61024c60048036038101906102479190613f86565b6115a2565b005b61026860048036038101906102639190613ad3565b611ba0565b604051610275919061402a565b60405180910390f35b610286611c08565b005b6102a2600480360381019061029d9190613ad3565b611c1c565b005b6102ac6120b6565b6040516102b99190613ef2565b60405180910390f35b6102dc60048036038101906102d79190613f0d565b612100565b005b6102e66121b2565b6040516102f39190614086565b60405180910390f35b6103046121db565b604051610311919061426b565b60405180910390f35b610334600480360381019061032f9190613a80565b61234a565b005b610350600480360381019061034b9190613ad3565b612539565b60405161035d91906142fc565b60405180910390f35b610380600480360381019061037b9190613ad3565b6125fe565b60405161038d919061432d565b60405180910390f35b6103b060048036038101906103ab91906144ae565b61269b565b005b6103ba6127f4565b6040516103c791906146a3565b60405180910390f35b6103ea60048036038101906103e591906146c5565b612921565b005b61040660048036038101906104019190614758565b612b24565b005b823373ffffffffffffffffffffffffffffffffffffffff16600360009054906101000a900473ffffffffffffffffffffffffffffffffffffffff1673ffffffffffffffffffffffffffffffffffffffff16636352211e836040518263ffffffff1660e01b815260040161047b919061432d565b602060405180830381865afa158015610498573d6000803e3d6000fd5b505050506040513d601f19601f820116820180604052508101906104bc919061479a565b73ffffffffffffffffffffffffffffffffffffffff1614610509576040517f6db2465f00000000000000000000000000000000000000000000000000000000815260040160405180910390fd5b610537600460009054906101000a900473ffffffffffffffffffffffffffffffffffffffff16333086612ba7565b82600c600086815260200190815260200160002060000183600581106105605761055f6147c7565b5b0160008282546105709190614825565b9250508190555050505050565b823373ffffffffffffffffffffffffffffffffffffffff16600360009054906101000a900473ffffffffffffffffffffffffffffffffffffffff1673ffffffffffffffffffffffffffffffffffffffff16636352211e836040518263ffffffff1660e01b81526004016105f0919061432d565b602060405180830381865afa15801561060d573d6000803e3d6000fd5b505050506040513d601f19601f82011682018060405250810190610631919061479a565b73ffffffffffffffffffffffffffffffffffffffff161461067e576040517f6db2465f00000000000000000000000000000000000000000000000000000000815260040160405180910390fd5b6106866121db565b5183106106bf576040517f4f66a31200000000000000000000000000000000000000000000000000000000815260040160405180910390fd5b60006106ca85612539565b9050600080600090505b8251811015610718578281815181106106f0576106ef6147c7565b5b6020026020010151826107039190614825565b9150808061071090614859565b9150506106d4565b5083816107259190614825565b603260ff16600c60008981526020019081526020016000206007015461074b91906148a1565b1015610783576040517f336d90d000000000000000000000000000000000000000000000000000000000815260040160405180910390fd5b600c6000878152602001908152602001600020600701546107a26121db565b86815181106107b4576107b36147c7565b5b60200260200101516060015160ff1611156107fb576040517f56ca09d100000000000000000000000000000000000000000000000000000000815260040160405180910390fd5b61080486610f21565b600460058110610817576108166147c7565b5b6020020151846108256121db565b8781518110610837576108366147c7565b5b602002602001015160a0015161084d91906148a1565b1115610885576040517f9a2f48b400000000000000000000000000000000000000000000000000000000815260040160405180910390fd5b6108e9866040518060a0016040528060008152602001600081526020016000815260200160008152602001876108b96121db565b8a815181106108cb576108ca6147c7565b5b602002602001015160a001516108e191906148a1565b815250612cff565b6108f4858588612d7a565b505050505050565b803373ffffffffffffffffffffffffffffffffffffffff16600360009054906101000a900473ffffffffffffffffffffffffffffffffffffffff1673ffffffffffffffffffffffffffffffffffffffff16636352211e600e6000858152602001908152602001600020546040518263ffffffff1660e01b8152600401610982919061432d565b602060405180830381865afa15801561099f573d6000803e3d6000fd5b505050506040513d601f19601f820116820180604052508101906109c3919061479a565b73ffffffffffffffffffffffffffffffffffffffff1614610a10576040517f6db2465f00000000000000000000000000000000000000000000000000000000815260040160405180910390fd5b6000610a1b83611ba0565b90506000600b826060015160ff1681548110610a3a57610a396147c7565b5b90600052602060002090600702016040518060e0016040529081600082015481526020016001820154815260200160028201548152602001600382015481526020016004820154815260200160058201548152602001600682018054610a9f90614912565b80601f0160208091040260200160405190810160405280929190818152602001828054610acb90614912565b8015610b185780601f10610aed57610100808354040283529160200191610b18565b820191906000526020600020905b815481529060010190602001808311610afb57829003601f168201915b50505050508152505090506000610b2e856125fe565b905042600d60008781526020019081526020016000206001018190555080600c6000600d60008981526020019081526020016000206002015481526020019081526020016000206000018360a0015160058110610b8e57610b8d6147c7565b5b016000828254610b9e9190614825565b925050819055505050505050565b610bb46139bb565b6000600c600084815260200190815260200160002060405180608001604052908160008201600580602002604051908101604052809291908260058015610c10576020028201915b815481526020019060010190808311610bfc575b505050505081526020016005820154815260200160068201805480602002602001604051908101604052809291908181526020018280548015610c7257602002820191906000526020600020905b815481526020019060010190808311610c5e575b505050505081526020016007820154815250509050603c8160200151610c989190614972565b81602001818152505080915050919050565b813373ffffffffffffffffffffffffffffffffffffffff16600360009054906101000a900473ffffffffffffffffffffffffffffffffffffffff1673ffffffffffffffffffffffffffffffffffffffff16636352211e836040518263ffffffff1660e01b8152600401610d1d919061432d565b602060405180830381865afa158015610d3a573d6000803e3d6000fd5b505050506040513d601f19601f82011682018060405250810190610d5e919061479a565b73ffffffffffffffffffffffffffffffffffffffff1614610dab576040517f6db2465f00000000000000000000000000000000000000000000000000000000815260040160405180910390fd5b600073ffffffffffffffffffffffffffffffffffffffff16600360009054906101000a900473ffffffffffffffffffffffffffffffffffffffff1673ffffffffffffffffffffffffffffffffffffffff16636352211e846040518263ffffffff1660e01b8152600401610e1e919061432d565b602060405180830381865afa158015610e3b573d6000803e3d6000fd5b505050506040513d601f19601f82011682018060405250810190610e5f919061479a565b73ffffffffffffffffffffffffffffffffffffffff1603610eb5576040517f08c379a0000000000000000000000000000000000000000000000000000000008152600401610eac90614a00565b60405180910390fd5b600080610ec3868686612dba565b9150915060608215610edd57610eda868684613142565b90505b84867f66e3a911601fd881aa0945490577432d7d6d73f7329794b0486372e25fa782c88584604051610f10929190614a3b565b60405180910390a350505050505050565b610f296139e9565b610f316139e9565b60005b6005811015610f9c576000600c60008681526020019081526020016000206000018260058110610f6757610f666147c7565b5b0154905080838360058110610f7f57610f7e6147c7565b5b602002018181525050508080610f9490614859565b915050610f34565b5080915050919050565b813373ffffffffffffffffffffffffffffffffffffffff16600360009054906101000a900473ffffffffffffffffffffffffffffffffffffffff1673ffffffffffffffffffffffffffffffffffffffff16636352211e600e6000858152602001908152602001600020546040518263ffffffff1660e01b815260040161102c919061432d565b602060405180830381865afa158015611049573d6000803e3d6000fd5b505050506040513d601f19601f8201168201806040525081019061106d919061479a565b73ffffffffffffffffffffffffffffffffffffffff16146110ba576040517f6db2465f00000000000000000000000000000000000000000000000000000000815260040160405180910390fd5b6000600c600084815260200190815260200160002060050154426110de9190614a6b565b101561111f576040517f08c379a000000000000000000000000000000000000000000000000000000000815260040161111690614aeb565b60405180910390fd5b611128836108fc565b6000600d600085815260200190815260200160002060030160009054906101000a900460ff1660ff1690506000600d60008681526020019081526020016000206000015490506000600b8381548110611184576111836147c7565b5b90600052602060002090600702016040518060e00160405290816000820154815260200160018201548152602001600282015481526020016003820154815260200160048201548152602001600582015481526020016006820180546111e990614912565b80601f016020809104026020016040519081016040528092919081815260200182805461121590614912565b80156112625780601f1061123757610100808354040283529160200191611262565b820191906000526020600020905b81548152906001019060200180831161124557829003601f168201915b505050505081525050905060018261127a9190614825565b816000015161128991906148a1565b600c60008781526020019081526020016000206000016000600581106112b2576112b16147c7565b5b01541015801561130757506001826112ca9190614825565b81602001516112d991906148a1565b600c6000878152602001908152602001600020600001600160058110611302576113016147c7565b5b015410155b8015611358575060018261131b9190614825565b816040015161132a91906148a1565b600c6000878152602001908152602001600020600001600260058110611353576113526147c7565b5b015410155b80156113a9575060018261136c9190614825565b816060015161137b91906148a1565b600c60008781526020019081526020016000206000016003600581106113a4576113a36147c7565b5b015410155b80156113fa57506001826113bd9190614825565b81608001516113cc91906148a1565b600c60008781526020019081526020016000206000016004600581106113f5576113f46147c7565b5b015410155b611439576040517f08c379a000000000000000000000000000000000000000000000000000000000815260040161143090614b57565b60405180910390fd5b6114f0856040518060a001604052806001866114559190614825565b856000015161146491906148a1565b81526020016001866114769190614825565b856020015161148591906148a1565b81526020016001866114979190614825565b85604001516114a691906148a1565b81526020016001866114b89190614825565b85606001516114c791906148a1565b81526020016001866114d99190614825565b85608001516114e891906148a1565b815250612cff565b6001826114fd9190614825565b600d6000888152602001908152602001600020600001819055506001826115249190614825565b61546061153191906148a1565b4261153c9190614825565b600c600087815260200190815260200160002060050181905550857feb0ebb51128928d7b1a6419c52128a9319bfcb55f0adafea75afbf75f9f2f3e96001846115859190614825565b604051611592919061432d565b60405180910390a2505050505050565b813373ffffffffffffffffffffffffffffffffffffffff16600360009054906101000a900473ffffffffffffffffffffffffffffffffffffffff1673ffffffffffffffffffffffffffffffffffffffff16636352211e836040518263ffffffff1660e01b8152600401611615919061432d565b602060405180830381865afa158015611632573d6000803e3d6000fd5b505050506040513d601f19601f82011682018060405250810190611656919061479a565b73ffffffffffffffffffffffffffffffffffffffff16146116a3576040517f6db2465f00000000000000000000000000000000000000000000000000000000815260040160405180910390fd5b600b805490508260ff16106116e4576040517f4f66a31200000000000000000000000000000000000000000000000000000000815260040160405180910390fd5b600c600084815260200190815260200160002060060180549050600c60ff161161173a576040517f336d90d000000000000000000000000000000000000000000000000000000000815260040160405180910390fd5b6000600c6000858152602001908152602001600020600501544261175e9190614a6b565b101561179f576040517f08c379a000000000000000000000000000000000000000000000000000000000815260040161179690614aeb565b60405180910390fd5b6000600b8360ff16815481106117b8576117b76147c7565b5b90600052602060002090600702016040518060e001604052908160008201548152602001600182015481526020016002820154815260200160038201548152602001600482015481526020016005820154815260200160068201805461181d90614912565b80601f016020809104026020016040519081016040528092919081815260200182805461184990614912565b80156118965780601f1061186b57610100808354040283529160200191611896565b820191906000526020600020905b81548152906001019060200180831161187957829003601f168201915b50505050508152505090508060000151600c60008681526020019081526020016000206000016000600581106118cf576118ce6147c7565b5b01541015801561190d57508060200151600c6000868152602001908152602001600020600001600160058110611908576119076147c7565b5b015410155b801561194757508060400151600c6000868152602001908152602001600020600001600260058110611942576119416147c7565b5b015410155b801561198157508060800151600c600086815260200190815260200160002060000160036005811061197c5761197b6147c7565b5b015410155b80156119bb57508060600151600c60008681526020019081526020016000206000016004600581106119b6576119b56147c7565b5b015410155b6119fa576040517f08c379a00000000000000000000000000000000000000000000000000000000081526004016119f190614b57565b60405180910390fd5b611a3e846040518060a00160405280846000015181526020018460200151815260200184604001518152602001846080015181526020018460600151815250612cff565b83600e6000600a548152602001908152602001600020819055506040518060800160405280600181526020014281526020018581526020018460ff16815250600d6000600a54815260200190815260200160002060008201518160000155602082015181600101556040820151816002015560608201518160030160006101000a81548160ff021916908360ff160217905550905050600c6000858152602001908152602001600020600601600a549080600181540180825580915050600190039060005260206000200160009091909190915055600a6000815480929190611b2690614859565b919050555061546042611b399190614825565b600c600086815260200190815260200160002060050181905550836001600a54611b639190614a6b565b7fcbecf69dc8611949e753d337378fb4ace6f6ad1e31b5fbf86b6379ea0279ca7485604051611b929190614bb2565b60405180910390a350505050565b611ba8613a0b565b600d60008381526020019081526020016000206040518060800160405290816000820154815260200160018201548152602001600282015481526020016003820160009054906101000a900460ff1660ff1660ff16815250509050919050565b611c10613251565b611c1a60006132cf565b565b803373ffffffffffffffffffffffffffffffffffffffff16600360009054906101000a900473ffffffffffffffffffffffffffffffffffffffff1673ffffffffffffffffffffffffffffffffffffffff16636352211e836040518263ffffffff1660e01b8152600401611c8f919061432d565b602060405180830381865afa158015611cac573d6000803e3d6000fd5b505050506040513d601f19601f82011682018060405250810190611cd0919061479a565b73ffffffffffffffffffffffffffffffffffffffff1614611d1d576040517f6db2465f00000000000000000000000000000000000000000000000000000000815260040160405180910390fd5b813373ffffffffffffffffffffffffffffffffffffffff16600360009054906101000a900473ffffffffffffffffffffffffffffffffffffffff1673ffffffffffffffffffffffffffffffffffffffff16636352211e836040518263ffffffff1660e01b8152600401611d90919061432d565b602060405180830381865afa158015611dad573d6000803e3d6000fd5b505050506040513d601f19601f82011682018060405250810190611dd1919061479a565b73ffffffffffffffffffffffffffffffffffffffff1614611e1e576040517f6db2465f00000000000000000000000000000000000000000000000000000000815260040160405180910390fd5b6000600c60008581526020019081526020016000206005015442611e429190614a6b565b1015611e83576040517f08c379a0000000000000000000000000000000000000000000000000000000008152600401611e7a90614aeb565b60405180910390fd5b6000611e8e84610f21565b90506005600060058110611ea557611ea46147c7565b5b015481600060058110611ebb57611eba6147c7565b5b602002015110158015611efc57506005600160058110611ede57611edd6147c7565b5b015481600160058110611ef457611ef36147c7565b5b602002015110155b8015611f3657506005600260058110611f1857611f176147c7565b5b015481600260058110611f2e57611f2d6147c7565b5b602002015110155b8015611f7057506005600360058110611f5257611f516147c7565b5b015481600360058110611f6857611f676147c7565b5b602002015110155b8015611faa57506005600460058110611f8c57611f8b6147c7565b5b015481600460058110611fa257611fa16147c7565b5b602002015110155b611fe9576040517f08c379a0000000000000000000000000000000000000000000000000000000008152600401611fe090614b57565b60405180910390fd5b61202f8460058080602002604051908101604052809291908260058015612025576020028201915b815481526020019060010190808311612011575b5050505050612cff565b6001600c6000868152602001908152602001600020600701546120529190614825565b61546061205f91906148a1565b4261206a9190614825565b600c600086815260200190815260200160002060050181905550600c600085815260200190815260200160002060070160008154809291906120ab90614859565b919050555050505050565b6120be6139e9565b600580806020026040519081016040528092919082600580156120f6576020028201915b8154815260200190600101908083116120e2575b5050505050905090565b61212e600460009054906101000a900473ffffffffffffffffffffffffffffffffffffffff16333084612ba7565b60005b600c60008481526020019081526020016000205060058110156121ad5760058261215b9190614972565b600c60008581526020019081526020016000206000018260058110612183576121826147c7565b5b0160008282546121939190614825565b9250508190555080806121a590614859565b915050612131565b505050565b60008060009054906101000a900473ffffffffffffffffffffffffffffffffffffffff16905090565b60606002805480602002602001604051908101604052809291908181526020016000905b8282101561234157838290600052602060002090600302016040518060c00160405290816000820160009054906101000a900460ff1660ff1660ff1681526020016000820160019054906101000a900460ff1660ff1660ff1681526020016000820160029054906101000a900460ff1660ff1660ff1681526020016000820160039054906101000a900460ff1660ff1660ff1681526020016001820180546122a690614912565b80601f01602080910402602001604051908101604052809291908181526020018280546122d290614912565b801561231f5780601f106122f45761010080835404028352916020019161231f565b820191906000526020600020905b81548152906001019060200180831161230257829003601f168201915b50505050508152602001600282015481525050815260200190600101906121ff565b50505050905090565b813373ffffffffffffffffffffffffffffffffffffffff16600360009054906101000a900473ffffffffffffffffffffffffffffffffffffffff1673ffffffffffffffffffffffffffffffffffffffff16636352211e836040518263ffffffff1660e01b81526004016123bd919061432d565b602060405180830381865afa1580156123da573d6000803e3d6000fd5b505050506040513d601f19601f820116820180604052508101906123fe919061479a565b73ffffffffffffffffffffffffffffffffffffffff161461244b576040517f6db2465f00000000000000000000000000000000000000000000000000000000815260040160405180910390fd5b83600c60008581526020019081526020016000206000018360058110612474576124736147c7565b5b015410156124ae576040517f9a2f48b400000000000000000000000000000000000000000000000000000000815260040160405180910390fd5b83600c600085815260200190815260200160002060000183600581106124d7576124d66147c7565b5b0160008282546124e79190614a6b565b92505081905550612533600460009054906101000a900473ffffffffffffffffffffffffffffffffffffffff16336064605f8861252491906148a1565b61252e9190614972565b613393565b50505050565b6060600060028054905067ffffffffffffffff81111561255c5761255b613cde565b5b60405190808252806020026020018201604052801561258a5781602001602082028036833780820191505090505b50905060005b6002805490508110156125f457600160008581526020019081526020016000206000828152602001908152602001600020548282815181106125d5576125d46147c7565b5b60200260200101818152505080806125ec90614859565b915050612590565b5080915050919050565b60008061260a83611ba0565b9050600081602001514261261e9190614a6b565b905060008260000151612a30836126359190614972565b61263f91906148a1565b9050670de0b6b3a764000083600001516804563918244f40000061266391906148a1565b61266d91906148a1565b8111156126905782600001516804563918244f40000061268d91906148a1565b90505b809350505050919050565b6126a3613251565b6040518060c00160405280866000600381106126c2576126c16147c7565b5b602002015160ff168152602001866001600381106126e3576126e26147c7565b5b602002015160ff16815260200186600260038110612704576127036147c7565b5b602002015160ff1681526020018560ff1681526020018481526020018381525060028281548110612738576127376147c7565b5b906000526020600020906003020160008201518160000160006101000a81548160ff021916908360ff16021790555060208201518160000160016101000a81548160ff021916908360ff16021790555060408201518160000160026101000a81548160ff021916908360ff16021790555060608201518160000160036101000a81548160ff021916908360ff16021790555060808201518160010190816127df9190614d6f565b5060a082015181600201559050505050505050565b6060600b805480602002602001604051908101604052809291908181526020016000905b8282101561291857838290600052602060002090600702016040518060e001604052908160008201548152602001600182015481526020016002820154815260200160038201548152602001600482015481526020016005820154815260200160068201805461288790614912565b80601f01602080910402602001604051908101604052809291908181526020018280546128b390614912565b80156129005780601f106128d557610100808354040283529160200191612900565b820191906000526020600020905b8154815290600101906020018083116128e357829003601f168201915b50505050508152505081526020019060010190612818565b50505050905090565b833373ffffffffffffffffffffffffffffffffffffffff16600360009054906101000a900473ffffffffffffffffffffffffffffffffffffffff1673ffffffffffffffffffffffffffffffffffffffff16636352211e836040518263ffffffff1660e01b8152600401612994919061432d565b602060405180830381865afa1580156129b1573d6000803e3d6000fd5b505050506040513d601f19601f820116820180604052508101906129d5919061479a565b73ffffffffffffffffffffffffffffffffffffffff1614612a22576040517f6db2465f00000000000000000000000000000000000000000000000000000000815260040160405180910390fd5b81600c60008781526020019081526020016000206000018560058110612a4b57612a4a6147c7565b5b01541015612a85576040517f9a2f48b400000000000000000000000000000000000000000000000000000000815260040160405180910390fd5b81600c60008781526020019081526020016000206000018560058110612aae57612aad6147c7565b5b016000828254612abe9190614a6b565b92505081905550600a600983612ad491906148a1565b612ade9190614972565b600c60008781526020019081526020016000206000018460058110612b0657612b056147c7565b5b016000828254612b169190614825565b925050819055505050505050565b612b2c613251565b600073ffffffffffffffffffffffffffffffffffffffff168173ffffffffffffffffffffffffffffffffffffffff1603612b9b576040517f08c379a0000000000000000000000000000000000000000000000000000000008152600401612b9290614eb3565b60405180910390fd5b612ba4816132cf565b50565b6000808573ffffffffffffffffffffffffffffffffffffffff166323b872dd60e01b868686604051602401612bde93929190614ed3565b604051602081830303815290604052907bffffffffffffffffffffffffffffffffffffffffffffffffffffffff19166020820180517bffffffffffffffffffffffffffffffffffffffffffffffffffffffff8381831617835250505050604051612c489190614f51565b6000604051808303816000865af19150503d8060008114612c85576040519150601f19603f3d011682016040523d82523d6000602084013e612c8a565b606091505b5091509150818015612cb85750600081511480612cb7575080806020019051810190612cb69190614f94565b5b5b612cf7576040517f08c379a0000000000000000000000000000000000000000000000000000000008152600401612cee9061500d565b60405180910390fd5b505050505050565b60005b6005811015612d7557818160058110612d1e57612d1d6147c7565b5b6020020151600c60008581526020019081526020016000206000018260058110612d4b57612d4a6147c7565b5b016000828254612d5b9190614a6b565b925050819055508080612d6d90614859565b915050612d02565b505050565b816001600083815260200190815260200160002060008581526020019081526020016000206000828254612dae9190614825565b92505081905550505050565b600080600280549050855114612e05576040517f08c379a0000000000000000000000000000000000000000000000000000000008152600401612dfc90615079565b60405180910390fd5b6000806000806000612e1688612539565b905060005b8a518110156130ad578a8181518110612e3757612e366147c7565b5b6020026020010151600160008c81526020019081526020016000206000838152602001908152602001600020541015612ea5576040517f08c379a0000000000000000000000000000000000000000000000000000000008152600401612e9c906150e5565b60405180910390fd5b8a8181518110612eb857612eb76147c7565b5b6020026020010151600160008c815260200190815260200160002060008381526020019081526020016000206000828254612ef39190614a6b565b925050819055508a8181518110612f0d57612f0c6147c7565b5b602002602001015160028281548110612f2957612f286147c7565b5b906000526020600020906003020160000160009054906101000a900460ff1660ff16612f5591906148a1565b86612f609190614825565b95508a8181518110612f7557612f746147c7565b5b602002602001015160028281548110612f9157612f906147c7565b5b906000526020600020906003020160000160029054906101000a900460ff1660ff16612fbd91906148a1565b85612fc89190614825565b9450818181518110612fdd57612fdc6147c7565b5b602002602001015160028281548110612ff957612ff86147c7565b5b906000526020600020906003020160000160019054906101000a900460ff1660ff1661302591906148a1565b846130309190614825565b9350818181518110613045576130446147c7565b5b602002602001015160028281548110613061576130606147c7565b5b906000526020600020906003020160000160029054906101000a900460ff1660ff1661308d91906148a1565b836130989190614825565b925080806130a590614859565b915050612e1b565b5060008060006130bf888888886134e8565b9250925092506130cf818c613840565b6130da8d838e6138fa565b7f56826b4c5de84b889a6c11fb50ed0b7da184f108b6a3236d17e83b3751cebae48c8c8f6131078f612539565b87604051613119959493929190615105565b60405180910390a182818361312e9190614a6b565b995099505050505050505050935093915050565b606060005b6005811015613249576000606484600c6000888152602001908152602001600020600001846005811061317d5761317c6147c7565b5b015461318991906148a1565b6131939190614972565b9050808383815181106131a9576131a86147c7565b5b60200260200101818152505080600c600087815260200190815260200160002060000183600581106131de576131dd6147c7565b5b0160008282546131ee9190614a6b565b9250508190555080600c6000888152602001908152602001600020600001836005811061321e5761321d6147c7565b5b01600082825461322e9190614825565b9250508190555050808061324190614859565b915050613147565b509392505050565b6132596139b3565b73ffffffffffffffffffffffffffffffffffffffff166132776121b2565b73ffffffffffffffffffffffffffffffffffffffff16146132cd576040517f08c379a00000000000000000000000000000000000000000000000000000000081526004016132c4906151b2565b60405180910390fd5b565b60008060009054906101000a900473ffffffffffffffffffffffffffffffffffffffff169050816000806101000a81548173ffffffffffffffffffffffffffffffffffffffff021916908373ffffffffffffffffffffffffffffffffffffffff1602179055508173ffffffffffffffffffffffffffffffffffffffff168173ffffffffffffffffffffffffffffffffffffffff167f8be0079c531659141344cd1fd0a4f28419497f9722a3daafe3b4186f6b6457e060405160405180910390a35050565b6000808473ffffffffffffffffffffffffffffffffffffffff1663a9059cbb60e01b85856040516024016133c89291906151d2565b604051602081830303815290604052907bffffffffffffffffffffffffffffffffffffffffffffffffffffffff19166020820180517bffffffffffffffffffffffffffffffffffffffffffffffffffffffff83818316178352505050506040516134329190614f51565b6000604051808303816000865af19150503d806000811461346f576040519150601f19603f3d011682016040523d82523d6000602084013e613474565b606091505b50915091508180156134a257506000815114806134a15750808060200190518101906134a09190614f94565b5b5b6134e1576040517f08c379a00000000000000000000000000000000000000000000000000000000081526004016134d890615247565b60405180910390fd5b5050505050565b60008060008060008089871180156134ff57508789115b156135f95789876135109190614a6b565b888a61351c9190614a6b565b111561358d576001905088606460038a6135369190614972565b8b6135419190614a6b565b61354b91906148a1565b6135559190614972565b925086606460028c6135679190614972565b896135729190614a6b565b61357c91906148a1565b6135869190614972565b91506135f4565b6000905088606460028a6135a19190614972565b8b6135ac9190614a6b565b6135b691906148a1565b6135c09190614972565b925086606460038c6135d29190614972565b896135dd9190614a6b565b6135e791906148a1565b6135f19190614972565b91505b61382a565b898710156137175760019050600260038861361491906148a1565b61361e9190614972565b8a101561365b5788606460048a6136359190614972565b8b6136409190614a6b565b61364a91906148a1565b6136549190614972565b9250601e91505b89600260038961366b91906148a1565b6136759190614972565b10801561368d57508960028861368b91906148a1565b115b156136c85788606460058a6136a29190614972565b8b6136ad9190614a6b565b6136b791906148a1565b6136c19190614972565b9250600f91505b896002886136d691906148a1565b10156137125788606460068a6136ec9190614972565b8b6136f79190614a6b565b61370191906148a1565b61370b9190614972565b9250600091505b613829565b60009050600260038a61372a91906148a1565b6137349190614972565b88101561377157601e925086606460048c61374f9190614972565b8961375a9190614a6b565b61376491906148a1565b61376e9190614972565b91505b8760028a61377f91906148a1565b10156137bb57600f925086606460058c6137999190614972565b896137a49190614a6b565b6137ae91906148a1565b6137b89190614972565b91505b87600260038b6137cb91906148a1565b6137d59190614972565b1080156137ed57508760028a6137eb91906148a1565b115b15613828576000925086606460068c6138069190614972565b896138119190614a6b565b61381b91906148a1565b6138259190614972565b91505b5b5b8083839550955095505050509450945094915050565b60005b6002805490508110156138f55760006001600084815260200190815260200160002060008381526020019081526020016000205411156138e257606483600160008581526020019081526020016000206000848152602001908152602001600020546138af91906148a1565b6138b99190614972565b600160008481526020019081526020016000206000838152602001908152602001600020819055505b80806138ed90614859565b915050613843565b505050565b60005b6002805490508110156139ad57600084828151811061391f5761391e6147c7565b5b6020026020010151111561399a57606483858381518110613943576139426147c7565b5b602002602001015161395591906148a1565b61395f9190614972565b60016000848152602001908152602001600020600083815260200190815260200160002060008282546139929190614825565b925050819055505b80806139a590614859565b9150506138fd565b50505050565b600033905090565b60405180608001604052806139ce6139e9565b81526020016000815260200160608152602001600081525090565b6040518060a00160405280600590602082028036833780820191505090505090565b6040518060800160405280600081526020016000815260200160008152602001600060ff1681525090565b6000604051905090565b600080fd5b600080fd5b6000819050919050565b613a5d81613a4a565b8114613a6857600080fd5b50565b600081359050613a7a81613a54565b92915050565b600080600060608486031215613a9957613a98613a40565b5b6000613aa786828701613a6b565b9350506020613ab886828701613a6b565b9250506040613ac986828701613a6b565b9150509250925092565b600060208284031215613ae957613ae8613a40565b5b6000613af784828501613a6b565b91505092915050565b600060059050919050565b600081905092915050565b6000819050919050565b613b2981613a4a565b82525050565b6000613b3b8383613b20565b60208301905092915050565b6000602082019050919050565b613b5d81613b00565b613b678184613b0b565b9250613b7282613b16565b8060005b83811015613ba3578151613b8a8782613b2f565b9650613b9583613b47565b925050600181019050613b76565b505050505050565b600081519050919050565b600082825260208201905092915050565b6000819050602082019050919050565b6000602082019050919050565b6000613bef82613bab565b613bf98185613bb6565b9350613c0483613bc7565b8060005b83811015613c35578151613c1c8882613b2f565b9750613c2783613bd7565b925050600181019050613c08565b5085935050505092915050565b600061010083016000830151613c5b6000860182613b54565b506020830151613c6e60a0860182613b20565b50604083015184820360c0860152613c868282613be4565b9150506060830151613c9b60e0860182613b20565b508091505092915050565b60006020820190508181036000830152613cc08184613c42565b905092915050565b600080fd5b6000601f19601f8301169050919050565b7f4e487b7100000000000000000000000000000000000000000000000000000000600052604160045260246000fd5b613d1682613ccd565b810181811067ffffffffffffffff82111715613d3557613d34613cde565b5b80604052505050565b6000613d48613a36565b9050613d548282613d0d565b919050565b600067ffffffffffffffff821115613d7457613d73613cde565b5b602082029050602081019050919050565b600080fd5b6000613d9d613d9884613d59565b613d3e565b90508083825260208201905060208402830185811115613dc057613dbf613d85565b5b835b81811015613de95780613dd58882613a6b565b845260208401935050602081019050613dc2565b5050509392505050565b600082601f830112613e0857613e07613cc8565b5b8135613e18848260208601613d8a565b91505092915050565b600080600060608486031215613e3a57613e39613a40565b5b600084013567ffffffffffffffff811115613e5857613e57613a45565b5b613e6486828701613df3565b9350506020613e7586828701613a6b565b9250506040613e8686828701613a6b565b9150509250925092565b600081905092915050565b613ea481613b00565b613eae8184613e90565b9250613eb982613b16565b8060005b83811015613eea578151613ed18782613b2f565b9650613edc83613b47565b925050600181019050613ebd565b505050505050565b600060a082019050613f076000830184613e9b565b92915050565b60008060408385031215613f2457613f23613a40565b5b6000613f3285828601613a6b565b9250506020613f4385828601613a6b565b9150509250929050565b600060ff82169050919050565b613f6381613f4d565b8114613f6e57600080fd5b50565b600081359050613f8081613f5a565b92915050565b60008060408385031215613f9d57613f9c613a40565b5b6000613fab85828601613a6b565b9250506020613fbc85828601613f71565b9150509250929050565b613fcf81613f4d565b82525050565b608082016000820151613feb6000850182613b20565b506020820151613ffe6020850182613b20565b5060408201516140116040850182613b20565b5060608201516140246060850182613fc6565b50505050565b600060808201905061403f6000830184613fd5565b92915050565b600073ffffffffffffffffffffffffffffffffffffffff82169050919050565b600061407082614045565b9050919050565b61408081614065565b82525050565b600060208201905061409b6000830184614077565b92915050565b600081519050919050565b600082825260208201905092915050565b6000819050602082019050919050565b600081519050919050565b600082825260208201905092915050565b60005b838110156141075780820151818401526020810190506140ec565b60008484015250505050565b600061411e826140cd565b61412881856140d8565b93506141388185602086016140e9565b61414181613ccd565b840191505092915050565b600060c0830160008301516141646000860182613fc6565b5060208301516141776020860182613fc6565b50604083015161418a6040860182613fc6565b50606083015161419d6060860182613fc6565b50608083015184820360808601526141b58282614113565b91505060a08301516141ca60a0860182613b20565b508091505092915050565b60006141e1838361414c565b905092915050565b6000602082019050919050565b6000614201826140a1565b61420b81856140ac565b93508360208202850161421d856140bd565b8060005b85811015614259578484038952815161423a85826141d5565b9450614245836141e9565b925060208a01995050600181019050614221565b50829750879550505050505092915050565b6000602082019050818103600083015261428581846141f6565b905092915050565b600082825260208201905092915050565b60006142a982613bab565b6142b3818561428d565b93506142be83613bc7565b8060005b838110156142ef5781516142d68882613b2f565b97506142e183613bd7565b9250506001810190506142c2565b5085935050505092915050565b60006020820190508181036000830152614316818461429e565b905092915050565b61432781613a4a565b82525050565b6000602082019050614342600083018461431e565b92915050565b600067ffffffffffffffff82111561436357614362613cde565b5b602082029050919050565b600061438161437c84614348565b613d3e565b9050806020840283018581111561439b5761439a613d85565b5b835b818110156143c457806143b08882613f71565b84526020840193505060208101905061439d565b5050509392505050565b600082601f8301126143e3576143e2613cc8565b5b60036143f084828561436e565b91505092915050565b600080fd5b600067ffffffffffffffff82111561441957614418613cde565b5b61442282613ccd565b9050602081019050919050565b82818337600083830152505050565b600061445161444c846143fe565b613d3e565b90508281526020810184848401111561446d5761446c6143f9565b5b61447884828561442f565b509392505050565b600082601f83011261449557614494613cc8565b5b81356144a584826020860161443e565b91505092915050565b600080600080600060e086880312156144ca576144c9613a40565b5b60006144d8888289016143ce565b95505060606144e988828901613f71565b945050608086013567ffffffffffffffff81111561450a57614509613a45565b5b61451688828901614480565b93505060a061452788828901613a6b565b92505060c061453888828901613a6b565b9150509295509295909350565b600081519050919050565b600082825260208201905092915050565b6000819050602082019050919050565b600060e0830160008301516145896000860182613b20565b50602083015161459c6020860182613b20565b5060408301516145af6040860182613b20565b5060608301516145c26060860182613b20565b5060808301516145d56080860182613b20565b5060a08301516145e860a0860182613b20565b5060c083015184820360c08601526146008282614113565b9150508091505092915050565b60006146198383614571565b905092915050565b6000602082019050919050565b600061463982614545565b6146438185614550565b93508360208202850161465585614561565b8060005b858110156146915784840389528151614672858261460d565b945061467d83614621565b925060208a01995050600181019050614659565b50829750879550505050505092915050565b600060208201905081810360008301526146bd818461462e565b905092915050565b600080600080608085870312156146df576146de613a40565b5b60006146ed87828801613a6b565b94505060206146fe87828801613a6b565b935050604061470f87828801613a6b565b925050606061472087828801613a6b565b91505092959194509250565b61473581614065565b811461474057600080fd5b50565b6000813590506147528161472c565b92915050565b60006020828403121561476e5761476d613a40565b5b600061477c84828501614743565b91505092915050565b6000815190506147948161472c565b92915050565b6000602082840312156147b0576147af613a40565b5b60006147be84828501614785565b91505092915050565b7f4e487b7100000000000000000000000000000000000000000000000000000000600052603260045260246000fd5b7f4e487b7100000000000000000000000000000000000000000000000000000000600052601160045260246000fd5b600061483082613a4a565b915061483b83613a4a565b9250828201905080821115614853576148526147f6565b5b92915050565b600061486482613a4a565b91507fffffffffffffffffffffffffffffffffffffffffffffffffffffffffffffffff8203614896576148956147f6565b5b600182019050919050565b60006148ac82613a4a565b91506148b783613a4a565b92508282026148c581613a4a565b915082820484148315176148dc576148db6147f6565b5b5092915050565b7f4e487b7100000000000000000000000000000000000000000000000000000000600052602260045260246000fd5b6000600282049050600182168061492a57607f821691505b60208210810361493d5761493c6148e3565b5b50919050565b7f4e487b7100000000000000000000000000000000000000000000000000000000600052601260045260246000fd5b600061497d82613a4a565b915061498883613a4a565b92508261499857614997614943565b5b828204905092915050565b600082825260208201905092915050565b7f496e76616c6964206c616e640000000000000000000000000000000000000000600082015250565b60006149ea600c836149a3565b91506149f5826149b4565b602082019050919050565b60006020820190508181036000830152614a19816149dd565b9050919050565b60008115159050919050565b614a3581614a20565b82525050565b6000604082019050614a506000830185614a2c565b8181036020830152614a62818461429e565b90509392505050565b6000614a7682613a4a565b9150614a8183613a4a565b9250828203905081811115614a9957614a986147f6565b5b92915050565b7f596f757220776f726b6572206973206275737900000000000000000000000000600082015250565b6000614ad56013836149a3565b9150614ae082614a9f565b602082019050919050565b60006020820190508181036000830152614b0481614ac8565b9050919050565b7f496e73756666696369656e7420636f6d6d6f6469746965730000000000000000600082015250565b6000614b416018836149a3565b9150614b4c82614b0b565b602082019050919050565b60006020820190508181036000830152614b7081614b34565b9050919050565b6000819050919050565b6000614b9c614b97614b9284613f4d565b614b77565b613a4a565b9050919050565b614bac81614b81565b82525050565b6000602082019050614bc76000830184614ba3565b92915050565b60008190508160005260206000209050919050565b60006020601f8301049050919050565b600082821b905092915050565b600060088302614c2f7fffffffffffffffffffffffffffffffffffffffffffffffffffffffffffffffff82614bf2565b614c398683614bf2565b95508019841693508086168417925050509392505050565b6000614c6c614c67614c6284613a4a565b614b77565b613a4a565b9050919050565b6000819050919050565b614c8683614c51565b614c9a614c9282614c73565b848454614bff565b825550505050565b600090565b614caf614ca2565b614cba818484614c7d565b505050565b5b81811015614cde57614cd3600082614ca7565b600181019050614cc0565b5050565b601f821115614d2357614cf481614bcd565b614cfd84614be2565b81016020851015614d0c578190505b614d20614d1885614be2565b830182614cbf565b50505b505050565b600082821c905092915050565b6000614d4660001984600802614d28565b1980831691505092915050565b6000614d5f8383614d35565b9150826002028217905092915050565b614d78826140cd565b67ffffffffffffffff811115614d9157614d90613cde565b5b614d9b8254614912565b614da6828285614ce2565b600060209050601f831160018114614dd95760008415614dc7578287015190505b614dd18582614d53565b865550614e39565b601f198416614de786614bcd565b60005b82811015614e0f57848901518255600182019150602085019450602081019050614dea565b86831015614e2c5784890151614e28601f891682614d35565b8355505b6001600288020188555050505b505050505050565b7f4f776e61626c653a206e6577206f776e657220697320746865207a65726f206160008201527f6464726573730000000000000000000000000000000000000000000000000000602082015250565b6000614e9d6026836149a3565b9150614ea882614e41565b604082019050919050565b60006020820190508181036000830152614ecc81614e90565b9050919050565b6000606082019050614ee86000830186614077565b614ef56020830185614077565b614f02604083018461431e565b949350505050565b600081519050919050565b600081905092915050565b6000614f2b82614f0a565b614f358185614f15565b9350614f458185602086016140e9565b80840191505092915050565b6000614f5d8284614f20565b915081905092915050565b614f7181614a20565b8114614f7c57600080fd5b50565b600081519050614f8e81614f68565b92915050565b600060208284031215614faa57614fa9613a40565b5b6000614fb884828501614f7f565b91505092915050565b7f5354460000000000000000000000000000000000000000000000000000000000600082015250565b6000614ff76003836149a3565b915061500282614fc1565b602082019050919050565b6000602082019050818103600083015261502681614fea565b9050919050565b7f4c656e6774687320646f6573206e6f74206d6174636800000000000000000000600082015250565b60006150636016836149a3565b915061506e8261502d565b602082019050919050565b6000602082019050818103600083015261509281615056565b9050919050565b7f496e73756666696369656e742061726d79000000000000000000000000000000600082015250565b60006150cf6011836149a3565b91506150da82615099565b602082019050919050565b600060208201905081810360008301526150fe816150c2565b9050919050565b600060a08201905061511a600083018861431e565b615127602083018761431e565b8181036040830152615139818661429e565b9050818103606083015261514d818561429e565b905061515c6080830184614a2c565b9695505050505050565b7f4f776e61626c653a2063616c6c6572206973206e6f7420746865206f776e6572600082015250565b600061519c6020836149a3565b91506151a782615166565b602082019050919050565b600060208201905081810360008301526151cb8161518f565b9050919050565b60006040820190506151e76000830185614077565b6151f4602083018461431e565b9392505050565b7f5354000000000000000000000000000000000000000000000000000000000000600082015250565b60006152316002836149a3565b915061523c826151fb565b602082019050919050565b6000602082019050818103600083015261526081615224565b905091905056fea2646970667358221220265ba371442b2b9a194dbe87374a844e73e2d43dd7cb2057357f9b94c78c5b8264736f6c63430008130033",
  "linkReferences": {},
  "deployedLinkReferences": {}
}