{
  "_format": "hh-sol-artifact-1",
  "contractName": "Building",
  "sourceName": "contracts/Building.sol",
  "abi": [
    {
      "inputs": [
        {
          "internalType": "address",
          "name": "landsContractAddress",
          "type": "address"
        }
      ],
      "stateMutability": "nonpayable",
      "type": "constructor"
    },
    {
      "anonymous": false,
      "inputs": [
        {
          "indexed": true,
          "internalType": "address",
          "name": "owner",
          "type": "address"
        },
        {
          "indexed": true,
          "internalType": "address",
          "name": "approved",
          "type": "address"
        },
        {
          "indexed": true,
          "internalType": "uint256",
          "name": "tokenId",
          "type": "uint256"
        }
      ],
      "name": "Approval",
      "type": "event"
    },
    {
      "anonymous": false,
      "inputs": [
        {
          "indexed": true,
          "internalType": "address",
          "name": "owner",
          "type": "address"
        },
        {
          "indexed": true,
          "internalType": "address",
          "name": "operator",
          "type": "address"
        },
        {
          "indexed": false,
          "internalType": "bool",
          "name": "approved",
          "type": "bool"
        }
      ],
      "name": "ApprovalForAll",
      "type": "event"
    },
    {
      "anonymous": false,
      "inputs": [
        {
          "indexed": true,
          "internalType": "address",
          "name": "previousOwner",
          "type": "address"
        },
        {
          "indexed": true,
          "internalType": "address",
          "name": "newOwner",
          "type": "address"
        }
      ],
      "name": "OwnershipTransferred",
      "type": "event"
    },
    {
      "anonymous": false,
      "inputs": [
        {
          "indexed": true,
          "internalType": "address",
          "name": "from",
          "type": "address"
        },
        {
          "indexed": true,
          "internalType": "address",
          "name": "to",
          "type": "address"
        },
        {
          "indexed": true,
          "internalType": "uint256",
          "name": "tokenId",
          "type": "uint256"
        }
      ],
      "name": "Transfer",
      "type": "event"
    },
    {
      "inputs": [
        {
          "internalType": "uint256[7]",
          "name": "requiredCommodities",
          "type": "uint256[7]"
        },
        {
          "internalType": "string",
          "name": "imgUrl",
          "type": "string"
        },
        {
          "internalType": "string",
          "name": "name",
          "type": "string"
        }
      ],
      "name": "addNewBuilding",
      "outputs": [],
      "stateMutability": "nonpayable",
      "type": "function"
    },
    {
      "inputs": [
        {
          "internalType": "address",
          "name": "to",
          "type": "address"
        },
        {
          "internalType": "uint256",
          "name": "tokenId",
          "type": "uint256"
        }
      ],
      "name": "approve",
      "outputs": [],
      "stateMutability": "nonpayable",
      "type": "function"
    },
    {
      "inputs": [
        {
          "internalType": "address",
          "name": "owner",
          "type": "address"
        }
      ],
      "name": "balanceOf",
      "outputs": [
        {
          "internalType": "uint256",
          "name": "",
          "type": "uint256"
        }
      ],
      "stateMutability": "view",
      "type": "function"
    },
    {
      "inputs": [
        {
          "internalType": "uint256",
          "name": "landTokenId",
          "type": "uint256"
        },
        {
          "internalType": "uint8",
          "name": "buildingIndex",
          "type": "uint8"
        }
      ],
      "name": "build",
      "outputs": [],
      "stateMutability": "nonpayable",
      "type": "function"
    },
    {
      "inputs": [
        {
          "internalType": "uint256",
          "name": "buildingTokenId",
          "type": "uint256"
        }
      ],
      "name": "claimRevenue",
      "outputs": [],
      "stateMutability": "nonpayable",
      "type": "function"
    },
    {
      "inputs": [
        {
          "internalType": "uint256",
          "name": "tokenId",
          "type": "uint256"
        }
      ],
      "name": "getApproved",
      "outputs": [
        {
          "internalType": "address",
          "name": "",
          "type": "address"
        }
      ],
      "stateMutability": "view",
      "type": "function"
    },
    {
      "inputs": [
        {
          "internalType": "uint256",
          "name": "landTokenId",
          "type": "uint256"
        },
        {
          "internalType": "uint8",
          "name": "commodityTokenIndex",
          "type": "uint8"
        }
      ],
      "name": "getBal",
      "outputs": [
        {
          "internalType": "uint256",
          "name": "",
          "type": "uint256"
        }
      ],
      "stateMutability": "view",
      "type": "function"
    },
    {
      "inputs": [],
      "name": "getBuildings",
      "outputs": [
        {
          "components": [
            {
              "internalType": "uint256",
              "name": "requiredStone",
              "type": "uint256"
            },
            {
              "internalType": "uint256",
              "name": "requiredWood",
              "type": "uint256"
            },
            {
              "internalType": "uint256",
              "name": "requiredIron",
              "type": "uint256"
            },
            {
              "internalType": "uint256",
              "name": "requiredGold",
              "type": "uint256"
            },
            {
              "internalType": "uint256",
              "name": "requiredFood",
              "type": "uint256"
            },
            {
              "internalType": "uint256",
              "name": "baseRev",
              "type": "uint256"
            },
            {
              "internalType": "uint256",
              "name": "baseCapacity",
              "type": "uint256"
            },
            {
              "internalType": "uint256",
              "name": "revTokenIndex",
              "type": "uint256"
            },
            {
              "internalType": "string",
              "name": "imageURL",
              "type": "string"
            },
            {
              "internalType": "string",
              "name": "biuldingName",
              "type": "string"
            }
          ],
          "internalType": "struct Building.Info[]",
          "name": "",
          "type": "tuple[]"
        }
      ],
      "stateMutability": "view",
      "type": "function"
    },
    {
      "inputs": [
        {
          "internalType": "uint256",
          "name": "buildingTokenId",
          "type": "uint256"
        }
      ],
      "name": "getCurrentRevenue",
      "outputs": [
        {
          "internalType": "uint256",
          "name": "",
          "type": "uint256"
        }
      ],
      "stateMutability": "view",
      "type": "function"
    },
    {
      "inputs": [
        {
          "internalType": "uint256",
          "name": "tokenId",
          "type": "uint256"
        }
      ],
      "name": "getStatus",
      "outputs": [
        {
          "components": [
            {
              "internalType": "uint256",
              "name": "level",
              "type": "uint256"
            },
            {
              "internalType": "uint256",
              "name": "latestActionTimestamp",
              "type": "uint256"
            },
            {
              "internalType": "uint256",
              "name": "attachedLand",
              "type": "uint256"
            },
            {
              "internalType": "uint8",
              "name": "buildingTypeIndex",
              "type": "uint8"
            }
          ],
          "internalType": "struct Building.Status",
          "name": "",
          "type": "tuple"
        }
      ],
      "stateMutability": "view",
      "type": "function"
    },
    {
      "inputs": [
        {
          "internalType": "address",
          "name": "owner",
          "type": "address"
        },
        {
          "internalType": "address",
          "name": "operator",
          "type": "address"
        }
      ],
      "name": "isApprovedForAll",
      "outputs": [
        {
          "internalType": "bool",
          "name": "",
          "type": "bool"
        }
      ],
      "stateMutability": "view",
      "type": "function"
    },
    {
      "inputs": [],
      "name": "name",
      "outputs": [
        {
          "internalType": "string",
          "name": "",
          "type": "string"
        }
      ],
      "stateMutability": "view",
      "type": "function"
    },
    {
      "inputs": [],
      "name": "owner",
      "outputs": [
        {
          "internalType": "address",
          "name": "",
          "type": "address"
        }
      ],
      "stateMutability": "view",
      "type": "function"
    },
    {
      "inputs": [
        {
          "internalType": "uint256",
          "name": "tokenId",
          "type": "uint256"
        }
      ],
      "name": "ownerOf",
      "outputs": [
        {
          "internalType": "address",
          "name": "",
          "type": "address"
        }
      ],
      "stateMutability": "view",
      "type": "function"
    },
    {
      "inputs": [],
      "name": "renounceOwnership",
      "outputs": [],
      "stateMutability": "nonpayable",
      "type": "function"
    },
    {
      "inputs": [
        {
          "internalType": "address",
          "name": "from",
          "type": "address"
        },
        {
          "internalType": "address",
          "name": "to",
          "type": "address"
        },
        {
          "internalType": "uint256",
          "name": "tokenId",
          "type": "uint256"
        }
      ],
      "name": "safeTransferFrom",
      "outputs": [],
      "stateMutability": "nonpayable",
      "type": "function"
    },
    {
      "inputs": [
        {
          "internalType": "address",
          "name": "from",
          "type": "address"
        },
        {
          "internalType": "address",
          "name": "to",
          "type": "address"
        },
        {
          "internalType": "uint256",
          "name": "tokenId",
          "type": "uint256"
        },
        {
          "internalType": "bytes",
          "name": "data",
          "type": "bytes"
        }
      ],
      "name": "safeTransferFrom",
      "outputs": [],
      "stateMutability": "nonpayable",
      "type": "function"
    },
    {
      "inputs": [
        {
          "internalType": "address",
          "name": "operator",
          "type": "address"
        },
        {
          "internalType": "bool",
          "name": "approved",
          "type": "bool"
        }
      ],
      "name": "setApprovalForAll",
      "outputs": [],
      "stateMutability": "nonpayable",
      "type": "function"
    },
    {
      "inputs": [
        {
          "internalType": "bytes4",
          "name": "interfaceId",
          "type": "bytes4"
        }
      ],
      "name": "supportsInterface",
      "outputs": [
        {
          "internalType": "bool",
          "name": "",
          "type": "bool"
        }
      ],
      "stateMutability": "view",
      "type": "function"
    },
    {
      "inputs": [],
      "name": "symbol",
      "outputs": [
        {
          "internalType": "string",
          "name": "",
          "type": "string"
        }
      ],
      "stateMutability": "view",
      "type": "function"
    },
    {
      "inputs": [
        {
          "internalType": "uint256",
          "name": "_tokenId",
          "type": "uint256"
        }
      ],
      "name": "tokenURI",
      "outputs": [
        {
          "internalType": "string",
          "name": "",
          "type": "string"
        }
      ],
      "stateMutability": "view",
      "type": "function"
    },
    {
      "inputs": [
        {
          "internalType": "address",
          "name": "from",
          "type": "address"
        },
        {
          "internalType": "address",
          "name": "to",
          "type": "address"
        },
        {
          "internalType": "uint256",
          "name": "tokenId",
          "type": "uint256"
        }
      ],
      "name": "transferFrom",
      "outputs": [],
      "stateMutability": "nonpayable",
      "type": "function"
    },
    {
      "inputs": [
        {
          "internalType": "address",
          "name": "newOwner",
          "type": "address"
        }
      ],
      "name": "transferOwnership",
      "outputs": [],
      "stateMutability": "nonpayable",
      "type": "function"
    },
    {
      "inputs": [
        {
          "internalType": "uint256",
          "name": "buildingTokenId",
          "type": "uint256"
        },
        {
          "internalType": "uint256",
          "name": "landTokenId",
          "type": "uint256"
        }
      ],
      "name": "upgrade",
      "outputs": [],
      "stateMutability": "nonpayable",
      "type": "function"
    }
  ],
  "bytecode": "0x608060405260016008553480156200001657600080fd5b50604051620052753803806200527583398181016040528101906200003c91906200026e565b6040518060400160405280600981526020017f4275696c64696e677300000000000000000000000000000000000000000000008152506040518060400160405280600381526020017f42444700000000000000000000000000000000000000000000000000000000008152508160009081620000b991906200051a565b508060019081620000cb91906200051a565b505050620000ee620000e26200013660201b60201c565b6200013e60201b60201c565b80600760006101000a81548173ffffffffffffffffffffffffffffffffffffffff021916908373ffffffffffffffffffffffffffffffffffffffff1602179055505062000601565b600033905090565b6000600660009054906101000a900473ffffffffffffffffffffffffffffffffffffffff16905081600660006101000a81548173ffffffffffffffffffffffffffffffffffffffff021916908373ffffffffffffffffffffffffffffffffffffffff1602179055508173ffffffffffffffffffffffffffffffffffffffff168173ffffffffffffffffffffffffffffffffffffffff167f8be0079c531659141344cd1fd0a4f28419497f9722a3daafe3b4186f6b6457e060405160405180910390a35050565b600080fd5b600073ffffffffffffffffffffffffffffffffffffffff82169050919050565b6000620002368262000209565b9050919050565b620002488162000229565b81146200025457600080fd5b50565b60008151905062000268816200023d565b92915050565b60006020828403121562000287576200028662000204565b5b6000620002978482850162000257565b91505092915050565b600081519050919050565b7f4e487b7100000000000000000000000000000000000000000000000000000000600052604160045260246000fd5b7f4e487b7100000000000000000000000000000000000000000000000000000000600052602260045260246000fd5b600060028204905060018216806200032257607f821691505b602082108103620003385762000337620002da565b5b50919050565b60008190508160005260206000209050919050565b60006020601f8301049050919050565b600082821b905092915050565b600060088302620003a27fffffffffffffffffffffffffffffffffffffffffffffffffffffffffffffffff8262000363565b620003ae868362000363565b95508019841693508086168417925050509392505050565b6000819050919050565b6000819050919050565b6000620003fb620003f5620003ef84620003c6565b620003d0565b620003c6565b9050919050565b6000819050919050565b6200041783620003da565b6200042f620004268262000402565b84845462000370565b825550505050565b600090565b6200044662000437565b620004538184846200040c565b505050565b5b818110156200047b576200046f6000826200043c565b60018101905062000459565b5050565b601f821115620004ca5762000494816200033e565b6200049f8462000353565b81016020851015620004af578190505b620004c7620004be8562000353565b83018262000458565b50505b505050565b600082821c905092915050565b6000620004ef60001984600802620004cf565b1980831691505092915050565b60006200050a8383620004dc565b9150826002028217905092915050565b6200052582620002a0565b67ffffffffffffffff811115620005415762000540620002ab565b5b6200054d825462000309565b6200055a8282856200047f565b600060209050601f8311600181146200059257600084156200057d578287015190505b620005898582620004fc565b865550620005f9565b601f198416620005a2866200033e565b60005b82811015620005cc57848901518255600182019150602085019450602081019050620005a5565b86831015620005ec5784890151620005e8601f891682620004dc565b8355505b6001600288020188555050505b505050505050565b614c6480620006116000396000f3fe608060405234801561001057600080fd5b50600436106101585760003560e01c806370a08231116100c3578063ae0324c51161007c578063ae0324c5146103d5578063b88d4fde146103f1578063c87b56dd1461040d578063d9cf6a261461043d578063e985e9c51461045b578063f2fde38b1461048b57610158565b806370a0823114610313578063715018a6146103435780638da5cb5b1461034d57806395d89b411461036b578063a22cb46514610389578063aa7e7fa7146103a557610158565b806342842e0e1161011557806342842e0e1461022f578063451450ec1461024b5780634639aa3f14610267578063595c3824146102835780635c622a0e146102b35780636352211e146102e357610158565b806301ffc9a71461015d57806306fdde031461018d578063081812fc146101ab578063095ea7b3146101db5780631cb536ed146101f757806323b872dd14610213575b600080fd5b61017760048036038101906101729190613020565b6104a7565b6040516101849190613068565b60405180910390f35b610195610589565b6040516101a29190613113565b60405180910390f35b6101c560048036038101906101c0919061316b565b61061b565b6040516101d291906131d9565b60405180910390f35b6101f560048036038101906101f09190613220565b610661565b005b610211600480360381019061020c919061316b565b610778565b005b61022d60048036038101906102289190613260565b610a83565b005b61024960048036038101906102449190613260565b610ae3565b005b610265600480360381019061026091906132b3565b610b03565b005b610281600480360381019061027c919061332c565b610f90565b005b61029d6004803603810190610298919061332c565b6114ec565b6040516102aa919061337b565b60405180910390f35b6102cd60048036038101906102c8919061316b565b611594565b6040516102da9190613409565b60405180910390f35b6102fd60048036038101906102f8919061316b565b6115fc565b60405161030a91906131d9565b60405180910390f35b61032d60048036038101906103289190613424565b611682565b60405161033a919061337b565b60405180910390f35b61034b611739565b005b61035561174d565b60405161036291906131d9565b60405180910390f35b610373611777565b6040516103809190613113565b60405180910390f35b6103a3600480360381019061039e919061347d565b611809565b005b6103bf60048036038101906103ba919061316b565b61181f565b6040516103cc919061337b565b60405180910390f35b6103ef60048036038101906103ea91906136a8565b611a69565b005b61040b600480360381019061040691906137d6565b611c14565b005b6104276004803603810190610422919061316b565b611c76565b6040516104349190613113565b60405180910390f35b610445611ed9565b6040516104529190613a46565b60405180910390f35b61047560048036038101906104709190613a68565b6120ad565b6040516104829190613068565b60405180910390f35b6104a560048036038101906104a09190613424565b612141565b005b60007f80ac58cd000000000000000000000000000000000000000000000000000000007bffffffffffffffffffffffffffffffffffffffffffffffffffffffff1916827bffffffffffffffffffffffffffffffffffffffffffffffffffffffff1916148061057257507f5b5e139f000000000000000000000000000000000000000000000000000000007bffffffffffffffffffffffffffffffffffffffffffffffffffffffff1916827bffffffffffffffffffffffffffffffffffffffffffffffffffffffff1916145b806105825750610581826121c4565b5b9050919050565b60606000805461059890613ad7565b80601f01602080910402602001604051908101604052809291908181526020018280546105c490613ad7565b80156106115780601f106105e657610100808354040283529160200191610611565b820191906000526020600020905b8154815290600101906020018083116105f457829003601f168201915b5050505050905090565b60006106268261222e565b6004600083815260200190815260200160002060009054906101000a900473ffffffffffffffffffffffffffffffffffffffff169050919050565b600061066c826115fc565b90508073ffffffffffffffffffffffffffffffffffffffff168373ffffffffffffffffffffffffffffffffffffffff16036106dc576040517f08c379a00000000000000000000000000000000000000000000000000000000081526004016106d390613b7a565b60405180910390fd5b8073ffffffffffffffffffffffffffffffffffffffff166106fb612279565b73ffffffffffffffffffffffffffffffffffffffff16148061072a575061072981610724612279565b6120ad565b5b610769576040517f08c379a000000000000000000000000000000000000000000000000000000000815260040161076090613c0c565b60405180910390fd5b6107738383612281565b505050565b803373ffffffffffffffffffffffffffffffffffffffff166107998261233a565b73ffffffffffffffffffffffffffffffffffffffff16146107ef576040517f08c379a00000000000000000000000000000000000000000000000000000000081526004016107e690613c78565b60405180910390fd5b60006107fa83611594565b90506000600a826060015160ff168154811061081957610818613c98565b5b90600052602060002090600a020160405180610140016040529081600082015481526020016001820154815260200160028201548152602001600382015481526020016004820154815260200160058201548152602001600682015481526020016007820154815260200160088201805461089390613ad7565b80601f01602080910402602001604051908101604052809291908181526020018280546108bf90613ad7565b801561090c5780601f106108e15761010080835404028352916020019161090c565b820191906000526020600020905b8154815290600101906020018083116108ef57829003601f168201915b5050505050815260200160098201805461092590613ad7565b80601f016020809104026020016040519081016040528092919081815260200182805461095190613ad7565b801561099e5780601f106109735761010080835404028352916020019161099e565b820191906000526020600020905b81548152906001019060200180831161098157829003601f168201915b505050505081525050905060006109b48561181f565b905042600b600087815260200190815260200160002060010181905550600760009054906101000a900473ffffffffffffffffffffffffffffffffffffffff1673ffffffffffffffffffffffffffffffffffffffff1663728834a58360e0015183600b60008a8152602001908152602001600020600201546040518463ffffffff1660e01b8152600401610a4a93929190613cc7565b600060405180830381600087803b158015610a6457600080fd5b505af1158015610a78573d6000803e3d6000fd5b505050505050505050565b610a94610a8e612279565b82612377565b610ad3576040517f08c379a0000000000000000000000000000000000000000000000000000000008152600401610aca90613d70565b60405180910390fd5b610ade83838361240c565b505050565b610afe83838360405180602001604052806000815250611c14565b505050565b816000600b600083815260200190815260200160002060010154905060008142610b2d9190613dbf565b9050620151808110610b74576040517f08c379a0000000000000000000000000000000000000000000000000000000008152600401610b6b90613e65565b60405180910390fd5b6000600b600087815260200190815260200160002060030160009054906101000a900460ff1660ff1690506000600b60008881526020019081526020016000206000015490506000600a8381548110610bd057610bcf613c98565b5b90600052602060002090600a0201604051806101400160405290816000820154815260200160018201548152602001600282015481526020016003820154815260200160048201548152602001600582015481526020016006820154815260200160078201548152602001600882018054610c4a90613ad7565b80601f0160208091040260200160405190810160405280929190818152602001828054610c7690613ad7565b8015610cc35780601f10610c9857610100808354040283529160200191610cc3565b820191906000526020600020905b815481529060010190602001808311610ca657829003601f168201915b50505050508152602001600982018054610cdc90613ad7565b80601f0160208091040260200160405190810160405280929190818152602001828054610d0890613ad7565b8015610d555780601f10610d2a57610100808354040283529160200191610d55565b820191906000526020600020905b815481529060010190602001808311610d3857829003601f168201915b50505050508152505090506000600183610d6f9190613e85565b8260000151610d7e9190613eb9565b90506000600184610d8f9190613e85565b8360200151610d9e9190613eb9565b90506000600185610daf9190613e85565b8460400151610dbe9190613eb9565b90506000600186610dcf9190613e85565b8560600151610dde9190613eb9565b90506000600187610def9190613e85565b8660800151610dfe9190613eb9565b905084610e0c8d60006114ec565b10158015610e24575083610e218d60016114ec565b10155b8015610e3a575082610e378d60026114ec565b10155b8015610e50575081610e4d8d60036114ec565b10155b8015610e66575080610e638d60046114ec565b10155b610ea5576040517f08c379a0000000000000000000000000000000000000000000000000000000008152600401610e9c90613f47565b60405180910390fd5b600760009054906101000a900473ffffffffffffffffffffffffffffffffffffffff1673ffffffffffffffffffffffffffffffffffffffff1663308fad6d8d6040518060a00160405280898152602001888152602001878152602001868152602001858152506040518363ffffffff1660e01b8152600401610f28929190614003565b600060405180830381600087803b158015610f4257600080fd5b505af1158015610f56573d6000803e3d6000fd5b50505050600187610f679190613e85565b600b60008f81526020019081526020016000206000018190555050505050505050505050505050565b813373ffffffffffffffffffffffffffffffffffffffff16600760009054906101000a900473ffffffffffffffffffffffffffffffffffffffff1673ffffffffffffffffffffffffffffffffffffffff16636352211e836040518263ffffffff1660e01b8152600401611003919061337b565b602060405180830381865afa158015611020573d6000803e3d6000fd5b505050506040513d601f19601f820116820180604052508101906110449190614041565b73ffffffffffffffffffffffffffffffffffffffff161461109a576040517f08c379a0000000000000000000000000000000000000000000000000000000008152600401611091906140ba565b60405180910390fd5b600960009054906101000a900460ff1660ff168260ff16106110f1576040517f08c379a00000000000000000000000000000000000000000000000000000000081526004016110e890614126565b60405180910390fd5b6000600a8360ff168154811061110a57611109613c98565b5b90600052602060002090600a020160405180610140016040529081600082015481526020016001820154815260200160028201548152602001600382015481526020016004820154815260200160058201548152602001600682015481526020016007820154815260200160088201805461118490613ad7565b80601f01602080910402602001604051908101604052809291908181526020018280546111b090613ad7565b80156111fd5780601f106111d2576101008083540402835291602001916111fd565b820191906000526020600020905b8154815290600101906020018083116111e057829003601f168201915b5050505050815260200160098201805461121690613ad7565b80601f016020809104026020016040519081016040528092919081815260200182805461124290613ad7565b801561128f5780601f106112645761010080835404028352916020019161128f565b820191906000526020600020905b81548152906001019060200180831161127257829003601f168201915b505050505081525050905060006112a78560006114ec565b905060006112b68660016114ec565b905060006112c58760026114ec565b905060006112d48860036114ec565b905060006112e38960046114ec565b9050856000015185101580156112fd575085602001518410155b801561130d575085604001518310155b801561131d575085608001518210155b801561132d575085606001518110155b61136c576040517f08c379a000000000000000000000000000000000000000000000000000000000815260040161136390613f47565b60405180910390fd5b600760009054906101000a900473ffffffffffffffffffffffffffffffffffffffff1673ffffffffffffffffffffffffffffffffffffffff1663308fad6d8a6040518060a001604052808a6000015181526020018a6020015181526020018a6040015181526020018a6080015181526020018a606001518152506040518363ffffffff1660e01b8152600401611403929190614003565b600060405180830381600087803b15801561141d57600080fd5b505af1158015611431573d6000803e3d6000fd5b505050506040518060800160405280600181526020014281526020018a81526020018960ff16815250600b6000600854815260200190815260200160002060008201518160000155602082015181600101556040820151816002015560608201518160030160006101000a81548160ff021916908360ff1602179055509050506114bd33600854612705565b6114c989600854612723565b600860008154809291906114dc90614146565b9190505550505050505050505050565b6000600760009054906101000a900473ffffffffffffffffffffffffffffffffffffffff1673ffffffffffffffffffffffffffffffffffffffff16639c930ab184846040518363ffffffff1660e01b815260040161154b9291906141c9565b602060405180830381865afa158015611568573d6000803e3d6000fd5b505050506040513d601f19601f8201168201806040525081019061158c9190614207565b905092915050565b61159c612f89565b600b60008381526020019081526020016000206040518060800160405290816000820154815260200160018201548152602001600282015481526020016003820160009054906101000a900460ff1660ff1660ff16815250509050919050565b6000806116088361233a565b9050600073ffffffffffffffffffffffffffffffffffffffff168173ffffffffffffffffffffffffffffffffffffffff1603611679576040517f08c379a000000000000000000000000000000000000000000000000000000000815260040161167090614280565b60405180910390fd5b80915050919050565b60008073ffffffffffffffffffffffffffffffffffffffff168273ffffffffffffffffffffffffffffffffffffffff16036116f2576040517f08c379a00000000000000000000000000000000000000000000000000000000081526004016116e990614312565b60405180910390fd5b600360008373ffffffffffffffffffffffffffffffffffffffff1673ffffffffffffffffffffffffffffffffffffffff168152602001908152602001600020549050919050565b61174161280e565b61174b600061288c565b565b6000600660009054906101000a900473ffffffffffffffffffffffffffffffffffffffff16905090565b60606001805461178690613ad7565b80601f01602080910402602001604051908101604052809291908181526020018280546117b290613ad7565b80156117ff5780601f106117d4576101008083540402835291602001916117ff565b820191906000526020600020905b8154815290600101906020018083116117e257829003601f168201915b5050505050905090565b61181b611814612279565b8383612952565b5050565b60008061182b83611594565b90506000600a826060015160ff168154811061184a57611849613c98565b5b90600052602060002090600a02016040518061014001604052908160008201548152602001600182015481526020016002820154815260200160038201548152602001600482015481526020016005820154815260200160068201548152602001600782015481526020016008820180546118c490613ad7565b80601f01602080910402602001604051908101604052809291908181526020018280546118f090613ad7565b801561193d5780601f106119125761010080835404028352916020019161193d565b820191906000526020600020905b81548152906001019060200180831161192057829003601f168201915b5050505050815260200160098201805461195690613ad7565b80601f016020809104026020016040519081016040528092919081815260200182805461198290613ad7565b80156119cf5780601f106119a4576101008083540402835291602001916119cf565b820191906000526020600020905b8154815290600101906020018083116119b257829003601f168201915b5050505050815250509050600082602001519050600081426119f19190613dbf565b905060008360a001518560000151611a099190613eb9565b90506000816201518084611a1d9190614361565b611a279190613eb9565b905085600001518560c00151611a3d9190613eb9565b811115611a5b5785600001518560c00151611a589190613eb9565b90505b809650505050505050919050565b611a7161280e565b600a60405180610140016040528085600060078110611a9357611a92613c98565b5b6020020151815260200185600160078110611ab157611ab0613c98565b5b6020020151815260200185600260078110611acf57611ace613c98565b5b6020020151815260200185600360078110611aed57611aec613c98565b5b6020020151815260200185600460078110611b0b57611b0a613c98565b5b6020020151815260200185600560078110611b2957611b28613c98565b5b6020020151815260200185600660078110611b4757611b46613c98565b5b60200201518152602001600a8054905081526020018481526020018381525090806001815401808255809150506001900390600052602060002090600a0201600090919091909150600082015181600001556020820151816001015560408201518160020155606082015181600301556080820151816004015560a0820151816005015560c0820151816006015560e08201518160070155610100820151816008019081611bf59190614534565b50610120820151816009019081611c0c9190614534565b505050505050565b611c25611c1f612279565b83612377565b611c64576040517f08c379a0000000000000000000000000000000000000000000000000000000008152600401611c5b90613d70565b60405180910390fd5b611c7084848484612abe565b50505050565b6060611c8182612b1a565b611cc0576040517f08c379a0000000000000000000000000000000000000000000000000000000008152600401611cb790614678565b60405180910390fd5b6000600b60008481526020019081526020016000206040518060800160405290816000820154815260200160018201548152602001600282015481526020016003820160009054906101000a900460ff1660ff1660ff168152505090506000600a826060015160ff1681548110611d3a57611d39613c98565b5b90600052602060002090600a0201604051806101400160405290816000820154815260200160018201548152602001600282015481526020016003820154815260200160048201548152602001600582015481526020016006820154815260200160078201548152602001600882018054611db490613ad7565b80601f0160208091040260200160405190810160405280929190818152602001828054611de090613ad7565b8015611e2d5780601f10611e0257610100808354040283529160200191611e2d565b820191906000526020600020905b815481529060010190602001808311611e1057829003601f168201915b50505050508152602001600982018054611e4690613ad7565b80601f0160208091040260200160405190810160405280929190818152602001828054611e7290613ad7565b8015611ebf5780601f10611e9457610100808354040283529160200191611ebf565b820191906000526020600020905b815481529060010190602001808311611ea257829003601f168201915b505050505081525050905080610100015192505050919050565b6060600a805480602002602001604051908101604052809291908181526020016000905b828210156120a457838290600052602060002090600a0201604051806101400160405290816000820154815260200160018201548152602001600282015481526020016003820154815260200160048201548152602001600582015481526020016006820154815260200160078201548152602001600882018054611f8190613ad7565b80601f0160208091040260200160405190810160405280929190818152602001828054611fad90613ad7565b8015611ffa5780601f10611fcf57610100808354040283529160200191611ffa565b820191906000526020600020905b815481529060010190602001808311611fdd57829003601f168201915b5050505050815260200160098201805461201390613ad7565b80601f016020809104026020016040519081016040528092919081815260200182805461203f90613ad7565b801561208c5780601f106120615761010080835404028352916020019161208c565b820191906000526020600020905b81548152906001019060200180831161206f57829003601f168201915b50505050508152505081526020019060010190611efd565b50505050905090565b6000600560008473ffffffffffffffffffffffffffffffffffffffff1673ffffffffffffffffffffffffffffffffffffffff16815260200190815260200160002060008373ffffffffffffffffffffffffffffffffffffffff1673ffffffffffffffffffffffffffffffffffffffff16815260200190815260200160002060009054906101000a900460ff16905092915050565b61214961280e565b600073ffffffffffffffffffffffffffffffffffffffff168173ffffffffffffffffffffffffffffffffffffffff16036121b8576040517f08c379a00000000000000000000000000000000000000000000000000000000081526004016121af9061470a565b60405180910390fd5b6121c18161288c565b50565b60007f01ffc9a7000000000000000000000000000000000000000000000000000000007bffffffffffffffffffffffffffffffffffffffffffffffffffffffff1916827bffffffffffffffffffffffffffffffffffffffffffffffffffffffff1916149050919050565b61223781612b1a565b612276576040517f08c379a000000000000000000000000000000000000000000000000000000000815260040161226d90614280565b60405180910390fd5b50565b600033905090565b816004600083815260200190815260200160002060006101000a81548173ffffffffffffffffffffffffffffffffffffffff021916908373ffffffffffffffffffffffffffffffffffffffff160217905550808273ffffffffffffffffffffffffffffffffffffffff166122f4836115fc565b73ffffffffffffffffffffffffffffffffffffffff167f8c5be1e5ebec7d5bd14f71427d1e84f3dd0314c0f7b2291e5b200ac8c7c3b92560405160405180910390a45050565b60006002600083815260200190815260200160002060009054906101000a900473ffffffffffffffffffffffffffffffffffffffff169050919050565b600080612383836115fc565b90508073ffffffffffffffffffffffffffffffffffffffff168473ffffffffffffffffffffffffffffffffffffffff1614806123c557506123c481856120ad565b5b8061240357508373ffffffffffffffffffffffffffffffffffffffff166123eb8461061b565b73ffffffffffffffffffffffffffffffffffffffff16145b91505092915050565b8273ffffffffffffffffffffffffffffffffffffffff1661242c826115fc565b73ffffffffffffffffffffffffffffffffffffffff1614612482576040517f08c379a00000000000000000000000000000000000000000000000000000000081526004016124799061479c565b60405180910390fd5b600073ffffffffffffffffffffffffffffffffffffffff168273ffffffffffffffffffffffffffffffffffffffff16036124f1576040517f08c379a00000000000000000000000000000000000000000000000000000000081526004016124e89061482e565b60405180910390fd5b6124fe8383836001612b5b565b8273ffffffffffffffffffffffffffffffffffffffff1661251e826115fc565b73ffffffffffffffffffffffffffffffffffffffff1614612574576040517f08c379a000000000000000000000000000000000000000000000000000000000815260040161256b9061479c565b60405180910390fd5b6004600082815260200190815260200160002060006101000a81549073ffffffffffffffffffffffffffffffffffffffff02191690556001600360008573ffffffffffffffffffffffffffffffffffffffff1673ffffffffffffffffffffffffffffffffffffffff168152602001908152602001600020600082825403925050819055506001600360008473ffffffffffffffffffffffffffffffffffffffff1673ffffffffffffffffffffffffffffffffffffffff16815260200190815260200160002060008282540192505081905550816002600083815260200190815260200160002060006101000a81548173ffffffffffffffffffffffffffffffffffffffff021916908373ffffffffffffffffffffffffffffffffffffffff160217905550808273ffffffffffffffffffffffffffffffffffffffff168473ffffffffffffffffffffffffffffffffffffffff167fddf252ad1be2c89b69c2b068fc378daa952ba7f163c4a11628f55a4df523b3ef60405160405180910390a46127008383836001612b61565b505050565b61271f828260405180602001604052806000815250612b67565b5050565b81600b6000838152602001908152602001600020600201541461277b576040517f08c379a0000000000000000000000000000000000000000000000000000000008152600401612772906148c0565b60405180910390fd5b600760009054906101000a900473ffffffffffffffffffffffffffffffffffffffff1673ffffffffffffffffffffffffffffffffffffffff1663c55e0ec582846040518363ffffffff1660e01b81526004016127d89291906148e0565b600060405180830381600087803b1580156127f257600080fd5b505af1158015612806573d6000803e3d6000fd5b505050505050565b612816612279565b73ffffffffffffffffffffffffffffffffffffffff1661283461174d565b73ffffffffffffffffffffffffffffffffffffffff161461288a576040517f08c379a000000000000000000000000000000000000000000000000000000000815260040161288190614955565b60405180910390fd5b565b6000600660009054906101000a900473ffffffffffffffffffffffffffffffffffffffff16905081600660006101000a81548173ffffffffffffffffffffffffffffffffffffffff021916908373ffffffffffffffffffffffffffffffffffffffff1602179055508173ffffffffffffffffffffffffffffffffffffffff168173ffffffffffffffffffffffffffffffffffffffff167f8be0079c531659141344cd1fd0a4f28419497f9722a3daafe3b4186f6b6457e060405160405180910390a35050565b8173ffffffffffffffffffffffffffffffffffffffff168373ffffffffffffffffffffffffffffffffffffffff16036129c0576040517f08c379a00000000000000000000000000000000000000000000000000000000081526004016129b7906149c1565b60405180910390fd5b80600560008573ffffffffffffffffffffffffffffffffffffffff1673ffffffffffffffffffffffffffffffffffffffff16815260200190815260200160002060008473ffffffffffffffffffffffffffffffffffffffff1673ffffffffffffffffffffffffffffffffffffffff16815260200190815260200160002060006101000a81548160ff0219169083151502179055508173ffffffffffffffffffffffffffffffffffffffff168373ffffffffffffffffffffffffffffffffffffffff167f17307eab39ab6107e8899845ad3d59bd9653f200f220920489ca2b5937696c3183604051612ab19190613068565b60405180910390a3505050565b612ac984848461240c565b612ad584848484612bc2565b612b14576040517f08c379a0000000000000000000000000000000000000000000000000000000008152600401612b0b90614a53565b60405180910390fd5b50505050565b60008073ffffffffffffffffffffffffffffffffffffffff16612b3c8361233a565b73ffffffffffffffffffffffffffffffffffffffff1614159050919050565b50505050565b50505050565b612b718383612d49565b612b7e6000848484612bc2565b612bbd576040517f08c379a0000000000000000000000000000000000000000000000000000000008152600401612bb490614a53565b60405180910390fd5b505050565b6000612be38473ffffffffffffffffffffffffffffffffffffffff16612f66565b15612d3c578373ffffffffffffffffffffffffffffffffffffffff1663150b7a02612c0c612279565b8786866040518563ffffffff1660e01b8152600401612c2e9493929190614ac8565b6020604051808303816000875af1925050508015612c6a57506040513d601f19601f82011682018060405250810190612c679190614b29565b60015b612cec573d8060008114612c9a576040519150601f19603f3d011682016040523d82523d6000602084013e612c9f565b606091505b506000815103612ce4576040517f08c379a0000000000000000000000000000000000000000000000000000000008152600401612cdb90614a53565b60405180910390fd5b805181602001fd5b63150b7a0260e01b7bffffffffffffffffffffffffffffffffffffffffffffffffffffffff1916817bffffffffffffffffffffffffffffffffffffffffffffffffffffffff191614915050612d41565b600190505b949350505050565b600073ffffffffffffffffffffffffffffffffffffffff168273ffffffffffffffffffffffffffffffffffffffff1603612db8576040517f08c379a0000000000000000000000000000000000000000000000000000000008152600401612daf90614ba2565b60405180910390fd5b612dc181612b1a565b15612e01576040517f08c379a0000000000000000000000000000000000000000000000000000000008152600401612df890614c0e565b60405180910390fd5b612e0f600083836001612b5b565b612e1881612b1a565b15612e58576040517f08c379a0000000000000000000000000000000000000000000000000000000008152600401612e4f90614c0e565b60405180910390fd5b6001600360008473ffffffffffffffffffffffffffffffffffffffff1673ffffffffffffffffffffffffffffffffffffffff16815260200190815260200160002060008282540192505081905550816002600083815260200190815260200160002060006101000a81548173ffffffffffffffffffffffffffffffffffffffff021916908373ffffffffffffffffffffffffffffffffffffffff160217905550808273ffffffffffffffffffffffffffffffffffffffff16600073ffffffffffffffffffffffffffffffffffffffff167fddf252ad1be2c89b69c2b068fc378daa952ba7f163c4a11628f55a4df523b3ef60405160405180910390a4612f62600083836001612b61565b5050565b6000808273ffffffffffffffffffffffffffffffffffffffff163b119050919050565b6040518060800160405280600081526020016000815260200160008152602001600060ff1681525090565b6000604051905090565b600080fd5b600080fd5b60007fffffffff0000000000000000000000000000000000000000000000000000000082169050919050565b612ffd81612fc8565b811461300857600080fd5b50565b60008135905061301a81612ff4565b92915050565b60006020828403121561303657613035612fbe565b5b60006130448482850161300b565b91505092915050565b60008115159050919050565b6130628161304d565b82525050565b600060208201905061307d6000830184613059565b92915050565b600081519050919050565b600082825260208201905092915050565b60005b838110156130bd5780820151818401526020810190506130a2565b60008484015250505050565b6000601f19601f8301169050919050565b60006130e582613083565b6130ef818561308e565b93506130ff81856020860161309f565b613108816130c9565b840191505092915050565b6000602082019050818103600083015261312d81846130da565b905092915050565b6000819050919050565b61314881613135565b811461315357600080fd5b50565b6000813590506131658161313f565b92915050565b60006020828403121561318157613180612fbe565b5b600061318f84828501613156565b91505092915050565b600073ffffffffffffffffffffffffffffffffffffffff82169050919050565b60006131c382613198565b9050919050565b6131d3816131b8565b82525050565b60006020820190506131ee60008301846131ca565b92915050565b6131fd816131b8565b811461320857600080fd5b50565b60008135905061321a816131f4565b92915050565b6000806040838503121561323757613236612fbe565b5b60006132458582860161320b565b925050602061325685828601613156565b9150509250929050565b60008060006060848603121561327957613278612fbe565b5b60006132878682870161320b565b93505060206132988682870161320b565b92505060406132a986828701613156565b9150509250925092565b600080604083850312156132ca576132c9612fbe565b5b60006132d885828601613156565b92505060206132e985828601613156565b9150509250929050565b600060ff82169050919050565b613309816132f3565b811461331457600080fd5b50565b60008135905061332681613300565b92915050565b6000806040838503121561334357613342612fbe565b5b600061335185828601613156565b925050602061336285828601613317565b9150509250929050565b61337581613135565b82525050565b6000602082019050613390600083018461336c565b92915050565b61339f81613135565b82525050565b6133ae816132f3565b82525050565b6080820160008201516133ca6000850182613396565b5060208201516133dd6020850182613396565b5060408201516133f06040850182613396565b50606082015161340360608501826133a5565b50505050565b600060808201905061341e60008301846133b4565b92915050565b60006020828403121561343a57613439612fbe565b5b60006134488482850161320b565b91505092915050565b61345a8161304d565b811461346557600080fd5b50565b60008135905061347781613451565b92915050565b6000806040838503121561349457613493612fbe565b5b60006134a28582860161320b565b92505060206134b385828601613468565b9150509250929050565b600080fd5b7f4e487b7100000000000000000000000000000000000000000000000000000000600052604160045260246000fd5b6134fa826130c9565b810181811067ffffffffffffffff82111715613519576135186134c2565b5b80604052505050565b600061352c612fb4565b905061353882826134f1565b919050565b600067ffffffffffffffff821115613558576135576134c2565b5b602082029050919050565b600080fd5b600061357b6135768461353d565b613522565b9050806020840283018581111561359557613594613563565b5b835b818110156135be57806135aa8882613156565b845260208401935050602081019050613597565b5050509392505050565b600082601f8301126135dd576135dc6134bd565b5b60076135ea848285613568565b91505092915050565b600080fd5b600067ffffffffffffffff821115613613576136126134c2565b5b61361c826130c9565b9050602081019050919050565b82818337600083830152505050565b600061364b613646846135f8565b613522565b905082815260208101848484011115613667576136666135f3565b5b613672848285613629565b509392505050565b600082601f83011261368f5761368e6134bd565b5b813561369f848260208601613638565b91505092915050565b600080600061012084860312156136c2576136c1612fbe565b5b60006136d0868287016135c8565b93505060e084013567ffffffffffffffff8111156136f1576136f0612fc3565b5b6136fd8682870161367a565b92505061010084013567ffffffffffffffff81111561371f5761371e612fc3565b5b61372b8682870161367a565b9150509250925092565b600067ffffffffffffffff8211156137505761374f6134c2565b5b613759826130c9565b9050602081019050919050565b600061377961377484613735565b613522565b905082815260208101848484011115613795576137946135f3565b5b6137a0848285613629565b509392505050565b600082601f8301126137bd576137bc6134bd565b5b81356137cd848260208601613766565b91505092915050565b600080600080608085870312156137f0576137ef612fbe565b5b60006137fe8782880161320b565b945050602061380f8782880161320b565b935050604061382087828801613156565b925050606085013567ffffffffffffffff81111561384157613840612fc3565b5b61384d878288016137a8565b91505092959194509250565b600081519050919050565b600082825260208201905092915050565b6000819050602082019050919050565b600082825260208201905092915050565b60006138a182613083565b6138ab8185613885565b93506138bb81856020860161309f565b6138c4816130c9565b840191505092915050565b6000610140830160008301516138e86000860182613396565b5060208301516138fb6020860182613396565b50604083015161390e6040860182613396565b5060608301516139216060860182613396565b5060808301516139346080860182613396565b5060a083015161394760a0860182613396565b5060c083015161395a60c0860182613396565b5060e083015161396d60e0860182613396565b506101008301518482036101008601526139878282613896565b9150506101208301518482036101208601526139a38282613896565b9150508091505092915050565b60006139bc83836138cf565b905092915050565b6000602082019050919050565b60006139dc82613859565b6139e68185613864565b9350836020820285016139f885613875565b8060005b85811015613a345784840389528151613a1585826139b0565b9450613a20836139c4565b925060208a019950506001810190506139fc565b50829750879550505050505092915050565b60006020820190508181036000830152613a6081846139d1565b905092915050565b60008060408385031215613a7f57613a7e612fbe565b5b6000613a8d8582860161320b565b9250506020613a9e8582860161320b565b9150509250929050565b7f4e487b7100000000000000000000000000000000000000000000000000000000600052602260045260246000fd5b60006002820490506001821680613aef57607f821691505b602082108103613b0257613b01613aa8565b5b50919050565b7f4552433732313a20617070726f76616c20746f2063757272656e74206f776e6560008201527f7200000000000000000000000000000000000000000000000000000000000000602082015250565b6000613b6460218361308e565b9150613b6f82613b08565b604082019050919050565b60006020820190508181036000830152613b9381613b57565b9050919050565b7f4552433732313a20617070726f76652063616c6c6572206973206e6f7420746f60008201527f6b656e206f776e6572206f7220617070726f76656420666f7220616c6c000000602082015250565b6000613bf6603d8361308e565b9150613c0182613b9a565b604082019050919050565b60006020820190508181036000830152613c2581613be9565b9050919050565b7f4e6f74206f776e656420627920796f7500000000000000000000000000000000600082015250565b6000613c6260108361308e565b9150613c6d82613c2c565b602082019050919050565b60006020820190508181036000830152613c9181613c55565b9050919050565b7f4e487b7100000000000000000000000000000000000000000000000000000000600052603260045260246000fd5b6000606082019050613cdc600083018661336c565b613ce9602083018561336c565b613cf6604083018461336c565b949350505050565b7f4552433732313a2063616c6c6572206973206e6f7420746f6b656e206f776e6560008201527f72206f7220617070726f76656400000000000000000000000000000000000000602082015250565b6000613d5a602d8361308e565b9150613d6582613cfe565b604082019050919050565b60006020820190508181036000830152613d8981613d4d565b9050919050565b7f4e487b7100000000000000000000000000000000000000000000000000000000600052601160045260246000fd5b6000613dca82613135565b9150613dd583613135565b9250828203905081811115613ded57613dec613d90565b5b92915050565b7f536f7272792c20726576656e75652073686f756c6420636c61696d206265666f60008201527f726520616374696f6e0000000000000000000000000000000000000000000000602082015250565b6000613e4f60298361308e565b9150613e5a82613df3565b604082019050919050565b60006020820190508181036000830152613e7e81613e42565b9050919050565b6000613e9082613135565b9150613e9b83613135565b9250828201905080821115613eb357613eb2613d90565b5b92915050565b6000613ec482613135565b9150613ecf83613135565b9250828202613edd81613135565b91508282048414831517613ef457613ef3613d90565b5b5092915050565b7f496e73756666696369656e7420636f6d6d6f6469746965730000000000000000600082015250565b6000613f3160188361308e565b9150613f3c82613efb565b602082019050919050565b60006020820190508181036000830152613f6081613f24565b9050919050565b600060059050919050565b600081905092915050565b6000819050919050565b6000613f938383613396565b60208301905092915050565b6000602082019050919050565b613fb581613f67565b613fbf8184613f72565b9250613fca82613f7d565b8060005b83811015613ffb578151613fe28782613f87565b9650613fed83613f9f565b925050600181019050613fce565b505050505050565b600060c082019050614018600083018561336c565b6140256020830184613fac565b9392505050565b60008151905061403b816131f4565b92915050565b60006020828403121561405757614056612fbe565b5b60006140658482850161402c565b91505092915050565b7f4c616e64206e6f74206f776e656420627920796f750000000000000000000000600082015250565b60006140a460158361308e565b91506140af8261406e565b602082019050919050565b600060208201905081810360008301526140d381614097565b9050919050565b7f4275696c64696e67206973206e6f742076616c69640000000000000000000000600082015250565b600061411060158361308e565b915061411b826140da565b602082019050919050565b6000602082019050818103600083015261413f81614103565b9050919050565b600061415182613135565b91507fffffffffffffffffffffffffffffffffffffffffffffffffffffffffffffffff820361418357614182613d90565b5b600182019050919050565b6000819050919050565b60006141b36141ae6141a9846132f3565b61418e565b613135565b9050919050565b6141c381614198565b82525050565b60006040820190506141de600083018561336c565b6141eb60208301846141ba565b9392505050565b6000815190506142018161313f565b92915050565b60006020828403121561421d5761421c612fbe565b5b600061422b848285016141f2565b91505092915050565b7f4552433732313a20696e76616c696420746f6b656e2049440000000000000000600082015250565b600061426a60188361308e565b915061427582614234565b602082019050919050565b600060208201905081810360008301526142998161425d565b9050919050565b7f4552433732313a2061646472657373207a65726f206973206e6f74206120766160008201527f6c6964206f776e65720000000000000000000000000000000000000000000000602082015250565b60006142fc60298361308e565b9150614307826142a0565b604082019050919050565b6000602082019050818103600083015261432b816142ef565b9050919050565b7f4e487b7100000000000000000000000000000000000000000000000000000000600052601260045260246000fd5b600061436c82613135565b915061437783613135565b92508261438757614386614332565b5b828204905092915050565b60008190508160005260206000209050919050565b60006020601f8301049050919050565b600082821b905092915050565b6000600883026143f47fffffffffffffffffffffffffffffffffffffffffffffffffffffffffffffffff826143b7565b6143fe86836143b7565b95508019841693508086168417925050509392505050565b600061443161442c61442784613135565b61418e565b613135565b9050919050565b6000819050919050565b61444b83614416565b61445f61445782614438565b8484546143c4565b825550505050565b600090565b614474614467565b61447f818484614442565b505050565b5b818110156144a35761449860008261446c565b600181019050614485565b5050565b601f8211156144e8576144b981614392565b6144c2846143a7565b810160208510156144d1578190505b6144e56144dd856143a7565b830182614484565b50505b505050565b600082821c905092915050565b600061450b600019846008026144ed565b1980831691505092915050565b600061452483836144fa565b9150826002028217905092915050565b61453d82613083565b67ffffffffffffffff811115614556576145556134c2565b5b6145608254613ad7565b61456b8282856144a7565b600060209050601f83116001811461459e576000841561458c578287015190505b6145968582614518565b8655506145fe565b601f1984166145ac86614392565b60005b828110156145d4578489015182556001820191506020850194506020810190506145af565b868310156145f157848901516145ed601f8916826144fa565b8355505b6001600288020188555050505b505050505050565b7f4552433732314d657461646174613a2055524920717565727920666f72206e6f60008201527f6e6578697374656e7420746f6b656e0000000000000000000000000000000000602082015250565b6000614662602f8361308e565b915061466d82614606565b604082019050919050565b6000602082019050818103600083015261469181614655565b9050919050565b7f4f776e61626c653a206e6577206f776e657220697320746865207a65726f206160008201527f6464726573730000000000000000000000000000000000000000000000000000602082015250565b60006146f460268361308e565b91506146ff82614698565b604082019050919050565b60006020820190508181036000830152614723816146e7565b9050919050565b7f4552433732313a207472616e736665722066726f6d20696e636f72726563742060008201527f6f776e6572000000000000000000000000000000000000000000000000000000602082015250565b600061478660258361308e565b91506147918261472a565b604082019050919050565b600060208201905081810360008301526147b581614779565b9050919050565b7f4552433732313a207472616e7366657220746f20746865207a65726f2061646460008201527f7265737300000000000000000000000000000000000000000000000000000000602082015250565b600061481860248361308e565b9150614823826147bc565b604082019050919050565b600060208201905081810360008301526148478161480b565b9050919050565b7f4275696c64696e6720697320616c726561647920617474616368656420746f2060008201527f6f6e65206c616e64000000000000000000000000000000000000000000000000602082015250565b60006148aa60288361308e565b91506148b58261484e565b604082019050919050565b600060208201905081810360008301526148d98161489d565b9050919050565b60006040820190506148f5600083018561336c565b614902602083018461336c565b9392505050565b7f4f776e61626c653a2063616c6c6572206973206e6f7420746865206f776e6572600082015250565b600061493f60208361308e565b915061494a82614909565b602082019050919050565b6000602082019050818103600083015261496e81614932565b9050919050565b7f4552433732313a20617070726f766520746f2063616c6c657200000000000000600082015250565b60006149ab60198361308e565b91506149b682614975565b602082019050919050565b600060208201905081810360008301526149da8161499e565b9050919050565b7f4552433732313a207472616e7366657220746f206e6f6e20455243373231526560008201527f63656976657220696d706c656d656e7465720000000000000000000000000000602082015250565b6000614a3d60328361308e565b9150614a48826149e1565b604082019050919050565b60006020820190508181036000830152614a6c81614a30565b9050919050565b600081519050919050565b600082825260208201905092915050565b6000614a9a82614a73565b614aa48185614a7e565b9350614ab481856020860161309f565b614abd816130c9565b840191505092915050565b6000608082019050614add60008301876131ca565b614aea60208301866131ca565b614af7604083018561336c565b8181036060830152614b098184614a8f565b905095945050505050565b600081519050614b2381612ff4565b92915050565b600060208284031215614b3f57614b3e612fbe565b5b6000614b4d84828501614b14565b91505092915050565b7f4552433732313a206d696e7420746f20746865207a65726f2061646472657373600082015250565b6000614b8c60208361308e565b9150614b9782614b56565b602082019050919050565b60006020820190508181036000830152614bbb81614b7f565b9050919050565b7f4552433732313a20746f6b656e20616c7265616479206d696e74656400000000600082015250565b6000614bf8601c8361308e565b9150614c0382614bc2565b602082019050919050565b60006020820190508181036000830152614c2781614beb565b905091905056fea2646970667358221220269776d3fd8dfc68b19b794b6b71c124e84df68e9826655d1cbf71cb30020a5d64736f6c63430008130033",
  "linkReferences": {},
  "deployedLinkReferences": {}
}