{
  "_format": "hh-sol-artifact-1",
  "contractName": "BMT",
  "sourceName": "contracts/V2/BMT.sol",
  "abi": [
    {
      "inputs": [],
      "stateMutability": "nonpayable",
      "type": "constructor"
    },
    {
      "inputs": [
        {
          "internalType": "address",
          "name": "spender",
          "type": "address"
        },
        {
          "internalType": "uint256",
          "name": "allowance",
          "type": "uint256"
        },
        {
          "internalType": "uint256",
          "name": "needed",
          "type": "uint256"
        }
      ],
      "name": "ERC20InsufficientAllowance",
      "type": "error"
    },
    {
      "inputs": [
        {
          "internalType": "address",
          "name": "sender",
          "type": "address"
        },
        {
          "internalType": "uint256",
          "name": "balance",
          "type": "uint256"
        },
        {
          "internalType": "uint256",
          "name": "needed",
          "type": "uint256"
        }
      ],
      "name": "ERC20InsufficientBalance",
      "type": "error"
    },
    {
      "inputs": [
        {
          "internalType": "address",
          "name": "approver",
          "type": "address"
        }
      ],
      "name": "ERC20InvalidApprover",
      "type": "error"
    },
    {
      "inputs": [
        {
          "internalType": "address",
          "name": "receiver",
          "type": "address"
        }
      ],
      "name": "ERC20InvalidReceiver",
      "type": "error"
    },
    {
      "inputs": [
        {
          "internalType": "address",
          "name": "sender",
          "type": "address"
        }
      ],
      "name": "ERC20InvalidSender",
      "type": "error"
    },
    {
      "inputs": [
        {
          "internalType": "address",
          "name": "spender",
          "type": "address"
        }
      ],
      "name": "ERC20InvalidSpender",
      "type": "error"
    },
    {
      "inputs": [
        {
          "internalType": "address",
          "name": "owner",
          "type": "address"
        }
      ],
      "name": "OwnableInvalidOwner",
      "type": "error"
    },
    {
      "inputs": [
        {
          "internalType": "address",
          "name": "account",
          "type": "address"
        }
      ],
      "name": "OwnableUnauthorizedAccount",
      "type": "error"
    },
    {
      "anonymous": false,
      "inputs": [
        {
          "indexed": true,
          "internalType": "address",
          "name": "owner",
          "type": "address"
        },
        {
          "indexed": true,
          "internalType": "address",
          "name": "spender",
          "type": "address"
        },
        {
          "indexed": false,
          "internalType": "uint256",
          "name": "value",
          "type": "uint256"
        }
      ],
      "name": "Approval",
      "type": "event"
    },
    {
      "anonymous": false,
      "inputs": [
        {
          "indexed": true,
          "internalType": "address",
          "name": "previousOwner",
          "type": "address"
        },
        {
          "indexed": true,
          "internalType": "address",
          "name": "newOwner",
          "type": "address"
        }
      ],
      "name": "OwnershipTransferred",
      "type": "event"
    },
    {
      "anonymous": false,
      "inputs": [
        {
          "indexed": true,
          "internalType": "address",
          "name": "from",
          "type": "address"
        },
        {
          "indexed": true,
          "internalType": "address",
          "name": "to",
          "type": "address"
        },
        {
          "indexed": false,
          "internalType": "uint256",
          "name": "value",
          "type": "uint256"
        }
      ],
      "name": "Transfer",
      "type": "event"
    },
    {
      "inputs": [
        {
          "internalType": "address",
          "name": "owner",
          "type": "address"
        },
        {
          "internalType": "address",
          "name": "spender",
          "type": "address"
        }
      ],
      "name": "allowance",
      "outputs": [
        {
          "internalType": "uint256",
          "name": "",
          "type": "uint256"
        }
      ],
      "stateMutability": "view",
      "type": "function"
    },
    {
      "inputs": [
        {
          "internalType": "address",
          "name": "spender",
          "type": "address"
        },
        {
          "internalType": "uint256",
          "name": "value",
          "type": "uint256"
        }
      ],
      "name": "approve",
      "outputs": [
        {
          "internalType": "bool",
          "name": "",
          "type": "bool"
        }
      ],
      "stateMutability": "nonpayable",
      "type": "function"
    },
    {
      "inputs": [
        {
          "internalType": "address",
          "name": "account",
          "type": "address"
        }
      ],
      "name": "balanceOf",
      "outputs": [
        {
          "internalType": "uint256",
          "name": "",
          "type": "uint256"
        }
      ],
      "stateMutability": "view",
      "type": "function"
    },
    {
      "inputs": [],
      "name": "decimals",
      "outputs": [
        {
          "internalType": "uint8",
          "name": "",
          "type": "uint8"
        }
      ],
      "stateMutability": "view",
      "type": "function"
    },
    {
      "inputs": [],
      "name": "name",
      "outputs": [
        {
          "internalType": "string",
          "name": "",
          "type": "string"
        }
      ],
      "stateMutability": "view",
      "type": "function"
    },
    {
      "inputs": [],
      "name": "owner",
      "outputs": [
        {
          "internalType": "address",
          "name": "",
          "type": "address"
        }
      ],
      "stateMutability": "view",
      "type": "function"
    },
    {
      "inputs": [],
      "name": "renounceOwnership",
      "outputs": [],
      "stateMutability": "nonpayable",
      "type": "function"
    },
    {
      "inputs": [],
      "name": "symbol",
      "outputs": [
        {
          "internalType": "string",
          "name": "",
          "type": "string"
        }
      ],
      "stateMutability": "view",
      "type": "function"
    },
    {
      "inputs": [],
      "name": "totalSupply",
      "outputs": [
        {
          "internalType": "uint256",
          "name": "",
          "type": "uint256"
        }
      ],
      "stateMutability": "view",
      "type": "function"
    },
    {
      "inputs": [
        {
          "internalType": "address",
          "name": "to",
          "type": "address"
        },
        {
          "internalType": "uint256",
          "name": "value",
          "type": "uint256"
        }
      ],
      "name": "transfer",
      "outputs": [
        {
          "internalType": "bool",
          "name": "",
          "type": "bool"
        }
      ],
      "stateMutability": "nonpayable",
      "type": "function"
    },
    {
      "inputs": [
        {
          "internalType": "address",
          "name": "from",
          "type": "address"
        },
        {
          "internalType": "address",
          "name": "to",
          "type": "address"
        },
        {
          "internalType": "uint256",
          "name": "value",
          "type": "uint256"
        }
      ],
      "name": "transferFrom",
      "outputs": [
        {
          "internalType": "bool",
          "name": "",
          "type": "bool"
        }
      ],
      "stateMutability": "nonpayable",
      "type": "function"
    },
    {
      "inputs": [
        {
          "internalType": "address",
          "name": "newOwner",
          "type": "address"
        }
      ],
      "name": "transferOwnership",
      "outputs": [],
      "stateMutability": "nonpayable",
      "type": "function"
    }
  ],
  "bytecode": "0x608060405234801562000010575f80fd5b50336040518060400160405280600381526020016210935560ea1b815250604051806040016040528060088152602001672126903a37b5b2b760c11b815250816003908162000060919062000327565b5060046200006f828262000327565b5050506001600160a01b038116620000a157604051631e4fbdf760e01b81525f60048201526024015b60405180910390fd5b620000ac81620000cb565b50620000c5336b033b2e3c9fd0803ce80000006200011c565b62000415565b600580546001600160a01b038381166001600160a01b0319831681179093556040519116919082907f8be0079c531659141344cd1fd0a4f28419497f9722a3daafe3b4186f6b6457e0905f90a35050565b6001600160a01b038216620001475760405163ec442f0560e01b81525f600482015260240162000098565b620001545f838362000158565b5050565b6001600160a01b03831662000186578060025f8282546200017a9190620003ef565b90915550620001f89050565b6001600160a01b0383165f9081526020819052604090205481811015620001da5760405163391434e360e21b81526001600160a01b0385166004820152602481018290526044810183905260640162000098565b6001600160a01b0384165f9081526020819052604090209082900390555b6001600160a01b038216620002165760028054829003905562000234565b6001600160a01b0382165f9081526020819052604090208054820190555b816001600160a01b0316836001600160a01b03167fddf252ad1be2c89b69c2b068fc378daa952ba7f163c4a11628f55a4df523b3ef836040516200027a91815260200190565b60405180910390a3505050565b634e487b7160e01b5f52604160045260245ffd5b600181811c90821680620002b057607f821691505b602082108103620002cf57634e487b7160e01b5f52602260045260245ffd5b50919050565b601f82111562000322575f81815260208120601f850160051c81016020861015620002fd5750805b601f850160051c820191505b818110156200031e5782815560010162000309565b5050505b505050565b81516001600160401b0381111562000343576200034362000287565b6200035b816200035484546200029b565b84620002d5565b602080601f83116001811462000391575f8415620003795750858301515b5f19600386901b1c1916600185901b1785556200031e565b5f85815260208120601f198616915b82811015620003c157888601518255948401946001909101908401620003a0565b5085821015620003df57878501515f19600388901b60f8161c191681555b5050505050600190811b01905550565b808201808211156200040f57634e487b7160e01b5f52601160045260245ffd5b92915050565b61081f80620004235f395ff3fe608060405234801561000f575f80fd5b50600436106100b1575f3560e01c8063715018a61161006e578063715018a6146101525780638da5cb5b1461015c57806395d89b4114610177578063a9059cbb1461017f578063dd62ed3e14610192578063f2fde38b146101ca575f80fd5b806306fdde03146100b5578063095ea7b3146100d357806318160ddd146100f657806323b872dd14610108578063313ce5671461011b57806370a082311461012a575b5f80fd5b6100bd6101dd565b6040516100ca919061067a565b60405180910390f35b6100e66100e13660046106e0565b61026d565b60405190151581526020016100ca565b6002545b6040519081526020016100ca565b6100e6610116366004610708565b610286565b604051601281526020016100ca565b6100fa610138366004610741565b6001600160a01b03165f9081526020819052604090205490565b61015a6102a9565b005b6005546040516001600160a01b0390911681526020016100ca565b6100bd6102bc565b6100e661018d3660046106e0565b6102cb565b6100fa6101a0366004610761565b6001600160a01b039182165f90815260016020908152604080832093909416825291909152205490565b61015a6101d8366004610741565b6102d8565b6060600380546101ec90610792565b80601f016020809104026020016040519081016040528092919081815260200182805461021890610792565b80156102635780601f1061023a57610100808354040283529160200191610263565b820191905f5260205f20905b81548152906001019060200180831161024657829003601f168201915b5050505050905090565b5f3361027a81858561031a565b60019150505b92915050565b5f3361029385828561032c565b61029e8585856103a7565b506001949350505050565b6102b1610404565b6102ba5f610431565b565b6060600480546101ec90610792565b5f3361027a8185856103a7565b6102e0610404565b6001600160a01b03811661030e57604051631e4fbdf760e01b81525f60048201526024015b60405180910390fd5b61031781610431565b50565b6103278383836001610482565b505050565b6001600160a01b038381165f908152600160209081526040808320938616835292905220545f1981146103a1578181101561039357604051637dc7a0d960e11b81526001600160a01b03841660048201526024810182905260448101839052606401610305565b6103a184848484035f610482565b50505050565b6001600160a01b0383166103d057604051634b637e8f60e11b81525f6004820152602401610305565b6001600160a01b0382166103f95760405163ec442f0560e01b81525f6004820152602401610305565b610327838383610554565b6005546001600160a01b031633146102ba5760405163118cdaa760e01b8152336004820152602401610305565b600580546001600160a01b038381166001600160a01b0319831681179093556040519116919082907f8be0079c531659141344cd1fd0a4f28419497f9722a3daafe3b4186f6b6457e0905f90a35050565b6001600160a01b0384166104ab5760405163e602df0560e01b81525f6004820152602401610305565b6001600160a01b0383166104d457604051634a1406b160e11b81525f6004820152602401610305565b6001600160a01b038085165f90815260016020908152604080832093871683529290522082905580156103a157826001600160a01b0316846001600160a01b03167f8c5be1e5ebec7d5bd14f71427d1e84f3dd0314c0f7b2291e5b200ac8c7c3b9258460405161054691815260200190565b60405180910390a350505050565b6001600160a01b03831661057e578060025f82825461057391906107ca565b909155506105ee9050565b6001600160a01b0383165f90815260208190526040902054818110156105d05760405163391434e360e21b81526001600160a01b03851660048201526024810182905260448101839052606401610305565b6001600160a01b0384165f9081526020819052604090209082900390555b6001600160a01b03821661060a57600280548290039055610628565b6001600160a01b0382165f9081526020819052604090208054820190555b816001600160a01b0316836001600160a01b03167fddf252ad1be2c89b69c2b068fc378daa952ba7f163c4a11628f55a4df523b3ef8360405161066d91815260200190565b60405180910390a3505050565b5f6020808352835180828501525f5b818110156106a557858101830151858201604001528201610689565b505f604082860101526040601f19601f8301168501019250505092915050565b80356001600160a01b03811681146106db575f80fd5b919050565b5f80604083850312156106f1575f80fd5b6106fa836106c5565b946020939093013593505050565b5f805f6060848603121561071a575f80fd5b610723846106c5565b9250610731602085016106c5565b9150604084013590509250925092565b5f60208284031215610751575f80fd5b61075a826106c5565b9392505050565b5f8060408385031215610772575f80fd5b61077b836106c5565b9150610789602084016106c5565b90509250929050565b600181811c908216806107a657607f821691505b6020821081036107c457634e487b7160e01b5f52602260045260245ffd5b50919050565b8082018082111561028057634e487b7160e01b5f52601160045260245ffdfea2646970667358221220abf7b3cf24b373ea273bc8ce9a52bfe5febca34fdb7b087a1d734a0858a9420564736f6c63430008140033",
  "linkReferences": {},
  "deployedLinkReferences": {}
}