{
  "_format": "hh-sol-artifact-1",
  "contractName": "Faucet",
  "sourceName": "contracts/V2/Faucet.sol",
  "abi": [
    {
      "inputs": [],
      "name": "AlreadyClaimed",
      "type": "error"
    },
    {
      "inputs": [],
      "name": "faucetReq",
      "outputs": [],
      "stateMutability": "nonpayable",
      "type": "function"
    }
  ],
  "bytecode": "0x608060405234801561000f575f80fd5b506102498061001d5f395ff3fe608060405234801561000f575f80fd5b5060043610610029575f3560e01c8063d2f4ba731461002d575b5f80fd5b610035610037565b005b335f908152602081905260409020544290610055906201518061019c565b1161008457610082737bb1f28c07d232d027b4f3b02d80b6ddfa4e08d13368056bc75e2d6310000061009d565b565b604051630c8d9eab60e31b815260040160405180910390fd5b604080516001600160a01b038481166024830152604480830185905283518084039091018152606490920183526020820180516001600160e01b031663a9059cbb60e01b17905291515f928392908716916100f891906101c1565b5f604051808303815f865af19150503d805f8114610131576040519150601f19603f3d011682016040523d82523d5f602084013e610136565b606091505b509150915081801561016057508051158061016057508080602001905181019061016091906101ed565b6101955760405162461bcd60e51b815260206004820152600260248201526114d560f21b604482015260640160405180910390fd5b5050505050565b808201808211156101bb57634e487b7160e01b5f52601160045260245ffd5b92915050565b5f82515f5b818110156101e057602081860181015185830152016101c6565b505f920191825250919050565b5f602082840312156101fd575f80fd5b8151801515811461020c575f80fd5b939250505056fea2646970667358221220d5935bd04aea7491369d2a6407b06f9265d976da306d7d7667e3ffd64e388e7264736f6c63430008140033",
  "linkReferences": {},
  "deployedLinkReferences": {}
}