{
  "_format": "hh-sol-artifact-1",
  "contractName": "TownV2",
  "sourceName": "contracts/V2/TownV2.sol",
  "abi": [
    {
      "inputs": [
        {
          "internalType": "address",
          "name": "BlockchainsKingdomToken",
          "type": "address"
        },
        {
          "internalType": "address",
          "name": "landsContract",
          "type": "address"
        }
      ],
      "stateMutability": "nonpayable",
      "type": "constructor"
    },
    {
      "inputs": [],
      "name": "CallerIsNotOwner",
      "type": "error"
    },
    {
      "inputs": [],
      "name": "ClaimBeforeAction",
      "type": "error"
    },
    {
      "inputs": [],
      "name": "InsufficientArmy",
      "type": "error"
    },
    {
      "inputs": [],
      "name": "InsufficientCommodity",
      "type": "error"
    },
    {
      "inputs": [],
      "name": "InvalidItem",
      "type": "error"
    },
    {
      "inputs": [],
      "name": "InvalidLand",
      "type": "error"
    },
    {
      "inputs": [],
      "name": "LevelLessThanMin",
      "type": "error"
    },
    {
      "inputs": [],
      "name": "MaxCapacity",
      "type": "error"
    },
    {
      "inputs": [
        {
          "internalType": "address",
          "name": "owner",
          "type": "address"
        }
      ],
      "name": "OwnableInvalidOwner",
      "type": "error"
    },
    {
      "inputs": [
        {
          "internalType": "address",
          "name": "account",
          "type": "address"
        }
      ],
      "name": "OwnableUnauthorizedAccount",
      "type": "error"
    },
    {
      "inputs": [],
      "name": "TimeLimitation",
      "type": "error"
    },
    {
      "inputs": [],
      "name": "UnAuthorizedToken",
      "type": "error"
    },
    {
      "anonymous": false,
      "inputs": [
        {
          "indexed": true,
          "internalType": "uint256",
          "name": "attackerLandId",
          "type": "uint256"
        },
        {
          "indexed": true,
          "internalType": "uint256",
          "name": "defenderLandId",
          "type": "uint256"
        },
        {
          "indexed": false,
          "internalType": "bool",
          "name": "success",
          "type": "bool"
        },
        {
          "indexed": false,
          "internalType": "uint256[5]",
          "name": "lootAmounts",
          "type": "uint256[5]"
        }
      ],
      "name": "Attack",
      "type": "event"
    },
    {
      "anonymous": false,
      "inputs": [
        {
          "indexed": false,
          "internalType": "uint256",
          "name": "buildingTypeIndex",
          "type": "uint256"
        },
        {
          "indexed": true,
          "internalType": "uint256",
          "name": "buildingId",
          "type": "uint256"
        },
        {
          "indexed": true,
          "internalType": "uint256",
          "name": "landTokenId",
          "type": "uint256"
        }
      ],
      "name": "Build",
      "type": "event"
    },
    {
      "anonymous": false,
      "inputs": [
        {
          "indexed": true,
          "internalType": "address",
          "name": "previousOwner",
          "type": "address"
        },
        {
          "indexed": true,
          "internalType": "address",
          "name": "newOwner",
          "type": "address"
        }
      ],
      "name": "OwnershipTransferred",
      "type": "event"
    },
    {
      "anonymous": false,
      "inputs": [
        {
          "indexed": true,
          "internalType": "uint256",
          "name": "buildingId",
          "type": "uint256"
        },
        {
          "indexed": false,
          "internalType": "uint256",
          "name": "level",
          "type": "uint256"
        }
      ],
      "name": "Upgrade",
      "type": "event"
    },
    {
      "inputs": [
        {
          "internalType": "uint256[]",
          "name": "warriorsAmounts",
          "type": "uint256[]"
        },
        {
          "internalType": "uint256",
          "name": "attackerId",
          "type": "uint256"
        },
        {
          "internalType": "uint256",
          "name": "targetId",
          "type": "uint256"
        }
      ],
      "name": "attack",
      "outputs": [],
      "stateMutability": "nonpayable",
      "type": "function"
    },
    {
      "inputs": [
        {
          "internalType": "uint256",
          "name": "landTokenId",
          "type": "uint256"
        },
        {
          "internalType": "uint8",
          "name": "buildingIndex",
          "type": "uint8"
        }
      ],
      "name": "build",
      "outputs": [],
      "stateMutability": "nonpayable",
      "type": "function"
    },
    {
      "inputs": [
        {
          "internalType": "uint256",
          "name": "landTokenId",
          "type": "uint256"
        }
      ],
      "name": "buildBarracks",
      "outputs": [],
      "stateMutability": "nonpayable",
      "type": "function"
    },
    {
      "inputs": [
        {
          "internalType": "uint256",
          "name": "buildingTokenId",
          "type": "uint256"
        }
      ],
      "name": "claimRevenue",
      "outputs": [],
      "stateMutability": "nonpayable",
      "type": "function"
    },
    {
      "inputs": [
        {
          "internalType": "uint256",
          "name": "landTokenId",
          "type": "uint256"
        },
        {
          "internalType": "uint256",
          "name": "amount",
          "type": "uint256"
        },
        {
          "internalType": "uint256",
          "name": "commodityIndex",
          "type": "uint256"
        }
      ],
      "name": "deposit",
      "outputs": [],
      "stateMutability": "nonpayable",
      "type": "function"
    },
    {
      "inputs": [
        {
          "internalType": "uint256",
          "name": "landId",
          "type": "uint256"
        }
      ],
      "name": "getArmy",
      "outputs": [
        {
          "internalType": "uint256[]",
          "name": "",
          "type": "uint256[]"
        }
      ],
      "stateMutability": "view",
      "type": "function"
    },
    {
      "inputs": [
        {
          "internalType": "uint256",
          "name": "landTokenId",
          "type": "uint256"
        }
      ],
      "name": "getAssetsBal",
      "outputs": [
        {
          "internalType": "uint256[5]",
          "name": "",
          "type": "uint256[5]"
        }
      ],
      "stateMutability": "view",
      "type": "function"
    },
    {
      "inputs": [
        {
          "internalType": "uint256",
          "name": "landId",
          "type": "uint256"
        }
      ],
      "name": "getBarracksRequiredCommodities",
      "outputs": [
        {
          "internalType": "uint256[5]",
          "name": "",
          "type": "uint256[5]"
        }
      ],
      "stateMutability": "view",
      "type": "function"
    },
    {
      "inputs": [],
      "name": "getBuildings",
      "outputs": [
        {
          "components": [
            {
              "internalType": "uint256",
              "name": "requiredStone",
              "type": "uint256"
            },
            {
              "internalType": "uint256",
              "name": "requiredWood",
              "type": "uint256"
            },
            {
              "internalType": "uint256",
              "name": "requiredIron",
              "type": "uint256"
            },
            {
              "internalType": "uint256",
              "name": "requiredGold",
              "type": "uint256"
            },
            {
              "internalType": "uint256",
              "name": "requiredFood",
              "type": "uint256"
            },
            {
              "internalType": "uint256",
              "name": "revTokenIndex",
              "type": "uint256"
            },
            {
              "internalType": "string",
              "name": "buildingName",
              "type": "string"
            }
          ],
          "internalType": "struct TownV2.Info[]",
          "name": "",
          "type": "tuple[]"
        }
      ],
      "stateMutability": "view",
      "type": "function"
    },
    {
      "inputs": [
        {
          "internalType": "uint256",
          "name": "buildingTokenId",
          "type": "uint256"
        }
      ],
      "name": "getCurrentRevenue",
      "outputs": [
        {
          "internalType": "uint256",
          "name": "",
          "type": "uint256"
        }
      ],
      "stateMutability": "view",
      "type": "function"
    },
    {
      "inputs": [
        {
          "internalType": "uint256",
          "name": "landTokenId",
          "type": "uint256"
        }
      ],
      "name": "getLandIdData",
      "outputs": [
        {
          "components": [
            {
              "internalType": "uint256[5]",
              "name": "commoditiesBalance",
              "type": "uint256[5]"
            },
            {
              "internalType": "uint256",
              "name": "latestBuildTimeStamp",
              "type": "uint256"
            },
            {
              "internalType": "uint256[]",
              "name": "buildedBuildings",
              "type": "uint256[]"
            },
            {
              "internalType": "uint256",
              "name": "barracksLevel",
              "type": "uint256"
            }
          ],
          "internalType": "struct TownV2.LandIdData",
          "name": "",
          "type": "tuple"
        }
      ],
      "stateMutability": "view",
      "type": "function"
    },
    {
      "inputs": [
        {
          "internalType": "uint256",
          "name": "landTokenId",
          "type": "uint256"
        }
      ],
      "name": "getRemainedTimestamp",
      "outputs": [
        {
          "internalType": "uint256",
          "name": "",
          "type": "uint256"
        }
      ],
      "stateMutability": "view",
      "type": "function"
    },
    {
      "inputs": [
        {
          "internalType": "uint256",
          "name": "tokenId",
          "type": "uint256"
        }
      ],
      "name": "getStatus",
      "outputs": [
        {
          "components": [
            {
              "internalType": "uint256",
              "name": "level",
              "type": "uint256"
            },
            {
              "internalType": "uint256",
              "name": "latestActionTimestamp",
              "type": "uint256"
            },
            {
              "internalType": "uint256",
              "name": "attachedLand",
              "type": "uint256"
            },
            {
              "internalType": "uint8",
              "name": "buildingTypeIndex",
              "type": "uint8"
            }
          ],
          "internalType": "struct TownV2.Status",
          "name": "",
          "type": "tuple"
        }
      ],
      "stateMutability": "view",
      "type": "function"
    },
    {
      "inputs": [],
      "name": "getWarriorTypes",
      "outputs": [
        {
          "components": [
            {
              "internalType": "uint8",
              "name": "attackPower",
              "type": "uint8"
            },
            {
              "internalType": "uint8",
              "name": "defPower",
              "type": "uint8"
            },
            {
              "internalType": "uint8",
              "name": "hp",
              "type": "uint8"
            },
            {
              "internalType": "uint8",
              "name": "requiredLevel",
              "type": "uint8"
            },
            {
              "internalType": "string",
              "name": "name",
              "type": "string"
            },
            {
              "internalType": "uint256",
              "name": "price",
              "type": "uint256"
            }
          ],
          "internalType": "struct Barracks.WarriorInfo[]",
          "name": "",
          "type": "tuple[]"
        }
      ],
      "stateMutability": "view",
      "type": "function"
    },
    {
      "inputs": [],
      "name": "owner",
      "outputs": [
        {
          "internalType": "address",
          "name": "",
          "type": "address"
        }
      ],
      "stateMutability": "view",
      "type": "function"
    },
    {
      "inputs": [
        {
          "internalType": "uint256",
          "name": "landTokenId",
          "type": "uint256"
        },
        {
          "internalType": "uint256",
          "name": "typeIndex",
          "type": "uint256"
        },
        {
          "internalType": "uint256",
          "name": "amount",
          "type": "uint256"
        }
      ],
      "name": "recruit",
      "outputs": [],
      "stateMutability": "nonpayable",
      "type": "function"
    },
    {
      "inputs": [],
      "name": "renounceOwnership",
      "outputs": [],
      "stateMutability": "nonpayable",
      "type": "function"
    },
    {
      "inputs": [
        {
          "internalType": "uint256",
          "name": "landTokenId",
          "type": "uint256"
        },
        {
          "internalType": "uint256",
          "name": "amount",
          "type": "uint256"
        }
      ],
      "name": "splitDeposit",
      "outputs": [],
      "stateMutability": "nonpayable",
      "type": "function"
    },
    {
      "inputs": [
        {
          "internalType": "uint256",
          "name": "landTokenId",
          "type": "uint256"
        },
        {
          "internalType": "uint256",
          "name": "fromIndex",
          "type": "uint256"
        },
        {
          "internalType": "uint256",
          "name": "toIndex",
          "type": "uint256"
        },
        {
          "internalType": "uint256",
          "name": "amount",
          "type": "uint256"
        }
      ],
      "name": "swapCommodity",
      "outputs": [],
      "stateMutability": "nonpayable",
      "type": "function"
    },
    {
      "inputs": [
        {
          "internalType": "address",
          "name": "newOwner",
          "type": "address"
        }
      ],
      "name": "transferOwnership",
      "outputs": [],
      "stateMutability": "nonpayable",
      "type": "function"
    },
    {
      "inputs": [
        {
          "internalType": "uint8[3]",
          "name": "physicalInfo",
          "type": "uint8[3]"
        },
        {
          "internalType": "uint8",
          "name": "requiredLevel",
          "type": "uint8"
        },
        {
          "internalType": "string",
          "name": "name",
          "type": "string"
        },
        {
          "internalType": "uint256",
          "name": "price",
          "type": "uint256"
        },
        {
          "internalType": "uint256",
          "name": "typeIndex",
          "type": "uint256"
        }
      ],
      "name": "updateWarriorType_",
      "outputs": [],
      "stateMutability": "nonpayable",
      "type": "function"
    },
    {
      "inputs": [
        {
          "internalType": "uint256",
          "name": "buildingTokenId",
          "type": "uint256"
        },
        {
          "internalType": "uint256",
          "name": "landTokenId",
          "type": "uint256"
        }
      ],
      "name": "upgrade",
      "outputs": [],
      "stateMutability": "nonpayable",
      "type": "function"
    },
    {
      "inputs": [
        {
          "internalType": "uint256",
          "name": "amount",
          "type": "uint256"
        },
        {
          "internalType": "uint256",
          "name": "landTokenId",
          "type": "uint256"
        },
        {
          "internalType": "uint256",
          "name": "commodityIndex",
          "type": "uint256"
        }
      ],
      "name": "withdraw",
      "outputs": [],
      "stateMutability": "nonpayable",
      "type": "function"
    }
  ],
  "bytecode": "0x6101206040526802b5e3af16b1880000608081815260a082905260c082905260e09190915268056bc75e2d631000006101005262000041906005908162000b10565b506001600a5534801562000053575f80fd5b50604051620040f6380380620040f6833981016040819052620000769162000b90565b33806200009c57604051631e4fbdf760e01b81525f600482015260240160405180910390fd5b620000a78162000ac1565b506040805160c081018252603c8152605a6020808301918252608c8385019081526001606085018181528651808801909752600887526729b832b0b936b0b760c11b9387019390935260808501958652674563918244f4000060a08601526002805491820181555f52845160039091025f8051602062003ff68339815191528101805495519351945160ff90811663010000000263ff0000001996821662010000029690961663ffff0000199582166101000261ffff1990981694909116939093179590951792909216179190911782559251919290915f8051602062004016833981519152909101906200019d908262000c66565b5060a0918201516002918201556040805160c081018252605a81526046602080830191825260c8838501908152606084018681528551808701909652600986526829bbb7b93239b6b0b760b91b9286019290925260808401948552676f05b59d3b2000009684019690965284546001810186555f95909552825160039095025f8051602062003ff68339815191528101805493519751925160ff90811663010000000263ff0000001994821662010000029490941663ffff0000199982166101000261ffff199096169190981617939093179690961694909417939093178355905190925f805160206200401683398151915201906200029e908262000c66565b5060a0918201516002918201556040805160c08101825260288152603c602080830191825260508385019081526003606085018181528651808801909752600687526520b931b432b960d11b9387019390935260808501958652678ac7230489e800009785019790975285546001810187555f969096528351959096025f8051602062003ff68339815191528101805493519751925160ff90811663010000000263ff0000001994821662010000029490941663ffff0000199982166101000261ffff199096169890911697909717939093179690961694909417939093178355905190925f80516020620040168339815191520190620003a0908262000c66565b5060a091820151600290910155600480546001600160a01b038086166001600160a01b03199283161790925560038054928516929091169190911790556040805160e0810182525f808252680ad78ebc5ac62000006020808401918252680821ab0d44149800008486019081526060850184815268015af1d78b58c40000608087019081529786018581528751808901909852600a88526953746f6e65206d696e6560b01b9388019390935260c08601968752600b80546001810182559552855160079095025f8051602062004096833981519152810195865593515f80516020620040d683398151915285015590515f80516020620040b6833981519152840155515f805160206200403683398151915283015594515f805160206200407683398151915282015593515f8051602062003fd6833981519152850155915190925f80516020620040568339815191520190620004fe908262000c66565b50506040805160e0810182526802b5e3af16b18800008082526020808301918252680d8d726b7177a800008385019081525f6060850181815268015af1d78b58c4000060808701908152600160a088018181528951808b01909a52600b808b526a131d5b58995c881b5a5b1b60aa1b978b019790975260c08901998a528654918201875595909352865160079093025f8051602062004096833981519152810193845595515f80516020620040d683398151915287015592515f80516020620040b6833981519152860155515f805160206200403683398151915285015590515f805160206200407683398151915284015590515f8051602062003fd683398151915283015592519193505f8051602062004056833981519152019062000626908262000c66565b50506040805160e08101825268056bc75e2d6310000080825260208083018281528385019283525f6060850181815268015af1d78b58c4000060808701908152600260a088019081528851808a01909952600989526849726f6e206d696e6560b81b9589019590955260c08701978852600b80546001810182559352865160079093025f8051602062004096833981519152810193845593515f80516020620040d683398151915285015594515f80516020620040b6833981519152840155515f805160206200403683398151915283015592515f805160206200407683398151915282015590515f8051602062003fd68339815191528201559251919350915f8051602062004056833981519152019062000743908262000c66565b50506040805160e081018252680d8d726b7177a8000081526802b5e3af16b188000060208083019182525f8385018181526060850182815268056bc75e2d6310000060808701908152600460a088018181528951808b01909a52908952634661726d60e01b9589019590955260c08701978852600b80546001810182559452865160079094025f8051602062004096833981519152810194855595515f80516020620040d683398151915287015591515f80516020620040b6833981519152860155515f8051602062004036833981519152850155515f805160206200407683398151915284015590515f8051602062003fd683398151915283015592519193505f8051602062004056833981519152019062000861908262000c66565b50506040805160e081018252680d8d726b7177a8000080825260208083018281528385019283525f606085018181526802b5e3af16b188000060808701908152600360a088019081528851808a019099526009895268476f6c64206d696e6560b81b9589019590955260c08701978852600b80546001810182559352865160079093025f8051602062004096833981519152810193845593515f80516020620040d683398151915285015594515f80516020620040b6833981519152840155515f805160206200403683398151915283015592515f805160206200407683398151915282015590515f8051602062003fd68339815191528201559251919350915f805160206200405683398151915201906200097e908262000c66565b5050505f5b600581101562000a655762018aed5f52600c60205269021e19e0c9bab24000007f51fc858102f632344b7f98679151d1fa5735f5b104532377bc2f7f3c353d69b38260058110620009d857620009d862000d2e565b015f828254620009e9919062000d56565b90915550506201aa355f52600c60205269021e19e0c9bab24000007f7be6e8e7d7a9b00a7d144a139d3d0c5c093ca70e64b642bfa59106a9febdaf9b826005811062000a395762000a3962000d2e565b015f82825462000a4a919062000d56565b9091555081905062000a5c8162000d72565b91505062000983565b5050600c6020525060017f51fc858102f632344b7f98679151d1fa5735f5b104532377bc2f7f3c353d69ba8190556201aa355f527f7be6e8e7d7a9b00a7d144a139d3d0c5c093ca70e64b642bfa59106a9febdafa25562000d8d565b5f80546001600160a01b038381166001600160a01b0319831681178455604051919092169283917f8be0079c531659141344cd1fd0a4f28419497f9722a3daafe3b4186f6b6457e09190a35050565b826005810192821562000b4c579160200282015b8281111562000b4c57825182906001600160481b031690559160200191906001019062000b24565b5062000b5a92915062000b5e565b5090565b5b8082111562000b5a575f815560010162000b5f565b80516001600160a01b038116811462000b8b575f80fd5b919050565b5f806040838503121562000ba2575f80fd5b62000bad8362000b74565b915062000bbd6020840162000b74565b90509250929050565b634e487b7160e01b5f52604160045260245ffd5b600181811c9082168062000bef57607f821691505b60208210810362000c0e57634e487b7160e01b5f52602260045260245ffd5b50919050565b601f82111562000c61575f81815260208120601f850160051c8101602086101562000c3c5750805b601f850160051c820191505b8181101562000c5d5782815560010162000c48565b5050505b505050565b81516001600160401b0381111562000c825762000c8262000bc6565b62000c9a8162000c93845462000bda565b8462000c14565b602080601f83116001811462000cd0575f841562000cb85750858301515b5f19600386901b1c1916600185901b17855562000c5d565b5f85815260208120601f198616915b8281101562000d005788860151825594840194600190910190840162000cdf565b508582101562000d1e57878501515f19600388901b60f8161c191681555b5050505050600190811b01905550565b634e487b7160e01b5f52603260045260245ffd5b634e487b7160e01b5f52601160045260245ffd5b8082018082111562000d6c5762000d6c62000d42565b92915050565b5f6001820162000d865762000d8662000d42565b5060010190565b61323b8062000d9b5f395ff3fe608060405234801561000f575f80fd5b5060043610610147575f3560e01c8063798d7067116100bf578063aa7e7fa711610079578063aa7e7fa7146102f4578063cc0e27ca14610315578063cc92033314610328578063d9cf6a261461033b578063ec6a585f14610350578063f2fde38b14610363575f80fd5b8063798d70671461026c578063886011f91461027f5780638da5cb5b14610292578063957d99e5146102ac578063a41fe49f146102c1578063a58343da146102d4575f80fd5b8063344f34f211610110578063344f34f2146101cf578063393c775f146101e2578063451450ec146101f55780634639aa3f146102085780635c622a0e1461021b578063715018a614610264575f80fd5b8062aeef8a1461014b5780630d9bfc3d146101605780630ffad7c0146101735780631cb536ed1461019c5780633022b71a146101af575b5f80fd5b61015e6101593660046129dd565b610376565b005b61015e61016e3660046129dd565b6104c0565b610186610181366004612a06565b61073b565b6040516101939190612a3f565b60405180910390f35b61015e6101aa366004612a06565b6107c1565b6101c26101bd366004612a06565b6109d4565b6040516101939190612a4d565b61015e6101dd366004612b53565b610a94565b6101866101f0366004612a06565b610c3a565b61015e610203366004612c03565b610ca2565b61015e610216366004612c38565b6110da565b61022e610229366004612a06565b6114ee565b604051610193919081518152602080830151908201526040808301519082015260609182015160ff169181019190915260800190565b61015e61155f565b61015e61027a366004612a06565b611572565b61015e61028d366004612c03565b6117a7565b5f546040516001600160a01b039091168152602001610193565b6102b461188a565b6040516101939190612ca5565b61015e6102cf3660046129dd565b6119c0565b6102e76102e2366004612a06565b611b67565b6040516101939190612d50565b610307610302366004612a06565b611c09565b604051908152602001610193565b61015e610323366004612dff565b611c95565b610307610336366004612a06565b611d86565b610343611dd2565b6040516101939190612eab565b61015e61035e366004612f44565b611ef0565b61015e610371366004612f87565b612031565b6003546040516331a9108f60e11b815260048101859052849133916001600160a01b0390911690636352211e90602401602060405180830381865afa1580156103c1573d5f803e3d5ffd5b505050506040513d601f19601f820116820180604052508101906103e59190612fa9565b6001600160a01b03161461040c57604051636db2465f60e01b815260040160405180910390fd5b600480546040516323b872dd60e01b81523392810192909252306024830152604482018590526001600160a01b0316906323b872dd906064016020604051808303815f875af1158015610461573d5f803e3d5ffd5b505050506040513d601f19601f820116820180604052508101906104859190612fc4565b505f848152600c60205260409020839083600581106104a6576104a6612fe3565b015f8282546104b5919061300b565b909155505050505050565b6003546040516331a9108f60e11b815260048101859052849133916001600160a01b0390911690636352211e90602401602060405180830381865afa15801561050b573d5f803e3d5ffd5b505050506040513d601f19601f8201168201806040525081019061052f9190612fa9565b6001600160a01b03161461055657604051636db2465f60e01b815260040160405180910390fd5b61055e61188a565b51831061057e576040516327b3518960e11b815260040160405180910390fd5b5f848152600c602052604090206007015461059761188a565b84815181106105a8576105a8612fe3565b60200260200101516060015160ff1611156105d6576040516356ca09d160e01b815260040160405180910390fd5b6105df84610c3a565b60800151826105ec61188a565b85815181106105fd576105fd612fe3565b602002602001015160a00151610613919061301e565b11156106325760405163268bd22d60e21b815260040160405180910390fd5b5f61063c85611b67565b90505f805b82518110156106835782818151811061065c5761065c612fe3565b60200260200101518261066f919061300b565b91508061067b81613035565b915050610641565b5061068e848261300b565b5f878152600c60205260409020600701546106ab9060329061301e565b10156106ca57604051630336d90d60e41b815260040160405180910390fd5b610728866040518060a001604052805f81526020015f81526020015f81526020015f8152602001876106fa61188a565b8a8151811061070b5761070b612fe3565b602002602001015160a00151610721919061301e565b905261206e565b6107338585886120db565b505050505050565b610743612993565b61074b612993565b5f5b60058110156107ba575f848152600c602052604090206007015461077290600161300b565b6005826005811061078557610785612fe3565b0154610791919061301e565b8282600581106107a3576107a3612fe3565b6020020152806107b281613035565b91505061074d565b5092915050565b6003545f828152600e6020526040908190205490516331a9108f60e11b81526004810191909152829133916001600160a01b0390911690636352211e90602401602060405180830381865afa15801561081c573d5f803e3d5ffd5b505050506040513d601f19601f820116820180604052508101906108409190612fa9565b6001600160a01b03161461086757604051636db2465f60e01b815260040160405180910390fd5b5f610871836114ee565b90505f600b826060015160ff168154811061088e5761088e612fe3565b905f5260205f2090600702016040518060e00160405290815f820154815260200160018201548152602001600282015481526020016003820154815260200160048201548152602001600582015481526020016006820180546108f09061304d565b80601f016020809104026020016040519081016040528092919081815260200182805461091c9061304d565b80156109675780601f1061093e57610100808354040283529160200191610967565b820191905f5260205f20905b81548152906001019060200180831161094a57829003601f168201915b50505050508152505090505f61097c85611c09565b5f868152600d60209081526040808320426001820155600201548352600c909152902060a08401519192508291600581106109b9576109b9612fe3565b015f8282546109c8919061300b565b90915550505050505050565b6109dc6129b1565b5f828152600c6020526040908190208151610120810190925281608081018260058282826020028201915b815481526020019060010190808311610a0757505050505081526020016005820154815260200160068201805480602002602001604051908101604052809291908181526020018280548015610a7a57602002820191905f5260205f20905b815481526020019060010190808311610a66575b505050505081526020016007820154815250509050919050565b6003546040516331a9108f60e11b815260048101849052839133916001600160a01b0390911690636352211e90602401602060405180830381865afa158015610adf573d5f803e3d5ffd5b505050506040513d601f19601f82011682018060405250810190610b039190612fa9565b6001600160a01b031614610b2a57604051636db2465f60e01b815260040160405180910390fd5b6003546040516331a9108f60e11b8152600481018490525f916001600160a01b031690636352211e90602401602060405180830381865afa158015610b71573d5f803e3d5ffd5b505050506040513d601f19601f82011682018060405250810190610b959190612fa9565b6001600160a01b031603610bc95760405162461bcd60e51b8152602060048201525f60248201526044015b60405180910390fd5b5f80610bd686868661210d565b91509150610be2612993565b8215610bf657610bf3868684612403565b90505b84867fac027589d3750b6cab4c0e375f36083f350beb623cddc1a1fe7365e5ae44c15b8584604051610c29929190613085565b60405180910390a350505050505050565b610c42612993565b610c4a612993565b5f5b60058110156107ba575f848152600c602052604081208260058110610c7357610c73612fe3565b0154905080838360058110610c8a57610c8a612fe3565b60200201525080610c9a81613035565b915050610c4c565b6003545f838152600e6020526040908190205490516331a9108f60e11b81526004810191909152839133916001600160a01b0390911690636352211e90602401602060405180830381865afa158015610cfd573d5f803e3d5ffd5b505050506040513d601f19601f82011682018060405250810190610d219190612fa9565b6001600160a01b031614610d4857604051636db2465f60e01b815260040160405180910390fd5b610d5182611d86565b15610d6f576040516325e22ecd60e11b815260040160405180910390fd5b610d78836107c1565b5f838152600d6020526040812060038101549054600b805460ff90931693919284908110610da857610da8612fe3565b905f5260205f2090600702016040518060e00160405290815f82015481526020016001820154815260200160028201548152602001600382015481526020016004820154815260200160058201548152602001600682018054610e0a9061304d565b80601f0160208091040260200160405190810160405280929190818152602001828054610e369061304d565b8015610e815780601f10610e5857610100808354040283529160200191610e81565b820191905f5260205f20905b815481529060010190602001808311610e6457829003601f168201915b5050505050815250509050816001610e99919061300b565b8151610ea5919061301e565b5f868152600c602052604090205410801590610eea5750610ec782600161300b565b8160200151610ed6919061301e565b5f868152600c602052604090206001015410155b8015610f1f5750610efc82600161300b565b8160400151610f0b919061301e565b5f868152600c602052604090206002015410155b8015610f545750610f3182600161300b565b8160600151610f40919061301e565b5f868152600c602052604090206003015410155b8015610f895750610f6682600161300b565b8160800151610f75919061301e565b5f868152600c602052604090206004015410155b610fa55760405162461bcd60e51b8152600401610bc09061309b565b611049856040518060a00160405280856001610fc1919061300b565b8551610fcd919061301e565b8152602001610fdd86600161300b565b8560200151610fec919061301e565b8152602001610ffc86600161300b565b856040015161100b919061301e565b815260200161101b86600161300b565b856060015161102a919061301e565b815260200161103a86600161300b565b8560800151610721919061301e565b61105482600161300b565b5f878152600d602052604090205561106d82600161300b565b6110799061546061301e565b611083904261300b565b5f868152600c6020526040902060050155857feb0ebb51128928d7b1a6419c52128a9319bfcb55f0adafea75afbf75f9f2f3e96110c184600161300b565b60405190815260200160405180910390a2505050505050565b6003546040516331a9108f60e11b815260048101849052839133916001600160a01b0390911690636352211e90602401602060405180830381865afa158015611125573d5f803e3d5ffd5b505050506040513d601f19601f820116820180604052508101906111499190612fa9565b6001600160a01b03161461117057604051636db2465f60e01b815260040160405180910390fd5b600b5460ff831610611195576040516327b3518960e11b815260040160405180910390fd5b5f838152600c6020819052604090912060060154106111c757604051630336d90d60e41b815260040160405180910390fd5b6111d083611d86565b156111ee576040516325e22ecd60e11b815260040160405180910390fd5b5f600b8360ff168154811061120557611205612fe3565b905f5260205f2090600702016040518060e00160405290815f820154815260200160018201548152602001600282015481526020016003820154815260200160048201548152602001600582015481526020016006820180546112679061304d565b80601f01602080910402602001604051908101604052809291908181526020018280546112939061304d565b80156112de5780601f106112b5576101008083540402835291602001916112de565b820191905f5260205f20905b8154815290600101906020018083116112c157829003601f168201915b50505091909252505081515f878152600c60205260409020549293509091108015915061132157506020808201515f868152600c90925260409091206001015410155b801561134257506040808201515f868152600c602052919091206002015410155b8015611362575060808101515f858152600c602052604090206003015410155b8015611382575060608101515f858152600c602052604090206004015410155b61139e5760405162461bcd60e51b8152600401610bc09061309b565b6113e1846040518060a00160405280845f01518152602001846020015181526020018460400151815260200184608001518152602001846060015181525061206e565b600a80545f908152600e6020908152604080832088905580516080810182526001808252428285019081528284018b815260ff8b81166060860190815289548952600d8852868920955186559251858501559051600285015590516003909301805460ff19169390911692909217909155888452600c83529083208454600690910180549283018155845291832001558154919061147e83613035565b9091555061149090504261546061300b565b5f858152600c6020526040902060050155600a5484906114b2906001906130d2565b60405160ff861681527fcbecf69dc8611949e753d337378fb4ace6f6ad1e31b5fbf86b6379ea0279ca749060200160405180910390a350505050565b61151860405180608001604052805f81526020015f81526020015f81526020015f60ff1681525090565b505f908152600d602090815260409182902082516080810184528154815260018201549281019290925260028101549282019290925260039091015460ff16606082015290565b61156761250d565b6115705f612539565b565b6003546040516331a9108f60e11b815260048101839052829133916001600160a01b0390911690636352211e90602401602060405180830381865afa1580156115bd573d5f803e3d5ffd5b505050506040513d601f19601f820116820180604052508101906115e19190612fa9565b6001600160a01b03161461160857604051636db2465f60e01b815260040160405180910390fd5b61161182611d86565b1561162f576040516325e22ecd60e11b815260040160405180910390fd5b5f828152600c60205260408120600701549061164a84610c3a565b60055481519192501180159061167b575061166682600161300b565b600654611673919061301e565b602082015110155b80156116a2575061168d82600161300b565b60075461169a919061301e565b604082015110155b80156116c957506116b482600161300b565b6008546116c1919061301e565b606082015110155b80156116f057506116db82600161300b565b6009546116e8919061301e565b608082015110155b61170c5760405162461bcd60e51b8152600401610bc09061309b565b6040805160a081019182905261174491869190600590819081845b81548152602001906001019080831161172757505050505061206e565b5f848152600c602052604090206007015461176090600161300b565b61176c9061546061301e565b611776904261300b565b5f858152600c602052604081206005810192909255600790910180549161179c83613035565b919050555050505050565b600480546040516323b872dd60e01b81523392810192909252306024830152604482018390526001600160a01b0316906323b872dd906064016020604051808303815f875af11580156117fc573d5f803e3d5ffd5b505050506040513d601f19601f820116820180604052508101906118209190612fc4565b505f5b5f839052600c6020526005811015611885576118406005836130e5565b5f848152600c60205260409020826005811061185e5761185e612fe3565b015f82825461186d919061300b565b9091555081905061187d81613035565b915050611823565b505050565b60606002805480602002602001604051908101604052809291908181526020015f905b828210156119b7575f8481526020908190206040805160c08101825260038602909201805460ff808216855261010082048116958501959095526201000081048516928401929092526301000000909104909216606082015260018201805491929160808401919061191e9061304d565b80601f016020809104026020016040519081016040528092919081815260200182805461194a9061304d565b80156119955780601f1061196c57610100808354040283529160200191611995565b820191905f5260205f20905b81548152906001019060200180831161197857829003601f168201915b50505050508152602001600282015481525050815260200190600101906118ad565b50505050905090565b6003546040516331a9108f60e11b815260048101849052839133916001600160a01b0390911690636352211e90602401602060405180830381865afa158015611a0b573d5f803e3d5ffd5b505050506040513d601f19601f82011682018060405250810190611a2f9190612fa9565b6001600160a01b031614611a5657604051636db2465f60e01b815260040160405180910390fd5b5f838152600c6020526040902084908360058110611a7657611a76612fe3565b01541015611a975760405163268bd22d60e21b815260040160405180910390fd5b5f838152600c6020526040902084908360058110611ab757611ab7612fe3565b015f828254611ac691906130d2565b90915550506004546001600160a01b031663a9059cbb336064611aea88605f61301e565b611af491906130e5565b6040516001600160e01b031960e085901b1681526001600160a01b03909216600483015260248201526044016020604051808303815f875af1158015611b3c573d5f803e3d5ffd5b505050506040513d601f19601f82011682018060405250810190611b609190612fc4565b5050505050565b6002546060905f9067ffffffffffffffff811115611b8757611b87612ae5565b604051908082528060200260200182016040528015611bb0578160200160208202803683370190505b5090505f5b6002548110156107ba575f8481526001602090815260408083208484529091529020548251839083908110611bec57611bec612fe3565b602090810291909101015280611c0181613035565b915050611bb5565b5f80611c14836114ee565b90505f816020015142611c2791906130d2565b82519091505f90611c3a612a30846130e5565b611c44919061301e565b611c5690670de0b6b3a764000061301e565b8351909150611c6e906804563918244f40000061301e565b811115611c8d578251611c8a906804563918244f40000061301e565b90505b949350505050565b611c9d61250d565b6040805160c081018252865160ff908116825260208089015190911690820152908101866002602002015160ff1681526020018560ff1681526020018481526020018381525060028281548110611cf657611cf6612fe3565b5f91825260209182902083516003909202018054928401516040850151606086015160ff90811663010000000263ff0000001992821662010000029290921663ffff0000199382166101000261ffff19909716919095161794909417169190911791909117815560808201516001820190611d719082613149565b5060a082015181600201559050505050505050565b5f818152600c60205260408120600501548190421015611dcc575f838152600c6020526040902060050154603c90611dbf9042906130d2565b611dc991906130e5565b90505b92915050565b6060600b805480602002602001604051908101604052809291908181526020015f905b828210156119b7578382905f5260205f2090600702016040518060e00160405290815f82015481526020016001820154815260200160028201548152602001600382015481526020016004820154815260200160058201548152602001600682018054611e619061304d565b80601f0160208091040260200160405190810160405280929190818152602001828054611e8d9061304d565b8015611ed85780601f10611eaf57610100808354040283529160200191611ed8565b820191905f5260205f20905b815481529060010190602001808311611ebb57829003601f168201915b50505050508152505081526020019060010190611df5565b6003546040516331a9108f60e11b815260048101869052859133916001600160a01b0390911690636352211e90602401602060405180830381865afa158015611f3b573d5f803e3d5ffd5b505050506040513d601f19601f82011682018060405250810190611f5f9190612fa9565b6001600160a01b031614611f8657604051636db2465f60e01b815260040160405180910390fd5b5f858152600c6020526040902082908560058110611fa657611fa6612fe3565b01541015611fc75760405163268bd22d60e21b815260040160405180910390fd5b5f858152600c6020526040902082908560058110611fe757611fe7612fe3565b015f828254611ff691906130d2565b90915550600a905061200983600961301e565b61201391906130e5565b5f868152600c6020526040902084600581106109b9576109b9612fe3565b61203961250d565b6001600160a01b03811661206257604051631e4fbdf760e01b81525f6004820152602401610bc0565b61206b81612539565b50565b5f5b60058110156118855781816005811061208b5761208b612fe3565b6020020151600c5f8581526020019081526020015f205f0182600581106120b4576120b4612fe3565b015f8282546120c391906130d2565b909155508190506120d381613035565b915050612070565b5f8181526001602090815260408083208684529091528120805484929061210390849061300b565b9091555050505050565b60025483515f9182911461215c5760405162461bcd60e51b8152602060048201526016602482015275098cadccee8d0e640c8decae640dcdee840dac2e8c6d60531b6044820152606401610bc0565b5f805f805f61216a88611b67565b90505f5b8a518110156123b9578a818151811061218957612189612fe3565b6020908102919091018101515f8c8152600183526040808220858352909352919091205410156121ef5760405162461bcd60e51b8152602060048201526011602482015270496e73756666696369656e742061726d7960781b6044820152606401610bc0565b8a818151811061220157612201612fe3565b602002602001015160015f8c81526020019081526020015f205f8381526020019081526020015f205f82825461223791906130d2565b925050819055508a818151811061225057612250612fe3565b60200260200101516002828154811061226b5761226b612fe3565b5f918252602090912060039091020154612288919060ff1661301e565b612292908761300b565b95508a81815181106122a6576122a6612fe3565b6020026020010151600282815481106122c1576122c1612fe3565b5f9182526020909120600390910201546122e4919062010000900460ff1661301e565b6122ee908661300b565b945081818151811061230257612302612fe3565b60200260200101516002828154811061231d5761231d612fe3565b5f91825260209091206003909102015461233f9190610100900460ff1661301e565b612349908561300b565b935081818151811061235d5761235d612fe3565b60200260200101516002828154811061237857612378612fe3565b5f91825260209091206003909102015461239b919062010000900460ff1661301e565b6123a5908461300b565b9250806123b181613035565b91505061216e565b505f805f6123c988888888612588565b9250925092506123d9818c612868565b6123e48d838e6128ef565b826123ef82846130d2565b995099505050505050505050935093915050565b61240b612993565b5f5b6005811015612505575f848152600c602052604081206064908590846005811061243957612439612fe3565b0154612445919061301e565b61244f91906130e5565b90508083836005811061246457612464612fe3565b60200201818152505080600c5f8781526020019081526020015f205f01836005811061249257612492612fe3565b015f8282546124a191906130d2565b90915550606490506124b482605561301e565b6124be91906130e5565b5f878152600c6020526040902083600581106124dc576124dc612fe3565b015f8282546124eb919061300b565b909155508291506124fd905081613035565b91505061240d565b509392505050565b5f546001600160a01b031633146115705760405163118cdaa760e01b8152336004820152602401610bc0565b5f80546001600160a01b038381166001600160a01b0319831681178455604051919092169283917f8be0079c531659141344cd1fd0a4f28419497f9722a3daafe3b4186f6b6457e09190a35050565b5f805f805f80898711801561259c57508789115b15612658576125ab8a886130d2565b6125b5898b6130d2565b111561261d57506001886125ca60038a6130e5565b6125d4908b6130d2565b6125df90606461301e565b6125e991906130e5565b9250866125f760028c6130e5565b61260190896130d2565b61260c90606461301e565b61261691906130e5565b915061285a565b505f8861262b60028a6130e5565b612635908b6130d2565b61264090606461301e565b61264a91906130e5565b9250866125f760038c6130e5565b8987101561276057506001600261267088600361301e565b61267a91906130e5565b8a10156126b3578861268d60048a6130e5565b612697908b6130d2565b6126a290606461301e565b6126ac91906130e5565b9250601e91505b8960026126c189600361301e565b6126cb91906130e5565b1080156126e15750896126df88600261301e565b115b1561271857886126f260058a6130e5565b6126fc908b6130d2565b61270790606461301e565b61271191906130e5565b9250600f91505b8961272488600261301e565b101561275b578861273660068a6130e5565b612740908b6130d2565b61274b90606461301e565b61275591906130e5565b92505f91505b61285a565b505f600261276f8a600361301e565b61277991906130e5565b8810156127b257601e92508661279060048c6130e5565b61279a90896130d2565b6127a590606461301e565b6127af91906130e5565b91505b876127be8a600261301e565b10156127f657600f9250866127d460058c6130e5565b6127de90896130d2565b6127e990606461301e565b6127f391906130e5565b91505b8760026128048b600361301e565b61280e91906130e5565b1080156128245750876128228a600261301e565b115b1561285a575f92508661283860068c6130e5565b61284290896130d2565b61284d90606461301e565b61285791906130e5565b91505b999198509650945050505050565b5f5b600254811015611885575f828152600160209081526040808320848452909152902054156128dd575f8281526001602090815260408083208484529091529020546064906128b990859061301e565b6128c391906130e5565b5f8381526001602090815260408083208584529091529020555b806128e781613035565b91505061286a565b5f5b60025481101561298d575f84828151811061290e5761290e612fe3565b6020026020010151111561297b5760648385838151811061293157612931612fe3565b6020026020010151612943919061301e565b61294d91906130e5565b5f8381526001602090815260408083208584529091528120805490919061297590849061300b565b90915550505b8061298581613035565b9150506128f1565b50505050565b6040518060a001604052806005906020820280368337509192915050565b60405180608001604052806129c4612993565b81526020015f8152602001606081526020015f81525090565b5f805f606084860312156129ef575f80fd5b505081359360208301359350604090920135919050565b5f60208284031215612a16575f80fd5b5035919050565b805f5b600581101561298d578151845260209384019390910190600101612a20565b60a08101611dcc8284612a1d565b602080825282515f91906101208401838584015b6005821015612a80578351815292840192600191909101908401612a61565b50508583015160c0860152604086015161010060e0870181905281519283905290840192505f916101408701905b80841015612ace5784518252938501936001939093019290850190612aae565b506060979097015195019490945250929392505050565b634e487b7160e01b5f52604160045260245ffd5b6040516060810167ffffffffffffffff81118282101715612b1c57612b1c612ae5565b60405290565b604051601f8201601f1916810167ffffffffffffffff81118282101715612b4b57612b4b612ae5565b604052919050565b5f805f60608486031215612b65575f80fd5b833567ffffffffffffffff80821115612b7c575f80fd5b818601915086601f830112612b8f575f80fd5b8135602082821115612ba357612ba3612ae5565b8160051b9250612bb4818401612b22565b828152928401810192818101908a851115612bcd575f80fd5b948201945b84861015612beb57853582529482019490820190612bd2565b9a918901359950506040909701359695505050505050565b5f8060408385031215612c14575f80fd5b50508035926020909101359150565b803560ff81168114612c33575f80fd5b919050565b5f8060408385031215612c49575f80fd5b82359150612c5960208401612c23565b90509250929050565b5f81518084525f5b81811015612c8657602081850181015186830182015201612c6a565b505f602082860101526020601f19601f83011685010191505092915050565b5f6020808301818452808551808352604092508286019150828160051b8701018488015f5b83811015612d4257603f19898403018552815160c060ff808351168652808a840151168a8701528089840151168987015260608181850151168188015250506080808301518282880152612d2083880182612c62565b60a0948501519790940196909652505094870194925090860190600101612cca565b509098975050505050505050565b602080825282518282018190525f9190848201906040850190845b81811015612d8757835183529284019291840191600101612d6b565b50909695505050505050565b5f82601f830112612da2575f80fd5b813567ffffffffffffffff811115612dbc57612dbc612ae5565b612dcf601f8201601f1916602001612b22565b818152846020838601011115612de3575f80fd5b816020850160208301375f918101602001919091529392505050565b5f805f805f60e08688031215612e13575f80fd5b86601f870112612e21575f80fd5b612e29612af9565b806060880189811115612e3a575f80fd5b885b81811015612e5b57612e4d81612c23565b845260209384019301612e3c565b50819750612e6881612c23565b9650505050608086013567ffffffffffffffff811115612e86575f80fd5b612e9288828901612d93565b9598949750949560a0810135955060c001359392505050565b5f6020808301818452808551808352604092508286019150828160051b8701018488015f5b83811015612d4257888303603f1901855281518051845287810151888501528681015187850152606080820151908501526080808201519085015260a0808201519085015260c09081015160e091850182905290612f3081860183612c62565b968901969450505090860190600101612ed0565b5f805f8060808587031215612f57575f80fd5b5050823594602084013594506040840135936060013592509050565b6001600160a01b038116811461206b575f80fd5b5f60208284031215612f97575f80fd5b8135612fa281612f73565b9392505050565b5f60208284031215612fb9575f80fd5b8151612fa281612f73565b5f60208284031215612fd4575f80fd5b81518015158114612fa2575f80fd5b634e487b7160e01b5f52603260045260245ffd5b634e487b7160e01b5f52601160045260245ffd5b80820180821115611dcc57611dcc612ff7565b8082028115828204841417611dcc57611dcc612ff7565b5f6001820161304657613046612ff7565b5060010190565b600181811c9082168061306157607f821691505b60208210810361307f57634e487b7160e01b5f52602260045260245ffd5b50919050565b821515815260c08101612fa26020830184612a1d565b60208082526018908201527f496e73756666696369656e7420636f6d6d6f6469746965730000000000000000604082015260600190565b81810381811115611dcc57611dcc612ff7565b5f826130ff57634e487b7160e01b5f52601260045260245ffd5b500490565b601f821115611885575f81815260208120601f850160051c8101602086101561312a5750805b601f850160051c820191505b8181101561073357828155600101613136565b815167ffffffffffffffff81111561316357613163612ae5565b61317781613171845461304d565b84613104565b602080601f8311600181146131aa575f84156131935750858301515b5f19600386901b1c1916600185901b178555610733565b5f85815260208120601f198616915b828110156131d8578886015182559484019460019091019084016131b9565b50858210156131f557878501515f19600388901b60f8161c191681555b5050505050600190811b0190555056fea2646970667358221220fd84ca99f090d87d842841128258e80eafaa301207875e1b0f8ae6bb29b180a164736f6c634300081400330175b7a638427703f0dbe7bb9bbf987a2551717b34e79f33b5b1008d1fa01dbe405787fa12a823e0f2b7631cc41b3ba8828b3321ca811111fa75cd3aa3bb5ace405787fa12a823e0f2b7631cc41b3ba8828b3321ca811111fa75cd3aa3bb5acf0175b7a638427703f0dbe7bb9bbf987a2551717b34e79f33b5b1008d1fa01dbc0175b7a638427703f0dbe7bb9bbf987a2551717b34e79f33b5b1008d1fa01dbf0175b7a638427703f0dbe7bb9bbf987a2551717b34e79f33b5b1008d1fa01dbd0175b7a638427703f0dbe7bb9bbf987a2551717b34e79f33b5b1008d1fa01db90175b7a638427703f0dbe7bb9bbf987a2551717b34e79f33b5b1008d1fa01dbb0175b7a638427703f0dbe7bb9bbf987a2551717b34e79f33b5b1008d1fa01dba",
  "linkReferences": {},
  "deployedLinkReferences": {}
}