{
  "_format": "hh-sol-artifact-1",
  "contractName": "LandsV2",
  "sourceName": "contracts/V2/LandsV2.sol",
  "abi": [
    {
      "inputs": [],
      "stateMutability": "nonpayable",
      "type": "constructor"
    },
    {
      "inputs": [
        {
          "internalType": "address",
          "name": "sender",
          "type": "address"
        },
        {
          "internalType": "uint256",
          "name": "tokenId",
          "type": "uint256"
        },
        {
          "internalType": "address",
          "name": "owner",
          "type": "address"
        }
      ],
      "name": "ERC721IncorrectOwner",
      "type": "error"
    },
    {
      "inputs": [
        {
          "internalType": "address",
          "name": "operator",
          "type": "address"
        },
        {
          "internalType": "uint256",
          "name": "tokenId",
          "type": "uint256"
        }
      ],
      "name": "ERC721InsufficientApproval",
      "type": "error"
    },
    {
      "inputs": [
        {
          "internalType": "address",
          "name": "approver",
          "type": "address"
        }
      ],
      "name": "ERC721InvalidApprover",
      "type": "error"
    },
    {
      "inputs": [
        {
          "internalType": "address",
          "name": "operator",
          "type": "address"
        }
      ],
      "name": "ERC721InvalidOperator",
      "type": "error"
    },
    {
      "inputs": [
        {
          "internalType": "address",
          "name": "owner",
          "type": "address"
        }
      ],
      "name": "ERC721InvalidOwner",
      "type": "error"
    },
    {
      "inputs": [
        {
          "internalType": "address",
          "name": "receiver",
          "type": "address"
        }
      ],
      "name": "ERC721InvalidReceiver",
      "type": "error"
    },
    {
      "inputs": [
        {
          "internalType": "address",
          "name": "sender",
          "type": "address"
        }
      ],
      "name": "ERC721InvalidSender",
      "type": "error"
    },
    {
      "inputs": [
        {
          "internalType": "uint256",
          "name": "tokenId",
          "type": "uint256"
        }
      ],
      "name": "ERC721NonexistentToken",
      "type": "error"
    },
    {
      "inputs": [],
      "name": "Lands__InsufficientPrice",
      "type": "error"
    },
    {
      "inputs": [],
      "name": "Lands__InvalidCoordinate",
      "type": "error"
    },
    {
      "inputs": [
        {
          "internalType": "address",
          "name": "owner",
          "type": "address"
        }
      ],
      "name": "OwnableInvalidOwner",
      "type": "error"
    },
    {
      "inputs": [
        {
          "internalType": "address",
          "name": "account",
          "type": "address"
        }
      ],
      "name": "OwnableUnauthorizedAccount",
      "type": "error"
    },
    {
      "anonymous": false,
      "inputs": [
        {
          "indexed": true,
          "internalType": "address",
          "name": "owner",
          "type": "address"
        },
        {
          "indexed": true,
          "internalType": "address",
          "name": "approved",
          "type": "address"
        },
        {
          "indexed": true,
          "internalType": "uint256",
          "name": "tokenId",
          "type": "uint256"
        }
      ],
      "name": "Approval",
      "type": "event"
    },
    {
      "anonymous": false,
      "inputs": [
        {
          "indexed": true,
          "internalType": "address",
          "name": "owner",
          "type": "address"
        },
        {
          "indexed": true,
          "internalType": "address",
          "name": "operator",
          "type": "address"
        },
        {
          "indexed": false,
          "internalType": "bool",
          "name": "approved",
          "type": "bool"
        }
      ],
      "name": "ApprovalForAll",
      "type": "event"
    },
    {
      "anonymous": false,
      "inputs": [
        {
          "indexed": true,
          "internalType": "address",
          "name": "previousOwner",
          "type": "address"
        },
        {
          "indexed": true,
          "internalType": "address",
          "name": "newOwner",
          "type": "address"
        }
      ],
      "name": "OwnershipTransferred",
      "type": "event"
    },
    {
      "anonymous": false,
      "inputs": [
        {
          "indexed": true,
          "internalType": "address",
          "name": "from",
          "type": "address"
        },
        {
          "indexed": true,
          "internalType": "address",
          "name": "to",
          "type": "address"
        },
        {
          "indexed": true,
          "internalType": "uint256",
          "name": "tokenId",
          "type": "uint256"
        }
      ],
      "name": "Transfer",
      "type": "event"
    },
    {
      "inputs": [],
      "name": "URI",
      "outputs": [
        {
          "internalType": "string",
          "name": "",
          "type": "string"
        }
      ],
      "stateMutability": "view",
      "type": "function"
    },
    {
      "inputs": [
        {
          "internalType": "address",
          "name": "to",
          "type": "address"
        },
        {
          "internalType": "uint256",
          "name": "tokenId",
          "type": "uint256"
        }
      ],
      "name": "approve",
      "outputs": [],
      "stateMutability": "nonpayable",
      "type": "function"
    },
    {
      "inputs": [
        {
          "internalType": "address",
          "name": "owner",
          "type": "address"
        }
      ],
      "name": "balanceOf",
      "outputs": [
        {
          "internalType": "uint256",
          "name": "",
          "type": "uint256"
        }
      ],
      "stateMutability": "view",
      "type": "function"
    },
    {
      "inputs": [
        {
          "internalType": "uint256",
          "name": "tokenId",
          "type": "uint256"
        }
      ],
      "name": "getApproved",
      "outputs": [
        {
          "internalType": "address",
          "name": "",
          "type": "address"
        }
      ],
      "stateMutability": "view",
      "type": "function"
    },
    {
      "inputs": [],
      "name": "getPrice",
      "outputs": [
        {
          "internalType": "uint256",
          "name": "",
          "type": "uint256"
        }
      ],
      "stateMutability": "pure",
      "type": "function"
    },
    {
      "inputs": [
        {
          "internalType": "address",
          "name": "owner",
          "type": "address"
        },
        {
          "internalType": "address",
          "name": "operator",
          "type": "address"
        }
      ],
      "name": "isApprovedForAll",
      "outputs": [
        {
          "internalType": "bool",
          "name": "",
          "type": "bool"
        }
      ],
      "stateMutability": "view",
      "type": "function"
    },
    {
      "inputs": [
        {
          "internalType": "uint8",
          "name": "x",
          "type": "uint8"
        },
        {
          "internalType": "uint8",
          "name": "y",
          "type": "uint8"
        }
      ],
      "name": "mintLand",
      "outputs": [],
      "stateMutability": "payable",
      "type": "function"
    },
    {
      "inputs": [],
      "name": "name",
      "outputs": [
        {
          "internalType": "string",
          "name": "",
          "type": "string"
        }
      ],
      "stateMutability": "view",
      "type": "function"
    },
    {
      "inputs": [],
      "name": "owner",
      "outputs": [
        {
          "internalType": "address",
          "name": "",
          "type": "address"
        }
      ],
      "stateMutability": "view",
      "type": "function"
    },
    {
      "inputs": [
        {
          "internalType": "uint256",
          "name": "tokenId",
          "type": "uint256"
        }
      ],
      "name": "ownerOf",
      "outputs": [
        {
          "internalType": "address",
          "name": "",
          "type": "address"
        }
      ],
      "stateMutability": "view",
      "type": "function"
    },
    {
      "inputs": [],
      "name": "renounceOwnership",
      "outputs": [],
      "stateMutability": "nonpayable",
      "type": "function"
    },
    {
      "inputs": [
        {
          "internalType": "address",
          "name": "from",
          "type": "address"
        },
        {
          "internalType": "address",
          "name": "to",
          "type": "address"
        },
        {
          "internalType": "uint256",
          "name": "tokenId",
          "type": "uint256"
        }
      ],
      "name": "safeTransferFrom",
      "outputs": [],
      "stateMutability": "nonpayable",
      "type": "function"
    },
    {
      "inputs": [
        {
          "internalType": "address",
          "name": "from",
          "type": "address"
        },
        {
          "internalType": "address",
          "name": "to",
          "type": "address"
        },
        {
          "internalType": "uint256",
          "name": "tokenId",
          "type": "uint256"
        },
        {
          "internalType": "bytes",
          "name": "data",
          "type": "bytes"
        }
      ],
      "name": "safeTransferFrom",
      "outputs": [],
      "stateMutability": "nonpayable",
      "type": "function"
    },
    {
      "inputs": [
        {
          "internalType": "address",
          "name": "operator",
          "type": "address"
        },
        {
          "internalType": "bool",
          "name": "approved",
          "type": "bool"
        }
      ],
      "name": "setApprovalForAll",
      "outputs": [],
      "stateMutability": "nonpayable",
      "type": "function"
    },
    {
      "inputs": [
        {
          "internalType": "bytes4",
          "name": "interfaceId",
          "type": "bytes4"
        }
      ],
      "name": "supportsInterface",
      "outputs": [
        {
          "internalType": "bool",
          "name": "",
          "type": "bool"
        }
      ],
      "stateMutability": "view",
      "type": "function"
    },
    {
      "inputs": [],
      "name": "symbol",
      "outputs": [
        {
          "internalType": "string",
          "name": "",
          "type": "string"
        }
      ],
      "stateMutability": "view",
      "type": "function"
    },
    {
      "inputs": [
        {
          "internalType": "uint256",
          "name": "_tokenId",
          "type": "uint256"
        }
      ],
      "name": "tokenURI",
      "outputs": [
        {
          "internalType": "string",
          "name": "",
          "type": "string"
        }
      ],
      "stateMutability": "view",
      "type": "function"
    },
    {
      "inputs": [
        {
          "internalType": "address",
          "name": "from",
          "type": "address"
        },
        {
          "internalType": "address",
          "name": "to",
          "type": "address"
        },
        {
          "internalType": "uint256",
          "name": "tokenId",
          "type": "uint256"
        }
      ],
      "name": "transferFrom",
      "outputs": [],
      "stateMutability": "nonpayable",
      "type": "function"
    },
    {
      "inputs": [
        {
          "internalType": "address",
          "name": "newOwner",
          "type": "address"
        }
      ],
      "name": "transferOwnership",
      "outputs": [],
      "stateMutability": "nonpayable",
      "type": "function"
    }
  ],
  "bytecode": "0x608060405234801562000010575f80fd5b50336040518060400160405280601181526020017f506f6c79676f6e2077617273206c616e640000000000000000000000000000008152506040518060400160405280600381526020017f50574c0000000000000000000000000000000000000000000000000000000000815250815f90816200008e919062000455565b508060019081620000a0919062000455565b5050505f73ffffffffffffffffffffffffffffffffffffffff168173ffffffffffffffffffffffffffffffffffffffff160362000116575f6040517f1e4fbdf70000000000000000000000000000000000000000000000000000000081526004016200010d91906200057c565b60405180910390fd5b62000127816200012e60201b60201c565b5062000597565b5f60065f9054906101000a900473ffffffffffffffffffffffffffffffffffffffff1690508160065f6101000a81548173ffffffffffffffffffffffffffffffffffffffff021916908373ffffffffffffffffffffffffffffffffffffffff1602179055508173ffffffffffffffffffffffffffffffffffffffff168173ffffffffffffffffffffffffffffffffffffffff167f8be0079c531659141344cd1fd0a4f28419497f9722a3daafe3b4186f6b6457e060405160405180910390a35050565b5f81519050919050565b7f4e487b71000000000000000000000000000000000000000000000000000000005f52604160045260245ffd5b7f4e487b71000000000000000000000000000000000000000000000000000000005f52602260045260245ffd5b5f60028204905060018216806200026d57607f821691505b60208210810362000283576200028262000228565b5b50919050565b5f819050815f5260205f209050919050565b5f6020601f8301049050919050565b5f82821b905092915050565b5f60088302620002e77fffffffffffffffffffffffffffffffffffffffffffffffffffffffffffffffff82620002aa565b620002f38683620002aa565b95508019841693508086168417925050509392505050565b5f819050919050565b5f819050919050565b5f6200033d6200033762000331846200030b565b62000314565b6200030b565b9050919050565b5f819050919050565b62000358836200031d565b62000370620003678262000344565b848454620002b6565b825550505050565b5f90565b6200038662000378565b620003938184846200034d565b505050565b5b81811015620003ba57620003ae5f826200037c565b60018101905062000399565b5050565b601f8211156200040957620003d38162000289565b620003de846200029b565b81016020851015620003ee578190505b62000406620003fd856200029b565b83018262000398565b50505b505050565b5f82821c905092915050565b5f6200042b5f19846008026200040e565b1980831691505092915050565b5f6200044583836200041a565b9150826002028217905092915050565b6200046082620001f1565b67ffffffffffffffff8111156200047c576200047b620001fb565b5b62000488825462000255565b62000495828285620003be565b5f60209050601f831160018114620004cb575f8415620004b6578287015190505b620004c2858262000438565b86555062000531565b601f198416620004db8662000289565b5f5b828110156200050457848901518255600182019150602085019450602081019050620004dd565b8683101562000524578489015162000520601f8916826200041a565b8355505b6001600288020188555050505b505050505050565b5f73ffffffffffffffffffffffffffffffffffffffff82169050919050565b5f620005648262000539565b9050919050565b620005768162000558565b82525050565b5f602082019050620005915f8301846200056b565b92915050565b61250680620005a55f395ff3fe608060405260043610610113575f3560e01c806370a082311161009f578063a22cb46511610063578063a22cb46514610383578063b88d4fde146103ab578063c87b56dd146103d3578063e985e9c51461040f578063f2fde38b1461044b57610113565b806370a08231146102b3578063715018a6146102ef5780638da5cb5b1461030557806395d89b411461032f57806398d5fdca1461035957610113565b80631141d7de116100e65780631141d7de146101e157806323b872dd1461020b57806342842e0e14610233578063475953bd1461025b5780636352211e1461027757610113565b806301ffc9a71461011757806306fdde0314610153578063081812fc1461017d578063095ea7b3146101b9575b5f80fd5b348015610122575f80fd5b5061013d60048036038101906101389190611a94565b610473565b60405161014a9190611ad9565b60405180910390f35b34801561015e575f80fd5b50610167610554565b6040516101749190611b7c565b60405180910390f35b348015610188575f80fd5b506101a3600480360381019061019e9190611bcf565b6105e3565b6040516101b09190611c39565b60405180910390f35b3480156101c4575f80fd5b506101df60048036038101906101da9190611c7c565b6105fe565b005b3480156101ec575f80fd5b506101f5610614565b6040516102029190611b7c565b60405180910390f35b348015610216575f80fd5b50610231600480360381019061022c9190611cba565b610623565b005b34801561023e575f80fd5b5061025960048036038101906102549190611cba565b610722565b005b61027560048036038101906102709190611d40565b610741565b005b348015610282575f80fd5b5061029d60048036038101906102989190611bcf565b61080c565b6040516102aa9190611c39565b60405180910390f35b3480156102be575f80fd5b506102d960048036038101906102d49190611d7e565b61081d565b6040516102e69190611db8565b60405180910390f35b3480156102fa575f80fd5b506103036108d3565b005b348015610310575f80fd5b506103196108e6565b6040516103269190611c39565b60405180910390f35b34801561033a575f80fd5b5061034361090e565b6040516103509190611b7c565b60405180910390f35b348015610364575f80fd5b5061036d61099e565b60405161037a9190611db8565b60405180910390f35b34801561038e575f80fd5b506103a960048036038101906103a49190611dfb565b6109ac565b005b3480156103b6575f80fd5b506103d160048036038101906103cc9190611f65565b6109c2565b005b3480156103de575f80fd5b506103f960048036038101906103f49190611bcf565b6109df565b6040516104069190611b7c565b60405180910390f35b34801561041a575f80fd5b5061043560048036038101906104309190611fe5565b610aa7565b6040516104429190611ad9565b60405180910390f35b348015610456575f80fd5b50610471600480360381019061046c9190611d7e565b610b35565b005b5f7f80ac58cd000000000000000000000000000000000000000000000000000000007bffffffffffffffffffffffffffffffffffffffffffffffffffffffff1916827bffffffffffffffffffffffffffffffffffffffffffffffffffffffff1916148061053d57507f5b5e139f000000000000000000000000000000000000000000000000000000007bffffffffffffffffffffffffffffffffffffffffffffffffffffffff1916827bffffffffffffffffffffffffffffffffffffffffffffffffffffffff1916145b8061054d575061054c82610bb9565b5b9050919050565b60605f805461056290612050565b80601f016020809104026020016040519081016040528092919081815260200182805461058e90612050565b80156105d95780601f106105b0576101008083540402835291602001916105d9565b820191905f5260205f20905b8154815290600101906020018083116105bc57829003601f168201915b5050505050905090565b5f6105ed82610c22565b506105f782610ca8565b9050919050565b610610828261060b610ce1565b610ce8565b5050565b606061061e610cfa565b905090565b5f73ffffffffffffffffffffffffffffffffffffffff168273ffffffffffffffffffffffffffffffffffffffff1603610693575f6040517f64a0ae9200000000000000000000000000000000000000000000000000000000815260040161068a9190611c39565b60405180910390fd5b5f6106a683836106a1610ce1565b610d1a565b90508373ffffffffffffffffffffffffffffffffffffffff168173ffffffffffffffffffffffffffffffffffffffff161461071c578382826040517f64283d7b00000000000000000000000000000000000000000000000000000000815260040161071393929190612080565b60405180910390fd5b50505050565b61073c83838360405180602001604052805f8152506109c2565b505050565b818160648260ff16108061075957506103e78260ff16115b80610767575060648160ff16105b8061077657506103e78160ff16115b156107ad576040517f636beb5100000000000000000000000000000000000000000000000000000000815260040160405180910390fd5b66470de4df8200003410156107ee576040517f1352bb8a00000000000000000000000000000000000000000000000000000000815260040160405180910390fd5b5f6107f98585610f25565b90506108053382610f82565b5050505050565b5f61081682610c22565b9050919050565b5f8073ffffffffffffffffffffffffffffffffffffffff168273ffffffffffffffffffffffffffffffffffffffff160361088e575f6040517f89c62b640000000000000000000000000000000000000000000000000000000081526004016108859190611c39565b60405180910390fd5b60035f8373ffffffffffffffffffffffffffffffffffffffff1673ffffffffffffffffffffffffffffffffffffffff1681526020019081526020015f20549050919050565b6108db611075565b6108e45f6110fc565b565b5f60065f9054906101000a900473ffffffffffffffffffffffffffffffffffffffff16905090565b60606001805461091d90612050565b80601f016020809104026020016040519081016040528092919081815260200182805461094990612050565b80156109945780601f1061096b57610100808354040283529160200191610994565b820191905f5260205f20905b81548152906001019060200180831161097757829003601f168201915b5050505050905090565b5f66470de4df820000905090565b6109be6109b7610ce1565b83836111bf565b5050565b6109cd848484610623565b6109d984848484611328565b50505050565b60605f73ffffffffffffffffffffffffffffffffffffffff16610a01836114da565b73ffffffffffffffffffffffffffffffffffffffff1603610a57576040517f08c379a0000000000000000000000000000000000000000000000000000000008152600401610a4e90612125565b60405180910390fd5b5f610a60610cfa565b90505f815111610a7e5760405180602001604052805f815250610a9f565b80604051602001610a8f919061217d565b6040516020818303038152906040525b915050919050565b5f60055f8473ffffffffffffffffffffffffffffffffffffffff1673ffffffffffffffffffffffffffffffffffffffff1681526020019081526020015f205f8373ffffffffffffffffffffffffffffffffffffffff1673ffffffffffffffffffffffffffffffffffffffff1681526020019081526020015f205f9054906101000a900460ff16905092915050565b610b3d611075565b5f73ffffffffffffffffffffffffffffffffffffffff168173ffffffffffffffffffffffffffffffffffffffff1603610bad575f6040517f1e4fbdf7000000000000000000000000000000000000000000000000000000008152600401610ba49190611c39565b60405180910390fd5b610bb6816110fc565b50565b5f7f01ffc9a7000000000000000000000000000000000000000000000000000000007bffffffffffffffffffffffffffffffffffffffffffffffffffffffff1916827bffffffffffffffffffffffffffffffffffffffffffffffffffffffff1916149050919050565b5f80610c2d836114da565b90505f73ffffffffffffffffffffffffffffffffffffffff168173ffffffffffffffffffffffffffffffffffffffff1603610c9f57826040517f7e273289000000000000000000000000000000000000000000000000000000008152600401610c969190611db8565b60405180910390fd5b80915050919050565b5f60045f8381526020019081526020015f205f9054906101000a900473ffffffffffffffffffffffffffffffffffffffff169050919050565b5f33905090565b610cf58383836001611513565b505050565b606060405180608001604052806043815260200161248e60439139905090565b5f80610d25846114da565b90505f73ffffffffffffffffffffffffffffffffffffffff168373ffffffffffffffffffffffffffffffffffffffff1614610d6657610d658184866116d2565b5b5f73ffffffffffffffffffffffffffffffffffffffff168173ffffffffffffffffffffffffffffffffffffffff1614610df157610da55f855f80611513565b600160035f8373ffffffffffffffffffffffffffffffffffffffff1673ffffffffffffffffffffffffffffffffffffffff1681526020019081526020015f205f82825403925050819055505b5f73ffffffffffffffffffffffffffffffffffffffff168573ffffffffffffffffffffffffffffffffffffffff1614610e7057600160035f8773ffffffffffffffffffffffffffffffffffffffff1673ffffffffffffffffffffffffffffffffffffffff1681526020019081526020015f205f82825401925050819055505b8460025f8681526020019081526020015f205f6101000a81548173ffffffffffffffffffffffffffffffffffffffff021916908373ffffffffffffffffffffffffffffffffffffffff160217905550838573ffffffffffffffffffffffffffffffffffffffff168273ffffffffffffffffffffffffffffffffffffffff167fddf252ad1be2c89b69c2b068fc378daa952ba7f163c4a11628f55a4df523b3ef60405160405180910390a4809150509392505050565b5f80610f338460ff16611795565b90505f610f428460ff16611795565b90505f8282604051602001610f58929190612193565b60405160208183030381529060405290505f610f73826118ee565b90508094505050505092915050565b5f73ffffffffffffffffffffffffffffffffffffffff168273ffffffffffffffffffffffffffffffffffffffff1603610ff2575f6040517f64a0ae92000000000000000000000000000000000000000000000000000000008152600401610fe99190611c39565b60405180910390fd5b5f610ffe83835f610d1a565b90505f73ffffffffffffffffffffffffffffffffffffffff168173ffffffffffffffffffffffffffffffffffffffff1614611070575f6040517f73c6ac6e0000000000000000000000000000000000000000000000000000000081526004016110679190611c39565b60405180910390fd5b505050565b61107d610ce1565b73ffffffffffffffffffffffffffffffffffffffff1661109b6108e6565b73ffffffffffffffffffffffffffffffffffffffff16146110fa576110be610ce1565b6040517f118cdaa70000000000000000000000000000000000000000000000000000000081526004016110f19190611c39565b60405180910390fd5b565b5f60065f9054906101000a900473ffffffffffffffffffffffffffffffffffffffff1690508160065f6101000a81548173ffffffffffffffffffffffffffffffffffffffff021916908373ffffffffffffffffffffffffffffffffffffffff1602179055508173ffffffffffffffffffffffffffffffffffffffff168173ffffffffffffffffffffffffffffffffffffffff167f8be0079c531659141344cd1fd0a4f28419497f9722a3daafe3b4186f6b6457e060405160405180910390a35050565b5f73ffffffffffffffffffffffffffffffffffffffff168273ffffffffffffffffffffffffffffffffffffffff160361122f57816040517f5b08ba180000000000000000000000000000000000000000000000000000000081526004016112269190611c39565b60405180910390fd5b8060055f8573ffffffffffffffffffffffffffffffffffffffff1673ffffffffffffffffffffffffffffffffffffffff1681526020019081526020015f205f8473ffffffffffffffffffffffffffffffffffffffff1673ffffffffffffffffffffffffffffffffffffffff1681526020019081526020015f205f6101000a81548160ff0219169083151502179055508173ffffffffffffffffffffffffffffffffffffffff168373ffffffffffffffffffffffffffffffffffffffff167f17307eab39ab6107e8899845ad3d59bd9653f200f220920489ca2b5937696c318360405161131b9190611ad9565b60405180910390a3505050565b5f8373ffffffffffffffffffffffffffffffffffffffff163b11156114d4578273ffffffffffffffffffffffffffffffffffffffff1663150b7a0261136b610ce1565b8685856040518563ffffffff1660e01b815260040161138d9493929190612208565b6020604051808303815f875af19250505080156113c857506040513d601f19601f820116820180604052508101906113c59190612266565b60015b611449573d805f81146113f6576040519150601f19603f3d011682016040523d82523d5f602084013e6113fb565b606091505b505f81510361144157836040517f64a0ae920000000000000000000000000000000000000000000000000000000081526004016114389190611c39565b60405180910390fd5b805181602001fd5b63150b7a0260e01b7bffffffffffffffffffffffffffffffffffffffffffffffffffffffff1916817bffffffffffffffffffffffffffffffffffffffffffffffffffffffff1916146114d257836040517f64a0ae920000000000000000000000000000000000000000000000000000000081526004016114c99190611c39565b60405180910390fd5b505b50505050565b5f60025f8381526020019081526020015f205f9054906101000a900473ffffffffffffffffffffffffffffffffffffffff169050919050565b808061154b57505f73ffffffffffffffffffffffffffffffffffffffff168273ffffffffffffffffffffffffffffffffffffffff1614155b1561167d575f61155a84610c22565b90505f73ffffffffffffffffffffffffffffffffffffffff168373ffffffffffffffffffffffffffffffffffffffff16141580156115c457508273ffffffffffffffffffffffffffffffffffffffff168173ffffffffffffffffffffffffffffffffffffffff1614155b80156115d757506115d58184610aa7565b155b1561161957826040517fa9fbf51f0000000000000000000000000000000000000000000000000000000081526004016116109190611c39565b60405180910390fd5b811561167b57838573ffffffffffffffffffffffffffffffffffffffff168273ffffffffffffffffffffffffffffffffffffffff167f8c5be1e5ebec7d5bd14f71427d1e84f3dd0314c0f7b2291e5b200ac8c7c3b92560405160405180910390a45b505b8360045f8581526020019081526020015f205f6101000a81548173ffffffffffffffffffffffffffffffffffffffff021916908373ffffffffffffffffffffffffffffffffffffffff16021790555050505050565b6116dd83838361196e565b611790575f73ffffffffffffffffffffffffffffffffffffffff168373ffffffffffffffffffffffffffffffffffffffff160361175157806040517f7e2732890000000000000000000000000000000000000000000000000000000081526004016117489190611db8565b60405180910390fd5b81816040517f177e802f000000000000000000000000000000000000000000000000000000008152600401611787929190612291565b60405180910390fd5b505050565b60605f82036117db576040518060400160405280600181526020017f300000000000000000000000000000000000000000000000000000000000000081525090506118e9565b5f8290505f5b5f821461180a5780806117f3906122e5565b915050600a826118039190612359565b91506117e1565b5f8167ffffffffffffffff81111561182557611824611e41565b5b6040519080825280601f01601f1916602001820160405280156118575781602001600182028036833780820191505090505b5090505b5f85146118e25760018261186f9190612389565b9150600a8561187e91906123bc565b603061188a91906123ec565b60f81b8183815181106118a05761189f61241f565b5b60200101907effffffffffffffffffffffffffffffffffffffffffffffffffffffffffffff191690815f1a905350600a856118db9190612359565b945061185b565b8093505050505b919050565b5f805f90505f8390505f5b8151811015611963575f60308383815181106119185761191761241f565b5b602001015160f81c60f81b60f81c60ff166119339190612389565b905080600a85611943919061244c565b61194d91906123ec565b935050808061195b906122e5565b9150506118f9565b508192505050919050565b5f8073ffffffffffffffffffffffffffffffffffffffff168373ffffffffffffffffffffffffffffffffffffffff1614158015611a2557508273ffffffffffffffffffffffffffffffffffffffff168473ffffffffffffffffffffffffffffffffffffffff1614806119e657506119e58484610aa7565b5b80611a2457508273ffffffffffffffffffffffffffffffffffffffff16611a0c83610ca8565b73ffffffffffffffffffffffffffffffffffffffff16145b5b90509392505050565b5f604051905090565b5f80fd5b5f80fd5b5f7fffffffff0000000000000000000000000000000000000000000000000000000082169050919050565b611a7381611a3f565b8114611a7d575f80fd5b50565b5f81359050611a8e81611a6a565b92915050565b5f60208284031215611aa957611aa8611a37565b5b5f611ab684828501611a80565b91505092915050565b5f8115159050919050565b611ad381611abf565b82525050565b5f602082019050611aec5f830184611aca565b92915050565b5f81519050919050565b5f82825260208201905092915050565b5f5b83811015611b29578082015181840152602081019050611b0e565b5f8484015250505050565b5f601f19601f8301169050919050565b5f611b4e82611af2565b611b588185611afc565b9350611b68818560208601611b0c565b611b7181611b34565b840191505092915050565b5f6020820190508181035f830152611b948184611b44565b905092915050565b5f819050919050565b611bae81611b9c565b8114611bb8575f80fd5b50565b5f81359050611bc981611ba5565b92915050565b5f60208284031215611be457611be3611a37565b5b5f611bf184828501611bbb565b91505092915050565b5f73ffffffffffffffffffffffffffffffffffffffff82169050919050565b5f611c2382611bfa565b9050919050565b611c3381611c19565b82525050565b5f602082019050611c4c5f830184611c2a565b92915050565b611c5b81611c19565b8114611c65575f80fd5b50565b5f81359050611c7681611c52565b92915050565b5f8060408385031215611c9257611c91611a37565b5b5f611c9f85828601611c68565b9250506020611cb085828601611bbb565b9150509250929050565b5f805f60608486031215611cd157611cd0611a37565b5b5f611cde86828701611c68565b9350506020611cef86828701611c68565b9250506040611d0086828701611bbb565b9150509250925092565b5f60ff82169050919050565b611d1f81611d0a565b8114611d29575f80fd5b50565b5f81359050611d3a81611d16565b92915050565b5f8060408385031215611d5657611d55611a37565b5b5f611d6385828601611d2c565b9250506020611d7485828601611d2c565b9150509250929050565b5f60208284031215611d9357611d92611a37565b5b5f611da084828501611c68565b91505092915050565b611db281611b9c565b82525050565b5f602082019050611dcb5f830184611da9565b92915050565b611dda81611abf565b8114611de4575f80fd5b50565b5f81359050611df581611dd1565b92915050565b5f8060408385031215611e1157611e10611a37565b5b5f611e1e85828601611c68565b9250506020611e2f85828601611de7565b9150509250929050565b5f80fd5b5f80fd5b7f4e487b71000000000000000000000000000000000000000000000000000000005f52604160045260245ffd5b611e7782611b34565b810181811067ffffffffffffffff82111715611e9657611e95611e41565b5b80604052505050565b5f611ea8611a2e565b9050611eb48282611e6e565b919050565b5f67ffffffffffffffff821115611ed357611ed2611e41565b5b611edc82611b34565b9050602081019050919050565b828183375f83830152505050565b5f611f09611f0484611eb9565b611e9f565b905082815260208101848484011115611f2557611f24611e3d565b5b611f30848285611ee9565b509392505050565b5f82601f830112611f4c57611f4b611e39565b5b8135611f5c848260208601611ef7565b91505092915050565b5f805f8060808587031215611f7d57611f7c611a37565b5b5f611f8a87828801611c68565b9450506020611f9b87828801611c68565b9350506040611fac87828801611bbb565b925050606085013567ffffffffffffffff811115611fcd57611fcc611a3b565b5b611fd987828801611f38565b91505092959194509250565b5f8060408385031215611ffb57611ffa611a37565b5b5f61200885828601611c68565b925050602061201985828601611c68565b9150509250929050565b7f4e487b71000000000000000000000000000000000000000000000000000000005f52602260045260245ffd5b5f600282049050600182168061206757607f821691505b60208210810361207a57612079612023565b5b50919050565b5f6060820190506120935f830186611c2a565b6120a06020830185611da9565b6120ad6040830184611c2a565b949350505050565b7f4552433732314d657461646174613a2055524920717565727920666f72206e6f5f8201527f6e6578697374656e7420746f6b656e0000000000000000000000000000000000602082015250565b5f61210f602f83611afc565b915061211a826120b5565b604082019050919050565b5f6020820190508181035f83015261213c81612103565b9050919050565b5f81905092915050565b5f61215782611af2565b6121618185612143565b9350612171818560208601611b0c565b80840191505092915050565b5f612188828461214d565b915081905092915050565b5f61219e828561214d565b91506121aa828461214d565b91508190509392505050565b5f81519050919050565b5f82825260208201905092915050565b5f6121da826121b6565b6121e481856121c0565b93506121f4818560208601611b0c565b6121fd81611b34565b840191505092915050565b5f60808201905061221b5f830187611c2a565b6122286020830186611c2a565b6122356040830185611da9565b818103606083015261224781846121d0565b905095945050505050565b5f8151905061226081611a6a565b92915050565b5f6020828403121561227b5761227a611a37565b5b5f61228884828501612252565b91505092915050565b5f6040820190506122a45f830185611c2a565b6122b16020830184611da9565b9392505050565b7f4e487b71000000000000000000000000000000000000000000000000000000005f52601160045260245ffd5b5f6122ef82611b9c565b91507fffffffffffffffffffffffffffffffffffffffffffffffffffffffffffffffff8203612321576123206122b8565b5b600182019050919050565b7f4e487b71000000000000000000000000000000000000000000000000000000005f52601260045260245ffd5b5f61236382611b9c565b915061236e83611b9c565b92508261237e5761237d61232c565b5b828204905092915050565b5f61239382611b9c565b915061239e83611b9c565b92508282039050818111156123b6576123b56122b8565b5b92915050565b5f6123c682611b9c565b91506123d183611b9c565b9250826123e1576123e061232c565b5b828206905092915050565b5f6123f682611b9c565b915061240183611b9c565b9250828201905080821115612419576124186122b8565b5b92915050565b7f4e487b71000000000000000000000000000000000000000000000000000000005f52603260045260245ffd5b5f61245682611b9c565b915061246183611b9c565b925082820261246f81611b9c565b91508282048414831517612486576124856122b8565b5b509291505056fe68747470733a2f2f697066732e696f2f697066732f516d617a314e694672666958533942636b484e79537a646d6b707135475469725532526f547434536a693868646da26469706673582212204d9639a8ecf347a4905e0a0a71b1d6d95232b3785b408eb7b01e34756c825c7864736f6c63430008140033",
  "linkReferences": {},
  "deployedLinkReferences": {}
}