{
  "_format": "hh-sol-artifact-1",
  "contractName": "TownV3",
  "sourceName": "contracts/V3/TownV3.sol",
  "abi": [
    {
      "inputs": [
        {
          "internalType": "address",
          "name": "BlockchainsKingdomToken",
          "type": "address"
        },
        {
          "internalType": "address",
          "name": "landsContract",
          "type": "address"
        }
      ],
      "stateMutability": "nonpayable",
      "type": "constructor"
    },
    {
      "inputs": [],
      "name": "AlreadyFinished",
      "type": "error"
    },
    {
      "inputs": [],
      "name": "BarracksLevelLowerThanWarrior",
      "type": "error"
    },
    {
      "inputs": [],
      "name": "CallerIsNotOwner",
      "type": "error"
    },
    {
      "inputs": [],
      "name": "ClaimBeforeAction",
      "type": "error"
    },
    {
      "inputs": [],
      "name": "InsufficientArmy",
      "type": "error"
    },
    {
      "inputs": [],
      "name": "InsufficientBalance",
      "type": "error"
    },
    {
      "inputs": [],
      "name": "InsufficientGoods",
      "type": "error"
    },
    {
      "inputs": [],
      "name": "InvalidItem",
      "type": "error"
    },
    {
      "inputs": [],
      "name": "InvalidLand",
      "type": "error"
    },
    {
      "inputs": [],
      "name": "MaxCapacity",
      "type": "error"
    },
    {
      "inputs": [
        {
          "internalType": "address",
          "name": "owner",
          "type": "address"
        }
      ],
      "name": "OwnableInvalidOwner",
      "type": "error"
    },
    {
      "inputs": [
        {
          "internalType": "address",
          "name": "account",
          "type": "address"
        }
      ],
      "name": "OwnableUnauthorizedAccount",
      "type": "error"
    },
    {
      "inputs": [],
      "name": "TownhallUpgradeRequired",
      "type": "error"
    },
    {
      "inputs": [],
      "name": "UnAuthorizedToken",
      "type": "error"
    },
    {
      "inputs": [],
      "name": "WorkerIsBusy",
      "type": "error"
    },
    {
      "anonymous": false,
      "inputs": [
        {
          "indexed": true,
          "internalType": "uint256",
          "name": "attackerLandId",
          "type": "uint256"
        },
        {
          "indexed": true,
          "internalType": "uint256",
          "name": "defenderLandId",
          "type": "uint256"
        },
        {
          "indexed": false,
          "internalType": "bool",
          "name": "success",
          "type": "bool"
        },
        {
          "indexed": false,
          "internalType": "uint256[2]",
          "name": "lootAmounts",
          "type": "uint256[2]"
        }
      ],
      "name": "Attack",
      "type": "event"
    },
    {
      "anonymous": false,
      "inputs": [
        {
          "indexed": false,
          "internalType": "uint256",
          "name": "buildingTypeIndex",
          "type": "uint256"
        },
        {
          "indexed": true,
          "internalType": "uint256",
          "name": "buildingId",
          "type": "uint256"
        },
        {
          "indexed": true,
          "internalType": "uint256",
          "name": "landTokenId",
          "type": "uint256"
        }
      ],
      "name": "Build",
      "type": "event"
    },
    {
      "anonymous": false,
      "inputs": [
        {
          "indexed": true,
          "internalType": "address",
          "name": "accountAddress",
          "type": "address"
        },
        {
          "indexed": false,
          "internalType": "uint256",
          "name": "tokenAmount",
          "type": "uint256"
        }
      ],
      "name": "Deposit",
      "type": "event"
    },
    {
      "anonymous": false,
      "inputs": [
        {
          "indexed": false,
          "internalType": "uint256[2]",
          "name": "amounts",
          "type": "uint256[2]"
        },
        {
          "indexed": true,
          "internalType": "uint256",
          "name": "landId",
          "type": "uint256"
        }
      ],
      "name": "GoodsConsumption",
      "type": "event"
    },
    {
      "anonymous": false,
      "inputs": [
        {
          "indexed": false,
          "internalType": "uint256[2]",
          "name": "amounts",
          "type": "uint256[2]"
        },
        {
          "indexed": true,
          "internalType": "uint256",
          "name": "landId",
          "type": "uint256"
        }
      ],
      "name": "GoodsProduction",
      "type": "event"
    },
    {
      "anonymous": false,
      "inputs": [
        {
          "indexed": true,
          "internalType": "address",
          "name": "previousOwner",
          "type": "address"
        },
        {
          "indexed": true,
          "internalType": "address",
          "name": "newOwner",
          "type": "address"
        }
      ],
      "name": "OwnershipTransferred",
      "type": "event"
    },
    {
      "anonymous": false,
      "inputs": [
        {
          "indexed": false,
          "internalType": "uint256[]",
          "name": "typesAmount",
          "type": "uint256[]"
        },
        {
          "indexed": true,
          "internalType": "uint256",
          "name": "landId",
          "type": "uint256"
        }
      ],
      "name": "RecruitWarrior",
      "type": "event"
    },
    {
      "anonymous": false,
      "inputs": [
        {
          "indexed": true,
          "internalType": "uint256",
          "name": "buildingId",
          "type": "uint256"
        },
        {
          "indexed": false,
          "internalType": "uint256",
          "name": "level",
          "type": "uint256"
        }
      ],
      "name": "Upgrade",
      "type": "event"
    },
    {
      "anonymous": false,
      "inputs": [
        {
          "indexed": true,
          "internalType": "uint256",
          "name": "landTokenId",
          "type": "uint256"
        },
        {
          "indexed": false,
          "internalType": "uint256",
          "name": "currentLevel",
          "type": "uint256"
        }
      ],
      "name": "UpgradeBarracks",
      "type": "event"
    },
    {
      "anonymous": false,
      "inputs": [
        {
          "indexed": true,
          "internalType": "uint256",
          "name": "landTokenId",
          "type": "uint256"
        },
        {
          "indexed": false,
          "internalType": "uint256",
          "name": "currentLevel",
          "type": "uint256"
        }
      ],
      "name": "UpgradeTownhall",
      "type": "event"
    },
    {
      "anonymous": false,
      "inputs": [
        {
          "indexed": true,
          "internalType": "uint256",
          "name": "landTokenId",
          "type": "uint256"
        },
        {
          "indexed": false,
          "internalType": "uint256",
          "name": "currentLevel",
          "type": "uint256"
        }
      ],
      "name": "UpgradeTrainingCamp",
      "type": "event"
    },
    {
      "anonymous": false,
      "inputs": [
        {
          "indexed": true,
          "internalType": "uint256",
          "name": "landTokenId",
          "type": "uint256"
        },
        {
          "indexed": false,
          "internalType": "uint256",
          "name": "currentLevel",
          "type": "uint256"
        }
      ],
      "name": "UpgradeWalls",
      "type": "event"
    },
    {
      "anonymous": false,
      "inputs": [
        {
          "indexed": true,
          "internalType": "uint256",
          "name": "landTokenId",
          "type": "uint256"
        },
        {
          "indexed": false,
          "internalType": "uint256",
          "name": "currentLevel",
          "type": "uint256"
        }
      ],
      "name": "UpgradeWarehouse",
      "type": "event"
    },
    {
      "anonymous": false,
      "inputs": [
        {
          "indexed": false,
          "internalType": "uint256[]",
          "name": "typesAmount",
          "type": "uint256[]"
        },
        {
          "indexed": true,
          "internalType": "uint256",
          "name": "landId",
          "type": "uint256"
        }
      ],
      "name": "WarriorLosses",
      "type": "event"
    },
    {
      "anonymous": false,
      "inputs": [
        {
          "indexed": true,
          "internalType": "address",
          "name": "accountAddress",
          "type": "address"
        },
        {
          "indexed": false,
          "internalType": "uint256",
          "name": "tokenAmount",
          "type": "uint256"
        }
      ],
      "name": "Withdraw",
      "type": "event"
    },
    {
      "inputs": [
        {
          "internalType": "uint256",
          "name": "landTokenId",
          "type": "uint256"
        }
      ],
      "name": "buildBarracks",
      "outputs": [],
      "stateMutability": "nonpayable",
      "type": "function"
    },
    {
      "inputs": [
        {
          "internalType": "uint256",
          "name": "landTokenId",
          "type": "uint256"
        },
        {
          "internalType": "uint8",
          "name": "buildingIndex",
          "type": "uint8"
        }
      ],
      "name": "buildResourceBuilding",
      "outputs": [],
      "stateMutability": "nonpayable",
      "type": "function"
    },
    {
      "inputs": [
        {
          "internalType": "uint256",
          "name": "landTokenId",
          "type": "uint256"
        }
      ],
      "name": "buildTownhall",
      "outputs": [],
      "stateMutability": "nonpayable",
      "type": "function"
    },
    {
      "inputs": [
        {
          "internalType": "uint256",
          "name": "landTokenId",
          "type": "uint256"
        }
      ],
      "name": "buildTrainingCamp",
      "outputs": [],
      "stateMutability": "nonpayable",
      "type": "function"
    },
    {
      "inputs": [
        {
          "internalType": "uint256",
          "name": "landTokenId",
          "type": "uint256"
        }
      ],
      "name": "buildWalls",
      "outputs": [],
      "stateMutability": "nonpayable",
      "type": "function"
    },
    {
      "inputs": [
        {
          "internalType": "uint256",
          "name": "landTokenId",
          "type": "uint256"
        },
        {
          "internalType": "uint256",
          "name": "goodIndex",
          "type": "uint256"
        },
        {
          "internalType": "uint256",
          "name": "amount",
          "type": "uint256"
        }
      ],
      "name": "buyGood",
      "outputs": [],
      "stateMutability": "nonpayable",
      "type": "function"
    },
    {
      "inputs": [
        {
          "internalType": "uint256",
          "name": "landTokenId",
          "type": "uint256"
        }
      ],
      "name": "claimAll",
      "outputs": [],
      "stateMutability": "nonpayable",
      "type": "function"
    },
    {
      "inputs": [
        {
          "internalType": "uint256",
          "name": "buildingTokenId",
          "type": "uint256"
        }
      ],
      "name": "claimRevenue",
      "outputs": [],
      "stateMutability": "nonpayable",
      "type": "function"
    },
    {
      "inputs": [
        {
          "internalType": "uint256",
          "name": "amount",
          "type": "uint256"
        }
      ],
      "name": "deposit",
      "outputs": [],
      "stateMutability": "nonpayable",
      "type": "function"
    },
    {
      "inputs": [
        {
          "internalType": "uint256[]",
          "name": "warriorAmounts",
          "type": "uint256[]"
        },
        {
          "internalType": "uint256",
          "name": "from",
          "type": "uint256"
        },
        {
          "internalType": "uint256",
          "name": "target",
          "type": "uint256"
        }
      ],
      "name": "dispatchArmy",
      "outputs": [],
      "stateMutability": "nonpayable",
      "type": "function"
    },
    {
      "inputs": [
        {
          "internalType": "uint256",
          "name": "landTokenId",
          "type": "uint256"
        }
      ],
      "name": "finishNow",
      "outputs": [],
      "stateMutability": "nonpayable",
      "type": "function"
    },
    {
      "inputs": [
        {
          "internalType": "uint256",
          "name": "landTokenId",
          "type": "uint256"
        }
      ],
      "name": "getArmy",
      "outputs": [
        {
          "internalType": "uint256[6]",
          "name": "amounts",
          "type": "uint256[6]"
        }
      ],
      "stateMutability": "view",
      "type": "function"
    },
    {
      "inputs": [
        {
          "internalType": "uint256",
          "name": "landTokenId",
          "type": "uint256"
        }
      ],
      "name": "getArmyInfo",
      "outputs": [
        {
          "internalType": "uint256",
          "name": "attPower",
          "type": "uint256"
        },
        {
          "internalType": "uint256",
          "name": "defPower",
          "type": "uint256"
        },
        {
          "internalType": "uint256",
          "name": "hp",
          "type": "uint256"
        },
        {
          "internalType": "uint256",
          "name": "totalArmy",
          "type": "uint256"
        }
      ],
      "stateMutability": "view",
      "type": "function"
    },
    {
      "inputs": [],
      "name": "getBuildings",
      "outputs": [
        {
          "components": [
            {
              "internalType": "uint256",
              "name": "requiredFood",
              "type": "uint256"
            },
            {
              "internalType": "uint256",
              "name": "requiredGold",
              "type": "uint256"
            },
            {
              "internalType": "uint256",
              "name": "revTokenIndex",
              "type": "uint256"
            },
            {
              "internalType": "string",
              "name": "buildingName",
              "type": "string"
            }
          ],
          "internalType": "struct TownV3.ResourceBuildingInfo[]",
          "name": "",
          "type": "tuple[]"
        }
      ],
      "stateMutability": "view",
      "type": "function"
    },
    {
      "inputs": [
        {
          "internalType": "uint256",
          "name": "buildingTokenId",
          "type": "uint256"
        }
      ],
      "name": "getCurrentRevenue",
      "outputs": [
        {
          "internalType": "uint256",
          "name": "",
          "type": "uint256"
        }
      ],
      "stateMutability": "view",
      "type": "function"
    },
    {
      "inputs": [
        {
          "internalType": "uint256",
          "name": "landTokenId",
          "type": "uint256"
        }
      ],
      "name": "getDispatchedArmies",
      "outputs": [
        {
          "components": [
            {
              "internalType": "uint256[]",
              "name": "amounts",
              "type": "uint256[]"
            },
            {
              "internalType": "uint256",
              "name": "remainedTime",
              "type": "uint256"
            },
            {
              "internalType": "uint256",
              "name": "target",
              "type": "uint256"
            },
            {
              "internalType": "uint256[2]",
              "name": "lootedAmounts",
              "type": "uint256[2]"
            },
            {
              "internalType": "bool",
              "name": "isReturning",
              "type": "bool"
            },
            {
              "internalType": "uint256",
              "name": "remainedArmybyPercent",
              "type": "uint256"
            }
          ],
          "internalType": "struct Barracks.DispatchedArmy[]",
          "name": "",
          "type": "tuple[]"
        }
      ],
      "stateMutability": "view",
      "type": "function"
    },
    {
      "inputs": [
        {
          "internalType": "uint256",
          "name": "landTokenId",
          "type": "uint256"
        }
      ],
      "name": "getGoodsBal",
      "outputs": [
        {
          "internalType": "uint256[2]",
          "name": "",
          "type": "uint256[2]"
        }
      ],
      "stateMutability": "view",
      "type": "function"
    },
    {
      "inputs": [],
      "name": "getGoodsPrice",
      "outputs": [
        {
          "internalType": "uint256[2]",
          "name": "",
          "type": "uint256[2]"
        }
      ],
      "stateMutability": "view",
      "type": "function"
    },
    {
      "inputs": [
        {
          "internalType": "uint256",
          "name": "landTokenId",
          "type": "uint256"
        }
      ],
      "name": "getLandIdData",
      "outputs": [
        {
          "components": [
            {
              "internalType": "uint256[2]",
              "name": "goodsBalance",
              "type": "uint256[2]"
            },
            {
              "internalType": "uint256",
              "name": "latestBuildTimeStamp",
              "type": "uint256"
            },
            {
              "internalType": "uint256[]",
              "name": "buildedResourceBuildings",
              "type": "uint256[]"
            },
            {
              "internalType": "uint256",
              "name": "barracksLevel",
              "type": "uint256"
            },
            {
              "internalType": "uint256",
              "name": "wallLevel",
              "type": "uint256"
            },
            {
              "internalType": "uint256",
              "name": "townhallLevel",
              "type": "uint256"
            },
            {
              "internalType": "uint256",
              "name": "trainingCampLevel",
              "type": "uint256"
            }
          ],
          "internalType": "struct TownV3.LandIdData",
          "name": "",
          "type": "tuple"
        }
      ],
      "stateMutability": "view",
      "type": "function"
    },
    {
      "inputs": [
        {
          "internalType": "uint256",
          "name": "landTokenId",
          "type": "uint256"
        }
      ],
      "name": "getRemainedBuildTimestamp",
      "outputs": [
        {
          "internalType": "uint256",
          "name": "remainedTimestamp",
          "type": "uint256"
        }
      ],
      "stateMutability": "view",
      "type": "function"
    },
    {
      "inputs": [
        {
          "internalType": "uint256",
          "name": "landTokenId",
          "type": "uint256"
        },
        {
          "internalType": "uint256",
          "name": "dispatchIndex",
          "type": "uint256"
        }
      ],
      "name": "getRemainedDispatchTimestamp",
      "outputs": [
        {
          "internalType": "uint256",
          "name": "remainedTimestamp",
          "type": "uint256"
        }
      ],
      "stateMutability": "view",
      "type": "function"
    },
    {
      "inputs": [
        {
          "internalType": "uint256[2]",
          "name": "baseAmounts",
          "type": "uint256[2]"
        },
        {
          "internalType": "uint256",
          "name": "currentLevel",
          "type": "uint256"
        }
      ],
      "name": "getRequiredGoods",
      "outputs": [
        {
          "internalType": "uint256[2]",
          "name": "",
          "type": "uint256[2]"
        }
      ],
      "stateMutability": "pure",
      "type": "function"
    },
    {
      "inputs": [
        {
          "internalType": "uint256",
          "name": "tokenId",
          "type": "uint256"
        }
      ],
      "name": "getStatus",
      "outputs": [
        {
          "components": [
            {
              "internalType": "uint256",
              "name": "level",
              "type": "uint256"
            },
            {
              "internalType": "uint256",
              "name": "latestActionTimestamp",
              "type": "uint256"
            },
            {
              "internalType": "uint256",
              "name": "attachedLand",
              "type": "uint256"
            },
            {
              "internalType": "uint8",
              "name": "buildingTypeIndex",
              "type": "uint8"
            }
          ],
          "internalType": "struct TownV3.ResourceBuildingStatus",
          "name": "",
          "type": "tuple"
        }
      ],
      "stateMutability": "view",
      "type": "function"
    },
    {
      "inputs": [],
      "name": "getWarriorTypes",
      "outputs": [
        {
          "components": [
            {
              "internalType": "uint8",
              "name": "attackPower",
              "type": "uint8"
            },
            {
              "internalType": "uint8",
              "name": "defPower",
              "type": "uint8"
            },
            {
              "internalType": "uint8",
              "name": "hp",
              "type": "uint8"
            },
            {
              "internalType": "string",
              "name": "name",
              "type": "string"
            },
            {
              "internalType": "uint256",
              "name": "price",
              "type": "uint256"
            }
          ],
          "internalType": "struct Barracks.WarriorInfo[]",
          "name": "",
          "type": "tuple[]"
        }
      ],
      "stateMutability": "view",
      "type": "function"
    },
    {
      "inputs": [
        {
          "internalType": "uint256",
          "name": "landTokenId",
          "type": "uint256"
        },
        {
          "internalType": "uint256",
          "name": "dispatchedArmyIndex",
          "type": "uint256"
        }
      ],
      "name": "joinDispatchedArmy",
      "outputs": [],
      "stateMutability": "nonpayable",
      "type": "function"
    },
    {
      "inputs": [],
      "name": "owner",
      "outputs": [
        {
          "internalType": "address",
          "name": "",
          "type": "address"
        }
      ],
      "stateMutability": "view",
      "type": "function"
    },
    {
      "inputs": [
        {
          "internalType": "uint256",
          "name": "landTokenId",
          "type": "uint256"
        },
        {
          "internalType": "uint256",
          "name": "typeIndex",
          "type": "uint256"
        },
        {
          "internalType": "uint256",
          "name": "amount",
          "type": "uint256"
        }
      ],
      "name": "recruit",
      "outputs": [],
      "stateMutability": "nonpayable",
      "type": "function"
    },
    {
      "inputs": [],
      "name": "renounceOwnership",
      "outputs": [],
      "stateMutability": "nonpayable",
      "type": "function"
    },
    {
      "inputs": [
        {
          "internalType": "uint256",
          "name": "landTokenId",
          "type": "uint256"
        },
        {
          "internalType": "uint256",
          "name": "goodIndex",
          "type": "uint256"
        },
        {
          "internalType": "uint256",
          "name": "amount",
          "type": "uint256"
        }
      ],
      "name": "sellGood",
      "outputs": [],
      "stateMutability": "nonpayable",
      "type": "function"
    },
    {
      "inputs": [
        {
          "internalType": "uint256",
          "name": "landTokenId",
          "type": "uint256"
        },
        {
          "internalType": "uint256",
          "name": "fromIndex",
          "type": "uint256"
        },
        {
          "internalType": "uint256",
          "name": "amountIn",
          "type": "uint256"
        }
      ],
      "name": "swapGoods",
      "outputs": [],
      "stateMutability": "nonpayable",
      "type": "function"
    },
    {
      "inputs": [
        {
          "internalType": "uint256",
          "name": "goodIndex",
          "type": "uint256"
        },
        {
          "internalType": "uint256",
          "name": "amount",
          "type": "uint256"
        },
        {
          "internalType": "uint256",
          "name": "fromId",
          "type": "uint256"
        },
        {
          "internalType": "uint256",
          "name": "toId",
          "type": "uint256"
        }
      ],
      "name": "transferGoods",
      "outputs": [],
      "stateMutability": "nonpayable",
      "type": "function"
    },
    {
      "inputs": [
        {
          "internalType": "address",
          "name": "newOwner",
          "type": "address"
        }
      ],
      "name": "transferOwnership",
      "outputs": [],
      "stateMutability": "nonpayable",
      "type": "function"
    },
    {
      "inputs": [
        {
          "internalType": "uint256",
          "name": "buildingTokenId",
          "type": "uint256"
        },
        {
          "internalType": "uint256",
          "name": "landTokenId",
          "type": "uint256"
        }
      ],
      "name": "upgradeResourceBuilding",
      "outputs": [],
      "stateMutability": "nonpayable",
      "type": "function"
    },
    {
      "inputs": [
        {
          "internalType": "uint256",
          "name": "landTokenId",
          "type": "uint256"
        },
        {
          "internalType": "uint256",
          "name": "dispatchedArmyIndex",
          "type": "uint256"
        }
      ],
      "name": "war",
      "outputs": [
        {
          "internalType": "bool",
          "name": "",
          "type": "bool"
        },
        {
          "internalType": "uint256",
          "name": "",
          "type": "uint256"
        },
        {
          "internalType": "uint256",
          "name": "",
          "type": "uint256"
        }
      ],
      "stateMutability": "nonpayable",
      "type": "function"
    },
    {
      "inputs": [
        {
          "internalType": "uint256",
          "name": "amount",
          "type": "uint256"
        }
      ],
      "name": "withdraw",
      "outputs": [],
      "stateMutability": "nonpayable",
      "type": "function"
    }
  ],
  "bytecode": "0x60c0604052680821ab0d44149800006080908152680ad78ebc5ac620000060a0526200003090600790600262000a7c565b50604080518082019091526802b5e3af16b1880000815268097c9ce4cf6d5c000060208201526200006690600990600262000a7c565b5060408051808201909152681043561a882930000080825260208201526200009390600b90600262000a7c565b5060408051808201909152680ad78ebc5ac620000081526802b5e3af16b18800006020820152620000c990600d90600262000a7c565b5060408051808201909152680821ab0d441498000081526806c6b935b8bbd400006020820152620000ff90600f90600262000a7c565b50600160115534801562000111575f80fd5b506040516200566b3803806200566b833981016040819052620001349162000afc565b33806200015a57604051631e4fbdf760e01b81525f600482015260240160405180910390fd5b620001658162000a2d565b506040805160a081018252602d8152601e602080830191825260468385019081528451808601909552600785526626b0b1b2b6b0b760c91b9185019190915260608301938452676124fee993bc00006080840152600480546001810182555f91909152835160039091025f805160206200562b833981519152810180549451935160ff908116620100000262ff0000199582166101000261ffff19909716949091169390931794909417929092161782559251919290915f80516020620055cb833981519152909101906200023b908262000bd2565b506080918201516002909101556040805160a08101825260148152603c602080830191825260468385019081528451808601909552600885526729b832b0b936b0b760c11b9185019190915260608301938452676f05b59d3b20000094830194909452600480546001810182555f91909152825160039091025f805160206200562b833981519152810180549351965160ff908116620100000262ff0000199882166101000261ffff1990961694909116939093179390931795909516178155915190925f80516020620055cb83398151915201906200031c908262000bd2565b506080918201516002909101556040805160a081018252603c815260466020808301918252605a8385019081528451808601909552600985526829bbb7b93239b6b0b760b91b918501919091526060830193845267d02ab486cedc000094830194909452600480546001810182555f91909152825160039091025f805160206200562b833981519152810180549351965160ff908116620100000262ff0000199882166101000261ffff1990961694909116939093179390931795909516178155915190925f80516020620055cb8339815191520190620003fe908262000bd2565b506080918201516002909101556040805160a0810182526032808252602080830191825260468385019081528451808601909552600685526520b931b432b960d11b9185019190915260608301938452678ac7230489e8000094830194909452600480546001810182555f91909152825160039091025f805160206200562b833981519152810180549351965160ff908116620100000262ff0000199882166101000261ffff1990961694909116939093179390931795909516178155915190925f80516020620055cb8339815191520190620004dc908262000bd2565b506080918201516002909101556040805160a081018252602d815260506020808301918252606e8385019081528451808601909552600985526829b434b2b63236b0b760b91b91850191909152606083019384526801314fb3706298000094830194909452600480546001810182555f91909152825160039091025f805160206200562b833981519152810180549351965160ff908116620100000262ff0000199882166101000261ffff1990961694909116939093179390931795909516178155915190925f80516020620055cb8339815191520190620005bf908262000bd2565b506080918201516002909101556040805160a081018252605a8152603c602080830191825260648385019081528451808601909552600685526512db9a59da1d60d21b91850191909152606083019384526801a055690d9db8000094830194909452600480546001810182555f91909152825160039091025f805160206200562b833981519152810180549351965160ff908116620100000262ff0000199882166101000261ffff1990961694909116939093179390931795909516178155915190925f80516020620055cb83398151915201906200069f908262000bd2565b50608091820151600290910155600680546001600160a01b038086166001600160a01b0319928316179092556005805492851692909116919091179055604080519182018152680410d586a20a4c000082526806c6b935b8bbd4000060208084019182525f84840181815284518086019095526004808652634661726d60e01b93860193909352606086019485526014805460018101825592528551919092025f805160206200564b833981519152810191825592515f80516020620055eb83398151915284015590515f805160206200560b83398151915283015591515f80516020620055ab833981519152909101906200079c908262000bd2565b5050604080516080810182526806c6b935b8bbd400008152680410d586a20a4c00006020808301918252600183850181815285518087019096526009865268476f6c64206d696e6560b81b92860192909252606084019485526014805491820181555f52835160049091025f805160206200564b833981519152810191825592515f80516020620055eb83398151915284015590515f805160206200560b83398151915283015592519193505f80516020620055ab833981519152019062000865908262000bd2565b5050505f5b6002811015620009ad5762018aed5f52601560205269021e19e0c9bab24000007f7a85be449187b00e85a5f6d28f53cde5b04c93f5fdf2012ac18b725f72aab68c8260028110620008bf57620008bf62000c9a565b015f828254620008d0919062000cc2565b909155505062019a915f52601560205269021e19e0c9bab24000007f5dfc6f94a55292918c622e0b8f0bb0ef60e78934a1839f44a657513492f086c0826002811062000920576200092062000c9a565b015f82825462000931919062000cc2565b90915550506201aa355f52601560205269021e19e0c9bab24000007ff5103d35956a4ce8cd4f5ddf4bf2df53bce2746fd5ea7d8ffc86ae78ab164f89826002811062000981576200098162000c9a565b015f82825462000992919062000cc2565b90915550819050620009a48162000cde565b9150506200086a565b505060156020525060017f7a85be449187b00e85a5f6d28f53cde5b04c93f5fdf2012ac18b725f72aab6908190557f5dfc6f94a55292918c622e0b8f0bb0ef60e78934a1839f44a657513492f086c48190556201aa355f527ff5103d35956a4ce8cd4f5ddf4bf2df53bce2746fd5ea7d8ffc86ae78ab164f8d5562000cf9565b5f80546001600160a01b038381166001600160a01b0319831681178455604051919092169283917f8be0079c531659141344cd1fd0a4f28419497f9722a3daafe3b4186f6b6457e09190a35050565b826002810192821562000ab8579160200282015b8281111562000ab857825182906001600160481b031690559160200191906001019062000a90565b5062000ac692915062000aca565b5090565b5b8082111562000ac6575f815560010162000acb565b80516001600160a01b038116811462000af7575f80fd5b919050565b5f806040838503121562000b0e575f80fd5b62000b198362000ae0565b915062000b296020840162000ae0565b90509250929050565b634e487b7160e01b5f52604160045260245ffd5b600181811c9082168062000b5b57607f821691505b60208210810362000b7a57634e487b7160e01b5f52602260045260245ffd5b50919050565b601f82111562000bcd575f81815260208120601f850160051c8101602086101562000ba85750805b601f850160051c820191505b8181101562000bc95782815560010162000bb4565b5050505b505050565b81516001600160401b0381111562000bee5762000bee62000b32565b62000c068162000bff845462000b46565b8462000b80565b602080601f83116001811462000c3c575f841562000c245750858301515b5f19600386901b1c1916600185901b17855562000bc9565b5f85815260208120601f198616915b8281101562000c6c5788860151825594840194600190910190840162000c4b565b508582101562000c8a57878501515f19600388901b60f8161c191681555b5050505050600190811b01905550565b634e487b7160e01b5f52603260045260245ffd5b634e487b7160e01b5f52601160045260245ffd5b8082018082111562000cd85762000cd862000cae565b92915050565b5f6001820162000cf25762000cf262000cae565b5060010190565b6148a48062000d075f395ff3fe608060405234801561000f575f80fd5b5060043610610208575f3560e01c8063798d70671161011f578063b37d5c1d116100a9578063d9cf6a2611610079578063d9cf6a26146104e8578063f2fde38b146104fd578063f32bcb8814610510578063f46e5bec14610523578063fb6e9a4114610543575f80fd5b8063b37d5c1d1461047c578063b5f52ebf1461048f578063b6b55f25146104c2578063b6be72a6146104d5575f80fd5b8063927cc1ce116100ef578063927cc1ce146103f1578063957d99e514610421578063a58343da14610436578063aa7e7fa714610456578063b0db1a6c14610469575f80fd5b8063798d70671461039e578063826ac17d146103b15780638da5cb5b146103c45780638e247962146103de575f80fd5b80633022b71a116101a0578063511f6b0111610170578063511f6b01146103145780635c622a0e146103275780636930fd2a14610370578063715018a614610383578063736d2a021461038b575f80fd5b80633022b71a146102bb5780633b33ab38146102db578063426b3b89146102ee578063462ceb0114610301575f80fd5b806317486270116101db578063174862701461025a5780631a386fcb146102805780631cb536ed146102955780632e1a7d4d146102a8575f80fd5b8063015b5e631461020c578063052924f9146102215780630d9bfc3d146102345780630ff1848d14610247575b5f80fd5b61021f61021a366004614017565b610556565b005b61021f61022f36600461402e565b61072c565b61021f610242366004614061565b610bb9565b61021f610255366004614061565b610e10565b61026d610268366004614017565b610f95565b6040519081526020015b60405180910390f35b610288610fde565b604051610277919061408a565b61021f6102a3366004614017565b6110eb565b61021f6102b6366004614017565b61138a565b6102ce6102c9366004614017565b61144c565b6040516102779190614115565b61021f6102e9366004614017565b61152a565b61021f6102fc366004614061565b6116f0565b61026d61030f366004614182565b61181f565b610288610322366004614017565b61187b565b61033a610335366004614017565b6118c1565b604051610277919081518152602080830151908201526040808301519082015260609182015160ff169181019190915260800190565b61021f61037e366004614017565b611932565b61021f611b88565b61021f610399366004614182565b611b9b565b61021f6103ac366004614017565b611e53565b61021f6103bf3660046141e7565b612006565b5f546040516001600160a01b039091168152602001610277565b61021f6103ec366004614182565b612170565b6104046103ff366004614182565b612443565b604080519315158452602084019290925290820152606001610277565b610429612676565b60405161027791906142e4565b610449610444366004614017565b61279a565b6040516102779190614382565b61026d610464366004614017565b6127f6565b61021f610477366004614061565b612899565b61021f61048a366004614017565b612b29565b6104a261049d366004614017565b612cdc565b604080519485526020850193909352918301526060820152608001610277565b61021f6104d0366004614017565b612e3f565b6102886104e33660046143a9565b612eac565b6104f0612f26565b604051610277919061442a565b61021f61050b3660046144b9565b613026565b61021f61051e3660046144db565b613063565b610536610531366004614017565b61323e565b604051610277919061450a565b61021f610551366004614017565b613378565b6005546040516331a9108f60e11b815260048101839052829133916001600160a01b0390911690636352211e90602401602060405180830381865afa1580156105a1573d5f803e3d5ffd5b505050506040513d601f19601f820116820180604052508101906105c591906145a9565b6001600160a01b0316146105ec57604051636db2465f60e01b815260040160405180910390fd5b5f8281526015602052604081206002015481904210156106d4575f848152601560205260409020600201546106229042906145d8565b9150678ac7230489e80000610639610e10846145ff565b6106439190614612565b5f8581526015602052604090205490915081116106bb575f84815260156020526040902081906001015f82825461067a91906145d8565b9091555061068b9050603c426145d8565b5f858152601560205260409020600201558060126001015f8282546106b091906145d8565b909155506106ed9050565b60405163af1b273d60e01b815260040160405180910390fd5b6040516336a683ad60e01b815260040160405180910390fd5b835f8051602061484f83398151915260405180604001604052805f81526020018481525060405161071e919061408a565b60405180910390a250505050565b6005546040516331a9108f60e11b815260048101849052839133916001600160a01b0390911690636352211e90602401602060405180830381865afa158015610777573d5f803e3d5ffd5b505050506040513d601f19601f8201168201806040525081019061079b91906145a9565b6001600160a01b0316146107c257604051636db2465f60e01b815260040160405180910390fd5b828260ff165f60155f8481526020019081526020015f2060030180548060200260200160405190810160405280929190818152602001828054801561082457602002820191905f5260205f20905b815481526020019060010190808311610810575b505050505090505f805f90505b825181101561089a575f60165f85848151811061085057610850614629565b60209081029190910181015182528101919091526040015f206003015460ff16905084810361088757826108838161463d565b9350505b50806108928161463d565b915050610831565b506108a760026008614655565b60ff166108b5826001614676565b11156108d457604051630336d90d60e41b815260040160405180910390fd5b5f848152601560205260409020600601546108f0906002614676565b6108fb826001614676565b111561091a5760405163428db80760e01b815260040160405180910390fd5b8661092481610f95565b156109425760405163012ee37d60e51b815260040160405180910390fd5b60145460ff881610610967576040516327b3518960e11b815260040160405180910390fd5b5f60148860ff168154811061097e5761097e614629565b905f5260205f2090600402016040518060800160405290815f820154815260200160018201548152602001600282015481526020016003820180546109c290614689565b80601f01602080910402602001604051908101604052809291908181526020018280546109ee90614689565b8015610a395780601f10610a1057610100808354040283529160200191610a39565b820191905f5260205f20905b815481529060010190602001808311610a1c57829003601f168201915b5050505050815250509050610a69896040518060400160405280845f0151815260200184602001518152506134fa565b8860175f60115481526020019081526020015f20819055506040518060800160405280600181526020014281526020018a81526020018960ff1681525060165f60115481526020019081526020015f205f820151815f015560208201518160010155604082015181600201556060820151816003015f6101000a81548160ff021916908360ff16021790555090505060155f8a81526020019081526020015f20600301601154908060018154018082558091505060019003905f5260205f20015f909190919091505560115f815480929190610b449061463d565b90915550610b56905042615460614676565b5f8a8152601560205260409020600201556011548990610b78906001906145d8565b60405160ff8b1681527fcbecf69dc8611949e753d337378fb4ace6f6ad1e31b5fbf86b6379ea0279ca749060200160405180910390a3505050505050505050565b6005546040516331a9108f60e11b815260048101859052849133916001600160a01b0390911690636352211e90602401602060405180830381865afa158015610c04573d5f803e3d5ffd5b505050506040513d601f19601f82011682018060405250810190610c2891906145a9565b6001600160a01b031614610c4f57604051636db2465f60e01b815260040160405180910390fd5b610c57612676565b518310610c77576040516327b3518960e11b815260040160405180910390fd5b5f84815260156020526040902060040154610c93846001614676565b1115610cb257604051632d7a63d360e11b815260040160405180910390fd5b5f610cbc85612cdc565b93505050508281610ccd9190614676565b5f86815260156020526040902060070154610ce957600a610d06565b5f86815260156020526040902060070154610d0690603290614612565b1015610d2557604051630336d90d60e41b815260040160405180910390fd5b610d84856040518060400160405280866729a2241af62c0000610d489190614612565b815260200186610d56612676565b8981518110610d6757610d67614629565b602002602001015160800151610d7d9190614612565b90526134fa565b610d8f848487613656565b845f8051602061484f8339815191526040518060400160405280866729a2241af62c0000610dbd9190614612565b815260200186610dcb612676565b8981518110610ddc57610ddc614629565b602002602001015160800151610df29190614612565b9052604051610e01919061408a565b60405180910390a25050505050565b6005546040516331a9108f60e11b815260048101859052849133916001600160a01b0390911690636352211e90602401602060405180830381865afa158015610e5b573d5f803e3d5ffd5b505050506040513d601f19601f82011682018060405250810190610e7f91906145a9565b6001600160a01b031614610ea657604051636db2465f60e01b815260040160405180910390fd5b335f90815260186020526040902054821115610ed557604051631e9acf1760e31b815260040160405180910390fd5b6001831115610ef7576040516327b3518960e11b815260040160405180910390fd5b5f610f00610fde565b8460028110610f1157610f11614629565b6020020151610f2884670de0b6b3a7640000614612565b610f3291906145ff565b335f90815260186020526040812080549293508592909190610f559084906145d8565b90915550505f85815260156020526040902081908560028110610f7a57610f7a614629565b015f828254610f899190614676565b90915550505050505050565b5f81815260156020526040812060020154421015610fd9575f82815260156020526040902060020154603c90610fcc9042906145d8565b610fd691906145ff565b90505b919050565b610fe6613ef8565b60408051808201909152670de0b6b3a764000080825260208201526013546012545f9161101291614676565b90505f5b60028110156110e357690a968163f0a57b40000082108061104c57506127106012826002811061104857611048614629565b0154105b1561107e576040518060400160405280670de0b6b3a76400008152602001670de0b6b3a7640000815250935050505090565b6012816002811061109157611091614629565b015461109e906002614612565b6110b083670de0b6b3a7640000614612565b6110ba91906145ff565b8382600281106110cc576110cc614629565b6020020152806110db8161463d565b915050611016565b509092915050565b6005545f82815260176020526040908190205490516331a9108f60e11b81526004810191909152829133916001600160a01b0390911690636352211e90602401602060405180830381865afa158015611146573d5f803e3d5ffd5b505050506040513d601f19601f8201168201806040525081019061116a91906145a9565b6001600160a01b03161461119157604051636db2465f60e01b815260040160405180910390fd5b5f61119b836118c1565b90505f6014826060015160ff16815481106111b8576111b8614629565b905f5260205f2090600402016040518060800160405290815f820154815260200160018201548152602001600282015481526020016003820180546111fc90614689565b80601f016020809104026020016040519081016040528092919081815260200182805461122890614689565b80156112735780601f1061124a57610100808354040283529160200191611273565b820191905f5260205f20905b81548152906001019060200180831161125657829003601f168201915b50505050508152505090505f611288856127f6565b9050611292613ef8565b8181856060015160ff16600281106112ac576112ac614629565b602002018181516112bd9190614676565b9052505f86815260166020908152604080832060029081015484526015909252918290209185015184929181106112f6576112f6614629565b015f8282546113059190614676565b92505081905550816012856060015160ff166002811061132757611327614629565b015f8282546113369190614676565b90915550505f86815260176020526040908190205490517fb52dd8210b1a40e6da8e0fea50d7ce4daa5aba949225ea1cb093dd5d334445379061137a90849061408a565b60405180910390a2505050505050565b335f908152601860205260409020548111156113b95760405163af1b273d60e01b815260040160405180910390fd5b335f90815260186020526040812080548392906113d79084906145d8565b9091555050600654611413906001600160a01b03163360646113fa600a826145d8565b6114049086614612565b61140e91906145ff565b613688565b60405181815233907f884edad9ce6fa2440d8a54cc123490eb96d2768479d49ff9c7366125a9424364906020015b60405180910390a250565b611454613f16565b5f8281526015602052604090819020815161012081019092528160e081018260028282826020028201915b81548152602001906001019080831161147f575050505050815260200160028201548152602001600382018054806020026020016040519081016040528092919081815260200182805480156114f257602002820191905f5260205f20905b8154815260200190600101908083116114de575b505050505081526020016004820154815260200160058201548152602001600682015481526020016007820154815250509050919050565b6005546040516331a9108f60e11b815260048101839052829133916001600160a01b0390911690636352211e90602401602060405180830381865afa158015611575573d5f803e3d5ffd5b505050506040513d601f19601f8201168201806040525081019061159991906145a9565b6001600160a01b0316146115c057604051636db2465f60e01b815260040160405180910390fd5b816115ca81610f95565b156115e85760405163012ee37d60e51b815260040160405180910390fd5b5f8381526015602052604090206005810154611605906001614676565b816006015410156116295760405163428db80760e01b815260040160405180910390fd5b604080518082019182905261166e9186916116699160099060029082845b8154815260200190600101908083116116475750505050508460050154612eac565b6134fa565b600581015461167e906001614676565b61168a90612a30614612565b6116949042614676565b6002820155600581018054905f6116aa8361463d565b9190505550837ffed4122cd1f9640026f0227a22f4b6ae173a38c69ee29a2f09e51b9b7834aa9d826005015460016116e29190614676565b60405190815260200161071e565b5f8381526015602052604081208290846002811061171057611710614629565b0154116117305760405163af1b273d60e01b815260040160405180910390fd5b670de0b6b3a7640000611741610fde565b846002811061175257611752614629565b60200201516117619084614612565b61176b91906145ff565b6117759082614676565b5f8581526015602052604090209091508290846002811061179857611798614629565b015f8282546117a791906145d8565b90915550829050601284600281106117c1576117c1614629565b015f8282546117d091906145d8565b909155505060646117e26005826145d8565b6117ec9083614612565b6117f691906145ff565b335f9081526018602052604081208054909190611814908490614676565b909155505050505050565b5f82815260036020526040812080548291908490811061184157611841614629565b905f5260205f2090600702016001015490504281111561187457603c61186742836145d8565b61187191906145ff565b91505b5092915050565b611883613ef8565b5f82815260156020526040908190208151808301928390529160029082845b8154815260200190600101908083116118a25750505050509050919050565b6118eb60405180608001604052805f81526020015f81526020015f81526020015f60ff1681525090565b505f9081526016602090815260409182902082516080810184528154815260018201549281019290925260028101549282019290925260039091015460ff16606082015290565b6005546040516331a9108f60e11b815260048101839052829133916001600160a01b0390911690636352211e90602401602060405180830381865afa15801561197d573d5f803e3d5ffd5b505050506040513d601f19601f820116820180604052508101906119a191906145a9565b6001600160a01b0316146119c857604051636db2465f60e01b815260040160405180910390fd5b5f82815260156020908152604080832060030180548251818502810185019093528083529192909190830182828015611a1e57602002820191905f5260205f20905b815481526020019060010190808311611a0a575b50505050509050611a2d613ef8565b5f5b601454811015611b57575f611a5c848381518110611a4f57611a4f614629565b60200260200101516118c1565b6060015160ff1690505f611a88858481518110611a7b57611a7b614629565b60200260200101516127f6565b90508060155f60165f898881518110611aa357611aa3614629565b602002602001015181526020019081526020015f206002015481526020019081526020015f205f018360028110611adc57611adc614629565b015f828254611aeb9190614676565b9091555081905060128360028110611b0557611b05614629565b015f828254611b149190614676565b90915550819050848360028110611b2d57611b2d614629565b60200201818151611b3e9190614676565b905250829150611b4f90508161463d565b915050611a2f565b50837fb52dd8210b1a40e6da8e0fea50d7ce4daa5aba949225ea1cb093dd5d334445378260405161071e919061408a565b611b90613783565b611b995f6137af565b565b6005546040516331a9108f60e11b815260048101849052839133916001600160a01b0390911690636352211e90602401602060405180830381865afa158015611be6573d5f803e3d5ffd5b505050506040513d601f19601f82011682018060405250810190611c0a91906145a9565b6001600160a01b031614611c3157604051636db2465f60e01b815260040160405180910390fd5b5f838152600360205260408120805484908110611c5057611c50614629565b905f5260205f20906007020190505f815f015f81548110611c7357611c73614629565b905f5260205f2001541180611ca457505f815f01600181548110611c9957611c99614629565b905f5260205f200154115b611cf55760405162461bcd60e51b815260206004820152601e60248201527f446973706174636865642041726d7920646f6573206e6f74206578697374000060448201526064015b60405180910390fd5b611d53815f01805480602002602001604051908101604052809291908181526020018280548015611d4357602002820191905f5260205f20905b815481526020019060010190808311611d2f575b50505050508260060154866137fe565b60038101545f8581526015602052604081208054909190611d75908490614676565b909155505060038101600101545f8581526015602052604090206001015f828254611da09190614676565b90915550505f8481526003602052604090208054611dc0906001906145d8565b81548110611dd057611dd0614629565b905f5260205f209060070201905060035f8581526020019081526020015f20805480611dfe57611dfe6146bb565b5f828152602081205f1990920191600783020190611e1c8282613f54565b5f60018301819055600283018190556003830181905560048301555060058101805460ff191690555f600690910155905550505050565b6005546040516331a9108f60e11b815260048101839052829133916001600160a01b0390911690636352211e90602401602060405180830381865afa158015611e9e573d5f803e3d5ffd5b505050506040513d601f19601f82011682018060405250810190611ec291906145a9565b6001600160a01b031614611ee957604051636db2465f60e01b815260040160405180910390fd5b81611ef381610f95565b15611f115760405163012ee37d60e51b815260040160405180910390fd5b5f8381526015602052604090206004810154611f2e906001614676565b81600601541015611f525760405163428db80760e01b815260040160405180910390fd5b6040805180820191829052611f929186916116699160079060029082845b815481526020019060010190808311611f705750505050508460040154612eac565b6004810154611fa2906001614676565b611fae90612a30614612565b611fb89042614676565b6002820155600481018054905f611fce8361463d565b9190505550837f04ef68448efe10b7d8fafcde9fb44988ae65b7e3f9e50deeb5dd7a67fd406633826004015460016116e29190614676565b6004548351146120515760405162461bcd60e51b8152602060048201526016602482015275098cadccee8d0e640c8decae640dcdee840dac2e8c6d60531b6044820152606401611cec565b5f61205e838360016138a2565b9150505f61206b84612cdc565b935050505061208e8460405180604001604052808481526020015f8152506134fa565b60035f8581526020019081526020015f206040518060c0016040528087815260200184426120bc9190614676565b815260208082018790526040805180820182525f80825281840181905291840152606083018190526064608090930192909252835460018101855593825290819020825180519394600702909101926121189284920190613f6f565b506020820151816001015560408201518160020155606082015181600301906002612144929190613fb8565b50608082015160058201805460ff191691151591909117905560a0909101516006909101555050505050565b6005545f83815260176020526040908190205490516331a9108f60e11b81526004810191909152839133916001600160a01b0390911690636352211e90602401602060405180830381865afa1580156121cb573d5f803e3d5ffd5b505050506040513d601f19601f820116820180604052508101906121ef91906145a9565b6001600160a01b03161461221657604051636db2465f60e01b815260040160405180910390fd5b8161222081610f95565b1561223e5760405163012ee37d60e51b815260040160405180910390fd5b5f84815260176020526040902054831461226b576040516327b3518960e11b815260040160405180910390fd5b612274846110eb565b5f848152601660205260408120600381015490546014805460ff909316939192849081106122a4576122a4614629565b905f5260205f2090600402016040518060800160405290815f820154815260200160018201548152602001600282015481526020016003820180546122e890614689565b80601f016020809104026020016040519081016040528092919081815260200182805461231490614689565b801561235f5780601f106123365761010080835404028352916020019161235f565b820191905f5260205f20905b81548152906001019060200180831161234257829003601f168201915b50505050508152505090506123b186604051806040016040528085600261238691906147af565b85602001516123959190614612565b81526020016123a58660026147af565b8551610d7d9190614612565b6123bc826001614676565b5f888152601660205260409020556123d5826001614676565b6123e190612a30614612565b6123eb9042614676565b5f87815260156020526040902060020155867feb0ebb51128928d7b1a6419c52128a9319bfcb55f0adafea75afbf75f9f2f3e9612429846001614676565b60405190815260200160405180910390a250505050505050565b5f805f8060035f8781526020019081526020015f20858154811061246957612469614629565b905f5260205f20906007020190505f805f806124888560020154612cdc565b509250925050606460155f876002015481526020019081526020015f206005015460056124b59190614612565b6124bf91906145ff565b6124c99083614612565b6124d39083614676565b91505f5b85548110156125b357600481815481106124f3576124f3614629565b5f918252602090912060039091020154865460ff9091169087908390811061251d5761251d614629565b905f5260205f2001546125309190614612565b61253a9086614676565b94506004818154811061254f5761254f614629565b905f5260205f2090600302015f0160029054906101000a900460ff1660ff16865f01828154811061258257612582614629565b905f5260205f2001546125959190614612565b61259f9085614676565b9350806125ab8161463d565b9150506124d7565b505f805f6125c38787878761395c565b9250925092506125d7818960020154613c3c565b60058801805460ff19166001179055600688018290558215612621575f61260d8960020154838561260891906145d8565b613cc8565b905061261e60038a01826002613fb8565b50505b87600201548d7f742e5a32c080cbbf9ee2def8b76b428088934a6e7332c8d79f91b333ecc3bbf9858b60030160405161265b9291906147ba565b60405180910390a39199509750955050505050509250925092565b60606004805480602002602001604051908101604052809291908181526020015f905b82821015612791575f8481526020908190206040805160a08101825260038602909201805460ff80821685526101008204811695850195909552620100009004909316908201526001820180549192916060840191906126f890614689565b80601f016020809104026020016040519081016040528092919081815260200182805461272490614689565b801561276f5780601f106127465761010080835404028352916020019161276f565b820191905f5260205f20905b81548152906001019060200180831161275257829003601f168201915b5050505050815260200160028201548152505081526020019060010190612699565b50505050905090565b6127a2613fe5565b5f5b6004548110156127f0575f8381526001602090815260408083208484529091529020548282600681106127d9576127d9614629565b6020020152806127e88161463d565b9150506127a4565b50919050565b5f80612801836118c1565b90505f81602001514261281491906145d8565b90505f6001835f015161282791906145d8565b6128329060026147af565b61283e612a30846145ff565b61285090670de0b6b3a7640000614612565b61285a9190614612565b8351909150612872906804563918244f400000614612565b81111561289157825161288e906804563918244f400000614612565b90505b949350505050565b6005546040516331a9108f60e11b815260048101859052849133916001600160a01b0390911690636352211e90602401602060405180830381865afa1580156128e4573d5f803e3d5ffd5b505050506040513d601f19601f8201168201806040525081019061290891906145a9565b6001600160a01b03161461292f57604051636db2465f60e01b815260040160405180910390fd5b5f8481526015602052604090208290846002811061294f5761294f614629565b015410156129705760405163af1b273d60e01b815260040160405180910390fd5b5f8481526015602052604090208290846002811061299057612990614629565b015f82825461299f91906145d8565b909155505f905083156129b2575f6129b5565b60015b60ff1690505f6129c3610fde565b90505f8183600281106129d8576129d8614629565b60200201516129ef90670de0b6b3a7640000614612565b828760028110612a0157612a01614629565b6020020151612a109087614612565b612a1a91906145ff565b90506064612a296005826145d8565b612a339083614612565b612a3d91906145ff565b5f8881526015602052604090208460028110612a5b57612a5b614629565b015f828254612a6a9190614676565b9091555081905060128760028110612a8457612a84614629565b015f828254612a9391906145d8565b9091555081905060128460028110612aad57612aad614629565b015f828254612abc9190614676565b90915550612aca9050613ef8565b6064612ad7600584614612565b612ae191906145ff565b818560028110612af357612af3614629565b602002015260405188905f8051602061484f83398151915290612b1790849061408a565b60405180910390a25050505050505050565b6005546040516331a9108f60e11b815260048101839052829133916001600160a01b0390911690636352211e90602401602060405180830381865afa158015612b74573d5f803e3d5ffd5b505050506040513d601f19601f82011682018060405250810190612b9891906145a9565b6001600160a01b031614612bbf57604051636db2465f60e01b815260040160405180910390fd5b81612bc981610f95565b15612be75760405163012ee37d60e51b815260040160405180910390fd5b5f8381526015602052604090206007810154612c04906001614676565b81600601541015612c285760405163428db80760e01b815260040160405180910390fd5b6040805180820191829052612c6891869161166991600d9060029082845b815481526020019060010190808311612c465750505050508460070154612eac565b6007810154612c78906001614676565b612c8490612a30614612565b612c8e9042614676565b6002820155600781018054905f612ca48361463d565b9190505550837f5982da6cf94280613f2ba3066edb43e8c2f92c7053d39a1a7cbd3c778f2b9b41826007015460016116e29190614676565b5f805f805f5b600454811015612e37575f8681526001602090815260408083208484529091529020546004805483908110612d1957612d19614629565b5f918252602090912060039091020154612d36919060ff16614612565b612d409086614676565b5f87815260016020908152604080832085845290915290205460048054929750909183908110612d7257612d72614629565b5f918252602090912060039091020154612d949190610100900460ff16614612565b612d9e9085614676565b5f87815260016020908152604080832085845290915290205460048054929650909183908110612dd057612dd0614629565b5f918252602090912060039091020154612df3919062010000900460ff16614612565b612dfd9084614676565b5f878152600160209081526040808320858452909152902054909350612e239083614676565b915080612e2f8161463d565b915050612ce2565b509193509193565b600654612e57906001600160a01b0316333084613d80565b335f9081526018602052604081208054839290612e75908490614676565b909155505060405181815233907fe1fffcc4923d04b559f4d29a8bfc6cda04eb5b0d3c460751c2402c5c5cc9109c90602001611441565b612eb4613ef8565b612ebc613ef8565b5f5b6002811015612f1c57612ed28460026147af565b858260028110612ee457612ee4614629565b6020020151612ef39190614612565b828260028110612f0557612f05614629565b602002015280612f148161463d565b915050612ebe565b5090505b92915050565b60606014805480602002602001604051908101604052809291908181526020015f905b82821015612791578382905f5260205f2090600402016040518060800160405290815f82015481526020016001820154815260200160028201548152602001600382018054612f9790614689565b80601f0160208091040260200160405190810160405280929190818152602001828054612fc390614689565b801561300e5780601f10612fe55761010080835404028352916020019161300e565b820191905f5260205f20905b815481529060010190602001808311612ff157829003601f168201915b50505050508152505081526020019060010190612f49565b61302e613783565b6001600160a01b03811661305757604051631e4fbdf760e01b81525f6004820152602401611cec565b613060816137af565b50565b6005546040516331a9108f60e11b815260048101849052839133916001600160a01b0390911690636352211e90602401602060405180830381865afa1580156130ae573d5f803e3d5ffd5b505050506040513d601f19601f820116820180604052508101906130d291906145a9565b6001600160a01b0316146130f957604051636db2465f60e01b815260040160405180910390fd5b5f8381526015602052604090208490866002811061311957613119614629565b015410156131605760405162461bcd60e51b8152602060048201526014602482015273496e73756666696369656e742062616c616e636560601b6044820152606401611cec565b5f8381526015602052604090208490866002811061318057613180614629565b015f82825461318f91906145d8565b90915550606490506131a26007826145d8565b6131ac9086614612565b6131b691906145ff565b5f83815260156020526040902086600281106131d4576131d4614629565b015f8282546131e39190614676565b909155506131f19050613ef8565b60646131fe600787614612565b61320891906145ff565b81876002811061321a5761321a614629565b602002015260405183905f8051602061484f8339815191529061137a90849061408a565b606060035f8381526020019081526020015f20805480602002602001604051908101604052809291908181526020015f905b8282101561336d578382905f5260205f2090600702016040518060c00160405290815f82018054806020026020016040519081016040528092919081815260200182805480156132dd57602002820191905f5260205f20905b8154815260200190600101908083116132c9575b50505050508152602001600182015481526020016002820154815260200160038201600280602002604051908101604052809291908260028015613336576020028201915b815481526020019060010190808311613322575b5050509183525050600582015460ff1615156020808301919091526006909201546040909101529082526001929092019101613270565b505050509050919050565b6005546040516331a9108f60e11b815260048101839052829133916001600160a01b0390911690636352211e90602401602060405180830381865afa1580156133c3573d5f803e3d5ffd5b505050506040513d601f19601f820116820180604052508101906133e791906145a9565b6001600160a01b03161461340e57604051636db2465f60e01b815260040160405180910390fd5b8161341881610f95565b156134365760405163012ee37d60e51b815260040160405180910390fd5b5f838152601560205260409081902081518083019283905290916134869186916116699190600b9060029082845b8154815260200190600101908083116134645750505050508460060154612eac565b6006810154613496906001614676565b6134a290615460614612565b6134ac9042614676565b6002820155600681018054905f6134c28361463d565b9190505550837fcc41656265acd445daf9de7af23ef21744525e878a546550a86a5ab78a4aef67826006015460016116e29190614676565b5f5b600281101561362c5781816002811061351757613517614629565b60200201516135258461187b565b826002811061353657613536614629565b6020020151101561355a57604051631e9acf1760e31b815260040160405180910390fd5b81816002811061356c5761356c614629565b602002015160155f8581526020019081526020015f205f01826002811061359557613595614629565b015f8282546135a491906145d8565b9091555082905081600281106135bc576135bc614629565b6020020151601282600281106135d4576135d4614629565b01541061361a578181600281106135ed576135ed614629565b60200201516012826002811061360557613605614629565b015f82825461361491906145d8565b90915550505b806136248161463d565b9150506134fc565b50815f8051602061484f8339815191528260405161364a919061408a565b60405180910390a25050565b5f8181526001602090815260408083208684529091528120805484929061367e908490614676565b9091555050505050565b604080516001600160a01b038481166024830152604480830185905283518084039091018152606490920183526020820180516001600160e01b031663a9059cbb60e01b17905291515f928392908716916136e391906147f3565b5f604051808303815f865af19150503d805f811461371c576040519150601f19603f3d011682016040523d82523d5f602084013e613721565b606091505b509150915081801561374b57508051158061374b57508080602001905181019061374b919061480e565b61377c5760405162461bcd60e51b815260206004820152600260248201526114d560f21b6044820152606401611cec565b5050505050565b5f546001600160a01b03163314611b995760405163118cdaa760e01b8152336004820152602401611cec565b5f80546001600160a01b038381166001600160a01b0319831681178455604051919092169283917f8be0079c531659141344cd1fd0a4f28419497f9722a3daafe3b4186f6b6457e09190a35050565b5f5b60045481101561389c575f84828151811061381d5761381d614629565b6020026020010151111561388a5760648385838151811061384057613840614629565b60200260200101516138529190614612565b61385c91906145ff565b5f83815260016020908152604080832085845290915281208054909190613884908490614676565b90915550505b806138948161463d565b915050613800565b50505050565b5f805f806138af87613e85565b915091505f806138be88613e85565b91509150600596505f8483116138dd576138d883866145d8565b6138e7565b6138e785846145d8565b90505f848311613900576138fb83866145d8565b61390a565b61390a85846145d8565b905061393461391a60028361482d565b61392560028561482d565b61392f9190614676565b613ea6565b975088613942896064614612565b61394c91906145ff565b9650505050505050935093915050565b5f805f805f80898711801561397057508789115b15613a2c5761397f8a886145d8565b613989898b6145d8565b11156139f1575060018861399e60038a6145ff565b6139a8908b6145d8565b6139b3906064614612565b6139bd91906145ff565b9250866139cb60028c6145ff565b6139d590896145d8565b6139e0906064614612565b6139ea91906145ff565b9150613c2e565b505f886139ff60028a6145ff565b613a09908b6145d8565b613a14906064614612565b613a1e91906145ff565b9250866139cb60038c6145ff565b89871015613b34575060016002613a44886003614612565b613a4e91906145ff565b8a1015613a875788613a6160048a6145ff565b613a6b908b6145d8565b613a76906064614612565b613a8091906145ff565b9250601e91505b896002613a95896003614612565b613a9f91906145ff565b108015613ab5575089613ab3886002614612565b115b15613aec5788613ac660058a6145ff565b613ad0908b6145d8565b613adb906064614612565b613ae591906145ff565b9250600f91505b89613af8886002614612565b1015613b2f5788613b0a60068a6145ff565b613b14908b6145d8565b613b1f906064614612565b613b2991906145ff565b92505f91505b613c2e565b505f6002613b438a6003614612565b613b4d91906145ff565b881015613b8657601e925086613b6460048c6145ff565b613b6e90896145d8565b613b79906064614612565b613b8391906145ff565b91505b87613b928a6002614612565b1015613bca57600f925086613ba860058c6145ff565b613bb290896145d8565b613bbd906064614612565b613bc791906145ff565b91505b876002613bd88b6003614612565b613be291906145ff565b108015613bf8575087613bf68a6002614612565b115b15613c2e575f925086613c0c60068c6145ff565b613c1690896145d8565b613c21906064614612565b613c2b91906145ff565b91505b999198509650945050505050565b5f5b600454811015613cc3575f82815260016020908152604080832084845290915290205415613cb1575f828152600160209081526040808320848452909152902054606490613c8d908590614612565b613c9791906145ff565b5f8381526001602090815260408083208584529091529020555b80613cbb8161463d565b915050613c3e565b505050565b613cd0613ef8565b5f5b6002811015611874575f84815260156020526040812060649085908460028110613cfe57613cfe614629565b0154613d0a9190614612565b613d1491906145ff565b905080838360028110613d2957613d29614629565b6020020181815250508060155f8781526020019081526020015f205f018360028110613d5757613d57614629565b015f828254613d6691906145d8565b90915550829150613d7890508161463d565b915050613cd2565b604080516001600160a01b0385811660248301528481166044830152606480830185905283518084039091018152608490920183526020820180516001600160e01b03166323b872dd60e01b17905291515f92839290881691613de391906147f3565b5f604051808303815f865af19150503d805f8114613e1c576040519150601f19603f3d011682016040523d82523d5f602084013e613e21565b606091505b5091509150818015613e4b575080511580613e4b575080806020019051810190613e4b919061480e565b613e7d5760405162461bcd60e51b815260206004820152600360248201526229aa2360e91b6044820152606401611cec565b505050505050565b5f80613e926064846145ff565b613e9d60648561483b565b91509150915091565b5f806002613eb5846001614676565b613ebf91906145ff565b90508291505b818110156127f057905080600281613edd81866145ff565b613ee79190614676565b613ef191906145ff565b9050613ec5565b60405180604001604052806002906020820280368337509192915050565b6040518060e00160405280613f29613ef8565b81526020015f8152602001606081526020015f81526020015f81526020015f81526020015f81525090565b5080545f8255905f5260205f20908101906130609190614003565b828054828255905f5260205f20908101928215613fa8579160200282015b82811115613fa8578251825591602001919060010190613f8d565b50613fb4929150614003565b5090565b8260028101928215613fa85791602002820182811115613fa8578251825591602001919060010190613f8d565b6040518060c001604052806006906020820280368337509192915050565b5b80821115613fb4575f8155600101614004565b5f60208284031215614027575f80fd5b5035919050565b5f806040838503121561403f575f80fd5b82359150602083013560ff81168114614056575f80fd5b809150509250929050565b5f805f60608486031215614073575f80fd5b505081359360208301359350604090920135919050565b6040810181835f5b60028110156140b1578151835260209283019290910190600101614092565b50505092915050565b805f5b600281101561389c5781518452602093840193909101906001016140bd565b5f8151808452602080850194508084015f5b8381101561410a578151875295820195908201906001016140ee565b509495945050505050565b602081526141276020820183516140ba565b602082015160608201525f604083015161010080608085015261414e6101208501836140dc565b9150606085015160a0850152608085015160c085015260a085015160e085015260c085015181850152508091505092915050565b5f8060408385031215614193575f80fd5b50508035926020909101359150565b634e487b7160e01b5f52604160045260245ffd5b604051601f8201601f1916810167ffffffffffffffff811182821017156141df576141df6141a2565b604052919050565b5f805f606084860312156141f9575f80fd5b833567ffffffffffffffff80821115614210575f80fd5b818601915086601f830112614223575f80fd5b8135602082821115614237576142376141a2565b8160051b92506142488184016141b6565b828152928401810192818101908a851115614261575f80fd5b948201945b8486101561427f57853582529482019490820190614266565b9a918901359950506040909701359695505050505050565b5f5b838110156142b1578181015183820152602001614299565b50505f910152565b5f81518084526142d0816020860160208601614297565b601f01601f19169290920160200192915050565b5f6020808301818452808551808352604092508286019150828160051b8701018488015f5b8381101561437457603f19898403018552815160a060ff808351168652808a840151168a87015280898401511689870152506060808301518282880152614352838801826142b9565b6080948501519790940196909652505094870194925090860190600101614309565b509098975050505050505050565b60c0810181835f5b60068110156140b157815183526020928301929091019060010161438a565b5f80606083850312156143ba575f80fd5b83601f8401126143c8575f80fd5b6040516040810181811067ffffffffffffffff821117156143eb576143eb6141a2565b8060405250806040850186811115614401575f80fd5b855b8181101561441b578035835260209283019201614403565b50919691359550909350505050565b5f6020808301818452808551808352604092508286019150828160051b8701018488015f5b8381101561437457888303603f1901855281518051845287810151888501528681015187850152606090810151608091850182905290614491818601836142b9565b96890196945050509086019060010161444f565b6001600160a01b0381168114613060575f80fd5b5f602082840312156144c9575f80fd5b81356144d4816144a5565b9392505050565b5f805f80608085870312156144ee575f80fd5b5050823594602084013594506040840135936060013592509050565b5f6020808301818452808551808352604092508286019150828160051b8701018488015f5b8381101561437457603f19898403018552815160e08151818652614555828701826140dc565b9150508882015189860152878201518886015260608083015161457a828801826140ba565b50506080820151151560a0868101919091529091015160c090940193909352938601939086019060010161452f565b5f602082840312156145b9575f80fd5b81516144d4816144a5565b634e487b7160e01b5f52601160045260245ffd5b81810381811115612f2057612f206145c4565b634e487b7160e01b5f52601260045260245ffd5b5f8261460d5761460d6145eb565b500490565b8082028115828204841417612f2057612f206145c4565b634e487b7160e01b5f52603260045260245ffd5b5f6001820161464e5761464e6145c4565b5060010190565b5f60ff831680614667576146676145eb565b8060ff84160491505092915050565b80820180821115612f2057612f206145c4565b600181811c9082168061469d57607f821691505b6020821081036127f057634e487b7160e01b5f52602260045260245ffd5b634e487b7160e01b5f52603160045260245ffd5b600181815b8085111561470957815f19048211156146ef576146ef6145c4565b808516156146fc57918102915b93841c93908002906146d4565b509250929050565b5f8261471f57506001612f20565b8161472b57505f612f20565b8160018114614741576002811461474b57614767565b6001915050612f20565b60ff84111561475c5761475c6145c4565b50506001821b612f20565b5060208310610133831016604e8410600b841016171561478a575081810a612f20565b61479483836146cf565b805f19048211156147a7576147a76145c4565b029392505050565b5f6144d48383614711565b8215158152606081016020808301845f5b60028110156147e8578154835291830191600191820191016147cb565b505050509392505050565b5f8251614804818460208701614297565b9190910192915050565b5f6020828403121561481e575f80fd5b815180151581146144d4575f80fd5b5f6144d460ff841683614711565b5f82614849576148496145eb565b50069056fe67d910d28fd4b2aeda12200f3aa784bd1aed68019163872ec289d5074da24b68a2646970667358221220f9f41120430ca4449235323ef1abab74c6b0ebe2084d6734ca88bf56edc925a664736f6c63430008140033ce6d7b5282bd9a3661ae061feed1dbda4e52ab073b1f9285be6e155d9c38d4ef8a35acfbc15ff81a39ae7d344fd709f28e8600b4aa8c65c6b64bfe7fe36bd19cce6d7b5282bd9a3661ae061feed1dbda4e52ab073b1f9285be6e155d9c38d4edce6d7b5282bd9a3661ae061feed1dbda4e52ab073b1f9285be6e155d9c38d4ee8a35acfbc15ff81a39ae7d344fd709f28e8600b4aa8c65c6b64bfe7fe36bd19bce6d7b5282bd9a3661ae061feed1dbda4e52ab073b1f9285be6e155d9c38d4ec",
  "linkReferences": {},
  "deployedLinkReferences": {}
}